00025103   O31A112511100025111201605310643100025111MSP153400/DD5555-235186      A  0002510300029073                                 L31790                              NCKE, MS. CHUI HONG, MICHELLE MI20160615        1N10003827420160625SEA.FSINLIGHTING                                                       O   
00025103   O31A212511100025111201605310643100025111MSP153400/DD5555-235186      FOB0                              USD                                                                20160710                SCMM                                        00038274                                                     
00025103   O31E112511100025111201605310643100025111MSP153400/DD5555-235186  0001EFU11E652V          EFU11E652V                              00002000  0000000011863400000010                DD5555-235186                                                                                                             
00025103   O31E112511100025111201605310643100025111MSP153400/DD5555-235186  0002EFU18E652V          EFU18E652V                              00003000  0000000013553400000010                DD5555-235186                                                                                                             
00025103   O31E112511100025111201605310643100025111MSP153400/DD5555-235186  0003EFU8E272V           EFU8E272V                               00001000  0000000011608400000010                DD5555-235186                                                     
00025103   O31A112511100025111201605310643100025111MSP153463/DD5555-235187      A  0002510300029073                                 S31790                              NCKE, MS. CHUI HONG, MICHELLE MI20160615        1N10003827420160625SEA.FSINLIGHTING                                                       O   
00025103   O31A212511100025111201605310643100025111MSP153463/DD5555-235187      FOB0                              USD                                                                20160710                SCMM                                        00038274                                                     
00025103   O31E112511100025111201605310643100025111MSP153463/DD5555-235187  0001EFDHV11D65A         EFDHV11D65A                             00003840  0000000012239400000010                DD5555-235187                                                                                                             
00025103   O31E112511100025111201605310643100025111MSP153463/DD5555-235187  0002EFDHV11L27A         EFDHV11L27A                             00000960  0000000012239400000010                DD5555-235187                                                                                                             
00025103   O31E112511100025111201605310643100025111MSP153463/DD5555-235187  0003EFDHV15D65A         EFDHV15D65A                             00005760  0000000012239400000010                DD5555-235187                                                                                                             
00025103   O31E112511100025111201605310643100025111MSP153463/DD5555-235187  0004EFDHV15L27A         EFDHV15L27A                             00005760  0000000012239400000010                DD5555-235187                                                                                                             
00025103   O31E112511100025111201605310643100025111MSP153463/DD5555-235187  0005EFDHV20D65A         EFDHV20D65A                             00015360  0000000000152200000010                DD5555-235187                                                                                                             
00025103   O31E112511100025111201605310643100025111MSP153463/DD5555-235187  0006EFDHV20L27A         EFDHV20L27A                             00000960  0000000000152200000010                DD5555-235187                                                                                                             
00025103   O31E112511100025111201605310643100025111MSP153463/DD5555-235187  0007EFDHV23D65A         EFDHV23D65A                             00005760  0000000000152200000010                DD5555-235187                                                                                                             
00025103   O31E112511100025111201605310643100025111MSP153463/DD5555-235187  0008EFDHV23L27A         EFDHV23L27A                             00000960  0000000000152200000010                DD5555-235187                                                                                                             
00025103   O31E112511100025111201605310643100025111MSP153463/DD5555-235187  0009EFDHV25D65A         EFDHV25D65A                             00005760  0000000000152200000010                DD5555-235187                                                                                                             
00025103   O31E112511100025111201605310643100025111MSP153463/DD5555-235187  0010EFDHV25L27A         EFDHV25L27A                             00000960  0000000000152200000010                DD5555-235187                                                                                                             
00025103   O31E112511100025111201605310643100025111MSP153463/DD5555-235187  0011EFDHV5D65A          EFDHV5D65A                              00001920  0000000010363400000010                DD5555-235187                                                                                                             
00025103   O31E112511100025111201605310643100025111MSP153463/DD5555-235187  0012EFDHV8D65A          EFDHV8D65A                              00001920  0000000010363400000010                DD5555-235187                                                                                                             
00025103   O31E112511100025111201605310643100025111MSP153463/DD5555-235187  0013EFDHV8L27A          EFDHV8L27A                              00001920  0000000010363400000010                DD5555-235187                                                                                                             
                                                                                                             
