129576     O31A113914600029576201508211600900025006KY-0XQP                       110002500600029073                                 FT                                  N F/GDS - TRI(ASIA           )  20150728        1N10002957620150825SEA.FSIN                                                               O   
129576     O31A213914600029576201508211600900025006KY-0XQP                      FOB                               USD                                                                20150910                SCMM                                        00029576                   00029073  PSP-DD                  
129576     O31A613914600029576201508211600900025006KY-0XQP                      T/T BY 10TH OF NEXT MONTH                         BY T/T REMITTANCE ON THE 10TH OF THE NEXT MONTH                                                                                                                                     
129576     O31E113914600029576201508211600900025006KY-0XQP                  0001EFU14E652V          EFU14E652V                    00025347CB00000000PC000000001257320000100020150825SEA.FSINMSP144409/DD5555-233236                                                                                                   
129576     O31E313914600029576201508211600900025006KY-0XQP                  0001                20150910                                                                                                                                                                                                              
129576     O31E113914600029576201508211600900025006KY-0XQP                  0002EFU8E652V           EFU8E652V                     00025347CB00000000PC000000001171420000100020150825SEA.FSINMSP144409/DD5555-233236                                                                                                   
129576     O31E313914600029576201508211600900025006KY-0XQP                  0002                20150910                                                                                                                                                                                                              
