129576     O31A113914600029576201510291100200025006KY-7KA1                       110002500600029073                                 FT                                  N F/GDS - TRI(ASIA           )  20151027        1N10002957620151204SEA.FSIN                                                               O   
129576     O31A213914600029576201510291100200025006KY-7KA1                      FOB                               USD                                                                20151210                SCMM                                        00029576                   00029073  PSP-DD                  
129576     O31A613914600029576201510291100200025006KY-7KA1                      Line 3:Order Qty                                                                                                                                                                                                                      
129576     O31E113914600029576201510291100 00025006KY-7KA1                  0001FCL22D+FCL32D       FCL22D+FCL32D                 00025346CB00040000PA000000002004920000100020151204SEA.FSINMSP147522/DD5555-233879                                                                                                   
129576     O31E313914600029576201510291100 00025006KY-7KA1                  0001                20151210                                                                                                                                                                                                              
129576     O31E113914600029576201510291100 00025006KY-7KA1                  0002FCL22EXD            FCL22EXD                      00025346CB00012000PC000000002038820000100020151204SEA.FSINMSP147522/DD5555-233879                                                                                                   
129576     O31E313914600029576201510291100 00025006KY-7KA1                  0002                20151210                                                                                                                                                                                                              
129576     O31E113914600029576201510291100200025006KY-7KA1                  0003FCL40EX-D(I)        FCL40EX-D(I)                  00025346CB00010800PC000000003563720000100020151204SEA.FSINMSP147522/DD5555-233879                                                                                                   
129576     O31E313914600029576201510291100200025006KY-7KA1                  0003                20151210                                                                                                                                                                                                              
