129576     O31A113914600029576201506261300200025006LS-WX9Z                       110002500600039051000390515000031466               FT                                  N F/GDS - TRI(LATIN AMERICA  )  20150603        1N10002957620150729SEA.FMEX                                                               O   
129576     O31A213914600029576201506261300200025006LS-WX9Z                      FOB                               USD                                 PANAMEX                        201508050003905100039051                                            00029576                   00039051  PANAMEX                 
129576     O31A613914600029576201506261300200025006LS-WX9Z                      WHS DATE,Cust Req Delivery date, Fty Due date                                                                                                                                                                                         
129576     O31E113914600029576201506261300 00025006LS-WX9Z                  0001EFDLV11D65L                                       00025347CB00003000PC000000001115520000100020150729SEA.FMEX91507284                                                                                                                  
129576     O31E313914600029576201506261300 00025006LS-WX9Z                  0001                2015080500039051                                                                                                                                                                                                      
129576     O31E113914600029576201506261300 00025006LS-WX9Z                  0002EFDLV15L27L                                       00025347CB00001680PC000000001115520000100020150729SEA.FMEX91507284                                                                                                                  
129576     O31E313914600029576201506261300 00025006LS-WX9Z                  0002                2015080500039051                                                                                                                                                                                                      
129576     O31E113914600029576201506261300 00025006LS-WX9Z                  0003EFDLV15D65L                                       00025347CB00043680PC000000001115520000100020150729SEA.FMEX91507284                                                                                                                  
129576     O31E313914600029576201506261300 00025006LS-WX9Z                  0003                2015080500039051                                                                                                                                                                                                      
129576     O31E113914600029576201506261300 00025006LS-WX9Z                  0004EFDLV20L27L                                       00025347CB00004080PC000000001264920000100020150729SEA.FMEX91507284                                                                                                                  
129576     O31E313914600029576201506261300 00025006LS-WX9Z                  0004                2015080500039051                                                                                                                                                                                                      
129576     O31E113914600029576201506261300 00025006LS-WX9Z                  0005EFDLV20D65L                                       00025347CB00026880PC000000001264920000100020150729SEA.FMEX91507284                                                                                                                  
129576     O31E313914600029576201506261300 00025006LS-WX9Z                  0005                2015080500039051                                                                                                                                                                                                      
129576     O31E113914600029576201506261300 00025006LS-WX9Z                  0006EFDLV23L27L                                       00025347CB00004440PC000000001563720000100020150729SEA.FMEX91507284                                                                                                                  
129576     O31E313914600029576201506261300 00025006LS-WX9Z                  0006                2015080500039051                                                                                                                                                                                                      
129576     O31E113914600029576201506261300 00025006LS-WX9Z                  0007EFDLV23D65L                                       00025347CB00021960PC000000001563720000100020150729SEA.FMEX91507284                                                                                                                  
129576     O31E313914600029576201506261300 00025006LS-WX9Z                  0007                2015080500039051                                                                                                                                                                                                      
129576     O31E113914600029576201506261300 00025006LS-WX9Z                  0008EFDLV25D65L                                       00025347CB00015000PC000000001563720000100020150729SEA.FMEX91507284                                                                                                                  
129576     O31E313914600029576201506261300 00025006LS-WX9Z                  0008                2015080500039051                                                                                                                                                                                                      
