129576     O31A113914600029576201508260300900025006KY-2TGD                       110002500620619678                                 FT                                  N F/GDS - TRI(ASIA           )  20150825        1N10002957620150830SEA.FSGN                                                               O   
129576     O31A213914600029576201508260300900025006KY-2TGD                      FOB                               USD                                                                20150916                                                            00029576                   20619678  PV-PSV HCM              
129576     O31A613914600029576201508260300900025006KY-2TGD                      T/T BY 10TH OF NEXT MONTH                         BY T/T REMITTANCE ON THE 10TH OF THE NEXT MONTH                                                                                                                                     
129576     O31E113914600029576201508260300900025006KY-2TGD                  0001EFDHV15D65A         EFDHV15D65A                   00025347CB00000000PC000000001170320000100020150830SEA.FSGNMSV144947/I207-113365                                                                                                     
129576     O31E313914600029576201508260300900025006KY-2TGD                  0001                20150916                                                                                                                                                                                                              
129576     O31E113914600029576201508260300900025006KY-2TGD                  0002EFDHV15L27A         EFDHV15L27A                   00025347CB00000000PC000000001170320000100020150830SEA.FSGNMSV144947/I207-113365                                                                                                     
129576     O31E313914600029576201508260300900025006KY-2TGD                  0002                20150916                                                                                                                                                                                                              
129576     O31E113914600029576201508260300900025006KY-2TGD                  0003EFDHV20D65A         EFDHV20D65A                   00025347CB00000000PC000000001451220000100020150830SEA.FSGNMSV144947/I207-113365                                                                                                     
129576     O31E313914600029576201508260300900025006KY-2TGD                  0003                20150916                                                                                                                                                                                                              
129576     O31E113914600029576201508260300900025006KY-2TGD                  0004EFDHV20L27A         EFDHV20L27A                   00025347CB00000000PC000000001451220000100020150830SEA.FSGNMSV144947/I207-113365                                                                                                     
129576     O31E313914600029576201508260300900025006KY-2TGD                  0004                20150916                                                                                                                                                                                                              
129576     O31E113914600029576201508260300900025006KY-2TGD                  0005EFDHV23D65A         EFDHV23D65A                   00025347CB00000000PC000000001451220000100020150830SEA.FSGNMSV144947/I207-113365                                                                                                     
129576     O31E313914600029576201508260300900025006KY-2TGD                  0005                20150916                                                                                                                                                                                                              
129576     O31E113914600029576201508260300900025006KY-2TGD                  0006EFDHV23L27A         EFDHV23L27A                   00025347CB00000000PC000000001451220000100020150830SEA.FSGNMSV144947/I207-113365                                                                                                     
129576     O31E313914600029576201508260300900025006KY-2TGD                  0006                20150916                                                                                                                                                                                                              
129576     O31E113914600029576201508260300900025006KY-2TGD                  0007EFDHV25D65A         EFDHV25D65A                   00025347CB00000000PC000000001451220000100020150830SEA.FSGNMSV144947/I207-113365                                                                                                     
129576     O31E313914600029576201508260300900025006KY-2TGD                  0007                20150916                                                                                                                                                                                                              
129576     O31E113914600029576201508260300900025006KY-2TGD                  0008EFDHV25L27A         EFDHV25L27A                   00025347CB00000000PC000000001451220000100020150830SEA.FSGNMSV144947/I207-113365                                                                                                     
129576     O31E313914600029576201508260300900025006KY-2TGD                  0008                20150916                                                                                                                                                                                                              
129576     O31E113914600029576201508260300900025006KY-2TGD                  0009EFDHV5D65A          EFDHV5D65A                    00025347CB00000000PC000000000992420000100020150830SEA.FSGNMSV144947/I207-113365                                                                                                     
129576     O31E313914600029576201508260300900025006KY-2TGD                  0009                20150916                                                                                                                                                                                                              
129576     O31E113914600029576201508260300900025006KY-2TGD                  0010EFDHV8D65A          EFDHV8D65A                    00025347CB00000000PC000000000992420000100020150830SEA.FSGNMSV144947/I207-113365                                                                                                     
129576     O31E313914600029576201508260300900025006KY-2TGD                  0010                20150916                                                                                                                                                                                                              
129576     O31A113914600029576201508260300900025006KY-2TGG                       110002500600027496                                 FT                                  N F/GDS - TRI(ASIA           )  20150825        1N10002957620150830SEA.FHIF                                                               O   
129576     O31A213914600029576201508260300900025006KY-2TGG                      FOB                               USD                                                                20150916                                                            00029576                   00027496  PV-PSV                  
129576     O31A613914600029576201508260300900025006KY-2TGG                      T/T BY 10TH OF NEXT MONTH                         BY T/T REMITTANCE ON THE 10TH OF THE NEXT MONTH                                                                                                                                     
129576     O31E113914600029576201508260300900025006KY-2TGG                  0001EFDHV15D65A         EFDHV15D65A                   00025347CB00000000PC000000001170320000100020150830SEA.FHIFMSV144945/I207-113366                                                                                                     
129576     O31E313914600029576201508260300900025006KY-2TGG                  0001                20150916                                                                                                                                                                                                              
129576     O31E113914600029576201508260300900025006KY-2TGG                  0002EFDHV15L27A         EFDHV15L27A                   00025347CB00000000PC000000001170320000100020150830SEA.FHIFMSV144945/I207-113366                                                                                                     
129576     O31E313914600029576201508260300900025006KY-2TGG                  0002                20150916                                                                                                                                                                                                              
129576     O31E113914600029576201508260300900025006KY-2TGG                  0003EFDHV8D65A          EFDHV8D65A                    00025347CB00000000PC000000000992420000100020150830SEA.FHIFMSV144945/I207-113366                                                                                                     
129576     O31E313914600029576201508260300900025006KY-2TGG                  0003                20150916                                                                                                                                                                                                              
129576     O31A113914600029576201508260300900025006KY-2TGT                       110002500600027497                                 FT                                  N F/GDS - TRI(ASIA           )  20150825        1N10002957620150830SEA.FHIF                                                               O   
129576     O31A213914600029576201508260300900025006KY-2TGT                      FOB                               USD                                                                20150916                                                            00029576                   00027497  PV                      
129576     O31A613914600029576201508260300900025006KY-2TGT                      T/T BY 10TH OF NEXT MONTH                         BY T/T REMITTANCE ON THE 10TH OF THE NEXT MONTH                                                                                                                                     
129576     O31E113914600029576201508260300900025006KY-2TGT                  0001EFDHV20L27A         EFDHV20L27A                   00025347CB00000000PC000000001451220000100020150830SEA.FHIFMSV144946/I207-113367                                                                                                     
129576     O31E313914600029576201508260300900025006KY-2TGT                  0001                20150916                                                                                                                                                                                                              
