129576     O31A113914600029576201511241100200025006KY-9HAG                       11000250060002947400029474                         FT                                  N F/GDS - TRI(ASIA           )  20151123        1N10002957620160105SEA.FMNL                                                               O   
129576     O31A213914600029576201511241100200025006KY-9HAG                      FOB                               USD                                 PMPC                           20160108                                                            00029576                   00029474  PMPC                    
129576     O31A613914600029576201511241100200025006KY-9HAG                      WHS DATE,Cust Req Delivery date, Fty Due date                                                                                                                                                                                         
129576     O31E113914600029576201511241100 00025006KY-9HAG                  0001FL20SS.D/18G        FL20SS.D/18G                  00025345CB00050000PC000000000492620000100020160105SEA.FMNLMPH147933/SS100106                                                                                                        
129576     O31E313914600029576201511241100 00025006KY-9HAG                  0001                20160108                                                                                                                                                                                                              
129576     O31E113914600029576201511241100 00025006KY-9HAG                  0002FL40SS.D/36G        FL40SS.D/36G                  00025345CB00520000PC000000000591720000100020160105SEA.FMNLMPH147933/SS100106                                                                                                        
129576     O31E313914600029576201511241100 00025006KY-9HAG                  0002                20160108                                                                                                                                                                                                              
