129576     O31A113914600029576201505111300200025006KY-TUHT                       11000250062062061620620616                         FT                                  N F/GDS - TRI(ASIA           )  20150420        1N10002957620150610SEA.FSIN                                                               O   
129576     O31A213914600029576201505111300200025006KY-TUHT                      FOB                               USD                                 BLS                            20150710                                                            00029576                   20620616  BLS                     
129576     O31A613914600029576201505111300200025006KY-TUHT                      WHS DATE,Cust Req Delivery date, Fty Due date                                                                                                                                                                                         
129576     O31E113914600029576201505111300 00025006KY-TUHT                  0001EFDHV11D65BA        EFDHV11D65BA                  00025347CB00024000PC000000000125510000100020150610SEA.FSINMGM140822/660-403251                                                                                                      
129576     O31E313914600029576201505111300 00025006KY-TUHT                  0001                20150710                                                                                                                                                                                                              
129576     O31E113914600029576201505111300 00025006KY-TUHT                  0002EFDHV11L27BA        EFDHV11L27BA                  00025347CB00001920PC000000000125510000100020150610SEA.FSINMGM140822/660-403251                                                                                                      
129576     O31E313914600029576201505111300 00025006KY-TUHT                  0002                20150710                                                                                                                                                                                                              
129576     O31E113914600029576201505111300 00025006KY-TUHT                  0003EFDHV15D65BA        EFDHV15D65BA                  00025347CB00072000PC000000000125510000100020150610SEA.FSINMGM140822/660-403251                                                                                                      
129576     O31E313914600029576201505111300 00025006KY-TUHT                  0003                20150710                                                                                                                                                                                                              
129576     O31E113914600029576201505111300 00025006KY-TUHT                  0004EFDHV23D65BA        EFDHV23D65BA                  00025347CB00035520PC000000001553820000100020150610SEA.FSINMGM140822/660-403251                                                                                                      
129576     O31E313914600029576201505111300 00025006KY-TUHT                  0004                20150710                                                                                                                                                                                                              
129576     O31E113914600029576201505111300 00025006KY-TUHT                  0005EFDHV25D65BA        EFDHV25D65BA                  00025347CB00048000PC000000001553820000100020150610SEA.FSINMGM140822/660-403251                                                                                                      
129576     O31E313914600029576201505111300 00025006KY-TUHT                  0005                20150710                                                                                                                                                                                                              
129576     O31E113914600029576201505111300 00025006KY-TUHT                  0006EFDHV5D65BA         EFDHV5D65BA                   00025347CB00096000PC000000001075720000100020150610SEA.FSINMGM140822/660-403251                                                                                                      
129576     O31E313914600029576201505111300 00025006KY-TUHT                  0006                20150710                                                                                                                                                                                                              
129576     O31E113914600029576201505111300 00025006KY-TUHT                  0007EFDHV8D65BA         EFDHV8D65BA                   00025347CB00024000PC000000001075720000100020150610SEA.FSINMGM140822/660-403251                                                                                                      
129576     O31E313914600029576201505111300 00025006KY-TUHT                  0007                20150710                                                                                                                                                                                                              
129576     O31E113914600029576201505111300 00025006KY-TUHT                  0008EFDHV20D65BA        EFDHV20D65BA                  00025347CB00059520PC000000001553820000100020150610SEA.FSINMGM140822/660-403251                                                                                                      
129576     O31E313914600029576201505111300 00025006KY-TUHT                  0008                20150710                                                                                                                                                                                                              
129576     O31A113914600029576201505111300200025006KY-TTG7                       11000250062062061620620616                         FT                                  N F/GDS - TRI(ASIA           )  20150420        1N10002957620150610SEA.FSIN                                                               O   
129576     O31A213914600029576201505111300200025006KY-TTG7                      FOB                               USD                                 BLS                            20150710                                                            00029576                   20620616  BLS                     
129576     O31A613914600029576201505111300200025006KY-TTG7                      WHS DATE,Cust Req Delivery date, Fty Due date                                                                                                                                                                                         
129576     O31E113914600029576201505111300 00025006KY-TTG7                  0001EFU5E672V           EFU5E672V                     00025347CB00030000PC000000001261320000100020150610SEA.FSINMGM140811/660-403244                                                                                                      
129576     O31E313914600029576201505111300 00025006KY-TTG7                  0001                20150710                                                                                                                                                                                                              
129576     O31E113914600029576201505111300 00025006KY-TTG7                  0002EFU8E272V           EFU8E272V                     00025347CB00012000PC000000001370120000100020150610SEA.FSINMGM140811/660-403244                                                                                                      
129576     O31E313914600029576201505111300 00025006KY-TTG7                  0002                20150710                                                                                                                                                                                                              
129576     O31E113914600029576201505111300 00025006KY-TTG7                  0003EFU8E652V           EFU8E652V                     00025347CB00012000PC000000001370120000100020150610SEA.FSINMGM140811/660-403244                                                                                                      
129576     O31E313914600029576201505111300 00025006KY-TTG7                  0003                20150710                                                                                                                                                                                                              
129576     O31E113914600029576201505111300 00025006KY-TTG7                  0004EFU14E652V          EFU14E652V                    00025347CB00012000PC000000001398520000100020150610SEA.FSINMGM140811/660-403244                                                                                                      
129576     O31E313914600029576201505111300 00025006KY-TTG7                  0004                20150710                                                                                                                                                                                                              
129576     O31E113914600029576201505111300 00025006KY-TTG7                  0005EFU5E282V           EFU5E282V                     00025347CB00012000PC000000001261320000100020150610SEA.FSINMGM140811/660-403244                                                                                                      
129576     O31E313914600029576201505111300 00025006KY-TTG7                  0005                20150710                                                                                                                                                                                                              
129576     O31A113914600029576201505111300200025006KY-U132                       11000250062062061620620616                         FT                                  N F/GDS - TRI(ASIA           )  20150422        1N10002957620150710SEA.FSIN                                                               O   
129576     O31A213914600029576201505111300200025006KY-U132                      FOB                               USD                                 BLS                            20150710                                                            00029576                   20620616  BLS                     
129576     O31A613914600029576201505111300200025006KY-U132                      WHS DATE,Cust Req Delivery date, Fty Due date                                                                                                                                                                                         
129576     O31E113914600029576201505111300 00025006KY-U132                  0001EFDHV32D65A         EFDHV32D65A                   00025347CB00048000PC000000000274710000100020150710SEA.FSINMGM140866/660-403267                                                                                                      
129576     O31E313914600029576201505111300 00025006KY-U132                  0001                20150710                                                                                                                                                                                                              
129576     O31E113914600029576201505111300 00025006KY-U132                  0002EFDHV42D65A         EFDHV42D65A                   00025347CB00048000PC000000003041320000100020150710SEA.FSINMGM140866/660-403267                                                                                                      
129576     O31E313914600029576201505111300 00025006KY-U132                  0002                20150710                                                                                                                                                                                                              
129576     O31A113914600029576201505111300200025006KY-UDKT                       11000250062062061620620616                         FT                                  N F/GDS - TRI(ASIA           )  20150427        1N10002957620150610SEA.FSIN                                                               O   
129576     O31A213914600029576201505111300200025006KY-UDKT                      FOB                               USD                                 BLS                            20150710                                                            00029576                   20620616  BLS                     
129576     O31A613914600029576201505111300200025006KY-UDKT                      WHS DATE,Cust Req Delivery date, Fty Due date                                                                                                                                                                                         
129576     O31E113914600029576201505111300 00025006KY-UDKT                  0001EFDHV11D65A         EFDHV11D65A                   00025347CB00096000PC000000000125510000100020150610SEA.FSINMGM141184/660-403252                                                                                                      
129576     O31E313914600029576201505111300 00025006KY-UDKT                  0001                20150710                                                                                                                                                                                                              
129576     O31E113914600029576201505111300 00025006KY-UDKT                  0002EFDHV11L27A         EFDHV11L27A                   00025347CB00011520PC000000000125510000100020150610SEA.FSINMGM141184/660-403252                                                                                                      
129576     O31E313914600029576201505111300 00025006KY-UDKT                  0002                20150710                                                                                                                                                                                                              
129576     O31E113914600029576201505111300 00025006KY-UDKT                  0003EFDHV20L27A         EFDHV20L27A                   00025347CB00004800PC000000001553820000100020150610SEA.FSINMGM141184/660-403252                                                                                                      
129576     O31E313914600029576201505111300 00025006KY-UDKT                  0003                20150710                                                                                                                                                                                                              
129576     O31E113914600029576201505111300 00025006KY-UDKT                  0004EFDHV23D65A         EFDHV23D65A                   00025347CB00038400PC000000001553820000100020150610SEA.FSINMGM141184/660-403252                                                                                                      
129576     O31E313914600029576201505111300 00025006KY-UDKT                  0004                20150710                                                                                                                                                                                                              
129576     O31E113914600029576201505111300 00025006KY-UDKT                  0005EFDHV25D65A         EFDHV25D65A                   00025347CB00096000PC000000001553820000100020150610SEA.FSINMGM141184/660-403252                                                                                                      
129576     O31E313914600029576201505111300 00025006KY-UDKT                  0005                20150710                                                                                                                                                                                                              
129576     O31E113914600029576201505111300 00025006KY-UDKT                  0006EFDHV15D65A         EFDHV15D65A                   00025347CB00059520PC000000000125510000100020150610SEA.FSINMGM141184/660-403252                                                                                                      
129576     O31E313914600029576201505111300 00025006KY-UDKT                  0006                20150710                                                                                                                                                                                                              
129576     O31E113914600029576201505111300 00025006KY-UDKT                  0007EFDHV15L27A         EFDHV15L27A                   00025347CB00009600PC000000000125510000100020150610SEA.FSINMGM141184/660-403252                                                                                                      
129576     O31E313914600029576201505111300 00025006KY-UDKT                  0007                20150710                                                                                                                                                                                                              
129576     O31E113914600029576201505111300 00025006KY-UDKT                  0008EFDHV20D65A         EFDHV20D65A                   00025347CB00038400PC000000001553820000100020150610SEA.FSINMGM141184/660-403252                                                                                                      
129576     O31E313914600029576201505111300 00025006KY-UDKT                  0008                20150710                                                                                                                                                                                                              
129576     O31E113914600029576201505111300 00025006KY-UDKT                  0009EFDHV5D65A          EFDHV5D65A                    00025347CB00048000PC000000001075720000100020150610SEA.FSINMGM141184/660-403252                                                                                                      
129576     O31E313914600029576201505111300 00025006KY-UDKT                  0009                20150710                                                                                                                                                                                                              
129576     O31E113914600029576201505111300 00025006KY-UDKT                  0010EFDHV8D65A          EFDHV8D65A                    00025347CB00024000PC000000001075720000100020150610SEA.FSINMGM141184/660-403252                                                                                                      
129576     O31E313914600029576201505111300 00025006KY-UDKT                  0010                20150710                                                                                                                                                                                                              
