129576     O31A113914600029576201508041600200025006LS-0Z4F                       110002500600039051000390515000031721               FT                                  N F/GDS - TRI(LATIN AMERICA  )  20150729        1N10002957620150831SEA.FMEX                                                               O   
129576     O31A213914600029576201508041600200025006LS-0Z4F                      FOB                               USD                                 PANAMEX                        201510050003905100039051SCMM                                        00029576                   00039051  PANAMEX                 
129576     O31A613914600029576201508041600200025006LS-0Z4F                      WHS DATE,Cust Req Delivery date, Fty Due date                                                                                                                                                                                         
129576     O31E113914600029576201508041600 00025006LS-0Z4F                  0001EFDLV23L27L                                       00025347CB00003360PC000000001563720000100020150831SEA.FMEX91509214                                                                                                                  
129576     O31E313914600029576201508041600 00025006LS-0Z4F                  0001                2015100500039051                                                                                                                                                                                                      
129576     O31E113914600029576201508041600 00025006LS-0Z4F                  0002EFDLV25D65L                                       00025347CB00024960PC000000001563720000100020150831SEA.FMEX91509214                                                                                                                  
129576     O31E313914600029576201508041600 00025006LS-0Z4F                  0002                2015100500039051                                                                                                                                                                                                      
129576     O31E113914600029576201508041600 00025006LS-0Z4F                  0003EFDLV15L27L                                       00025347CB00003480PC000000001115520000100020150831SEA.FMEX91509214                                                                                                                  
129576     O31E313914600029576201508041600 00025006LS-0Z4F                  0003                2015100500039051                                                                                                                                                                                                      
129576     O31E113914600029576201508041600 00025006LS-0Z4F                  0004EFDLV20L27L                                       00025347CB00004080PC000000001264920000100020150831SEA.FMEX91509214                                                                                                                  
129576     O31E313914600029576201508041600 00025006LS-0Z4F                  0004                2015100500039051                                                                                                                                                                                                      
129576     O31E113914600029576201508041600 00025006LS-0Z4F                  0005EFDLV11D65L                                       00025347CB00005160PC000000001115520000100020150831SEA.FMEX91509214                                                                                                                  
129576     O31E313914600029576201508041600 00025006LS-0Z4F                  0005                2015100500039051                                                                                                                                                                                                      
129576     O31A113914600029576201508041600200025006KY-0ZXW                       110002500600039140                                 FT                                  N F/GDS - TRI(ASIA           )  20150729        1N10002957620150906SEA.FPKL                                                               O   
129576     O31A213914600029576201508041600200025006KY-0ZXW                      FOB                               USD                                                                20150920                                                            00029576                   00039140  PM                      
129576     O31A613914600029576201508041600200025006KY-0ZXW                      Cust Req Delivery date, Fty Due date              Line 1:Order Qty                                                                                                                                                                    
129576     O31E113914600029576201508041600200025006KY-0ZXW                  0001EFDHV25L27A                                       00025347CB00039360PC000000001533820000100020150906SEA.FPKLMMQ144286/EL1507004                                                                                                       
129576     O31E313914600029576201508041600200025006KY-0ZXW                  0001                20150920                                                                                                                                                                                                              
