129576     O31A113914600029576201508201600900025006KY-2J48                       110002500620619678                                 FT                                  N F/GDS - TRI(ASIA           )  20150820        1N10002957620150824AIR.FSGN                                                               O   
129576     O31A213914600029576201508201600900025006KY-2J48                      FOB                               USD                                                                20150903                                                            00029576                   20619678  PV-PSV HCM              
129576     O31A613914600029576201508201600900025006KY-2J48                      T/T BY 10TH OF NEXT MONTH                         BY T/T REMITTANCE ON THE 10TH OF THE NEXT MONTH                                                                                                                                     
129576     O31E113914600029576201508201600900025006KY-2J48                  0001EFDHV23D65A         EFDHV23D65A                   00025347CB00000000PC000000001451220000100020150824AIR.FSGNMSV144881/I207-113342                                                                                                     
129576     O31E313914600029576201508201600900025006KY-2J48                  0001                20150903                                                                                                                                                                                                              
129576     O31E113914600029576201508201600900025006KY-2J48                  0002EFDHV23L27A         EFDHV23L27A                   00025347CB00000000PC000000001451220000100020150824AIR.FSGNMSV144881/I207-113342                                                                                                     
129576     O31E313914600029576201508201600900025006KY-2J48                  0002                20150903                                                                                                                                                                                                              
129576     O31E113914600029576201508201600900025006KY-2J48                  0003EFDHV25D65A         EFDHV25D65A                   00025347CB00000000PC000000001451220000100020150824AIR.FSGNMSV144881/I207-113342                                                                                                     
129576     O31E313914600029576201508201600900025006KY-2J48                  0003                20150903                                                                                                                                                                                                              
129576     O31E113914600029576201508201600900025006KY-2J48                  0004EFDHV8D65A          EFDHV8D65A                    00025347CB00000000PC000000000992420000100020150824AIR.FSGNMSV144881/I207-113342                                                                                                     
129576     O31E313914600029576201508201600900025006KY-2J48                  0004                20150903                                                                                                                                                                                                              
129576     O31A113914600029576201508201600900025006KY-2J46                       110002500620619678                                 FT                                  N F/GDS - TRI(ASIA           )  20150820        1N10002957620150824AIR.FSGN                                                               O   
129576     O31A213914600029576201508201600900025006KY-2J46                      FOB                               USD                                                                20150901                                                            00029576                   20619678  PV-PSV HCM              
129576     O31A613914600029576201508201600900025006KY-2J46                      T/T BY 10TH OF NEXT MONTH                         BY T/T REMITTANCE ON THE 10TH OF THE NEXT MONTH                                                                                                                                     
129576     O31E113914600029576201508201600900025006KY-2J46                  0001EFDHV5D65A          EFDHV5D65A                    00025347CB00000000PC000000000992420000100020150824AIR.FSGNMSV144880/I207-113343                                                                                                     
129576     O31E313914600029576201508201600900025006KY-2J46                  0001                20150901                                                                                                                                                                                                              
