129576     O31A113914600029576201509291100200025006KY-3U22                       11000250060002947400029474                         FT                                  N F/GDS - TRI(ASIA           )  20150908        1N10002957620150920SEA.FMNL                                                               O   
129576     O31A213914600029576201509291100200025006KY-3U22                      FOB                               USD                                 PMPC                           20150910                                                            00029576                   00029474  PMPC                    
129576     O31A613914600029576201509291100200025006KY-3U22                      Line 2:Order Qty                                  BY T/T REMITTANCE ON THE 10TH OF THE NEXT MONTH                                                                                                                                     
129576     O31E113914600029576201509291100 00025006KY-3U22                  0001EFUHV18D65A3        EFUHV18D65A3                  00025347CB00016000PC000000001434220000100020150920SEA.FMNLMPH144960/SS100087                                                                                                        
129576     O31E313914600029576201509291100 00025006KY-3U22                  0001                20150910                                                                                                                                                                                                              
129576     O31E113914600029576201509291100200025006KY-3U22                  0002EFDHV20D65A         EFDHV20D65A                   00025347CB00066240PC000000001533820000100020150920SEA.FMNLMPH144960/SS100087                                                                                                        
129576     O31E313914600029576201509291100200025006KY-3U22                  0002                20150910                                                                                                                                                                                                              
129576     O31A113914600029576201509291100200025006KY-3ZLM                       110002500600029073                                 FT                                  N F/GDS - TRI(ASIA           )  20150909        1N10002957620151023SEA.FSIN                                                               O   
129576     O31A213914600029576201509291100200025006KY-3ZLM                      FOB                               USD                                                                20151010                                                            00029576                   00029073  PSP-DD                  
129576     O31A613914600029576201509291100200025006KY-3ZLM                      WHS DATE,Cust Req Delivery date, Fty Due date                                                                                                                                                                                         
129576     O31E113914600029576201509291100 00025006KY-3ZLM                  0001EFDHV25D65A         EFDHV25D65A                   00025347CB00005760PC000000001533820000100020151023SEA.FSINMSP145750/DD5555-233498                                                                                                   
129576     O31E313914600029576201509291100 00025006KY-3ZLM                  0001                20151010                                                                                                                                                                                                              
