129576     O31A113914600029576201505111100200025006KY-T5PG                       11000250062062061620620616                         FT                                  N F/GDS - TRI(ASIA           )  20150410        1N10002957620150524SEA.FSIN                                                               O   
129576     O31A213914600029576201505111100200025006KY-T5PG                      FOB                               USD                                 BLS                            20150610                                                            00029576                   20620616  BLS                     
129576     O31A613914600029576201505111100200025006KY-T5PG                      Line 6:Order Qty                                  BY T/T REMITTANCE ON THE 10TH OF THE NEXT MONTH                                                                                                                                     
129576     O31E113914600029576201505111100 00025006KY-T5PG                  0001EFDHV25D65A         EFDHV25D65A                   00025347CB00059520PC000000001553820000100020150524SEA.FSINMGM140609/660-403214                                                                                                      
129576     O31E313914600029576201505111100 00025006KY-T5PG                  0001                20150610                                                                                                                                                                                                              
129576     O31E113914600029576201505111100 00025006KY-T5PG                  0002EFDHV15D65A         EFDHV15D65A                   00025347CB00072000PC000000000125510000100020150524SEA.FSINMGM140609/660-403214                                                                                                      
129576     O31E313914600029576201505111100 00025006KY-T5PG                  0002                20150610                                                                                                                                                                                                              
129576     O31E113914600029576201505111100 00025006KY-T5PG                  0003EFDHV20D65A         EFDHV20D65A                   00025347CB00038400PC000000001553820000100020150524SEA.FSINMGM140609/660-403214                                                                                                      
129576     O31E313914600029576201505111100 00025006KY-T5PG                  0003                20150610                                                                                                                                                                                                              
129576     O31E113914600029576201505111100 00025006KY-T5PG                  0004EFDHV5D65A          EFDHV5D65A                    00025347CB00024000PC000000001075720000100020150524SEA.FSINMGM140609/660-403214                                                                                                      
129576     O31E313914600029576201505111100 00025006KY-T5PG                  0004                20150610                                                                                                                                                                                                              
129576     O31E113914600029576201505111100 00025006KY-T5PG                  0005EFDHV5L27A          EFDHV5L27A                    00025347CB00024000PC000000001075720000100020150524SEA.FSINMGM140609/660-403214                                                                                                      
129576     O31E313914600029576201505111100 00025006KY-T5PG                  0005                20150610                                                                                                                                                                                                              
129576     O31E113914600029576201505111100200025006KY-T5PG                  0006EFDHV8L27A          EFDHV8L27A                    00025347CB00011520PC000000001075720000100020150524SEA.FSINMGM140609/660-403214                                                                                                      
129576     O31E313914600029576201505111100200025006KY-T5PG                  0006                20150610                                                                                                                                                                                                              
129576     O31A113914600029576201505111100200025006KY-TUHT                       11000250062062061620620616                         FT                                  N F/GDS - TRI(ASIA           )  20150420        1N10002957620150623SEA.FSIN                                                               O   
129576     O31A213914600029576201505111100200025006KY-TUHT                      FOB                               USD                                 BLS                            20150710                                                            00029576                   20620616  BLS                     
129576     O31A613914600029576201505111100200025006KY-TUHT                      Line 2:Order Qty                                  BY T/T REMITTANCE ON THE 10TH OF THE NEXT MONTH                                                                                                                                     
129576     O31E113914600029576201505111100 00025006KY-TUHT                  0001EFDHV11D65BA        EFDHV11D65BA                  00025347CB00024000PC000000000125510000100020150623SEA.FSINMGM140822/660-403251                                                                                                      
129576     O31E313914600029576201505111100 00025006KY-TUHT                  0001                20150710                                                                                                                                                                                                              
129576     O31E113914600029576201505111100200025006KY-TUHT                  0002EFDHV11L27BA        EFDHV11L27BA                  00025347CB00001920PC000000000125510000100020150623SEA.FSINMGM140822/660-403251                                                                                                      
129576     O31E313914600029576201505111100200025006KY-TUHT                  0002                20150710                                                                                                                                                                                                              
129576     O31E113914600029576201505111100 00025006KY-TUHT                  0003EFDHV15D65BA        EFDHV15D65BA                  00025347CB00072000PC000000000125510000100020150623SEA.FSINMGM140822/660-403251                                                                                                      
129576     O31E313914600029576201505111100 00025006KY-TUHT                  0003                20150710                                                                                                                                                                                                              
129576     O31E113914600029576201505111100 00025006KY-TUHT                  0004EFDHV23D65BA        EFDHV23D65BA                  00025347CB00035520PC000000001553820000100020150623SEA.FSINMGM140822/660-403251                                                                                                      
129576     O31E313914600029576201505111100 00025006KY-TUHT                  0004                20150710                                                                                                                                                                                                              
129576     O31E113914600029576201505111100 00025006KY-TUHT                  0005EFDHV25D65BA        EFDHV25D65BA                  00025347CB00048000PC000000001553820000100020150623SEA.FSINMGM140822/660-403251                                                                                                      
129576     O31E313914600029576201505111100 00025006KY-TUHT                  0005                20150710                                                                                                                                                                                                              
129576     O31E113914600029576201505111100 00025006KY-TUHT                  0006EFDHV5D65BA         EFDHV5D65BA                   00025347CB00096000PC000000001075720000100020150623SEA.FSINMGM140822/660-403251                                                                                                      
129576     O31E313914600029576201505111100 00025006KY-TUHT                  0006                20150710                                                                                                                                                                                                              
129576     O31E113914600029576201505111100 00025006KY-TUHT                  0007EFDHV8D65BA         EFDHV8D65BA                   00025347CB00024000PC000000001075720000100020150623SEA.FSINMGM140822/660-403251                                                                                                      
129576     O31E313914600029576201505111100 00025006KY-TUHT                  0007                20150710                                                                                                                                                                                                              
129576     O31E113914600029576201505111100 00025006KY-TUHT                  0008EFDHV20D65BA        EFDHV20D65BA                  00025347CB00059520PC000000001553820000100020150623SEA.FSINMGM140822/660-403251                                                                                                      
129576     O31E313914600029576201505111100 00025006KY-TUHT                  0008                20150710                                                                                                                                                                                                              
