129576     O31A113914600029576201508281100900025006KY-2UZD                       110002500600027496                                 FT                                  N F/GDS - TRI(ASIA           )  20150825        1N10002957620150830SEA.FHIF                                                               O   
129576     O31A213914600029576201508281100900025006KY-2UZD                      FOB                               USD                                                                20150916                                                            00029576                   00027496  PV-PSV                  
129576     O31A613914600029576201508281100900025006KY-2UZD                      T/T BY 10TH OF NEXT MONTH                         BY T/T REMITTANCE ON THE 10TH OF THE NEXT MONTH                                                                                                                                     
129576     O31E113914600029576201508281100900025006KY-2UZD                  0001EFDHV15D65A         EFDHV15D65A                   00025347CB00000000PC000000001170320000100020150830SEA.FHIFMSV144955/I207-113369                                                                                                     
129576     O31E313914600029576201508281100900025006KY-2UZD                  0001                20150916                                                                                                                                                                                                              
129576     O31E113914600029576201508281100900025006KY-2UZD                  0002EFDHV15L27A         EFDHV15L27A                   00025347CB00000000PC000000001170320000100020150830SEA.FHIFMSV144955/I207-113369                                                                                                     
129576     O31E313914600029576201508281100900025006KY-2UZD                  0002                20150916                                                                                                                                                                                                              
129576     O31E113914600029576201508281100900025006KY-2UZD                  0003EFDHV20L27A         EFDHV20L27A                   00025347CB00000000PC000000001451220000100020150830SEA.FHIFMSV144955/I207-113369                                                                                                     
129576     O31E313914600029576201508281100900025006KY-2UZD                  0003                20150916                                                                                                                                                                                                              
129576     O31E113914600029576201508281100900025006KY-2UZD                  0004EFDHV25L27A         EFDHV25L27A                   00025347CB00000000PC000000001451220000100020150830SEA.FHIFMSV144955/I207-113369                                                                                                     
129576     O31E313914600029576201508281100900025006KY-2UZD                  0004                20150916                                                                                                                                                                                                              
129576     O31E113914600029576201508281100900025006KY-2UZD                  0005EFDHV8D65A          EFDHV8D65A                    00025347CB00000000PC000000000992420000100020150830SEA.FHIFMSV144955/I207-113369                                                                                                     
129576     O31E313914600029576201508281100900025006KY-2UZD                  0005                20150916                                                                                                                                                                                                              
