129576     O31A113914600029576201506191300900025006DJ-XH5J                       11000250062001259020012590                         FT                                  N F/GDS - TRI(MIDDLE-EAST    )  20150611        1N10002957620150727SEA.FRUH                                                               O   
129576     O31A213914600029576201506191300900025006DJ-XH5J                      FOB                               USD                                 AL-SAEED                       20150710                                                            00029576                   20012590  AL-SAEED                
129576     O31A613914600029576201506191300900025006DJ-XH5J                      REMITTANCE(CMS) 10TH OF NEXT MONTH AFTER SHIPMENT                                                                                                                                                                                     
129576     O31E113914600029576201506191300900025006DJ-XH5J                  0001EFUHV23L27M         EFUHV23L27M                   00025347CB00000000PC000000001424320000100020150727SEA.FRUH4500099195                                                                                                                
129576     O31E313914600029576201506191300900025006DJ-XH5J                  0001                20150710                                                                                                                                                                                                              
129576     O31E113914600029576201506191300900025006DJ-XH5J                  0002EFUHV23D65M         EFUHV23D65M                   00025347CB00000000PC000000001424320000100020150727SEA.FRUH4500099195                                                                                                                
129576     O31E313914600029576201506191300900025006DJ-XH5J                  0002                20150710                                                                                                                                                                                                              
129576     O31E113914600029576201506191300900025006DJ-XH5J                  0003EFDHV11D65M         EFDHV11D65M                   00025347CB00000000PC000000000124510000100020150727SEA.FRUH4500099195                                                                                                                
129576     O31E313914600029576201506191300900025006DJ-XH5J                  0003                20150710                                                                                                                                                                                                              
129576     O31E113914600029576201506191300900025006DJ-XH5J                  0004EFDHV15L27M         EFDHV15L27M                   00025347CB00000000PC000000000124510000100020150727SEA.FRUH4500099195                                                                                                                
129576     O31E313914600029576201506191300900025006DJ-XH5J                  0004                20150710                                                                                                                                                                                                              
129576     O31E113914600029576201506191300900025006DJ-XH5J                  0005EFDHV15D65M         EFDHV15D65M                   00025347CB00000000PC000000000124510000100020150727SEA.FRUH4500099195                                                                                                                
129576     O31E313914600029576201506191300900025006DJ-XH5J                  0005                20150710                                                                                                                                                                                                              
129576     O31E113914600029576201506191300900025006DJ-XH5J                  0006EFDHV20L27M         EFDHV20L27M                   00025347CB00000000PC000000001553820000100020150727SEA.FRUH4500099195                                                                                                                
129576     O31E313914600029576201506191300900025006DJ-XH5J                  0006                20150710                                                                                                                                                                                                              
129576     O31E113914600029576201506191300900025006DJ-XH5J                  0007EFDHV20D65M         EFDHV20D65M                   00025347CB00000000PC000000001553820000100020150727SEA.FRUH4500099195                                                                                                                
129576     O31E313914600029576201506191300900025006DJ-XH5J                  0007                20150710                                                                                                                                                                                                              
129576     O31E113914600029576201506191300900025006DJ-XH5J                  0008EFDHV23L27M         EFDHV23L27M                   00025347CB00000000PC000000001553820000100020150727SEA.FRUH4500099195                                                                                                                
129576     O31E313914600029576201506191300900025006DJ-XH5J                  0008                20150710                                                                                                                                                                                                              
129576     O31E113914600029576201506191300900025006DJ-XH5J                  0009EFDHV23D65M         EFDHV23D65M                   00025347CB00000000PC000000001553820000100020150727SEA.FRUH4500099195                                                                                                                
129576     O31E313914600029576201506191300900025006DJ-XH5J                  0009                20150710                                                                                                                                                                                                              
129576     O31E113914600029576201506191300900025006DJ-XH5J                  0010EFDHV25L27M         EFDHV25L27M                   00025347CB00000000PC000000001553820000100020150727SEA.FRUH4500099195                                                                                                                
129576     O31E313914600029576201506191300900025006DJ-XH5J                  0010                20150710                                                                                                                                                                                                              
129576     O31E113914600029576201506191300900025006DJ-XH5J                  0011EFDHV32D65A         EFDHV32D65M                   00025347CB00000000PC000000002559720000100020150727SEA.FRUH4500099195                                                                                                                
129576     O31E313914600029576201506191300900025006DJ-XH5J                  0011                20150710                                                                                                                                                                                                              
