129576     O31A113914600029576201509180300200025006LS-3FLF                       110002500600039051000390515000031882               FT                                  N F/GDS - TRI(LATIN AMERICA  )  20150902        1N10002957620150928SEA.FMEX                                                               O   
129576     O31A213914600029576201509180300200025006LS-3FLF                      FOB                               USD                                 PANAMEX                        201511050003905100039051SCMM                                        00029576                   00039051  PANAMEX                 
129576     O31A613914600029576201509180300200025006LS-3FLF                      WHS DATE,Cust Req Delivery date, Fty Due date                                                                                                                                                                                         
129576     O31E113914600029576201509180300 00025006LS-3FLF                  0001EFDLV25L27L                                       00025347CB00004200PC000000001563720000100020150928SEA.FMEX91510241                                                                                                                  
129576     O31E313914600029576201509180300 00025006LS-3FLF                  0001                2015110500039051                                                                                                                                                                                                      
129576     O31E113914600029576201509180300 00025006LS-3FLF                  0002EFDLV25D65L                                       00025347CB00023160PC000000001563720000100020150928SEA.FMEX91510241                                                                                                                  
129576     O31E313914600029576201509180300 00025006LS-3FLF                  0002                2015110500039051                                                                                                                                                                                                      
129576     O31E113914600029576201509180300 00025006LS-3FLF                  0003EFDLV23L27L                                       00025347CB00004440PC000000001563720000100020150928SEA.FMEX91510241                                                                                                                  
129576     O31E313914600029576201509180300 00025006LS-3FLF                  0003                2015110500039051                                                                                                                                                                                                      
129576     O31E113914600029576201509180300 00025006LS-3FLF                  0004EFDLV15L27L                                       00025347CB00003960PC000000001115520000100020150928SEA.FMEX91510241                                                                                                                  
129576     O31E313914600029576201509180300 00025006LS-3FLF                  0004                2015110500039051                                                                                                                                                                                                      
129576     O31E113914600029576201509180300 00025006LS-3FLF                  0005EFDLV11D65L                                       00025347CB00005040PC000000001115520000100020150928SEA.FMEX91510241                                                                                                                  
129576     O31E313914600029576201509180300 00025006LS-3FLF                  0005                2015110500039051                                                                                                                                                                                                      
