129576     O31A113914600029576201511020900200025006LS-7WQQ                       110002500600027247        ACO7000003292            FT                                  N F/GDS - TRI(LATIN AMERICA  )  20151030        1N10002957620151105SEA.FBUE                                                               O   
129576     O31A213914600029576201511020900200025006LS-7WQQ                      FOB                               USD                                                                20151217                                                            00029576                   00027247  PANABRAS-ARGENT         
129576     O31A613914600029576201511020900200025006LS-7WQQ                      Line 1:Unit Price,Line 2:Unit Price               Line 3:Unit Price,Line 4:Unit Price               Line 5:Unit Price,Line 6:Unit Price               Line 7:Unit Price,Line 8:Unit Price                                             
129576     O31A713914600029576201511020900200025006LS-7WQQ                      Line 11:Unit Price,Line 12:Unit Price                                                                                                                                                                                                 
129576     O31E113914600029576201511020900200025006LS-7WQQ                  0001EFDHV11D65L         EFDHV11D65L                   00025347CB00032400PC000000000123510000100020151105SEA.FBUE91511251                                                                                                                  
129576     O31E313914600029576201511020900200025006LS-7WQQ                  0001                20151217                                                                                                                                                                                                              
129576     O31E113914600029576201511020900200025006LS-7WQQ                  0002EFDHV11L27L         EFDHV11L27L                   00025347CB00017520PC000000000123510000100020151105SEA.FBUE91511251                                                                                                                  
129576     O31E313914600029576201511020900200025006LS-7WQQ                  0002                20151217                                                                                                                                                                                                              
129576     O31E113914600029576201511020900200025006LS-7WQQ                  0003EFDHV15D65L         EFDHV15D65L                   00025347CB00054000PC000000001284820000100020151105SEA.FBUE91511251                                                                                                                  
129576     O31E313914600029576201511020900200025006LS-7WQQ                  0003                20151217                                                                                                                                                                                                              
129576     O31E113914600029576201511020900200025006LS-7WQQ                  0004EFDHV15L27L         EFDHV15L27L                   00025347CB00029040PC000000001284820000100020151105SEA.FBUE91511251                                                                                                                  
129576     O31E313914600029576201511020900200025006LS-7WQQ                  0004                20151217                                                                                                                                                                                                              
129576     O31E113914600029576201511020900200025006LS-7WQQ                  0005EFDHV20D65L         EFDHV20D65L                   00025347CB00058920PC000000001454220000100020151105SEA.FBUE91511251                                                                                                                  
129576     O31E313914600029576201511020900200025006LS-7WQQ                  0005                20151217                                                                                                                                                                                                              
129576     O31E113914600029576201511020900200025006LS-7WQQ                  0006EFDHV20L27L         EFDHV20L27L                   00025347CB00031560PC000000001454220000100020151105SEA.FBUE91511251                                                                                                                  
129576     O31E313914600029576201511020900200025006LS-7WQQ                  0006                20151217                                                                                                                                                                                                              
129576     O31E113914600029576201511020900200025006LS-7WQQ                  0007EFDHV23D65L         EFDHV23D65L                   00025347CB00034080PC000000001464120000100020151105SEA.FBUE91511251                                                                                                                  
129576     O31E313914600029576201511020900200025006LS-7WQQ                  0007                20151217                                                                                                                                                                                                              
129576     O31E113914600029576201511020900200025006LS-7WQQ                  0008EFDHV23L27L         EFDHV23L27L                   00025347CB00018360PC000000001464120000100020151105SEA.FBUE91511251                                                                                                                  
129576     O31E313914600029576201511020900200025006LS-7WQQ                  0008                20151217                                                                                                                                                                                                              
129576     O31E113914600029576201511020900200025006LS-7WQQ                  0009EFDHV25D65L         EFDHV25D65L                   00025347CB00026280PC000000001553820000100020151105SEA.FBUE91511251                                                                                                                  
129576     O31E313914600029576201511020900200025006LS-7WQQ                  0009                20151217                                                                                                                                                                                                              
129576     O31E113914600029576201511020900200025006LS-7WQQ                  0010EFDHV25L27L         EFDHV25L27L                   00025347CB00014040PC000000001553820000100020151105SEA.FBUE91511251                                                                                                                  
129576     O31E313914600029576201511020900200025006LS-7WQQ                  0010                20151217                                                                                                                                                                                                              
129576     O31E113914600029576201511020900200025006LS-7WQQ                  0011EFDHV8D65L          EFDHV8D65L                    00025347CB00023640PC000000001195220000100020151105SEA.FBUE91511251                                                                                                                  
129576     O31E313914600029576201511020900200025006LS-7WQQ                  0011                20151217                                                                                                                                                                                                              
129576     O31E113914600029576201511020900200025006LS-7WQQ                  0012EFDHV8L27L          EFDHV8L27L                    00025347CB00011880PC000000001195220000100020151105SEA.FBUE91511251                                                                                                                  
129576     O31E313914600029576201511020900200025006LS-7WQQ                  0012                20151217                                                                                                                                                                                                              
