129576     O31A113914600029576201506181300200025006DJ-XUXY                       11000250062001259020012590                         FT                                  N F/GDS - TRI(MIDDLE-EAST    )  20150616        1N10002957620150727SEA.FRUH                                                               O   
129576     O31A213914600029576201506181300200025006DJ-XUXY                      FOB                               USD                                 AL-SAEED                       20150710                                                            00029576                   20012590  AL-SAEED                
129576     O31A613914600029576201506181300200025006DJ-XUXY                      Line 11:Color                                                                                                                                                                                                                         
129576     O31E113914600029576201506181300 00025006DJ-XUXY                  0001EFUHV23L27M         EFUHV23L27M                   00025347CB00040000PC000000001424320000100020150727SEA.FRUH4500099195                                                                                                                
129576     O31E313914600029576201506181300 00025006DJ-XUXY                  0001                20150710                                                                                                                                                                                                              
129576     O31E113914600029576201506181300 00025006DJ-XUXY                  0002EFUHV23D65M         EFUHV23D65M                   00025347CB00060000PC000000001424320000100020150727SEA.FRUH4500099195                                                                                                                
129576     O31E313914600029576201506181300 00025006DJ-XUXY                  0002                20150710                                                                                                                                                                                                              
129576     O31E113914600029576201506181300 00025006DJ-XUXY                  0003EFDHV11D65M         EFDHV11D65M                   00025347CB00052200PC000000000124510000100020150727SEA.FRUH4500099195                                                                                                                
129576     O31E313914600029576201506181300 00025006DJ-XUXY                  0003                20150710                                                                                                                                                                                                              
129576     O31E113914600029576201506181300 00025006DJ-XUXY                  0004EFDHV15L27M         EFDHV15L27M                   00025347CB00087360PC000000000124510000100020150727SEA.FRUH4500099195                                                                                                                
129576     O31E313914600029576201506181300 00025006DJ-XUXY                  0004                20150710                                                                                                                                                                                                              
129576     O31E113914600029576201506181300 00025006DJ-XUXY                  0005EFDHV15D65M         EFDHV15D65M                   00025347CB00131040PC000000000124510000100020150727SEA.FRUH4500099195                                                                                                                
129576     O31E313914600029576201506181300 00025006DJ-XUXY                  0005                20150710                                                                                                                                                                                                              
129576     O31E113914600029576201506181300 00025006DJ-XUXY                  0006EFDHV20L27M         EFDHV20L27M                   00025347CB00034320PC000000001553820000100020150727SEA.FRUH4500099195                                                                                                                
129576     O31E313914600029576201506181300 00025006DJ-XUXY                  0006                20150710                                                                                                                                                                                                              
129576     O31E113914600029576201506181300 00025006DJ-XUXY                  0007EFDHV20D65M         EFDHV20D65M                   00025347CB00034320PC000000001553820000100020150727SEA.FRUH4500099195                                                                                                                
129576     O31E313914600029576201506181300 00025006DJ-XUXY                  0007                20150710                                                                                                                                                                                                              
129576     O31E113914600029576201506181300 00025006DJ-XUXY                  0008EFDHV23L27M         EFDHV23L27M                   00025347CB00026520PC000000001553820000100020150727SEA.FRUH4500099195                                                                                                                
129576     O31E313914600029576201506181300 00025006DJ-XUXY                  0008                20150710                                                                                                                                                                                                              
129576     O31E113914600029576201506181300 00025006DJ-XUXY                  0009EFDHV23D65M         EFDHV23D65M                   00025347CB00026520PC000000001553820000100020150727SEA.FRUH4500099195                                                                                                                
129576     O31E313914600029576201506181300 00025006DJ-XUXY                  0009                20150710                                                                                                                                                                                                              
129576     O31E113914600029576201506181300 00025006DJ-XUXY                  0010EFDHV25L27M         EFDHV25L27M                   00025347CB00024480PC000000001553820000100020150727SEA.FRUH4500099195                                                                                                                
129576     O31E313914600029576201506181300 00025006DJ-XUXY                  0010                20150710                                                                                                                                                                                                              
129576     O31E113914600029576201506181300200025006DJ-XUXY                  0011EFDHV25D65M         EFDHV25D65M                   00025347CB00048960PC000000001553820000100020150727SEA.FRUH4500099195                                                                                                                
129576     O31E313914600029576201506181300200025006DJ-XUXY                  0011                20150710                                                                                                                                                                                                              
