129576     O31A113914600029576201506051600200025006KY-WCMK                       110002500600039130                                 FT                                  N F/GDS - TRI(ASIA           )  20150526        1N10002957620150630SEA.FLKG                                                               O   
129576     O31A213914600029576201506051600200025006KY-WCMK                      FOB                               USD                                                                20150715                                                            00029576                   00039130  PST                     
129576     O31A613914600029576201506051600200025006KY-WCMK                      Line 1:Order Qty                                  BY T/T REMITTANCE ON THE 10TH OF THE NEXT MONTH                                                                                                                                     
129576     O31E113914600029576201506051600200025006KY-WCMK                  0001EFDHV32D65A         EFDHV32D65A                   00025347CB00099840PC000000000274710000100020150630SEA.FLKGMST142485/LIGH-137716                                                                                                     
129576     O31E313914600029576201506051600200025006KY-WCMK                  0001                20150715                                                                                                                                                                                                              
129576     O31E113914600029576201506051600 00025006KY-WCMK                  0002EFUHV18L27A         EFUHV18L27A                   00025347CB00080000PC000000001354620000100020150630SEA.FLKGMST142485/LIGH-137716                                                                                                     
129576     O31E313914600029576201506051600 00025006KY-WCMK                  0002                20150715                                                                                                                                                                                                              
129576     O31E113914600029576201506051600 00025006KY-WCMK                  0003EFUHV23D65A         EFUHV23D65A                   00025347CB00800000PC000000001424320000100020150630SEA.FLKGMST142485/LIGH-137716                                                                                                     
129576     O31E313914600029576201506051600 00025006KY-WCMK                  0003                20150715                                                                                                                                                                                                              
129576     O31E113914600029576201506051600 00025006KY-WCMK                  0004EFUHV23L27A         EFUHV23L27A                   00025347CB00080000PC000000001424320000100020150630SEA.FLKGMST142485/LIGH-137716                                                                                                     
129576     O31E313914600029576201506051600 00025006KY-WCMK                  0004                20150715                                                                                                                                                                                                              
129576     O31A113914600029576201506051600200025006KY-T5PH                       11000250062062061620620616                         FT                                  N F/GDS - TRI(ASIA           )  20150410        1N10002957620150524SEA.FSIN                                                               O   
129576     O31A213914600029576201506051600200025006KY-T5PH                      FOB                               USD                                 BLS                            20150610                                                            00029576                   20620616  BLS                     
129576     O31A613914600029576201506051600200025006KY-T5PH                      Line 3:Cancel Item                                BY T/T REMITTANCE ON THE 10TH OF THE NEXT MONTH                                                                                                                                     
129576     O31E113914600029576201506051600 00025006KY-T5PH                  0001EFDHV11D65BA        EFDHV11D65BA                  00025347CB00048000PC000000000125510000100020150524SEA.FSINMGM140608/660-403212                                                                                                      
129576     O31E313914600029576201506051600 00025006KY-T5PH                  0001                20150610                                                                                                                                                                                                              
129576     O31E113914600029576201506051600 00025006KY-T5PH                  0002EFDHV15D65BA        EFDHV15D65BA                  00025347CB00072000PC000000000125510000100020150524SEA.FSINMGM140608/660-403212                                                                                                      
129576     O31E313914600029576201506051600 00025006KY-T5PH                  0002                20150610                                                                                                                                                                                                              
129576     O31E113914600029576201506051600900025006KY-T5PH                  0003EFDHV23D65BA        EFDHV23D65BA                  00025347CB00000000PC000000001553820000100020150524SEA.FSINMGM140608/660-403212                                                                                                      
129576     O31E313914600029576201506051600900025006KY-T5PH                  0003                20150610                                                                                                                                                                                                              
129576     O31E113914600029576201506051600 00025006KY-T5PH                  0004EFDHV25D65BA        EFDHV25D65BA                  00025347CB00096000PC000000001553820000100020150524SEA.FSINMGM140608/660-403212                                                                                                      
129576     O31E313914600029576201506051600 00025006KY-T5PH                  0004                20150610                                                                                                                                                                                                              
129576     O31E113914600029576201506051600 00025006KY-T5PH                  0005EFDHV8D65BA         EFDHV8D65BA                   00025347CB00059520PC000000001075720000100020150524SEA.FSINMGM140608/660-403212                                                                                                      
129576     O31E313914600029576201506051600 00025006KY-T5PH                  0005                20150610                                                                                                                                                                                                              
129576     O31E113914600029576201506051600 00025006KY-T5PH                  0006EFDHV5L27BA         EFDHV5L27BA                   00025347CB00011520PC000000001075720000100020150524SEA.FSINMGM140608/660-403212                                                                                                      
129576     O31E313914600029576201506051600 00025006KY-T5PH                  0006                20150610                                                                                                                                                                                                              
129576     O31E113914600029576201506051600 00025006KY-T5PH                  0007EFDHV20D65BA        EFDHV20D65BA                  00025347CB00048000PC000000001553820000100020150524SEA.FSINMGM140608/660-403212                                                                                                      
129576     O31E313914600029576201506051600 00025006KY-T5PH                  0007                20150610                                                                                                                                                                                                              
