129576     O31A113914600029576201506091100200025006KY-VN6Q                       11000250062062061620620616                         FT                                  N F/GDS - TRI(ASIA           )  20150518        1N10002957620150810SEA.FSIN                                                               O   
129576     O31A213914600029576201506091100200025006KY-VN6Q                      FOB                               USD                                 BLS                            20150910                                                            00029576                   20620616  BLS                     
129576     O31A613914600029576201506091100200025006KY-VN6Q                      Line 2:Order Qty                                                                                                                                                                                                                      
129576     O31E113914600029576201506091100 00025006KY-VN6Q                  0001EFDHV11D65BA        EFDHV11D65BA                  00025347CB00048000PC000000000125510000100020150810SEA.FSINMGM141833/660-403336                                                                                                      
129576     O31E313914600029576201506091100 00025006KY-VN6Q                  0001                20150910                                                                                                                                                                                                              
129576     O31E113914600029576201506091100200025006KY-VN6Q                  0002EFDHV11L27BA        EFDHV11L27BA                  00025347CB00001920PC000000000125510000100020150810SEA.FSINMGM141833/660-403336                                                                                                      
129576     O31E313914600029576201506091100200025006KY-VN6Q                  0002                20150910                                                                                                                                                                                                              
129576     O31E113914600029576201506091100 00025006KY-VN6Q                  0003EFDHV15D65BA        EFDHV15D65BA                  00025347CB00048000PC000000000125510000100020150810SEA.FSINMGM141833/660-403336                                                                                                      
129576     O31E313914600029576201506091100 00025006KY-VN6Q                  0003                20150910                                                                                                                                                                                                              
129576     O31E113914600029576201506091100 00025006KY-VN6Q                  0004EFDHV25D65BA        EFDHV25D65BA                  00025347CB00024000PC000000001553820000100020150810SEA.FSINMGM141833/660-403336                                                                                                      
129576     O31E313914600029576201506091100 00025006KY-VN6Q                  0004                20150910                                                                                                                                                                                                              
129576     O31E113914600029576201506091100 00025006KY-VN6Q                  0005EFDHV5D65BA         EFDHV5D65BA                   00025347CB00096000PC000000001075720000100020150810SEA.FSINMGM141833/660-403336                                                                                                      
129576     O31E313914600029576201506091100 00025006KY-VN6Q                  0005                20150910                                                                                                                                                                                                              
129576     O31E113914600029576201506091100 00025006KY-VN6Q                  0006EFDHV8D65BA         EFDHV8D65BA                   00025347CB00048000PC000000001075720000100020150810SEA.FSINMGM141833/660-403336                                                                                                      
129576     O31E313914600029576201506091100 00025006KY-VN6Q                  0006                20150910                                                                                                                                                                                                              
129576     O31E113914600029576201506091100 00025006KY-VN6Q                  0007EFDHV20D65BA        EFDHV20D65BA                  00025347CB00048000PC000000001553820000100020150810SEA.FSINMGM141833/660-403336                                                                                                      
129576     O31E313914600029576201506091100 00025006KY-VN6Q                  0007                20150910                                                                                                                                                                                                              
