129576     O31A113914600029576201512211100900025006KY-AB2S                       110002500600039140                                 FT                                  N F/GDS - TRI(ASIA           )  20151203        1N10002957620160126SEA.FPKL                                                               O   
129576     O31A213914600029576201512211100900025006KY-AB2S                      FOB                               USD                                                                20160208                                                            00029576                   00039140  PM                      
129576     O31A613914600029576201512211100900025006KY-AB2S                      T/T BY 10TH OF NEXT MONTH                         BY T/T REMITTANCE ON THE 10TH OF THE NEXT MONTH                                                                                                                                     
129576     O31E113914600029576201512211100900025006KY-AB2S                  0001EFUHV18D65A                                       00025347CB00000000PC000000000012000000100020160126SEA.FPKLMMQ148557/EL1512002                                                                                                       
129576     O31E313914600029576201512211100900025006KY-AB2S                  0001                20160208                                                                                                                                                                                                              
129576     O31A113914600029576201512211100900025006KY-AB2U                       110002500600039140                                 FT                                  N F/GDS - TRI(ASIA           )  20151203        1N10002957620151223SEA.FPKL                                                               O   
129576     O31A213914600029576201512211100900025006KY-AB2U                      FOB                               USD                                                                20160105                                                            00029576                   00039140  PM                      
129576     O31A613914600029576201512211100900025006KY-AB2U                      T/T BY 10TH OF NEXT MONTH                         BY T/T REMITTANCE ON THE 10TH OF THE NEXT MONTH                                                                                                                                     
129576     O31E113914600029576201512211100900025006KY-AB2U                  0001EFUHV18D65A                                       00025347CB00000000PC000000000012000000100020151223SEA.FPKLMMQ148558/EL1512001                                                                                                       
129576     O31E313914600029576201512211100900025006KY-AB2U                  0001                20160105                                                                                                                                                                                                              
