129576     O31A113914600029576201510080900200025006LS-2M1A                       110002500600039058        1512-7736 -01-LIMA       FT                                  N F/GDS - TRI(LATIN AMERICA  )  20150821        1N10002957620151023SEA.FCLL                                                               O   
129576     O31A213914600029576201510080900200025006LS-2M1A                      FOB                               USD                                                                2015120500039058                                                    00029576                   00039058  PANAPERU                
129576     O31A613914600029576201510080900200025006LS-2M1A                      Line 1:Order Qty                                                                                                                                                                                                                      
129576     O31E113914600029576201510080900200025006LS-2M1A                  0001EFDHV42D65A                                       00025347CB00027960PC000000002968120000100020151023SEA.FCLL91512003                                                                                                                  
129576     O31E313914600029576201510080900200025006LS-2M1A                  0001                2015120500039058                                                                                                                                                                                                      
129576     O31E113914600029576201510080900 00025006LS-2M1A                  0002EFDHV32D65A                                       00025347CB00012000PC000000002559720000100020151023SEA.FCLL91512003                                                                                                                  
129576     O31E313914600029576201510080900 00025006LS-2M1A                  0002                2015120500039058                                                                                                                                                                                                      
