129576     O31A113914600029576201511261300200025006KY-9HAD                       11000250060002947400029474                         FT                                  N F/GDS - TRI(ASIA           )  20151123        1N10002957620160109SEA.FMNL                                                               O   
129576     O31A213914600029576201511261300200025006KY-9HAD                      FOB                               USD                                 PMPC                           20160108                                                            00029576                   00029474  PMPC                    
129576     O31A613914600029576201511261300200025006KY-9HAD                      WHS DATE,Cust Req Delivery date, Fty Due date                                                                                                                                                                                         
129576     O31E113914600029576201511261300 00025006KY-9HAD                  0001EFDHV11D65A         EFDHV11D65A                   00025347CB00010560PC000000000123510000100020160109SEA.FMNLMPH147930/SS100105                                                                                                        
129576     O31E313914600029576201511261300 00025006KY-9HAD                  0001                20160108                                                                                                                                                                                                              
129576     O31E113914600029576201511261300 00025006KY-9HAD                  0002EFDHV15D65A         EFDHV15D65A                   00025347CB00015360PC000000000123510000100020160109SEA.FMNLMPH147930/SS100105                                                                                                        
129576     O31E313914600029576201511261300 00025006KY-9HAD                  0002                20160108                                                                                                                                                                                                              
129576     O31E113914600029576201511261300 00025006KY-9HAD                  0003EFDHV20D65A         EFDHV20D65A                   00025347CB00030720PC000000001533820000100020160109SEA.FMNLMPH147930/SS100105                                                                                                        
129576     O31E313914600029576201511261300 00025006KY-9HAD                  0003                20160108                                                                                                                                                                                                              
129576     O31E113914600029576201511261300 00025006KY-9HAD                  0004EFDHV25D65A         EFDHV25D65A                   00025347CB00030720PC000000001533820000100020160109SEA.FMNLMPH147930/SS100105                                                                                                        
129576     O31E313914600029576201511261300 00025006KY-9HAD                  0004                20160108                                                                                                                                                                                                              
129576     O31E113914600029576201511261300 00025006KY-9HAD                  0005EFUHV18D65A3        EFUHV18D65A3                  00025347CB00015000PC000000001434220000100020160109SEA.FMNLMPH147930/SS100105                                                                                                        
129576     O31E313914600029576201511261300 00025006KY-9HAD                  0005                20160108                                                                                                                                                                                                              
