129576     O31A113914600029576201506021300200025006LS-UJGJ                       110002500620614702        31506606-PANALAT BOGOTA  FT                                  N F/GDS - TRI(LATIN AMERICA  )  20150428        1N10002957620150606SEA.FCTG                                                               O   
129576     O31A213914600029576201506021300200025006LS-UJGJ                      FOB                               USD                                                                20150705                SCMM                                        00029576                   20614702  P!LAT(CARTAGENA         
129576     O31A613914600029576201506021300200025006LS-UJGJ                      Consignee                                                                                                                                                                                                                             
129576     O31E113914600029576201506021300 00025006LS-UJGJ                  0001EFDLV11D65L                                       00025347CB00004920PC000000001155420000100020150606SEA.FCTG31506606-PANALAT BOGOTA                                                                                                   
129576     O31E313914600029576201506021300 00025006LS-UJGJ                  0001                20150705                                                                                                                                                                                                              
129576     O31E113914600029576201506021300 00025006LS-UJGJ                  0002EFDLV15L27LC                                      00025347CB00004920PC000000001165320000100020150606SEA.FCTG31506606-PANALAT BOGOTA                                                                                                   
129576     O31E313914600029576201506021300 00025006LS-UJGJ                  0002                20150705                                                                                                                                                                                                              
129576     O31E113914600029576201506021300 00025006LS-UJGJ                  0003EFDLV25D65L                                       00025347CB00006360PC000000001673320000100020150606SEA.FCTG31506606-PANALAT BOGOTA                                                                                                   
129576     O31E313914600029576201506021300 00025006LS-UJGJ                  0003                20150705                                                                                                                                                                                                              
