129576     O31A113914600029576201510210900200025006LS-5K6N                       110002500600039051000390515000032107               FT                                  N F/GDS - TRI(LATIN AMERICA  )  20150929        1N10002957620151027SEA.FMEX                                                               O   
129576     O31A213914600029576201510210900200025006LS-5K6N                      FOB                               USD                                 PANAMEX                        201512050003905100039051SCMM                                        00029576                   00039051  PANAMEX                 
129576     O31A613914600029576201510210900200025006LS-5K6N                      WHS DATE,Cust Req Delivery date, Fty Due date                                                                                                                                                                                         
129576     O31E113914600029576201510210900 00025006LS-5K6N                  0001EFDLV11D65L                                       00025347CB00004920PC000000001115520000100020151027SEA.FMEX91511177                                                                                                                  
129576     O31E313914600029576201510210900 00025006LS-5K6N                  0001                2015120500039051                                                                                                                                                                                                      
129576     O31E113914600029576201510210900 00025006LS-5K6N                  0002EFDLV23D65L                                       00025347CB00033240PC000000001563720000100020151027SEA.FMEX91511177                                                                                                                  
129576     O31E313914600029576201510210900 00025006LS-5K6N                  0002                2015120500039051                                                                                                                                                                                                      
129576     O31E113914600029576201510210900 00025006LS-5K6N                  0003EFDLV20L27L                                       00025347CB00004800PC000000001264920000100020151027SEA.FMEX91511177                                                                                                                  
129576     O31E313914600029576201510210900 00025006LS-5K6N                  0003                2015120500039051                                                                                                                                                                                                      
129576     O31E113914600029576201510210900 00025006LS-5K6N                  0004EFDLV20D65L                                       00025347CB00047760PC000000001264920000100020151027SEA.FMEX91511177                                                                                                                  
129576     O31E313914600029576201510210900 00025006LS-5K6N                  0004                2015120500039051                                                                                                                                                                                                      
129576     O31E113914600029576201510210900 00025006LS-5K6N                  0005EFDLV25D65L                                       00025347CB00022080PC000000001563720000100020151027SEA.FMEX91511177                                                                                                                  
129576     O31E313914600029576201510210900 00025006LS-5K6N                  0005                2015120500039051                                                                                                                                                                                                      
129576     O31E113914600029576201510210900 00025006LS-5K6N                  0006EFDLV23L27L                                       00025347CB00005160PC000000001563720000100020151027SEA.FMEX91511177                                                                                                                  
129576     O31E313914600029576201510210900 00025006LS-5K6N                  0006                2015120500039051                                                                                                                                                                                                      
129576     O31E113914600029576201510210900 00025006LS-5K6N                  0007EFDLV15L27L                                       00025347CB00003960PC000000001115520000100020151027SEA.FMEX91511177                                                                                                                  
129576     O31E313914600029576201510210900 00025006LS-5K6N                  0007                2015120500039051                                                                                                                                                                                                      
129576     O31E113914600029576201510210900 00025006LS-5K6N                  0008EFDLV25L27L                                       00025347CB00000720PC000000001563720000100020151027SEA.FMEX91511177                                                                                                                  
129576     O31E313914600029576201510210900 00025006LS-5K6N                  0008                2015120500039051                                                                                                                                                                                                      
129576     O31E113914600029576201510210900 00025006LS-5K6N                  0009EFDLV15D65L                                       00025347CB00025800PC000000001115520000100020151027SEA.FMEX91511177                                                                                                                  
129576     O31E313914600029576201510210900 00025006LS-5K6N                  0009                2015120500039051                                                                                                                                                                                                      
129576     O31A113914600029576201510210900900025006KY-6PPY                       110002500620619678                                 FT                                  N F/GDS - TRI(ASIA           )  20151015        1N10002957620151025SEA.FSGN                                                               O   
129576     O31A213914600029576201510210900900025006KY-6PPY                      FOB                               USD                                                                20151101                                                            00029576                   20619678  PV-PSV HCM              
129576     O31A613914600029576201510210900900025006KY-6PPY                      T/T BY 10TH OF NEXT MONTH                         BY T/T REMITTANCE ON THE 10TH OF THE NEXT MONTH                                                                                                                                     
129576     O31E113914600029576201510210900900025006KY-6PPY                  0001EFDHV8L27A          EFDHV8L27A                    00025347CB00000000PC000000000992420000100020151025SEA.FSGNMSV146871/I207-113702                                                                                                     
129576     O31E313914600029576201510210900900025006KY-6PPY                  0001                20151101                                                                                                                                                                                                              
