129576     O31A113914600029576201508280900900025006KY-2UYE                       110002500620619678                                 FT                                  N F/GDS - TRI(ASIA           )  20150825        1N10002957620150830SEA.FSGN                                                               O   
129576     O31A213914600029576201508280900900025006KY-2UYE                      FOB                               USD                                                                20150916                                                            00029576                   20619678  PV-PSV HCM              
129576     O31A613914600029576201508280900900025006KY-2UYE                      T/T BY 10TH OF NEXT MONTH                         BY T/T REMITTANCE ON THE 10TH OF THE NEXT MONTH                                                                                                                                     
129576     O31E113914600029576201508280900900025006KY-2UYE                  0001EFDHV15D65A         EFDHV15D65A                   00025347CB00000000PC000000001170320000100020150830SEA.FSGNMSV144954/I207-113370                                                                                                     
129576     O31E313914600029576201508280900900025006KY-2UYE                  0001                20150916                                                                                                                                                                                                              
129576     O31E113914600029576201508280900900025006KY-2UYE                  0002EFDHV15L27A         EFDHV15L27A                   00025347CB00000000PC000000001170320000100020150830SEA.FSGNMSV144954/I207-113370                                                                                                     
129576     O31E313914600029576201508280900900025006KY-2UYE                  0002                20150916                                                                                                                                                                                                              
129576     O31E113914600029576201508280900900025006KY-2UYE                  0003EFDHV20D65A         EFDHV20D65A                   00025347CB00000000PC000000001451220000100020150830SEA.FSGNMSV144954/I207-113370                                                                                                     
129576     O31E313914600029576201508280900900025006KY-2UYE                  0003                20150916                                                                                                                                                                                                              
129576     O31E113914600029576201508280900900025006KY-2UYE                  0004EFDHV20L27A         EFDHV20L27A                   00025347CB00000000PC000000001451220000100020150830SEA.FSGNMSV144954/I207-113370                                                                                                     
129576     O31E313914600029576201508280900900025006KY-2UYE                  0004                20150916                                                                                                                                                                                                              
129576     O31E113914600029576201508280900900025006KY-2UYE                  0005EFDHV23D65A         EFDHV23D65A                   00025347CB00000000PC000000001451220000100020150830SEA.FSGNMSV144954/I207-113370                                                                                                     
129576     O31E313914600029576201508280900900025006KY-2UYE                  0005                20150916                                                                                                                                                                                                              
129576     O31E113914600029576201508280900900025006KY-2UYE                  0006EFDHV23L27A         EFDHV23L27A                   00025347CB00000000PC000000001451220000100020150830SEA.FSGNMSV144954/I207-113370                                                                                                     
129576     O31E313914600029576201508280900900025006KY-2UYE                  0006                20150916                                                                                                                                                                                                              
129576     O31E113914600029576201508280900900025006KY-2UYE                  0007EFDHV25D65A         EFDHV25D65A                   00025347CB00000000PC000000001451220000100020150830SEA.FSGNMSV144954/I207-113370                                                                                                     
129576     O31E313914600029576201508280900900025006KY-2UYE                  0007                20150916                                                                                                                                                                                                              
129576     O31E113914600029576201508280900900025006KY-2UYE                  0008EFDHV25L27A         EFDHV25L27A                   00025347CB00000000PC000000001451220000100020150830SEA.FSGNMSV144954/I207-113370                                                                                                     
129576     O31E313914600029576201508280900900025006KY-2UYE                  0008                20150916                                                                                                                                                                                                              
129576     O31E113914600029576201508280900900025006KY-2UYE                  0009EFDHV5D65A          EFDHV5D65A                    00025347CB00000000PC000000000992420000100020150830SEA.FSGNMSV144954/I207-113370                                                                                                     
129576     O31E313914600029576201508280900900025006KY-2UYE                  0009                20150916                                                                                                                                                                                                              
129576     O31E113914600029576201508280900900025006KY-2UYE                  0010EFDHV8D65A          EFDHV8D65A                    00025347CB00000000PC000000000992420000100020150830SEA.FSGNMSV144954/I207-113370                                                                                                     
129576     O31E313914600029576201508280900900025006KY-2UYE                  0010                20150916                                                                                                                                                                                                              
