129576     O31A113914600029576201512031600200025006LS-A1ZH                       110002500600039051000390515000032561               FT                                  N F/GDS - TRI(LATIN AMERICA  )  20151201        1N10002957620151228SEA.FMEX                                                               O   
129576     O31A213914600029576201512031600200025006LS-A1ZH                      FOB                               USD                                 PANAMEX                        201602050003905100039051SCMM                                        00029576                   00039051  PANAMEX                 
129576     O31A613914600029576201512031600200025006LS-A1ZH                      WHS DATE,Cust Req Delivery date, Fty Due date                                                                                                                                                                                         
129576     O31E113914600029576201512031600 00025006LS-A1ZH                  0001EFDLV15D65L                                       00025347CB00016920PC000000001115520000100020151228SEA.FMEX91601164                                                                                                                  
129576     O31E313914600029576201512031600 00025006LS-A1ZH                  0001                2016020500039051                                                                                                                                                                                                      
129576     O31E113914600029576201512031600 00025006LS-A1ZH                  0002EFDLV15L27L                                       00025347CB00001560PC000000001115520000100020151228SEA.FMEX91601164                                                                                                                  
129576     O31E313914600029576201512031600 00025006LS-A1ZH                  0002                2016020500039051                                                                                                                                                                                                      
129576     O31E113914600029576201512031600 00025006LS-A1ZH                  0003EFDLV20D65L                                       00025347CB00036000PC000000001264920000100020151228SEA.FMEX91601164                                                                                                                  
129576     O31E313914600029576201512031600 00025006LS-A1ZH                  0003                2016020500039051                                                                                                                                                                                                      
129576     O31E113914600029576201512031600 00025006LS-A1ZH                  0004EFDLV23D65L                                       00025347CB00030360PC000000001563720000100020151228SEA.FMEX91601164                                                                                                                  
129576     O31E313914600029576201512031600 00025006LS-A1ZH                  0004                2016020500039051                                                                                                                                                                                                      
129576     O31E113914600029576201512031600 00025006LS-A1ZH                  0005EFDLV25D65L                                       00025347CB00008640PC000000001563720000100020151228SEA.FMEX91601164                                                                                                                  
129576     O31E313914600029576201512031600 00025006LS-A1ZH                  0005                2016020500039051                                                                                                                                                                                                      
