129576     O31A113914600029576201507081300200025006LS-ZBN1                       110002500600039058        1509-7690 -01-LIMA       FT                                  N F/GDS - TRI(LATIN AMERICA  )  20150707        1N10002957620150803SEA.FCLL                                                               O   
129576     O31A213914600029576201507081300200025006LS-ZBN1                      FOB                               USD                                                                2015090500039058                                                    00029576                   00039058  PANAPERU                
129576     O31A613914600029576201507081300200025006LS-ZBN1                      WHS DATE,Cust Req Delivery date, Fty Due date                                                                                                                                                                                         
129576     O31E113914600029576201507081300 00025006LS-ZBN1                  0001EFUHV18L27L                                       00025347CB00020000PC000000001374520000100020150803SEA.FCLL91509131                                                                                                                  
129576     O31E313914600029576201507081300 00025006LS-ZBN1                  0001                2015090500039058                                                                                                                                                                                                      
129576     O31E113914600029576201507081300 00025006LS-ZBN1                  0002EFUHV18D65L                                       00025347CB00070000PC000000001374520000100020150803SEA.FCLL91509131                                                                                                                  
129576     O31E313914600029576201507081300 00025006LS-ZBN1                  0002                2015090500039058                                                                                                                                                                                                      
