129576     O31A113914600029576201506200300200025006KY-U132                       11000250062062061620620616                         FT                                  N F/GDS - TRI(ASIA           )  20150422        1N10002957620150629SEA.FSIN                                                               O   
129576     O31A213914600029576201506200300200025006KY-U132                      FOB                               USD                                 BLS                            20150710                                                            00029576                   20620616  BLS                     
129576     O31A613914600029576201506200300200025006KY-U132                      WHS DATE,Cust Req Delivery date, Fty Due date                                                                                                                                                                                         
129576     O31E113914600029576201506200300 00025006KY-U132                  0001EFDHV32D65A         EFDHV32D65A                   00025347CB00048000PC000000000274710000100020150629SEA.FSINMGM140866/660-403267                                                                                                      
129576     O31E313914600029576201506200300 00025006KY-U132                  0001                20150710                                                                                                                                                                                                              
129576     O31E113914600029576201506200300 00025006KY-U132                  0002EFDHV42D65A         EFDHV42D65A                   00025347CB00048000PC000000003041320000100020150629SEA.FSINMGM140866/660-403267                                                                                                      
129576     O31E313914600029576201506200300 00025006KY-U132                  0002                20150710                                                                                                                                                                                                              
