129576     O31A113914600029576201508191600900025006DJ-26S8                       11000250062001259020012590                         FT                                  N F/GDS - TRI(MIDDLE-EAST    )  20150817        1N10002957620150912SEA.FRUH                                                               O   
129576     O31A213914600029576201508191600900025006DJ-26S8                      FOB                               USD                                 AL-SAEED                       20151010                                                            00029576                   20012590  AL-SAEED                
129576     O31A613914600029576201508191600900025006DJ-26S8                      T/T BY 10TH OF NEXT MONTH                         BY T/T REMITTANCE ON THE 10TH OF THE NEXT MONTH                                                                                                                                     
129576     O31E113914600029576201508191600900025006DJ-26S8                  0001EFUHV11D65M         EFUHV11D65M                   00025347CB00000000PC000000000976120000100020150912SEA.FRUH4500101336                                                                                                                
129576     O31E313914600029576201508191600900025006DJ-26S8                  0001                20151010                                                                                                                                                                                                              
129576     O31E113914600029576201508191600900025006DJ-26S8                  0002EFDHV15D65M         EFDHV15D65M                   00025347CB00000000PC000000000124510000100020150912SEA.FRUH4500101336                                                                                                                
129576     O31E313914600029576201508191600900025006DJ-26S8                  0002                20151010                                                                                                                                                                                                              
129576     O31E113914600029576201508191600900025006DJ-26S8                  0003EFDHV20L27M         EFDHV20L27M                   00025347CB00000000PC000000001553820000100020150912SEA.FRUH4500101336                                                                                                                
129576     O31E313914600029576201508191600900025006DJ-26S8                  0003                20151010                                                                                                                                                                                                              
129576     O31E113914600029576201508191600900025006DJ-26S8                  0004EFDHV23L27M         EFDHV23L27M                   00025347CB00000000PC000000001553820000100020150912SEA.FRUH4500101336                                                                                                                
129576     O31E313914600029576201508191600900025006DJ-26S8                  0004                20151010                                                                                                                                                                                                              
129576     O31E113914600029576201508191600900025006DJ-26S8                  0005EFDHV23D65M         EFDHV23D65M                   00025347CB00000000PC000000001553820000100020150912SEA.FRUH4500101336                                                                                                                
129576     O31E313914600029576201508191600900025006DJ-26S8                  0005                20151010                                                                                                                                                                                                              
129576     O31E113914600029576201508191600900025006DJ-26S8                  0006EFDHV25L27M         EFDHV25L27M                   00025347CB00000000PC000000001553820000100020150912SEA.FRUH4500101336                                                                                                                
129576     O31E313914600029576201508191600900025006DJ-26S8                  0006                20151010                                                                                                                                                                                                              
129576     O31E113914600029576201508191600900025006DJ-26S8                  0007EFDHV25D65M         EFDHV25D65M                   00025347CB00000000PC000000001553820000100020150912SEA.FRUH4500101336                                                                                                                
129576     O31E313914600029576201508191600900025006DJ-26S8                  0007                20151010                                                                                                                                                                                                              
129576     O31E113914600029576201508191600900025006DJ-26S8                  0008EFDHV32D65A         EFDHV32D65A                   00025347CB00000000PC000000002559720000100020150912SEA.FRUH4500101336                                                                                                                
129576     O31E313914600029576201508191600900025006DJ-26S8                  0008                20151010                                                                                                                                                                                                              
129576     O31E113914600029576201508191600900025006DJ-26S8                  0009EFDHV42D65A         EFDHV42D65A                   00025347CB00000000PC000000002898420000100020150912SEA.FRUH4500101336                                                                                                                
129576     O31E313914600029576201508191600900025006DJ-26S8                  0009                20151010                                                                                                                                                                                                              
