129576     O31A113914600029576201506241600200025006KY-WCMK                       110002500600039130                                 FT                                  N F/GDS - TRI(ASIA           )  20150526        1N10002957620150630SEA.FLKG                                                               O   
129576     O31A213914600029576201506241600200025006KY-WCMK                      FOB                               USD                                                                20150715                                                            00029576                   00039130  PST                     
129576     O31A613914600029576201506241600200025006KY-WCMK                      T/T BY 10TH OF NEXT MONTH                         BY T/T REMITTANCE ON THE 10TH OF THE NEXT MONTH                                                                                                                                     
129576     O31E113914600029576201506241600 00025006KY-WCMK                  0001EFDHV32D65A         EFDHV32D65A                   00025347CB00099840PC000000000274710000100020150630SEA.FLKGMST142485/LIGH-137716                                                                                                     
129576     O31E313914600029576201506241600 00025006KY-WCMK                  0001                20150715                                                                                                                                                                                                              
129576     O31E113914600029576201506241600200025006KY-WCMK                  0002EFUHV18L27A         EFUHV18L27A                   00025347CB00080000PC000000001354620000100020150630SEA.FLKGMST142485/LIGH-137716                                                                                                     
129576     O31E313914600029576201506241600200025006KY-WCMK                  0002                20150715                                                                                                                                                                                                              
129576     O31E113914600029576201506241600 00025006KY-WCMK                  0003EFUHV23D65A         EFUHV23D65A                   00025347CB00800000PC000000001424320000100020150630SEA.FLKGMST142485/LIGH-137716                                                                                                     
129576     O31E313914600029576201506241600 00025006KY-WCMK                  0003                20150715                                                                                                                                                                                                              
129576     O31E113914600029576201506241600 00025006KY-WCMK                  0004EFUHV23L27A         EFUHV23L27A                   00025347CB00080000PC000000001424320000100020150630SEA.FLKGMST142485/LIGH-137716                                                                                                     
129576     O31E313914600029576201506241600 00025006KY-WCMK                  0004                20150715                                                                                                                                                                                                              
