129576     O31A113914600029576201506091300200025006DJ-TEMU                       11000250060002995620605309                         FT                                  N F/GDS - TRI(MIDDLE-EAST    )  20150415        1N10002957620150610AIR.FJEB                                                               O   
129576     O31A213914600029576201506091300200025006DJ-TEMU                      FOB                               USD                                 PMMAF(J.ALI)                   20150510                                                            00029576                   20605309  PMMAF(J.ALI)            
129576     O31A613914600029576201506091300200025006DJ-TEMU                      WHS DATE                                                                                                                                                                                                                              
129576     O31E113914600029576201506091300 00025006DJ-TEMU                  0001EFUHV18L27M         EFUHV18L27M                   00025347CB00000200PC000000001344620000100020150610AIR.FJEB4500097535                                                                                                                
129576     O31E313914600029576201506091300 00025006DJ-TEMU                  0001                20150510                                                                                                                                                                                                              
129576     O31E113914600029576201506091300 00025006DJ-TEMU                  0002EFUHV18D65M         EFUHV18D65M                   00025347CB00000200PC000000001344620000100020150610AIR.FJEB4500097535                                                                                                                
129576     O31E313914600029576201506091300 00025006DJ-TEMU                  0002                20150510                                                                                                                                                                                                              
129576     O31E113914600029576201506091300 00025006DJ-TEMU                  0003EFUHV23L27M         EFUHV23L27M                   00025347CB00000200PC000000001424320000100020150610AIR.FJEB4500097535                                                                                                                
129576     O31E313914600029576201506091300 00025006DJ-TEMU                  0003                20150510                                                                                                                                                                                                              
129576     O31E113914600029576201506091300 00025006DJ-TEMU                  0004EFUHV23D65M         EFUHV23D65M                   00025347CB00000200PC000000001424320000100020150610AIR.FJEB4500097535                                                                                                                
129576     O31E313914600029576201506091300 00025006DJ-TEMU                  0004                20150510                                                                                                                                                                                                              
129576     O31E113914600029576201506091300 00025006DJ-TEMU                  0005EFDHV32D65A         EFDHV32D65A                   00025347CB00000180PC000000002559720000100020150610AIR.FJEB4500097535                                                                                                                
129576     O31E313914600029576201506091300 00025006DJ-TEMU                  0005                20150510                                                                                                                                                                                                              
129576     O31E113914600029576201506091300 00025006DJ-TEMU                  0006EFDHV42D65A         EFDHV42D65A                   00025347CB00000180PC000000002898420000100020150610AIR.FJEB4500097535                                                                                                                
129576     O31E313914600029576201506091300 00025006DJ-TEMU                  0006                20150510                                                                                                                                                                                                              
