129576     O31A113914600029576201511131300200025006LS-7M7Z                       110002500600039051000390515000032356               FT                                  N F/GDS - TRI(LATIN AMERICA  )  20151028        1N10002957620151130SEA.FMEX                                                               O   
129576     O31A213914600029576201511131300200025006LS-7M7Z                      FOB                               USD                                 PANAMEX                        201601050003905100039051SCMM                                        00029576                   00039051  PANAMEX                 
129576     O31A613914600029576201511131300200025006LS-7M7Z                      WHS DATE,Cust Req Delivery date, Fty Due date                                                                                                                                                                                         
129576     O31E113914600029576201511131300 00025006LS-7M7Z                  0001EFDLV25D65L                                       00025347CB00004800PC000000001563720000100020151130SEA.FMEX91512152                                                                                                                  
129576     O31E313914600029576201511131300 00025006LS-7M7Z                  0001                2016010500039051                                                                                                                                                                                                      
129576     O31E113914600029576201511131300 00025006LS-7M7Z                  0002EFDLV11L27L                                       00025347CB00002400PC000000001115520000100020151130SEA.FMEX91512152                                                                                                                  
129576     O31E313914600029576201511131300 00025006LS-7M7Z                  0002                2016010500039051                                                                                                                                                                                                      
129576     O31E113914600029576201511131300 00025006LS-7M7Z                  0003EFDLV11D65L                                       00025347CB00003000PC000000001115520000100020151130SEA.FMEX91512152                                                                                                                  
129576     O31E313914600029576201511131300 00025006LS-7M7Z                  0003                2016010500039051                                                                                                                                                                                                      
129576     O31E113914600029576201511131300 00025006LS-7M7Z                  0004EFDLV15L27L                                       00025347CB00002040PC000000001115520000100020151130SEA.FMEX91512152                                                                                                                  
129576     O31E313914600029576201511131300 00025006LS-7M7Z                  0004                2016010500039051                                                                                                                                                                                                      
