129576     O31A113914600029576201507291100200025006KY-02LD                       110002500600029073                                 FT                                  N F/GDS - TRI(ASIA           )  20150715        1N10002957620150814SEA.FSIN                                                               O   
129576     O31A213914600029576201507291100200025006KY-02LD                      FOB                               USD                                                                20150810                                                            00029576                   00029073  PSP-DD                  
129576     O31A613914600029576201507291100200025006KY-02LD                      WHS DATE,Cust Req Delivery date, Fty Due date                                                                                                                                                                                         
129576     O31E113914600029576201507291100 00025006KY-02LD                  0001EFU18E652V          EFU18E652V                    00025347CB00003000PC000000001367620000100020150814SEA.FSINMSP143776/DD5555-233122                                                                                                   
129576     O31E313914600029576201507291100 00025006KY-02LD                  0001                20150810                                                                                                                                                                                                              
129576     O31E113914600029576201507291100 00025006KY-02LD                  0002EFU8E652V           EFU8E652V                     00025347CB00003000PC000000001171420000100020150814SEA.FSINMSP143776/DD5555-233122                                                                                                   
129576     O31E313914600029576201507291100 00025006KY-02LD                  0002                20150810                                                                                                                                                                                                              
129576     O31A113914600029576201507291100200025006KY-02LL                       110002500600029073                                 FT                                  N F/GDS - TRI(ASIA           )  20150715        1N10002957620150814SEA.FSIN                                                               O   
129576     O31A213914600029576201507291100200025006KY-02LL                      FOB                               USD                                                                20150810                                                            00029576                   00029073  PSP-DD                  
129576     O31A613914600029576201507291100200025006KY-02LL                      WHS DATE,Cust Req Delivery date, Fty Due date                                                                                                                                                                                         
129576     O31E113914600029576201507291100 00025006KY-02LL                  0001EFDHV15L27A         EFDHV15L27A                   00025347CB00008640PC000000000123510000100020150814SEA.FSINMSP143780/DD5555-233121                                                                                                   
129576     O31E313914600029576201507291100 00025006KY-02LL                  0001                20150810                                                                                                                                                                                                              
