00025103   O31A112510800025108201606270435100025108MST154058/7931000135         A  0002510300039130                                 S31790                              NCKE, MS. CHUI HONG, MICHELLE MI20160712        1N10003827420160724SEA.FLKGLIGHTING                                                       O   
00025103   O31A212510800025108201606270435100025108MST154058/7931000135         FOB0                              USD                                                        00039130201608100003913000039130SCMM                                        00038274                                                     
00025103   O31E112510800025108201606270435100025108MST154058/7931000135     0001EFDHV15L27T                                                 00059520  0000000012239400000010        SEA.FLKG7931000135                                                                                                                
00025103   O31E912510800025108201606270435 00025108MST154058/7931000135     0001                        00039130                                                                                                                                                                                                      
00025103   O31E112510800025108201606270435100025108MST154058/7931000135     0002EFDHV20D65T                                                 00096000  0000000000152200000010        SEA.FLKG7931000135                                                                                                                
00025103   O31E912510800025108201606270435 00025108MST154058/7931000135     0002                        00039130                                                                                                                                                                                                      
00025103   O31E112510800025108201606270435100025108MST154058/7931000135     0003EFDHV20L27T                                                 00014400  0000000000152200000010        SEA.FLKG7931000135                                                                                                                
00025103   O31E912510800025108201606270435 00025108MST154058/7931000135     0003                        00039130                                                                                                                                                                                                      
00025103   O31E112510800025108201606270435100025108MST154058/7931000135     0004EFDHV23D65T                                                 00035520  0000000000152200000010        SEA.FLKG7931000135                                                                                                                
00025103   O31E912510800025108201606270435 00025108MST154058/7931000135     0004                        00039130                                                                                                                                                                                                      
00025103   O31E112510800025108201606270435100025108MST154058/7931000135     0005EFDHV25D65T                                                 01320000  0000000000152200000010        SEA.FLKG7931000135                                                                                                                
00025103   O31E912510800025108201606270435 00025108MST154058/7931000135     0005                        00039130                                                                                                                                                                                                      
00025103   O31E112510800025108201606270435100025108MST154058/7931000135     0006EFDHV25L27T                                                 00024000  0000000000152200000010        SEA.FLKG7931000135                                                                                                                
00025103   O31E912510800025108201606270435 00025108MST154058/7931000135     0006                        00039130                                                                                                                                                                                                      
00025103   O31E112510800025108201606270435100025108MST154058/7931000135     0007EFU14E272V                                                  00090000  0000000013083400000010        SEA.FLKG7931000135                                                                                                                
00025103   O31E912510800025108201606270435 00025108MST154058/7931000135     0007                        00039130                                                                                                                                                                                                      
00025103   O31E112510800025108201606270435100025108MST154058/7931000135     0008EFU8E652V                                                   00120000  0000000011971400000010        SEA.FLKG7931000135                                                                                                                
00025103   O31E912510800025108201606270435 00025108MST154058/7931000135     0008                        00039130                                                                                                                                                                                                      
00025103   O31E112510800025108201606270435100025108MST154058/7931000135     0009EFUHV18D65A                                                 00297000  0000000013423400000010        SEA.FLKG7931000135                                                                                                                
00025103   O31E912510800025108201606270435 00025108MST154058/7931000135     0009                        00039130                                                                                                                                                                                                                                                                                                                        
