00025103   O31A112511000025110201705081234100025110MMQ163346/7921000190         A  0002510300039140                                 S31790                              YCKE, MS. CHUI HONG, MICHELLE MI20170513        1N10003827420170518SEA.FPKLLIGHTING                                                       O   
00025103   O31A212511000025110201705081234100025110MMQ163346/7921000190         FOB0                              USD                                                        00039140201706100003914000039140                                            00038274                                                     
00025103   O31E112511000025110201705081234100025110MMQ163346/7921000190     0001EFDHV23D65T1                                                00038400  0000000013057400000010        SEA.FPKL7921000190                                                                                                                
00025103   O31E912511000025110201705081234 00025110MMQ163346/7921000190     0001                        00039140                                                                                                                                                                                                      
00025103   O31E112511000025110201705081234100025110MMQ163346/7921000190     0002EFDHV25L27T1                                                00059520  0000000014381400000010        SEA.FPKL7921000190                                                                                                                
00025103   O31E912511000025110201705081234 00025110MMQ163346/7921000190     0002                        00039140                                                                                                                                                                                                      
00025103   O31E112511000025110201705081234100025110MMQ163346/7921000190     0003EFUHV23D65A3                                                00010000  0000000013624400000010        SEA.FPKL7921000190                                                                                                                
00025103   O31E912511000025110201705081234 00025110MMQ163346/7921000190     0003                        00039140                                                                                                                                                                                                      
00025103   O31E112511000025110201705081234100025110MMQ163346/7921000190     0004EFDHV20D65T1                                                00024000  0000000001249300000010        SEA.FPKL7921000190                                                                                                                
00025103   O31E912511000025110201705081234 00025110MMQ163346/7921000190     0004                        00039140                                                                                                                                                                                                      
