12000I     O31A112510800025108201807272108100025108MST7901000589/7931004997       10002510300039130                                 L31790                              NNR01-SG                        20180910         N 0003827420180824SEA.FLKGLIGHTING                                                       O   
12000I     O31A212510800025108201807272108100025108MST7901000589/7931004997     FOB0                              USD                                                        00025103201809100002510300025103SCMM                                        00038274                                                     
12000I     O31A812510800025108201807272108100025108MST7901000589/7931004997     FOB                                                                                                                                                                                                                                   
12000I     O31E112510800025108201807272108100025108MST7901000589/7931004997 0010LDS300D2N                                                   00002500PC000000000000120000001020180910SEA.FLKGMST7901000589/7931004997                                                                                                  
12000I     O31E912510800025108201807272108 00025108MST7901000589/7931004997 0010                        00025103                                                                                                                                                                                                      
12000I     O31A112510800025108201807272108100025108MST7901000590/7931004999       10002510300039130                                 L31790                              NNR01-SG                        20181005         N 0003827420180917SEA.FLKGLIGHTING                                                       O   
12000I     O31A212510800025108201807272108100025108MST7901000590/7931004999     FOB0                              USD                                                        00025103201810050002510300025103SCMM                                        00038274                                                     
12000I     O31A812510800025108201807272108100025108MST7901000590/7931004999     FOB                                                                                                                                                                                                                                   
12000I     O31E112510800025108201807272108100025108MST7901000590/7931004999 0010LDR400N                                                     00005000PC000000000000120000001020181005SEA.FLKGMST7901000590/7931004999                                                                                                  
12000I     O31E912510800025108201807272108 00025108MST7901000590/7931004999 0010                        00025103                                                                                                                                                                                                      
12000I     O31A112510800025108201807272109100025108MST7901000592/7931004998       10002510300039130                                 L31790                              NNR01-SG                        20180910         N 0003827420180824SEA.FLKGLIGHTING                                                       O   
12000I     O31A212510800025108201807272109100025108MST7901000592/7931004998     FOB0                              USD                                                        00025103201809100002510300025103SCMM                                        00038274                                                     
12000I     O31A812510800025108201807272109100025108MST7901000592/7931004998     FOB                                                                                                                                                                                                                                   
12000I     O31E112510800025108201807272109100025108MST7901000592/7931004998 0010EFDHV11D65T                                                 00014400PC000000000000120000001020180910SEA.FLKGMST7901000592/7931004998                                                                                                  
12000I     O31E912510800025108201807272109 00025108MST7901000592/7931004998 0010                        00025103                                                                                                                                                                                                      
12000I     O31E112510800025108201807272109100025108MST7901000592/7931004998 0020EFDHV15D65T1                                                00148800PC000000000000120000001020180910SEA.FLKGMST7901000592/7931004998                                                                                                  
12000I     O31E912510800025108201807272109 00025108MST7901000592/7931004998 0020                        00025103                                                                                                                                                                                                      
12000I     O31E112510800025108201807272109100025108MST7901000592/7931004998 0030EFDHV15L27T1                                                00044160PC000000000000120000001020180910SEA.FLKGMST7901000592/7931004998                                                                                                  
12000I     O31E912510800025108201807272109 00025108MST7901000592/7931004998 0030                        00025103                                                                                                                                                                                                      
12000I     O31E112510800025108201807272109100025108MST7901000592/7931004998 0040EFDHV20D65T1                                                00030720PC000000000000120000001020180910SEA.FLKGMST7901000592/7931004998                                                                                                  
12000I     O31E912510800025108201807272109 00025108MST7901000592/7931004998 0040                        00025103                                                                                                                                                                                                      
12000I     O31E112510800025108201807272109100025108MST7901000592/7931004998 0050EFDHV23D65T1                                                00026880PC000000000000120000001020180910SEA.FLKGMST7901000592/7931004998                                                                                                  
12000I     O31E912510800025108201807272109 00025108MST7901000592/7931004998 0050                        00025103                                                                                                                                                                                                      
12000I     O31E112510800025108201807272109100025108MST7901000592/7931004998 0060EFDHV25D65T                                                 01998720PC000000000014820000001020180910SEA.FLKGMST7901000592/7931004998                                                                                                  
12000I     O31E912510800025108201807272109 00025108MST7901000592/7931004998 0060                        00025103                                                                                                                                                                                                      
12000I     O31E112510800025108201807272109100025108MST7901000592/7931004998 0070EFDHV25L27T                                                 00034560PC000000000014820000001020180910SEA.FLKGMST7901000592/7931004998                                                                                                  
12000I     O31E912510800025108201807272109 00025108MST7901000592/7931004998 0070                        00025103                                                                                                                                                                                                      
12000I     O31E112510800025108201807272109100025108MST7901000592/7931004998 0080EFDHV32D65A                                                 00017760PC000000000000120000001020180910SEA.FLKGMST7901000592/7931004998                                                                                                  
12000I     O31E912510800025108201807272109 00025108MST7901000592/7931004998 0080                        00025103                                                                                                                                                                                                      
12000I     O31E112510800025108201807272109100025108MST7901000592/7931004998 0090EFDHV42D65A                                                 00024960PC000000000000120000001020180910SEA.FLKGMST7901000592/7931004998                                                                                                  
12000I     O31E912510800025108201807272109 00025108MST7901000592/7931004998 0090                        00025103                                                                                                                                                                                                      
12000I     O31E112510800025108201807272109100025108MST7901000592/7931004998 0100EFU11E652V                                                  00042000PC000000000000120000001020180910SEA.FLKGMST7901000592/7931004998                                                                                                  
12000I     O31E912510800025108201807272109 00025108MST7901000592/7931004998 0100                        00025103                                                                                                                                                                                                      
12000I     O31E112510800025108201807272109100025108MST7901000592/7931004998 0110EFU14E272V1                                                 00095000PC000000000000120000001020180910SEA.FLKGMST7901000592/7931004998                                                                                                  
12000I     O31E912510800025108201807272109 00025108MST7901000592/7931004998 0110                        00025103                                                                                                                                                                                                      
12000I     O31E112510800025108201807272109100025108MST7901000592/7931004998 0120EFU14E652V1                                                 00450000PC000000000000120000001020180910SEA.FLKGMST7901000592/7931004998                                                                                                  
12000I     O31E912510800025108201807272109 00025108MST7901000592/7931004998 0120                        00025103                                                                                                                                                                                                      
12000I     O31E112510800025108201807272109100025108MST7901000592/7931004998 0130EFUHV18D65A                                                 00135000PC000000000000120000001020180910SEA.FLKGMST7901000592/7931004998                                                                                                  
12000I     O31E912510800025108201807272109 00025108MST7901000592/7931004998 0130                        00025103                                                                                                                                                                                                      
12000I     O31E112510800025108201807272109100025108MST7901000592/7931004998 0140EFUHV18L27A                                                 00017000PC000000000000120000001020180910SEA.FLKGMST7901000592/7931004998                                                                                                  
12000I     O31E912510800025108201807272109 00025108MST7901000592/7931004998 0140                        00025103                                                                                                                                                                                                      
12000I     O31E112510800025108201807272109100025108MST7901000592/7931004998 0150EFUHV23D65A                                                 00065000PC000000000000120000001020180910SEA.FLKGMST7901000592/7931004998                                                                                                  
12000I     O31E912510800025108201807272109 00025108MST7901000592/7931004998 0150                        00025103                                                                                                                                                                                                      
12000I     O31E112510800025108201807272109100025108MST7901000592/7931004998 0160LDR400N                                                     00005000PC000000000000120000001020180910SEA.FLKGMST7901000592/7931004998                                                                                                  
12000I     O31E912510800025108201807272109 00025108MST7901000592/7931004998 0160                        00025103                                                                                                                                                                                                      
