00025103   O31A112511000025110201805280355100025110MMQ175069/7921003798         A  0002510300039140                                 S31790                              NCKE, MS. CHUI HONG, MICHELLE MI20180612        1N10003827420180623SEA.FPKLUA                                                             O   
00025103   O31A212511000025110201805280355100025110MMQ175069/7921003798         FOB0                              USD                                                        00039140201807100003914000039140SCMM                                        00038274                                                     
00025103   O31E112511000025110201805280355100025110MMQ175069/7921003798     0001EFDHV15D65T1                                                00009600  0000000000000000000010        SEA.FPKL7921003798                                                                                                                
00025103   O31E912511000025110201805280355 00025110MMQ175069/7921003798     0001                        00039140                                                                                                                                                                                                      
00025103   O31E112511000025110201805280355100025110MMQ175069/7921003798     0002EFDHV20D65T1                                                00017280  0000000000000000000010        SEA.FPKL7921003798                                                                                                                
00025103   O31E912511000025110201805280355 00025110MMQ175069/7921003798     0002                        00039140                                                                                                                                                                                                      
00025103   O31E112511000025110201805280355100025110MMQ175069/7921003798     0003EFDHV23D65T1                                                00017280  0000000000000000000010        SEA.FPKL7921003798                                                                                                                
00025103   O31E912511000025110201805280355 00025110MMQ175069/7921003798     0003                        00039140                                                                                                                                                                                                      
00025103   O31E112511000025110201805280355100025110MMQ175069/7921003798     0004EFDHV25D65T1                                                00556800  0000000000000000000010        SEA.FPKL7921003798                                                                                                                
00025103   O31E912511000025110201805280355 00025110MMQ175069/7921003798     0004                        00039140                                                                                                                                                                                                      
00025103   O31E112511000025110201805280355100025110MMQ175069/7921003798     0005EFUHV18D65A3                                                00720000  0000000000000000000010        SEA.FPKL7921003798                                                                                                                
00025103   O31E912511000025110201805280355 00025110MMQ175069/7921003798     0005                        00039140                                                                                                                                                                                                      
00025103   O31E112511000025110201805280355100025110MMQ175069/7921003798     0006LDAHV13DH7A                                                 00080000  0000000000000000000010        SEA.FPKL7921003798                                                                                                                
00025103   O31E912511000025110201805280355 00025110MMQ175069/7921003798     0006                        00039140                                                                                                                                                                                                      
00025103   O31E112511000025110201805280355100025110MMQ175069/7921003798     0007LDAHV15DH7A                                                 00080000  0000000000000000000010        SEA.FPKL7921003798                                                                                                                
00025103   O31E912511000025110201805280355 00025110MMQ175069/7921003798     0007                        00039140                                                                                                                                                                                                      
00025103   O31A112510800025108201805280541100025108MST175082/7931004613         A  0002510300039130                                 S31790                              NCKE, MS. CHUI HONG, MICHELLE MI20180612        1N10003827420180716SEA.FLKGLIGHTING                                                       O   
00025103   O31A212510800025108201805280541100025108MST175082/7931004613         FOB0                              USD                                                        00039130201808030003913000039130SCMM                                        00038274                                                     
00025103   O31E112510800025108201805280541100025108MST175082/7931004613     0001LDR400N                                                     00003000  000000000000000000001020180727SEA.FLKG7931004613                                                                                                                
00025103   O31E912510800025108201805280541 00025108MST175082/7931004613     0001                        00039130                                                                                                                                                                                                      
