00025103   O31A112511000025110201702280843100025110MMQ161248/ES1702004          A  0002510300039140                                 S31790                               CKE, MS. CHUI HONG, MICHELLE MI20170305        1N10003827420170325SEA.FPKLLIGHTING                                                       O   
00025103   O31A212511000025110201702280843100025110MMQ161248/ES1702004          FOB0                              USD                                                                20170410                SCMM                                        00038274                                                     
00025103   O31E112511000025110201702280843100025110MMQ161248/ES1702004      0001EFDHV15L27A                                                 00006720  0000000000000000000010                                                                                                                                          
00025103   O31E112511000025110201702280843100025110MMQ161248/ES1702004      0002EFDHV20L27A                                                 00006720  0000000000000000000010                                                                                                                                          
00025103   O31E112511000025110201702280843100025110MMQ161248/ES1702004      0003EFDHV23D65A                                                 00034560  0000000000000000000010                                                                                                                                          
00025103   O31E112511000025110201702280843100025110MMQ161248/ES1702004      0004EFDHV23L27A                                                 00012480  0000000000000000000010                                                                                                                                          
00025103   O31E112511000025110201702280843100025110MMQ161248/ES1702004      0005EFDHV25D65A                                                 00302400  0000000000000000000010                                                                                                                                          
00025103   O31E112511000025110201702280843100025110MMQ161248/ES1702004      0006EFUHV18D65A3                                                00180000  0000000000000000000010                                                                                                                                          
00025103   O31E112511000025110201702280843100025110MMQ161248/ES1702004      0007EFUHV18L27A3                                                00015000  0000000000000000000010                                                                                                                                          
00025103   O31E112511000025110201702280843100025110MMQ161248/ES1702004      0008EFUHV23D65A3                                                00020000  0000000000000000000010                                                                                                                                          
00025103   O31E112511000025110201702280843100025110MMQ161248/ES1702004      0009EFUHV23L27A3                                                00001000  0000000000000000000010                                                                                                                                          
