00025103   O31A112510700025107201804130540100025107MPH173876/7961004686         A  0002510300029474                                 L31790                              YCKE, MS. CHUI HONG, MICHELLE MI20180418        1N10003827420180509SEA.FMNLLIGHTING                                                       O   
00025103   O31A212510700025107201804130540100025107MPH173876/7961004686         FOB0                              USD                                                        00029474201806100002947400029474                                            00038274                                                     
00025103   O31E112510700025107201804130540100025107MPH173876/7961004686     0001EFDHV25D65A                                                 00074880  0000000001562300000010        SEA.FMNL7961004686                                                                                                                
00025103   O31E912510700025107201804130540 00025107MPH173876/7961004686     0001                        00029474                                                                                                                                                                                                      
00025103   O31A112510700025107201804130540100025107MPH173877/7961004687         A  0002510300029474                                 L31790                              YCKE, MS. CHUI HONG, MICHELLE MI20180418        1N10003827420180509SEA.FMNLLIGHTING                                                       O   
00025103   O31A212510700025107201804130540100025107MPH173877/7961004687         FOB0                              USD                                                        00029474201806100002947400029474                                            00038274                                                     
00025103   O31E112510700025107201804130540100025107MPH173877/7961004687     0001LDAHV3DH6A                                                  00076800  0000000000759300000010        SEA.FMNL7961004687                                                                                                                
00025103   O31E912510700025107201804130540 00025107MPH173877/7961004687     0001                        00029474                                                                                                                                                                                                      
00025103   O31E112510700025107201804130540100025107MPH173877/7961004687     0002LDAHV7DH6A                                                  00145000  0000000000114200000010        SEA.FMNL7961004687                                                                                                                
00025103   O31E912510700025107201804130540 00025107MPH173877/7961004687     0002                        00029474                                                                                                                                                                                                      
00025103   O31E112510700025107201804130540100025107MPH173877/7961004687     0003LDAHV9DH6A                                                  00145000  0000000001254300000010        SEA.FMNL7961004687                                                                                                                
00025103   O31E912510700025107201804130540 00025107MPH173877/7961004687     0003                        00029474                                                                                                                                                                                                      
