00025103   O31A112510800025108201711280344100025108MST169941/7931003497         A  0002510300039130                                 L31790                              NCKE, MS. CHUI HONG, MICHELLE MI20171213        1N10003827420171224SEA.FLKGLIGHTING                                                       O   
00025103   O31A212510800025108201711280344100025108MST169941/7931003497         FOB0                              USD                                                        00039130201801100003913000039130SCMM                                        00038274                                                     
00025103   O31E112510800025108201711280344100025108MST169941/7931003497     0001LDAHV3DH6A                                                  00080000  000000000630340000001020180103SEA.FLKG7931003497                                                                                                                
00025103   O31E912510800025108201711280344 00025108MST169941/7931003497     0001                        00039130                                                                                                                                                                                                      
00025103   O31E112510800025108201711280344100025108MST169941/7931003497     0002LDAHV3LH6A                                                  00060000  000000000630340000001020180103SEA.FLKG7931003497                                                                                                                
00025103   O31E912510800025108201711280344 00025108MST169941/7931003497     0002                        00039130                                                                                                                                                                                                      
00025103   O31E112510800025108201711280344100025108MST169941/7931003497     0003LDAHV5DH6A                                                  00030000  000000000630340000001020180103SEA.FLKG7931003497                                                                                                                
00025103   O31E912510800025108201711280344 00025108MST169941/7931003497     0003                        00039130                                                                                                                                                                                                      
00025103   O31E112510800025108201711280344100025108MST169941/7931003497     0004LDAHV5LH6A                                                  00045000  000000000630340000001020180103SEA.FLKG7931003497                                                                                                                
00025103   O31E912510800025108201711280344 00025108MST169941/7931003497     0004                        00039130                                                                                                                                                                                                      
00025103   O31E112510800025108201711280344100025108MST169941/7931003497     0005LDAHV7DH6A                                                  00300000  000000000779240000001020180103SEA.FLKG7931003497                                                                                                                
00025103   O31E912510800025108201711280344 00025108MST169941/7931003497     0005                        00039130                                                                                                                                                                                                      
00025103   O31E112510800025108201711280344100025108MST169941/7931003497     0006LDAHV7LH6A                                                  00040000  000000000779240000001020180103SEA.FLKG7931003497                                                                                                                
00025103   O31E912510800025108201711280344 00025108MST169941/7931003497     0006                        00039130                                                                                                                                                                                                      
00025103   O31E112510800025108201711280344100025108MST169941/7931003497     0007LDAHV9LH6A                                                  00030000  000000001121440000001020180103SEA.FLKG7931003497                                                                                                                
00025103   O31E912510800025108201711280344 00025108MST169941/7931003497     0007                        00039130                                                                                                                                                                                                      
00025103   O31E112510800025108201711280344100025108MST169941/7931003497     0008LDS300D2N                                                   00003000  000000019743840000001020180103SEA.FLKG7931003497                                                                                                                
00025103   O31E912510800025108201711280344 00025108MST169941/7931003497     0008                        00039130                                                                                                                                                                                                      
00025103   O31A112510800025108201711280344100025108MST169952/7931003498         A  0002510300039130                                 S31790                              NCKE, MS. CHUI HONG, MICHELLE MI20171213        1N10003827420171224SEA.FLKGLIGHTING                                                       O   
00025103   O31A212510800025108201711280344100025108MST169952/7931003498         FOB0                              USD                                                        00039130201801100003913000039130SCMM                                        00038274                                                     
00025103   O31E112510800025108201711280344100025108MST169952/7931003498     0001EFDHV11D65T                                                 00029760  000000001223940000001020180103SEA.FLKG7931003498                                                                                                                
00025103   O31E912510800025108201711280344 00025108MST169952/7931003498     0001                        00039130                                                                                                                                                                                                      
00025103   O31E112510800025108201711280344100025108MST169952/7931003498     0002EFDHV15D65T1                                                00243840  000000001112740000001020180103SEA.FLKG7931003498                                                                                                                
00025103   O31E912510800025108201711280344 00025108MST169952/7931003498     0002                        00039130                                                                                                                                                                                                      
00025103   O31E112510800025108201711280344100025108MST169952/7931003498     0003EFDHV15L27T1                                                00049920  000000001112740000001020180103SEA.FLKG7931003498                                                                                                                
00025103   O31E912510800025108201711280344 00025108MST169952/7931003498     0003                        00039130                                                                                                                                                                                                      
00025103   O31E112510800025108201711280344100025108MST169952/7931003498     0004EFDHV20D65T1                                                00034560  000000001381940000001020180103SEA.FLKG7931003498                                                                                                                
00025103   O31E912510800025108201711280344 00025108MST169952/7931003498     0004                        00039130                                                                                                                                                                                                      
00025103   O31E112510800025108201711280344100025108MST169952/7931003498     0005EFDHV23D65T1                                                00018000  000000001381940000001020180103SEA.FLKG7931003498                                                                                                                
00025103   O31E912510800025108201711280344 00025108MST169952/7931003498     0005                        00039130                                                                                                                                                                                                      
00025103   O31E112510800025108201711280344100025108MST169952/7931003498     0006EFDHV25D65T                                                 01399680  000000000015220000001020180103SEA.FLKG7931003498                                                                                                                
00025103   O31E912510800025108201711280344 00025108MST169952/7931003498     0006                        00039130                                                                                                                                                                                                      
00025103   O31E112510800025108201711280344100025108MST169952/7931003498     0007EFDHV25L27T                                                 00048000  000000000015220000001020180103SEA.FLKG7931003498                                                                                                                
00025103   O31E912510800025108201711280344 00025108MST169952/7931003498     0007                        00039130                                                                                                                                                                                                      
00025103   O31E112510800025108201711280344100025108MST169952/7931003498     0008EFDHV32D65A                                                 00007920  000000002722140000001020180103SEA.FLKG7931003498                                                                                                                
00025103   O31E912510800025108201711280344 00025108MST169952/7931003498     0008                        00039130                                                                                                                                                                                                      
00025103   O31E112510800025108201711280344100025108MST169952/7931003498     0009EFDHV42D65A                                                 00004800  000000003013840000001020180103SEA.FLKG7931003498                                                                                                                
00025103   O31E912510800025108201711280344 00025108MST169952/7931003498     0009                        00039130                                                                                                                                                                                                      
00025103   O31E112510800025108201711280344100025108MST169952/7931003498     0010EFU11E652V                                                  00050000  000000001223440000001020180103SEA.FLKG7931003498                                                                                                                
00025103   O31E912510800025108201711280344 00025108MST169952/7931003498     0010                        00039130                                                                                                                                                                                                      
00025103   O31E112510800025108201711280344100025108MST169952/7931003498     0011EFU14E272V1                                                 00150000  000000001189640000001020180103SEA.FLKG7931003498                                                                                                                
00025103   O31E912510800025108201711280344 00025108MST169952/7931003498     0011                        00039130                                                                                                                                                                                                      
00025103   O31E112510800025108201711280344100025108MST169952/7931003498     0012EFU14E652V1                                                 00700000  000000001189640000001020180103SEA.FLKG7931003498                                                                                                                
00025103   O31E912510800025108201711280344 00025108MST169952/7931003498     0012                        00039130                                                                                                                                                                                                      
00025103   O31E112510800025108201711280344100025108MST169952/7931003498     0013EFU8E652V1                                                  00160000  000000001088340000001020180103SEA.FLKG7931003498                                                                                                                
00025103   O31E912510800025108201711280344 00025108MST169952/7931003498     0013                        00039130                                                                                                                                                                                                      
00025103   O31E112510800025108201711280344100025108MST169952/7931003498     0014EFUHV18D65A                                                 00680000  000000001342340000001020180103SEA.FLKG7931003498                                                                                                                
00025103   O31E912510800025108201711280344 00025108MST169952/7931003498     0014                        00039130                                                                                                                                                                                                      
00025103   O31E112510800025108201711280344100025108MST169952/7931003498     0015EFUHV18L27A                                                 00022000  000000001342340000001020180103SEA.FLKG7931003498                                                                                                                
00025103   O31E912510800025108201711280344 00025108MST169952/7931003498     0015                        00039130                                                                                                                                                                                                      
00025103   O31E112510800025108201711280344100025108MST169952/7931003498     0016EFUHV23D65A                                                 00045000  000000001411440000001020180103SEA.FLKG7931003498                                                                                                                
00025103   O31E912510800025108201711280344 00025108MST169952/7931003498     0016                        00039130                                                                                                                                                                                                      
00025103   O31E112510800025108201711280344100025108MST169952/7931003498     0017LDR400N                                                     00012000  000000032154740000001020180103SEA.FLKG7931003498                                                                                                                
00025103   O31E912510800025108201711280344 00025108MST169952/7931003498     0017                        00039130                                                                                                                                                                                                      
