12000I     O31A112511000025110201908261144100025110MMQ7901011978/7921008101       10002510300039140                                 L31790                              NNR01-SG                        20191010         N 0003827420190923SEA.FPKLLIGHTING                                                       O   
12000I     O31A212511000025110201908261144100025110MMQ7901011978/7921008101     FOB0                              USD                                                        00025103201910100002510300025103SCMM                                        00038274                                                     
12000I     O31A812511000025110201908261144100025110MMQ7901011978/7921008101     FOB                                                                                                                                                                                                                                   
12000I     O31E112511000025110201908261144100025110MMQ7901011978/7921008101 0010EFDHV23D65T1                                                00009600  000000000000120000001020191010SEA.FPKLMMQ7901011978/7921008101                                                                                                  
12000I     O31E912511000025110201908261144 00025110MMQ7901011978/7921008101 0010                        00025103                                                                                                                                                                                                      
12000I     O31E112511000025110201908261144100025110MMQ7901011978/7921008101 0020EFDHV25D65T1                                                00149760  000000000000120000001020191010SEA.FPKLMMQ7901011978/7921008101                                                                                                  
12000I     O31E912511000025110201908261144 00025110MMQ7901011978/7921008101 0020                        00025103                                                                                                                                                                                                      
12000I     O31E112511000025110201908261144100025110MMQ7901011978/7921008101 0030EFUHV18D65A3                                                00180000  000000000000120000001020191010SEA.FPKLMMQ7901011978/7921008101                                                                                                  
12000I     O31E912511000025110201908261144 00025110MMQ7901011978/7921008101 0030                        00025103                                                                                                                                                                                                      
12000I     O31E112511000025110201908261144100025110MMQ7901011978/7921008101 0040LDAHV11DH7A                                                 00020000  000000000001210000001020191010SEA.FPKLMMQ7901011978/7921008101                                                                                                  
12000I     O31E912511000025110201908261144 00025110MMQ7901011978/7921008101 0040                        00025103                                                                                                                                                                                                      
12000I     O31E112511000025110201908261144100025110MMQ7901011978/7921008101 0050LDAHV13DH7A                                                 00030000  000000000012520000001020191010SEA.FPKLMMQ7901011978/7921008101                                                                                                  
12000I     O31E912511000025110201908261144 00025110MMQ7901011978/7921008101 0050                        00025103                                                                                                                                                                                                      
12000I     O31E112511000025110201908261144100025110MMQ7901011978/7921008101 0060LDAHV15DH7A                                                 00020000  000000000001610000001020191010SEA.FPKLMMQ7901011978/7921008101                                                                                                  
12000I     O31E912511000025110201908261144 00025110MMQ7901011978/7921008101 0060                        00025103                                                                                                                                                                                                      
