00025103   O31A112511300025113201610311136100025113MNZ157644/P85325             A  0002510300029671                                 S31790ERASMUSJ                      NCKE, MS. CHUI HONG, MICHELLE MI20161115        1N10003827420161125SEA.FAKLLIGHTING                                                       O   
00025103   O31A212511300025113201610311136100025113MNZ157644/P85325             FOB0                              USD                                                                20161220                SCMM                                        00038274                                                     
00025103   O31E112511300025113201610311136100025113MNZ157644/P85325         0001LDAHV10DG4A1        LDAHV10DG4A1                            00005000  0000000024714400000010                                         ATP Auto Generate                                                                                
00025103   O31E112511300025113201610311136100025113MNZ157644/P85325         0002LDAHV10DG4BA        LDAHV10DG4BA                            00005000  0000000024714400000010                                         ATP Auto Generate                                                                                
00025103   O31E112511300025113201610311136100025113MNZ157644/P85325         0003LDAHV10LG4BA        LDAHV10LG4BA                            00005000  0000000024714400000010                                         ATP Auto Generate                                                                                
00025103   O31E112511300025113201610311136100025113MNZ157644/P85325         0004LDAHV7DG4A1         LDAHV7DG4A1                             00005000  0000000001717300000010                                         ATP Auto Generate                                                                                
00025103   O31E112511300025113201610311136100025113MNZ157644/P85325         0005LDAHV7DG4BA         LDAHV7DG4BA                             00015000  0000000001717300000010                                         ATP Auto Generate                                                                                
00025103   O31E112511300025113201610311136100025113MNZ157644/P85325         0006LDAHV7LG4BA         LDAHV7LG4BA                             00007500  0000000001717300000010                                         ATP Auto Generate                                                                                
00025103   O31E112511300025113201610311136100025113MNZ157644/P85325         0007LDAHV8DG4A1         LDAHV8DG4A1                             00005000  0000000021072400000010                                         ATP Auto Generate                                                                                
00025103   O31E112511300025113201610311136100025113MNZ157644/P85325         0008LDAHV8DG4BA         LDAHV8DG4BA                             00005000  0000000021072400000010                                         ATP Auto Generate                                                                                
00025103   O31E112511300025113201610311136100025113MNZ157644/P85325         0009LDAHV8LG4A1         LDAHV8LG4A1                             00005000  0000000021072400000010                                         ATP Auto Generate                                                                                
00025103   O31A112511300025113201610311136100025113MNZ157645/P85326             A  0002510300029671                                 S31790ERASMUSJ                      NCKE, MS. CHUI HONG, MICHELLE MI20161115        1N10003827420161125SEA.FAKLLIGHTING                                                       O   
00025103   O31A212511300025113201610311136100025113MNZ157645/P85326             FOB0                              USD                                                                20161220                SCMM                                        00038274                                                     
00025103   O31E112511300025113201610311136100025113MNZ157645/P85326         0001EFDHV15D65BE        EFDHV15D65BE                            00011520  0000000012239400000010                                         ATP Auto Generate                                                                                
00025103   O31E112511300025113201610311136100025113MNZ157645/P85326         0002EFDHV15D65E         EFDHV15D65E                             00011520  0000000012239400000010                                         ATP Auto Generate                                                                                
00025103   O31E112511300025113201610311136100025113MNZ157645/P85326         0003EFDHV15L27E         EFDHV15L27E                             00011520  0000000012239400000010                                         ATP Auto Generate                                                                                
00025103   O31E112511300025113201610311136100025113MNZ157645/P85326         0004EFDHV23L27BE        EFDHV23L27BE                            00011520  0000000000152200000010                                         ATP Auto Generate                                                                                
00025103   O31E112511300025113201610311136100025113MNZ157645/P85326         0005EFDHV23L27E         EFDHV23L27E                             00011520  0000000000152200000010                                         ATP Auto Generate                                                                                
