00025103   O31A112510700025107201710111235100025107MPH168406/7961003052         A  0002510300029474                                 L31790                              YCKE, MS. CHUI HONG, MICHELLE MI20171016        1N100038274        SEA.FMNLLIGHTING                                                       O   
00025103   O31A212510700025107201710111235100025107MPH168406/7961003052         FOB0                              USD                                                        00029474201711110002947400029474                                            00038274                                                     
00025103   O31E112510700025107201710111235100025107MPH168406/7961003052     0001LDAHV3DH6A                                                  00100000  0000000000759300000010        SEA.FMNL7961003052                                                                                                                
00025103   O31E912510700025107201710111235 00025107MPH168406/7961003052     0001                        00029474                                                                                                                                                                                                      
00025103   O31E112510700025107201710111235100025107MPH168406/7961003052     0002LDAHV7DH6A                                                  00100000  0000000000114200000010        SEA.FMNL7961003052                                                                                                                
00025103   O31E912510700025107201710111235 00025107MPH168406/7961003052     0002                        00029474                                                                                                                                                                                                      
00025103   O31E112510700025107201710111235100025107MPH168406/7961003052     0003LDAHV9DH6A                                                  00100000  0000000001254300000010        SEA.FMNL7961003052                                                                                                                
00025103   O31E912510700025107201710111235 00025107MPH168406/7961003052     0003                        00029474                                                                                                                                                                                                      
00025103   O31A112510700025107201710111235100025107MPH168407/7961003048         A  0002510300029474                                 L31790                              YCKE, MS. CHUI HONG, MICHELLE MI20171016        1N100038274        SEA.FMNLUA                                                             O   
00025103   O31A212510700025107201710111235100025107MPH168407/7961003048         FOB0                              USD                                                        00029474201710250002947400029474                                            00038274                                                     
00025103   O31E112510700025107201710111235100025107MPH168407/7961003048     0001LDAHV12DH5T                                                 00010000  0000000017385400000010        SEA.FMNL7961003048                                                                                                                
00025103   O31E912510700025107201710111235 00025107MPH168407/7961003048     0001                        00029474                                                                                                                                                                                                      
00025103   O31E112510700025107201710111235100025107MPH168407/7961003048     0002LDAHV15DH5T                                                 00010000  0000000025385400000010        SEA.FMNL7961003048                                                                                                                
00025103   O31E912510700025107201710111235 00025107MPH168407/7961003048     0002                        00029474                                                                                                                                                                                                      
