00025103   O31A112511300025113201606271134100025113MNZ153942/P83982             A  0002510300029671                                 S31790ERASMUSJ                      NCKE, MS. CHUI HONG, MICHELLE MI20160712        1N10003827420160724SEA.FAKLLIGHTING                                                       O   
00025103   O31A212511300025113201606271134100025113MNZ153942/P83982             FOB0                              USD                                                                20160820                SCMM                                        00038274                                                     
00025103   O31E112511300025113201606271134100025113MNZ153942/P83982         0001LDAHV8LG4BA         LDAHV8LG4BA                             00017500  0000000021072400000010                                         ATP Auto Generate                                                                                
00025103   O31A112511300025113201606271134100025113MNZ153944/P83984             A  0002510300029671                                 S31790ERASMUSJ                      NCKE, MS. CHUI HONG, MICHELLE MI20160712        1N10003827420160724SEA.FAKLLIGHTING                                                       O   
00025103   O31A212511300025113201606271134100025113MNZ153944/P83984             FOB0                              USD                                                                20160820                SCMM                                        00038274                                                     
00025103   O31E112511300025113201606271134100025113MNZ153944/P83984         0001EFDHV15D65BE        EFDHV15D65BE                            00024000  0000000012239400000010                                         ATP Auto Generate                                                                                
00025103   O31E112511300025113201606271134100025113MNZ153944/P83984         0002EFDHV15D65E         EFDHV15D65E                             00011520  0000000012239400000010                                         ATP Auto Generate                                                                                
00025103   O31E112511300025113201606271134100025113MNZ153944/P83984         0003EFDHV15L27BE        EFDHV15L27BE                            00011520  0000000012239400000010                                         ATP Auto Generate                                                                                
00025103   O31E112511300025113201606271134100025113MNZ153944/P83984         0004EFDHV15L27E         EFDHV15L27E                             00011520  0000000012239400000010                                         ATP Auto Generate                                                                                
00025103   O31E112511300025113201606271134100025113MNZ153944/P83984         0005EFDHV23D65BE        EFDHV23D65BE                            00024000  0000000000152200000010                                         ATP Auto Generate                                                                                
00025103   O31E112511300025113201606271134100025113MNZ153944/P83984         0006EFDHV23D65E         EFDHV23D65E                             00024000  0000000000152200000010                                         ATP Auto Generate                                                                                
00025103   O31E112511300025113201606271134100025113MNZ153944/P83984         0007EFDHV23L27BE        EFDHV23L27BE                            00024000  0000000000152200000010                                         ATP Auto Generate                                                                                
00025103   O31E112511300025113201606271134100025113MNZ153944/P83984         0008EFDHV23L27E         EFDHV23L27E                             00024000  0000000000152200000010                                         ATP Auto Generate                                                                                
00025103   O31A112511300025113201606271134100025113MNZ153945/P83983             A  0002510300029671                                 S31790ERASMUSJ                      NCKE, MS. CHUI HONG, MICHELLE MI20160712        1N10003827420160724SEA.FAKLLIGHTING                                                       O   
00025103   O31A212511300025113201606271134100025113MNZ153945/P83983             FOB0                              USD                                                                20160820                SCMM                                        00038274                                                     
00025103   O31E112511300025113201606271134100025113MNZ153945/P83983         0001LDAHV11DH3A2        LDAHV11DH3A2                            00012500  0000000032571400000010                                         ATP Auto Generate                                                                                
00025103   O31E112511300025113201606271134100025113MNZ153945/P83983         0002LDAHV11DH3BA2       LDAHV11DH3BA2                           00015000  0000000032571400000010                                         ATP Auto Generate                                                                                
00025103   O31E112511300025113201606271134100025113MNZ153945/P83983         0003LDAHV11LH3A2        LDAHV11LH3A2                            00015000  0000000032571400000010                                         ATP Auto Generate                                                                                
00025103   O31E112511300025113201606271134100025113MNZ153945/P83983         0004LDAHV11LH3BA2       LDAHV11LH3BA2                           00015000  0000000032571400000010                                         ATP Auto Generate                                                                                
00025103   O31E112511300025113201606271134100025113MNZ153945/P83983         0005LDAHV7DG4A1         LDAHV7DG4A1                             00017500  0000000001717300000010                                         ATP Auto Generate                                                                                
00025103   O31E112511300025113201606271134100025113MNZ153945/P83983         0006LDAHV7DG4BA         LDAHV7DG4BA                             00015000  0000000001717300000010                                         ATP Auto Generate                                                                                
00025103   O31E112511300025113201606271134100025113MNZ153945/P83983         0007LDAHV7LG4A1         LDAHV7LG4A1                             00015000  0000000001717300000010                                         ATP Auto Generate                                                                                
00025103   O31E112511300025113201606271134100025113MNZ153945/P83983         0008LDAHV7LG4BA         LDAHV7LG4BA                             00017500  0000000001717300000010                                         ATP Auto Generate                                                                                
00025103   O31E112511300025113201606271134100025113MNZ153945/P83983         0009LDAHV8DG4A1         LDAHV8DG4A1                             00017500  0000000021072400000010                                         ATP Auto Generate                                                                                
00025103   O31E112511300025113201606271134100025113MNZ153945/P83983         0010LDAHV8DG4BA         LDAHV8DG4BA                             00015000  0000000021072400000010                                         ATP Auto Generate                                                                                
00025103   O31E112511300025113201606271134100025113MNZ153945/P83983         0011LDAHV8LG4A1         LDAHV8LG4A1                             00017500  0000000021072400000010                                         ATP Auto Generate                                                                                
