12000I     O31A112510700025107201902041741100025107MPH7901006289/7961006715       10002510300029474                                 L31790                              YNR01-SG                        20190316         N 0003827420190212SEA.FMNLLIGHTING                                                       O   
12000I     O31A212510700025107201902041741100025107MPH7901006289/7961006715     FOB0                              USD                                                        00025103201903160002510300025103                                            00038274                                                     
12000I     O31A812510700025107201902041741100025107MPH7901006289/7961006715     FOB                                                                                                                                                                                                                                   
12000I     O31E112510700025107201902041741100025107MPH7901006289/7961006715 0010EFDHV25D65A                                                 00025000  000000000000120000001020190316SEA.FMNLMPH7901006289/7961006715                                                                                                  
12000I     O31E912510700025107201902041741 00025107MPH7901006289/7961006715 0010                        00025103                                                                                                                                                                                                      
