00025103   O31A112511000025110201804111109100025110MMQ173836/7921003386         A  0002510300039140                                 S31790                              YCKE, MS. CHUI HONG, MICHELLE MI20180416        1N10003827420180522SEA.FPKLUA                                                             O   
00025103   O31A212511000025110201804111109100025110MMQ173836/7921003386         FOB0                              USD                                                        00039140201806140003914000039140                                            00038274                                                     
00025103   O31E112511000025110201804111109100025110MMQ173836/7921003386     0001LDAHV13DH7A                                                 00100000  0000000000142200000010        SEA.FPKL7921003386                                                                                                                
00025103   O31E912511000025110201804111109 00025110MMQ173836/7921003386     0001                        00039140                                                                                                                                                                                                      
00025103   O31E112511000025110201804111109100025110MMQ173836/7921003386     0002LDAHV13LH7A                                                 00010000  0000000000142200000010        SEA.FPKL7921003386                                                                                                                
00025103   O31E912511000025110201804111109 00025110MMQ173836/7921003386     0002                        00039140                                                                                                                                                                                                      
00025103   O31E112511000025110201804111109100025110MMQ173836/7921003386     0003LDAHV15DH7A                                                 00100000  0000000000184200000010        SEA.FPKL7921003386                                                                                                                
00025103   O31E912511000025110201804111109 00025110MMQ173836/7921003386     0003                        00039140                                                                                                                                                                                                      
00025103   O31E112511000025110201804111109100025110MMQ173836/7921003386     0004LDAHV15LH7A                                                 00010000  0000000000184200000010        SEA.FPKL7921003386                                                                                                                
00025103   O31E912511000025110201804111109 00025110MMQ173836/7921003386     0004                        00039140                                                                                                                                                                                                      
