00025103   O31A112510800025108201608221036100025108MST155534/7931000481         A  0002510300039130                                 L31790                              YCKE, MS. CHUI HONG, MICHELLE MI20160827        1N10003827420160914SEA.FLKGLIGHTING                                                       O   
00025103   O31A212510800025108201608221036100025108MST155534/7931000481         FOB0                              USD                                                        00039130201610020003913000039130                                            00038274                                                     
00025103   O31E112510800025108201608221036100025108MST155534/7931000481     0001LDAHV3DH6A                                                  00020000  0000000007882400000010        SEA.FLKG7931000481                                                                                                                
00025103   O31E912510800025108201608221036 00025108MST155534/7931000481     0001                        00039130                                                                                                                                                                                                      
00025103   O31E112510800025108201608221036100025108MST155534/7931000481     0002LDAHV3LH6A                                                  00030000  0000000007882400000010        SEA.FLKG7931000481                                                                                                                
00025103   O31E912510800025108201608221036 00025108MST155534/7931000481     0002                        00039130                                                                                                                                                                                                      
