00025103   O31A112510800025108201806260848100025108MST176087/7931004788         A  0002510300039130                                 S31790                              NCKE, MS. CHUI HONG, MICHELLE MI20180711        1N10003827420180813SEA.FLKGLIGHTING                                                       O   
00025103   O31A212510800025108201806260848100025108MST176087/7931004788         FOB0                              USD                                                        00039130201808310003913000039130SCMM                                        00038274                                                     
00025103   O31E112510800025108201806260848100025108MST176087/7931004788     0001LDR400N                                                     00003000  000000032154740000001020180824SEA.FLKG7931004788                                                                                                                
00025103   O31E912510800025108201806260848 00025108MST176087/7931004788     0001                        00039130                                                                                                                                                                                                      
00025103   O31A112510800025108201806260848100025108MST176096/7931004767         A  0002510300039130                                 L31790                              NCKE, MS. CHUI HONG, MICHELLE MI20180711        1N10003827420180725SEA.FLKGLIGHTING                                                       O   
00025103   O31A212510800025108201806260848100025108MST176096/7931004767         FOB0                              USD                                                        00039130201808100003913000039130SCMM                                        00038274                                                     
00025103   O31E112510800025108201806260848100025108MST176096/7931004767     0001LDS300D2N                                                   00002500  000000019743840000001020180803SEA.FLKG7931004767                                                                                                                
00025103   O31E912510800025108201806260848 00025108MST176096/7931004767     0001                        00039130                                                                                                                                                                                                      
00025103   O31A112510800025108201806260848100025108MST176098/7931004768         A  0002510300039130                                 S31790                              NCKE, MS. CHUI HONG, MICHELLE MI20180711        1N10003827420180725SEA.FLKGLIGHTING                                                       O   
00025103   O31A212510800025108201806260848100025108MST176098/7931004768         FOB0                              USD                                                        00039130201808100003913000039130SCMM                                        00038274                                                     
00025103   O31E112510800025108201806260848100025108MST176098/7931004768     0001EFDHV11D65T                                                 00019200  000000001223940000001020180803SEA.FLKG7931004768                                                                                                                
00025103   O31E912510800025108201806260848 00025108MST176098/7931004768     0001                        00039130                                                                                                                                                                                                      
00025103   O31E112510800025108201806260848100025108MST176098/7931004768     0002EFDHV15D65T1                                                00148800  000000001112740000001020180803SEA.FLKG7931004768                                                                                                                
00025103   O31E912510800025108201806260848 00025108MST176098/7931004768     0002                        00039130                                                                                                                                                                                                      
00025103   O31E112510800025108201806260848100025108MST176098/7931004768     0003EFDHV15L27T1                                                00049920  000000001112740000001020180803SEA.FLKG7931004768                                                                                                                
00025103   O31E912510800025108201806260848 00025108MST176098/7931004768     0003                        00039130                                                                                                                                                                                                      
00025103   O31E112510800025108201806260848100025108MST176098/7931004768     0004EFDHV20D65T1                                                00030720  000000001381940000001020180803SEA.FLKG7931004768                                                                                                                
00025103   O31E912510800025108201806260848 00025108MST176098/7931004768     0004                        00039130                                                                                                                                                                                                      
00025103   O31E112510800025108201806260848100025108MST176098/7931004768     0005EFDHV23D65T1                                                00031680  000000001381940000001020180803SEA.FLKG7931004768                                                                                                                
00025103   O31E912510800025108201806260848 00025108MST176098/7931004768     0005                        00039130                                                                                                                                                                                                      
00025103   O31E112510800025108201806260848100025108MST176098/7931004768     0006EFDHV25D65T                                                 02198400  000000000014820000001020180803SEA.FLKG7931004768                                                                                                                
00025103   O31E912510800025108201806260848 00025108MST176098/7931004768     0006                        00039130                                                                                                                                                                                                      
00025103   O31E112510800025108201806260848100025108MST176098/7931004768     0007EFDHV25L27T                                                 00034560  000000000014820000001020180803SEA.FLKG7931004768                                                                                                                
00025103   O31E912510800025108201806260848 00025108MST176098/7931004768     0007                        00039130                                                                                                                                                                                                      
00025103   O31E112510800025108201806260848100025108MST176098/7931004768     0008EFDHV32D65A                                                 00017760  000000002722140000001020180803SEA.FLKG7931004768                                                                                                                
00025103   O31E912510800025108201806260848 00025108MST176098/7931004768     0008                        00039130                                                                                                                                                                                                      
00025103   O31E112510800025108201806260848100025108MST176098/7931004768     0009EFDHV42D65A                                                 00027840  000000003013840000001020180803SEA.FLKG7931004768                                                                                                                
00025103   O31E912510800025108201806260848 00025108MST176098/7931004768     0009                        00039130                                                                                                                                                                                                      
00025103   O31E112510800025108201806260848100025108MST176098/7931004768     0010EFU11E652V                                                  00042000  000000001223440000001020180803SEA.FLKG7931004768                                                                                                                
00025103   O31E912510800025108201806260848 00025108MST176098/7931004768     0010                        00039130                                                                                                                                                                                                      
00025103   O31E112510800025108201806260848100025108MST176098/7931004768     0011EFU14E272V1                                                 00095000  000000001189640000001020180803SEA.FLKG7931004768                                                                                                                
00025103   O31E912510800025108201806260848 00025108MST176098/7931004768     0011                        00039130                                                                                                                                                                                                      
00025103   O31E112510800025108201806260848100025108MST176098/7931004768     0012EFU14E652V1                                                 00500000  000000001189640000001020180803SEA.FLKG7931004768                                                                                                                
00025103   O31E912510800025108201806260848 00025108MST176098/7931004768     0012                        00039130                                                                                                                                                                                                      
00025103   O31E112510800025108201806260848100025108MST176098/7931004768     0013EFU8E652V1                                                  00080000  000000001088340000001020180803SEA.FLKG7931004768                                                                                                                
00025103   O31E912510800025108201806260848 00025108MST176098/7931004768     0013                        00039130                                                                                                                                                                                                      
00025103   O31E112510800025108201806260848100025108MST176098/7931004768     0014EFUHV18D65A                                                 00150000  000000001342340000001020180803SEA.FLKG7931004768                                                                                                                
00025103   O31E912510800025108201806260848 00025108MST176098/7931004768     0014                        00039130                                                                                                                                                                                                      
00025103   O31E112510800025108201806260848100025108MST176098/7931004768     0015EFUHV18L27A                                                 00017000  000000001342340000001020180803SEA.FLKG7931004768                                                                                                                
00025103   O31E912510800025108201806260848 00025108MST176098/7931004768     0015                        00039130                                                                                                                                                                                                      
00025103   O31E112510800025108201806260848100025108MST176098/7931004768     0016EFUHV23D65A                                                 00065000  000000001411440000001020180803SEA.FLKG7931004768                                                                                                                
00025103   O31E912510800025108201806260848 00025108MST176098/7931004768     0016                        00039130                                                                                                                                                                                                      
00025103   O31E112510800025108201806260848100025108MST176098/7931004768     0017LDR400N                                                     00003000  000000032154740000001020180803SEA.FLKG7931004768                                                                                                                
00025103   O31E912510800025108201806260848 00025108MST176098/7931004768     0017                        00039130                                                                                                                                                                                                      
