00025103   O31A112510800025108201608280110100025108MST155601/7931000524         A  0002510300039130                                 S31790                              NCKE, MS. CHUI HONG, MICHELLE MI20160912        1N10003827420161010SEA.FLKGLIGHTING                                                       O   
00025103   O31A212510800025108201608280110100025108MST155601/7931000524         FOB0                              USD                                                        00039130201610280003913000039130SCMM                                        00038274                                                     
00025103   O31E112510800025108201608280110100025108MST155601/7931000524     0001LDR400N                                                     00004600  0000000003535200000010        SEA.FLKG7931000524                                                                                                                
00025103   O31E912510800025108201608280110 00025108MST155601/7931000524     0001                        00039130                                                                                                                                                                                                      
00025103   O31A112510800025108201608280110100025108MST155602/7931000523         A  0002510300039130                                 S31790                              NCKE, MS. CHUI HONG, MICHELLE MI20160912        1N10003827420160923SEA.FLKGLIGHTING                                                       O   
00025103   O31A212510800025108201608280110100025108MST155602/7931000523         FOB0                              USD                                                        00039130201610100003913000039130SCMM                                        00038274                                                     
00025103   O31E112510800025108201608280110100025108MST155602/7931000523     0001EFDHV25L27T                                                 00030240  0000000000152200000010        SEA.FLKG7931000523                                                                                                                
00025103   O31E912510800025108201608280110 00025108MST155602/7931000523     0001                        00039130                                                                                                                                                                                                      
00025103   O31E112510800025108201608280110100025108MST155602/7931000523     0002EFU11E652V                                                  00010000  0000000012234400000010        SEA.FLKG7931000523                                                                                                                
00025103   O31E912510800025108201608280110 00025108MST155602/7931000523     0002                        00039130                                                                                                                                                                                                      
00025103   O31E112510800025108201608280110100025108MST155602/7931000523     0003EFUHV18D65A                                                 00300000  0000000013423400000010        SEA.FLKG7931000523                                                                                                                
00025103   O31E912510800025108201608280110 00025108MST155602/7931000523     0003                        00039130                                                                                                                                                                                                      
00025103   O31E112510800025108201608280110100025108MST155602/7931000523     0004LDAHV12DG4A                                                 00041000  0000000029136400000010        SEA.FLKG7931000523                                                                                                                
00025103   O31E912510800025108201608280110 00025108MST155602/7931000523     0004                        00039130                                                                                                                                                                                                      
00025103   O31E112510800025108201608280110100025108MST155602/7931000523     0005LDAHV12LG4A                                                 00019000  0000000029136400000010        SEA.FLKG7931000523                                                                                                                
00025103   O31E912510800025108201608280110 00025108MST155602/7931000523     0005                        00039130                                                                                                                                                                                                      
00025103   O31E112510800025108201608280110100025108MST155602/7931000523     0006LDAHV4LG4A                                                  00009000  0000000011021400000010        SEA.FLKG7931000523                                                                                                                
00025103   O31E912510800025108201608280110 00025108MST155602/7931000523     0006                        00039130                                                                                                                                                                                                      
00025103   O31E112510800025108201608280110100025108MST155602/7931000523     0007LDR400N                                                     00005400  0000000003535200000010        SEA.FLKG7931000523                                                                                                                
00025103   O31E912510800025108201608280110 00025108MST155602/7931000523     0007                        00039130                                                                                                                                                                                                      
