00025103   O31A112510800025108201702201239100025108MST160713/7931001710         A  0002510300039130                                 S31790                              YCKE, MS. CHUI HONG, MICHELLE MI20170225        1N10003827420170308SEA.FLKGLIGHTING                                                       O   
00025103   O31A212510800025108201702201239100025108MST160713/7931001710         FOB0                              USD                                                        00039130201703260003913000039130                                            00038274                                                     
00025103   O31E112510800025108201702201239100025108MST160713/7931001710     0001EFU11E272V                                                  00010000  0000000012234400000010        SEA.FLKG7931001710                                                                                                                
00025103   O31E912510800025108201702201239 00025108MST160713/7931001710     0001                        00039130                                                                                                                                                                                                      
00025103   O31E112510800025108201702201239100025108MST160713/7931001710     0002EFU11E652V                                                  00008000  0000000012234400000010        SEA.FLKG7931001710                                                                                                                
00025103   O31E912510800025108201702201239 00025108MST160713/7931001710     0002                        00039130                                                                                                                                                                                                      
00025103   O31E112510800025108201702201239100025108MST160713/7931001710     0003EFU14E652V1                                                 00141000  0000000011896400000010        SEA.FLKG7931001710                                                                                                                
00025103   O31E912510800025108201702201239 00025108MST160713/7931001710     0003                        00039130                                                                                                                                                                                                      
00025103   O31E112510800025108201702201239100025108MST160713/7931001710     0004EFU8E272V                                                   00010000  0000000011971400000010        SEA.FLKG7931001710                                                                                                                
00025103   O31E912510800025108201702201239 00025108MST160713/7931001710     0004                        00039130                                                                                                                                                                                                      
