00025103   O31A112510800025108201708311038100025108MST167276/7931002993         A  0002510300039130                                 S31790                              YCKE, MS. CHUI HONG, MICHELLE MI20170905        1N10003827420170915SEA.FLKGLIGHTING                                                       O   
00025103   O31A212510800025108201708311038100025108MST167276/7931002993         FOB0                              USD                                                        00039130201710030003913000039130                                            00038274                                                     
00025103   O31E112510800025108201708311038100025108MST167276/7931002993     0001LDR400N                                                     00007000  000000000353520000001020170926SEA.FLKG7931002993                                                                                                                
00025103   O31E912510800025108201708311038 00025108MST167276/7931002993     0001                        00039130                                                                                                                                                                                                      
00025103   O31A112510800025108201708311145100025108MST167280/7931002994         A  0002510300039130                                 L31790                              YCKE, MS. CHUI HONG, MICHELLE MI20170905        1N100038274        SEA.FLKGLIGHTING                                                       O   
00025103   O31A212510800025108201708311145100025108MST167280/7931002994         FOB0                              USD                                                        00039130201709150003913000039130                                            00038274                                                     
00025103   O31E112510800025108201708311145100025108MST167280/7931002994     0001LDAHV12DH5T                                                 00055000  000000001327140000001020170908SEA.FLKG7931002994                                                                                                                
00025103   O31E912510800025108201708311145 00025108MST167280/7931002994     0001                        00039130                                                                                                                                                                                                      
00025103   O31E112510800025108201708311145100025108MST167280/7931002994     0002LDAHV15DH5T                                                 00015000  000000001775940000001020170908SEA.FLKG7931002994                                                                                                                
00025103   O31E912510800025108201708311145 00025108MST167280/7931002994     0002                        00039130                                                                                                                                                                                                      
00025103   O31E112510800025108201708311145100025108MST167280/7931002994     0003LDAHV5LH6A                                                  00030000  000000000630340000001020170908SEA.FLKG7931002994                                                                                                                
00025103   O31E912510800025108201708311145 00025108MST167280/7931002994     0003                        00039130                                                                                                                                                                                                      
00025103   O31A112510800025108201708311145100025108MST167285/7931002995         A  0002510300039130                                 S31790                              YCKE, MS. CHUI HONG, MICHELLE MI20170905        1N100038274        SEA.FLKGLIGHTING                                                       O   
00025103   O31A212510800025108201708311145100025108MST167285/7931002995         FOB0                              USD                                                        00039130201709150003913000039130                                            00038274                                                     
00025103   O31E112510800025108201708311145100025108MST167285/7931002995     0001EFDHV15L27T1                                                00045000  000000001112740000001020170908SEA.FLKG7931002995                                                                                                                
00025103   O31E912510800025108201708311145 00025108MST167285/7931002995     0001                        00039130                                                                                                                                                                                                      
