00025103   O31A112510700025107201610191136100025107MPH157418/7961000389         A  0002510300029474                                 L31790                              YCKE, MS. CHUI HONG, MICHELLE MI20161024        1N100038274        SEA.FMNLLIGHTING                                                       O   
00025103   O31A212510700025107201610191136100025107MPH157418/7961000389         FOB0                              USD                                                        00029474201611160002947400029474                                            00038274                                                     
00025103   O31E112510700025107201610191136100025107MPH157418/7961000389     0001EFDHV20D65A                                                 00107520  0000000014364400000010        SEA.FMNL7961000389                                                                                                                
00025103   O31E912510700025107201610191136 00025107MPH157418/7961000389     0001                        00029474                                                                                                                                                                                                      
00025103   O31E112510700025107201610191136100025107MPH157418/7961000389     0002EFDHV25D65A                                                 00107520  0000000016473400000010        SEA.FMNL7961000389                                                                                                                
00025103   O31E912510700025107201610191136 00025107MPH157418/7961000389     0002                        00029474                                                                                                                                                                                                      
00025103   O31E112510700025107201610191136100025107MPH157418/7961000389     0003EFUHV11D65A                                                 00120000  0000000009574400000010        SEA.FMNL7961000389                                                                                                                
00025103   O31E912510700025107201610191136 00025107MPH157418/7961000389     0003                        00029474                                                                                                                                                                                                      
00025103   O31E112510700025107201610191136100025107MPH157418/7961000389     0004EFUHV18D65A3                                                00120000  0000000014213400000010        SEA.FMNL7961000389                                                                                                                
00025103   O31E912510700025107201610191136 00025107MPH157418/7961000389     0004                        00029474                                                                                                                                                                                                      
00025103   O31E112510700025107201610191136100025107MPH157418/7961000389     0005EFUHV23D65A3                                                00020000  0000000015169400000010        SEA.FMNL7961000389                                                                                                                
00025103   O31E912510700025107201610191136 00025107MPH157418/7961000389     0005                        00029474                                                                                                                                                                                                      
00025103   O31E112510700025107201610191136100025107MPH157418/7961000389     0006EFUHV23L27A3                                                00020000  0000000015169400000010        SEA.FMNL7961000389                                                                                                                
00025103   O31E912510700025107201610191136 00025107MPH157418/7961000389     0006                        00029474                                                                                                                                                                                                      
00025103   O31E112510700025107201610191136100025107MPH157418/7961000389     0007EFUHV8D65A                                                  00120000  0000000009574400000010        SEA.FMNL7961000389                                                                                                                
00025103   O31E912510700025107201610191136 00025107MPH157418/7961000389     0007                        00029474                                                                                                                                                                                                      
