00025103   O31A112511100025111201606280642100025111MSP154304/DD5555-235350      A  0002510300029073                                 L31790                              NCKE, MS. CHUI HONG, MICHELLE MI20160713        1N10003827420160724SEA.FSINLIGHTING                                                       O   
00025103   O31A212511100025111201606280642100025111MSP154304/DD5555-235350      FOB0                              USD                                                                20160810                SCMM                                        00038274                                                     
00025103   O31E112511100025111201606280642100025111MSP154304/DD5555-235350  0001EFU11E272V          EFU11E272V                              00003000  0000000011863400000010                DD5555-235350                                                                                                             
00025103   O31E112511100025111201606280642100025111MSP154304/DD5555-235350  0002EFU11E652V          EFU11E652V                              00003000  0000000011863400000010                DD5555-235350                                                                                                             
00025103   O31E112511100025111201606280642100025111MSP154304/DD5555-235350  0003EFU18E652V          EFU18E652V                              00003000  0000000013553400000010                DD5555-235350                                                                                                             
00025103   O31E112511100025111201606280642100025111MSP154304/DD5555-235350  0004EFU8E652V           EFU8E652V                               00002000  0000000011608400000010                DD5555-235350                                                                                                             
