00025103   O31A112511000025110201708280344100025110MMQ166809/7921001356         A  0002510300039140                                 S31790                              NCKE, MS. CHUI HONG, MICHELLE MI20170912        1N10003827420170923SEA.FPKLLIGHTING                                                       O   
00025103   O31A212511000025110201708280344100025110MMQ166809/7921001356         FOB0                              USD                                                        00039140201710100003914000039140SCMM                                        00038274                                                     
00025103   O31E112511000025110201708280344100025110MMQ166809/7921001356     0001EFDHV25D65T1                                                00149760  0000000014381400000010        SEA.FPKL7921001356                                                                                                                
00025103   O31E912511000025110201708280344 00025110MMQ166809/7921001356     0001                        00039140                                                                                                                                                                                                      
00025103   O31E112511000025110201708280344100025110MMQ166809/7921001356     0002EFDHV25L27T1                                                00024000  0000000014381400000010        SEA.FPKL7921001356                                                                                                                
00025103   O31E912511000025110201708280344 00025110MMQ166809/7921001356     0002                        00039140                                                                                                                                                                                                      
00025103   O31E112511000025110201708280344100025110MMQ166809/7921001356     0003EFUHV18D65A3                                                00900000  0000000010408400000010        SEA.FPKL7921001356                                                                                                                
00025103   O31E912511000025110201708280344 00025110MMQ166809/7921001356     0003                        00039140                                                                                                                                                                                                      
00025103   O31E112511000025110201708280344100025110MMQ166809/7921001356     0004LDAHV8DG4M                                                  00020000  0000000014665400000010        SEA.FPKL7921001356                                                                                                                
00025103   O31E912511000025110201708280344 00025110MMQ166809/7921001356     0004                        00039140                                                                                                                                                                                                      
