00025103   O31A112510800025108201609121035100025108MST156340/7931000610         A  0002510300039130                                 S31790                              YCKE, MS. CHUI HONG, MICHELLE MI20160917        1N10003827420160913SEA.FLKGLIGHTING                                                       O   
00025103   O31A212510800025108201609121035100025108MST156340/7931000610         FOB0                              USD                                                        00039130201610010003913000039130                                            00038274                                                     
00025103   O31E112510800025108201609121035100025108MST156340/7931000610     0001LDAHV7DG4A                                                  00100000  0000000013892400000010        SEA.FLKG7931000610                                                                                                                
00025103   O31E912510800025108201609121035 00025108MST156340/7931000610     0001                        00039130                                                                                                                                                                                                      
00025103   O31A112510800025108201609121035100025108MST156341/7931000611         A  0002510300039130                                 L31790                              YCKE, MS. CHUI HONG, MICHELLE MI20160917        1N10003827420161014SEA.FLKGLIGHTING                                                       O   
00025103   O31A212510800025108201609121035100025108MST156341/7931000611         FOB0                              USD                                                        00039130201611010003913000039130                                            00038274                                                     
00025103   O31E112510800025108201609121035100025108MST156341/7931000611     0001LDAHV3LH6A                                                  00050000  0000000007882400000010        SEA.FLKG7931000611                                                                                                                
00025103   O31E912510800025108201609121035 00025108MST156341/7931000611     0001                        00039130                                                                                                                                                                                                      
00025103   O31E112510800025108201609121035100025108MST156341/7931000611     0002LDAHV7DH6A                                                  00250000  0000000012113400000010        SEA.FLKG7931000611                                                                                                                
00025103   O31E912510800025108201609121035 00025108MST156341/7931000611     0002                        00039130                                                                                                                                                                                                      
