12000I     O31A112510700025107201904121540100025107MPH7901008142/7961007241       10002510300029474                                 L31790                              YNR01-SG                        20190427         N 00038274        SEA.FMNLLIGHTING                                                       O   
12000I     O31A212510700025107201904121540100025107MPH7901008142/7961007241     FOB0                              USD                                                        00025103201904270002510300025103                                            00038274                                                     
12000I     O31A812510700025107201904121540100025107MPH7901008142/7961007241     FOB                                                                                                                                                                                                                                   
12000I     O31E112510700025107201904121540100025107MPH7901008142/7961007241 0010LDR400N                                                     00000500  000000000003500000001020190427SEA.FMNLMPH7901008142/7961007241                                                                                                  
12000I     O31E912510700025107201904121540 00025107MPH7901008142/7961007241 0010                        00025103                                                                                                                                                                                                      
