12000I     O31A112510800025108201904172207100025108MST7901008214/7931006410       10002510300039130                                 L31790                              YNR01-SG                        20190509         N 0003827420190421SEA.FLKGLIGHTING                                                       O   
12000I     O31A212510800025108201904172207100025108MST7901008214/7931006410     FOB0                              USD                                                        00025103201905090002510300025103                                            00038274                                                     
12000I     O31A812510800025108201904172207100025108MST7901008214/7931006410     FOB                                                                                                                                                                                                                                   
12000I     O31E112510800025108201904172207100025108MST7901008214/7931006410 0010EFDHV20L27T1                                                00004800  000000000000120000001020190509SEA.FLKGMST7901008214/7931006410                                                                                                  
12000I     O31E912510800025108201904172207 00025108MST7901008214/7931006410 0010                        00025103                                                                                                                                                                                                      
