00025103   O31A112510500025105201609161034100025105MSV156377/7951000019         A  0002510300027496                                 L31790                              YCKE, MS. CHUI HONG, MICHELLE MI20160921        1N100038274        SEA.FHIFLIGHTING                                                       O   
00025103   O31A212510500025105201609161034100025105MSV156377/7951000019         FOB0                              USD                                                        00027496201609300002749600027496                                            00038274                                                     
00025103   O31E112510500025105201609161034100025105MSV156377/7951000019     0001LDAHV12DG4A2                                                00005000  0000000000036100000010        SEA.FHIF7951000019                                                                                                                
00025103   O31E912510500025105201609161034 00025105MSV156377/7951000019     0001                        00027496                                                                                                                                                                                                      
00025103   O31E112510500025105201609161034100025105MSV156377/7951000019     0002LDAHV12LG4A2                                                00005000  0000000000036100000010        SEA.FHIF7951000019                                                                                                                
00025103   O31E912510500025105201609161034 00025105MSV156377/7951000019     0002                        00027496                                                                                                                                                                                                      
00025103   O31E112510500025105201609161034100025105MSV156377/7951000019     0003LDAHV4DG4A2                                                 00010000  0000000001744300000010        SEA.FHIF7951000019                                                                                                                
00025103   O31E912510500025105201609161034 00025105MSV156377/7951000019     0003                        00027496                                                                                                                                                                                                      
00025103   O31E112510500025105201609161034100025105MSV156377/7951000019     0004LDAHV4LG4A2                                                 00005000  0000000001744300000010        SEA.FHIF7951000019                                                                                                                
00025103   O31E912510500025105201609161034 00025105MSV156377/7951000019     0004                        00027496                                                                                                                                                                                                      
00025103   O31E112510500025105201609161034100025105MSV156377/7951000019     0005LDAHV7DG4A2                                                 00010000  0000000000216200000010        SEA.FHIF7951000019                                                                                                                
00025103   O31E912510500025105201609161034 00025105MSV156377/7951000019     0005                        00027496                                                                                                                                                                                                      
00025103   O31E112510500025105201609161034100025105MSV156377/7951000019     0006LDAHV7LG4A2                                                 00005000  0000000000216200000010        SEA.FHIF7951000019                                                                                                                
00025103   O31E912510500025105201609161034 00025105MSV156377/7951000019     0006                        00027496                                                                                                                                                                                                      
00025103   O31E112510500025105201609161034100025105MSV156377/7951000019     0007LDAHV8DG4A2                                                 00010000  0000000000027100000010        SEA.FHIF7951000019                                                                                                                
00025103   O31E912510500025105201609161034 00025105MSV156377/7951000019     0007                        00027496                                                                                                                                                                                                      
00025103   O31E112510500025105201609161034100025105MSV156377/7951000019     0008LDAHV8LG4A2                                                 00005000  0000000000027100000010        SEA.FHIF7951000019                                                                                                                
00025103   O31E912510500025105201609161034 00025105MSV156377/7951000019     0008                        00027496                                                                                                                                                                                                      
