12000I     O31A112510700025107201907091140100025107MPH7901010751/7961007949       10002510300029474                                 L31790                              YNR01-SG                        20190805         N 00038274        SEA.FMNLLIGHTING                                                       O   
12000I     O31A212510700025107201907091140100025107MPH7901010751/7961007949     FOB0                              USD                                                        00025103201908050002510300025103                                            00038274                                                     
12000I     O31A812510700025107201907091140100025107MPH7901010751/7961007949     FOB                                                                                                                                                                                                                                   
12000I     O31E112510700025107201907091140100025107MPH7901010751/7961007949 0010EFDHV25D65A                                                 00000960  000000000000120000001020190805SEA.FMNLMPH7901010751/7961007949                                                                                                  
12000I     O31E912510700025107201907091140 00025107MPH7901010751/7961007949 0010                        00025103                                                                                                                                                                                                      
