00025103   O31A112510800025108201704290337100025108MST162821/7931002179         A  0002510300039130                                 L31790                              NCKE, MS. CHUI HONG, MICHELLE MI20170514        1N10003827420170525SEA.FLKGLIGHTING                                                       O   
00025103   O31A212510800025108201704290337100025108MST162821/7931002179         FOB0                              USD                                                        00039130201706100003913000039130SCMM                                        00038274                                                     
00025103   O31E112510800025108201704290337100025108MST162821/7931002179     0001LDAHV7DH6A                                                  00540000  000000000100630000001020170603SEA.FLKG7931002179                                                                                                                
00025103   O31E912510800025108201704290337 00025108MST162821/7931002179     0001                        00039130                                                                                                                                                                                                      
00025103   O31E112510800025108201704290337100025108MST162821/7931002179     0002LDAHV7LH6A                                                  00090000  000000000100630000001020170603SEA.FLKG7931002179                                                                                                                
00025103   O31E912510800025108201704290337 00025108MST162821/7931002179     0002                        00039130                                                                                                                                                                                                      
00025103   O31E112510800025108201704290337100025108MST162821/7931002179     0003LDAHV9DH6A                                                  00200000  000000000147530000001020170603SEA.FLKG7931002179                                                                                                                
00025103   O31E912510800025108201704290337 00025108MST162821/7931002179     0003                        00039130                                                                                                                                                                                                      
00025103   O31E112510800025108201704290337100025108MST162821/7931002179     0004LDAHV9LH6A                                                  00075000  000000000147530000001020170603SEA.FLKG7931002179                                                                                                                
00025103   O31E912510800025108201704290337 00025108MST162821/7931002179     0004                        00039130                                                                                                                                                                                                      
00025103   O31A112510800025108201704290338100025108MST162830/7931002180         A  0002510300039130                                 S31790                              NCKE, MS. CHUI HONG, MICHELLE MI20170514        1N10003827420170525SEA.FLKGLIGHTING                                                       O   
00025103   O31A212510800025108201704290338100025108MST162830/7931002180         FOB0                              USD                                                        00039130201706100003913000039130SCMM                                        00038274                                                     
00025103   O31E112510800025108201704290338100025108MST162830/7931002180     0001EFDHV11D65T                                                 00030000  000000001223940000001020170603SEA.FLKG7931002180                                                                                                                
00025103   O31E912510800025108201704290338 00025108MST162830/7931002180     0001                        00039130                                                                                                                                                                                                      
00025103   O31E112510800025108201704290338100025108MST162830/7931002180     0002EFDHV15D65T1                                                00189120  000000001112740000001020170603SEA.FLKG7931002180                                                                                                                
00025103   O31E912510800025108201704290338 00025108MST162830/7931002180     0002                        00039130                                                                                                                                                                                                      
00025103   O31E112510800025108201704290338100025108MST162830/7931002180     0003EFDHV15L27T1                                                00054720  000000001112740000001020170603SEA.FLKG7931002180                                                                                                                
00025103   O31E912510800025108201704290338 00025108MST162830/7931002180     0003                        00039130                                                                                                                                                                                                      
00025103   O31E112510800025108201704290338100025108MST162830/7931002180     0004EFDHV20D65T1                                                00035520  000000001381940000001020170603SEA.FLKG7931002180                                                                                                                
00025103   O31E912510800025108201704290338 00025108MST162830/7931002180     0004                        00039130                                                                                                                                                                                                      
00025103   O31E112510800025108201704290338100025108MST162830/7931002180     0005EFDHV23D65T1                                                00035000  000000001381940000001020170603SEA.FLKG7931002180                                                                                                                
00025103   O31E912510800025108201704290338 00025108MST162830/7931002180     0005                        00039130                                                                                                                                                                                                      
00025103   O31E112510800025108201704290338100025108MST162830/7931002180     0006EFDHV25D65T                                                 01899840  000000000015220000001020170603SEA.FLKG7931002180                                                                                                                
00025103   O31E912510800025108201704290338 00025108MST162830/7931002180     0006                        00039130                                                                                                                                                                                                      
00025103   O31E112510800025108201704290338100025108MST162830/7931002180     0007EFDHV25L27T                                                 00031680  000000000015220000001020170603SEA.FLKG7931002180                                                                                                                
00025103   O31E912510800025108201704290338 00025108MST162830/7931002180     0007                        00039130                                                                                                                                                                                                      
00025103   O31E112510800025108201704290338100025108MST162830/7931002180     0008EFDHV32D65A                                                 00020880  000000002722140000001020170603SEA.FLKG7931002180                                                                                                                
00025103   O31E912510800025108201704290338 00025108MST162830/7931002180     0008                        00039130                                                                                                                                                                                                      
00025103   O31E112510800025108201704290338100025108MST162830/7931002180     0009EFDHV42D65A                                                 00039840  000000003013840000001020170603SEA.FLKG7931002180                                                                                                                
00025103   O31E912510800025108201704290338 00025108MST162830/7931002180     0009                        00039130                                                                                                                                                                                                      
00025103   O31E112510800025108201704290338100025108MST162830/7931002180     0010EFU11E652V                                                  00025000  000000001223440000001020170603SEA.FLKG7931002180                                                                                                                
00025103   O31E912510800025108201704290338 00025108MST162830/7931002180     0010                        00039130                                                                                                                                                                                                      
00025103   O31E112510800025108201704290338100025108MST162830/7931002180     0011EFU14E272V1                                                 00070000  000000001189640000001020170603SEA.FLKG7931002180                                                                                                                
00025103   O31E912510800025108201704290338 00025108MST162830/7931002180     0011                        00039130                                                                                                                                                                                                      
00025103   O31E112510800025108201704290338100025108MST162830/7931002180     0012EFU14E652V1                                                 00380000  000000001189640000001020170603SEA.FLKG7931002180                                                                                                                
00025103   O31E912510800025108201704290338 00025108MST162830/7931002180     0012                        00039130                                                                                                                                                                                                      
00025103   O31E112510800025108201704290338100025108MST162830/7931002180     0013EFU8E652V1                                                  00140000  000000001088340000001020170603SEA.FLKG7931002180                                                                                                                
00025103   O31E912510800025108201704290338 00025108MST162830/7931002180     0013                        00039130                                                                                                                                                                                                      
00025103   O31E112510800025108201704290338100025108MST162830/7931002180     0014EFUHV18D65A                                                 00245000  000000001342340000001020170603SEA.FLKG7931002180                                                                                                                
00025103   O31E912510800025108201704290338 00025108MST162830/7931002180     0014                        00039130                                                                                                                                                                                                      
00025103   O31E112510800025108201704290338100025108MST162830/7931002180     0015EFUHV18L27A                                                 00010800  000000001342340000001020170603SEA.FLKG7931002180                                                                                                                
00025103   O31E912510800025108201704290338 00025108MST162830/7931002180     0015                        00039130                                                                                                                                                                                                      
00025103   O31E112510800025108201704290338100025108MST162830/7931002180     0016EFUHV23D65A                                                 00056000  000000001411440000001020170603SEA.FLKG7931002180                                                                                                                
00025103   O31E912510800025108201704290338 00025108MST162830/7931002180     0016                        00039130                                                                                                                                                                                                      
