00025103   O31A112510700025107201611181245100025107MPH158223/7961000614         A  0002510300029474                                 L31790                              YCKE, MS. CHUI HONG, MICHELLE MI20161123        1N10003827420161213SEA.FMNLLIGHTING                                                       O   
00025103   O31A212510700025107201611181245100025107MPH158223/7961000614         FOB0                              USD                                                        00029474201701140002947400029474                                            00038274                                                     
00025103   O31E112510700025107201611181245100025107MPH158223/7961000614     0001LDAHV3DH6A                                                  00100000  0000000000000000000010        SEA.FMNL7961000614                                                                                                                
00025103   O31E912510700025107201611181245 00025107MPH158223/7961000614     0001                        00029474                                                                                                                                                                                                      
00025103   O31E112510700025107201611181245100025107MPH158223/7961000614     0002LDAHV5DH6A                                                  00100000  0000000000000000000010        SEA.FMNL7961000614                                                                                                                
00025103   O31E912510700025107201611181245 00025107MPH158223/7961000614     0002                        00029474                                                                                                                                                                                                      
00025103   O31E112510700025107201611181245100025107MPH158223/7961000614     0003LDAHV7DH6A                                                  00100000  0000000000000000000010        SEA.FMNL7961000614                                                                                                                
00025103   O31E912510700025107201611181245 00025107MPH158223/7961000614     0003                        00029474                                                                                                                                                                                                      
00025103   O31E112510700025107201611181245100025107MPH158223/7961000614     0004LDAHV9DH6A                                                  00100000  0000000000000000000010        SEA.FMNL7961000614                                                                                                                
00025103   O31E912510700025107201611181245 00025107MPH158223/7961000614     0004                        00029474                                                                                                                                                                                                      
