00025103   O31A112510800025108201701301035100025108MST160182/7931001583         A  0002510300039130                                 S31790                              YCKE, MS. CHUI HONG, MICHELLE MI20170204        1N100038274        SEA.FLKGLIGHTING                                                       O   
00025103   O31A212510800025108201701301035100025108MST160182/7931001583         FOB0                              USD                                                        00039130201702140003913000039130                                            00038274                                                     
00025103   O31E112510800025108201701301035100025108MST160182/7931001583     0001LDR400N                                                     00004900  0000000003535200000010        SEA.FLKG7931001583                                                                                                                
00025103   O31E912510800025108201701301035 00025108MST160182/7931001583     0001                        00039130                                                                                                                                                                                                      
00025103   O31A112511300025113201701310740100025113MNZ160248/P86245             A  0002510300029671                                 S31790ERASMUSJ                      NCKE, MS. CHUI HONG, MICHELLE MI20170215        1N10003827420170224SEA.FAKLLIGHTING                                                       O   
00025103   O31A212511300025113201701310740100025113MNZ160248/P86245             FOB0                              USD                                                                20170320                SCMM                                        00038274                                                     
00025103   O31E112511300025113201701310740100025113MNZ160248/P86245         0001LDAHV10DG4A1        LDAHV10DG4A1                            00005000  0000000024714400000010                                         ATP Auto Generate                                                                                
00025103   O31E112511300025113201701310740100025113MNZ160248/P86245         0002LDAHV10DG4BA        LDAHV10DG4BA                            00005000  0000000024714400000010                                         ATP Auto Generate                                                                                
00025103   O31E112511300025113201701310740100025113MNZ160248/P86245         0003LDAHV10LG4A1        LDAHV10LG4A1                            00005000  0000000024714400000010                                         ATP Auto Generate                                                                                
00025103   O31E112511300025113201701310740100025113MNZ160248/P86245         0004LDAHV10LG4BA        LDAHV10LG4BA                            00005000  0000000024714400000010                                         ATP Auto Generate                                                                                
00025103   O31E112511300025113201701310740100025113MNZ160248/P86245         0005LDAHV7DG4BA         LDAHV7DG4BA                             00010000  0000000001717300000010                                         ATP Auto Generate                                                                                
00025103   O31E112511300025113201701310740100025113MNZ160248/P86245         0006LDAHV7LG4A1         LDAHV7LG4A1                             00015000  0000000001717300000010                                         ATP Auto Generate                                                                                
00025103   O31E112511300025113201701310740100025113MNZ160248/P86245         0007LDAHV7LG4BA         LDAHV7LG4BA                             00025000  0000000001717300000010                                         ATP Auto Generate                                                                                
00025103   O31E112511300025113201701310740100025113MNZ160248/P86245         0008LDAHV8DG4A1         LDAHV8DG4A1                             00010000  0000000021072400000010                                         ATP Auto Generate                                                                                
00025103   O31E112511300025113201701310740100025113MNZ160248/P86245         0009LDAHV8DG4BA         LDAHV8DG4BA                             00010000  0000000021072400000010                                         ATP Auto Generate                                                                                
00025103   O31E112511300025113201701310740100025113MNZ160248/P86245         0010LDAHV8LG4A1         LDAHV8LG4A1                             00007500  0000000021072400000010                                         ATP Auto Generate                                                                                
00025103   O31E112511300025113201701310740100025113MNZ160248/P86245         0011LDAHV8LG4BA         LDAHV8LG4BA                             00015000  0000000021072400000010                                         ATP Auto Generate                                                                                
00025103   O31A112511300025113201701310740100025113MNZ160251/P86246             A  0002510300029671                                 S31790ERASMUSJ                      NCKE, MS. CHUI HONG, MICHELLE MI20170215        1N10003827420170224SEA.FAKLLIGHTING                                                       O   
00025103   O31A212511300025113201701310740100025113MNZ160251/P86246             FOB0                              USD                                                                20170320                SCMM                                        00038274                                                     
00025103   O31E112511300025113201701310740100025113MNZ160251/P86246         0001EFDHV15D65BE        EFDHV15D65BE                            00024000  0000000012239400000010                                         ATP Auto Generate                                                                                
00025103   O31E112511300025113201701310740100025113MNZ160251/P86246         0002EFDHV15L27BE        EFDHV15L27BE                            00024000  0000000012239400000010                                         ATP Auto Generate                                                                                
00025103   O31E112511300025113201701310740100025113MNZ160251/P86246         0003EFDHV15L27E         EFDHV15L27E                             00023040  0000000012239400000010                                         ATP Auto Generate                                                                                
00025103   O31E112511300025113201701310740100025113MNZ160251/P86246         0004EFDHV23D65BE        EFDHV23D65BE                            00024000  0000000000152200000010                                         ATP Auto Generate                                                                                
00025103   O31E112511300025113201701310740100025113MNZ160251/P86246         0005EFDHV23D65E         EFDHV23D65E                             00024000  0000000000152200000010                                         ATP Auto Generate                                                                                
00025103   O31E112511300025113201701310740100025113MNZ160251/P86246         0006EFDHV23L27BE        EFDHV23L27BE                            00024000  0000000000152200000010                                         ATP Auto Generate                                                                                
00025103   O31E112511300025113201701310740100025113MNZ160251/P86246         0007EFDHV23L27E         EFDHV23L27E                             00011520  0000000000152200000010                                         ATP Auto Generate                                                                                
