00025103   O31A112510800025108201711071040100025108MST169261/7931003370         A  0002510300039130                                 L31790                              YCKE, MS. CHUI HONG, MICHELLE MI20171112        1N10003827420171125SEA.FLKGLIGHTING                                                       O   
00025103   O31A212510800025108201711071040100025108MST169261/7931003370         FOB0                              USD                                                        00039130201712130003913000039130                                            00038274                                                     
00025103   O31E112510800025108201711071040100025108MST169261/7931003370     0001LDAHV12DH5T                                                 00100000  000000001327140000001020171206SEA.FLKG7931003370                                                                                                                
00025103   O31E912510800025108201711071040 00025108MST169261/7931003370     0001                        00039130                                                                                                                                                                                                      
00025103   O31E112510800025108201711071040100025108MST169261/7931003370     0002LDAHV12LH5T                                                 00010000  000000001327140000001020171206SEA.FLKG7931003370                                                                                                                
00025103   O31E912510800025108201711071040 00025108MST169261/7931003370     0002                        00039130                                                                                                                                                                                                      
00025103   O31E112510800025108201711071040100025108MST169261/7931003370     0003LDAHV15DH5T                                                 00085000  000000001775940000001020171206SEA.FLKG7931003370                                                                                                                
00025103   O31E912510800025108201711071040 00025108MST169261/7931003370     0003                        00039130                                                                                                                                                                                                      
00025103   O31E112510800025108201711071040100025108MST169261/7931003370     0004LDAHV15LH5T                                                 00005000  000000001775940000001020171206SEA.FLKG7931003370                                                                                                                
00025103   O31E912510800025108201711071040 00025108MST169261/7931003370     0004                        00039130                                                                                                                                                                                                      
00025103   O31E112510800025108201711071040100025108MST169261/7931003370     0005LDAHV3DH6A                                                  00080000  000000000630340000001020171206SEA.FLKG7931003370                                                                                                                
00025103   O31E912510800025108201711071040 00025108MST169261/7931003370     0005                        00039130                                                                                                                                                                                                      
00025103   O31E112510800025108201711071040100025108MST169261/7931003370     0006LDAHV3LH6A                                                  00025000  000000000630340000001020171206SEA.FLKG7931003370                                                                                                                
00025103   O31E912510800025108201711071040 00025108MST169261/7931003370     0006                        00039130                                                                                                                                                                                                      
00025103   O31E112510800025108201711071040100025108MST169261/7931003370     0007LDAHV5DH6A                                                  00055000  000000000630340000001020171206SEA.FLKG7931003370                                                                                                                
00025103   O31E912510800025108201711071040 00025108MST169261/7931003370     0007                        00039130                                                                                                                                                                                                      
00025103   O31E112510800025108201711071040100025108MST169261/7931003370     0008LDAHV5LH6A                                                  00042000  000000000630340000001020171206SEA.FLKG7931003370                                                                                                                
00025103   O31E912510800025108201711071040 00025108MST169261/7931003370     0008                        00039130                                                                                                                                                                                                      
00025103   O31E112510800025108201711071040100025108MST169261/7931003370     0009LDAHV7DH6A                                                  00230000  000000000779240000001020171206SEA.FLKG7931003370                                                                                                                
00025103   O31E912510800025108201711071040 00025108MST169261/7931003370     0009                        00039130                                                                                                                                                                                                      
00025103   O31E112510800025108201711071040100025108MST169261/7931003370     0010LDAHV7LH6A                                                  00110000  000000000779240000001020171206SEA.FLKG7931003370                                                                                                                
00025103   O31E912510800025108201711071040 00025108MST169261/7931003370     0010                        00039130                                                                                                                                                                                                      
00025103   O31E112510800025108201711071040100025108MST169261/7931003370     0011LDAHV9DH6A                                                  00110000  000000001121440000001020171206SEA.FLKG7931003370                                                                                                                
00025103   O31E912510800025108201711071040 00025108MST169261/7931003370     0011                        00039130                                                                                                                                                                                                      
00025103   O31E112510800025108201711071040100025108MST169261/7931003370     0012LDAHV9LH6A                                                  00025000  000000001121440000001020171206SEA.FLKG7931003370                                                                                                                
00025103   O31E912510800025108201711071040 00025108MST169261/7931003370     0012                        00039130                                                                                                                                                                                                      
00025103   O31A112510800025108201711071040100025108MST169266/7931003371         A  0002510300039130                                 S31790                              YCKE, MS. CHUI HONG, MICHELLE MI20171112        1N10003827420171125SEA.FLKGLIGHTING                                                       O   
00025103   O31A212510800025108201711071040100025108MST169266/7931003371         FOB0                              USD                                                        00039130201712130003913000039130                                            00038274                                                     
00025103   O31E112510800025108201711071040100025108MST169266/7931003371     0001EFDHV11D65T                                                 00029760  000000001223940000001020171206SEA.FLKG7931003371                                                                                                                
00025103   O31E912510800025108201711071040 00025108MST169266/7931003371     0001                        00039130                                                                                                                                                                                                      
00025103   O31E112510800025108201711071040100025108MST169266/7931003371     0002EFDHV15D65T1                                                00204480  000000001112740000001020171206SEA.FLKG7931003371                                                                                                                
00025103   O31E912510800025108201711071040 00025108MST169266/7931003371     0002                        00039130                                                                                                                                                                                                      
00025103   O31E112510800025108201711071040100025108MST169266/7931003371     0003EFDHV15L27T1                                                00046080  000000001112740000001020171206SEA.FLKG7931003371                                                                                                                
00025103   O31E912510800025108201711071040 00025108MST169266/7931003371     0003                        00039130                                                                                                                                                                                                      
00025103   O31E112510800025108201711071040100025108MST169266/7931003371     0004EFDHV20D65T1                                                00041280  000000001381940000001020171206SEA.FLKG7931003371                                                                                                                
00025103   O31E912510800025108201711071040 00025108MST169266/7931003371     0004                        00039130                                                                                                                                                                                                      
00025103   O31E112510800025108201711071040100025108MST169266/7931003371     0005EFDHV23D65T1                                                00014400  000000001381940000001020171206SEA.FLKG7931003371                                                                                                                
00025103   O31E912510800025108201711071040 00025108MST169266/7931003371     0005                        00039130                                                                                                                                                                                                      
00025103   O31E112510800025108201711071040100025108MST169266/7931003371     0006EFDHV25D65T                                                 01629120  000000000015220000001020171206SEA.FLKG7931003371                                                                                                                
00025103   O31E912510800025108201711071040 00025108MST169266/7931003371     0006                        00039130                                                                                                                                                                                                      
00025103   O31E112510800025108201711071040100025108MST169266/7931003371     0007EFDHV25L27T                                                 00048000  000000000015220000001020171206SEA.FLKG7931003371                                                                                                                
00025103   O31E912510800025108201711071040 00025108MST169266/7931003371     0007                        00039130                                                                                                                                                                                                      
00025103   O31E112510800025108201711071040100025108MST169266/7931003371     0008EFDHV32D65A                                                 00012480  000000002722140000001020171206SEA.FLKG7931003371                                                                                                                
00025103   O31E912510800025108201711071040 00025108MST169266/7931003371     0008                        00039130                                                                                                                                                                                                      
00025103   O31E112510800025108201711071040100025108MST169266/7931003371     0009EFDHV42D65A                                                 00044160  000000003013840000001020171206SEA.FLKG7931003371                                                                                                                
00025103   O31E912510800025108201711071040 00025108MST169266/7931003371     0009                        00039130                                                                                                                                                                                                      
00025103   O31E112510800025108201711071040100025108MST169266/7931003371     0010EFU11E652V                                                  00040000  000000001223440000001020171206SEA.FLKG7931003371                                                                                                                
00025103   O31E912510800025108201711071040 00025108MST169266/7931003371     0010                        00039130                                                                                                                                                                                                      
00025103   O31E112510800025108201711071040100025108MST169266/7931003371     0011EFU14E272V1                                                 00085000  000000001189640000001020171206SEA.FLKG7931003371                                                                                                                
00025103   O31E912510800025108201711071040 00025108MST169266/7931003371     0011                        00039130                                                                                                                                                                                                      
00025103   O31E112510800025108201711071040100025108MST169266/7931003371     0012EFU14E652V1                                                 00445000  000000001189640000001020171206SEA.FLKG7931003371                                                                                                                
00025103   O31E912510800025108201711071040 00025108MST169266/7931003371     0012                        00039130                                                                                                                                                                                                      
00025103   O31E112510800025108201711071040100025108MST169266/7931003371     0013EFU8E652V1                                                  00080000  000000001088340000001020171206SEA.FLKG7931003371                                                                                                                
00025103   O31E912510800025108201711071040 00025108MST169266/7931003371     0013                        00039130                                                                                                                                                                                                      
00025103   O31E112510800025108201711071040100025108MST169266/7931003371     0014EFUHV18D65A                                                 00320000  000000001342340000001020171206SEA.FLKG7931003371                                                                                                                
00025103   O31E912510800025108201711071040 00025108MST169266/7931003371     0014                        00039130                                                                                                                                                                                                      
00025103   O31E112510800025108201711071040100025108MST169266/7931003371     0015EFUHV18L27A                                                 00011000  000000001342340000001020171206SEA.FLKG7931003371                                                                                                                
00025103   O31E912510800025108201711071040 00025108MST169266/7931003371     0015                        00039130                                                                                                                                                                                                      
00025103   O31E112510800025108201711071040100025108MST169266/7931003371     0016EFUHV23D65A                                                 00050000  000000001411440000001020171206SEA.FLKG7931003371                                                                                                                
00025103   O31E912510800025108201711071040 00025108MST169266/7931003371     0016                        00039130                                                                                                                                                                                                      
