12000I     O31A112510800025108201901042206100025108MST7901005422/7931005853       10002510300039130                                 L31790                              YNR01-SG                        20190210         N 0003827420190123SEA.FLKGLIGHTING                                                       O   
12000I     O31A212510800025108201901042206100025108MST7901005422/7931005853     FOB0                              USD                                                        00025103201902100002510300025103                                            00038274                                                     
12000I     O31A812510800025108201901042206100025108MST7901005422/7931005853     FOB                                                                                                                                                                                                                                   
12000I     O31E112510800025108201901042206100025108MST7901005422/7931005853 0010LDAHV9LH6T                                                  00010000  000000000008920000001020190210SEA.FLKGMST7901005422/7931005853                                                                                                  
12000I     O31E912510800025108201901042206 00025108MST7901005422/7931005853 0010                        00025103                                                                                                                                                                                                      
12000I     O31A112510800025108201901042206100025108MST7901005423/7931005854       10002510300039130                                 L31790                              YNR01-SG                        20190214         N 0003827420190127SEA.FLKGLIGHTING                                                       O   
12000I     O31A212510800025108201901042206100025108MST7901005423/7931005854     FOB0                              USD                                                        00025103201902140002510300025103                                            00038274                                                     
12000I     O31A812510800025108201901042206100025108MST7901005423/7931005854     FOB                                                                                                                                                                                                                                   
12000I     O31E112510800025108201901042206100025108MST7901005423/7931005854 0010NNP81900                                                    00001000  000000000000120000001020190214SEA.FLKGMST7901005423/7931005854                                                                                                  
12000I     O31E912510800025108201901042206 00025108MST7901005423/7931005854 0010                        00025103                                                                                                                                                                                                      
