12000I     O31A112510800025108201904300909100025108MST7901008603/7931006508       10002510300039130                                 L31790                              NNR01-SG                        20190610         N 0003827420190524SEA.FLKGLIGHTING                                                       O   
12000I     O31A212510800025108201904300909100025108MST7901008603/7931006508     FOB0                              USD                                                        00025103201906100002510300025103SCMM                                        00038274                                                     
12000I     O31A812510800025108201904300909100025108MST7901008603/7931006508     FOB                                                                                                                                                                                                                                   
12000I     O31E112510800025108201904300909100025108MST7901008603/7931006508 0010LDAHV12DH6T                                                 00220000  000000000011520000001020190610SEA.FLKGMST7901008603/7931006508                                                                                                  
12000I     O31E912510800025108201904300909 00025108MST7901008603/7931006508 0010                        00025103                                                                                                                                                                                                      
12000I     O31E112510800025108201904300909100025108MST7901008603/7931006508 0020LDAHV12LH6T                                                 00050000  000000000011520000001020190610SEA.FLKGMST7901008603/7931006508                                                                                                  
12000I     O31E912510800025108201904300909 00025108MST7901008603/7931006508 0020                        00025103                                                                                                                                                                                                      
12000I     O31E112510800025108201904300909100025108MST7901008603/7931006508 0030LDAHV15DH6T                                                 00080000  000000000014220000001020190610SEA.FLKGMST7901008603/7931006508                                                                                                  
12000I     O31E912510800025108201904300909 00025108MST7901008603/7931006508 0030                        00025103                                                                                                                                                                                                      
12000I     O31E112510800025108201904300909100025108MST7901008603/7931006508 0040LDAHV15LH6T                                                 00030000  000000000014220000001020190610SEA.FLKGMST7901008603/7931006508                                                                                                  
12000I     O31E912510800025108201904300909 00025108MST7901008603/7931006508 0040                        00025103                                                                                                                                                                                                      
12000I     O31E112510800025108201904300909100025108MST7901008603/7931006508 0050LDAHV20DH5T                                                 00042000  000000000000120000001020190610SEA.FLKGMST7901008603/7931006508                                                                                                  
12000I     O31E912510800025108201904300909 00025108MST7901008603/7931006508 0050                        00025103                                                                                                                                                                                                      
12000I     O31E112510800025108201904300909100025108MST7901008603/7931006508 0060LDAHV30DH5T                                                 00020000  000000000000120000001020190610SEA.FLKGMST7901008603/7931006508                                                                                                  
12000I     O31E912510800025108201904300909 00025108MST7901008603/7931006508 0060                        00025103                                                                                                                                                                                                      
12000I     O31E112510800025108201904300909100025108MST7901008603/7931006508 0070LDAHV3DH6T                                                  00070000  000000000005520000001020190610SEA.FLKGMST7901008603/7931006508                                                                                                  
12000I     O31E912510800025108201904300909 00025108MST7901008603/7931006508 0070                        00025103                                                                                                                                                                                                      
12000I     O31E112510800025108201904300909100025108MST7901008603/7931006508 0080LDAHV3LH6T                                                  00045000  000000000005520000001020190610SEA.FLKGMST7901008603/7931006508                                                                                                  
12000I     O31E912510800025108201904300909 00025108MST7901008603/7931006508 0080                        00025103                                                                                                                                                                                                      
12000I     O31E112510800025108201904300909100025108MST7901008603/7931006508 0090LDAHV5DH6T                                                  00150000  000000000000610000001020190610SEA.FLKGMST7901008603/7931006508                                                                                                  
12000I     O31E912510800025108201904300909 00025108MST7901008603/7931006508 0090                        00025103                                                                                                                                                                                                      
12000I     O31E112510800025108201904300909100025108MST7901008603/7931006508 0100LDAHV5LH6T                                                  00060000  000000000000610000001020190610SEA.FLKGMST7901008603/7931006508                                                                                                  
12000I     O31E912510800025108201904300909 00025108MST7901008603/7931006508 0100                        00025103                                                                                                                                                                                                      
12000I     O31E112510800025108201904300909100025108MST7901008603/7931006508 0110LDAHV7DH6T                                                  00320000  000000000006820000001020190610SEA.FLKGMST7901008603/7931006508                                                                                                  
12000I     O31E912510800025108201904300909 00025108MST7901008603/7931006508 0110                        00025103                                                                                                                                                                                                      
12000I     O31E112510800025108201904300909100025108MST7901008603/7931006508 0120LDAHV7LH6T                                                  00095000  000000000006820000001020190610SEA.FLKGMST7901008603/7931006508                                                                                                  
12000I     O31E912510800025108201904300909 00025108MST7901008603/7931006508 0120                        00025103                                                                                                                                                                                                      
12000I     O31E112510800025108201904300909100025108MST7901008603/7931006508 0130LDAHV9DH6T                                                  00180000  000000000008920000001020190610SEA.FLKGMST7901008603/7931006508                                                                                                  
12000I     O31E912510800025108201904300909 00025108MST7901008603/7931006508 0130                        00025103                                                                                                                                                                                                      
12000I     O31E112510800025108201904300909100025108MST7901008603/7931006508 0140LDAHV9LH6T                                                  00085000  000000000008920000001020190610SEA.FLKGMST7901008603/7931006508                                                                                                  
12000I     O31E912510800025108201904300909 00025108MST7901008603/7931006508 0140                        00025103                                                                                                                                                                                                      
12000I     O31E112510800025108201904300909100025108MST7901008603/7931006508 0150LDS300D2N                                                   00016200  000000000000120000001020190610SEA.FLKGMST7901008603/7931006508                                                                                                  
12000I     O31E912510800025108201904300909 00025108MST7901008603/7931006508 0150                        00025103                                                                                                                                                                                                      
12000I     O31A112510800025108201904300909100025108MST7901008605/7931006509       10002510300039130                                 L31790                              NNR01-SG                        20190610         N 0003827420190524SEA.FLKGLIGHTING                                                       O   
12000I     O31A212510800025108201904300909100025108MST7901008605/7931006509     FOB0                              USD                                                        00025103201906100002510300025103SCMM                                        00038274                                                     
12000I     O31A812510800025108201904300909100025108MST7901008605/7931006509     FOB                                                                                                                                                                                                                                   
12000I     O31E112510800025108201904300909100025108MST7901008605/7931006509 0010EFDHV15D65T1                                                00162240  000000000000120000001020190610SEA.FLKGMST7901008605/7931006509                                                                                                  
12000I     O31E912510800025108201904300909 00025108MST7901008605/7931006509 0010                        00025103                                                                                                                                                                                                      
12000I     O31E112510800025108201904300909100025108MST7901008605/7931006509 0020EFDHV15L27T1                                                00059520  000000000000120000001020190610SEA.FLKGMST7901008605/7931006509                                                                                                  
12000I     O31E912510800025108201904300909 00025108MST7901008605/7931006509 0020                        00025103                                                                                                                                                                                                      
12000I     O31E112510800025108201904300909100025108MST7901008605/7931006509 0030EFDHV20D65T1                                                00009600  000000000000120000001020190610SEA.FLKGMST7901008605/7931006509                                                                                                  
12000I     O31E912510800025108201904300909 00025108MST7901008605/7931006509 0030                        00025103                                                                                                                                                                                                      
12000I     O31E112510800025108201904300909100025108MST7901008605/7931006509 0040EFDHV23D65T1                                                00019200  000000000000120000001020190610SEA.FLKGMST7901008605/7931006509                                                                                                  
12000I     O31E912510800025108201904300909 00025108MST7901008605/7931006509 0040                        00025103                                                                                                                                                                                                      
12000I     O31E112510800025108201904300909100025108MST7901008605/7931006509 0050EFDHV32D65A                                                 00011520  000000000000120000001020190610SEA.FLKGMST7901008605/7931006509                                                                                                  
12000I     O31E912510800025108201904300909 00025108MST7901008605/7931006509 0050                        00025103                                                                                                                                                                                                      
12000I     O31E112510800025108201904300909100025108MST7901008605/7931006509 0060EFDHV42D65A                                                 00009600  000000000000120000001020190610SEA.FLKGMST7901008605/7931006509                                                                                                  
12000I     O31E912510800025108201904300909 00025108MST7901008605/7931006509 0060                        00025103                                                                                                                                                                                                      
12000I     O31E112510800025108201904300909100025108MST7901008605/7931006509 0070EFU11E652V                                                  00040000  000000000012220000001020190610SEA.FLKGMST7901008605/7931006509                                                                                                  
12000I     O31E912510800025108201904300909 00025108MST7901008605/7931006509 0070                        00025103                                                                                                                                                                                                      
12000I     O31E112510800025108201904300909100025108MST7901008605/7931006509 0080EFU14E272V1                                                 00095000  000000000000120000001020190610SEA.FLKGMST7901008605/7931006509                                                                                                  
12000I     O31E912510800025108201904300909 00025108MST7901008605/7931006509 0080                        00025103                                                                                                                                                                                                      
12000I     O31E112510800025108201904300909100025108MST7901008605/7931006509 0090EFU14E652V1                                                 00350000  000000000000120000001020190610SEA.FLKGMST7901008605/7931006509                                                                                                  
12000I     O31E912510800025108201904300909 00025108MST7901008605/7931006509 0090                        00025103                                                                                                                                                                                                      
12000I     O31E112510800025108201904300909100025108MST7901008605/7931006509 0100EFU8E652V1                                                  00130000  000000000000120000001020190610SEA.FLKGMST7901008605/7931006509                                                                                                  
12000I     O31E912510800025108201904300909 00025108MST7901008605/7931006509 0100                        00025103                                                                                                                                                                                                      
12000I     O31E112510800025108201904300909100025108MST7901008605/7931006509 0110EFUHV18D65A                                                 00120000  000000000000120000001020190610SEA.FLKGMST7901008605/7931006509                                                                                                  
12000I     O31E912510800025108201904300909 00025108MST7901008605/7931006509 0110                        00025103                                                                                                                                                                                                      
12000I     O31E112510800025108201904300909100025108MST7901008605/7931006509 0120EFUHV23D65A                                                 00030000  000000000000120000001020190610SEA.FLKGMST7901008605/7931006509                                                                                                  
12000I     O31E912510800025108201904300909 00025108MST7901008605/7931006509 0120                        00025103                                                                                                                                                                                                      
12000I     O31E112510800025108201904300909100025108MST7901008605/7931006509 0130LDR400N                                                     00010000  000000000000120000001020190610SEA.FLKGMST7901008605/7931006509                                                                                                  
12000I     O31E912510800025108201904300909 00025108MST7901008605/7931006509 0130                        00025103                                                                                                                                                                                                      
