12000I     O31A112510700025107201904100940100025107MPH7901008097/7961007195       10002510300029474                                 L31790                              YNR01-SG                        20190527         N 0003827420190425SEA.FMNLLIGHTING                                                       O   
12000I     O31A212510700025107201904100940100025107MPH7901008097/7961007195     FOB0                              USD                                                        00025103201905270002510300025103                                            00038274                                                     
12000I     O31A812510700025107201904100940100025107MPH7901008097/7961007195     FOB                                                                                                                                                                                                                                   
12000I     O31E112510700025107201904100940100025107MPH7901008097/7961007195 0010EFUHV14D65A                                                 00015000  000000000000120000001020190527SEA.FMNLMPH7901008097/7961007195                                                                                                  
12000I     O31E912510700025107201904100940 00025107MPH7901008097/7961007195 0010                        00025103                                                                                                                                                                                                      
