12000I     O31A112510800025108201809182205100025108MST7901002129/7931005274       10002510300039130                                 L31790                              YNR01-SG                        20181011         N 0003827420180923SEA.FLKGLIGHTING                                                       O   
12000I     O31A212510800025108201809182205100025108MST7901002129/7931005274     FOB0                              USD                                                        00025103201810110002510300025103                                            00038274                                                     
12000I     O31A812510800025108201809182205100025108MST7901002129/7931005274     FOB                                                                                                                                                                                                                                   
12000I     O31E112510800025108201809182205100025108MST7901002129/7931005274 0010LDS300D2N                                                   00002500  000000000180920000001020181011SEA.FLKGMST7901002129/7931005274                                                                                                  
12000I     O31E912510800025108201809182205 00025108MST7901002129/7931005274 0010                        00025103                                                                                                                                                                                                      
12000I     O31A112510800025108201809182205100025108MST7901002130/7931005275       10002510300039130                                 L31790                              YNR01-SG                        20181011         N 0003827420180923SEA.FLKGLIGHTING                                                       O   
12000I     O31A212510800025108201809182205100025108MST7901002130/7931005275     FOB0                              USD                                                        00025103201810110002510300025103                                            00038274                                                     
12000I     O31A812510800025108201809182205100025108MST7901002130/7931005275     FOB                                                                                                                                                                                                                                   
12000I     O31E112510800025108201809182205100025108MST7901002130/7931005275 0010LDR400N                                                     00012000  000000000294720000001020181011SEA.FLKGMST7901002130/7931005275                                                                                                  
12000I     O31E912510800025108201809182205 00025108MST7901002130/7931005275 0010                        00025103                                                                                                                                                                                                      
