00025103   O31A112510700025107201804131155100025107MPH173866/7961004682         A  0002510300029474                                 L31790                              YCKE, MS. CHUI HONG, MICHELLE MI20180418        1N10003827420180509SEA.FMNLLIGHTING                                                       O   
00025103   O31A212510700025107201804131155100025107MPH173866/7961004682         FOB0                              USD                                                        00029474201806100002947400029474                                            00038274                                                     
00025103   O31E112510700025107201804131155100025107MPH173866/7961004682     0001EFDHV20D65A                                                 00053760  0000000001365300000010        SEA.FMNL7961004682                                                                                                                
00025103   O31E912510700025107201804131155 00025107MPH173866/7961004682     0001                        00029474                                                                                                                                                                                                      
00025103   O31A112510700025107201804131155100025107MPH173867/7961004683         A  0002510300029474                                 L31790                              YCKE, MS. CHUI HONG, MICHELLE MI20180418        1N10003827420180509SEA.FMNLLIGHTING                                                       O   
00025103   O31A212510700025107201804131155100025107MPH173867/7961004683         FOB0                              USD                                                        00029474201806100002947400029474                                            00038274                                                     
00025103   O31E112510700025107201804131155100025107MPH173867/7961004683     0001LDAHV3DH6A                                                  00050000  0000000000759300000010        SEA.FMNL7961004683                                                                                                                
00025103   O31E912510700025107201804131155 00025107MPH173867/7961004683     0001                        00029474                                                                                                                                                                                                      
00025103   O31E112510700025107201804131155100025107MPH173867/7961004683     0002LDAHV7DH6A                                                  00130000  0000000000114200000010        SEA.FMNL7961004683                                                                                                                
00025103   O31E912510700025107201804131155 00025107MPH173867/7961004683     0002                        00029474                                                                                                                                                                                                      
00025103   O31E112510700025107201804131155100025107MPH173867/7961004683     0003LDAHV9DH6A                                                  00130000  0000000001254300000010        SEA.FMNL7961004683                                                                                                                
00025103   O31E912510700025107201804131155 00025107MPH173867/7961004683     0003                        00029474                                                                                                                                                                                                      
