12000I     O31A112511000025110201907011510100025110MMQ7901010228/7921007529       10002510300039140                                 L31790                              NNR01-SG                        20190810         N 0003827420190725SEA.FPKLLIGHTING                                                       O   
12000I     O31A212511000025110201907011510100025110MMQ7901010228/7921007529     FOB0                              USD                                                        00025103201908100002510300025103SCMM                                        00038274                                                     
12000I     O31A812511000025110201907011510100025110MMQ7901010228/7921007529     FOB                                                                                                                                                                                                                                   
12000I     O31E112511000025110201907011510100025110MMQ7901010228/7921007529 0010EFDHV25D65T1                                                00076800  000000000000120000001020190810SEA.FPKLMMQ7901010228/7921007529                                                                                                  
12000I     O31E912511000025110201907011510 00025110MMQ7901010228/7921007529 0010                        00025103                                                                                                                                                                                                      
12000I     O31E112511000025110201907011510100025110MMQ7901010228/7921007529 0020EFUHV18D65A3                                                00500000  000000000000120000001020190810SEA.FPKLMMQ7901010228/7921007529                                                                                                  
12000I     O31E912511000025110201907011510 00025110MMQ7901010228/7921007529 0020                        00025103                                                                                                                                                                                                      
12000I     O31E112511000025110201907011510100025110MMQ7901010228/7921007529 0030LDAHV11DH7A                                                 00020000  000000000000120000001020190810SEA.FPKLMMQ7901010228/7921007529                                                                                                  
12000I     O31E912511000025110201907011510 00025110MMQ7901010228/7921007529 0030                        00025103                                                                                                                                                                                                      
12000I     O31E112511000025110201907011510100025110MMQ7901010228/7921007529 0040LDAHV13DH7A                                                 00030000  000000000000120000001020190810SEA.FPKLMMQ7901010228/7921007529                                                                                                  
12000I     O31E912511000025110201907011510 00025110MMQ7901010228/7921007529 0040                        00025103                                                                                                                                                                                                      
