00025103   O31A112511000025110201609260436100025110MMQ156826/ES1609009          A  0002510300039140                                 S31790                               CKE, MS. CHUI HONG, MICHELLE MI20161001        1N10003827420161024SEA.FPKLLIGHTING                                                       O   
00025103   O31A212511000025110201609260436100025110MMQ156826/ES1609009          FOB0                              USD                                                                20161110                SCMM                                        00038274                                                     
00025103   O31E112511000025110201609260436100025110MMQ156826/ES1609009      0001EFDHV15D65A                                                 00019200  0000000011395400000010                                                                                                                                          
00025103   O31E112511000025110201609260436100025110MMQ156826/ES1609009      0002EFDHV20D65A                                                 00049920  0000000011984400000010                                                                                                                                          
00025103   O31E112511000025110201609260436100025110MMQ156826/ES1609009      0003EFDHV23D65A                                                 00038400  0000000012574400000010                                                                                                                                          
00025103   O31E112511000025110201609260436100025110MMQ156826/ES1609009      0004EFDHV25D65A                                                 00480000  0000000013949400000010                                                                                                                                          
