12000I     O31A112511000025110201908011533100025110MMQ7901011629/7921007883       10002510300039140                                 L31790                              YNR01-SG                        20191004         N 0003827420190911SEA.FPKLLIGHTING                                                       O   
12000I     O31A212511000025110201908011533100025110MMQ7901011629/7921007883     FOB0                              USD                                                        00025103201910040002510300025103                                            00038274                                                     
12000I     O31A812511000025110201908011533100025110MMQ7901011629/7921007883     FOB                                                                                                                                                                                                                                   
12000I     O31E112511000025110201908011533100025110MMQ7901011629/7921007883 0010LDAHV11DH7A                                                 00030000  000000000000120000001020191004SEA.FPKLMMQ7901011629/7921007883                                                                                                  
12000I     O31E912511000025110201908011533 00025110MMQ7901011629/7921007883 0010                        00025103                                                                                                                                                                                                      
12000I     O31E112511000025110201908011533100025110MMQ7901011629/7921007883 0020LDAHV13DH7A                                                 00050000  000000000000120000001020191004SEA.FPKLMMQ7901011629/7921007883                                                                                                  
12000I     O31E912511000025110201908011533 00025110MMQ7901011629/7921007883 0020                        00025103                                                                                                                                                                                                      
12000I     O31A112511000025110201908011533100025110MMQ7901011630/7921007882       10002510300039140                                 L31790                              YNR01-SG                        20190913         N 0003827420190821SEA.FPKLLIGHTING                                                       O   
12000I     O31A212511000025110201908011533100025110MMQ7901011630/7921007882     FOB0                              USD                                                        00025103201909130002510300025103                                            00038274                                                     
12000I     O31A812511000025110201908011533100025110MMQ7901011630/7921007882     FOB                                                                                                                                                                                                                                   
12000I     O31E112511000025110201908011533100025110MMQ7901011630/7921007882 0010LDAHV11DH7A                                                 00010000  000000000013320000001020190913SEA.FPKLMMQ7901011630/7921007882                                                                                                  
12000I     O31E912511000025110201908011533 00025110MMQ7901011630/7921007882 0010                        00025103                                                                                                                                                                                                      
12000I     O31E112511000025110201908011533100025110MMQ7901011630/7921007882 0020LDAHV13DH7A                                                 00040000  000000000013920000001020190913SEA.FPKLMMQ7901011630/7921007882                                                                                                  
12000I     O31E912511000025110201908011533 00025110MMQ7901011630/7921007882 0020                        00025103                                                                                                                                                                                                      
