12000I     O31A112511000025110201807091235100025110MMQ7901000065/7921004116       10002510300039140                                 L31790                              YNR01-SG                        20180808         N 0003827420180716SEA.FPKLLIGHTING                                                       O   
12000I     O31A212511000025110201807091235100025110MMQ7901000065/7921004116     FOB                               USD                                                        00025103201808080002510300025103                                            00038274                                                     
12000I     O31A812511000025110201807091235100025110MMQ7901000065/7921004116     FOB                                                                                                                                                                                                                                   
12000I     O31E112511000025110201807091235100025110MMQ7901000065/7921004116 0010EFDHV20D65T1                                                00015360PC000000000000120000001020180808SEA.FPKLMMQ7901000065/7921004116                                                                                                  
12000I     O31E912511000025110201807091235 00025110MMQ7901000065/7921004116 0010                        00025103                                                                                                                                                                                                      
12000I     O31E112511000025110201807091235100025110MMQ7901000065/7921004116 0020EFDHV23D65T1                                                00015360PC000000000000120000001020180808SEA.FPKLMMQ7901000065/7921004116                                                                                                  
12000I     O31E912511000025110201807091235 00025110MMQ7901000065/7921004116 0020                        00025103                                                                                                                                                                                                      
12000I     O31E112511000025110201807091235100025110MMQ7901000065/7921004116 0030EFDHV25D65T1                                                00499200PC000000000000120000001020180808SEA.FPKLMMQ7901000065/7921004116                                                                                                  
12000I     O31E912511000025110201807091235 00025110MMQ7901000065/7921004116 0030                        00025103                                                                                                                                                                                                      
