12000I     O31A112510700025107201809110940100025107MPH7901002058/7961005883       10002510300029474                                 L31790                              YNR01-SG                        20181024         N 0003827420180922SEA.FMNLLIGHTING                                                       O   
12000I     O31A212510700025107201809110940100025107MPH7901002058/7961005883     FOB0                              USD                                                        00025103201810240002510300025103                                            00038274                                                     
12000I     O31A812510700025107201809110940100025107MPH7901002058/7961005883     FOB                                                                                                                                                                                                                                   
12000I     O31E112510700025107201809110940100025107MPH7901002058/7961005883 0010EFUHV11D65A                                                 00080000  000000000000120000001020181024SEA.FMNLMPH7901002058/7961005883                                                                                                  
12000I     O31E912510700025107201809110940 00025107MPH7901002058/7961005883 0010                        00025103                                                                                                                                                                                                      
12000I     O31E112510700025107201809110940100025107MPH7901002058/7961005883 0020EFUHV8D65A                                                  00080000  000000000000120000001020181024SEA.FMNLMPH7901002058/7961005883                                                                                                  
12000I     O31E912510700025107201809110940 00025107MPH7901002058/7961005883 0020                        00025103                                                                                                                                                                                                      
12000I     O31A112510700025107201809110940100025107MPH7901002059/7961005884       10002510300029474                                 L31790                              YNR01-SG                        20181024         N 0003827420180922SEA.FMNLLIGHTING                                                       O   
12000I     O31A212510700025107201809110940100025107MPH7901002059/7961005884     FOB0                              USD                                                        00025103201810240002510300025103                                            00038274                                                     
12000I     O31A812510700025107201809110940100025107MPH7901002059/7961005884     FOB                                                                                                                                                                                                                                   
12000I     O31E112510700025107201809110940100025107MPH7901002059/7961005884 0010LDAHV12DH5T                                                 00080000  000000000000120000001020181024SEA.FMNLMPH7901002059/7961005884                                                                                                  
12000I     O31E912510700025107201809110940 00025107MPH7901002059/7961005884 0010                        00025103                                                                                                                                                                                                      
12000I     O31E112510700025107201809110940100025107MPH7901002059/7961005884 0020LDAHV15DH5T                                                 00080000  000000000000120000001020181024SEA.FMNLMPH7901002059/7961005884                                                                                                  
12000I     O31E912510700025107201809110940 00025107MPH7901002059/7961005884 0020                        00025103                                                                                                                                                                                                      
12000I     O31A112510700025107201809110940100025107MPH7901002060/7961005885       10002510300029474                                 L31790                              YNR01-SG                        20181024         N 0003827420180922SEA.FMNLLIGHTING                                                       O   
12000I     O31A212510700025107201809110940100025107MPH7901002060/7961005885     FOB0                              USD                                                        00025103201810240002510300025103                                            00038274                                                     
12000I     O31A812510700025107201809110940100025107MPH7901002060/7961005885     FOB                                                                                                                                                                                                                                   
12000I     O31E112510700025107201809110940100025107MPH7901002060/7961005885 0010LDAHV3DH6A                                                  00060000  000000000000120000001020181024SEA.FMNLMPH7901002060/7961005885                                                                                                  
12000I     O31E912510700025107201809110940 00025107MPH7901002060/7961005885 0010                        00025103                                                                                                                                                                                                      
12000I     O31E112510700025107201809110940100025107MPH7901002060/7961005885 0020LDAHV5DH6A                                                  00060000  000000000000120000001020181024SEA.FMNLMPH7901002060/7961005885                                                                                                  
12000I     O31E912510700025107201809110940 00025107MPH7901002060/7961005885 0020                        00025103                                                                                                                                                                                                      
12000I     O31E112510700025107201809110940100025107MPH7901002060/7961005885 0030LDAHV7DH6A                                                  00080000  000000000000120000001020181024SEA.FMNLMPH7901002060/7961005885                                                                                                  
12000I     O31E912510700025107201809110940 00025107MPH7901002060/7961005885 0030                        00025103                                                                                                                                                                                                      
12000I     O31E112510700025107201809110940100025107MPH7901002060/7961005885 0040LDAHV9DH6A                                                  00080000  000000000000120000001020181024SEA.FMNLMPH7901002060/7961005885                                                                                                  
12000I     O31E912510700025107201809110940 00025107MPH7901002060/7961005885 0040                        00025103                                                                                                                                                                                                      
