12000I     O31A112510700025107201905201246100025107MPH7901009053/7961007495       10002510300029474                                 L31790                              YNR01-SG                        20190603         N 00038274        SEA.FMNLLIGHTING                                                       O   
12000I     O31A212510700025107201905201246100025107MPH7901009053/7961007495     FOB0                              USD                                                        00025103201906030002510300025103                                            00038274                                                     
12000I     O31A812510700025107201905201246100025107MPH7901009053/7961007495     FOB                                                                                                                                                                                                                                   
12000I     O31E112510700025107201905201246100025107MPH7901009053/7961007495 0010EFDHV15D65A                                                 00040000  000000000000120000001020190603SEA.FMNLMPH7901009053/7961007495                                                                                                  
12000I     O31E912510700025107201905201246 00025107MPH7901009053/7961007495 0010                        00025103                                                                                                                                                                                                      
