12000I     O31A112510700025107201906201841100025107MPH7901009988/7961007785       10002510300029474                                 L31790                              YNR01-SG                        20190705         N 00038274        SEA.FMNLLIGHTING                                                       O   
12000I     O31A212510700025107201906201841100025107MPH7901009988/7961007785     FOB0                              USD                                                        00025103201907050002510300025103                                            00038274                                                     
12000I     O31A812510700025107201906201841100025107MPH7901009988/7961007785     FOB                                                                                                                                                                                                                                   
12000I     O31E112510700025107201906201841100025107MPH7901009988/7961007785 0010EFU8E652V                                                   00090000  000000000000120000001020190705SEA.FMNLMPH7901009988/7961007785                                                                                                  
12000I     O31E912510700025107201906201841 00025107MPH7901009988/7961007785 0010                        00025103                                                                                                                                                                                                      
