00025103   O31A112511300025113201609260846100025113MNZ156615/P84982             A  0002510300029671                                 S31790ERASMUSJ                      NCKE, MS. CHUI HONG, MICHELLE MI20161011        1N10003827420161024SEA.FAKLLIGHTING                                                       O   
00025103   O31A212511300025113201609260846100025113MNZ156615/P84982             FOB0                              USD                                                                20161120                SCMM                                        00038274                                                     
00025103   O31E112511300025113201609260846100025113MNZ156615/P84982         0001EFDHV15L27BE        EFDHV15L27BE                            00011520  0000000012239400000010                                         ATP Auto Generate                                                                                
00025103   O31E112511300025113201609260846100025113MNZ156615/P84982         0002EFDHV23D65BE        EFDHV23D65BE                            00011520  0000000000152200000010                                         ATP Auto Generate                                                                                
00025103   O31E112511300025113201609260846100025113MNZ156615/P84982         0003EFDHV23D65E         EFDHV23D65E                             00011520  0000000000152200000010                                         ATP Auto Generate                                                                                
00025103   O31A112511300025113201609260846100025113MNZ156625/P84981             A  0002510300029671                                 S31790ERASMUSJ                      NCKE, MS. CHUI HONG, MICHELLE MI20161011        1N10003827420161024SEA.FAKLLIGHTING                                                       O   
00025103   O31A212511300025113201609260846100025113MNZ156625/P84981             FOB0                              USD                                                                20161120                SCMM                                        00038274                                                     
00025103   O31E112511300025113201609260846100025113MNZ156625/P84981         0001LDAHV10DG4A1        LDAHV10DG4A1                            00005000  0000000024714400000010                                         ATP Auto Generate                                                                                
00025103   O31E112511300025113201609260846100025113MNZ156625/P84981         0002LDAHV10DG4BA        LDAHV10DG4BA                            00005000  0000000024714400000010                                         ATP Auto Generate                                                                                
00025103   O31E112511300025113201609260846100025113MNZ156625/P84981         0003LDAHV10LG4A1        LDAHV10LG4A1                            00005000  0000000024714400000010                                         ATP Auto Generate                                                                                
00025103   O31E112511300025113201609260846100025113MNZ156625/P84981         0004LDAHV10LG4BA        LDAHV10LG4BA                            00005000  0000000024714400000010                                         ATP Auto Generate                                                                                
00025103   O31A112510800025108201609260939100025108MST156666/7931000712         A  0002510300039130                                 S31790                              NCKE, MS. CHUI HONG, MICHELLE MI20161011        1N10003827420161024SEA.FLKGLIGHTING                                                       O   
00025103   O31A212510800025108201609260939100025108MST156666/7931000712         FOB0                              USD                                                        00039130201611100003913000039130SCMM                                        00038274                                                     
00025103   O31E112510800025108201609260939100025108MST156666/7931000712     0001EFDHV25D65T                                                 00432000  0000000000152200000010        SEA.FLKG7931000712                                                                                                                
00025103   O31E912510800025108201609260939 00025108MST156666/7931000712     0001                        00039130                                                                                                                                                                                                      
00025103   O31E112510800025108201609260939100025108MST156666/7931000712     0002EFDHV25L27T                                                 00043200  0000000000152200000010        SEA.FLKG7931000712                                                                                                                
00025103   O31E912510800025108201609260939 00025108MST156666/7931000712     0002                        00039130                                                                                                                                                                                                      
00025103   O31E112510800025108201609260939100025108MST156666/7931000712     0003EFDHV42D65A                                                 00008160  0000000030138400000010        SEA.FLKG7931000712                                                                                                                
00025103   O31E912510800025108201609260939 00025108MST156666/7931000712     0003                        00039130                                                                                                                                                                                                      
00025103   O31E112510800025108201609260939100025108MST156666/7931000712     0004EFU11E652V                                                  00027000  0000000012234400000010        SEA.FLKG7931000712                                                                                                                
00025103   O31E912510800025108201609260939 00025108MST156666/7931000712     0004                        00039130                                                                                                                                                                                                      
00025103   O31E112510800025108201609260939100025108MST156666/7931000712     0005LDAHV10LG4A                                                 00020000  0000000023537400000010        SEA.FLKG7931000712                                                                                                                
00025103   O31E912510800025108201609260939 00025108MST156666/7931000712     0005                        00039130                                                                                                                                                                                                      
00025103   O31E112510800025108201609260939100025108MST156666/7931000712     0006LDAHV12DG4A                                                 00030000  0000000029136400000010        SEA.FLKG7931000712                                                                                                                
00025103   O31E912510800025108201609260939 00025108MST156666/7931000712     0006                        00039130                                                                                                                                                                                                      
00025103   O31E112510800025108201609260939100025108MST156666/7931000712     0007LDAHV7LG4A                                                  00050000  0000000013892400000010        SEA.FLKG7931000712                                                                                                                
00025103   O31E912510800025108201609260939 00025108MST156666/7931000712     0007                        00039130                                                                                                                                                                                                      
00025103   O31E112510800025108201609260939100025108MST156666/7931000712     0008LDR400N                                                     00009000  0000000003535200000010        SEA.FLKG7931000712                                                                                                                
00025103   O31E912510800025108201609260939 00025108MST156666/7931000712     0008                        00039130                                                                                                                                                                                                      
