00025103   O31A112510800025108201710200643100025108MST168578/7931003254         A  0002510300039130                                 S31790                              YCKE, MS. CHUI HONG, MICHELLE MI20171025        1N10003827420171025SEA.FLKGLIGHTING                                                       O   
00025103   O31A212510800025108201710200643100025108MST168578/7931003254         FOB0                              USD                                                        00039130201711120003913000039130                                            00038274                                                     
00025103   O31E112510800025108201710200643100025108MST168578/7931003254     0001LDR400N                                                     00001000  000000032154740000001020171105SEA.FLKG7931003254                                                                                                                
00025103   O31E912510800025108201710200643 00025108MST168578/7931003254     0001                        00039130                                                                                                                                                                                                      
00025103   O31A112510800025108201710200643100025108MST168579/7931003253         A  0002510300039130                                 S31790                              YCKE, MS. CHUI HONG, MICHELLE MI20171025        1N10003827420171025SEA.FLKGLIGHTING                                                       O   
00025103   O31A212510800025108201710200643100025108MST168579/7931003253         FOB0                              USD                                                        00039130201711120003913000039130                                            00038274                                                     
00025103   O31E112510800025108201710200643100025108MST168579/7931003253     0001EFUHV18D65A                                                 00130000  000000001342340000001020171105SEA.FLKG7931003253                                                                                                                
00025103   O31E912510800025108201710200643 00025108MST168579/7931003253     0001                        00039130                                                                                                                                                                                                      
00025103   O31E112510800025108201710200643100025108MST168579/7931003253     0002EFUHV18L27A                                                 00007000  000000001342340000001020171105SEA.FLKG7931003253                                                                                                                
00025103   O31E912510800025108201710200643 00025108MST168579/7931003253     0002                        00039130                                                                                                                                                                                                      
