00025103   O31A112510800025108201603281138100025108MST151348/LIGH-140950        A  0002510300039130                                 S31790                              NCKE, MS. CHUI HONG, MICHELLE MI20160412        1N10003827420160424SEA.FLKGLIGHTING                                                       O   
00025103   O31A212510800025108201603281138100025108MST151348/LIGH-140950        FOB0                              USD                                                                20160510                SCMM                                        00038274                                                     
00025103   O31E112510800025108201603281138100025108MST151348/LIGH-140950    0001EFDHV11D65T         EFDHV11D65T                             00009600  0000000012239400000010                LIGH-140950                                                                                                               
00025103   O31E112510800025108201603281138100025108MST151348/LIGH-140950    0002EFDHV11L27T         EFDHV11L27T                             00022080  0000000012239400000010                LIGH-140950                                                                                                               
00025103   O31E112510800025108201603281138100025108MST151348/LIGH-140950    0003EFDHV15D65T         EFDHV15D65T                             00112320  0000000012239400000010                LIGH-140950                                                                                                               
00025103   O31E112510800025108201603281138100025108MST151348/LIGH-140950    0004EFDHV15L27T         EFDHV15L27T                             00156480  0000000012239400000010                LIGH-140950                                                                                                               
00025103   O31E112510800025108201603281138100025108MST151348/LIGH-140950    0005EFDHV20D65T         EFDHV20D65T                             00027840  0000000000152200000010                LIGH-140950                                                                                                               
00025103   O31E112510800025108201603281138100025108MST151348/LIGH-140950    0006EFDHV23D65T         EFDHV23D65T                             00032640  0000000000152200000010                LIGH-140950                                                                                                               
00025103   O31E112510800025108201603281138100025108MST151348/LIGH-140950    0007EFDHV25D65T         EFDHV25D65T                             01464000  0000000000152200000010                LIGH-140950                                                                                                               
00025103   O31E112510800025108201603281138100025108MST151348/LIGH-140950    0008EFDHV42D65A         EFDHV42D65A                             00048000  0000000030138400000010                LIGH-140950                                                                                                               
00025103   O31E112510800025108201603281138100025108MST151348/LIGH-140950    0009EFU11E652V          EFU11E652V                              00027000  0000000012234400000010                LIGH-140950                                                                                                               
00025103   O31E112510800025108201603281138100025108MST151348/LIGH-140950    0010EFU14E272V          EFU14E272V                              00135000  0000000013083400000010                LIGH-140950                                                                                                               
00025103   O31E112510800025108201603281138100025108MST151348/LIGH-140950    0011EFU14E652V          EFU14E652V                              00600000  0000000013083400000010                LIGH-140950                                                                                                               
00025103   O31E112510800025108201603281138100025108MST151348/LIGH-140950    0012EFU8E652V           EFU8E652V                               00150000  0000000011971400000010                LIGH-140950                                                                                                               
00025103   O31E112510800025108201603281138100025108MST151348/LIGH-140950    0013EFUHV18D65A         EFUHV18D65A                             00200000  0000000013423400000010                LIGH-140950                                                                                                               
00025103   O31E112510800025108201603281138100025108MST151348/LIGH-140950    0014LDR400N             LDR400N                                 00010000  0000000003535200000010                LIGH-140950                                                                                                               
