12000I     O31A112511000025110201902251443100025110MMQ7901006597/7921006225       10002510300039140                                 L31790                              NNR01-SG                        20190410         N 0003827420190325SEA.FPKLLIGHTING                                                       O   
12000I     O31A212511000025110201902251443100025110MMQ7901006597/7921006225     FOB0                              USD                                                        00025103201904100002510300025103SCMM                                        00038274                                                     
12000I     O31A812511000025110201902251443100025110MMQ7901006597/7921006225     FOB                                                                                                                                                                                                                                   
12000I     O31E112511000025110201902251443100025110MMQ7901006597/7921006225 0010EFDHV15D65T1                                                00009600  000000000000120000001020190410SEA.FPKLMMQ7901006597/7921006225                                                                                                  
12000I     O31E912511000025110201902251443 00025110MMQ7901006597/7921006225 0010                        00025103                                                                                                                                                                                                      
12000I     O31E112511000025110201902251443100025110MMQ7901006597/7921006225 0020EFDHV20D65T1                                                00019200  000000000000120000001020190410SEA.FPKLMMQ7901006597/7921006225                                                                                                  
12000I     O31E912511000025110201902251443 00025110MMQ7901006597/7921006225 0020                        00025103                                                                                                                                                                                                      
12000I     O31E112511000025110201902251443100025110MMQ7901006597/7921006225 0030EFDHV23D65T1                                                00019200  000000000000120000001020190410SEA.FPKLMMQ7901006597/7921006225                                                                                                  
12000I     O31E912511000025110201902251443 00025110MMQ7901006597/7921006225 0030                        00025103                                                                                                                                                                                                      
12000I     O31E112511000025110201902251443100025110MMQ7901006597/7921006225 0040EFUHV18D65A3                                                00385000  000000000000120000001020190410SEA.FPKLMMQ7901006597/7921006225                                                                                                  
12000I     O31E912511000025110201902251443 00025110MMQ7901006597/7921006225 0040                        00025103                                                                                                                                                                                                      
