12000I     O31A112510800025108201902251809100025108MST7901006722/7931006117       10002510300039130                                 L31790                              NNR01-SG                        20190410         N 0003827420190325SEA.FLKGLIGHTING                                                       O   
12000I     O31A212510800025108201902251809100025108MST7901006722/7931006117     FOB0                              USD                                                        00025103201904100002510300025103SCMM                                        00038274                                                     
12000I     O31A812510800025108201902251809100025108MST7901006722/7931006117     FOB                                                                                                                                                                                                                                   
12000I     O31E112510800025108201902251809100025108MST7901006722/7931006117 0010LDAHV12DH6T                                                 00162000  000000000011520000001020190410SEA.FLKGMST7901006722/7931006117                                                                                                  
12000I     O31E912510800025108201902251809 00025108MST7901006722/7931006117 0010                        00025103                                                                                                                                                                                                      
12000I     O31E112510800025108201902251809100025108MST7901006722/7931006117 0020LDAHV12LH6T                                                 00040000  000000000011520000001020190410SEA.FLKGMST7901006722/7931006117                                                                                                  
12000I     O31E912510800025108201902251809 00025108MST7901006722/7931006117 0020                        00025103                                                                                                                                                                                                      
12000I     O31E112510800025108201902251809100025108MST7901006722/7931006117 0030LDAHV15DH6T                                                 00099000  000000000014220000001020190410SEA.FLKGMST7901006722/7931006117                                                                                                  
12000I     O31E912510800025108201902251809 00025108MST7901006722/7931006117 0030                        00025103                                                                                                                                                                                                      
12000I     O31E112510800025108201902251809100025108MST7901006722/7931006117 0040LDAHV15LH6T                                                 00025000  000000000014220000001020190410SEA.FLKGMST7901006722/7931006117                                                                                                  
12000I     O31E912510800025108201902251809 00025108MST7901006722/7931006117 0040                        00025103                                                                                                                                                                                                      
12000I     O31E112510800025108201902251809100025108MST7901006722/7931006117 0050LDAHV20DH5T                                                 00038500  000000000000120000001020190410SEA.FLKGMST7901006722/7931006117                                                                                                  
12000I     O31E912510800025108201902251809 00025108MST7901006722/7931006117 0050                        00025103                                                                                                                                                                                                      
12000I     O31E112510800025108201902251809100025108MST7901006722/7931006117 0060LDAHV30DH5T                                                 00030000  000000000000120000001020190410SEA.FLKGMST7901006722/7931006117                                                                                                  
12000I     O31E912510800025108201902251809 00025108MST7901006722/7931006117 0060                        00025103                                                                                                                                                                                                      
12000I     O31E112510800025108201902251809100025108MST7901006722/7931006117 0070LDAHV3DH6T                                                  00050000  000000000005520000001020190410SEA.FLKGMST7901006722/7931006117                                                                                                  
12000I     O31E912510800025108201902251809 00025108MST7901006722/7931006117 0070                        00025103                                                                                                                                                                                                      
12000I     O31E112510800025108201902251809100025108MST7901006722/7931006117 0080LDAHV3LH6T                                                  00020000  000000000005520000001020190410SEA.FLKGMST7901006722/7931006117                                                                                                  
12000I     O31E912510800025108201902251809 00025108MST7901006722/7931006117 0080                        00025103                                                                                                                                                                                                      
12000I     O31E112510800025108201902251809100025108MST7901006722/7931006117 0090LDAHV5DH6T                                                  00130000  000000000000610000001020190410SEA.FLKGMST7901006722/7931006117                                                                                                  
12000I     O31E912510800025108201902251809 00025108MST7901006722/7931006117 0090                        00025103                                                                                                                                                                                                      
12000I     O31E112510800025108201902251809100025108MST7901006722/7931006117 0100LDAHV5LH6T                                                  00050000  000000000000610000001020190410SEA.FLKGMST7901006722/7931006117                                                                                                  
12000I     O31E912510800025108201902251809 00025108MST7901006722/7931006117 0100                        00025103                                                                                                                                                                                                      
12000I     O31E112510800025108201902251809100025108MST7901006722/7931006117 0110LDAHV7DH6T                                                  00297000  000000000006820000001020190410SEA.FLKGMST7901006722/7931006117                                                                                                  
12000I     O31E912510800025108201902251809 00025108MST7901006722/7931006117 0110                        00025103                                                                                                                                                                                                      
12000I     O31E112510800025108201902251809100025108MST7901006722/7931006117 0120LDAHV7LH6T                                                  00070000  000000000006820000001020190410SEA.FLKGMST7901006722/7931006117                                                                                                  
12000I     O31E912510800025108201902251809 00025108MST7901006722/7931006117 0120                        00025103                                                                                                                                                                                                      
12000I     O31E112510800025108201902251809100025108MST7901006722/7931006117 0130LDAHV9DH6T                                                  00100000  000000000008920000001020190410SEA.FLKGMST7901006722/7931006117                                                                                                  
12000I     O31E912510800025108201902251809 00025108MST7901006722/7931006117 0130                        00025103                                                                                                                                                                                                      
12000I     O31E112510800025108201902251809100025108MST7901006722/7931006117 0140LDAHV9LH6T                                                  00065000  000000000008920000001020190410SEA.FLKGMST7901006722/7931006117                                                                                                  
12000I     O31E912510800025108201902251809 00025108MST7901006722/7931006117 0140                        00025103                                                                                                                                                                                                      
12000I     O31E112510800025108201902251809100025108MST7901006722/7931006117 0150LDS300D2N                                                   00018000  000000000000120000001020190410SEA.FLKGMST7901006722/7931006117                                                                                                  
12000I     O31E912510800025108201902251809 00025108MST7901006722/7931006117 0150                        00025103                                                                                                                                                                                                      
12000I     O31A112510800025108201902251809100025108MST7901006723/7931006118       10002510300039130                                 L31790                              NNR01-SG                        20190410         N 0003827420190325SEA.FLKGLIGHTING                                                       O   
12000I     O31A212510800025108201902251809100025108MST7901006723/7931006118     FOB0                              USD                                                        00025103201904100002510300025103SCMM                                        00038274                                                     
12000I     O31A812510800025108201902251809100025108MST7901006723/7931006118     FOB                                                                                                                                                                                                                                   
12000I     O31E112510800025108201902251809100025108MST7901006723/7931006118 0010EFDHV15D65T1                                                00072000  000000000000120000001020190410SEA.FLKGMST7901006723/7931006118                                                                                                  
12000I     O31E912510800025108201902251809 00025108MST7901006723/7931006118 0010                        00025103                                                                                                                                                                                                      
12000I     O31E112510800025108201902251809100025108MST7901006723/7931006118 0020EFDHV20D65T1                                                00011520  000000000000120000001020190410SEA.FLKGMST7901006723/7931006118                                                                                                  
12000I     O31E912510800025108201902251809 00025108MST7901006723/7931006118 0020                        00025103                                                                                                                                                                                                      
12000I     O31E112510800025108201902251809100025108MST7901006723/7931006118 0030EFDHV32D65A                                                 00012000  000000000000120000001020190410SEA.FLKGMST7901006723/7931006118                                                                                                  
12000I     O31E912510800025108201902251809 00025108MST7901006723/7931006118 0030                        00025103                                                                                                                                                                                                      
12000I     O31E112510800025108201902251809100025108MST7901006723/7931006118 0040EFDHV42D65A                                                 00009600  000000000000120000001020190410SEA.FLKGMST7901006723/7931006118                                                                                                  
12000I     O31E912510800025108201902251809 00025108MST7901006723/7931006118 0040                        00025103                                                                                                                                                                                                      
12000I     O31E112510800025108201902251809100025108MST7901006723/7931006118 0050EFU11E652V                                                  00040000  000000000000120000001020190410SEA.FLKGMST7901006723/7931006118                                                                                                  
12000I     O31E912510800025108201902251809 00025108MST7901006723/7931006118 0050                        00025103                                                                                                                                                                                                      
12000I     O31E112510800025108201902251809100025108MST7901006723/7931006118 0060EFU14E272V1                                                 00050000  000000000000120000001020190410SEA.FLKGMST7901006723/7931006118                                                                                                  
12000I     O31E912510800025108201902251809 00025108MST7901006723/7931006118 0060                        00025103                                                                                                                                                                                                      
12000I     O31E112510800025108201902251809100025108MST7901006723/7931006118 0070EFU14E652V1                                                 00150000  000000000000120000001020190410SEA.FLKGMST7901006723/7931006118                                                                                                  
12000I     O31E912510800025108201902251809 00025108MST7901006723/7931006118 0070                        00025103                                                                                                                                                                                                      
12000I     O31E112510800025108201902251809100025108MST7901006723/7931006118 0080EFU8E652V1                                                  00105000  000000000000120000001020190410SEA.FLKGMST7901006723/7931006118                                                                                                  
12000I     O31E912510800025108201902251809 00025108MST7901006723/7931006118 0080                        00025103                                                                                                                                                                                                      
12000I     O31E112510800025108201902251809100025108MST7901006723/7931006118 0090EFUHV23D65A                                                 00030000  000000000000120000001020190410SEA.FLKGMST7901006723/7931006118                                                                                                  
12000I     O31E912510800025108201902251809 00025108MST7901006723/7931006118 0090                        00025103                                                                                                                                                                                                      
12000I     O31E112510800025108201902251809100025108MST7901006723/7931006118 0100LDR400N                                                     00015000  000000000000120000001020190410SEA.FLKGMST7901006723/7931006118                                                                                                  
12000I     O31E912510800025108201902251809 00025108MST7901006723/7931006118 0100                        00025103                                                                                                                                                                                                      
