12000I     O31A112511000025110201810021719100025110MMQ7901002811/7921004890       10002510300039140                                 L31790                              YNR01-SG                        20181022         N 00038274        SEA.FPKLLIGHTING                                                       O   
12000I     O31A212511000025110201810021719100025110MMQ7901002811/7921004890     FOB0                              USD                                                        00025103201810220002510300025103                                            00038274                                                     
12000I     O31A812511000025110201810021719100025110MMQ7901002811/7921004890     FOB                                                                                                                                                                                                                                   
12000I     O31E112511000025110201810021719100025110MMQ7901002811/7921004890 0010EFUHV18D65A3                                                00200000  000000000000120000001020181022SEA.FPKLMMQ7901002811/7921004890                                                                                                  
12000I     O31E912511000025110201810021719 00025110MMQ7901002811/7921004890 0010                        00025103                                                                                                                                                                                                      
