00025103   O31A112510800025108201606171034100025108MST153742/7931000065         A  0002510300039130                                 S31790                              YCKE, MS. CHUI HONG, MICHELLE MI20160622        1N100038274        SEA.FLKGLIGHTING                                                       O   
00025103   O31A212510800025108201606171034100025108MST153742/7931000065         FOB0                              USD                                                        00039130201607020003913000039130                                            00038274                                                     
00025103   O31E112510800025108201606171034100025108MST153742/7931000065     0001LDAHV10LG4A                                                 00070000  0000000023537400000010        SEA.FLKG7931000065                                                                                                                
00025103   O31E912510800025108201606171034 00025108MST153742/7931000065     0001                        00039130                                                                                                                                                                                                      
00025103   O31E112510800025108201606171034100025108MST153742/7931000065     0002LDAHV12LG4A                                                 00020000  0000000029136400000010        SEA.FLKG7931000065                                                                                                                
00025103   O31E912510800025108201606171034 00025108MST153742/7931000065     0002                        00039130                                                                                                                                                                                                      
00025103   O31E112510800025108201606171034100025108MST153742/7931000065     0003LDAHV8LG4A                                                  00060000  0000000017861400000010        SEA.FLKG7931000065                                                                                                                
00025103   O31E912510800025108201606171034 00025108MST153742/7931000065     0003                        00039130                                                                                                                                                                                                      
