12000I     O31A112510800025108201908241008100025108MST7901011855/7931007208       10002510300039130                                 L31790                              NNR01-SG                        20191010         N 0003827420190923SEA.FLKGLIGHTING                                                       O   
12000I     O31A212510800025108201908241008100025108MST7901011855/7931007208     FOB0                              USD                                                        00025103201910100002510300025103SCMM                                        00038274                                                     
12000I     O31A812510800025108201908241008100025108MST7901011855/7931007208     FOB                                                                                                                                                                                                                                   
12000I     O31E112510800025108201908241008100025108MST7901011855/7931007208 0010LDAHV12DH6T                                                 00075000  000000000011520000001020191010SEA.FLKGMST7901011855/7931007208                                                                                                  
12000I     O31E912510800025108201908241008 00025108MST7901011855/7931007208 0010                        00025103                                                                                                                                                                                                      
12000I     O31E112510800025108201908241008100025108MST7901011855/7931007208 0020LDAHV15DH6T                                                 00050000  000000000014220000001020191010SEA.FLKGMST7901011855/7931007208                                                                                                  
12000I     O31E912510800025108201908241008 00025108MST7901011855/7931007208 0020                        00025103                                                                                                                                                                                                      
12000I     O31E112510800025108201908241008100025108MST7901011855/7931007208 0030LDAHV20DH5T                                                 00090000  000000000000120000001020191010SEA.FLKGMST7901011855/7931007208                                                                                                  
12000I     O31E912510800025108201908241008 00025108MST7901011855/7931007208 0030                        00025103                                                                                                                                                                                                      
12000I     O31E112510800025108201908241008100025108MST7901011855/7931007208 0040LDAHV30DH5T                                                 00046000  000000000000120000001020191010SEA.FLKGMST7901011855/7931007208                                                                                                  
12000I     O31E912510800025108201908241008 00025108MST7901011855/7931007208 0040                        00025103                                                                                                                                                                                                      
12000I     O31E112510800025108201908241008100025108MST7901011855/7931007208 0050LDAHV3DH6T                                                  00108000  000000000005520000001020191010SEA.FLKGMST7901011855/7931007208                                                                                                  
12000I     O31E912510800025108201908241008 00025108MST7901011855/7931007208 0050                        00025103                                                                                                                                                                                                      
12000I     O31E112510800025108201908241008100025108MST7901011855/7931007208 0060LDAHV3LH6T                                                  00030000  000000000005520000001020191010SEA.FLKGMST7901011855/7931007208                                                                                                  
12000I     O31E912510800025108201908241008 00025108MST7901011855/7931007208 0060                        00025103                                                                                                                                                                                                      
12000I     O31E112510800025108201908241008100025108MST7901011855/7931007208 0070LDAHV5DH6T                                                  00153000  000000000000610000001020191010SEA.FLKGMST7901011855/7931007208                                                                                                  
12000I     O31E912510800025108201908241008 00025108MST7901011855/7931007208 0070                        00025103                                                                                                                                                                                                      
12000I     O31E112510800025108201908241008100025108MST7901011855/7931007208 0080LDAHV7DH6T                                                  00350000  000000000006820000001020191010SEA.FLKGMST7901011855/7931007208                                                                                                  
12000I     O31E912510800025108201908241008 00025108MST7901011855/7931007208 0080                        00025103                                                                                                                                                                                                      
12000I     O31E112510800025108201908241008100025108MST7901011855/7931007208 0090LDAHV7LH6T                                                  00090000  000000000006820000001020191010SEA.FLKGMST7901011855/7931007208                                                                                                  
12000I     O31E912510800025108201908241008 00025108MST7901011855/7931007208 0090                        00025103                                                                                                                                                                                                      
12000I     O31E112510800025108201908241008100025108MST7901011855/7931007208 0100LDAHV9DH6T                                                  00100000  000000000008920000001020191010SEA.FLKGMST7901011855/7931007208                                                                                                  
12000I     O31E912510800025108201908241008 00025108MST7901011855/7931007208 0100                        00025103                                                                                                                                                                                                      
12000I     O31E112510800025108201908241008100025108MST7901011855/7931007208 0110LDAHV9LH6T                                                  00050000  000000000008920000001020191010SEA.FLKGMST7901011855/7931007208                                                                                                  
12000I     O31E912510800025108201908241008 00025108MST7901011855/7931007208 0110                        00025103                                                                                                                                                                                                      
12000I     O31E112510800025108201908241008100025108MST7901011855/7931007208 0120LDTHV11D65GA1                                               00030000  000000000000120000001020191010SEA.FLKGMST7901011855/7931007208                                                                                                  
12000I     O31E912510800025108201908241008 00025108MST7901011855/7931007208 0120                        00025103                                                                                                                                                                                                      
12000I     O31E112510800025108201908241008100025108MST7901011855/7931007208 0130LDTHV11L30GA1                                               00010000  000000000000120000001020191010SEA.FLKGMST7901011855/7931007208                                                                                                  
12000I     O31E912510800025108201908241008 00025108MST7901011855/7931007208 0130                        00025103                                                                                                                                                                                                      
12000I     O31E112510800025108201908241008100025108MST7901011855/7931007208 0140LDTHV7D65GA1                                                00032000  000000000000120000001020191010SEA.FLKGMST7901011855/7931007208                                                                                                  
12000I     O31E912510800025108201908241008 00025108MST7901011855/7931007208 0140                        00025103                                                                                                                                                                                                      
12000I     O31A112510800025108201908241008100025108MST7901011856/7931007209       10002510300039130                                 L31790                              NNR01-SG                        20191010         N 0003827420190923SEA.FLKGLIGHTING                                                       O   
12000I     O31A212510800025108201908241008100025108MST7901011856/7931007209     FOB0                              USD                                                        00025103201910100002510300025103SCMM                                        00038274                                                     
12000I     O31A812510800025108201908241008100025108MST7901011856/7931007209     FOB                                                                                                                                                                                                                                   
12000I     O31E112510800025108201908241008100025108MST7901011856/7931007209 0010EFDHV11D65T                                                 00009600  000000000000120000001020191010SEA.FLKGMST7901011856/7931007209                                                                                                  
12000I     O31E912510800025108201908241008 00025108MST7901011856/7931007209 0010                        00025103                                                                                                                                                                                                      
12000I     O31E112510800025108201908241008100025108MST7901011856/7931007209 0020EFDHV15D65T1                                                00216000  000000000000120000001020191010SEA.FLKGMST7901011856/7931007209                                                                                                  
12000I     O31E912510800025108201908241008 00025108MST7901011856/7931007209 0020                        00025103                                                                                                                                                                                                      
12000I     O31E112510800025108201908241008100025108MST7901011856/7931007209 0030EFDHV15L27T1                                                00041280  000000000000120000001020191010SEA.FLKGMST7901011856/7931007209                                                                                                  
12000I     O31E912510800025108201908241008 00025108MST7901011856/7931007209 0030                        00025103                                                                                                                                                                                                      
12000I     O31E112510800025108201908241008100025108MST7901011856/7931007209 0040EFDHV20D65T1                                                00009600  000000000000120000001020191010SEA.FLKGMST7901011856/7931007209                                                                                                  
12000I     O31E912510800025108201908241008 00025108MST7901011856/7931007209 0040                        00025103                                                                                                                                                                                                      
12000I     O31E112510800025108201908241008100025108MST7901011856/7931007209 0050EFDHV20L27T                                                 00001920  000000000015220000001020191010SEA.FLKGMST7901011856/7931007209                                                                                                  
12000I     O31E912510800025108201908241008 00025108MST7901011856/7931007209 0050                        00025103                                                                                                                                                                                                      
12000I     O31E112510800025108201908241008100025108MST7901011856/7931007209 0060EFDHV23D65T1                                                00009600  000000000000120000001020191010SEA.FLKGMST7901011856/7931007209                                                                                                  
12000I     O31E912510800025108201908241008 00025108MST7901011856/7931007209 0060                        00025103                                                                                                                                                                                                      
12000I     O31E112510800025108201908241008100025108MST7901011856/7931007209 0070EFDHV25D65T                                                 01200000  000000000014820000001020191010SEA.FLKGMST7901011856/7931007209                                                                                                  
12000I     O31E912510800025108201908241008 00025108MST7901011856/7931007209 0070                        00025103                                                                                                                                                                                                      
12000I     O31E112510800025108201908241008100025108MST7901011856/7931007209 0080EFDHV25L27T                                                 00021120  000000000014820000001020191010SEA.FLKGMST7901011856/7931007209                                                                                                  
12000I     O31E912510800025108201908241008 00025108MST7901011856/7931007209 0080                        00025103                                                                                                                                                                                                      
12000I     O31E112510800025108201908241008100025108MST7901011856/7931007209 0090EFDHV32D65A                                                 00012000  000000000000120000001020191010SEA.FLKGMST7901011856/7931007209                                                                                                  
12000I     O31E912510800025108201908241008 00025108MST7901011856/7931007209 0090                        00025103                                                                                                                                                                                                      
12000I     O31E112510800025108201908241008100025108MST7901011856/7931007209 0100EFDHV42D65A                                                 00014880  000000000000120000001020191010SEA.FLKGMST7901011856/7931007209                                                                                                  
12000I     O31E912510800025108201908241008 00025108MST7901011856/7931007209 0100                        00025103                                                                                                                                                                                                      
12000I     O31E112510800025108201908241008100025108MST7901011856/7931007209 0110EFU11E652V                                                  00060000  000000000012220000001020191010SEA.FLKGMST7901011856/7931007209                                                                                                  
12000I     O31E912510800025108201908241008 00025108MST7901011856/7931007209 0110                        00025103                                                                                                                                                                                                      
12000I     O31E112510800025108201908241008100025108MST7901011856/7931007209 0120EFU14E272V1                                                 00072000  000000000000120000001020191010SEA.FLKGMST7901011856/7931007209                                                                                                  
12000I     O31E912510800025108201908241008 00025108MST7901011856/7931007209 0120                        00025103                                                                                                                                                                                                      
12000I     O31E112510800025108201908241008100025108MST7901011856/7931007209 0130EFU14E652V1                                                 00600000  000000000000120000001020191010SEA.FLKGMST7901011856/7931007209                                                                                                  
12000I     O31E912510800025108201908241008 00025108MST7901011856/7931007209 0130                        00025103                                                                                                                                                                                                      
12000I     O31E112510800025108201908241008100025108MST7901011856/7931007209 0140EFU8E652V1                                                  00080000  000000000000120000001020191010SEA.FLKGMST7901011856/7931007209                                                                                                  
12000I     O31E912510800025108201908241008 00025108MST7901011856/7931007209 0140                        00025103                                                                                                                                                                                                      
12000I     O31E112510800025108201908241008100025108MST7901011856/7931007209 0150EFUHV18D65A                                                 00500000  000000000000120000001020191010SEA.FLKGMST7901011856/7931007209                                                                                                  
12000I     O31E912510800025108201908241008 00025108MST7901011856/7931007209 0150                        00025103                                                                                                                                                                                                      
12000I     O31E112510800025108201908241008100025108MST7901011856/7931007209 0160EFUHV23D65A                                                 00030000  000000000000120000001020191010SEA.FLKGMST7901011856/7931007209                                                                                                  
12000I     O31E912510800025108201908241008 00025108MST7901011856/7931007209 0160                        00025103                                                                                                                                                                                                      
