00025103   O31A112511300025113201608291143100025113MNZ155755/P84663             A  0002510300029671                                 S31790ERASMUSJ                      NCKE, MS. CHUI HONG, MICHELLE MI20160913        1N10003827420160923SEA.FAKLLIGHTING                                                       O   
00025103   O31A212511300025113201608291143100025113MNZ155755/P84663             FOB0                              USD                                                                20161020                SCMM                                        00038274                                                     
00025103   O31E112511300025113201608291143100025113MNZ155755/P84663         0001LDAHV8LG4A1         LDAHV8LG4A1                             00015000  0000000021072400000010                                         ATP Auto Generate                                                                                
00025103   O31E112511300025113201608291143100025113MNZ155755/P84663         0002LDAHV8LG4BA         LDAHV8LG4BA                             00015000  0000000021072400000010                                         ATP Auto Generate                                                                                
00025103   O31E112511300025113201608291143100025113MNZ155755/P84663         0003LDAHV10DG4A1        LDAHV10DG4A1                            00025000  0000000024714400000010                                         ATP Auto Generate                                                                                
00025103   O31E112511300025113201608291143100025113MNZ155755/P84663         0004LDAHV10DG4BA        LDAHV10DG4BA                            00025000  0000000024714400000010                                         ATP Auto Generate                                                                                
00025103   O31E112511300025113201608291143100025113MNZ155755/P84663         0005LDAHV10LG4A1        LDAHV10LG4A1                            00025000  0000000024714400000010                                         ATP Auto Generate                                                                                
00025103   O31E112511300025113201608291143100025113MNZ155755/P84663         0006LDAHV10LG4BA        LDAHV10LG4BA                            00025000  0000000024714400000010                                         ATP Auto Generate                                                                                
00025103   O31E112511300025113201608291143100025113MNZ155755/P84663         0007LDAHV7DG4A1         LDAHV7DG4A1                             00017500  0000000001717300000010                                         ATP Auto Generate                                                                                
00025103   O31E112511300025113201608291143100025113MNZ155755/P84663         0008LDAHV7DG4BA         LDAHV7DG4BA                             00017500  0000000001717300000010                                         ATP Auto Generate                                                                                
00025103   O31E112511300025113201608291143100025113MNZ155755/P84663         0009LDAHV7LG4A1         LDAHV7LG4A1                             00017500  0000000001717300000010                                         ATP Auto Generate                                                                                
00025103   O31E112511300025113201608291143100025113MNZ155755/P84663         0010LDAHV7LG4BA         LDAHV7LG4BA                             00017500  0000000001717300000010                                         ATP Auto Generate                                                                                
00025103   O31E112511300025113201608291143100025113MNZ155755/P84663         0011LDAHV8DG4A1         LDAHV8DG4A1                             00010000  0000000021072400000010                                         ATP Auto Generate                                                                                
00025103   O31E112511300025113201608291143100025113MNZ155755/P84663         0012LDAHV8DG4BA         LDAHV8DG4BA                             00015000  0000000021072400000010                                         ATP Auto Generate                                                                                
