12000I     O31A112511000025110201901281149100025110MMQ7901005731/7921005992       10002510300039140                                 L31790                              NNR01-SG                        20190310         N 0003827420190223SEA.FKULLIGHTING                                                       O   
12000I     O31A212511000025110201901281149100025110MMQ7901005731/7921005992     FOB0                              USD                                                        00025103201903100002510300025103SCMM                                        00038274                                                     
12000I     O31A812511000025110201901281149100025110MMQ7901005731/7921005992     FOB                                                                                                                                                                                                                                   
12000I     O31E112511000025110201901281149100025110MMQ7901005731/7921005992 0010EFDHV20D65T1                                                00009600  000000000000120000001020190310SEA.FKULMMQ7901005731/7921005992                                                                                                  
12000I     O31E912511000025110201901281149 00025110MMQ7901005731/7921005992 0010                        00025103                                                                                                                                                                                                      
12000I     O31E112511000025110201901281149100025110MMQ7901005731/7921005992 0020EFDHV23D65T1                                                00009600  000000000000120000001020190310SEA.FKULMMQ7901005731/7921005992                                                                                                  
12000I     O31E912511000025110201901281149 00025110MMQ7901005731/7921005992 0020                        00025103                                                                                                                                                                                                      
12000I     O31E112511000025110201901281149100025110MMQ7901005731/7921005992 0030EFUHV18D65A3                                                00250000  000000000000120000001020190310SEA.FKULMMQ7901005731/7921005992                                                                                                  
12000I     O31E912511000025110201901281149 00025110MMQ7901005731/7921005992 0030                        00025103                                                                                                                                                                                                      
