00025103   O31A112510800025108201803271105100025108MST173320/7931004225         A  0002510300039130                                 S31790                              NCKE, MS. CHUI HONG, MICHELLE MI20180411        1N10003827420180423SEA.FLKGLIGHTING                                                       O   
00025103   O31A212510800025108201803271105100025108MST173320/7931004225         FOB0                              USD                                                        00039130201805100003913000039130SCMM                                        00038274                                                     
00025103   O31E112510800025108201803271105100025108MST173320/7931004225     0001EFDHV11D65T                                                 00029760  000000000000000000001020180503SEA.FLKG7931004225                                                                                                                
00025103   O31E912510800025108201803271105 00025108MST173320/7931004225     0001                        00039130                                                                                                                                                                                                      
00025103   O31E112510800025108201803271105100025108MST173320/7931004225     0002EFDHV15D65T1                                                00268800  000000000000000000001020180503SEA.FLKG7931004225                                                                                                                
00025103   O31E912510800025108201803271105 00025108MST173320/7931004225     0002                        00039130                                                                                                                                                                                                      
00025103   O31E112510800025108201803271105100025108MST173320/7931004225     0003EFDHV15L27T1                                                00065280  000000000000000000001020180503SEA.FLKG7931004225                                                                                                                
00025103   O31E912510800025108201803271105 00025108MST173320/7931004225     0003                        00039130                                                                                                                                                                                                      
00025103   O31E112510800025108201803271105100025108MST173320/7931004225     0004EFDHV20D65T1                                                00036480  000000000000000000001020180503SEA.FLKG7931004225                                                                                                                
00025103   O31E912510800025108201803271105 00025108MST173320/7931004225     0004                        00039130                                                                                                                                                                                                      
00025103   O31E112510800025108201803271105100025108MST173320/7931004225     0005EFDHV23D65T1                                                00026880  000000000000000000001020180503SEA.FLKG7931004225                                                                                                                
00025103   O31E912510800025108201803271105 00025108MST173320/7931004225     0005                        00039130                                                                                                                                                                                                      
00025103   O31E112510800025108201803271105100025108MST173320/7931004225     0006EFDHV25D65T                                                 01848960  000000000000000000001020180503SEA.FLKG7931004225                                                                                                                
00025103   O31E912510800025108201803271105 00025108MST173320/7931004225     0006                        00039130                                                                                                                                                                                                      
00025103   O31E112510800025108201803271105100025108MST173320/7931004225     0007EFDHV25L27T                                                 00062400  000000000000000000001020180503SEA.FLKG7931004225                                                                                                                
00025103   O31E912510800025108201803271105 00025108MST173320/7931004225     0007                        00039130                                                                                                                                                                                                      
00025103   O31E112510800025108201803271105100025108MST173320/7931004225     0008EFDHV32D65A                                                 00007920  000000000000000000001020180503SEA.FLKG7931004225                                                                                                                
00025103   O31E912510800025108201803271105 00025108MST173320/7931004225     0008                        00039130                                                                                                                                                                                                      
00025103   O31E112510800025108201803271105100025108MST173320/7931004225     0009EFDHV42D65A                                                 00019920  000000000000000000001020180503SEA.FLKG7931004225                                                                                                                
00025103   O31E912510800025108201803271105 00025108MST173320/7931004225     0009                        00039130                                                                                                                                                                                                      
00025103   O31E112510800025108201803271105100025108MST173320/7931004225     0010EFU11E652V                                                  00030000  000000000000000000001020180503SEA.FLKG7931004225                                                                                                                
00025103   O31E912510800025108201803271105 00025108MST173320/7931004225     0010                        00039130                                                                                                                                                                                                      
00025103   O31E112510800025108201803271105100025108MST173320/7931004225     0011EFU14E272V1                                                 00080000  000000000000000000001020180503SEA.FLKG7931004225                                                                                                                
00025103   O31E912510800025108201803271105 00025108MST173320/7931004225     0011                        00039130                                                                                                                                                                                                      
00025103   O31E112510800025108201803271105100025108MST173320/7931004225     0012EFU14E652V1                                                 00500000  000000000000000000001020180503SEA.FLKG7931004225                                                                                                                
00025103   O31E912510800025108201803271105 00025108MST173320/7931004225     0012                        00039130                                                                                                                                                                                                      
00025103   O31E112510800025108201803271105100025108MST173320/7931004225     0013EFU8E652V1                                                  00180000  000000000000000000001020180503SEA.FLKG7931004225                                                                                                                
00025103   O31E912510800025108201803271105 00025108MST173320/7931004225     0013                        00039130                                                                                                                                                                                                      
00025103   O31E112510800025108201803271105100025108MST173320/7931004225     0014EFUHV18D65A                                                 00380000  000000000000000000001020180503SEA.FLKG7931004225                                                                                                                
00025103   O31E912510800025108201803271105 00025108MST173320/7931004225     0014                        00039130                                                                                                                                                                                                      
00025103   O31E112510800025108201803271105100025108MST173320/7931004225     0015EFUHV18L27A                                                 00017000  000000000000000000001020180503SEA.FLKG7931004225                                                                                                                
00025103   O31E912510800025108201803271105 00025108MST173320/7931004225     0015                        00039130                                                                                                                                                                                                      
00025103   O31E112510800025108201803271105100025108MST173320/7931004225     0016EFUHV23D65A                                                 00035000  000000000000000000001020180503SEA.FLKG7931004225                                                                                                                
00025103   O31E912510800025108201803271105 00025108MST173320/7931004225     0016                        00039130                                                                                                                                                                                                      
00025103   O31A112510800025108201803271105100025108MST173336/7931004224         A  0002510300039130                                 L31790                              NCKE, MS. CHUI HONG, MICHELLE MI20180411        1N10003827420180423SEA.FLKGLIGHTING                                                       O   
00025103   O31A212510800025108201803271105100025108MST173336/7931004224         FOB0                              USD                                                        00039130201805100003913000039130SCMM                                        00038274                                                     
00025103   O31E112510800025108201803271105100025108MST173336/7931004224     0001LDAHV3DH6A                                                  00060000  000000000000000000001020180503SEA.FLKG7931004224                                                                                                                
00025103   O31E912510800025108201803271105 00025108MST173336/7931004224     0001                        00039130                                                                                                                                                                                                      
00025103   O31E112510800025108201803271105100025108MST173336/7931004224     0002LDAHV3LH6A                                                  00030000  000000000000000000001020180503SEA.FLKG7931004224                                                                                                                
00025103   O31E912510800025108201803271105 00025108MST173336/7931004224     0002                        00039130                                                                                                                                                                                                      
00025103   O31E112510800025108201803271105100025108MST173336/7931004224     0003LDAHV5DH6A                                                  00165000  000000000000000000001020180503SEA.FLKG7931004224                                                                                                                
00025103   O31E912510800025108201803271105 00025108MST173336/7931004224     0003                        00039130                                                                                                                                                                                                      
00025103   O31E112510800025108201803271105100025108MST173336/7931004224     0004LDAHV5LH6A                                                  00060000  000000000000000000001020180503SEA.FLKG7931004224                                                                                                                
00025103   O31E912510800025108201803271105 00025108MST173336/7931004224     0004                        00039130                                                                                                                                                                                                      
00025103   O31E112510800025108201803271105100025108MST173336/7931004224     0005LDAHV7DH6A                                                  00070000  000000000000000000001020180503SEA.FLKG7931004224                                                                                                                
00025103   O31E912510800025108201803271105 00025108MST173336/7931004224     0005                        00039130                                                                                                                                                                                                      
00025103   O31E112510800025108201803271105100025108MST173336/7931004224     0006LDAHV7LH6A                                                  00100000  000000000000000000001020180503SEA.FLKG7931004224                                                                                                                
00025103   O31E912510800025108201803271105 00025108MST173336/7931004224     0006                        00039130                                                                                                                                                                                                      
00025103   O31E112510800025108201803271105100025108MST173336/7931004224     0007LDAHV9DH6A                                                  00220000  000000000000000000001020180503SEA.FLKG7931004224                                                                                                                
00025103   O31E912510800025108201803271105 00025108MST173336/7931004224     0007                        00039130                                                                                                                                                                                                      
00025103   O31E112510800025108201803271105100025108MST173336/7931004224     0008LDAHV9LH6A                                                  00070000  000000000000000000001020180503SEA.FLKG7931004224                                                                                                                
00025103   O31E912510800025108201803271105 00025108MST173336/7931004224     0008                        00039130                                                                                                                                                                                                      
00025103   O31E112510800025108201803271105100025108MST173336/7931004224     0009LDS300D2N                                                   00002000  000000000000000000001020180503SEA.FLKG7931004224                                                                                                                
00025103   O31E912510800025108201803271105 00025108MST173336/7931004224     0009                        00039130                                                                                                                                                                                                      
