00025103   O31A112510700025107201710241144100025107MPH168610/7961003148         A  0002510300029474                                 L31790                              YCKE, MS. CHUI HONG, MICHELLE MI20171029        1N10003827420171118SEA.FMNLLIGHTING                                                       O   
00025103   O31A212510700025107201710241144100025107MPH168610/7961003148         FOB0                              USD                                                        00029474201712200002947400029474                                            00038274                                                     
00025103   O31E112510700025107201710241144100025107MPH168610/7961003148     0001EFUHV14D65A                                                 00080000  0000000001031300000010        SEA.FMNL7961003148                                                                                                                
00025103   O31E912510700025107201710241144 00025107MPH168610/7961003148     0001                        00029474                                                                                                                                                                                                      
00025103   O31E112510700025107201710241144100025107MPH168610/7961003148     0002EFUHV11D65A                                                 00100000  0000000000953300000010        SEA.FMNL7961003148                                                                                                                
00025103   O31E912510700025107201710241144 00025107MPH168610/7961003148     0002                        00029474                                                                                                                                                                                                      
00025103   O31E112510700025107201710241144100025107MPH168610/7961003148     0003EFUHV8D65A                                                  00080000  0000000000943300000010        SEA.FMNL7961003148                                                                                                                
00025103   O31E912510700025107201710241144 00025107MPH168610/7961003148     0003                        00029474                                                                                                                                                                                                      
00025103   O31A112510700025107201710241144100025107MPH168611/7961003149         A  0002510300029474                                 L31790                              YCKE, MS. CHUI HONG, MICHELLE MI20171029        1N10003827420171116SEA.FMNLLIGHTING                                                       O   
00025103   O31A212510700025107201710241144100025107MPH168611/7961003149         FOB0                              USD                                                        00029474201712180002947400029474                                            00038274                                                     
00025103   O31E112510700025107201710241144100025107MPH168611/7961003149     0001LDAHV7DH6A                                                  00080000  0000000000114200000010        SEA.FMNL7961003149                                                                                                                
00025103   O31E912510700025107201710241144 00025107MPH168611/7961003149     0001                        00029474                                                                                                                                                                                                      
00025103   O31E112510700025107201710241144100025107MPH168611/7961003149     0002LDAHV9DH6A                                                  00080000  0000000001254300000010        SEA.FMNL7961003149                                                                                                                
00025103   O31E912510700025107201710241144 00025107MPH168611/7961003149     0002                        00029474                                                                                                                                                                                                      
