12000I     O31A112510700025107201812141140100025107MPH7901004792/7961006428       10002510300029474                                 L31790                              YNR01-SG                        20190109         N 00038274        SEA.FMNLLIGHTING                                                       O   
12000I     O31A212510700025107201812141140100025107MPH7901004792/7961006428     FOB0                              USD                                                        00025103201901090002510300025103                                            00038274                                                     
12000I     O31A812510700025107201812141140100025107MPH7901004792/7961006428     FOB                                                                                                                                                                                                                                   
12000I     O31E112510700025107201812141140100025107MPH7901004792/7961006428 0010LDR400N                                                     00000520  000000000003500000001020190109SEA.FMNLMPH7901004792/7961006428                                                                                                  
12000I     O31E912510700025107201812141140 00025107MPH7901004792/7961006428 0010                        00025103                                                                                                                                                                                                      
12000I     O31A112510700025107201812141141100025107MPH7901004793/7961006429       10002510300029474                                 L31790                              YNR01-SG                        20190117         N 0003827420181216SEA.FMNLLIGHTING                                                       O   
12000I     O31A212510700025107201812141141100025107MPH7901004793/7961006429     FOB0                              USD                                                        00025103201901170002510300025103                                            00038274                                                     
12000I     O31A812510700025107201812141141100025107MPH7901004793/7961006429     FOB                                                                                                                                                                                                                                   
12000I     O31E112510700025107201812141141100025107MPH7901004793/7961006429 0010LDAHV12DH6T                                                 00060000  000000000014720000001020190117SEA.FMNLMPH7901004793/7961006429                                                                                                  
12000I     O31E912510700025107201812141141 00025107MPH7901004793/7961006429 0010                        00025103                                                                                                                                                                                                      
12000I     O31E112510700025107201812141141100025107MPH7901004793/7961006429 0020LDAHV12LH6T                                                 00010000  000000000014720000001020190117SEA.FMNLMPH7901004793/7961006429                                                                                                  
12000I     O31E912510700025107201812141141 00025107MPH7901004793/7961006429 0020                        00025103                                                                                                                                                                                                      
12000I     O31E112510700025107201812141141100025107MPH7901004793/7961006429 0030LDAHV15DH6T                                                 00060000  000000000018120000001020190117SEA.FMNLMPH7901004793/7961006429                                                                                                  
12000I     O31E912510700025107201812141141 00025107MPH7901004793/7961006429 0030                        00025103                                                                                                                                                                                                      
12000I     O31E112510700025107201812141141100025107MPH7901004793/7961006429 0040LDAHV15LH6T                                                 00010000  000000000018120000001020190117SEA.FMNLMPH7901004793/7961006429                                                                                                  
12000I     O31E912510700025107201812141141 00025107MPH7901004793/7961006429 0040                        00025103                                                                                                                                                                                                      
12000I     O31E112510700025107201812141141100025107MPH7901004793/7961006429 0050LDAHV3DH6T                                                  00050000  000000000006720000001020190117SEA.FMNLMPH7901004793/7961006429                                                                                                  
12000I     O31E912510700025107201812141141 00025107MPH7901004793/7961006429 0050                        00025103                                                                                                                                                                                                      
12000I     O31E112510700025107201812141141100025107MPH7901004793/7961006429 0060LDAHV5DH6T                                                  00050000  000000000007120000001020190117SEA.FMNLMPH7901004793/7961006429                                                                                                  
12000I     O31E912510700025107201812141141 00025107MPH7901004793/7961006429 0060                        00025103                                                                                                                                                                                                      
12000I     O31E112510700025107201812141141100025107MPH7901004793/7961006429 0070LDAHV7DH6T                                                  00050000  000000000009220000001020190117SEA.FMNLMPH7901004793/7961006429                                                                                                  
12000I     O31E912510700025107201812141141 00025107MPH7901004793/7961006429 0070                        00025103                                                                                                                                                                                                      
12000I     O31E112510700025107201812141141100025107MPH7901004793/7961006429 0080LDAHV7LH6T                                                  00010000  000000000009220000001020190117SEA.FMNLMPH7901004793/7961006429                                                                                                  
12000I     O31E912510700025107201812141141 00025107MPH7901004793/7961006429 0080                        00025103                                                                                                                                                                                                      
12000I     O31E112510700025107201812141141100025107MPH7901004793/7961006429 0090LDAHV9DH6T                                                  00070000  000000000010320000001020190117SEA.FMNLMPH7901004793/7961006429                                                                                                  
12000I     O31E912510700025107201812141141 00025107MPH7901004793/7961006429 0090                        00025103                                                                                                                                                                                                      
12000I     O31E112510700025107201812141141100025107MPH7901004793/7961006429 0100LDAHV9LH6T                                                  00010000  000000000010320000001020190117SEA.FMNLMPH7901004793/7961006429                                                                                                  
12000I     O31E912510700025107201812141141 00025107MPH7901004793/7961006429 0100                        00025103                                                                                                                                                                                                      
12000I     O31A112510700025107201812141141100025107MPH7901004794/7961006430       10002510300029474                                 L31790                              YNR01-SG                        20190201         N 0003827420181231SEA.FMNLLIGHTING                                                       O   
12000I     O31A212510700025107201812141141100025107MPH7901004794/7961006430     FOB0                              USD                                                        00025103201902010002510300025103                                            00038274                                                     
12000I     O31A812510700025107201812141141100025107MPH7901004794/7961006430     FOB                                                                                                                                                                                                                                   
12000I     O31E112510700025107201812141141100025107MPH7901004794/7961006430 0010LDAHV12DH6T                                                 00060000  000000000014720000001020190201SEA.FMNLMPH7901004794/7961006430                                                                                                  
12000I     O31E912510700025107201812141141 00025107MPH7901004794/7961006430 0010                        00025103                                                                                                                                                                                                      
12000I     O31E112510700025107201812141141100025107MPH7901004794/7961006430 0020LDAHV12LH6T                                                 00010000  000000000014720000001020190201SEA.FMNLMPH7901004794/7961006430                                                                                                  
12000I     O31E912510700025107201812141141 00025107MPH7901004794/7961006430 0020                        00025103                                                                                                                                                                                                      
12000I     O31E112510700025107201812141141100025107MPH7901004794/7961006430 0030LDAHV15DH6T                                                 00060000  000000000018120000001020190201SEA.FMNLMPH7901004794/7961006430                                                                                                  
12000I     O31E912510700025107201812141141 00025107MPH7901004794/7961006430 0030                        00025103                                                                                                                                                                                                      
12000I     O31E112510700025107201812141141100025107MPH7901004794/7961006430 0040LDAHV15LH6T                                                 00010000  000000000018120000001020190201SEA.FMNLMPH7901004794/7961006430                                                                                                  
12000I     O31E912510700025107201812141141 00025107MPH7901004794/7961006430 0040                        00025103                                                                                                                                                                                                      
12000I     O31E112510700025107201812141141100025107MPH7901004794/7961006430 0050LDAHV3DH6T                                                  00060000  000000000006720000001020190201SEA.FMNLMPH7901004794/7961006430                                                                                                  
12000I     O31E912510700025107201812141141 00025107MPH7901004794/7961006430 0050                        00025103                                                                                                                                                                                                      
12000I     O31E112510700025107201812141141100025107MPH7901004794/7961006430 0060LDAHV5DH6T                                                  00060000  000000000007120000001020190201SEA.FMNLMPH7901004794/7961006430                                                                                                  
12000I     O31E912510700025107201812141141 00025107MPH7901004794/7961006430 0060                        00025103                                                                                                                                                                                                      
12000I     O31E112510700025107201812141141100025107MPH7901004794/7961006430 0070LDAHV7DH6T                                                  00060000  000000000009220000001020190201SEA.FMNLMPH7901004794/7961006430                                                                                                  
12000I     O31E912510700025107201812141141 00025107MPH7901004794/7961006430 0070                        00025103                                                                                                                                                                                                      
12000I     O31E112510700025107201812141141100025107MPH7901004794/7961006430 0080LDAHV7LH6T                                                  00010000  000000000009220000001020190201SEA.FMNLMPH7901004794/7961006430                                                                                                  
12000I     O31E912510700025107201812141141 00025107MPH7901004794/7961006430 0080                        00025103                                                                                                                                                                                                      
12000I     O31E112510700025107201812141141100025107MPH7901004794/7961006430 0090LDAHV9DH6T                                                  00070000  000000000010320000001020190201SEA.FMNLMPH7901004794/7961006430                                                                                                  
12000I     O31E912510700025107201812141141 00025107MPH7901004794/7961006430 0090                        00025103                                                                                                                                                                                                      
12000I     O31E112510700025107201812141141100025107MPH7901004794/7961006430 0100LDAHV9LH6T                                                  00010000  000000000010320000001020190201SEA.FMNLMPH7901004794/7961006430                                                                                                  
12000I     O31E912510700025107201812141141 00025107MPH7901004794/7961006430 0100                        00025103                                                                                                                                                                                                      
