12000I     O31A112510700025107201810181640100025107MPH7901003058/7961006105       10002510300029474                                 L31790                              YNR01-SG                        20181102         N 00038274        SEA.FMNLLIGHTING                                                       O   
12000I     O31A212510700025107201810181640100025107MPH7901003058/7961006105     FOB0                              USD                                                        00025103201811020002510300025103                                            00038274                                                     
12000I     O31A812510700025107201810181640100025107MPH7901003058/7961006105     FOB                                                                                                                                                                                                                                   
12000I     O31E112510700025107201810181640100025107MPH7901003058/7961006105 0010LDAHV12DH5T                                                 00080000  000000000015220000001020181102SEA.FMNLMPH7901003058/7961006105                                                                                                  
12000I     O31E912510700025107201810181640 00025107MPH7901003058/7961006105 0010                        00025103                                                                                                                                                                                                      
12000I     O31E112510700025107201810181640100025107MPH7901003058/7961006105 0020LDAHV15DH5T                                                 00080000  000000000021620000001020181102SEA.FMNLMPH7901003058/7961006105                                                                                                  
12000I     O31E912510700025107201810181640 00025107MPH7901003058/7961006105 0020                        00025103                                                                                                                                                                                                      
12000I     O31A112510700025107201810181640100025107MPH7901003059/7961006106       10002510300029474                                 L31790                              YNR01-SG                        20181102         N 00038274        SEA.FMNLLIGHTING                                                       O   
12000I     O31A212510700025107201810181640100025107MPH7901003059/7961006106     FOB0                              USD                                                        00025103201811020002510300025103                                            00038274                                                     
12000I     O31A812510700025107201810181640100025107MPH7901003059/7961006106     FOB                                                                                                                                                                                                                                   
12000I     O31E112510700025107201810181640100025107MPH7901003059/7961006106 0010LDAHV3DH6A                                                  00060000  000000000000710000001020181102SEA.FMNLMPH7901003059/7961006106                                                                                                  
12000I     O31E912510700025107201810181640 00025107MPH7901003059/7961006106 0010                        00025103                                                                                                                                                                                                      
12000I     O31E112510700025107201810181640100025107MPH7901003059/7961006106 0020LDAHV5DH6A                                                  00060000  000000000000810000001020181102SEA.FMNLMPH7901003059/7961006106                                                                                                  
12000I     O31E912510700025107201810181640 00025107MPH7901003059/7961006106 0020                        00025103                                                                                                                                                                                                      
12000I     O31E112510700025107201810181640100025107MPH7901003059/7961006106 0030LDAHV7DH6A                                                  00080000  000000000009420000001020181102SEA.FMNLMPH7901003059/7961006106                                                                                                  
12000I     O31E912510700025107201810181640 00025107MPH7901003059/7961006106 0030                        00025103                                                                                                                                                                                                      
12000I     O31E112510700025107201810181640100025107MPH7901003059/7961006106 0040LDAHV9DH6A                                                  00080000  000000000010320000001020181102SEA.FMNLMPH7901003059/7961006106                                                                                                  
12000I     O31E912510700025107201810181640 00025107MPH7901003059/7961006106 0040                        00025103                                                                                                                                                                                                      
