00025103   O31A112510700025107201609151236100025107MPH156359/7961000114         A  0002510300029474                                 L31790                              YCKE, MS. CHUI HONG, MICHELLE MI20160920        1N10003827420160918SEA.FMNLLIGHTING                                                       O   
00025103   O31A212510700025107201609151236100025107MPH156359/7961000114         FOB0                              USD                                                        00029474201610200002947400029474                                            00038274                                                     
00025103   O31E112510700025107201609151236100025107MPH156359/7961000114     0001LDAHV10DG4A                                                 00000100  0000000000026100000010        SEA.FMNL7961000114                                                                                                                
00025103   O31E912510700025107201609151236 00025107MPH156359/7961000114     0001                        00029474                                                                                                                                                                                                      
00025103   O31E112510700025107201609151236100025107MPH156359/7961000114     0002LDAHV10LG4A                                                 00000100  0000000000026100000010        SEA.FMNL7961000114                                                                                                                
00025103   O31E912510700025107201609151236 00025107MPH156359/7961000114     0002                        00029474                                                                                                                                                                                                      
00025103   O31E112510700025107201609151236100025107MPH156359/7961000114     0003LDAHV12DG4A                                                 00000100  0000000035399400000010        SEA.FMNL7961000114                                                                                                                
00025103   O31E912510700025107201609151236 00025107MPH156359/7961000114     0003                        00029474                                                                                                                                                                                                      
00025103   O31E112510700025107201609151236100025107MPH156359/7961000114     0004LDAHV12LG4A                                                 00000100  0000000035399400000010        SEA.FMNL7961000114                                                                                                                
00025103   O31E912510700025107201609151236 00025107MPH156359/7961000114     0004                        00029474                                                                                                                                                                                                      
00025103   O31E112510700025107201609151236100025107MPH156359/7961000114     0005LDAHV4DG4A                                                  00000100  0000000000115200000010        SEA.FMNL7961000114                                                                                                                
00025103   O31E912510700025107201609151236 00025107MPH156359/7961000114     0005                        00029474                                                                                                                                                                                                      
00025103   O31E112510700025107201609151236100025107MPH156359/7961000114     0006LDAHV4LG4A                                                  00000100  0000000000115200000010        SEA.FMNL7961000114                                                                                                                
00025103   O31E912510700025107201609151236 00025107MPH156359/7961000114     0006                        00029474                                                                                                                                                                                                      
00025103   O31E112510700025107201609151236100025107MPH156359/7961000114     0007LDAHV5DG4A                                                  00000100  0000000000013100000010        SEA.FMNL7961000114                                                                                                                
00025103   O31E912510700025107201609151236 00025107MPH156359/7961000114     0007                        00029474                                                                                                                                                                                                      
00025103   O31E112510700025107201609151236100025107MPH156359/7961000114     0008LDAHV5LG4A                                                  00000100  0000000000013100000010        SEA.FMNL7961000114                                                                                                                
00025103   O31E912510700025107201609151236 00025107MPH156359/7961000114     0008                        00029474                                                                                                                                                                                                      
00025103   O31E112510700025107201609151236100025107MPH156359/7961000114     0009LDAHV7DG4A                                                  00000100  0000000000175200000010        SEA.FMNL7961000114                                                                                                                
00025103   O31E912510700025107201609151236 00025107MPH156359/7961000114     0009                        00029474                                                                                                                                                                                                      
00025103   O31E112510700025107201609151236100025107MPH156359/7961000114     0010LDAHV7LG4A                                                  00000100  0000000000175200000010        SEA.FMNL7961000114                                                                                                                
00025103   O31E912510700025107201609151236 00025107MPH156359/7961000114     0010                        00029474                                                                                                                                                                                                      
00025103   O31E112510700025107201609151236100025107MPH156359/7961000114     0011LDAHV8DG4A                                                  00000100  0000000021395400000010        SEA.FMNL7961000114                                                                                                                
00025103   O31E912510700025107201609151236 00025107MPH156359/7961000114     0011                        00029474                                                                                                                                                                                                      
00025103   O31E112510700025107201609151236100025107MPH156359/7961000114     0012LDAHV8LG4A                                                  00000100  0000000021395400000010        SEA.FMNL7961000114                                                                                                                
00025103   O31E912510700025107201609151236 00025107MPH156359/7961000114     0012                        00029474                                                                                                                                                                                                      
00025103   O31E112510700025107201609151236100025107MPH156359/7961000114     0013LDTHV16DGNA                                                 00000140  0000000008055300000010        SEA.FMNL7961000114                                                                                                                
00025103   O31E912510700025107201609151236 00025107MPH156359/7961000114     0013                        00029474                                                                                                                                                                                                      
00025103   O31E112510700025107201609151236100025107MPH156359/7961000114     0014LDTHV25DGNA                                                 00000140  0000000011002300000010        SEA.FMNL7961000114                                                                                                                
00025103   O31E912510700025107201609151236 00025107MPH156359/7961000114     0014                        00029474                                                                                                                                                                                                      
00025103   O31E112510700025107201609151236100025107MPH156359/7961000114     0015LDTHV35DGNA                                                 00000020  0000000013556300000010        SEA.FMNL7961000114                                                                                                                
00025103   O31E912510700025107201609151236 00025107MPH156359/7961000114     0015                        00029474                                                                                                                                                                                                      
