12000I     O31A112511000025110201808281052100025110MMQ7901001733/7921004574       10002510300039140                                 L31790                              NNR01-SG                        20181010         N 0003827420180923SEA.FPKLLIGHTING                                                       O   
12000I     O31A212511000025110201808281052100025110MMQ7901001733/7921004574     FOB0                              USD                                                        00025103201810100002510300025103SCMM                                        00038274                                                     
12000I     O31A812511000025110201808281052100025110MMQ7901001733/7921004574     FOB                                                                                                                                                                                                                                   
12000I     O31E112511000025110201808281052100025110MMQ7901001733/7921004574 0010EFDHV15D65T1                                                00019200  000000000000120000001020181010SEA.FPKLMMQ7901001733/7921004574                                                                                                  
12000I     O31E912511000025110201808281052 00025110MMQ7901001733/7921004574 0010                        00025103                                                                                                                                                                                                      
12000I     O31E112511000025110201808281052100025110MMQ7901001733/7921004574 0020EFDHV20D65T1                                                00031680  000000000000120000001020181010SEA.FPKLMMQ7901001733/7921004574                                                                                                  
12000I     O31E912511000025110201808281052 00025110MMQ7901001733/7921004574 0020                        00025103                                                                                                                                                                                                      
12000I     O31E112511000025110201808281052100025110MMQ7901001733/7921004574 0030EFDHV23D65T1                                                00028800  000000000000120000001020181010SEA.FPKLMMQ7901001733/7921004574                                                                                                  
12000I     O31E912511000025110201808281052 00025110MMQ7901001733/7921004574 0030                        00025103                                                                                                                                                                                                      
12000I     O31E112511000025110201808281052100025110MMQ7901001733/7921004574 0040EFDHV25D65T1                                                00324480  000000000000120000001020181010SEA.FPKLMMQ7901001733/7921004574                                                                                                  
12000I     O31E912511000025110201808281052 00025110MMQ7901001733/7921004574 0040                        00025103                                                                                                                                                                                                      
12000I     O31E112511000025110201808281052100025110MMQ7901001733/7921004574 0050EFUHV23D65A3                                                00010000  000000000000120000001020181010SEA.FPKLMMQ7901001733/7921004574                                                                                                  
12000I     O31E912511000025110201808281052 00025110MMQ7901001733/7921004574 0050                        00025103                                                                                                                                                                                                      
12000I     O31E112511000025110201808281052100025110MMQ7901001733/7921004574 0060LDAHV13DH7A                                                 00040000  000000000000120000001020181010SEA.FPKLMMQ7901001733/7921004574                                                                                                  
12000I     O31E912511000025110201808281052 00025110MMQ7901001733/7921004574 0060                        00025103                                                                                                                                                                                                      
12000I     O31E112511000025110201808281052100025110MMQ7901001733/7921004574 0070LDAHV13LH7A                                                 00022000  000000000000120000001020181010SEA.FPKLMMQ7901001733/7921004574                                                                                                  
12000I     O31E912511000025110201808281052 00025110MMQ7901001733/7921004574 0070                        00025103                                                                                                                                                                                                      
12000I     O31E112511000025110201808281052100025110MMQ7901001733/7921004574 0080LDAHV15DH7A                                                 00036000  000000000000120000001020181010SEA.FPKLMMQ7901001733/7921004574                                                                                                  
12000I     O31E912511000025110201808281052 00025110MMQ7901001733/7921004574 0080                        00025103                                                                                                                                                                                                      
12000I     O31E112511000025110201808281052100025110MMQ7901001733/7921004574 0090LDAHV15LH7A                                                 00020000  000000000000120000001020181010SEA.FPKLMMQ7901001733/7921004574                                                                                                  
12000I     O31E912511000025110201808281052 00025110MMQ7901001733/7921004574 0090                        00025103                                                                                                                                                                                                      
