12000I     O31A112511000025110201907291136100025110MMQ7901011104/7921007848       10002510300039140                                 L31790                              NNR01-SG                        20190910         N 0003827420190823SEA.FPKLLIGHTING                                                       O   
12000I     O31A212511000025110201907291136100025110MMQ7901011104/7921007848     FOB0                              USD                                                        00025103201909100002510300025103SCMM                                        00038274                                                     
12000I     O31A812511000025110201907291136100025110MMQ7901011104/7921007848     FOB                                                                                                                                                                                                                                   
12000I     O31E112511000025110201907291136100025110MMQ7901011104/7921007848 0010EFDHV25D65T1                                                00096000  000000000001410000001020190910SEA.FPKLMMQ7901011104/7921007848                                                                                                  
12000I     O31E912511000025110201907291136 00025110MMQ7901011104/7921007848 0010                        00025103                                                                                                                                                                                                      
12000I     O31E112511000025110201907291136100025110MMQ7901011104/7921007848 0020EFUHV18D65A3                                                00360000  000000000010120000001020190910SEA.FPKLMMQ7901011104/7921007848                                                                                                  
12000I     O31E912511000025110201907291136 00025110MMQ7901011104/7921007848 0020                        00025103                                                                                                                                                                                                      
12000I     O31E112511000025110201907291136100025110MMQ7901011104/7921007848 0030LDAHV11DH7A                                                 00015000  000000000013320000001020190910SEA.FPKLMMQ7901011104/7921007848                                                                                                  
12000I     O31E912511000025110201907291136 00025110MMQ7901011104/7921007848 0030                        00025103                                                                                                                                                                                                      
12000I     O31E112511000025110201907291136100025110MMQ7901011104/7921007848 0040LDAHV13DH7A                                                 00022000  000000000013920000001020190910SEA.FPKLMMQ7901011104/7921007848                                                                                                  
12000I     O31E912511000025110201907291136 00025110MMQ7901011104/7921007848 0040                        00025103                                                                                                                                                                                                      
12000I     O31E112511000025110201907291136100025110MMQ7901011104/7921007848 0050LDAHV15DH7A                                                 00010000  000000000017920000001020190910SEA.FPKLMMQ7901011104/7921007848                                                                                                  
12000I     O31E912511000025110201907291136 00025110MMQ7901011104/7921007848 0050                        00025103                                                                                                                                                                                                      
