00025103   O31A112510800025108201702270348100025108MST160955/7931001771         A  0002510300039130                                 L31790                              NCKE, MS. CHUI HONG, MICHELLE MI20170314        1N10003827420170325SEA.FLKGLIGHTING                                                       O   
00025103   O31A212510800025108201702270348100025108MST160955/7931001771         FOB0                              USD                                                        00039130201704100003913000039130SCMM                                        00038274                                                     
00025103   O31E112510800025108201702270348100025108MST160955/7931001771     0001LDAHV5LH6A                                                  00050000  0000000000000000000010        SEA.FLKG7931001771                                                                                                                
00025103   O31E912510800025108201702270348 00025108MST160955/7931001771     0001                        00039130                                                                                                                                                                                                      
00025103   O31E112510800025108201702270348100025108MST160955/7931001771     0002LDAHV7DH6A                                                  00900000  0000000000000000000010        SEA.FLKG7931001771                                                                                                                
00025103   O31E912510800025108201702270348 00025108MST160955/7931001771     0002                        00039130                                                                                                                                                                                                      
