00025103   O31A112511300025113201603290740100025113MNZ151469/P83038             A  0002510300029671                                 S31790ERASMUSJ                      NCKE, MS. CHUI HONG, MICHELLE MI20160413        1N10003827420160424SEA.FAKLLIGHTING                                                       O   
00025103   O31A212511300025113201603290740100025113MNZ151469/P83038             FOB0                              USD                                                                20160520                SCMM                                        00038274                                                     
00025103   O31E112511300025113201603290740100025113MNZ151469/P83038         0001EFDHV15D65BE        EFDHV15D65BE                            00024000  0000000012239400000010                                         ATP Auto Generate                                                                                
00025103   O31E112511300025113201603290740100025113MNZ151469/P83038         0002EFDHV15D65E         EFDHV15D65E                             00011520  0000000012239400000010                                         ATP Auto Generate                                                                                
00025103   O31E112511300025113201603290740100025113MNZ151469/P83038         0003EFDHV15L27BE        EFDHV15L27BE                            00035520  0000000012239400000010                                         ATP Auto Generate                                                                                
00025103   O31E112511300025113201603290740100025113MNZ151469/P83038         0004EFDHV15L27E         EFDHV15L27E                             00035520  0000000012239400000010                                         ATP Auto Generate                                                                                
00025103   O31E112511300025113201603290740100025113MNZ151469/P83038         0005EFDHV23D65BE        EFDHV23D65BE                            00035520  0000000000152200000010                                         ATP Auto Generate                                                                                
00025103   O31E112511300025113201603290740100025113MNZ151469/P83038         0006EFDHV23D65E         EFDHV23D65E                             00035520  0000000000152200000010                                         ATP Auto Generate                                                                                
00025103   O31E112511300025113201603290740100025113MNZ151469/P83038         0007EFDHV23L27BE        EFDHV23L27BE                            00048000  0000000000152200000010                                         ATP Auto Generate                                                                                
00025103   O31E112511300025113201603290740100025113MNZ151469/P83038         0008EFDHV23L27E         EFDHV23L27E                             00024000  0000000000152200000010                                         ATP Auto Generate                                                                                
