12000I     O31A112510700025107201907151140100025107MPH7901010831/7961007982       10002510300029474                                 L31790                              YNR01-SG                        20190903         N 0003827420190802SEA.FMNLLIGHTING                                                       O   
12000I     O31A212510700025107201907151140100025107MPH7901010831/7961007982     FOB0                              USD                                                        00025103201909030002510300025103                                            00038274                                                     
12000I     O31A812510700025107201907151140100025107MPH7901010831/7961007982     FOB                                                                                                                                                                                                                                   
12000I     O31E112510700025107201907151140100025107MPH7901010831/7961007982 0010EFUHV11D65A                                                 00150000  000000000000120000001020190903SEA.FMNLMPH7901010831/7961007982                                                                                                  
12000I     O31E912510700025107201907151140 00025107MPH7901010831/7961007982 0010                        00025103                                                                                                                                                                                                      
12000I     O31E112510700025107201907151140100025107MPH7901010831/7961007982 0020EFUHV18D65A3                                                00150000  000000000000120000001020190903SEA.FMNLMPH7901010831/7961007982                                                                                                  
12000I     O31E912510700025107201907151140 00025107MPH7901010831/7961007982 0020                        00025103                                                                                                                                                                                                      
12000I     O31E112510700025107201907151140100025107MPH7901010831/7961007982 0030EFUHV8D65A                                                  00150000  000000000000120000001020190903SEA.FMNLMPH7901010831/7961007982                                                                                                  
12000I     O31E912510700025107201907151140 00025107MPH7901010831/7961007982 0030                        00025103                                                                                                                                                                                                      
12000I     O31E112510700025107201907151140100025107MPH7901010831/7961007982 0040LDAHV7DH6T                                                  00073000  000000000000120000001020190903SEA.FMNLMPH7901010831/7961007982                                                                                                  
12000I     O31E912510700025107201907151140 00025107MPH7901010831/7961007982 0040                        00025103                                                                                                                                                                                                      
12000I     O31E112510700025107201907151140100025107MPH7901010831/7961007982 0050LDAHV9DH6T                                                  00073000  000000000000120000001020190903SEA.FMNLMPH7901010831/7961007982                                                                                                  
12000I     O31E912510700025107201907151140 00025107MPH7901010831/7961007982 0050                        00025103                                                                                                                                                                                                      
