00025103   O31A112511300025113201705290941100025113MNZ163823/P87563             A  0002510300029671                                 S31790ERASMUSJ                      NCKE, MS. CHUI HONG, MICHELLE MI20170613        1N10003827420170623SEA.FAKLLIGHTING                                                       O   
00025103   O31A212511300025113201705290941100025113MNZ163823/P87563             FOB0                              USD                                                                20170720                SCMM                                        00038274                                                     
00025103   O31E112511300025113201705290941100025113MNZ163823/P87563         0001LDAHV7DG4A1         LDAHV7DG4A1                             00005000  0000000001717300000010                                         ATP Auto Generate                                                                                
00025103   O31E112511300025113201705290941100025113MNZ163823/P87563         0002LDAHV7DG4BA         LDAHV7DG4BA                             00002500  0000000001717300000010                                         ATP Auto Generate                                                                                
00025103   O31E112511300025113201705290941100025113MNZ163823/P87563         0003LDAHV8DG4A1         LDAHV8DG4A1                             00002500  0000000021072400000010                                         ATP Auto Generate                                                                                
00025103   O31E112511300025113201705290941100025113MNZ163823/P87563         0004LDAHV8DG4BA         LDAHV8DG4BA                             00002500  0000000021072400000010                                         ATP Auto Generate                                                                                
