12000I     O31A112511000025110201812051205100025110MMQ7901004672/7921005530       10002510300039140                                 L31790                              YNR01-SG                        20190110         N 0003827420181218SEA.FPKLLIGHTING                                                       O   
12000I     O31A212511000025110201812051205100025110MMQ7901004672/7921005530     FOB0                              USD                                                        00025103201901100002510300025103                                            00038274                                                     
12000I     O31A812511000025110201812051205100025110MMQ7901004672/7921005530     FOB                                                                                                                                                                                                                                   
12000I     O31E112511000025110201812051205100025110MMQ7901004672/7921005530 0010LDTHV11D65GA1                                               00400000  000000000018220000001020190110SEA.FPKLMMQ7901004672/7921005530                                                                                                  
12000I     O31E912511000025110201812051205 00025110MMQ7901004672/7921005530 0010                        00025103                                                                                                                                                                                                      
12000I     O31E112511000025110201812051205100025110MMQ7901004672/7921005530 0020LDTHV11L30GA1                                               00100000  000000000018220000001020190110SEA.FPKLMMQ7901004672/7921005530                                                                                                  
12000I     O31E912511000025110201812051205 00025110MMQ7901004672/7921005530 0020                        00025103                                                                                                                                                                                                      
12000I     O31E112511000025110201812051205100025110MMQ7901004672/7921005530 0030LDTHV7D65GA1                                                00100000  000000000014620000001020190110SEA.FPKLMMQ7901004672/7921005530                                                                                                  
12000I     O31E912511000025110201812051205 00025110MMQ7901004672/7921005530 0030                        00025103                                                                                                                                                                                                      
12000I     O31E112511000025110201812051205100025110MMQ7901004672/7921005530 0040LDTHV7L30GA1                                                00020000  000000000014620000001020190110SEA.FPKLMMQ7901004672/7921005530                                                                                                  
12000I     O31E912511000025110201812051205 00025110MMQ7901004672/7921005530 0040                        00025103                                                                                                                                                                                                      
