00025103   O31A112510800025108201709181035100025108MST167554/7931003077         A  0002510300039130                                 L31790                              YCKE, MS. CHUI HONG, MICHELLE MI20170923        1N10003827420170928SEA.FLKGLIGHTING                                                       O   
00025103   O31A212510800025108201709181035100025108MST167554/7931003077         FOB0                              USD                                                        00039130201710160003913000039130                                            00038274                                                     
00025103   O31E112510800025108201709181035100025108MST167554/7931003077     0001LDAHV3DH6A                                                  00015000  000000000630340000001020171009SEA.FLKG7931003077                                                                                                                
00025103   O31E912510800025108201709181035 00025108MST167554/7931003077     0001                        00039130                                                                                                                                                                                                      
00025103   O31E112510800025108201709181035100025108MST167554/7931003077     0002LDAHV3LH6A                                                  00050000  000000000630340000001020171009SEA.FLKG7931003077                                                                                                                
00025103   O31E912510800025108201709181035 00025108MST167554/7931003077     0002                        00039130                                                                                                                                                                                                      
00025103   O31E112510800025108201709181035100025108MST167554/7931003077     0003LDAHV5DH6A                                                  00150000  000000000630340000001020171009SEA.FLKG7931003077                                                                                                                
00025103   O31E912510800025108201709181035 00025108MST167554/7931003077     0003                        00039130                                                                                                                                                                                                      
00025103   O31E112510800025108201709181035100025108MST167554/7931003077     0004LDAHV9DH6A                                                  00200000  000000001121440000001020171009SEA.FLKG7931003077                                                                                                                
00025103   O31E912510800025108201709181035 00025108MST167554/7931003077     0004                        00039130                                                                                                                                                                                                      
00025103   O31A112510800025108201709181035100025108MST167555/7931003076         A  0002510300039130                                 L31790                              YCKE, MS. CHUI HONG, MICHELLE MI20170923        1N10003827420170923SEA.FLKGLIGHTING                                                       O   
00025103   O31A212510800025108201709181035100025108MST167555/7931003076         FOB0                              USD                                                        00039130201710110003913000039130                                            00038274                                                     
00025103   O31E112510800025108201709181035100025108MST167555/7931003076     0001LDAHV12DH5T                                                 00155000  000000001327140000001020171004SEA.FLKG7931003076                                                                                                                
00025103   O31E912510800025108201709181035 00025108MST167555/7931003076     0001                        00039130                                                                                                                                                                                                      
00025103   O31E112510800025108201709181035100025108MST167555/7931003076     0002LDAHV12LH5T                                                 00017000  000000001327140000001020171004SEA.FLKG7931003076                                                                                                                
00025103   O31E912510800025108201709181035 00025108MST167555/7931003076     0002                        00039130                                                                                                                                                                                                      
00025103   O31E112510800025108201709181035100025108MST167555/7931003076     0003LDAHV15DH5T                                                 00052000  000000001775940000001020171004SEA.FLKG7931003076                                                                                                                
00025103   O31E912510800025108201709181035 00025108MST167555/7931003076     0003                        00039130                                                                                                                                                                                                      
00025103   O31E112510800025108201709181035100025108MST167555/7931003076     0004LDAHV15LH5T                                                 00050000  000000001775940000001020171004SEA.FLKG7931003076                                                                                                                
00025103   O31E912510800025108201709181035 00025108MST167555/7931003076     0004                        00039130                                                                                                                                                                                                      
00025103   O31E112510800025108201709181035100025108MST167555/7931003076     0005LDAHV3LH6A                                                  00040000  000000000630340000001020171004SEA.FLKG7931003076                                                                                                                
00025103   O31E912510800025108201709181035 00025108MST167555/7931003076     0005                        00039130                                                                                                                                                                                                      
00025103   O31E112510800025108201709181035100025108MST167555/7931003076     0006LDAHV5DH6A                                                  00330000  000000000630340000001020171004SEA.FLKG7931003076                                                                                                                
00025103   O31E912510800025108201709181035 00025108MST167555/7931003076     0006                        00039130                                                                                                                                                                                                      
00025103   O31E112510800025108201709181035100025108MST167555/7931003076     0007LDAHV5LH6A                                                  00080000  000000000630340000001020171004SEA.FLKG7931003076                                                                                                                
00025103   O31E912510800025108201709181035 00025108MST167555/7931003076     0007                        00039130                                                                                                                                                                                                      
00025103   O31E112510800025108201709181035100025108MST167555/7931003076     0008LDAHV7LH6A                                                  00160000  000000000779240000001020171004SEA.FLKG7931003076                                                                                                                
00025103   O31E912510800025108201709181035 00025108MST167555/7931003076     0008                        00039130                                                                                                                                                                                                      
00025103   O31E112510800025108201709181035100025108MST167555/7931003076     0009LDAHV9DH6A                                                  00600000  000000001121440000001020171004SEA.FLKG7931003076                                                                                                                
00025103   O31E912510800025108201709181035 00025108MST167555/7931003076     0009                        00039130                                                                                                                                                                                                      
00025103   O31E112510800025108201709181035100025108MST167555/7931003076     0010LDAHV9LH6A                                                  00100000  000000001121440000001020171004SEA.FLKG7931003076                                                                                                                
00025103   O31E912510800025108201709181035 00025108MST167555/7931003076     0010                        00039130                                                                                                                                                                                                      
00025103   O31A112510800025108201709181035100025108MST167556/7931003073         A  0002510300039130                                 L31790                              YCKE, MS. CHUI HONG, MICHELLE MI20170923        1N10003827420170922SEA.FLKGUA                                                             O   
00025103   O31A212510800025108201709181035100025108MST167556/7931003073         FOB0                              USD                                                        00039130201710100003913000039130                                            00038274                                                     
00025103   O31E112510800025108201709181035100025108MST167556/7931003073     0001LDAHV15LH5T                                                 00020000  000000001775940000001020171003SEA.FLKG7931003073                                                                                                                
00025103   O31E912510800025108201709181035 00025108MST167556/7931003073     0001                        00039130                                                                                                                                                                                                      
00025103   O31A112510800025108201709181035100025108MST167557/7931003075         A  0002510300039130                                 S31790                              YCKE, MS. CHUI HONG, MICHELLE MI20170923        1N10003827420170928SEA.FLKGLIGHTING                                                       O   
00025103   O31A212510800025108201709181035100025108MST167557/7931003075         FOB0                              USD                                                        00039130201710160003913000039130                                            00038274                                                     
00025103   O31E112510800025108201709181035100025108MST167557/7931003075     0001EFDHV11D65T                                                 00009600  000000001223940000001020171009SEA.FLKG7931003075                                                                                                                
00025103   O31E912510800025108201709181035 00025108MST167557/7931003075     0001                        00039130                                                                                                                                                                                                      
00025103   O31E112510800025108201709181035100025108MST167557/7931003075     0002EFDHV15L27T1                                                00054720  000000001112740000001020171009SEA.FLKG7931003075                                                                                                                
00025103   O31E912510800025108201709181035 00025108MST167557/7931003075     0002                        00039130                                                                                                                                                                                                      
00025103   O31E112510800025108201709181035100025108MST167557/7931003075     0003EFDHV20D65T1                                                00019200  000000001381940000001020171009SEA.FLKG7931003075                                                                                                                
00025103   O31E912510800025108201709181035 00025108MST167557/7931003075     0003                        00039130                                                                                                                                                                                                      
00025103   O31E112510800025108201709181035100025108MST167557/7931003075     0004EFDHV23D65T1                                                00019200  000000001381940000001020171009SEA.FLKG7931003075                                                                                                                
00025103   O31E912510800025108201709181035 00025108MST167557/7931003075     0004                        00039130                                                                                                                                                                                                      
00025103   O31E112510800025108201709181035100025108MST167557/7931003075     0005EFDHV25D65T                                                 00299520  000000000015220000001020171009SEA.FLKG7931003075                                                                                                                
00025103   O31E912510800025108201709181035 00025108MST167557/7931003075     0005                        00039130                                                                                                                                                                                                      
00025103   O31E112510800025108201709181035100025108MST167557/7931003075     0006EFU8E652V1                                                  00050000  000000001088340000001020171009SEA.FLKG7931003075                                                                                                                
00025103   O31E912510800025108201709181035 00025108MST167557/7931003075     0006                        00039130                                                                                                                                                                                                      
00025103   O31E112510800025108201709181035100025108MST167557/7931003075     0007EFUHV18D65A                                                 00020000  000000001342340000001020171009SEA.FLKG7931003075                                                                                                                
00025103   O31E912510800025108201709181035 00025108MST167557/7931003075     0007                        00039130                                                                                                                                                                                                      
00025103   O31A112510800025108201709181035100025108MST167558/7931003074         A  0002510300039130                                 S31790                              YCKE, MS. CHUI HONG, MICHELLE MI20170923        1N10003827420170923SEA.FLKGLIGHTING                                                       O   
00025103   O31A212510800025108201709181035100025108MST167558/7931003074         FOB0                              USD                                                        00039130201710110003913000039130                                            00038274                                                     
00025103   O31E112510800025108201709181035100025108MST167558/7931003074     0001EFU11E652V                                                  00035000  000000001223440000001020171004SEA.FLKG7931003074                                                                                                                
00025103   O31E912510800025108201709181035 00025108MST167558/7931003074     0001                        00039130                                                                                                                                                                                                      
00025103   O31E112510800025108201709181035100025108MST167558/7931003074     0002EFU14E272V1                                                 00100000  000000001189640000001020171004SEA.FLKG7931003074                                                                                                                
00025103   O31E912510800025108201709181035 00025108MST167558/7931003074     0002                        00039130                                                                                                                                                                                                      
00025103   O31E112510800025108201709181035100025108MST167558/7931003074     0003EFU14E652V1                                                 00415000  000000001189640000001020171004SEA.FLKG7931003074                                                                                                                
00025103   O31E912510800025108201709181035 00025108MST167558/7931003074     0003                        00039130                                                                                                                                                                                                      
00025103   O31E112510800025108201709181035100025108MST167558/7931003074     0004EFU8E652V1                                                  00060000  000000001088340000001020171004SEA.FLKG7931003074                                                                                                                
00025103   O31E912510800025108201709181035 00025108MST167558/7931003074     0004                        00039130                                                                                                                                                                                                      
00025103   O31E112510800025108201709181035100025108MST167558/7931003074     0005EFUHV18D65A                                                 00230000  000000001342340000001020171004SEA.FLKG7931003074                                                                                                                
00025103   O31E912510800025108201709181035 00025108MST167558/7931003074     0005                        00039130                                                                                                                                                                                                      
00025103   O31E112510800025108201709181035100025108MST167558/7931003074     0006EFUHV18L27A                                                 00007000  000000001342340000001020171004SEA.FLKG7931003074                                                                                                                
00025103   O31E912510800025108201709181035 00025108MST167558/7931003074     0006                        00039130                                                                                                                                                                                                      
00025103   O31E112510800025108201709181035100025108MST167558/7931003074     0007EFUHV23D65A                                                 00070000  000000001411440000001020171004SEA.FLKG7931003074                                                                                                                
00025103   O31E912510800025108201709181035 00025108MST167558/7931003074     0007                        00039130                                                                                                                                                                                                      
00025103   O31E112510800025108201709181035100025108MST167558/7931003074     0008EFDHV11D65T                                                 00020160  000000001223940000001020171004SEA.FLKG7931003074                                                                                                                
00025103   O31E912510800025108201709181035 00025108MST167558/7931003074     0008                        00039130                                                                                                                                                                                                      
00025103   O31E112510800025108201709181035100025108MST167558/7931003074     0009EFDHV15D65T1                                                00209280  000000001112740000001020171004SEA.FLKG7931003074                                                                                                                
00025103   O31E912510800025108201709181035 00025108MST167558/7931003074     0009                        00039130                                                                                                                                                                                                      
00025103   O31E112510800025108201709181035100025108MST167558/7931003074     0010EFDHV15L27T1                                                00023040  000000001112740000001020171004SEA.FLKG7931003074                                                                                                                
00025103   O31E912510800025108201709181035 00025108MST167558/7931003074     0010                        00039130                                                                                                                                                                                                      
00025103   O31E112510800025108201709181035100025108MST167558/7931003074     0011EFDHV20D65T1                                                00010560  000000001381940000001020171004SEA.FLKG7931003074                                                                                                                
00025103   O31E912510800025108201709181035 00025108MST167558/7931003074     0011                        00039130                                                                                                                                                                                                      
00025103   O31E112510800025108201709181035100025108MST167558/7931003074     0012EFDHV23D65T1                                                00010560  000000001381940000001020171004SEA.FLKG7931003074                                                                                                                
00025103   O31E912510800025108201709181035 00025108MST167558/7931003074     0012                        00039130                                                                                                                                                                                                      
00025103   O31E112510800025108201709181035100025108MST167558/7931003074     0013EFDHV25D65T                                                 01329600  000000000015220000001020171004SEA.FLKG7931003074                                                                                                                
00025103   O31E912510800025108201709181035 00025108MST167558/7931003074     0013                        00039130                                                                                                                                                                                                      
00025103   O31E112510800025108201709181035100025108MST167558/7931003074     0014EFDHV25L27T                                                 00045120  000000000015220000001020171004SEA.FLKG7931003074                                                                                                                
00025103   O31E912510800025108201709181035 00025108MST167558/7931003074     0014                        00039130                                                                                                                                                                                                      
00025103   O31E112510800025108201709181035100025108MST167558/7931003074     0015EFDHV42D65A                                                 00039840  000000003013840000001020171004SEA.FLKG7931003074                                                                                                                
00025103   O31E912510800025108201709181035 00025108MST167558/7931003074     0015                        00039130                                                                                                                                                                                                      
