12000I     O31A112510800025108201906282206100025108MST7901010082/7931006840       10002510300039130                                 L31790                              YNR01-SG                        20190818         N 0003827420190731SEA.FLKGLIGHTING                                                       O   
12000I     O31A212510800025108201906282206100025108MST7901010082/7931006840     FOB0                              USD                                                        00025103201908180002510300025103                                            00038274                                                     
12000I     O31A812510800025108201906282206100025108MST7901010082/7931006840     FOB                                                                                                                                                                                                                                   
12000I     O31E112510800025108201906282206100025108MST7901010082/7931006840 0010EFDHV11D65T                                                 00000960  000000000000120000001020190818SEA.FLKGMST7901010082/7931006840                                                                                                  
12000I     O31E912510800025108201906282206 00025108MST7901010082/7931006840 0010                        00025103                                                                                                                                                                                                      
12000I     O31E112510800025108201906282206100025108MST7901010082/7931006840 0020EFDHV15D65T1                                                00087360  000000000000120000001020190818SEA.FLKGMST7901010082/7931006840                                                                                                  
12000I     O31E912510800025108201906282206 00025108MST7901010082/7931006840 0020                        00025103                                                                                                                                                                                                      
12000I     O31E112510800025108201906282206100025108MST7901010082/7931006840 0030EFDHV42D65A                                                 00010560  000000000000120000001020190818SEA.FLKGMST7901010082/7931006840                                                                                                  
12000I     O31E912510800025108201906282206 00025108MST7901010082/7931006840 0030                        00025103                                                                                                                                                                                                      
12000I     O31E112510800025108201906282206100025108MST7901010082/7931006840 0040EFU14E652V1                                                 00220000  000000000000120000001020190818SEA.FLKGMST7901010082/7931006840                                                                                                  
12000I     O31E912510800025108201906282206 00025108MST7901010082/7931006840 0040                        00025103                                                                                                                                                                                                      
12000I     O31E112510800025108201906282206100025108MST7901010082/7931006840 0050EFUHV18D65A                                                 00220000  000000000000120000001020190818SEA.FLKGMST7901010082/7931006840                                                                                                  
12000I     O31E912510800025108201906282206 00025108MST7901010082/7931006840 0050                        00025103                                                                                                                                                                                                      
12000I     O31A112510800025108201906282207100025108MST7901010083/7931006841       10002510300039130                                 L31790                              YNR01-SG                        20190715         N 00038274        AIR.FBKKLIGHTING                                                       O   
12000I     O31A212510800025108201906282207100025108MST7901010083/7931006841     FOB0                              USD                                                        00025103201907150002510300025103                                            00038274                                                     
12000I     O31A812510800025108201906282207100025108MST7901010083/7931006841     FOB                                                                                                                                                                                                                                   
12000I     O31E112510800025108201906282207100025108MST7901010083/7931006841 0010EFDHV25D65T                                                 00059520  000000000014820000001020190715AIR.FBKKMST7901010083/7931006841                                                                                                  
12000I     O31E912510800025108201906282207 00025108MST7901010083/7931006841 0010                        00025103                                                                                                                                                                                                      
12000I     O31A112510800025108201906282207100025108MST7901010084/7931006842       10002510300039130                                 L31790                              YNR01-SG                        20190725         N 0003827420190707SEA.FLKGLIGHTING                                                       O   
12000I     O31A212510800025108201906282207100025108MST7901010084/7931006842     FOB0                              USD                                                        00025103201907250002510300025103                                            00038274                                                     
12000I     O31A812510800025108201906282207100025108MST7901010084/7931006842     FOB                                                                                                                                                                                                                                   
12000I     O31E112510800025108201906282207100025108MST7901010084/7931006842 0010EFDHV25D65T                                                 00192000  000000000014820000001020190725SEA.FLKGMST7901010084/7931006842                                                                                                  
12000I     O31E912510800025108201906282207 00025108MST7901010084/7931006842 0010                        00025103                                                                                                                                                                                                      
12000I     O31A112510800025108201906282207100025108MST7901010085/7931006839       10002510300039130                                 L31790                              YNR01-SG                        20190809         N 0003827420190722SEA.FLKGLIGHTING                                                       O   
12000I     O31A212510800025108201906282207100025108MST7901010085/7931006839     FOB0                              USD                                                        00025103201908090002510300025103                                            00038274                                                     
12000I     O31A812510800025108201906282207100025108MST7901010085/7931006839     FOB                                                                                                                                                                                                                                   
12000I     O31E112510800025108201906282207100025108MST7901010085/7931006839 0010LDAHV12DH6T                                                 00050000  000000000011520000001020190809SEA.FLKGMST7901010085/7931006839                                                                                                  
12000I     O31E912510800025108201906282207 00025108MST7901010085/7931006839 0010                        00025103                                                                                                                                                                                                      
12000I     O31E112510800025108201906282207100025108MST7901010085/7931006839 0020LDAHV12LH6T                                                 00070000  000000000011520000001020190809SEA.FLKGMST7901010085/7931006839                                                                                                  
12000I     O31E912510800025108201906282207 00025108MST7901010085/7931006839 0020                        00025103                                                                                                                                                                                                      
12000I     O31E112510800025108201906282207100025108MST7901010085/7931006839 0030LDAHV15DH6T                                                 00123000  000000000014220000001020190809SEA.FLKGMST7901010085/7931006839                                                                                                  
12000I     O31E912510800025108201906282207 00025108MST7901010085/7931006839 0030                        00025103                                                                                                                                                                                                      
12000I     O31E112510800025108201906282207100025108MST7901010085/7931006839 0040LDAHV15LH6T                                                 00080000  000000000014220000001020190809SEA.FLKGMST7901010085/7931006839                                                                                                  
12000I     O31E912510800025108201906282207 00025108MST7901010085/7931006839 0040                        00025103                                                                                                                                                                                                      
12000I     O31E112510800025108201906282207100025108MST7901010085/7931006839 0050LDAHV20DH5T                                                 00030000  000000000000120000001020190809SEA.FLKGMST7901010085/7931006839                                                                                                  
12000I     O31E912510800025108201906282207 00025108MST7901010085/7931006839 0050                        00025103                                                                                                                                                                                                      
12000I     O31E112510800025108201906282207100025108MST7901010085/7931006839 0060LDAHV23DH5T                                                 00048000  000000000000120000001020190809SEA.FLKGMST7901010085/7931006839                                                                                                  
12000I     O31E912510800025108201906282207 00025108MST7901010085/7931006839 0060                        00025103                                                                                                                                                                                                      
12000I     O31E112510800025108201906282207100025108MST7901010085/7931006839 0070LDAHV30DH5T                                                 00035000  000000000000120000001020190809SEA.FLKGMST7901010085/7931006839                                                                                                  
12000I     O31E912510800025108201906282207 00025108MST7901010085/7931006839 0070                        00025103                                                                                                                                                                                                      
12000I     O31E112510800025108201906282207100025108MST7901010085/7931006839 0080LDAHV3DH6T                                                  00070000  000000000005520000001020190809SEA.FLKGMST7901010085/7931006839                                                                                                  
12000I     O31E912510800025108201906282207 00025108MST7901010085/7931006839 0080                        00025103                                                                                                                                                                                                      
12000I     O31E112510800025108201906282207100025108MST7901010085/7931006839 0090LDAHV3LH6T                                                  00030000  000000000005520000001020190809SEA.FLKGMST7901010085/7931006839                                                                                                  
12000I     O31E912510800025108201906282207 00025108MST7901010085/7931006839 0090                        00025103                                                                                                                                                                                                      
12000I     O31E112510800025108201906282207100025108MST7901010085/7931006839 0100LDAHV5DH6T                                                  00070000  000000000000610000001020190809SEA.FLKGMST7901010085/7931006839                                                                                                  
12000I     O31E912510800025108201906282207 00025108MST7901010085/7931006839 0100                        00025103                                                                                                                                                                                                      
12000I     O31E112510800025108201906282207100025108MST7901010085/7931006839 0110LDAHV5LH6T                                                  00070000  000000000000610000001020190809SEA.FLKGMST7901010085/7931006839                                                                                                  
12000I     O31E912510800025108201906282207 00025108MST7901010085/7931006839 0110                        00025103                                                                                                                                                                                                      
12000I     O31E112510800025108201906282207100025108MST7901010085/7931006839 0120LDAHV7DH6T                                                  00100000  000000000006820000001020190809SEA.FLKGMST7901010085/7931006839                                                                                                  
12000I     O31E912510800025108201906282207 00025108MST7901010085/7931006839 0120                        00025103                                                                                                                                                                                                      
12000I     O31E112510800025108201906282207100025108MST7901010085/7931006839 0130LDAHV7LH6T                                                  00070000  000000000006820000001020190809SEA.FLKGMST7901010085/7931006839                                                                                                  
12000I     O31E912510800025108201906282207 00025108MST7901010085/7931006839 0130                        00025103                                                                                                                                                                                                      
12000I     O31E112510800025108201906282207100025108MST7901010085/7931006839 0140LDAHV9DH6T                                                  00040000  000000000008920000001020190809SEA.FLKGMST7901010085/7931006839                                                                                                  
12000I     O31E912510800025108201906282207 00025108MST7901010085/7931006839 0140                        00025103                                                                                                                                                                                                      
12000I     O31E112510800025108201906282207100025108MST7901010085/7931006839 0150LDAHV9LH6T                                                  00050000  000000000008920000001020190809SEA.FLKGMST7901010085/7931006839                                                                                                  
12000I     O31E912510800025108201906282207 00025108MST7901010085/7931006839 0150                        00025103                                                                                                                                                                                                      
12000I     O31E112510800025108201906282207100025108MST7901010085/7931006839 0160LDTHV11L30GA1                                               00010000  000000000000120000001020190809SEA.FLKGMST7901010085/7931006839                                                                                                  
12000I     O31E912510800025108201906282207 00025108MST7901010085/7931006839 0160                        00025103                                                                                                                                                                                                      
12000I     O31E112510800025108201906282207100025108MST7901010085/7931006839 0170LDTHV7L30GA1                                                00030000  000000000000120000001020190809SEA.FLKGMST7901010085/7931006839                                                                                                  
12000I     O31E912510800025108201906282207 00025108MST7901010085/7931006839 0170                        00025103                                                                                                                                                                                                      
