00025103   O31A112510800025108201702171050100025108MST160691/7931001706         A  0002510300039130                                 S31790                              YCKE, MS. CHUI HONG, MICHELLE MI20170222        1N10003827420170225SEA.FLKGLIGHTING                                                       O   
00025103   O31A212510800025108201702171050100025108MST160691/7931001706         FOB0                              USD                                                        00039130201703150003913000039130                                            00038274                                                     
00025103   O31E112510800025108201702171050100025108MST160691/7931001706     0001EFDHV15D65T1                                                00039360  0000000011127400000010        SEA.FLKG7931001706                                                                                                                
00025103   O31E912510800025108201702171050 00025108MST160691/7931001706     0001                        00039130                                                                                                                                                                                                      
00025103   O31E112510800025108201702171050100025108MST160691/7931001706     0002EFDHV15L27T1                                                00069120  0000000011127400000010        SEA.FLKG7931001706                                                                                                                
00025103   O31E912510800025108201702171050 00025108MST160691/7931001706     0002                        00039130                                                                                                                                                                                                      
00025103   O31E112510800025108201702171050100025108MST160691/7931001706     0003EFU11E652V                                                  00030000  0000000012234400000010        SEA.FLKG7931001706                                                                                                                
00025103   O31E912510800025108201702171050 00025108MST160691/7931001706     0003                        00039130                                                                                                                                                                                                      
00025103   O31E112510800025108201702171050100025108MST160691/7931001706     0004EFU14E272V1                                                 00110000  0000000011896400000010        SEA.FLKG7931001706                                                                                                                
00025103   O31E912510800025108201702171050 00025108MST160691/7931001706     0004                        00039130                                                                                                                                                                                                      
00025103   O31E112510800025108201702171050100025108MST160691/7931001706     0005EFU14E652V1                                                 00379000  0000000011896400000010        SEA.FLKG7931001706                                                                                                                
00025103   O31E912510800025108201702171050 00025108MST160691/7931001706     0005                        00039130                                                                                                                                                                                                      
00025103   O31E112510800025108201702171050100025108MST160691/7931001706     0006EFU8E652V1                                                  00080000  0000000010883400000010        SEA.FLKG7931001706                                                                                                                
00025103   O31E912510800025108201702171050 00025108MST160691/7931001706     0006                        00039130                                                                                                                                                                                                      
