12000I     O31A112510800025108201808242008100025108MST7901001282/7931005144       10002510300039130                                 L31790                              NNR01-SG                        20181010         N 0003827420180923SEA.FLKGLIGHTING                                                       O   
12000I     O31A212510800025108201808242008100025108MST7901001282/7931005144     FOB0                              USD                                                        00025103201810100002510300025103SCMM                                        00038274                                                     
12000I     O31A812510800025108201808242008100025108MST7901001282/7931005144     FOB                                                                                                                                                                                                                                   
12000I     O31E112510800025108201808242008100025108MST7901001282/7931005144 0010LDAHV12DH6T                                                 00088000  000000000000120000001020181010SEA.FLKGMST7901001282/7931005144                                                                                                  
12000I     O31E912510800025108201808242008 00025108MST7901001282/7931005144 0010                        00025103                                                                                                                                                                                                      
12000I     O31E112510800025108201808242008100025108MST7901001282/7931005144 0020LDAHV12LH6T                                                 00025000  000000000000120000001020181010SEA.FLKGMST7901001282/7931005144                                                                                                  
12000I     O31E912510800025108201808242008 00025108MST7901001282/7931005144 0020                        00025103                                                                                                                                                                                                      
12000I     O31E112510800025108201808242008100025108MST7901001282/7931005144 0030LDAHV15LH6T                                                 00025000  000000000000120000001020181010SEA.FLKGMST7901001282/7931005144                                                                                                  
12000I     O31E912510800025108201808242008 00025108MST7901001282/7931005144 0030                        00025103                                                                                                                                                                                                      
12000I     O31E112510800025108201808242008100025108MST7901001282/7931005144 0040LDAHV3DH6T                                                  00050000  000000000000120000001020181010SEA.FLKGMST7901001282/7931005144                                                                                                  
12000I     O31E912510800025108201808242008 00025108MST7901001282/7931005144 0040                        00025103                                                                                                                                                                                                      
12000I     O31E112510800025108201808242008100025108MST7901001282/7931005144 0050LDAHV5DH6T                                                  00120000  000000000000120000001020181010SEA.FLKGMST7901001282/7931005144                                                                                                  
12000I     O31E912510800025108201808242008 00025108MST7901001282/7931005144 0050                        00025103                                                                                                                                                                                                      
12000I     O31E112510800025108201808242008100025108MST7901001282/7931005144 0060LDAHV5LH6T                                                  00060000  000000000000120000001020181010SEA.FLKGMST7901001282/7931005144                                                                                                  
12000I     O31E912510800025108201808242008 00025108MST7901001282/7931005144 0060                        00025103                                                                                                                                                                                                      
12000I     O31E112510800025108201808242008100025108MST7901001282/7931005144 0070LDAHV7DH6T                                                  00300000  000000000000120000001020181010SEA.FLKGMST7901001282/7931005144                                                                                                  
12000I     O31E912510800025108201808242008 00025108MST7901001282/7931005144 0070                        00025103                                                                                                                                                                                                      
12000I     O31E112510800025108201808242008100025108MST7901001282/7931005144 0080LDAHV7LH6T                                                  00070000  000000000000120000001020181010SEA.FLKGMST7901001282/7931005144                                                                                                  
12000I     O31E912510800025108201808242008 00025108MST7901001282/7931005144 0080                        00025103                                                                                                                                                                                                      
12000I     O31E112510800025108201808242008100025108MST7901001282/7931005144 0090LDAHV9DH6T                                                  00165000  000000000000120000001020181010SEA.FLKGMST7901001282/7931005144                                                                                                  
12000I     O31E912510800025108201808242008 00025108MST7901001282/7931005144 0090                        00025103                                                                                                                                                                                                      
12000I     O31E112510800025108201808242008100025108MST7901001282/7931005144 0100LDAHV9LH6T                                                  00055000  000000000000120000001020181010SEA.FLKGMST7901001282/7931005144                                                                                                  
12000I     O31E912510800025108201808242008 00025108MST7901001282/7931005144 0100                        00025103                                                                                                                                                                                                      
12000I     O31E112510800025108201808242008100025108MST7901001282/7931005144 0110LDS300D2N                                                   00002500  000000000000120000001020181010SEA.FLKGMST7901001282/7931005144                                                                                                  
12000I     O31E912510800025108201808242008 00025108MST7901001282/7931005144 0110                        00025103                                                                                                                                                                                                      
12000I     O31A112510800025108201808242008100025108MST7901001283/7931005146       10002510300039130                                 L31790                              NNR01-SG                        20181102         N 0003827420181015SEA.FLKGLIGHTING                                                       O   
12000I     O31A212510800025108201808242008100025108MST7901001283/7931005146     FOB0                              USD                                                        00025103201811020002510300025103SCMM                                        00038274                                                     
12000I     O31A812510800025108201808242008100025108MST7901001283/7931005146     FOB                                                                                                                                                                                                                                   
12000I     O31E112510800025108201808242008100025108MST7901001283/7931005146 0010LDS300D2N                                                   00002500  000000000000120000001020181102SEA.FLKGMST7901001283/7931005146                                                                                                  
12000I     O31E912510800025108201808242008 00025108MST7901001283/7931005146 0010                        00025103                                                                                                                                                                                                      
12000I     O31A112510800025108201808242008100025108MST7901001284/7931005147       10002510300039130                                 L31790                              NNR01-SG                        20181102         N 0003827420181015SEA.FLKGLIGHTING                                                       O   
12000I     O31A212510800025108201808242008100025108MST7901001284/7931005147     FOB0                              USD                                                        00025103201811020002510300025103SCMM                                        00038274                                                     
12000I     O31A812510800025108201808242008100025108MST7901001284/7931005147     FOB                                                                                                                                                                                                                                   
12000I     O31E112510800025108201808242008100025108MST7901001284/7931005147 0010LDR400N                                                     00003000  000000000000120000001020181102SEA.FLKGMST7901001284/7931005147                                                                                                  
12000I     O31E912510800025108201808242008 00025108MST7901001284/7931005147 0010                        00025103                                                                                                                                                                                                      
12000I     O31A112510800025108201808242008100025108MST7901001285/7931005145       10002510300039130                                 L31790                              NNR01-SG                        20181010         N 0003827420180923SEA.FLKGLIGHTING                                                       O   
12000I     O31A212510800025108201808242008100025108MST7901001285/7931005145     FOB0                              USD                                                        00025103201810100002510300025103SCMM                                        00038274                                                     
12000I     O31A812510800025108201808242008100025108MST7901001285/7931005145     FOB                                                                                                                                                                                                                                   
12000I     O31E112510800025108201808242008100025108MST7901001285/7931005145 0010EFDHV11D65T                                                 00033600  000000000000120000001020181010SEA.FLKGMST7901001285/7931005145                                                                                                  
12000I     O31E912510800025108201808242008 00025108MST7901001285/7931005145 0010                        00025103                                                                                                                                                                                                      
12000I     O31E112510800025108201808242008100025108MST7901001285/7931005145 0020EFDHV15D65T1                                                00199680  000000000000120000001020181010SEA.FLKGMST7901001285/7931005145                                                                                                  
12000I     O31E912510800025108201808242008 00025108MST7901001285/7931005145 0020                        00025103                                                                                                                                                                                                      
12000I     O31E112510800025108201808242008100025108MST7901001285/7931005145 0030EFDHV15L27T1                                                00083520  000000000000120000001020181010SEA.FLKGMST7901001285/7931005145                                                                                                  
12000I     O31E912510800025108201808242008 00025108MST7901001285/7931005145 0030                        00025103                                                                                                                                                                                                      
12000I     O31E112510800025108201808242008100025108MST7901001285/7931005145 0040EFDHV20D65T1                                                00021120  000000000000120000001020181010SEA.FLKGMST7901001285/7931005145                                                                                                  
12000I     O31E912510800025108201808242008 00025108MST7901001285/7931005145 0040                        00025103                                                                                                                                                                                                      
12000I     O31E112510800025108201808242008100025108MST7901001285/7931005145 0050EFDHV23D65T1                                                00048000  000000000000120000001020181010SEA.FLKGMST7901001285/7931005145                                                                                                  
12000I     O31E912510800025108201808242008 00025108MST7901001285/7931005145 0050                        00025103                                                                                                                                                                                                      
12000I     O31E112510800025108201808242008100025108MST7901001285/7931005145 0060EFDHV25D65T                                                 02528640  000000000014820000001020181010SEA.FLKGMST7901001285/7931005145                                                                                                  
12000I     O31E912510800025108201808242008 00025108MST7901001285/7931005145 0060                        00025103                                                                                                                                                                                                      
12000I     O31E112510800025108201808242008100025108MST7901001285/7931005145 0070EFDHV25L27T                                                 00034560  000000000014820000001020181010SEA.FLKGMST7901001285/7931005145                                                                                                  
12000I     O31E912510800025108201808242008 00025108MST7901001285/7931005145 0070                        00025103                                                                                                                                                                                                      
12000I     O31E112510800025108201808242008100025108MST7901001285/7931005145 0080EFDHV32D65A                                                 00024000  000000000000120000001020181010SEA.FLKGMST7901001285/7931005145                                                                                                  
12000I     O31E912510800025108201808242008 00025108MST7901001285/7931005145 0080                        00025103                                                                                                                                                                                                      
12000I     O31E112510800025108201808242008100025108MST7901001285/7931005145 0090EFDHV42D65A                                                 00034800  000000000000120000001020181010SEA.FLKGMST7901001285/7931005145                                                                                                  
12000I     O31E912510800025108201808242008 00025108MST7901001285/7931005145 0090                        00025103                                                                                                                                                                                                      
12000I     O31E112510800025108201808242008100025108MST7901001285/7931005145 0100EFU11E652V                                                  00042000  000000000000120000001020181010SEA.FLKGMST7901001285/7931005145                                                                                                  
12000I     O31E912510800025108201808242008 00025108MST7901001285/7931005145 0100                        00025103                                                                                                                                                                                                      
12000I     O31E112510800025108201808242008100025108MST7901001285/7931005145 0110EFU14E272V1                                                 00100000  000000000000120000001020181010SEA.FLKGMST7901001285/7931005145                                                                                                  
12000I     O31E912510800025108201808242008 00025108MST7901001285/7931005145 0110                        00025103                                                                                                                                                                                                      
12000I     O31E112510800025108201808242008100025108MST7901001285/7931005145 0120EFU14E652V1                                                 00600000  000000000000120000001020181010SEA.FLKGMST7901001285/7931005145                                                                                                  
12000I     O31E912510800025108201808242008 00025108MST7901001285/7931005145 0120                        00025103                                                                                                                                                                                                      
12000I     O31E112510800025108201808242008100025108MST7901001285/7931005145 0130EFU8E652V1                                                  00132000  000000000000120000001020181010SEA.FLKGMST7901001285/7931005145                                                                                                  
12000I     O31E912510800025108201808242008 00025108MST7901001285/7931005145 0130                        00025103                                                                                                                                                                                                      
12000I     O31E112510800025108201808242008100025108MST7901001285/7931005145 0140EFUHV18D65A                                                 00200000  000000000000120000001020181010SEA.FLKGMST7901001285/7931005145                                                                                                  
12000I     O31E912510800025108201808242008 00025108MST7901001285/7931005145 0140                        00025103                                                                                                                                                                                                      
12000I     O31E112510800025108201808242008100025108MST7901001285/7931005145 0150EFUHV18L27A                                                 00015000  000000000000120000001020181010SEA.FLKGMST7901001285/7931005145                                                                                                  
12000I     O31E912510800025108201808242008 00025108MST7901001285/7931005145 0150                        00025103                                                                                                                                                                                                      
12000I     O31E112510800025108201808242008100025108MST7901001285/7931005145 0160EFUHV23D65A                                                 00080000  000000000000120000001020181010SEA.FLKGMST7901001285/7931005145                                                                                                  
12000I     O31E912510800025108201808242008 00025108MST7901001285/7931005145 0160                        00025103                                                                                                                                                                                                      
12000I     O31E112510800025108201808242008100025108MST7901001285/7931005145 0170LDR400N                                                     00007000  000000000000120000001020181010SEA.FLKGMST7901001285/7931005145                                                                                                  
12000I     O31E912510800025108201808242008 00025108MST7901001285/7931005145 0170                        00025103                                                                                                                                                                                                      
