00025103   O31A112511300025113201801301044100025113MNZ171680/P89034             A  0002510300029671                                 S31790ERASMUSJ                      NCKE, MS. CHUI HONG, MICHELLE MI20180214        1N10003827420180223SEA.FAKLLIGHTING                                                       O   
00025103   O31A212511300025113201801301044100025113MNZ171680/P89034             FOB0                              USD                                                                20180320                SCMM                                        00038274                                                     
00025103   O31E112511300025113201801301044100025113MNZ171680/P89034         0001LDAHV10DG4A1        LDAHV10DG4A1                            00002500  0000000024714400000010                                         ATP Auto Generate                                                                                
00025103   O31E112511300025113201801301044100025113MNZ171680/P89034         0002LDAHV10LG4A1        LDAHV10LG4A1                            00002500  0000000024714400000010                                         ATP Auto Generate                                                                                
00025103   O31E112511300025113201801301044100025113MNZ171680/P89034         0003LDAHV10LG4BA        LDAHV10LG4BA                            00002500  0000000024714400000010                                         ATP Auto Generate                                                                                
