00025103   O31A112511300025113201611280946100025113MNZ158361/P85686             A  0002510300029671                                 S31790ERASMUSJ                      NCKE, MS. CHUI HONG, MICHELLE MI20161213        1N10003827420161224SEA.FAKLLIGHTING                                                       O   
00025103   O31A212511300025113201611280946100025113MNZ158361/P85686             FOB0                              USD                                                                20170120                SCMM                                        00038274                                                     
00025103   O31E112511300025113201611280946100025113MNZ158361/P85686         0001LDAHV10LG4A1        LDAHV10LG4A1                            00005000  0000000024714400000010                                         ATP Auto Generate                                                                                
00025103   O31E112511300025113201611280946100025113MNZ158361/P85686         0002LDAHV10LG4BA        LDAHV10LG4BA                            00005000  0000000024714400000010                                         ATP Auto Generate                                                                                
00025103   O31E112511300025113201611280946100025113MNZ158361/P85686         0003LDAHV7LG4A1         LDAHV7LG4A1                             00005000  0000000001717300000010                                         ATP Auto Generate                                                                                
00025103   O31E112511300025113201611280946100025113MNZ158361/P85686         0004LDAHV7LG4BA         LDAHV7LG4BA                             00010000  0000000001717300000010                                         ATP Auto Generate                                                                                
00025103   O31E112511300025113201611280946100025113MNZ158361/P85686         0005LDAHV8LG4A1         LDAHV8LG4A1                             00005000  0000000021072400000010                                         ATP Auto Generate                                                                                
