12000I     O31A112510800025108201903251010100025108MST7901007371/7931006290       10002510300039130                                 L31790                              NNR01-SG                        20190510         N 0003827420190425SEA.FLKGLIGHTING                                                       O   
12000I     O31A212510800025108201903251010100025108MST7901007371/7931006290     FOB0                              USD                                                        00025103201905100002510300025103SCMM                                        00038274                                                     
12000I     O31A812510800025108201903251010100025108MST7901007371/7931006290     FOB                                                                                                                                                                                                                                   
12000I     O31E112510800025108201903251010100025108MST7901007371/7931006290 0010LDAHV12DH6T                                                 00165000  000000000011520000001020190510SEA.FLKGMST7901007371/7931006290                                                                                                  
12000I     O31E912510800025108201903251010 00025108MST7901007371/7931006290 0010                        00025103                                                                                                                                                                                                      
12000I     O31E112510800025108201903251010100025108MST7901007371/7931006290 0020LDAHV12LH6T                                                 00044000  000000000011520000001020190510SEA.FLKGMST7901007371/7931006290                                                                                                  
12000I     O31E912510800025108201903251010 00025108MST7901007371/7931006290 0020                        00025103                                                                                                                                                                                                      
12000I     O31E112510800025108201903251010100025108MST7901007371/7931006290 0030LDAHV15DH6T                                                 00100000  000000000014220000001020190510SEA.FLKGMST7901007371/7931006290                                                                                                  
12000I     O31E912510800025108201903251010 00025108MST7901007371/7931006290 0030                        00025103                                                                                                                                                                                                      
12000I     O31E112510800025108201903251010100025108MST7901007371/7931006290 0040LDAHV15LH6T                                                 00027000  000000000014220000001020190510SEA.FLKGMST7901007371/7931006290                                                                                                  
12000I     O31E912510800025108201903251010 00025108MST7901007371/7931006290 0040                        00025103                                                                                                                                                                                                      
12000I     O31E112510800025108201903251010100025108MST7901007371/7931006290 0050LDAHV20DH5T                                                 00045000  000000000000120000001020190510SEA.FLKGMST7901007371/7931006290                                                                                                  
12000I     O31E912510800025108201903251010 00025108MST7901007371/7931006290 0050                        00025103                                                                                                                                                                                                      
12000I     O31E112510800025108201903251010100025108MST7901007371/7931006290 0060LDAHV30DH5T                                                 00027000  000000000000120000001020190510SEA.FLKGMST7901007371/7931006290                                                                                                  
12000I     O31E912510800025108201903251010 00025108MST7901007371/7931006290 0060                        00025103                                                                                                                                                                                                      
12000I     O31E112510800025108201903251010100025108MST7901007371/7931006290 0070LDAHV3DH6T                                                  00055000  000000000005520000001020190510SEA.FLKGMST7901007371/7931006290                                                                                                  
12000I     O31E912510800025108201903251010 00025108MST7901007371/7931006290 0070                        00025103                                                                                                                                                                                                      
12000I     O31E112510800025108201903251010100025108MST7901007371/7931006290 0080LDAHV3LH6T                                                  00030000  000000000005520000001020190510SEA.FLKGMST7901007371/7931006290                                                                                                  
12000I     O31E912510800025108201903251010 00025108MST7901007371/7931006290 0080                        00025103                                                                                                                                                                                                      
12000I     O31E112510800025108201903251010100025108MST7901007371/7931006290 0090LDAHV5DH6T                                                  00160000  000000000000610000001020190510SEA.FLKGMST7901007371/7931006290                                                                                                  
12000I     O31E912510800025108201903251010 00025108MST7901007371/7931006290 0090                        00025103                                                                                                                                                                                                      
12000I     O31E112510800025108201903251010100025108MST7901007371/7931006290 0100LDAHV5LH6T                                                  00050000  000000000000610000001020190510SEA.FLKGMST7901007371/7931006290                                                                                                  
12000I     O31E912510800025108201903251010 00025108MST7901007371/7931006290 0100                        00025103                                                                                                                                                                                                      
12000I     O31E112510800025108201903251010100025108MST7901007371/7931006290 0110LDAHV7DH6T                                                  00300000  000000000006820000001020190510SEA.FLKGMST7901007371/7931006290                                                                                                  
12000I     O31E912510800025108201903251010 00025108MST7901007371/7931006290 0110                        00025103                                                                                                                                                                                                      
12000I     O31E112510800025108201903251010100025108MST7901007371/7931006290 0120LDAHV7LH6T                                                  00055000  000000000006820000001020190510SEA.FLKGMST7901007371/7931006290                                                                                                  
12000I     O31E912510800025108201903251010 00025108MST7901007371/7931006290 0120                        00025103                                                                                                                                                                                                      
12000I     O31E112510800025108201903251010100025108MST7901007371/7931006290 0130LDAHV9DH6T                                                  00180000  000000000008920000001020190510SEA.FLKGMST7901007371/7931006290                                                                                                  
12000I     O31E912510800025108201903251010 00025108MST7901007371/7931006290 0130                        00025103                                                                                                                                                                                                      
12000I     O31E112510800025108201903251010100025108MST7901007371/7931006290 0140LDAHV9LH6T                                                  00033000  000000000008920000001020190510SEA.FLKGMST7901007371/7931006290                                                                                                  
12000I     O31E912510800025108201903251010 00025108MST7901007371/7931006290 0140                        00025103                                                                                                                                                                                                      
12000I     O31E112510800025108201903251010100025108MST7901007371/7931006290 0150LDS300D2N                                                   00018000  000000000000120000001020190510SEA.FLKGMST7901007371/7931006290                                                                                                  
12000I     O31E912510800025108201903251010 00025108MST7901007371/7931006290 0150                        00025103                                                                                                                                                                                                      
12000I     O31A112510800025108201903251011100025108MST7901007372/7931006291       10002510300039130                                 L31790                              NNR01-SG                        20190510         N 0003827420190425SEA.FLKGLIGHTING                                                       O   
12000I     O31A212510800025108201903251011100025108MST7901007372/7931006291     FOB0                              USD                                                        00025103201905100002510300025103SCMM                                        00038274                                                     
12000I     O31A812510800025108201903251011100025108MST7901007372/7931006291     FOB                                                                                                                                                                                                                                   
12000I     O31E112510800025108201903251011100025108MST7901007372/7931006291 0010EFDHV15D65T1                                                00150720  000000000000120000001020190510SEA.FLKGMST7901007372/7931006291                                                                                                  
12000I     O31E912510800025108201903251011 00025108MST7901007372/7931006291 0010                        00025103                                                                                                                                                                                                      
12000I     O31E112510800025108201903251011100025108MST7901007372/7931006291 0020EFDHV15L27T1                                                00024000  000000000000120000001020190510SEA.FLKGMST7901007372/7931006291                                                                                                  
12000I     O31E912510800025108201903251011 00025108MST7901007372/7931006291 0020                        00025103                                                                                                                                                                                                      
12000I     O31E112510800025108201903251011100025108MST7901007372/7931006291 0030EFDHV20D65T1                                                00011520  000000000000120000001020190510SEA.FLKGMST7901007372/7931006291                                                                                                  
12000I     O31E912510800025108201903251011 00025108MST7901007372/7931006291 0030                        00025103                                                                                                                                                                                                      
12000I     O31E112510800025108201903251011100025108MST7901007372/7931006291 0040EFDHV32D65A                                                 00011520  000000000000120000001020190510SEA.FLKGMST7901007372/7931006291                                                                                                  
12000I     O31E912510800025108201903251011 00025108MST7901007372/7931006291 0040                        00025103                                                                                                                                                                                                      
12000I     O31E112510800025108201903251011100025108MST7901007372/7931006291 0050EFU11E652V                                                  00040000  000000000000120000001020190510SEA.FLKGMST7901007372/7931006291                                                                                                  
12000I     O31E912510800025108201903251011 00025108MST7901007372/7931006291 0050                        00025103                                                                                                                                                                                                      
12000I     O31E112510800025108201903251011100025108MST7901007372/7931006291 0060EFU14E272V1                                                 00080000  000000000000120000001020190510SEA.FLKGMST7901007372/7931006291                                                                                                  
12000I     O31E912510800025108201903251011 00025108MST7901007372/7931006291 0060                        00025103                                                                                                                                                                                                      
12000I     O31E112510800025108201903251011100025108MST7901007372/7931006291 0070EFU14E652V1                                                 00270000  000000000000120000001020190510SEA.FLKGMST7901007372/7931006291                                                                                                  
12000I     O31E912510800025108201903251011 00025108MST7901007372/7931006291 0070                        00025103                                                                                                                                                                                                      
12000I     O31E112510800025108201903251011100025108MST7901007372/7931006291 0080EFU8E652V1                                                  00120000  000000000000120000001020190510SEA.FLKGMST7901007372/7931006291                                                                                                  
12000I     O31E912510800025108201903251011 00025108MST7901007372/7931006291 0080                        00025103                                                                                                                                                                                                      
12000I     O31E112510800025108201903251011100025108MST7901007372/7931006291 0090EFUHV18D65A                                                 00110000  000000000000120000001020190510SEA.FLKGMST7901007372/7931006291                                                                                                  
12000I     O31E912510800025108201903251011 00025108MST7901007372/7931006291 0090                        00025103                                                                                                                                                                                                      
12000I     O31E112510800025108201903251011100025108MST7901007372/7931006291 0100EFUHV23D65A                                                 00030000  000000000000120000001020190510SEA.FLKGMST7901007372/7931006291                                                                                                  
12000I     O31E912510800025108201903251011 00025108MST7901007372/7931006291 0100                        00025103                                                                                                                                                                                                      
12000I     O31E112510800025108201903251011100025108MST7901007372/7931006291 0110LDR400N                                                     00010800  000000000000120000001020190510SEA.FLKGMST7901007372/7931006291                                                                                                  
12000I     O31E912510800025108201903251011 00025108MST7901007372/7931006291 0110                        00025103                                                                                                                                                                                                      
12000I     O31A112511000025110201903251209100025110MMQ7901007492/7921006481       10002510300039140                                 L31790                              NNR01-SG                        20190510         N 0003827420190425SEA.FPKLLIGHTING                                                       O   
12000I     O31A212511000025110201903251209100025110MMQ7901007492/7921006481     FOB0                              USD                                                        00025103201905100002510300025103SCMM                                        00038274                                                     
12000I     O31A812511000025110201903251209100025110MMQ7901007492/7921006481     FOB                                                                                                                                                                                                                                   
12000I     O31E112511000025110201903251209100025110MMQ7901007492/7921006481 0010EFUHV18D65A3                                                00440000  000000000000120000001020190510SEA.FPKLMMQ7901007492/7921006481                                                                                                  
12000I     O31E912511000025110201903251209 00025110MMQ7901007492/7921006481 0010                        00025103                                                                                                                                                                                                      
12000I     O31E112511000025110201903251209100025110MMQ7901007492/7921006481 0020LDAHV11DH7A                                                 00020000  000000000000120000001020190510SEA.FPKLMMQ7901007492/7921006481                                                                                                  
12000I     O31E912511000025110201903251209 00025110MMQ7901007492/7921006481 0020                        00025103                                                                                                                                                                                                      
12000I     O31E112511000025110201903251209100025110MMQ7901007492/7921006481 0030LDAHV11LH7A                                                 00010000  000000000000120000001020190510SEA.FPKLMMQ7901007492/7921006481                                                                                                  
12000I     O31E912511000025110201903251209 00025110MMQ7901007492/7921006481 0030                        00025103                                                                                                                                                                                                      
