00025103   O31A112510800025108201711141037100025108MST169340/7931003402         A  0002510300039130                                 L31790                              YCKE, MS. CHUI HONG, MICHELLE MI20171119        1N100038274        AIR.FLKGUA                                                             O   
00025103   O31A212510800025108201711141037100025108MST169340/7931003402         FOB0                              USD                                                        00039130201711300003913000039130                                            00038274                                                     
00025103   O31E112510800025108201711141037100025108MST169340/7931003402     0001LDAHV12DH5T                                                 00050000  0000000013271400000010        AIR.FLKG7931003402                                                                                                                
00025103   O31E912510800025108201711141037 00025108MST169340/7931003402     0001                        00039130                                                                                                                                                                                                      
00025103   O31E112510800025108201711141037100025108MST169340/7931003402     0002LDAHV15DH5T                                                 00085000  0000000017759400000010        AIR.FLKG7931003402                                                                                                                
00025103   O31E912510800025108201711141037 00025108MST169340/7931003402     0002                        00039130                                                                                                                                                                                                      
00025103   O31A112510800025108201711141037100025108MST169342/7931003403         A  0002510300039130                                 S31790                              YCKE, MS. CHUI HONG, MICHELLE MI20171119        1N100038274        AIR.FLKGLIGHTING                                                       O   
00025103   O31A212510800025108201711141037100025108MST169342/7931003403         FOB0                              USD                                                        00039130201711300003913000039130                                            00038274                                                     
00025103   O31E112510800025108201711141037100025108MST169342/7931003403     0001EFU14E652V1                                                 00445000  0000000011896400000010        AIR.FLKG7931003403                                                                                                                
00025103   O31E912510800025108201711141037 00025108MST169342/7931003403     0001                        00039130                                                                                                                                                                                                      
