12000I     O31A112510700025107201905171740100025107MPH7901009029/7961007490       10002510300029474                                 L31790                              YNR01-SG                        20190603         N 00038274        SEA.FMNLLIGHTING                                                       O   
12000I     O31A212510700025107201905171740100025107MPH7901009029/7961007490     FOB0                              USD                                                        00025103201906030002510300025103                                            00038274                                                     
12000I     O31A812510700025107201905171740100025107MPH7901009029/7961007490     FOB                                                                                                                                                                                                                                   
12000I     O31E112510700025107201905171740100025107MPH7901009029/7961007490 0010EFDHV20D65A                                                 00001920  000000000000120000001020190603SEA.FMNLMPH7901009029/7961007490                                                                                                  
12000I     O31E912510700025107201905171740 00025107MPH7901009029/7961007490 0010                        00025103                                                                                                                                                                                                      
