12000I     O31A112511000025110201903281220100025110MMQ7901007927/7921006549       10002510300039140                                 L31790                              YNR01-SG                        20190517         N 0003827420190424SEA.FPKLLIGHTING                                                       O   
12000I     O31A212511000025110201903281220100025110MMQ7901007927/7921006549     FOB0                              USD                                                        00025103201905170002510300025103                                            00038274                                                     
12000I     O31A812511000025110201903281220100025110MMQ7901007927/7921006549     FOB                                                                                                                                                                                                                                   
12000I     O31E112511000025110201903281220100025110MMQ7901007927/7921006549 0010EFUHV18L27A3                                                00022000  000000000000120000001020190517SEA.FPKLMMQ7901007927/7921006549                                                                                                  
12000I     O31E912511000025110201903281220 00025110MMQ7901007927/7921006549 0010                        00025103                                                                                                                                                                                                      
12000I     O31A112511000025110201903281220100025110MMQ7901007928/7921006548       10002510300039140                                 L31790                              YNR01-SG                        20190510         N 0003827420190417SEA.FPKLLIGHTING                                                       O   
12000I     O31A212511000025110201903281220100025110MMQ7901007928/7921006548     FOB0                              USD                                                        00025103201905100002510300025103                                            00038274                                                     
12000I     O31A812511000025110201903281220100025110MMQ7901007928/7921006548     FOB                                                                                                                                                                                                                                   
12000I     O31E112511000025110201903281220100025110MMQ7901007928/7921006548 0010EFUHV18D65A3                                                00440000  000000000000120000001020190510SEA.FPKLMMQ7901007928/7921006548                                                                                                  
12000I     O31E912511000025110201903281220 00025110MMQ7901007928/7921006548 0010                        00025103                                                                                                                                                                                                      
12000I     O31E112511000025110201903281220100025110MMQ7901007928/7921006548 0020LDAHV11DH7A                                                 00020000  000000000000120000001020190510SEA.FPKLMMQ7901007928/7921006548                                                                                                  
12000I     O31E912511000025110201903281220 00025110MMQ7901007928/7921006548 0020                        00025103                                                                                                                                                                                                      
12000I     O31E112511000025110201903281220100025110MMQ7901007928/7921006548 0030LDAHV11LH7A                                                 00010000  000000000000120000001020190510SEA.FPKLMMQ7901007928/7921006548                                                                                                  
12000I     O31E912511000025110201903281220 00025110MMQ7901007928/7921006548 0030                        00025103                                                                                                                                                                                                      
