00025103   O31A112510800025108201612081034100025108MST159015/7931001228         A  0002510300039130                                 S31790                              YCKE, MS. CHUI HONG, MICHELLE MI20161213        1N10003827420161217SEA.FLKGLIGHTING                                                       O   
00025103   O31A212510800025108201612081034100025108MST159015/7931001228         FOB0                              USD                                                        00039130201701040003913000039130                                            00038274                                                     
00025103   O31E112510800025108201612081034100025108MST159015/7931001228     0001LDAHV12DG4A                                                 00013500  0000000029136400000010        SEA.FLKG7931001228                                                                                                                
00025103   O31E912510800025108201612081034 00025108MST159015/7931001228     0001                        00039130                                                                                                                                                                                                      
00025103   O31E112510800025108201612081034100025108MST159015/7931001228     0002LDAHV4DG4A                                                  00099000  0000000011021400000010        SEA.FLKG7931001228                                                                                                                
00025103   O31E912510800025108201612081034 00025108MST159015/7931001228     0002                        00039130                                                                                                                                                                                                      
00025103   O31E112510800025108201612081034100025108MST159015/7931001228     0003LDAHV7DG4A                                                  00117000  0000000013892400000010        SEA.FLKG7931001228                                                                                                                
00025103   O31E912510800025108201612081034 00025108MST159015/7931001228     0003                        00039130                                                                                                                                                                                                      
00025103   O31E112510800025108201612081034100025108MST159015/7931001228     0004LDAHV7LG4A                                                  00030000  0000000013892400000010        SEA.FLKG7931001228                                                                                                                
00025103   O31E912510800025108201612081034 00025108MST159015/7931001228     0004                        00039130                                                                                                                                                                                                      
00025103   O31A112510800025108201612081034100025108MST159016/7931001229         A  0002510300039130                                 S31790                              YCKE, MS. CHUI HONG, MICHELLE MI20161213        1N10003827420161217SEA.FLKGLIGHTING                                                       O   
00025103   O31A212510800025108201612081034100025108MST159016/7931001229         FOB0                              USD                                                        00039130201701040003913000039130                                            00038274                                                     
00025103   O31E112510800025108201612081034100025108MST159016/7931001229     0001EFDHV15D65T1                                                00066240  0000000011127400000010        SEA.FLKG7931001229                                                                                                                
00025103   O31E912510800025108201612081034 00025108MST159016/7931001229     0001                        00039130                                                                                                                                                                                                      
00025103   O31E112510800025108201612081034100025108MST159016/7931001229     0002EFDHV15L27T1                                                00067200  0000000011127400000010        SEA.FLKG7931001229                                                                                                                
00025103   O31E912510800025108201612081034 00025108MST159016/7931001229     0002                        00039130                                                                                                                                                                                                      
00025103   O31E112510800025108201612081034100025108MST159016/7931001229     0003EFDHV20D65T1                                                00091200  0000000013819400000010        SEA.FLKG7931001229                                                                                                                
00025103   O31E912510800025108201612081034 00025108MST159016/7931001229     0003                        00039130                                                                                                                                                                                                      
00025103   O31E112510800025108201612081034100025108MST159016/7931001229     0004EFDHV23D65T1                                                00059520  0000000013819400000010        SEA.FLKG7931001229                                                                                                                
00025103   O31E912510800025108201612081034 00025108MST159016/7931001229     0004                        00039130                                                                                                                                                                                                      
00025103   O31E112510800025108201612081034100025108MST159016/7931001229     0005EFDHV25L27T                                                 00038400  0000000000152200000010        SEA.FLKG7931001229                                                                                                                
00025103   O31E912510800025108201612081034 00025108MST159016/7931001229     0005                        00039130                                                                                                                                                                                                      
00025103   O31E112510800025108201612081034100025108MST159016/7931001229     0006EFDHV42D65A                                                 00035280  0000000030138400000010        SEA.FLKG7931001229                                                                                                                
00025103   O31E912510800025108201612081034 00025108MST159016/7931001229     0006                        00039130                                                                                                                                                                                                      
00025103   O31E112510800025108201612081034100025108MST159016/7931001229     0007EFU14E272V1                                                 00100000  0000000011896400000010        SEA.FLKG7931001229                                                                                                                
00025103   O31E912510800025108201612081034 00025108MST159016/7931001229     0007                        00039130                                                                                                                                                                                                      
00025103   O31E112510800025108201612081034100025108MST159016/7931001229     0008EFU8E652V1                                                  00100000  0000000010883400000010        SEA.FLKG7931001229                                                                                                                
00025103   O31E912510800025108201612081034 00025108MST159016/7931001229     0008                        00039130                                                                                                                                                                                                      
00025103   O31E112510800025108201612081034100025108MST159016/7931001229     0009EFUHV18D65A                                                 00150000  0000000013423400000010        SEA.FLKG7931001229                                                                                                                
00025103   O31E912510800025108201612081034 00025108MST159016/7931001229     0009                        00039130                                                                                                                                                                                                      
00025103   O31A112510800025108201612081034100025108MST159017/7931001230         A  0002510300039130                                 S31790                              YCKE, MS. CHUI HONG, MICHELLE MI20161213        1N10003827420161217SEA.FLKGLIGHTING                                                       O   
00025103   O31A212510800025108201612081034100025108MST159017/7931001230         FOB0                              USD                                                        00039130201701040003913000039130                                            00038274                                                     
00025103   O31E112510800025108201612081034100025108MST159017/7931001230     0001LDR400N                                                     00002100  0000000003535200000010        SEA.FLKG7931001230                                                                                                                
00025103   O31E912510800025108201612081034 00025108MST159017/7931001230     0001                        00039130                                                                                                                                                                                                      
