00025103   O31A112511000025110201603281138100025110MMQ151197/EL1603014          A  0002510300039140                                 S31790                               CKE, MS. CHUI HONG, MICHELLE MI20160402        1N10003827420160424SEA.FPKLLIGHTING                                                       O   
00025103   O31A212511000025110201603281138100025110MMQ151197/EL1603014          FOB0                              USD                                                                20160510                SCMM                                        00038274                                                     
00025103   O31E112511000025110201603281138100025110MMQ151197/EL1603014      0001EFDHV11D65A                                                 00008640  0000000012239400000010                                                                                                                                          
00025103   O31E112511000025110201603281138100025110MMQ151197/EL1603014      0002EFDHV20D65A                                                 00034560  0000000000152200000010                                                                                                                                          
00025103   O31E112511000025110201603281138100025110MMQ151197/EL1603014      0003EFDHV23D65A                                                 00024000  0000000000152200000010                                                                                                                                          
00025103   O31E112511000025110201603281138100025110MMQ151197/EL1603014      0004EFDHV25L27A                                                 00028800  0000000000152200000010                                                                                                                                          
00025103   O31E112511000025110201603281138100025110MMQ151197/EL1603014      0005EFU8E652V                                                   00010000  0000000011695400000010                                                                                                                                          
00025103   O31E112511000025110201603281138100025110MMQ151197/EL1603014      0006LDAHV11DH3A                                                 00010000  0000000034545400000010                                                                                                                                          
00025103   O31E112511000025110201603281138100025110MMQ151197/EL1603014      0007LDAHV7DH3A                                                  00008000  0000000026649400000010                                                                                                                                          
