00025103   O31A112510800025108201610111033100025108MST157276/7931000818         A  0002510300039130                                 L31790                              YCKE, MS. CHUI HONG, MICHELLE MI20161016        1N10003827420161015SEA.FLKGLIGHTING                                                       O   
00025103   O31A212510800025108201610111033100025108MST157276/7931000818         FOB0                              USD                                                        00039130201611020003913000039130                                            00038274                                                     
00025103   O31E112510800025108201610111033100025108MST157276/7931000818     0001LDAHV3DH6A                                                  00280000  0000000007882400000010        SEA.FLKG7931000818                                                                                                                
00025103   O31E912510800025108201610111033 00025108MST157276/7931000818     0001                        00039130                                                                                                                                                                                                      
00025103   O31E112510800025108201610111033100025108MST157276/7931000818     0002LDAHV3LH6A                                                  00070000  0000000007882400000010        SEA.FLKG7931000818                                                                                                                
00025103   O31E912510800025108201610111033 00025108MST157276/7931000818     0002                        00039130                                                                                                                                                                                                      
00025103   O31E112510800025108201610111033100025108MST157276/7931000818     0003LDAHV5DH6A                                                  00150000  0000000009474400000010        SEA.FLKG7931000818                                                                                                                
00025103   O31E912510800025108201610111033 00025108MST157276/7931000818     0003                        00039130                                                                                                                                                                                                      
00025103   O31E112510800025108201610111033100025108MST157276/7931000818     0004LDAHV5LH6A                                                  00100000  0000000009474400000010        SEA.FLKG7931000818                                                                                                                
00025103   O31E912510800025108201610111033 00025108MST157276/7931000818     0004                        00039130                                                                                                                                                                                                      
00025103   O31E112510800025108201610111033100025108MST157276/7931000818     0005LDAHV7DH6A                                                  00150000  0000000012113400000010        SEA.FLKG7931000818                                                                                                                
00025103   O31E912510800025108201610111033 00025108MST157276/7931000818     0005                        00039130                                                                                                                                                                                                      
00025103   O31E112510800025108201610111033100025108MST157276/7931000818     0006LDAHV7LH6A                                                  00030000  0000000012113400000010        SEA.FLKG7931000818                                                                                                                
00025103   O31E912510800025108201610111033 00025108MST157276/7931000818     0006                        00039130                                                                                                                                                                                                      
00025103   O31E112510800025108201610111033100025108MST157276/7931000818     0007LDAHV9DH6A                                                  00160000  0000000015844400000010        SEA.FLKG7931000818                                                                                                                
00025103   O31E912510800025108201610111033 00025108MST157276/7931000818     0007                        00039130                                                                                                                                                                                                      
