00025103   O31A112511300025113201612240533100025113MNZ159237/P86006             A  0002510300029671                                 S31790ERASMUSJ                      NCKE, MS. CHUI HONG, MICHELLE MI20170108        1N10003827420170123SEA.FAKLLIGHTING                                                       O   
00025103   O31A212511300025113201612240533100025113MNZ159237/P86006             FOB0                              USD                                                                20170220                SCMM                                        00038274                                                     
00025103   O31E112511300025113201612240533100025113MNZ159237/P86006         0001LDAHV10DG4A1        LDAHV10DG4A1                            00005000  0000000024714400000010                                         ATP Auto Generate                                                                                
00025103   O31E112511300025113201612240533100025113MNZ159237/P86006         0002LDAHV10DG4BA        LDAHV10DG4BA                            00007500  0000000024714400000010                                         ATP Auto Generate                                                                                
00025103   O31E112511300025113201612240533100025113MNZ159237/P86006         0003LDAHV10LG4A1        LDAHV10LG4A1                            00005000  0000000024714400000010                                         ATP Auto Generate                                                                                
00025103   O31E112511300025113201612240533100025113MNZ159237/P86006         0004LDAHV7LG4A1         LDAHV7LG4A1                             00010000  0000000001717300000010                                         ATP Auto Generate                                                                                
00025103   O31E112511300025113201612240533100025113MNZ159237/P86006         0005LDAHV7LG4BA         LDAHV7LG4BA                             00010000  0000000001717300000010                                         ATP Auto Generate                                                                                
00025103   O31E112511300025113201612240533100025113MNZ159237/P86006         0006LDAHV8DG4A1         LDAHV8DG4A1                             00015000  0000000021072400000010                                         ATP Auto Generate                                                                                
00025103   O31E112511300025113201612240533100025113MNZ159237/P86006         0007LDAHV8DG4BA         LDAHV8DG4BA                             00007500  0000000021072400000010                                         ATP Auto Generate                                                                                
00025103   O31E112511300025113201612240533100025113MNZ159237/P86006         0008LDAHV8LG4A1         LDAHV8LG4A1                             00015000  0000000021072400000010                                         ATP Auto Generate                                                                                
00025103   O31E112511300025113201612240533100025113MNZ159237/P86006         0009LDAHV8LG4BA         LDAHV8LG4BA                             00030000  0000000021072400000010                                         ATP Auto Generate                                                                                
00025103   O31A112511300025113201612240533100025113MNZ159240/P86007             A  0002510300029671                                 S31790ERASMUSJ                      NCKE, MS. CHUI HONG, MICHELLE MI20170108        1N10003827420170123SEA.FAKLLIGHTING                                                       O   
00025103   O31A212511300025113201612240533100025113MNZ159240/P86007             FOB0                              USD                                                                20170220                SCMM                                        00038274                                                     
00025103   O31E112511300025113201612240533100025113MNZ159240/P86007         0001EFDHV15L27BE        EFDHV15L27BE                            00011520  0000000012239400000010                                         ATP Auto Generate                                                                                
00025103   O31E112511300025113201612240533100025113MNZ159240/P86007         0002EFDHV23D65BE        EFDHV23D65BE                            00011520  0000000000152200000010                                         ATP Auto Generate                                                                                
00025103   O31E112511300025113201612240533100025113MNZ159240/P86007         0003EFDHV23D65E         EFDHV23D65E                             00024000  0000000000152200000010                                         ATP Auto Generate                                                                                
00025103   O31E112511300025113201612240533100025113MNZ159240/P86007         0004EFDHV23L27BE        EFDHV23L27BE                            00011520  0000000000152200000010                                         ATP Auto Generate                                                                                
00025103   O31E112511300025113201612240533100025113MNZ159240/P86007         0005EFDHV23L27E         EFDHV23L27E                             00007500  0000000000152200000010                                         ATP Auto Generate                                                                                
