125103     O31A112511100025111201512070644100025111MSP140718/DD5542-232591      A  0002510300029073                                 L31790                              YCKE, MS. CHUI HONG MICHELLE    20151212        1N100038274        TRUCKSIN5542                                                           O   
125103     O31A212511100025111201512070644100025111MSP140718/DD5542-232591      FOB0                              USD                                                                20151211                                                            00038274                                                     
125103     O31E112511100025111201512070644100025111MSP140718/DD5542-232591  0001STPCMAPA            STPCMAPA                                00001300  0000000000000000000000                DD5542-232591                                                                                                             
125103     O31E112511100025111201512070644100025111MSP140718/DD5542-232591  0002STPCMAPB            STPCMAPB                                00001400  0000000000000000000000                DD5542-232591                                                                                                             
125103     O31E112511100025111201512070644100025111MSP140718/DD5542-232591  0003STPCMAPC            STPCMAPC                                00001200  0000000000000000000000                DD5542-232591                                                                                                             
125103     O31A112511100025111201512070644100025111MSP140719/DD5542-232588      A  0002510300029073                                 L31790                              YCKE, MS. CHUI HONG MICHELLE    20151212        1N100038274        TRUCKSIN5542                                                           O   
125103     O31A212511100025111201512070644100025111MSP140719/DD5542-232588      FOB0                              USD                                                                20151207                                                            00038274                                                     
125103     O31E112511100025111201512070644100025111MSP140719/DD5542-232588  0001STPCMAPA            STPCMAPA                                00003200  0000000000000000000000                DD5542-232588                                                                                                             
125103     O31A112511100025111201512070644100025111MSP140720/DD5542-232592      A  0002510300029073                                 L31790                              YCKE, MS. CHUI HONG MICHELLE    20151212        1N100038274        TRUCKSIN5542                                                           O   
125103     O31A212511100025111201512070644100025111MSP140720/DD5542-232592      FOB0                              USD                                                                20151211                                                            00038274                                                     
125103     O31E112511100025111201512070644100025111MSP140720/DD5542-232592  0001STPCMAPA            STPCMAPA                                00004200  0000000000000000000000                DD5542-232592                                                                                                             
125103     O31E112511100025111201512070644100025111MSP140720/DD5542-232592  0002STPCMAPB            STPCMAPB                                00004300  0000000000000000000000                DD5542-232592                                                                                                             
125103     O31E112511100025111201512070644100025111MSP140720/DD5542-232592  0003STPCMAPC            STPCMAPC                                00004400  0000000000000000000000                DD5542-232592                                                                                                             
125103     O31A112511100025111201512070644100025111MSP140721/DD5542-232584      A  0002510300029073                                 L31790                              YCKE, MS. CHUI HONG MICHELLE    20151212        1N100038274        TRUCKSIN5542                                                           O   
125103     O31A212511100025111201512070644100025111MSP140721/DD5542-232584      FOB0                              USD                                                                20151207                                                            00038274                                                     
125103     O31E112511100025111201512070644100025111MSP140721/DD5542-232584  0001STPCMAPA            STPCMAPA                                00004200  0000000000000000000000                DD5542-232584                                                                                                             
125103     O31E112511100025111201512070644100025111MSP140721/DD5542-232584  0002STPCMAPB            STPCMAPB                                00004300  0000000000000000000000                DD5542-232584                                                                                                             
125103     O31E112511100025111201512070644100025111MSP140721/DD5542-232584  0003STPCMAPC            STPCMAPC                                00004400  0000000000000000000000                DD5542-232584                                                                                                             
125103     O31A112511100025111201512070644100025111MSP140722/DD5542-232589      A  0002510300029073                                 L31790                              YCKE, MS. CHUI HONG MICHELLE    20151212        1N100038274        TRUCKSIN5542                                                           O   
125103     O31A212511100025111201512070644100025111MSP140722/DD5542-232589      FOB0                              USD                                                                20151211                                                            00038274                                                     
125103     O31E112511100025111201512070644100025111MSP140722/DD5542-232589  0001STPCMAPA            STPCMAPA                                00003200  0000000000000000000000                DD5542-232589                                                                                                             
125103     O31E112511100025111201512070644100025111MSP140722/DD5542-232589  0002STPCMAPB            STPCMAPB                                00003300  0000000000000000000000                DD5542-232589                                                                                                             
125103     O31E112511100025111201512070644100025111MSP140722/DD5542-232589  0003STPCMAPC            STPCMAPC                                00003400  0000000000000000000000                DD5542-232589                                                                                                             
125103     O31A112511100025111201512070644100025111MSP140723/DD5542-232590      A  0002510300029073                                 L31790                              YCKE, MS. CHUI HONG MICHELLE    20151212        1N100038274        TRUCKSIN5542                                                           O   
125103     O31A212511100025111201512070644100025111MSP140723/DD5542-232590      FOB0                              USD                                                                20151211                                                            00038274                                                     
125103     O31E112511100025111201512070644100025111MSP140723/DD5542-232590  0001STPCMAPA            STPCMAPA                                00002200  0000000000000000000000                DD5542-232590                                                                                                             
125103     O31E112511100025111201512070644100025111MSP140723/DD5542-232590  0002STPCMAPB            STPCMAPB                                00002300  0000000000000000000000                DD5542-232590                                                                                                             
125103     O31E112511100025111201512070644100025111MSP140723/DD5542-232590  0003STPCMAPC            STPCMAPC                                00002500  0000000000000000000000                DD5542-232590                                                                                                             
