12000I     O31A112511000025110201812311100100025110MMQ7901005269/7921005747       10002510300039140                                 L31790                              NNR01-SG                        20190210         N 0003827420190125SEA.FPKLLIGHTING                                                       O   
12000I     O31A212511000025110201812311100100025110MMQ7901005269/7921005747     FOB0                              USD                                                        00025103201902100002510300025103SCMM                                        00038274                                                     
12000I     O31A812511000025110201812311100100025110MMQ7901005269/7921005747     FOB                                                                                                                                                                                                                                   
12000I     O31E112511000025110201812311100100025110MMQ7901005269/7921005747 0010EFUHV18D65A3                                                00110000  000000000000120000001020190210SEA.FPKLMMQ7901005269/7921005747                                                                                                  
12000I     O31E912511000025110201812311100 00025110MMQ7901005269/7921005747 0010                        00025103                                                                                                                                                                                                      
12000I     O31E112511000025110201812311100100025110MMQ7901005269/7921005747 0020LDTHV11D65GA1                                               00400000  000000000018220000001020190210SEA.FPKLMMQ7901005269/7921005747                                                                                                  
12000I     O31E912511000025110201812311100 00025110MMQ7901005269/7921005747 0020                        00025103                                                                                                                                                                                                      
12000I     O31E112511000025110201812311100100025110MMQ7901005269/7921005747 0030LDTHV7D65GA1                                                00100000  000000000014620000001020190210SEA.FPKLMMQ7901005269/7921005747                                                                                                  
12000I     O31E912511000025110201812311100 00025110MMQ7901005269/7921005747 0030                        00025103                                                                                                                                                                                                      
