00025103   O31A112510800025108201804301256100025108MST174281/7931004436         A  0002510300039130                                 S31790                              NCKE, MS. CHUI HONG, MICHELLE MI20180515        1N10003827420180525SEA.FLKGLIGHTING                                                       O   
00025103   O31A212510800025108201804301256100025108MST174281/7931004436         FOB0                              USD                                                        00039130201806100003913000039130SCMM                                        00038274                                                     
00025103   O31E112510800025108201804301256100025108MST174281/7931004436     0001EFDHV11D65T                                                 00041280  000000001223940000001020180603SEA.FLKG7931004436                                                                                                                
00025103   O31E912510800025108201804301256 00025108MST174281/7931004436     0001                        00039130                                                                                                                                                                                                      
00025103   O31E112510800025108201804301256100025108MST174281/7931004436     0002EFDHV15D65T1                                                00199680  000000001112740000001020180603SEA.FLKG7931004436                                                                                                                
00025103   O31E912510800025108201804301256 00025108MST174281/7931004436     0002                        00039130                                                                                                                                                                                                      
00025103   O31E112510800025108201804301256100025108MST174281/7931004436     0003EFDHV15L27T1                                                00065280  000000001112740000001020180603SEA.FLKG7931004436                                                                                                                
00025103   O31E912510800025108201804301256 00025108MST174281/7931004436     0003                        00039130                                                                                                                                                                                                      
00025103   O31E112510800025108201804301256100025108MST174281/7931004436     0004EFDHV20D65T1                                                00014400  000000001381940000001020180603SEA.FLKG7931004436                                                                                                                
00025103   O31E912510800025108201804301256 00025108MST174281/7931004436     0004                        00039130                                                                                                                                                                                                      
00025103   O31E112510800025108201804301256100025108MST174281/7931004436     0005EFDHV23D65T1                                                00026880  000000001381940000001020180603SEA.FLKG7931004436                                                                                                                
00025103   O31E912510800025108201804301256 00025108MST174281/7931004436     0005                        00039130                                                                                                                                                                                                      
00025103   O31E112510800025108201804301256100025108MST174281/7931004436     0006EFDHV25D65T                                                 01799680  000000000014820000001020180603SEA.FLKG7931004436                                                                                                                
00025103   O31E912510800025108201804301256 00025108MST174281/7931004436     0006                        00039130                                                                                                                                                                                                      
00025103   O31E112510800025108201804301256100025108MST174281/7931004436     0007EFDHV25L27T                                                 00029760  000000000014820000001020180603SEA.FLKG7931004436                                                                                                                
00025103   O31E912510800025108201804301256 00025108MST174281/7931004436     0007                        00039130                                                                                                                                                                                                      
00025103   O31E112510800025108201804301256100025108MST174281/7931004436     0008EFDHV32D65A                                                 00012720  000000002722140000001020180603SEA.FLKG7931004436                                                                                                                
00025103   O31E912510800025108201804301256 00025108MST174281/7931004436     0008                        00039130                                                                                                                                                                                                      
00025103   O31E112510800025108201804301256100025108MST174281/7931004436     0009EFDHV42D65A                                                 00024960  000000003013840000001020180603SEA.FLKG7931004436                                                                                                                
00025103   O31E912510800025108201804301256 00025108MST174281/7931004436     0009                        00039130                                                                                                                                                                                                      
00025103   O31E112510800025108201804301256100025108MST174281/7931004436     0010EFU11E652V                                                  00050000  000000001223440000001020180603SEA.FLKG7931004436                                                                                                                
00025103   O31E912510800025108201804301256 00025108MST174281/7931004436     0010                        00039130                                                                                                                                                                                                      
00025103   O31E112510800025108201804301256100025108MST174281/7931004436     0011EFU14E272V1                                                 00080000  000000001189640000001020180603SEA.FLKG7931004436                                                                                                                
00025103   O31E912510800025108201804301256 00025108MST174281/7931004436     0011                        00039130                                                                                                                                                                                                      
00025103   O31E112510800025108201804301256100025108MST174281/7931004436     0012EFU14E652V1                                                 00500000  000000001189640000001020180603SEA.FLKG7931004436                                                                                                                
00025103   O31E912510800025108201804301256 00025108MST174281/7931004436     0012                        00039130                                                                                                                                                                                                      
00025103   O31E112510800025108201804301256100025108MST174281/7931004436     0013EFU8E652V1                                                  00120000  000000001088340000001020180603SEA.FLKG7931004436                                                                                                                
00025103   O31E912510800025108201804301256 00025108MST174281/7931004436     0013                        00039130                                                                                                                                                                                                      
00025103   O31E112510800025108201804301256100025108MST174281/7931004436     0014EFUHV18D65A                                                 00300000  000000001342340000001020180603SEA.FLKG7931004436                                                                                                                
00025103   O31E912510800025108201804301256 00025108MST174281/7931004436     0014                        00039130                                                                                                                                                                                                      
00025103   O31E112510800025108201804301256100025108MST174281/7931004436     0015EFUHV18L27A                                                 00017000  000000001342340000001020180603SEA.FLKG7931004436                                                                                                                
00025103   O31E912510800025108201804301256 00025108MST174281/7931004436     0015                        00039130                                                                                                                                                                                                      
00025103   O31E112510800025108201804301256100025108MST174281/7931004436     0016EFUHV23D65A                                                 00060000  000000001411440000001020180603SEA.FLKG7931004436                                                                                                                
00025103   O31E912510800025108201804301256 00025108MST174281/7931004436     0016                        00039130                                                                                                                                                                                                      
00025103   O31E112510800025108201804301256100025108MST174281/7931004436     0017LDR400N                                                     00004000  000000032154740000001020180603SEA.FLKG7931004436                                                                                                                
00025103   O31E912510800025108201804301256 00025108MST174281/7931004436     0017                        00039130                                                                                                                                                                                                      
00025103   O31A112510800025108201804301257100025108MST174305/7931004435         A  0002510300039130                                 L31790                              NCKE, MS. CHUI HONG, MICHELLE MI20180515        1N10003827420180525SEA.FLKGLIGHTING                                                       O   
00025103   O31A212510800025108201804301257100025108MST174305/7931004435         FOB0                              USD                                                        00039130201806100003913000039130SCMM                                        00038274                                                     
00025103   O31E112510800025108201804301257100025108MST174305/7931004435     0001LDAHV7LH6A                                                  00110000  000000000779240000001020180603SEA.FLKG7931004435                                                                                                                
00025103   O31E912510800025108201804301257 00025108MST174305/7931004435     0001                        00039130                                                                                                                                                                                                      
00025103   O31E112510800025108201804301257100025108MST174305/7931004435     0002LDAHV9DH6A                                                  00200000  000000001121440000001020180603SEA.FLKG7931004435                                                                                                                
00025103   O31E912510800025108201804301257 00025108MST174305/7931004435     0002                        00039130                                                                                                                                                                                                      
00025103   O31E112510800025108201804301257100025108MST174305/7931004435     0003LDAHV9LH6A                                                  00080000  000000001121440000001020180603SEA.FLKG7931004435                                                                                                                
00025103   O31E912510800025108201804301257 00025108MST174305/7931004435     0003                        00039130                                                                                                                                                                                                      
00025103   O31E112510800025108201804301257100025108MST174305/7931004435     0004LDS300D2N                                                   00003000  000000019743840000001020180603SEA.FLKG7931004435                                                                                                                
00025103   O31E912510800025108201804301257 00025108MST174305/7931004435     0004                        00039130                                                                                                                                                                                                      
00025103   O31E112510800025108201804301257100025108MST174305/7931004435     0005LDAHV3DH6A                                                  00070000  000000000630340000001020180603SEA.FLKG7931004435                                                                                                                
00025103   O31E912510800025108201804301257 00025108MST174305/7931004435     0005                        00039130                                                                                                                                                                                                      
00025103   O31E112510800025108201804301257100025108MST174305/7931004435     0006LDAHV3LH6A                                                  00046000  000000000630340000001020180603SEA.FLKG7931004435                                                                                                                
00025103   O31E912510800025108201804301257 00025108MST174305/7931004435     0006                        00039130                                                                                                                                                                                                      
00025103   O31E112510800025108201804301257100025108MST174305/7931004435     0007LDAHV5DH6A                                                  00166000  000000000630340000001020180603SEA.FLKG7931004435                                                                                                                
00025103   O31E912510800025108201804301257 00025108MST174305/7931004435     0007                        00039130                                                                                                                                                                                                      
00025103   O31E112510800025108201804301257100025108MST174305/7931004435     0008LDAHV5LH6A                                                  00050000  000000000630340000001020180603SEA.FLKG7931004435                                                                                                                
00025103   O31E912510800025108201804301257 00025108MST174305/7931004435     0008                        00039130                                                                                                                                                                                                      
00025103   O31E112510800025108201804301257100025108MST174305/7931004435     0009LDAHV7DH6A                                                  00160000  000000000779240000001020180603SEA.FLKG7931004435                                                                                                                
00025103   O31E912510800025108201804301257 00025108MST174305/7931004435     0009                        00039130                                                                                                                                                                                                      
