00025103   O31A112511000025110201705160245100025110MMQ163509/7921000379         A  0002510300039140                                 S31790                              YCKE, MS. CHUI HONG, MICHELLE MI20170521        1N10003827420170516SEA.FPKLUA                                                             O   
00025103   O31A212511000025110201705160245100025110MMQ163509/7921000379         FOB0                              USD                                                        00039140201706080003914000039140                                            00038274                                                     
00025103   O31E112511000025110201705160245100025110MMQ163509/7921000379     0001EFDHV23L27T1                                                00012480  0000000013057400000010        SEA.FPKL7921000379                                                                                                                
00025103   O31E912511000025110201705160245 00025110MMQ163509/7921000379     0001                        00039140                                                                                                                                                                                                      
00025103   O31E112511000025110201705160245100025110MMQ163509/7921000379     0002EFDHV25D65T1                                                00297600  0000000014381400000010        SEA.FPKL7921000379                                                                                                                
00025103   O31E912511000025110201705160245 00025110MMQ163509/7921000379     0002                        00039140                                                                                                                                                                                                      
