00025103   O31A112510800025108201708160342100025108MST166550/7931002890         A  0002510300039130                                 L31790                              YCKE, MS. CHUI HONG, MICHELLE MI20170821        1N100038274        SEA.FLKGUA                                                             O   
00025103   O31A212510800025108201708160342100025108MST166550/7931002890         FOB0                              USD                                                        00039130201709010003913000039130                                            00038274                                                     
00025103   O31E112510800025108201708160342100025108MST166550/7931002890     0001LDAHV12DH5T                                                 00035000  000000001327140000001020170825SEA.FLKG7931002890                                                                                                                
00025103   O31E912510800025108201708160342 00025108MST166550/7931002890     0001                        00039130                                                                                                                                                                                                      
00025103   O31E112510800025108201708160342100025108MST166550/7931002890     0002LDAHV15DH5T                                                 00030000  000000001775940000001020170825SEA.FLKG7931002890                                                                                                                
00025103   O31E912510800025108201708160342 00025108MST166550/7931002890     0002                        00039130                                                                                                                                                                                                      
00025103   O31A112510800025108201708160342100025108MST166551/7931002891         A  0002510300039130                                 S31790                              YCKE, MS. CHUI HONG, MICHELLE MI20170821        1N100038274        SEA.FLKGLIGHTING                                                       O   
00025103   O31A212510800025108201708160342100025108MST166551/7931002891         FOB0                              USD                                                        00039130201709010003913000039130                                            00038274                                                     
00025103   O31E112510800025108201708160342100025108MST166551/7931002891     0001EFDHV32D65A                                                 00010800  000000002722140000001020170825SEA.FLKG7931002891                                                                                                                
00025103   O31E912510800025108201708160342 00025108MST166551/7931002891     0001                        00039130                                                                                                                                                                                                      
