00025103   O31A112510800025108201705111037100025108MST163431/7931002263         A  0002510300039130                                 S31790                              YCKE, MS. CHUI HONG, MICHELLE MI20170516        1N10003827420170527SEA.FLKGLIGHTING                                                       O   
00025103   O31A212510800025108201705111037100025108MST163431/7931002263         FOB0                              USD                                                        00039130201706140003913000039130                                            00038274                                                     
00025103   O31E112510800025108201705111037100025108MST163431/7931002263     0001EFDHV15D65T1                                                00050880  000000001112740000001020170607SEA.FLKG7931002263                                                                                                                
00025103   O31E912510800025108201705111037 00025108MST163431/7931002263     0001                        00039130                                                                                                                                                                                                      
00025103   O31E112510800025108201705111037100025108MST163431/7931002263     0002EFDHV25D65T                                                 00190080  000000000015220000001020170607SEA.FLKG7931002263                                                                                                                
00025103   O31E912510800025108201705111037 00025108MST163431/7931002263     0002                        00039130                                                                                                                                                                                                      
00025103   O31E112510800025108201705111037100025108MST163431/7931002263     0003EFU11E652V                                                  00030000  000000001223440000001020170607SEA.FLKG7931002263                                                                                                                
00025103   O31E912510800025108201705111037 00025108MST163431/7931002263     0003                        00039130                                                                                                                                                                                                      
00025103   O31E112510800025108201705111037100025108MST163431/7931002263     0004EFU14E652V1                                                 00060000  000000001189640000001020170607SEA.FLKG7931002263                                                                                                                
00025103   O31E912510800025108201705111037 00025108MST163431/7931002263     0004                        00039130                                                                                                                                                                                                      
00025103   O31E112510800025108201705111037100025108MST163431/7931002263     0005EFUHV18D65A                                                 00100000  000000001342340000001020170607SEA.FLKG7931002263                                                                                                                
00025103   O31E912510800025108201705111037 00025108MST163431/7931002263     0005                        00039130                                                                                                                                                                                                      
