00025103   O31A112510800025108201705170538100025108MST163531/7931002283         A  0002510300039130                                 S31790                              YCKE, MS. CHUI HONG, MICHELLE MI20170522        1N100038274        SEA.FLKGLIGHTING                                                       O   
00025103   O31A212510800025108201705170538100025108MST163531/7931002283         FOB0                              USD                                                        00039130201706020003913000039130                                            00038274                                                     
00025103   O31E112510800025108201705170538100025108MST163531/7931002283     0001EFDHV11D65T                                                 00030000  000000001223940000001020170526SEA.FLKG7931002283                                                                                                                
00025103   O31E912510800025108201705170538 00025108MST163531/7931002283     0001                        00039130                                                                                                                                                                                                      
00025103   O31E112510800025108201705170538100025108MST163531/7931002283     0002EFDHV15D65T1                                                00189120  000000001112740000001020170526SEA.FLKG7931002283                                                                                                                
00025103   O31E912510800025108201705170538 00025108MST163531/7931002283     0002                        00039130                                                                                                                                                                                                      
00025103   O31E112510800025108201705170538100025108MST163531/7931002283     0003EFDHV15L27T1                                                00054720  000000001112740000001020170526SEA.FLKG7931002283                                                                                                                
00025103   O31E912510800025108201705170538 00025108MST163531/7931002283     0003                        00039130                                                                                                                                                                                                      
00025103   O31E112510800025108201705170538100025108MST163531/7931002283     0004EFDHV20D65T1                                                00035520  000000001381940000001020170526SEA.FLKG7931002283                                                                                                                
00025103   O31E912510800025108201705170538 00025108MST163531/7931002283     0004                        00039130                                                                                                                                                                                                      
00025103   O31E112510800025108201705170538100025108MST163531/7931002283     0005EFDHV23D65T1                                                00035000  000000001381940000001020170526SEA.FLKG7931002283                                                                                                                
00025103   O31E912510800025108201705170538 00025108MST163531/7931002283     0005                        00039130                                                                                                                                                                                                      
00025103   O31E112510800025108201705170538100025108MST163531/7931002283     0006EFDHV25D65T                                                 00880320  000000000015220000001020170526SEA.FLKG7931002283                                                                                                                
00025103   O31E912510800025108201705170538 00025108MST163531/7931002283     0006                        00039130                                                                                                                                                                                                      
00025103   O31E112510800025108201705170538100025108MST163531/7931002283     0007EFDHV25L27T                                                 00031680  000000000015220000001020170526SEA.FLKG7931002283                                                                                                                
00025103   O31E912510800025108201705170538 00025108MST163531/7931002283     0007                        00039130                                                                                                                                                                                                      
00025103   O31E112510800025108201705170538100025108MST163531/7931002283     0008EFDHV32D65A                                                 00020880  000000002722140000001020170526SEA.FLKG7931002283                                                                                                                
00025103   O31E912510800025108201705170538 00025108MST163531/7931002283     0008                        00039130                                                                                                                                                                                                      
00025103   O31E112510800025108201705170538100025108MST163531/7931002283     0009EFDHV42D65A                                                 00039840  000000003013840000001020170526SEA.FLKG7931002283                                                                                                                
00025103   O31E912510800025108201705170538 00025108MST163531/7931002283     0009                        00039130                                                                                                                                                                                                      
00025103   O31E112510800025108201705170538100025108MST163531/7931002283     0010EFU14E652V1                                                 00320000  000000001189640000001020170526SEA.FLKG7931002283                                                                                                                
00025103   O31E912510800025108201705170538 00025108MST163531/7931002283     0010                        00039130                                                                                                                                                                                                      
00025103   O31E112510800025108201705170538100025108MST163531/7931002283     0011EFU8E652V1                                                  00140000  000000001088340000001020170526SEA.FLKG7931002283                                                                                                                
00025103   O31E912510800025108201705170538 00025108MST163531/7931002283     0011                        00039130                                                                                                                                                                                                      
