00025103   O31A112510700025107201710041236100025107MPH168310/7961002993         A  0002510300029474                                 L31790                              YCKE, MS. CHUI HONG, MICHELLE MI20171009        1N10003827420171016SEA.FMNLUA                                                             O   
00025103   O31A212510700025107201710041236100025107MPH168310/7961002993         FOB0                              USD                                                        00029474201711170002947400029474                                            00038274                                                     
00025103   O31E112510700025107201710041236100025107MPH168310/7961002993     0001LDAHV12DH5T                                                 00022000  0000000017385400000010        SEA.FMNL7961002993                                                                                                                
00025103   O31E912510700025107201710041236 00025107MPH168310/7961002993     0001                        00029474                                                                                                                                                                                                      
00025103   O31E112510700025107201710041236100025107MPH168310/7961002993     0002LDAHV15DH5T                                                 00022000  0000000025385400000010        SEA.FMNL7961002993                                                                                                                
00025103   O31E912510700025107201710041236 00025107MPH168310/7961002993     0002                        00029474                                                                                                                                                                                                      
