12000I     O31A112510700025107201903081440100025107MPH7901007177/7961006933       10002510300029474                                 L31790                              YNR01-SG                        20190409         N 0003827420190308SEA.FMNLLIGHTING                                                       O   
12000I     O31A212510700025107201903081440100025107MPH7901007177/7961006933     FOB0                              USD                                                        00025103201904090002510300025103                                            00038274                                                     
12000I     O31A812510700025107201903081440100025107MPH7901007177/7961006933     FOB                                                                                                                                                                                                                                   
12000I     O31E112510700025107201903081440100025107MPH7901007177/7961006933 0010EFUHV18D65A3                                                00070000  000000000000120000001020190409SEA.FMNLMPH7901007177/7961006933                                                                                                  
12000I     O31E912510700025107201903081440 00025107MPH7901007177/7961006933 0010                        00025103                                                                                                                                                                                                      
12000I     O31A112510700025107201903081440100025107MPH7901007178/7961006934       10002510300029474                                 L31790                              YNR01-SG                        20190409         N 0003827420190308SEA.FMNLLIGHTING                                                       O   
12000I     O31A212510700025107201903081440100025107MPH7901007178/7961006934     FOB0                              USD                                                        00025103201904090002510300025103                                            00038274                                                     
12000I     O31A812510700025107201903081440100025107MPH7901007178/7961006934     FOB                                                                                                                                                                                                                                   
12000I     O31E112510700025107201903081440100025107MPH7901007178/7961006934 0010EFDHV25D65A                                                 00070000  000000000000120000001020190409SEA.FMNLMPH7901007178/7961006934                                                                                                  
12000I     O31E912510700025107201903081440 00025107MPH7901007178/7961006934 0010                        00025103                                                                                                                                                                                                      
12000I     O31E112510700025107201903081440100025107MPH7901007178/7961006934 0020EFUHV11D65A                                                 00080000  000000000000120000001020190409SEA.FMNLMPH7901007178/7961006934                                                                                                  
12000I     O31E912510700025107201903081440 00025107MPH7901007178/7961006934 0020                        00025103                                                                                                                                                                                                      
12000I     O31E112510700025107201903081440100025107MPH7901007178/7961006934 0030EFUHV8D65A                                                  00090000  000000000000120000001020190409SEA.FMNLMPH7901007178/7961006934                                                                                                  
12000I     O31E912510700025107201903081440 00025107MPH7901007178/7961006934 0030                        00025103                                                                                                                                                                                                      
