00025103   O31A112510800025108201704121055100025108MST162420/7931002081         A  0002510300039130                                 L31790                              YCKE, MS. CHUI HONG, MICHELLE MI20170417        1N10003827420170421SEA.FLKGLIGHTING                                                       O   
00025103   O31A212510800025108201704121055100025108MST162420/7931002081         FOB0                              USD                                                        00039130201705090003913000039130                                            00038274                                                     
00025103   O31E112510800025108201704121055100025108MST162420/7931002081     0001LDS300D2N                                                   00004050  000000022316940000001020170502SEA.FLKG7931002081                                                                                                                
00025103   O31E912510800025108201704121055 00025108MST162420/7931002081     0001                        00039130                                                                                                                                                                                                      
00025103   O31A112510800025108201704121156100025108MST162428/7931002082         A  0002510300039130                                 S31790                              YCKE, MS. CHUI HONG, MICHELLE MI20170417        1N10003827420170421SEA.FLKGLIGHTING                                                       O   
00025103   O31A212510800025108201704121156100025108MST162428/7931002082         FOB0                              USD                                                        00039130201705090003913000039130                                            00038274                                                     
00025103   O31E112510800025108201704121156100025108MST162428/7931002082     0001LDR400N                                                     00002430  000000000353520000001020170502SEA.FLKG7931002082                                                                                                                
00025103   O31E912510800025108201704121156 00025108MST162428/7931002082     0001                        00039130                                                                                                                                                                                                      
00025103   O31E112510800025108201704121156100025108MST162428/7931002082     0002NNP81900                                                    00004860  000000000023210000001020170502SEA.FLKG7931002082                                                                                                                
00025103   O31E912510800025108201704121156 00025108MST162428/7931002082     0002                        00039130                                                                                                                                                                                                      
