12000I     O31A112510700025107201901171440100025107MPH7901005582/7961006596       10002510300029474                                 L31790                              YNR01-SG                        20190301         N 0003827420190128SEA.FMNLLIGHTING                                                       O   
12000I     O31A212510700025107201901171440100025107MPH7901005582/7961006596     FOB0                              USD                                                        00025103201903010002510300025103                                            00038274                                                     
12000I     O31A812510700025107201901171440100025107MPH7901005582/7961006596     FOB                                                                                                                                                                                                                                   
12000I     O31E112510700025107201901171440100025107MPH7901005582/7961006596 0010LDAHV3DH6T                                                  00060000  000000000006720000001020190301SEA.FMNLMPH7901005582/7961006596                                                                                                  
12000I     O31E912510700025107201901171440 00025107MPH7901005582/7961006596 0010                        00025103                                                                                                                                                                                                      
12000I     O31E112510700025107201901171440100025107MPH7901005582/7961006596 0020LDAHV5DH6T                                                  00060000  000000000007120000001020190301SEA.FMNLMPH7901005582/7961006596                                                                                                  
12000I     O31E912510700025107201901171440 00025107MPH7901005582/7961006596 0020                        00025103                                                                                                                                                                                                      
12000I     O31E112510700025107201901171440100025107MPH7901005582/7961006596 0030LDAHV7DH6T                                                  00060000  000000000009220000001020190301SEA.FMNLMPH7901005582/7961006596                                                                                                  
12000I     O31E912510700025107201901171440 00025107MPH7901005582/7961006596 0030                        00025103                                                                                                                                                                                                      
12000I     O31E112510700025107201901171440100025107MPH7901005582/7961006596 0040LDAHV9DH6T                                                  00060000  000000000010320000001020190301SEA.FMNLMPH7901005582/7961006596                                                                                                  
12000I     O31E912510700025107201901171440 00025107MPH7901005582/7961006596 0040                        00025103                                                                                                                                                                                                      
