00025103   O31A112510800025108201607260340100025108MST155008/7931000331         A  0002510300039130                                 S31790                              NCKE, MS. CHUI HONG, MICHELLE MI20160810        1N10003827420160912SEA.FLKGLIGHTING                                                       O   
00025103   O31A212510800025108201607260340100025108MST155008/7931000331         FOB0                              USD                                                        00039130201609300003913000039130SCMM                                        00038274                                                     
00025103   O31E112510800025108201607260340100025108MST155008/7931000331     0001EFDHV25D65T                                                 00810240  0000000000152200000010        SEA.FLKG7931000331                                                                                                                
00025103   O31E912510800025108201607260340 00025108MST155008/7931000331     0001                        00039130                                                                                                                                                                                                      
00025103   O31E112510800025108201607260340100025108MST155008/7931000331     0002LDR400N                                                     00011000  0000000003535200000010        SEA.FLKG7931000331                                                                                                                
00025103   O31E912510800025108201607260340 00025108MST155008/7931000331     0002                        00039130                                                                                                                                                                                                      
