12000I     O31A112511000025110201810151627100025110MMQ7901003019/7921004988       10002510300039140                                 L31790                              YNR01-SG                        20181108         N 0003827420181016SEA.FPKLLIGHTING                                                       O   
12000I     O31A212511000025110201810151627100025110MMQ7901003019/7921004988     FOB0                              USD                                                        00025103201811080002510300025103                                            00038274                                                     
12000I     O31A812511000025110201810151627100025110MMQ7901003019/7921004988     FOB                                                                                                                                                                                                                                   
12000I     O31E112511000025110201810151627100025110MMQ7901003019/7921004988 0010LDAHV13LH7A                                                 00040000  000000000000120000001020181108SEA.FPKLMMQ7901003019/7921004988                                                                                                  
12000I     O31E912511000025110201810151627 00025110MMQ7901003019/7921004988 0010                        00025103                                                                                                                                                                                                      
12000I     O31E112511000025110201810151627100025110MMQ7901003019/7921004988 0020LDAHV15LH7A                                                 00030000  000000000000120000001020181108SEA.FPKLMMQ7901003019/7921004988                                                                                                  
12000I     O31E912511000025110201810151627 00025110MMQ7901003019/7921004988 0020                        00025103                                                                                                                                                                                                      
