00025103   O31A112520700025207201604011132100025207MGM151714/660-404404         A  000251030002520620620616                         L31790                              YCKE, MS. CHUI HONG, MICHELLE MI20160406        1N10003827420160413SEA.FSINLIGHTING                                                       O   
00025103   O31A212520700025207201604011132100025207MGM151714/660-404404         FOB0                              USD                                                                20160510                                                            00038274                                                     
00025103   O31E112520700025207201604011132100025207MGM151714/660-404404     0001EFU11E272V          EFU11E272V                              00006000  0000000014041400000010                660-404404                                                                                                                
00025103   O31E112520700025207201604011132100025207MGM151714/660-404404     0002EFU14E652V          EFU14E652V                              00012000  0000000014041400000010                660-404404                                                                                                                
00025103   O31E112520700025207201604011132100025207MGM151714/660-404404     0003EFU8E272V           EFU8E272V                               00024000  0000000013756400000010                660-404404                                                                                                                
00025103   O31E112520700025207201604011132100025207MGM151714/660-404404     0004EFU8E652V           EFU8E652V                               00012000  0000000013756400000010                660-404404                                                                                                                
00025103   O31A112520700025207201604011132100025207MGM151719/660-404406         A  000251032062061620620616                         L31790                              YCKE, MS. CHUI HONG, MICHELLE MI20160406        1N10003827420160413SEA.F   LIGHTING                                                       O   
00025103   O31A212520700025207201604011132100025207MGM151719/660-404406         FOB0                              USD                                                                20160510                                                            00038274                                                     
00025103   O31E112520700025207201604011132100025207MGM151719/660-404406     0001EFDHV11L27A         EFDHV11L27A                             00011520  0000000000126200000010                660-404406                                                                                                                
00025103   O31E112520700025207201604011132100025207MGM151719/660-404406     0002EFDHV20L27A         EFDHV20L27A                             00004800  0000000000156200000010                660-404406                                                                                                                
00025103   O31E112520700025207201604011132100025207MGM151719/660-404406     0003EFDHV25D65A         EFDHV25D65A                             00048000  0000000000156200000010                660-404406                                                                                                                
00025103   O31E112520700025207201604011132100025207MGM151719/660-404406     0004EFDHV15D65A         EFDHV15D65A                             00045000  0000000000126200000010                660-404406                                                                                                                
00025103   O31E112520700025207201604011132100025207MGM151719/660-404406     0005EFDHV15L27A         EFDHV15L27A                             00009600  0000000000126200000010                660-404406                                                                                                                
00025103   O31E112520700025207201604011132100025207MGM151719/660-404406     0006EFDHV20D65A         EFDHV20D65A                             00012000  0000000000156200000010                660-404406                                                                                                                
00025103   O31E112520700025207201604011132100025207MGM151719/660-404406     0007EFDHV25L27A         EFDHV25L27A                             00004800  0000000000156200000010                660-404406                                                                                                                
00025103   O31E112520700025207201604011132100025207MGM151719/660-404406     0008EFDHV5L27A          EFDHV5L27A                              00012000  0000000000108200000010                660-404406                                                                                                                
00025103   O31E112520700025207201604011132100025207MGM151719/660-404406     0009EFDHV8D65A          EFDHV8D65A                              00012000  0000000000108200000010                660-404406                                                                                                                
00025103   O31E112520700025207201604011132100025207MGM151719/660-404406     0010EFDHV8L27A          EFDHV8L27A                              00024000  0000000000108200000010                660-404406                                                                                                                
00025103   O31A112520700025207201604011132100025207MGM151720/660-404405         A  000251032062061620620616                         L31790                              YCKE, MS. CHUI HONG, MICHELLE MI20160406        1N10003827420160413SEA.F   LIGHTING                                                       O   
00025103   O31A212520700025207201604011132100025207MGM151720/660-404405         FOB0                              USD                                                                20160510                                                            00038274                                                     
00025103   O31E112520700025207201604011132100025207MGM151720/660-404405     0001EFDHV15D65BA        EFDHV15D65BA                            00024000  0000000000126200000010                660-404405                                                                                                                
00025103   O31E112520700025207201604011132100025207MGM151720/660-404405     0002EFDHV23D65BA        EFDHV23D65BA                            00017760  0000000000156200000010                660-404405                                                                                                                
00025103   O31E112520700025207201604011132100025207MGM151720/660-404405     0003EFDHV5D65BA         EFDHV5D65BA                             00035520  0000000000108200000010                660-404405                                                                                                                
00025103   O31E112520700025207201604011132100025207MGM151720/660-404405     0004EFDHV20D65BA        EFDHV20D65BA                            00029760  0000000000156200000010                660-404405                                                                                                                
