00025103   O31A112510700025107201803070840100025107MPH172804/7961004302         A  0002510300029474                                 L31790                              YCKE, MS. CHUI HONG, MICHELLE MI20180312        1N10003827420180315SEA.FMNLUA                                                             O   
00025103   O31A212510700025107201803070840100025107MPH172804/7961004302         FOB0                              USD                                                        00029474201804160002947400029474                                            00038274                                                     
00025103   O31E112510700025107201803070840100025107MPH172804/7961004302     0001LDAHV12DH5T                                                 00011000  0000000017385400000010        SEA.FMNL7961004302                                                                                                                
00025103   O31E912510700025107201803070840 00025107MPH172804/7961004302     0001                        00029474                                                                                                                                                                                                      
00025103   O31E112510700025107201803070840100025107MPH172804/7961004302     0002LDAHV15DH5T                                                 00011000  0000000025385400000010        SEA.FMNL7961004302                                                                                                                
00025103   O31E912510700025107201803070840 00025107MPH172804/7961004302     0002                        00029474                                                                                                                                                                                                      
