00025103   O31A112510700025107201605100134100025107MPH152765/SS100163           A  000251030002947400029474                         L31790PT Panasonic Gobel Eco SolutioNCKE, MS. CHUI HONG, MICHELLE MI20160525        1N10003827420160613SEA.FMNLLIGHTING                                                       O   
00025103   O31A212510700025107201605100134100025107MPH152765/SS100163           FOB0                              USD                                                                20160715                                                            00038274                                                     
00025103   O31E112510700025107201605100134100025107MPH152765/SS100163       0001LDAHV2DG4A          LDAHV2DG4A                    00038274  00045000  0000000010697400000010                **********                                                                                                                
00025103   O31E112510700025107201605100134100025107MPH152765/SS100163       0002LDAHV7DG4A          LDAHV7DG4A                    00038274  00060000  0000000017505400000010                **********                                                                                                                
00025103   O31E112510700025107201605100134100025107MPH152765/SS100163       0003LDAHV8DG4A          LDAHV8DG4A                    00038274  00060000  0000000021395400000010                **********                                                                                                                
00025103   O31E112510700025107201605100134100025107MPH152765/SS100163       0004LDAHV10DG4A         LDAHV10DG4A                   00038274  00050000  0000000027366400000010                **********                                                                                                                
00025103   O31E112510700025107201605100134100025107MPH152765/SS100163       0005LDAHV12DG4A         LDAHV12DG4A                   00038274  00050000  0000000035399400000010                **********                                                                                                                
