00025103   O31A112511300025113201607270127100025113MNZ154692/P84316             A  0002510300029671                                 S31790ERASMUSJ                      YCKE, MS. CHUI HONG, MICHELLE MI20160801        1N10003827420160819SEA.FAKLLIGHTING                                                       O   
00025103   O31A212511300025113201607270127100025113MNZ154692/P84316             FOB0                              USD                                                                20160920                                                            00038274                                                     
00025103   O31E112511300025113201607270127100025113MNZ154692/P84316         0001LDAHV7DG4A1         LDAHV7DG4A1                             00005000  0000000001717300000010                                         ATP Auto Generate                                                                                
00025103   O31E112511300025113201607270127100025113MNZ154692/P84316         0002LDAHV7LG4A1         LDAHV7LG4A1                             00005000  0000000001717300000010                                         ATP Auto Generate                                                                                
00025103   O31E112511300025113201607270127100025113MNZ154692/P84316         0003LDAHV7LG4BA         LDAHV7LG4BA                             00005000  0000000001717300000010                                         ATP Auto Generate                                                                                
00025103   O31E112511300025113201607270127100025113MNZ154692/P84316         0004LDAHV8DG4A1         LDAHV8DG4A1                             00005000  0000000021072400000010                                         ATP Auto Generate                                                                                
00025103   O31E112511300025113201607270127100025113MNZ154692/P84316         0005LDAHV8DG4BA         LDAHV8DG4BA                             00005000  0000000021072400000010                                         ATP Auto Generate                                                                                
00025103   O31E112511300025113201607270127100025113MNZ154692/P84316         0006LDAHV8LG4A1         LDAHV8LG4A1                             00005000  0000000021072400000010                                         ATP Auto Generate                                                                                
00025103   O31E112511300025113201607270127100025113MNZ154692/P84316         0007LDAHV8LG4BA         LDAHV8LG4BA                             00005000  0000000021072400000010                                         ATP Auto Generate                                                                                
