00025103   O31A112511000025110201803260407100025110MMQ173191/7921003247         A  0002510300039140                                 S31790                              NCKE, MS. CHUI HONG, MICHELLE MI20180410        1N10003827420180423SEA.FPKLLIGHTING                                                       O   
00025103   O31A212511000025110201803260407100025110MMQ173191/7921003247         FOB0                              USD                                                        00039140201805100003914000039140SCMM                                        00038274                                                     
00025103   O31E112511000025110201803260407100025110MMQ173191/7921003247     0001EFDHV20D65T1                                                00009600  0000000000000000000010        SEA.FPKL7921003247                                                                                                                
00025103   O31E912511000025110201803260407 00025110MMQ173191/7921003247     0001                        00039140                                                                                                                                                                                                      
00025103   O31E112511000025110201803260407100025110MMQ173191/7921003247     0002EFDHV25D65T1                                                00300000  0000000000000000000010        SEA.FPKL7921003247                                                                                                                
00025103   O31E912511000025110201803260407 00025110MMQ173191/7921003247     0002                        00039140                                                                                                                                                                                                      
00025103   O31E112511000025110201803260407100025110MMQ173191/7921003247     0003EFUHV18D65A3                                                00250000  0000000000000000000010        SEA.FPKL7921003247                                                                                                                
00025103   O31E912511000025110201803260407 00025110MMQ173191/7921003247     0003                        00039140                                                                                                                                                                                                      
