00025103   O31A112510800025108201707060340100025108MST165415/7931002639         A  0002510300039130                                 S31790                              YCKE, MS. CHUI HONG, MICHELLE MI20170711        1N10003827420170714SEA.FLKGLIGHTING                                                       O   
00025103   O31A212510800025108201707060340100025108MST165415/7931002639         FOB0                              USD                                                        00039130201708010003913000039130                                            00038274                                                     
00025103   O31E112510800025108201707060340100025108MST165415/7931002639     0001EFDHV15D65T1                                                00039360  000000001112740000001020170725SEA.FLKG7931002639                                                                                                                
00025103   O31E912510800025108201707060340 00025108MST165415/7931002639     0001                        00039130                                                                                                                                                                                                      
00025103   O31E112510800025108201707060340100025108MST165415/7931002639     0002EFDHV15L27T1                                                00029760  000000001112740000001020170725SEA.FLKG7931002639                                                                                                                
00025103   O31E912510800025108201707060340 00025108MST165415/7931002639     0002                        00039130                                                                                                                                                                                                      
00025103   O31E112510800025108201707060340100025108MST165415/7931002639     0003EFU14E652V1                                                 00050000  000000001189640000001020170725SEA.FLKG7931002639                                                                                                                
00025103   O31E912510800025108201707060340 00025108MST165415/7931002639     0003                        00039130                                                                                                                                                                                                      
