00025103   O31A112511300025113201609260846100025113MNZ156625/P84981             A  0002510300029671                                 S31790ERASMUSJ                      NCKE, MS. CHUI HONG, MICHELLE MI20161011        1N10003827420161024SEA.FAKLLIGHTING                                                       O   
00025103   O31A212511300025113201609260846100025113MNZ156625/P84981             FOB0                              USD                                                                20161120                SCMM                                        00038274                                                     
00025103   O31E112511300025113201609260846100025113MNZ156625/P84981         0001LDAHV10DG4A1        LDAHV10DG4A1                            00005000  0000000024714400000010                                         ATP Auto Generate                                                                                
00025103   O31E112511300025113201609260846100025113MNZ156625/P84981         0002LDAHV10DG4BA        LDAHV10DG4BA                            00005000  0000000024714400000010                                         ATP Auto Generate                                                                                
00025103   O31E112511300025113201609260846100025113MNZ156625/P84981         0003LDAHV10LG4A1        LDAHV10LG4A1                            00005000  0000000024714400000010                                         ATP Auto Generate                                                                                
00025103   O31E112511300025113201609260846100025113MNZ156625/P84981         0004LDAHV10LG4BA        LDAHV10LG4BA                            00005000  0000000024714400000010                                         ATP Auto Generate                                                                                
