00025103   O31A112510800025108201609201037100025108MST156440/7931000649         A  0002510300039130                                 L31790                              YCKE, MS. CHUI HONG, MICHELLE MI20160925        1N100038274        SEA.FLKGLIGHTING                                                       O   
00025103   O31A212510800025108201609201037100025108MST156440/7931000649         FOB0                              USD                                                        00039130201610050003913000039130                                            00038274                                                     
00025103   O31E112510800025108201609201037100025108MST156440/7931000649     0001LDAHV3LH6A                                                  00015000  0000000007882400000010        SEA.FLKG7931000649                                                                                                                
00025103   O31E912510800025108201609201037 00025108MST156440/7931000649     0001                        00039130                                                                                                                                                                                                      
00025103   O31A112510800025108201609201037100025108MST156442/7931000650         A  0002510300039130                                 S31790                              YCKE, MS. CHUI HONG, MICHELLE MI20160925        1N100038274        SEA.FLKGLIGHTING                                                       O   
00025103   O31A212510800025108201609201037100025108MST156442/7931000650         FOB0                              USD                                                        00039130201610050003913000039130                                            00038274                                                     
00025103   O31E112510800025108201609201037100025108MST156442/7931000650     0001EFDHV15D65T1                                                00079680  0000000011127400000010        SEA.FLKG7931000650                                                                                                                
00025103   O31E912510800025108201609201037 00025108MST156442/7931000650     0001                        00039130                                                                                                                                                                                                      
00025103   O31E112510800025108201609201037100025108MST156442/7931000650     0002EFDHV15L27T1                                                00026880  0000000011127400000010        SEA.FLKG7931000650                                                                                                                
00025103   O31E912510800025108201609201037 00025108MST156442/7931000650     0002                        00039130                                                                                                                                                                                                      
00025103   O31E112510800025108201609201037100025108MST156442/7931000650     0003EFDHV20D65T1                                                00086400  0000000013819400000010        SEA.FLKG7931000650                                                                                                                
00025103   O31E912510800025108201609201037 00025108MST156442/7931000650     0003                        00039130                                                                                                                                                                                                      
00025103   O31E112510800025108201609201037100025108MST156442/7931000650     0004EFDHV23D65T1                                                00050880  0000000013819400000010        SEA.FLKG7931000650                                                                                                                
00025103   O31E912510800025108201609201037 00025108MST156442/7931000650     0004                        00039130                                                                                                                                                                                                      
00025103   O31E112510800025108201609201037100025108MST156442/7931000650     0005EFDHV25D65T                                                 00310240  0000000000152200000010        SEA.FLKG7931000650                                                                                                                
00025103   O31E912510800025108201609201037 00025108MST156442/7931000650     0005                        00039130                                                                                                                                                                                                      
00025103   O31E112510800025108201609201037100025108MST156442/7931000650     0006EFU11E652V                                                  00025000  0000000012234400000010        SEA.FLKG7931000650                                                                                                                
00025103   O31E912510800025108201609201037 00025108MST156442/7931000650     0006                        00039130                                                                                                                                                                                                      
00025103   O31E112510800025108201609201037100025108MST156442/7931000650     0007EFU14E272V1                                                 00095000  0000000011896400000010        SEA.FLKG7931000650                                                                                                                
00025103   O31E912510800025108201609201037 00025108MST156442/7931000650     0007                        00039130                                                                                                                                                                                                      
00025103   O31E112510800025108201609201037100025108MST156442/7931000650     0008EFU14E652V1                                                 00450000  0000000011896400000010        SEA.FLKG7931000650                                                                                                                
00025103   O31E912510800025108201609201037 00025108MST156442/7931000650     0008                        00039130                                                                                                                                                                                                      
