12000I     O31A112510800025108201903012205100025108MST7901007100/7931006177       10002510300039130                                 L31790                              YNR01-SG                        20190407         N 0003827420190320SEA.FLKGLIGHTING                                                       O   
12000I     O31A212510800025108201903012205100025108MST7901007100/7931006177     FOB0                              USD                                                        00025103201904070002510300025103                                            00038274                                                     
12000I     O31A812510800025108201903012205100025108MST7901007100/7931006177     FOB                                                                                                                                                                                                                                   
12000I     O31E112510800025108201903012205100025108MST7901007100/7931006177 0010LDAHV20DH5T                                                 00030000  000000000000120000001020190407SEA.FLKGMST7901007100/7931006177                                                                                                  
12000I     O31E912510800025108201903012205 00025108MST7901007100/7931006177 0010                        00025103                                                                                                                                                                                                      
12000I     O31E112510800025108201903012205100025108MST7901007100/7931006177 0020LDAHV23DH5T                                                 00040000  000000000000120000001020190407SEA.FLKGMST7901007100/7931006177                                                                                                  
12000I     O31E912510800025108201903012205 00025108MST7901007100/7931006177 0020                        00025103                                                                                                                                                                                                      
12000I     O31A112510800025108201903012205100025108MST7901007101/7931006178       10002510300039130                                 L31790                              YNR01-SG                        20190416         N 0003827420190329SEA.FLKGLIGHTING                                                       O   
12000I     O31A212510800025108201903012205100025108MST7901007101/7931006178     FOB0                              USD                                                        00025103201904160002510300025103                                            00038274                                                     
12000I     O31A812510800025108201903012205100025108MST7901007101/7931006178     FOB                                                                                                                                                                                                                                   
12000I     O31E112510800025108201903012205100025108MST7901007101/7931006178 0010NNP81900                                                    00001500  000000000000120000001020190416SEA.FLKGMST7901007101/7931006178                                                                                                  
12000I     O31E912510800025108201903012205 00025108MST7901007101/7931006178 0010                        00025103                                                                                                                                                                                                      
12000I     O31A112510800025108201903012205100025108MST7901007102/7931006184       10002510300039130                                 L31790                              YNR01-SG                        20190407         N 0003827420190320SEA.FLKGLIGHTING                                                       O   
12000I     O31A212510800025108201903012205100025108MST7901007102/7931006184     FOB0                              USD                                                        00025103201904070002510300025103                                            00038274                                                     
12000I     O31A812510800025108201903012205100025108MST7901007102/7931006184     FOB                                                                                                                                                                                                                                   
12000I     O31E112510800025108201903012205100025108MST7901007102/7931006184 0010LDAHV9LH6T                                                  00010000  000000000008920000001020190407SEA.FLKGMST7901007102/7931006184                                                                                                  
12000I     O31E912510800025108201903012205 00025108MST7901007102/7931006184 0010                        00025103                                                                                                                                                                                                      
