12000I     O31A112510800025108201811052205100025108MST7901003796/7931005548       10002510300039130                                 L31790                              YNR01-SG                        20181120         N 00038274        SEA.FLKGLIGHTING                                                       O   
12000I     O31A212510800025108201811052205100025108MST7901003796/7931005548     FOB0                              USD                                                        00025103201811200002510300025103                                            00038274                                                     
12000I     O31A812510800025108201811052205100025108MST7901003796/7931005548     FOB                                                                                                                                                                                                                                   
12000I     O31E112510800025108201811052205100025108MST7901003796/7931005548 0010NNP81900                                                    00001000  000000000000120000001020181120SEA.FLKGMST7901003796/7931005548                                                                                                  
12000I     O31E912510800025108201811052205 00025108MST7901003796/7931005548 0010                        00025103                                                                                                                                                                                                      
12000I     O31A112510800025108201811052205100025108MST7901003797/7931005549       10002510300039130                                 L31790                              YNR01-SG                        20181209         N 0003827420181121SEA.FLKGLIGHTING                                                       O   
12000I     O31A212510800025108201811052205100025108MST7901003797/7931005549     FOB0                              USD                                                        00025103201812090002510300025103                                            00038274                                                     
12000I     O31A812510800025108201811052205100025108MST7901003797/7931005549     FOB                                                                                                                                                                                                                                   
12000I     O31E112510800025108201811052205100025108MST7901003797/7931005549 0010LDAHV23DH5T                                                 00050000  000000000003110000001020181209SEA.FLKGMST7901003797/7931005549                                                                                                  
12000I     O31E912510800025108201811052205 00025108MST7901003797/7931005549 0010                        00025103                                                                                                                                                                                                      
12000I     O31E112510800025108201811052205100025108MST7901003797/7931005549 0020LDMHV3L30MG5T                                               00020000  000000000000120000001020181209SEA.FLKGMST7901003797/7931005549                                                                                                  
12000I     O31E912510800025108201811052205 00025108MST7901003797/7931005549 0020                        00025103                                                                                                                                                                                                      
12000I     O31E112510800025108201811052205100025108MST7901003797/7931005549 0030LDMHV4L30MG5T                                               00020000  000000000000120000001020181209SEA.FLKGMST7901003797/7931005549                                                                                                  
12000I     O31E912510800025108201811052205 00025108MST7901003797/7931005549 0030                        00025103                                                                                                                                                                                                      
