00025103   O31A112511300025113201607270127100025113MNZ154692/P84316             A  0002510300029671                                 S31790ERASMUSJ                      YCKE, MS. CHUI HONG, MICHELLE MI20160801        1N10003827420160819SEA.FAKLLIGHTING                                                       O   
00025103   O31A212511300025113201607270127100025113MNZ154692/P84316             FOB0                              USD                                                                20160920                                                            00038274                                                     
00025103   O31E112511300025113201607270127100025113MNZ154692/P84316         0001LDAHV7DG4A1         LDAHV7DG4A1                             00005000  0000000001717300000010                                         ATP Auto Generate                                                                                
00025103   O31E112511300025113201607270127100025113MNZ154692/P84316         0002LDAHV7LG4A1         LDAHV7LG4A1                             00005000  0000000001717300000010                                         ATP Auto Generate                                                                                
00025103   O31E112511300025113201607270127100025113MNZ154692/P84316         0003LDAHV7LG4BA         LDAHV7LG4BA                             00005000  0000000001717300000010                                         ATP Auto Generate                                                                                
00025103   O31E112511300025113201607270127100025113MNZ154692/P84316         0004LDAHV8DG4A1         LDAHV8DG4A1                             00005000  0000000021072400000010                                         ATP Auto Generate                                                                                
00025103   O31E112511300025113201607270127100025113MNZ154692/P84316         0005LDAHV8DG4BA         LDAHV8DG4BA                             00005000  0000000021072400000010                                         ATP Auto Generate                                                                                
00025103   O31E112511300025113201607270127100025113MNZ154692/P84316         0006LDAHV8LG4A1         LDAHV8LG4A1                             00005000  0000000021072400000010                                         ATP Auto Generate                                                                                
00025103   O31E112511300025113201607270127100025113MNZ154692/P84316         0007LDAHV8LG4BA         LDAHV8LG4BA                             00005000  0000000021072400000010                                         ATP Auto Generate                                                                                
00025103   O31A112511300025113201607270127100025113MNZ154718/P84317             A  0002510300029671                                 S31790ERASMUSJ                      YCKE, MS. CHUI HONG, MICHELLE MI20160801        1N10003827420160819SEA.FAKLLIGHTING                                                       O   
00025103   O31A212511300025113201607270127100025113MNZ154718/P84317             FOB0                              USD                                                                20160920                                                            00038274                                                     
00025103   O31E112511300025113201607270127100025113MNZ154718/P84317         0001EFDHV15D65BE        EFDHV15D65BE                            00011520  0000000012239400000010                                         ATP Auto Generate                                                                                
00025103   O31E112511300025113201607270127100025113MNZ154718/P84317         0002EFDHV15L27BE        EFDHV15L27BE                            00035520  0000000012239400000010                                         ATP Auto Generate                                                                                
00025103   O31E112511300025113201607270127100025113MNZ154718/P84317         0003EFDHV15L27E         EFDHV15L27E                             00023040  0000000012239400000010                                         ATP Auto Generate                                                                                
00025103   O31E112511300025113201607270127100025113MNZ154718/P84317         0004EFDHV23D65BE        EFDHV23D65BE                            00035520  0000000000152200000010                                         ATP Auto Generate                                                                                
00025103   O31E112511300025113201607270127100025113MNZ154718/P84317         0005EFDHV23D65E         EFDHV23D65E                             00024000  0000000000152200000010                                         ATP Auto Generate                                                                                
00025103   O31E112511300025113201607270127100025113MNZ154718/P84317         0006EFDHV23L27BE        EFDHV23L27BE                            00023040  0000000000152200000010                                         ATP Auto Generate                                                                                
00025103   O31E112511300025113201607270127100025113MNZ154718/P84317         0007EFDHV23L27E         EFDHV23L27E                             00011520  0000000000152200000010                                         ATP Auto Generate                                                                                
