12000I     O31A112511000025110201901031155100025110MMQ7901005415/7921005779       10002510300039140                                 L31790                              YNR01-SG                        20190225         N 0003827420190202SEA.FPKLLIGHTING                                                       O   
12000I     O31A212511000025110201901031155100025110MMQ7901005415/7921005779     FOB0                              USD                                                        00025103201902250002510300025103                                            00038274                                                     
12000I     O31A812511000025110201901031155100025110MMQ7901005415/7921005779     FOB                                                                                                                                                                                                                                   
12000I     O31E112511000025110201901031155100025110MMQ7901005415/7921005779 0010LDTHV11D65GA1                                               00500000  000000000017420000001020190225SEA.FPKLMMQ7901005415/7921005779                                                                                                  
12000I     O31E912511000025110201901031155 00025110MMQ7901005415/7921005779 0010                        00025103                                                                                                                                                                                                      
12000I     O31E112511000025110201901031155100025110MMQ7901005415/7921005779 0020LDTHV7D65GA1                                                00100000  000000000013820000001020190225SEA.FPKLMMQ7901005415/7921005779                                                                                                  
12000I     O31E912511000025110201901031155 00025110MMQ7901005415/7921005779 0020                        00025103                                                                                                                                                                                                      
