12000I     O31A112511000025110201811261715100025110MMQ7901004173/7921005451       10002510300039140                                 L31790                              NNR01-SG                        20190110         N 0003827420181224SEA.FPKLLIGHTING                                                       O   
12000I     O31A212511000025110201811261715100025110MMQ7901004173/7921005451     FOB0                              USD                                                        00025103201901100002510300025103SCMM                                        00038274                                                     
12000I     O31A812511000025110201811261715100025110MMQ7901004173/7921005451     FOB                                                                                                                                                                                                                                   
12000I     O31E112511000025110201811261715100025110MMQ7901004173/7921005451 0010EFUHV18D65A3                                                00200000  000000000000120000001020190110SEA.FPKLMMQ7901004173/7921005451                                                                                                  
12000I     O31E912511000025110201811261715 00025110MMQ7901004173/7921005451 0010                        00025103                                                                                                                                                                                                      
12000I     O31E112511000025110201811261715100025110MMQ7901004173/7921005451 0020EFUHV23D65A3                                                00010000  000000000000120000001020190110SEA.FPKLMMQ7901004173/7921005451                                                                                                  
12000I     O31E912511000025110201811261715 00025110MMQ7901004173/7921005451 0020                        00025103                                                                                                                                                                                                      
