00025103   O31A112511000025110201704251238100025110MMQ162637/7921000156         A  0002510300039140                                 S31790                              YCKE, MS. CHUI HONG, MICHELLE MI20170430        1N100038274        SEA.FPKLLIGHTING                                                       O   
00025103   O31A212511000025110201704251238100025110MMQ162637/7921000156         FOB0                              USD                                                        00039140201705100003914000039140                                            00038274                                                     
00025103   O31E112511000025110201704251238100025110MMQ162637/7921000156     0001EFDHV23D65A                                                 00028800  0000000013057400000010        SEA.FPKL7921000156                                                                                                                
00025103   O31E912511000025110201704251238 00025110MMQ162637/7921000156     0001                        00039140                                                                                                                                                                                                      
00025103   O31E112511000025110201704251238100025110MMQ162637/7921000156     0002EFDHV25L27A                                                 00048000  0000000014381400000010        SEA.FPKL7921000156                                                                                                                
00025103   O31E912511000025110201704251238 00025110MMQ162637/7921000156     0002                        00039140                                                                                                                                                                                                      
00025103   O31E112511000025110201704251238100025110MMQ162637/7921000156     0003EFUHV18D65A3                                                00100000  0000000010408400000010        SEA.FPKL7921000156                                                                                                                
00025103   O31E912511000025110201704251238 00025110MMQ162637/7921000156     0003                        00039140                                                                                                                                                                                                      
00025103   O31E112511000025110201704251238100025110MMQ162637/7921000156     0004EFUHV23D65A3                                                00015000  0000000013624400000010        SEA.FPKL7921000156                                                                                                                
00025103   O31E912511000025110201704251238 00025110MMQ162637/7921000156     0004                        00039140                                                                                                                                                                                                      
00025103   O31A112511000025110201704251238100025110MMQ162638/7921000158         A  0002510300039140                                 S31790                              YCKE, MS. CHUI HONG, MICHELLE MI20170430        1N10003827420170511SEA.FPKLLIGHTING                                                       O   
00025103   O31A212511000025110201704251238100025110MMQ162638/7921000158         FOB0                              USD                                                        00039140201706030003914000039140                                            00038274                                                     
00025103   O31E112511000025110201704251238100025110MMQ162638/7921000158     0001EFUHV18D65A3                                                00750000  0000000010408400000010        SEA.FPKL7921000158                                                                                                                
00025103   O31E912511000025110201704251238 00025110MMQ162638/7921000158     0001                        00039140                                                                                                                                                                                                      
00025103   O31E112511000025110201704251238100025110MMQ162638/7921000158     0002EFUHV18L27A3                                                00100000  0000000010408400000010        SEA.FPKL7921000158                                                                                                                
00025103   O31E912511000025110201704251238 00025110MMQ162638/7921000158     0002                        00039140                                                                                                                                                                                                      
00025103   O31A112511000025110201704251238100025110MMQ162639/7921000157         A  0002510300039140                                 S31790                              YCKE, MS. CHUI HONG, MICHELLE MI20170430        1N10003827420170428SEA.FPKLLIGHTING                                                       O   
00025103   O31A212511000025110201704251238100025110MMQ162639/7921000157         FOB0                              USD                                                        00039140201705210003914000039140                                            00038274                                                     
00025103   O31E112511000025110201704251238100025110MMQ162639/7921000157     0001EFUHV18D65A3                                                00900000  0000000010408400000010        SEA.FPKL7921000157                                                                                                                
00025103   O31E912511000025110201704251238 00025110MMQ162639/7921000157     0001                        00039140                                                                                                                                                                                                      
00025103   O31E112511000025110201704251238100025110MMQ162639/7921000157     0002EFUHV18L27A3                                                00250000  0000000010408400000010        SEA.FPKL7921000157                                                                                                                
00025103   O31E912511000025110201704251238 00025110MMQ162639/7921000157     0002                        00039140                                                                                                                                                                                                      
