00025103   O31A112511300025113201604260841100025113MNZ152306/P83287             A  0002510300029671                                 S31790ERASMUSJ                      NCKE, MS. CHUI HONG, MICHELLE MI20160511        1N10003827420160522SEA.FAKLLIGHTING                                                       O   
00025103   O31A212511300025113201604260841100025113MNZ152306/P83287             FOB0                              USD                                                                20160620                SCMM                                        00038274                                                     
00025103   O31E112511300025113201604260841100025113MNZ152306/P83287         0001LDAHV11DH3A2        LDAHV11DH3A2                            00010000  0000000032571400000010                                         ATP Auto Generate                                                                                
00025103   O31E112511300025113201604260841100025113MNZ152306/P83287         0002LDAHV11DH3BA2       LDAHV11DH3BA2                           00010000  0000000032571400000010                                         ATP Auto Generate                                                                                
00025103   O31E112511300025113201604260841100025113MNZ152306/P83287         0003LDAHV11LH3A2        LDAHV11LH3A2                            00009000  0000000032571400000010                                         ATP Auto Generate                                                                                
00025103   O31E112511300025113201604260841100025113MNZ152306/P83287         0004LDAHV11LH3BA2       LDAHV11LH3BA2                           00012500  0000000032571400000010                                         ATP Auto Generate                                                                                
00025103   O31E112511300025113201604260841100025113MNZ152306/P83287         0005LDAHV7DH3A2         LDAHV7DH3A2                             00005000  0000000025662400000010                                         ATP Auto Generate                                                                                
00025103   O31E112511300025113201604260841100025113MNZ152306/P83287         0006LDAHV7DH3BA2        LDAHV7DH3BA2                            00005000  0000000025662400000010                                         ATP Auto Generate                                                                                
00025103   O31E112511300025113201604260841100025113MNZ152306/P83287         0007LDAHV7LH3A2         LDAHV7LH3A2                             00005000  0000000025662400000010                                         ATP Auto Generate                                                                                
00025103   O31E112511300025113201604260841100025113MNZ152306/P83287         0008LDAHV7LH3BA2        LDAHV7LH3BA2                            00009000  0000000025662400000010                                         ATP Auto Generate                                                                                
00025103   O31E112511300025113201604260841100025113MNZ152306/P83287         0009LDAHV9DH3A2         LDAHV9DH3A2                             00015000  0000000002961300000010                                         ATP Auto Generate                                                                                
00025103   O31E112511300025113201604260841100025113MNZ152306/P83287         0010LDAHV9DH3BA2        LDAHV9DH3BA2                            00015000  0000000002961300000010                                         ATP Auto Generate                                                                                
00025103   O31E112511300025113201604260841100025113MNZ152306/P83287         0011LDAHV9LH3A2         LDAHV9LH3A2                             00012500  0000000002961300000010                                         ATP Auto Generate                                                                                
00025103   O31E112511300025113201604260841100025113MNZ152306/P83287         0012LDAHV9LH3BA2        LDAHV9LH3BA2                            00012500  0000000002961300000010                                         ATP Auto Generate                                                                                
00025103   O31A112511300025113201604260841100025113MNZ152314/P83288             A  0002510300029671                                 S31790ERASMUSJ                      NCKE, MS. CHUI HONG, MICHELLE MI20160511        1N10003827420160522SEA.FAKLLIGHTING                                                       O   
00025103   O31A212511300025113201604260841100025113MNZ152314/P83288             FOB0                              USD                                                                20160620                SCMM                                        00038274                                                     
00025103   O31E112511300025113201604260841100025113MNZ152314/P83288         0001EFDHV15D65BE        EFDHV15D65BE                            00024000  0000000012239400000010                                         ATP Auto Generate                                                                                
00025103   O31E112511300025113201604260841100025113MNZ152314/P83288         0002EFDHV15D65E         EFDHV15D65E                             00024000  0000000012239400000010                                         ATP Auto Generate                                                                                
00025103   O31E112511300025113201604260841100025113MNZ152314/P83288         0003EFDHV15L27BE        EFDHV15L27BE                            00024000  0000000012239400000010                                         ATP Auto Generate                                                                                
00025103   O31E112511300025113201604260841100025113MNZ152314/P83288         0004EFDHV15L27E         EFDHV15L27E                             00024000  0000000012239400000010                                         ATP Auto Generate                                                                                
00025103   O31E112511300025113201604260841100025113MNZ152314/P83288         0005EFDHV23D65BE        EFDHV23D65BE                            00035520  0000000000152200000010                                         ATP Auto Generate                                                                                
00025103   O31E112511300025113201604260841100025113MNZ152314/P83288         0006EFDHV23D65E         EFDHV23D65E                             00024000  0000000000152200000010                                         ATP Auto Generate                                                                                
00025103   O31E112511300025113201604260841100025113MNZ152314/P83288         0007EFDHV23L27BE        EFDHV23L27BE                            00024000  0000000000152200000010                                         ATP Auto Generate                                                                                
00025103   O31E112511300025113201604260841100025113MNZ152314/P83288         0008EFDHV23L27E         EFDHV23L27E                             00024000  0000000000152200000010                                         ATP Auto Generate                                                                                
