12000I     O31A112510700025107201812181641100025107MPH7901004821/7961006458       10002510300029474                                 L31790                              YNR01-SG                        20190202         N 0003827420190101SEA.FMNLLIGHTING                                                       O   
12000I     O31A212510700025107201812181641100025107MPH7901004821/7961006458     FOB0                              USD                                                        00025103201902020002510300025103                                            00038274                                                     
12000I     O31A812510700025107201812181641100025107MPH7901004821/7961006458     FOB                                                                                                                                                                                                                                   
12000I     O31E112510700025107201812181641100025107MPH7901004821/7961006458 0010LDAHV12DH6T                                                 00060000  000000000014720000001020190202SEA.FMNLMPH7901004821/7961006458                                                                                                  
12000I     O31E912510700025107201812181641 00025107MPH7901004821/7961006458 0010                        00025103                                                                                                                                                                                                      
12000I     O31E112510700025107201812181641100025107MPH7901004821/7961006458 0020LDAHV12LH6T                                                 00010000  000000000014720000001020190202SEA.FMNLMPH7901004821/7961006458                                                                                                  
12000I     O31E912510700025107201812181641 00025107MPH7901004821/7961006458 0020                        00025103                                                                                                                                                                                                      
12000I     O31E112510700025107201812181641100025107MPH7901004821/7961006458 0030LDAHV15DH6T                                                 00060000  000000000018120000001020190202SEA.FMNLMPH7901004821/7961006458                                                                                                  
12000I     O31E912510700025107201812181641 00025107MPH7901004821/7961006458 0030                        00025103                                                                                                                                                                                                      
12000I     O31E112510700025107201812181641100025107MPH7901004821/7961006458 0040LDAHV15LH6T                                                 00010000  000000000018120000001020190202SEA.FMNLMPH7901004821/7961006458                                                                                                  
12000I     O31E912510700025107201812181641 00025107MPH7901004821/7961006458 0040                        00025103                                                                                                                                                                                                      
12000I     O31E112510700025107201812181641100025107MPH7901004821/7961006458 0050LDAHV3DH6T                                                  00060000  000000000006720000001020190202SEA.FMNLMPH7901004821/7961006458                                                                                                  
12000I     O31E912510700025107201812181641 00025107MPH7901004821/7961006458 0050                        00025103                                                                                                                                                                                                      
12000I     O31E112510700025107201812181641100025107MPH7901004821/7961006458 0060LDAHV5DH6T                                                  00060000  000000000007120000001020190202SEA.FMNLMPH7901004821/7961006458                                                                                                  
12000I     O31E912510700025107201812181641 00025107MPH7901004821/7961006458 0060                        00025103                                                                                                                                                                                                      
12000I     O31E112510700025107201812181641100025107MPH7901004821/7961006458 0070LDAHV7DH6T                                                  00060000  000000000009220000001020190202SEA.FMNLMPH7901004821/7961006458                                                                                                  
12000I     O31E912510700025107201812181641 00025107MPH7901004821/7961006458 0070                        00025103                                                                                                                                                                                                      
12000I     O31E112510700025107201812181641100025107MPH7901004821/7961006458 0080LDAHV7LH6T                                                  00010000  000000000009220000001020190202SEA.FMNLMPH7901004821/7961006458                                                                                                  
12000I     O31E912510700025107201812181641 00025107MPH7901004821/7961006458 0080                        00025103                                                                                                                                                                                                      
12000I     O31E112510700025107201812181641100025107MPH7901004821/7961006458 0090LDAHV9DH6T                                                  00070000  000000000010320000001020190202SEA.FMNLMPH7901004821/7961006458                                                                                                  
12000I     O31E912510700025107201812181641 00025107MPH7901004821/7961006458 0090                        00025103                                                                                                                                                                                                      
12000I     O31E112510700025107201812181641100025107MPH7901004821/7961006458 0100LDAHV9LH6T                                                  00010000  000000000010320000001020190202SEA.FMNLMPH7901004821/7961006458                                                                                                  
12000I     O31E912510700025107201812181641 00025107MPH7901004821/7961006458 0100                        00025103                                                                                                                                                                                                      
12000I     O31A112510700025107201812181641100025107MPH7901004822/7961006457       10002510300029474                                 L31790                              YNR01-SG                        20190118         N 00038274        SEA.FMNLLIGHTING                                                       O   
12000I     O31A212510700025107201812181641100025107MPH7901004822/7961006457     FOB0                              USD                                                        00025103201901180002510300025103                                            00038274                                                     
12000I     O31A812510700025107201812181641100025107MPH7901004822/7961006457     FOB                                                                                                                                                                                                                                   
12000I     O31E112510700025107201812181641100025107MPH7901004822/7961006457 0010LDAHV12DH6T                                                 00060000  000000000014720000001020190118SEA.FMNLMPH7901004822/7961006457                                                                                                  
12000I     O31E912510700025107201812181641 00025107MPH7901004822/7961006457 0010                        00025103                                                                                                                                                                                                      
12000I     O31E112510700025107201812181641100025107MPH7901004822/7961006457 0020LDAHV12LH6T                                                 00010000  000000000014720000001020190118SEA.FMNLMPH7901004822/7961006457                                                                                                  
12000I     O31E912510700025107201812181641 00025107MPH7901004822/7961006457 0020                        00025103                                                                                                                                                                                                      
12000I     O31E112510700025107201812181641100025107MPH7901004822/7961006457 0030LDAHV15DH6T                                                 00060000  000000000018120000001020190118SEA.FMNLMPH7901004822/7961006457                                                                                                  
12000I     O31E912510700025107201812181641 00025107MPH7901004822/7961006457 0030                        00025103                                                                                                                                                                                                      
12000I     O31E112510700025107201812181641100025107MPH7901004822/7961006457 0040LDAHV15LH6T                                                 00010000  000000000018120000001020190118SEA.FMNLMPH7901004822/7961006457                                                                                                  
12000I     O31E912510700025107201812181641 00025107MPH7901004822/7961006457 0040                        00025103                                                                                                                                                                                                      
12000I     O31E112510700025107201812181641100025107MPH7901004822/7961006457 0050LDAHV3DH6T                                                  00050000  000000000006720000001020190118SEA.FMNLMPH7901004822/7961006457                                                                                                  
12000I     O31E912510700025107201812181641 00025107MPH7901004822/7961006457 0050                        00025103                                                                                                                                                                                                      
12000I     O31E112510700025107201812181641100025107MPH7901004822/7961006457 0060LDAHV5DH6T                                                  00050000  000000000007120000001020190118SEA.FMNLMPH7901004822/7961006457                                                                                                  
12000I     O31E912510700025107201812181641 00025107MPH7901004822/7961006457 0060                        00025103                                                                                                                                                                                                      
12000I     O31E112510700025107201812181641100025107MPH7901004822/7961006457 0070LDAHV7DH6T                                                  00050000  000000000009220000001020190118SEA.FMNLMPH7901004822/7961006457                                                                                                  
12000I     O31E912510700025107201812181641 00025107MPH7901004822/7961006457 0070                        00025103                                                                                                                                                                                                      
12000I     O31E112510700025107201812181641100025107MPH7901004822/7961006457 0080LDAHV7LH6T                                                  00010000  000000000009220000001020190118SEA.FMNLMPH7901004822/7961006457                                                                                                  
12000I     O31E912510700025107201812181641 00025107MPH7901004822/7961006457 0080                        00025103                                                                                                                                                                                                      
12000I     O31E112510700025107201812181641100025107MPH7901004822/7961006457 0090LDAHV9DH6T                                                  00070000  000000000010320000001020190118SEA.FMNLMPH7901004822/7961006457                                                                                                  
12000I     O31E912510700025107201812181641 00025107MPH7901004822/7961006457 0090                        00025103                                                                                                                                                                                                      
12000I     O31E112510700025107201812181641100025107MPH7901004822/7961006457 0100LDAHV9LH6T                                                  00010000  000000000010320000001020190118SEA.FMNLMPH7901004822/7961006457                                                                                                  
12000I     O31E912510700025107201812181641 00025107MPH7901004822/7961006457 0100                        00025103                                                                                                                                                                                                      
12000I     O31A112510800025108201812182205100025108MST7901004826/7931005753       10002510300039130                                 L31790                              YNR01-SG                        20190110         N 0003827420181223SEA.FLKGLIGHTING                                                       O   
12000I     O31A212510800025108201812182205100025108MST7901004826/7931005753     FOB0                              USD                                                        00025103201901100002510300025103                                            00038274                                                     
12000I     O31A812510800025108201812182205100025108MST7901004826/7931005753     FOB                                                                                                                                                                                                                                   
12000I     O31E112510800025108201812182205100025108MST7901004826/7931005753 0010EFUHV18L27A                                                 00001000  000000000000120000001020190110SEA.FLKGMST7901004826/7931005753                                                                                                  
12000I     O31E912510800025108201812182205 00025108MST7901004826/7931005753 0010                        00025103                                                                                                                                                                                                      
