00025103   O31A112510700025107201707081240100025107MPH165442/7961002167         A  0002510300029474                                 L31790                              YCKE, MS. CHUI HONG, MICHELLE MI20170713        1N10003827420170905SEA.FMNLLIGHTING                                                       O   
00025103   O31A212510700025107201707081240100025107MPH165442/7961002167         FOB0                              USD                                                        00029474201709010002947400029474                                            00038274                                                     
00025103   O31E112510700025107201707081240100025107MPH165442/7961002167     0001LDAHV3DH6A                                                  00100000  0000000007994400000010        SEA.FMNL7961002167                                                                                                                
00025103   O31E912510700025107201707081240 00025107MPH165442/7961002167     0001                        00029474                                                                                                                                                                                                      
00025103   O31E112510700025107201707081240100025107MPH165442/7961002167     0002LDAHV5DH6A                                                  00100000  0000000001035300000010        SEA.FMNL7961002167                                                                                                                
00025103   O31E912510700025107201707081240 00025107MPH165442/7961002167     0002                        00029474                                                                                                                                                                                                      
00025103   O31E112510700025107201707081240100025107MPH165442/7961002167     0003LDAHV7DH6A                                                  00100000  0000000000012100000010        SEA.FMNL7961002167                                                                                                                
00025103   O31E912510700025107201707081240 00025107MPH165442/7961002167     0003                        00029474                                                                                                                                                                                                      
00025103   O31E112510700025107201707081240100025107MPH165442/7961002167     0004LDAHV9DH6A                                                  00100000  0000000000132200000010        SEA.FMNL7961002167                                                                                                                
00025103   O31E912510700025107201707081240 00025107MPH165442/7961002167     0004                        00029474                                                                                                                                                                                                      
