00025103   O31A112510800025108201707311146100025108MST165757/7931002750         A  0002510300039130                                 L31790                              NCKE, MS. CHUI HONG, MICHELLE MI20170815        1N10003827420170825SEA.FLKGLIGHTING                                                       O   
00025103   O31A212510800025108201707311146100025108MST165757/7931002750         FOB0                              USD                                                        00039130201709100003913000039130SCMM                                        00038274                                                     
00025103   O31E112510800025108201707311146100025108MST165757/7931002750     0001LDAHV3LH6A                                                  00035000  000000000630340000001020170903SEA.FLKG7931002750                                                                                                                
00025103   O31E912510800025108201707311146 00025108MST165757/7931002750     0001                        00039130                                                                                                                                                                                                      
00025103   O31E112510800025108201707311146100025108MST165757/7931002750     0002LDAHV5DH6A                                                  00140000  000000000630340000001020170903SEA.FLKG7931002750                                                                                                                
00025103   O31E912510800025108201707311146 00025108MST165757/7931002750     0002                        00039130                                                                                                                                                                                                      
00025103   O31E112510800025108201707311146100025108MST165757/7931002750     0003LDAHV5LH6A                                                  00020000  000000000630340000001020170903SEA.FLKG7931002750                                                                                                                
00025103   O31E912510800025108201707311146 00025108MST165757/7931002750     0003                        00039130                                                                                                                                                                                                      
00025103   O31E112510800025108201707311146100025108MST165757/7931002750     0004LDAHV7LH6A                                                  00040000  000000000779240000001020170903SEA.FLKG7931002750                                                                                                                
00025103   O31E912510800025108201707311146 00025108MST165757/7931002750     0004                        00039130                                                                                                                                                                                                      
00025103   O31E112510800025108201707311146100025108MST165757/7931002750     0005LDAHV9DH6A                                                  00330000  000000001121440000001020170903SEA.FLKG7931002750                                                                                                                
00025103   O31E912510800025108201707311146 00025108MST165757/7931002750     0005                        00039130                                                                                                                                                                                                      
00025103   O31A112510800025108201707311147100025108MST165767/7931002751         A  0002510300039130                                 S31790                              NCKE, MS. CHUI HONG, MICHELLE MI20170815        1N10003827420170825SEA.FLKGLIGHTING                                                       O   
00025103   O31A212510800025108201707311147100025108MST165767/7931002751         FOB0                              USD                                                        00039130201709100003913000039130SCMM                                        00038274                                                     
00025103   O31E112510800025108201707311147100025108MST165767/7931002751     0001EFDHV15D65T1                                                00139200  000000001112740000001020170903SEA.FLKG7931002751                                                                                                                
00025103   O31E912510800025108201707311147 00025108MST165767/7931002751     0001                        00039130                                                                                                                                                                                                      
00025103   O31E112510800025108201707311147100025108MST165767/7931002751     0002EFDHV15L27T1                                                00048000  000000001112740000001020170903SEA.FLKG7931002751                                                                                                                
00025103   O31E912510800025108201707311147 00025108MST165767/7931002751     0002                        00039130                                                                                                                                                                                                      
00025103   O31E112510800025108201707311147100025108MST165767/7931002751     0003EFDHV20D65T1                                                00050880  000000001381940000001020170903SEA.FLKG7931002751                                                                                                                
00025103   O31E912510800025108201707311147 00025108MST165767/7931002751     0003                        00039130                                                                                                                                                                                                      
00025103   O31E112510800025108201707311147100025108MST165767/7931002751     0004EFDHV23D65T1                                                00024960  000000001381940000001020170903SEA.FLKG7931002751                                                                                                                
00025103   O31E912510800025108201707311147 00025108MST165767/7931002751     0004                        00039130                                                                                                                                                                                                      
00025103   O31E112510800025108201707311147100025108MST165767/7931002751     0005EFDHV25D65T                                                 01999680  000000000015220000001020170903SEA.FLKG7931002751                                                                                                                
00025103   O31E912510800025108201707311147 00025108MST165767/7931002751     0005                        00039130                                                                                                                                                                                                      
00025103   O31E112510800025108201707311147100025108MST165767/7931002751     0006EFU14E272V1                                                 00077000  000000001189640000001020170903SEA.FLKG7931002751                                                                                                                
00025103   O31E912510800025108201707311147 00025108MST165767/7931002751     0006                        00039130                                                                                                                                                                                                      
00025103   O31E112510800025108201707311147100025108MST165767/7931002751     0007EFU14E652V1                                                 00350000  000000001189640000001020170903SEA.FLKG7931002751                                                                                                                
00025103   O31E912510800025108201707311147 00025108MST165767/7931002751     0007                        00039130                                                                                                                                                                                                      
00025103   O31E112510800025108201707311147100025108MST165767/7931002751     0008EFUHV23D65A                                                 00030000  000000001411440000001020170903SEA.FLKG7931002751                                                                                                                
00025103   O31E912510800025108201707311147 00025108MST165767/7931002751     0008                        00039130                                                                                                                                                                                                      
