00025103   O31A112510800025108201702280241100025108MST161107/7931001796         A  0002510300039130                                 S31790                              NCKE, MS. CHUI HONG, MICHELLE MI20170315        1N10003827420170325SEA.FLKGLIGHTING                                                       O   
00025103   O31A212510800025108201702280241100025108MST161107/7931001796         FOB0                              USD                                                        00039130201704100003913000039130SCMM                                        00038274                                                     
00025103   O31E112510800025108201702280241100025108MST161107/7931001796     0001EFDHV20D65T1                                                00059520  0000000000000000000010        SEA.FLKG7931001796                                                                                                                
00025103   O31E912510800025108201702280241 00025108MST161107/7931001796     0001                        00039130                                                                                                                                                                                                      
00025103   O31E112510800025108201702280241100025108MST161107/7931001796     0002EFDHV23D65T1                                                00039360  0000000000000000000010        SEA.FLKG7931001796                                                                                                                
00025103   O31E912510800025108201702280241 00025108MST161107/7931001796     0002                        00039130                                                                                                                                                                                                      
00025103   O31E112510800025108201702280241100025108MST161107/7931001796     0003EFDHV25L27T                                                 00009600  0000000000000000000010        SEA.FLKG7931001796                                                                                                                
00025103   O31E912510800025108201702280241 00025108MST161107/7931001796     0003                        00039130                                                                                                                                                                                                      
00025103   O31E112510800025108201702280241100025108MST161107/7931001796     0004EFUHV23D65A                                                 00085000  0000000000000000000010        SEA.FLKG7931001796                                                                                                                
00025103   O31E912510800025108201702280241 00025108MST161107/7931001796     0004                        00039130                                                                                                                                                                                                      
00025103   O31E112510800025108201702280241100025108MST161107/7931001796     0005LDAHV7LG4A                                                  00025000  0000000000000000000010        SEA.FLKG7931001796                                                                                                                
00025103   O31E912510800025108201702280241 00025108MST161107/7931001796     0005                        00039130                                                                                                                                                                                                      
00025103   O31A112510800025108201702280241100025108MST161108/7931001797         A  0002510300039130                                 S31790                              NCKE, MS. CHUI HONG, MICHELLE MI20170315        1N10003827420170403SEA.FLKGLIGHTING                                                       O   
00025103   O31A212510800025108201702280241100025108MST161108/7931001797         FOB0                              USD                                                        00039130201704210003913000039130SCMM                                        00038274                                                     
00025103   O31E112510800025108201702280241100025108MST161108/7931001797     0001EFDHV25L27T                                                 00024960  0000000000000000000010        SEA.FLKG7931001797                                                                                                                
00025103   O31E912510800025108201702280241 00025108MST161108/7931001797     0001                        00039130                                                                                                                                                                                                      
00025103   O31E112510800025108201702280241100025108MST161108/7931001797     0002EFDHV42D65A                                                 00044880  0000000000000000000010        SEA.FLKG7931001797                                                                                                                
00025103   O31E912510800025108201702280241 00025108MST161108/7931001797     0002                        00039130                                                                                                                                                                                                      
00025103   O31E112510800025108201702280241100025108MST161108/7931001797     0003EFU11E652V                                                  00015000  0000000000000000000010        SEA.FLKG7931001797                                                                                                                
00025103   O31E912510800025108201702280241 00025108MST161108/7931001797     0003                        00039130                                                                                                                                                                                                      
00025103   O31E112510800025108201702280241100025108MST161108/7931001797     0004EFUHV18D65A                                                 00330000  0000000000000000000010        SEA.FLKG7931001797                                                                                                                
00025103   O31E912510800025108201702280241 00025108MST161108/7931001797     0004                        00039130                                                                                                                                                                                                      
00025103   O31E112510800025108201702280241100025108MST161108/7931001797     0005EFUHV18L27A                                                 00015000  0000000000000000000010        SEA.FLKG7931001797                                                                                                                
00025103   O31E912510800025108201702280241 00025108MST161108/7931001797     0005                        00039130                                                                                                                                                                                                      
00025103   O31E112510800025108201702280241100025108MST161108/7931001797     0006EFUHV23D65A                                                 00015000  0000000000000000000010        SEA.FLKG7931001797                                                                                                                
00025103   O31E912510800025108201702280241 00025108MST161108/7931001797     0006                        00039130                                                                                                                                                                                                      
