12000I     O31A112511000025110201901031452100025110MMQ7901005416/7921005782       10002510300039140                                 L31790                              YNR01-SG                        20190208         N 0003827420190116SEA.FPKLLIGHTING                                                       O   
12000I     O31A212511000025110201901031452100025110MMQ7901005416/7921005782     FOB0                              USD                                                        00025103201902080002510300025103                                            00038274                                                     
12000I     O31A812511000025110201901031452100025110MMQ7901005416/7921005782     FOB                                                                                                                                                                                                                                   
12000I     O31E112511000025110201901031452100025110MMQ7901005416/7921005782 0010EFUHV18D65A3                                                00100000  000000000000120000001020190208SEA.FPKLMMQ7901005416/7921005782                                                                                                  
12000I     O31E912511000025110201901031452 00025110MMQ7901005416/7921005782 0010                        00025103                                                                                                                                                                                                      
12000I     O31A112511000025110201901031452100025110MMQ7901005417/7921005781       10002510300039140                                 L31790                              YNR01-SG                        20190126         N 0003827420190103SEA.FPKLLIGHTING                                                       O   
12000I     O31A212511000025110201901031452100025110MMQ7901005417/7921005781     FOB0                              USD                                                        00025103201901260002510300025103                                            00038274                                                     
12000I     O31A812511000025110201901031452100025110MMQ7901005417/7921005781     FOB                                                                                                                                                                                                                                   
12000I     O31E112511000025110201901031452100025110MMQ7901005417/7921005781 0010LDTHV11D65GA1                                               00300000  000000000017420000001020190126SEA.FPKLMMQ7901005417/7921005781                                                                                                  
12000I     O31E912511000025110201901031452 00025110MMQ7901005417/7921005781 0010                        00025103                                                                                                                                                                                                      
12000I     O31E112511000025110201901031452100025110MMQ7901005417/7921005781 0020LDTHV11L30GA1                                               00100000  000000000017420000001020190126SEA.FPKLMMQ7901005417/7921005781                                                                                                  
12000I     O31E912511000025110201901031452 00025110MMQ7901005417/7921005781 0020                        00025103                                                                                                                                                                                                      
12000I     O31E112511000025110201901031452100025110MMQ7901005417/7921005781 0030LDTHV7D65GA1                                                00100000  000000000013820000001020190126SEA.FPKLMMQ7901005417/7921005781                                                                                                  
12000I     O31E912511000025110201901031452 00025110MMQ7901005417/7921005781 0030                        00025103                                                                                                                                                                                                      
12000I     O31E112511000025110201901031452100025110MMQ7901005417/7921005781 0040LDTHV7L30GA1                                                00020000  000000000013820000001020190126SEA.FPKLMMQ7901005417/7921005781                                                                                                  
12000I     O31E912511000025110201901031452 00025110MMQ7901005417/7921005781 0040                        00025103                                                                                                                                                                                                      
