00025103   O31A112520700025207201601151229100025207MGM149513/660-404151         A  000251032062061620620616                         L31790                              YCKE, MS. CHUI HONG, MICHELLE MI20160120        1N100038274        SEA.F   LIGHTING                                                       O   
00025103   O31A212520700025207201601151229100025207MGM149513/660-404151         FOB0                              USD                                                                20160310                                                            00038274                                                     
00025103   O31E112520700025207201601151229100025207MGM149513/660-404151     0001EFU11E652V          EFU11E652V                              00006000  0000000014041400000010                660-404151                                                                                                                
00025103   O31E112520700025207201601151229100025207MGM149513/660-404151     0002EFU8E272V           EFU8E272V                               00006000  0000000013756400000010                660-404151                                                                                                                
00025103   O31A112520700025207201601151229100025207MGM149515/660-404149         A  000251032062061620620616                         L31790                              YCKE, MS. CHUI HONG, MICHELLE MI20160120        1N100038274        SEA.F   LIGHTING                                                       O   
00025103   O31A212520700025207201601151229100025207MGM149515/660-404149         FOB0                              USD                                                                20160310                                                            00038274                                                     
00025103   O31E112520700025207201601151229100025207MGM149515/660-404149     0001EFDHV20L27A         EFDHV20L27A                             00004800  0000000000156200000010                660-404149                                                                                                                
00025103   O31E112520700025207201601151229100025207MGM149515/660-404149     0002EFDHV23D65A         EFDHV23D65A                             00011520  0000000000156200000010                660-404149                                                                                                                
00025103   O31E112520700025207201601151229100025207MGM149515/660-404149     0003EFDHV25D65A         EFDHV25D65A                             00096000  0000000000156200000010                660-404149                                                                                                                
00025103   O31E112520700025207201601151229100025207MGM149515/660-404149     0004EFDHV15D65A         EFDHV15D65A                             00048000  0000000000126200000010                660-404149                                                                                                                
00025103   O31E112520700025207201601151229100025207MGM149515/660-404149     0005EFDHV20D65A         EFDHV20D65A                             00024000  0000000000156200000010                660-404149                                                                                                                
00025103   O31E112520700025207201601151229100025207MGM149515/660-404149     0006EFDHV25L27A         EFDHV25L27A                             00004800  0000000000156200000010                660-404149                                                                                                                
00025103   O31E112520700025207201601151229100025207MGM149515/660-404149     0007EFDHV5D65A          EFDHV5D65A                              00035520  0000000000108200000010                660-404149                                                                                                                
00025103   O31E112520700025207201601151229100025207MGM149515/660-404149     0008EFDHV5L27A          EFDHV5L27A                              00024000  0000000000108200000010                660-404149                                                                                                                
00025103   O31E112520700025207201601151229100025207MGM149515/660-404149     0009EFDHV8D65A          EFDHV8D65A                              00011520  0000000000108200000010                660-404149                                                                                                                
00025103   O31A112520700025207201601151229100025207MGM149516/660-404152         A  000251032062061620620616                         L31790                              YCKE, MS. CHUI HONG, MICHELLE MI20160120        1N100038274        SEA.F   LIGHTING                                                       O   
00025103   O31A212520700025207201601151229100025207MGM149516/660-404152         FOB0                              USD                                                                20160310                                                            00038274                                                     
00025103   O31E112520700025207201601151229100025207MGM149516/660-404152     0001EFD19E65HD3A        EFD19E65HD3A                            00024000  0000000013416400000010                660-404152                                                                                                                
00025103   O31E112520700025207201601151229100025207MGM149516/660-404152     0002EFD11E65HD3A2       EFD11E65HD3A2                           00024000  0000000001125300000010                660-404152                                                                                                                
00025103   O31E112520700025207201601151229100025207MGM149516/660-404152     0003EFD14E65HD3A2       EFD14E65HD3A2                           00024000  0000000000011100000010                660-404152                                                                                                                
00025103   O31E112520700025207201601151229100025207MGM149516/660-404152     0004EFD8E65HD3A2        EFD8E65HD3A2                            00024000  0000000009951400000010                660-404152                                                                                                                
00025103   O31A112520700025207201601151229100025207MGM149518/660-404150         A  000251032062061620620616                         L31790                              YCKE, MS. CHUI HONG, MICHELLE MI20160120        1N100038274        SEA.F   LIGHTING                                                       O   
00025103   O31A212520700025207201601151229100025207MGM149518/660-404150         FOB0                              USD                                                                20160310                                                            00038274                                                     
00025103   O31E112520700025207201601151229100025207MGM149518/660-404150     0001EFDHV20D65BA        EFDHV20D65BA                            00059520  0000000000156200000010                660-404150                                                                                                                
00025103   O31E112520700025207201601151229100025207MGM149518/660-404150     0002EFDHV15D65BA        EFDHV15D65BA                            00048000  0000000000126200000010                660-404150                                                                                                                
00025103   O31E112520700025207201601151229100025207MGM149518/660-404150     0003EFDHV23D65BA        EFDHV23D65BA                            00035520  0000000000156200000010                660-404150                                                                                                                
00025103   O31E112520700025207201601151229100025207MGM149518/660-404150     0004EFDHV5D65BA         EFDHV5D65BA                             00035520  0000000000108200000010                660-404150                                                                                                                
00025103   O31E112520700025207201601151229100025207MGM149518/660-404150     0005EFDHV8D65BA         EFDHV8D65BA                             00035520  0000000000108200000010                660-404150                                                                                                                
00025103   O31A112520700025207201601211133100025207MGM149611/660-404177         A  000251032062061620620616                         L31790                              YCKE, MS. CHUI HONG, MICHELLE MI20160126        1N100038274        SEA.F   LIGHTING                                                       O   
00025103   O31A212520700025207201601211133100025207MGM149611/660-404177         FOB0                              USD                                                                20160413                                                            00038274                                                     
00025103   O31E112520700025207201601211133100025207MGM149611/660-404177     0001EFDHV11D65A         EFDHV11D65A                             00024000  0000000000126200000010                660-404177                                                                                                                
00025103   O31E112520700025207201601211133100025207MGM149611/660-404177     0002EFDHV25D65A         EFDHV25D65A                             00048000  0000000000156200000010                660-404177                                                                                                                
00025103   O31E112520700025207201601211133100025207MGM149611/660-404177     0003EFDHV15L27A         EFDHV15L27A                             00009600  0000000000126200000010                660-404177                                                                                                                
00025103   O31E112520700025207201601211133100025207MGM149611/660-404177     0004EFDHV20D65A         EFDHV20D65A                             00024000  0000000000156200000010                660-404177                                                                                                                
00025103   O31E112520700025207201601211133100025207MGM149611/660-404177     0005EFDHV8L27A          EFDHV8L27A                              00011520  0000000000108200000010                660-404177                                                                                                                
00025103   O31A112520700025207201601211133100025207MGM149612/660-404181         A  000251032062061620620616                         L31790                              YCKE, MS. CHUI HONG, MICHELLE MI20160126        1N100038274        SEA.F   LIGHTING                                                       O   
00025103   O31A212520700025207201601211133100025207MGM149612/660-404181         FOB0                              USD                                                                20160409                                                            00038274                                                     
00025103   O31E112520700025207201601211133100025207MGM149612/660-404181     0001EFDHV42D65A         EFDHV42D65A                             00048000  0000000030535400000010                660-404181                                                                                                                
00025103   O31A112520700025207201601211133100025207MGM149613/660-404179         A  000251032062061620620616                         L31790                              YCKE, MS. CHUI HONG, MICHELLE MI20160126        1N100038274        SEA.F   LIGHTING                                                       O   
00025103   O31A212520700025207201601211133100025207MGM149613/660-404179         FOB0                              USD                                                                20160412                                                            00038274                                                     
00025103   O31E112520700025207201601211133100025207MGM149613/660-404179     0001EFD19E65HD3A        EFD19E65HD3A                            00024000  0000000013416400000010                660-404179                                                                                                                
00025103   O31E112520700025207201601211133100025207MGM149613/660-404179     0002EFD11E65HD3A2       EFD11E65HD3A2                           00024000  0000000001125300000010                660-404179                                                                                                                
00025103   O31E112520700025207201601211133100025207MGM149613/660-404179     0003EFD14E65HD3A2       EFD14E65HD3A2                           00022800  0000000000011100000010                660-404179                                                                                                                
00025103   O31E112520700025207201601211133100025207MGM149613/660-404179     0004EFD8E65HD3A2        EFD8E65HD3A2                            00024000  0000000009951400000010                660-404179                                                                                                                
00025103   O31A112520700025207201601211133100025207MGM149614/660-404180         A  000251032062061620620616                         L31790                              YCKE, MS. CHUI HONG, MICHELLE MI20160126        1N100038274        SEA.F   LIGHTING                                                       O   
00025103   O31A212520700025207201601211133100025207MGM149614/660-404180         FOB0                              USD                                                                20160410                                                            00038274                                                     
00025103   O31E112520700025207201601211133100025207MGM149614/660-404180     0001EFU11E652V          EFU11E652V                              00024000  0000000014041400000010                660-404180                                                                                                                
00025103   O31E112520700025207201601211133100025207MGM149614/660-404180     0002EFU14E652V          EFU14E652V                              00012000  0000000014041400000010                660-404180                                                                                                                
00025103   O31E112520700025207201601211133100025207MGM149614/660-404180     0003EFU18E652V          EFU18E652V                              00024000  0000000016055400000010                660-404180                                                                                                                
00025103   O31A112520700025207201601211133100025207MGM149615/660-404178         A  000251032062061620620616                         L31790                              YCKE, MS. CHUI HONG, MICHELLE MI20160126        1N100038274        SEA.F   LIGHTING                                                       O   
00025103   O31A212520700025207201601211133100025207MGM149615/660-404178         FOB0                              USD                                                                20160411                                                            00038274                                                     
00025103   O31E112520700025207201601211133100025207MGM149615/660-404178     0001EFDHV15D65BA        EFDHV15D65BA                            00048000  0000000000126200000010                660-404178                                                                                                                
00025103   O31E112520700025207201601211133100025207MGM149615/660-404178     0002EFDHV23D65BA        EFDHV23D65BA                            00035520  0000000000156200000010                660-404178                                                                                                                
00025103   O31E112520700025207201601211133100025207MGM149615/660-404178     0003EFDHV25D65BA        EFDHV25D65BA                            00035520  0000000000156200000010                660-404178                                                                                                                
00025103   O31E112520700025207201601211133100025207MGM149615/660-404178     0004EFDHV8D65BA         EFDHV8D65BA                             00035520  0000000000108200000010                660-404178                                                                                                                
00025103   O31E112520700025207201601211133100025207MGM149615/660-404178     0005EFDHV20D65BA        EFDHV20D65BA                            00059520  0000000000156200000010                660-404178                                                                                                                
00025103   O31A112510700025107201603040531100025107MPH150900/SS100146           A  000251030002947400029474                         L31790PT Panasonic Gobel Eco SolutioNCKE, MS. CHUI HONG, MICHELLE MI20160319        1N10003827420160322SEA.FMNLLIGHTING                                                       O   
00025103   O31A212510700025107201603040531100025107MPH150900/SS100146           FOB0                              USD                                                                20160418                                                            00038274                                                     
00025103   O31E112510700025107201603040531100025107MPH150900/SS100146       0001EFU5E672V           EFU5E672V                     00038274  00106000  0000000000000000000010                **********                                                                                                                
00025103   O31E112510700025107201603040531100025107MPH150900/SS100146       0002EFU11E652V          EFU11E652V                    00038274  00106000  0000000000000000000010                **********                                                                                                                
00025103   O31E112510700025107201603040531100025107MPH150900/SS100146       0003EFU14E652V          EFU14E652V                    00038274  00106000  0000000000000000000010                **********                                                                                                                
00025103   O31E112510700025107201603040531100025107MPH150900/SS100146       0004EFUHV18D65A3        EFUHV18D65A3                  00038274  00106000  0000000000000000000010                **********                                                                                                                
00025103   O31A112520700025207201603070232100025207MGM150942/660-404307         A  000251032062061620620616                         L31790                              YCKE, MS. CHUI HONG, MICHELLE MI20160312        1N100038274        SEA.F   LIGHTING                                                       O   
00025103   O31A212520700025207201603070232100025207MGM150942/660-404307         FOB0                              USD                                                                20160510                                                            00038274                                                     
00025103   O31E112520700025207201603070232100025207MGM150942/660-404307     0001EFU11E272V          EFU11E272V                              00006000  0000000014041400000010                660-404307                                                                                                                
00025103   O31E112520700025207201603070232100025207MGM150942/660-404307     0002EFU14E652V          EFU14E652V                              00012000  0000000014041400000010                660-404307                                                                                                                
00025103   O31E112520700025207201603070232100025207MGM150942/660-404307     0003EFU8E272V           EFU8E272V                               00024000  0000000013756400000010                660-404307                                                                                                                
00025103   O31E112520700025207201603070232100025207MGM150942/660-404307     0004EFU8E652V           EFU8E652V                               00012000  0000000013756400000010                660-404307                                                                                                                
00025103   O31A112520700025207201603070232100025207MGM150943/660-404306         A  000251032062061620620616                         L31790                              YCKE, MS. CHUI HONG, MICHELLE MI20160312        1N100038274        SEA.F   LIGHTING                                                       O   
00025103   O31A212520700025207201603070232100025207MGM150943/660-404306         FOB0                              USD                                                                20160510                                                            00038274                                                     
00025103   O31E112520700025207201603070232100025207MGM150943/660-404306     0001EFDHV11L27A         EFDHV11L27A                             00011520  0000000000126200000010                660-404306                                                                                                                
00025103   O31E112520700025207201603070232100025207MGM150943/660-404306     0002EFDHV20L27A         EFDHV20L27A                             00004800  0000000000156200000010                660-404306                                                                                                                
00025103   O31E112520700025207201603070232100025207MGM150943/660-404306     0003EFDHV25D65A         EFDHV25D65A                             00048000  0000000000156200000010                660-404306                                                                                                                
00025103   O31E112520700025207201603070232100025207MGM150943/660-404306     0004EFDHV15D65A         EFDHV15D65A                             00045000  0000000000126200000010                660-404306                                                                                                                
00025103   O31E112520700025207201603070232100025207MGM150943/660-404306     0005EFDHV15L27A         EFDHV15L27A                             00009600  0000000000126200000010                660-404306                                                                                                                
00025103   O31E112520700025207201603070232100025207MGM150943/660-404306     0006EFDHV20D65A         EFDHV20D65A                             00012000  0000000000156200000010                660-404306                                                                                                                
00025103   O31E112520700025207201603070232100025207MGM150943/660-404306     0007EFDHV25L27A         EFDHV25L27A                             00004800  0000000000156200000010                660-404306                                                                                                                
00025103   O31E112520700025207201603070232100025207MGM150943/660-404306     0008EFDHV5L27A          EFDHV5L27A                              00012000  0000000000108200000010                660-404306                                                                                                                
00025103   O31E112520700025207201603070232100025207MGM150943/660-404306     0009EFDHV8D65A          EFDHV8D65A                              00012000  0000000000108200000010                660-404306                                                                                                                
00025103   O31E112520700025207201603070232100025207MGM150943/660-404306     0010EFDHV8L27A          EFDHV8L27A                              00024000  0000000000108200000010                660-404306                                                                                                                
00025103   O31A112520700025207201603070232100025207MGM150944/660-404308         A  000251032062061620620616                         L31790                              YCKE, MS. CHUI HONG, MICHELLE MI20160312        1N100038274        SEA.F   LIGHTING                                                       O   
00025103   O31A212520700025207201603070232100025207MGM150944/660-404308         FOB0                              USD                                                                20160510                                                            00038274                                                     
00025103   O31E112520700025207201603070232100025207MGM150944/660-404308     0001EFDHV15D65BA        EFDHV15D65BA                            00024000  0000000000126200000010                660-404308                                                                                                                
00025103   O31E112520700025207201603070232100025207MGM150944/660-404308     0002EFDHV23D65BA        EFDHV23D65BA                            00017760  0000000000156200000010                660-404308                                                                                                                
00025103   O31E112520700025207201603070232100025207MGM150944/660-404308     0003EFDHV5D65BA         EFDHV5D65BA                             00035520  0000000000108200000010                660-404308                                                                                                                
00025103   O31E112520700025207201603070232100025207MGM150944/660-404308     0004EFDHV20D65BA        EFDHV20D65BA                            00029760  0000000000156200000010                660-404308                                                                                                                
