00025103   O31A112510800025108201710300408100025108MST168825/7931003291         A  0002510300039130                                 S31790                              NCKE, MS. CHUI HONG, MICHELLE MI20171114        1N10003827420171124SEA.FLKGLIGHTING                                                       O   
00025103   O31A212510800025108201710300408100025108MST168825/7931003291         FOB0                              USD                                                        00039130201712100003913000039130SCMM                                        00038274                                                     
00025103   O31E112510800025108201710300408100025108MST168825/7931003291     0001EFDHV11D65T                                                 00019200  000000001223940000001020171203SEA.FLKG7931003291                                                                                                                
00025103   O31E912510800025108201710300408 00025108MST168825/7931003291     0001                        00039130                                                                                                                                                                                                      
00025103   O31E112510800025108201710300408100025108MST168825/7931003291     0002EFDHV15D65T1                                                00204480  000000001112740000001020171203SEA.FLKG7931003291                                                                                                                
00025103   O31E912510800025108201710300408 00025108MST168825/7931003291     0002                        00039130                                                                                                                                                                                                      
00025103   O31E112510800025108201710300408100025108MST168825/7931003291     0003EFDHV15L27T1                                                00046080  000000001112740000001020171203SEA.FLKG7931003291                                                                                                                
00025103   O31E912510800025108201710300408 00025108MST168825/7931003291     0003                        00039130                                                                                                                                                                                                      
00025103   O31E112510800025108201710300408100025108MST168825/7931003291     0004EFDHV20D65T1                                                00029760  000000001381940000001020171203SEA.FLKG7931003291                                                                                                                
00025103   O31E912510800025108201710300408 00025108MST168825/7931003291     0004                        00039130                                                                                                                                                                                                      
00025103   O31E112510800025108201710300408100025108MST168825/7931003291     0005EFDHV23D65T1                                                00014400  000000001381940000001020171203SEA.FLKG7931003291                                                                                                                
00025103   O31E912510800025108201710300408 00025108MST168825/7931003291     0005                        00039130                                                                                                                                                                                                      
00025103   O31E112510800025108201710300408100025108MST168825/7931003291     0006EFDHV25D65T                                                 01629120  000000000015220000001020171203SEA.FLKG7931003291                                                                                                                
00025103   O31E912510800025108201710300408 00025108MST168825/7931003291     0006                        00039130                                                                                                                                                                                                      
00025103   O31E112510800025108201710300408100025108MST168825/7931003291     0007EFDHV25L27T                                                 00048000  000000000015220000001020171203SEA.FLKG7931003291                                                                                                                
00025103   O31E912510800025108201710300408 00025108MST168825/7931003291     0007                        00039130                                                                                                                                                                                                      
00025103   O31E112510800025108201710300408100025108MST168825/7931003291     0008EFDHV32D65A                                                 00012480  000000002722140000001020171203SEA.FLKG7931003291                                                                                                                
00025103   O31E912510800025108201710300408 00025108MST168825/7931003291     0008                        00039130                                                                                                                                                                                                      
00025103   O31E112510800025108201710300408100025108MST168825/7931003291     0009EFDHV42D65A                                                 00044160  000000003013840000001020171203SEA.FLKG7931003291                                                                                                                
00025103   O31E912510800025108201710300408 00025108MST168825/7931003291     0009                        00039130                                                                                                                                                                                                      
00025103   O31E112510800025108201710300408100025108MST168825/7931003291     0010EFU11E652V                                                  00040000  000000001223440000001020171203SEA.FLKG7931003291                                                                                                                
00025103   O31E912510800025108201710300408 00025108MST168825/7931003291     0010                        00039130                                                                                                                                                                                                      
00025103   O31E112510800025108201710300408100025108MST168825/7931003291     0011EFU14E272V1                                                 00085000  000000001189640000001020171203SEA.FLKG7931003291                                                                                                                
00025103   O31E912510800025108201710300408 00025108MST168825/7931003291     0011                        00039130                                                                                                                                                                                                      
00025103   O31E112510800025108201710300408100025108MST168825/7931003291     0012EFU14E652V1                                                 00445000  000000001189640000001020171203SEA.FLKG7931003291                                                                                                                
00025103   O31E912510800025108201710300408 00025108MST168825/7931003291     0012                        00039130                                                                                                                                                                                                      
00025103   O31E112510800025108201710300408100025108MST168825/7931003291     0013EFU8E652V1                                                  00080000  000000001088340000001020171203SEA.FLKG7931003291                                                                                                                
00025103   O31E912510800025108201710300408 00025108MST168825/7931003291     0013                        00039130                                                                                                                                                                                                      
00025103   O31E112510800025108201710300408100025108MST168825/7931003291     0014EFUHV18D65A                                                 00320000  000000001342340000001020171203SEA.FLKG7931003291                                                                                                                
00025103   O31E912510800025108201710300408 00025108MST168825/7931003291     0014                        00039130                                                                                                                                                                                                      
00025103   O31E112510800025108201710300408100025108MST168825/7931003291     0015EFUHV18L27A                                                 00011000  000000001342340000001020171203SEA.FLKG7931003291                                                                                                                
00025103   O31E912510800025108201710300408 00025108MST168825/7931003291     0015                        00039130                                                                                                                                                                                                      
00025103   O31E112510800025108201710300408100025108MST168825/7931003291     0016EFUHV23D65A                                                 00050000  000000001411440000001020171203SEA.FLKG7931003291                                                                                                                
00025103   O31E912510800025108201710300408 00025108MST168825/7931003291     0016                        00039130                                                                                                                                                                                                      
00025103   O31A112510800025108201710300408100025108MST168852/7931003290         A  0002510300039130                                 L31790                              NCKE, MS. CHUI HONG, MICHELLE MI20171114        1N10003827420171124SEA.FLKGLIGHTING                                                       O   
00025103   O31A212510800025108201710300408100025108MST168852/7931003290         FOB0                              USD                                                        00039130201712100003913000039130SCMM                                        00038274                                                     
00025103   O31E112510800025108201710300408100025108MST168852/7931003290     0001LDAHV3DH6A                                                  00080000  000000000630340000001020171203SEA.FLKG7931003290                                                                                                                
00025103   O31E912510800025108201710300408 00025108MST168852/7931003290     0001                        00039130                                                                                                                                                                                                      
00025103   O31E112510800025108201710300408100025108MST168852/7931003290     0002LDAHV3LH6A                                                  00025000  000000000630340000001020171203SEA.FLKG7931003290                                                                                                                
00025103   O31E912510800025108201710300408 00025108MST168852/7931003290     0002                        00039130                                                                                                                                                                                                      
00025103   O31E112510800025108201710300408100025108MST168852/7931003290     0003LDAHV5DH6A                                                  00055000  000000000630340000001020171203SEA.FLKG7931003290                                                                                                                
00025103   O31E912510800025108201710300408 00025108MST168852/7931003290     0003                        00039130                                                                                                                                                                                                      
00025103   O31E112510800025108201710300408100025108MST168852/7931003290     0004LDAHV5LH6A                                                  00042000  000000000630340000001020171203SEA.FLKG7931003290                                                                                                                
00025103   O31E912510800025108201710300408 00025108MST168852/7931003290     0004                        00039130                                                                                                                                                                                                      
00025103   O31E112510800025108201710300408100025108MST168852/7931003290     0005LDAHV7DH6A                                                  00230000  000000000779240000001020171203SEA.FLKG7931003290                                                                                                                
00025103   O31E912510800025108201710300408 00025108MST168852/7931003290     0005                        00039130                                                                                                                                                                                                      
00025103   O31E112510800025108201710300408100025108MST168852/7931003290     0006LDAHV7LH6A                                                  00110000  000000000779240000001020171203SEA.FLKG7931003290                                                                                                                
00025103   O31E912510800025108201710300408 00025108MST168852/7931003290     0006                        00039130                                                                                                                                                                                                      
00025103   O31E112510800025108201710300408100025108MST168852/7931003290     0007LDAHV9DH6A                                                  00110000  000000001121440000001020171203SEA.FLKG7931003290                                                                                                                
00025103   O31E912510800025108201710300408 00025108MST168852/7931003290     0007                        00039130                                                                                                                                                                                                      
00025103   O31E112510800025108201710300408100025108MST168852/7931003290     0008LDAHV9LH6A                                                  00025000  000000001121440000001020171203SEA.FLKG7931003290                                                                                                                
00025103   O31E912510800025108201710300408 00025108MST168852/7931003290     0008                        00039130                                                                                                                                                                                                      
