12000I     O31A112510800025108201809242205100025108MST7901002163/7931005288       10002510300039130                                 L31790                              YNR01-SG                        20181010         N 00038274        SEA.FLKGLIGHTING                                                       O   
12000I     O31A212510800025108201809242205100025108MST7901002163/7931005288     FOB0                              USD                                                        00025103201810100002510300025103                                            00038274                                                     
12000I     O31A812510800025108201809242205100025108MST7901002163/7931005288     FOB                                                                                                                                                                                                                                   
12000I     O31E112510800025108201809242205100025108MST7901002163/7931005288 0010LDAHV12DH6T                                                 00088000  000000000000120000001020181010SEA.FLKGMST7901002163/7931005288                                                                                                  
12000I     O31E912510800025108201809242205 00025108MST7901002163/7931005288 0010                        00025103                                                                                                                                                                                                      
12000I     O31E112510800025108201809242205100025108MST7901002163/7931005288 0020LDAHV12LH6T                                                 00025000  000000000000120000001020181010SEA.FLKGMST7901002163/7931005288                                                                                                  
12000I     O31E912510800025108201809242205 00025108MST7901002163/7931005288 0020                        00025103                                                                                                                                                                                                      
12000I     O31E112510800025108201809242205100025108MST7901002163/7931005288 0030LDAHV15LH6T                                                 00025000  000000000000120000001020181010SEA.FLKGMST7901002163/7931005288                                                                                                  
12000I     O31E912510800025108201809242205 00025108MST7901002163/7931005288 0030                        00025103                                                                                                                                                                                                      
12000I     O31E112510800025108201809242205100025108MST7901002163/7931005288 0040LDAHV3DH6T                                                  00050000  000000000000120000001020181010SEA.FLKGMST7901002163/7931005288                                                                                                  
12000I     O31E912510800025108201809242205 00025108MST7901002163/7931005288 0040                        00025103                                                                                                                                                                                                      
12000I     O31E112510800025108201809242205100025108MST7901002163/7931005288 0050LDAHV5DH6T                                                  00120000  000000000000120000001020181010SEA.FLKGMST7901002163/7931005288                                                                                                  
12000I     O31E912510800025108201809242205 00025108MST7901002163/7931005288 0050                        00025103                                                                                                                                                                                                      
12000I     O31E112510800025108201809242205100025108MST7901002163/7931005288 0060LDAHV5LH6T                                                  00060000  000000000000120000001020181010SEA.FLKGMST7901002163/7931005288                                                                                                  
12000I     O31E912510800025108201809242205 00025108MST7901002163/7931005288 0060                        00025103                                                                                                                                                                                                      
12000I     O31E112510800025108201809242205100025108MST7901002163/7931005288 0070LDAHV7DH6T                                                  00300000  000000000000120000001020181010SEA.FLKGMST7901002163/7931005288                                                                                                  
12000I     O31E912510800025108201809242205 00025108MST7901002163/7931005288 0070                        00025103                                                                                                                                                                                                      
12000I     O31E112510800025108201809242205100025108MST7901002163/7931005288 0080LDAHV7LH6T                                                  00070000  000000000000120000001020181010SEA.FLKGMST7901002163/7931005288                                                                                                  
12000I     O31E912510800025108201809242205 00025108MST7901002163/7931005288 0080                        00025103                                                                                                                                                                                                      
12000I     O31E112510800025108201809242205100025108MST7901002163/7931005288 0090LDAHV9DH6T                                                  00165000  000000000000120000001020181010SEA.FLKGMST7901002163/7931005288                                                                                                  
12000I     O31E912510800025108201809242205 00025108MST7901002163/7931005288 0090                        00025103                                                                                                                                                                                                      
12000I     O31E112510800025108201809242205100025108MST7901002163/7931005288 0100LDAHV9LH6T                                                  00055000  000000000000120000001020181010SEA.FLKGMST7901002163/7931005288                                                                                                  
12000I     O31E912510800025108201809242205 00025108MST7901002163/7931005288 0100                        00025103                                                                                                                                                                                                      
12000I     O31A112510800025108201809242206100025108MST7901002164/7931005289       10002510300039130                                 L31790                              YNR01-SG                        20181010         N 00038274        SEA.FLKGLIGHTING                                                       O   
12000I     O31A212510800025108201809242206100025108MST7901002164/7931005289     FOB0                              USD                                                        00025103201810100002510300025103                                            00038274                                                     
12000I     O31A812510800025108201809242206100025108MST7901002164/7931005289     FOB                                                                                                                                                                                                                                   
12000I     O31E112510800025108201809242206100025108MST7901002164/7931005289 0010EFDHV11D65T                                                 00033600  000000000000120000001020181010SEA.FLKGMST7901002164/7931005289                                                                                                  
12000I     O31E912510800025108201809242206 00025108MST7901002164/7931005289 0010                        00025103                                                                                                                                                                                                      
12000I     O31E112510800025108201809242206100025108MST7901002164/7931005289 0020EFDHV15D65T1                                                00199680  000000000000120000001020181010SEA.FLKGMST7901002164/7931005289                                                                                                  
12000I     O31E912510800025108201809242206 00025108MST7901002164/7931005289 0020                        00025103                                                                                                                                                                                                      
12000I     O31E112510800025108201809242206100025108MST7901002164/7931005289 0030EFDHV15L27T1                                                00083520  000000000000120000001020181010SEA.FLKGMST7901002164/7931005289                                                                                                  
12000I     O31E912510800025108201809242206 00025108MST7901002164/7931005289 0030                        00025103                                                                                                                                                                                                      
12000I     O31E112510800025108201809242206100025108MST7901002164/7931005289 0040EFDHV20D65T1                                                00021120  000000000000120000001020181010SEA.FLKGMST7901002164/7931005289                                                                                                  
12000I     O31E912510800025108201809242206 00025108MST7901002164/7931005289 0040                        00025103                                                                                                                                                                                                      
12000I     O31E112510800025108201809242206100025108MST7901002164/7931005289 0050EFDHV23D65T1                                                00048000  000000000000120000001020181010SEA.FLKGMST7901002164/7931005289                                                                                                  
12000I     O31E912510800025108201809242206 00025108MST7901002164/7931005289 0050                        00025103                                                                                                                                                                                                      
12000I     O31E112510800025108201809242206100025108MST7901002164/7931005289 0060EFDHV25D65T                                                 02528640  000000000014820000001020181010SEA.FLKGMST7901002164/7931005289                                                                                                  
12000I     O31E912510800025108201809242206 00025108MST7901002164/7931005289 0060                        00025103                                                                                                                                                                                                      
12000I     O31E112510800025108201809242206100025108MST7901002164/7931005289 0070EFDHV25L27T                                                 00034560  000000000014820000001020181010SEA.FLKGMST7901002164/7931005289                                                                                                  
12000I     O31E912510800025108201809242206 00025108MST7901002164/7931005289 0070                        00025103                                                                                                                                                                                                      
12000I     O31E112510800025108201809242206100025108MST7901002164/7931005289 0080EFDHV32D65A                                                 00024000  000000000000120000001020181010SEA.FLKGMST7901002164/7931005289                                                                                                  
12000I     O31E912510800025108201809242206 00025108MST7901002164/7931005289 0080                        00025103                                                                                                                                                                                                      
12000I     O31E112510800025108201809242206100025108MST7901002164/7931005289 0090EFDHV42D65A                                                 00034800  000000000000120000001020181010SEA.FLKGMST7901002164/7931005289                                                                                                  
12000I     O31E912510800025108201809242206 00025108MST7901002164/7931005289 0090                        00025103                                                                                                                                                                                                      
12000I     O31E112510800025108201809242206100025108MST7901002164/7931005289 0100EFU11E652V                                                  00042000  000000000000120000001020181010SEA.FLKGMST7901002164/7931005289                                                                                                  
12000I     O31E912510800025108201809242206 00025108MST7901002164/7931005289 0100                        00025103                                                                                                                                                                                                      
12000I     O31E112510800025108201809242206100025108MST7901002164/7931005289 0110EFU14E272V1                                                 00100000  000000000000120000001020181010SEA.FLKGMST7901002164/7931005289                                                                                                  
12000I     O31E912510800025108201809242206 00025108MST7901002164/7931005289 0110                        00025103                                                                                                                                                                                                      
12000I     O31E112510800025108201809242206100025108MST7901002164/7931005289 0120EFU14E652V1                                                 00600000  000000000000120000001020181010SEA.FLKGMST7901002164/7931005289                                                                                                  
12000I     O31E912510800025108201809242206 00025108MST7901002164/7931005289 0120                        00025103                                                                                                                                                                                                      
12000I     O31E112510800025108201809242206100025108MST7901002164/7931005289 0130EFU8E652V1                                                  00132000  000000000000120000001020181010SEA.FLKGMST7901002164/7931005289                                                                                                  
12000I     O31E912510800025108201809242206 00025108MST7901002164/7931005289 0130                        00025103                                                                                                                                                                                                      
12000I     O31E112510800025108201809242206100025108MST7901002164/7931005289 0140EFUHV18D65A                                                 00200000  000000000000120000001020181010SEA.FLKGMST7901002164/7931005289                                                                                                  
12000I     O31E912510800025108201809242206 00025108MST7901002164/7931005289 0140                        00025103                                                                                                                                                                                                      
12000I     O31E112510800025108201809242206100025108MST7901002164/7931005289 0150EFUHV18L27A                                                 00015000  000000000000120000001020181010SEA.FLKGMST7901002164/7931005289                                                                                                  
12000I     O31E912510800025108201809242206 00025108MST7901002164/7931005289 0150                        00025103                                                                                                                                                                                                      
12000I     O31E112510800025108201809242206100025108MST7901002164/7931005289 0160EFUHV23D65A                                                 00080000  000000000000120000001020181010SEA.FLKGMST7901002164/7931005289                                                                                                  
12000I     O31E912510800025108201809242206 00025108MST7901002164/7931005289 0160                        00025103                                                                                                                                                                                                      
