00025103   O31A112511300025113201803261256100025113MNZ173072/P89372             A  0002510300029671                                 S31790ERASMUSJ                      NCKE, MS. CHUI HONG, MICHELLE MI20180410        1N10003827420180423SEA.FAKLLIGHTING                                                       O   
00025103   O31A212511300025113201803261256100025113MNZ173072/P89372             FOB0                              USD                                                                20180520                SCMM                                        00038274                                                     
00025103   O31E112511300025113201803261256100025113MNZ173072/P89372         0001LDAHV10DG4A1        LDAHV10DG4A1                            00002500  0000000000000000000010                                         ATP Auto Generate                                                                                
00025103   O31E112511300025113201803261256100025113MNZ173072/P89372         0002LDAHV10LG4A1        LDAHV10LG4A1                            00002500  0000000000000000000010                                         ATP Auto Generate                                                                                
00025103   O31E112511300025113201803261256100025113MNZ173072/P89372         0003LDAHV7DG4A1         LDAHV7DG4A1                             00002500  0000000000000000000010                                         ATP Auto Generate                                                                                
00025103   O31E112511300025113201803261256100025113MNZ173072/P89372         0004LDAHV7LG4A1         LDAHV7LG4A1                             00002500  0000000000000000000010                                         ATP Auto Generate                                                                                
00025103   O31E112511300025113201803261256100025113MNZ173072/P89372         0005LDAHV8LG4A1         LDAHV8LG4A1                             00002500  0000000000000000000010                                         ATP Auto Generate                                                                                
