12000I     O31A112511000025110201810291713100025110MMQ7901003427/7921005175       10002510300039140                                 L31790                              NNR01-SG                        20181210         N 0003827420181123SEA.FPKLLIGHTING                                                       O   
12000I     O31A212511000025110201810291713100025110MMQ7901003427/7921005175     FOB0                              USD                                                        00025103201812100002510300025103SCMM                                        00038274                                                     
12000I     O31A812511000025110201810291713100025110MMQ7901003427/7921005175     FOB                                                                                                                                                                                                                                   
12000I     O31E112511000025110201810291713100025110MMQ7901003427/7921005175 0010EFDHV15D65T1                                                00038400  000000000000120000001020181210SEA.FPKLMMQ7901003427/7921005175                                                                                                  
12000I     O31E912511000025110201810291713 00025110MMQ7901003427/7921005175 0010                        00025103                                                                                                                                                                                                      
12000I     O31E112511000025110201810291713100025110MMQ7901003427/7921005175 0020EFDHV20D65T1                                                00028800  000000000000120000001020181210SEA.FPKLMMQ7901003427/7921005175                                                                                                  
12000I     O31E912511000025110201810291713 00025110MMQ7901003427/7921005175 0020                        00025103                                                                                                                                                                                                      
12000I     O31E112511000025110201810291713100025110MMQ7901003427/7921005175 0030EFDHV23D65T1                                                00028800  000000000000120000001020181210SEA.FPKLMMQ7901003427/7921005175                                                                                                  
12000I     O31E912511000025110201810291713 00025110MMQ7901003427/7921005175 0030                        00025103                                                                                                                                                                                                      
12000I     O31E112511000025110201810291713100025110MMQ7901003427/7921005175 0040EFUHV18D65A3                                                00100000  000000000000120000001020181210SEA.FPKLMMQ7901003427/7921005175                                                                                                  
12000I     O31E912511000025110201810291713 00025110MMQ7901003427/7921005175 0040                        00025103                                                                                                                                                                                                      
12000I     O31A112510800025108201810291938100025108MST7901003548/7931005497       10002510300039130                                 L31790                              NNR01-SG                        20181210         N 0003827420181123SEA.FLKGLIGHTING                                                       O   
12000I     O31A212510800025108201810291938100025108MST7901003548/7931005497     FOB0                              USD                                                        00025103201812100002510300025103SCMM                                        00038274                                                     
12000I     O31A812510800025108201810291938100025108MST7901003548/7931005497     FOB                                                                                                                                                                                                                                   
12000I     O31E112510800025108201810291938100025108MST7901003548/7931005497 0010LDAHV12DH6T                                                 00160000  000000000011520000001020181210SEA.FLKGMST7901003548/7931005497                                                                                                  
12000I     O31E912510800025108201810291938 00025108MST7901003548/7931005497 0010                        00025103                                                                                                                                                                                                      
12000I     O31E112510800025108201810291938100025108MST7901003548/7931005497 0020LDAHV12LH6T                                                 00027500  000000000011520000001020181210SEA.FLKGMST7901003548/7931005497                                                                                                  
12000I     O31E912510800025108201810291938 00025108MST7901003548/7931005497 0020                        00025103                                                                                                                                                                                                      
12000I     O31E112510800025108201810291938100025108MST7901003548/7931005497 0030LDAHV15DH6T                                                 00130000  000000000014220000001020181210SEA.FLKGMST7901003548/7931005497                                                                                                  
12000I     O31E912510800025108201810291938 00025108MST7901003548/7931005497 0030                        00025103                                                                                                                                                                                                      
12000I     O31E112510800025108201810291938100025108MST7901003548/7931005497 0040LDAHV15LH6T                                                 00025000  000000000014220000001020181210SEA.FLKGMST7901003548/7931005497                                                                                                  
12000I     O31E912510800025108201810291938 00025108MST7901003548/7931005497 0040                        00025103                                                                                                                                                                                                      
12000I     O31E112510800025108201810291938100025108MST7901003548/7931005497 0050LDAHV20DH5T                                                 00050000  000000000002710000001020181210SEA.FLKGMST7901003548/7931005497                                                                                                  
12000I     O31E912510800025108201810291938 00025108MST7901003548/7931005497 0050                        00025103                                                                                                                                                                                                      
12000I     O31E112510800025108201810291938100025108MST7901003548/7931005497 0060LDAHV30DH5T                                                 00050000  000000000004210000001020181210SEA.FLKGMST7901003548/7931005497                                                                                                  
12000I     O31E912510800025108201810291938 00025108MST7901003548/7931005497 0060                        00025103                                                                                                                                                                                                      
12000I     O31E112510800025108201810291938100025108MST7901003548/7931005497 0070LDAHV3DH6T                                                  00065000  000000000005520000001020181210SEA.FLKGMST7901003548/7931005497                                                                                                  
12000I     O31E912510800025108201810291938 00025108MST7901003548/7931005497 0070                        00025103                                                                                                                                                                                                      
12000I     O31E112510800025108201810291938100025108MST7901003548/7931005497 0080LDAHV3LH6T                                                  00049500  000000000005520000001020181210SEA.FLKGMST7901003548/7931005497                                                                                                  
12000I     O31E912510800025108201810291938 00025108MST7901003548/7931005497 0080                        00025103                                                                                                                                                                                                      
12000I     O31E112510800025108201810291938100025108MST7901003548/7931005497 0090LDAHV5DH6T                                                  00135000  000000000000610000001020181210SEA.FLKGMST7901003548/7931005497                                                                                                  
12000I     O31E912510800025108201810291938 00025108MST7901003548/7931005497 0090                        00025103                                                                                                                                                                                                      
12000I     O31E112510800025108201810291938100025108MST7901003548/7931005497 0100LDAHV5LH6T                                                  00065000  000000000000610000001020181210SEA.FLKGMST7901003548/7931005497                                                                                                  
12000I     O31E912510800025108201810291938 00025108MST7901003548/7931005497 0100                        00025103                                                                                                                                                                                                      
12000I     O31E112510800025108201810291938100025108MST7901003548/7931005497 0110LDAHV7DH6T                                                  00250000  000000000006820000001020181210SEA.FLKGMST7901003548/7931005497                                                                                                  
12000I     O31E912510800025108201810291938 00025108MST7901003548/7931005497 0110                        00025103                                                                                                                                                                                                      
12000I     O31E112510800025108201810291938100025108MST7901003548/7931005497 0120LDAHV7LH6T                                                  00085000  000000000006820000001020181210SEA.FLKGMST7901003548/7931005497                                                                                                  
12000I     O31E912510800025108201810291938 00025108MST7901003548/7931005497 0120                        00025103                                                                                                                                                                                                      
12000I     O31E112510800025108201810291938100025108MST7901003548/7931005497 0130LDAHV9DH6T                                                  00250000  000000000008920000001020181210SEA.FLKGMST7901003548/7931005497                                                                                                  
12000I     O31E912510800025108201810291938 00025108MST7901003548/7931005497 0130                        00025103                                                                                                                                                                                                      
12000I     O31E112510800025108201810291938100025108MST7901003548/7931005497 0140LDAHV9LH6T                                                  00050000  000000000008920000001020181210SEA.FLKGMST7901003548/7931005497                                                                                                  
12000I     O31E912510800025108201810291938 00025108MST7901003548/7931005497 0140                        00025103                                                                                                                                                                                                      
12000I     O31E112510800025108201810291938100025108MST7901003548/7931005497 0150LDS300D2N                                                   00007000  000000000177720000001020181210SEA.FLKGMST7901003548/7931005497                                                                                                  
12000I     O31E912510800025108201810291938 00025108MST7901003548/7931005497 0150                        00025103                                                                                                                                                                                                      
12000I     O31A112510800025108201810291939100025108MST7901003549/7931005498       10002510300039130                                 L31790                              NNR01-SG                        20181210         N 0003827420181123SEA.FLKGLIGHTING                                                       O   
12000I     O31A212510800025108201810291939100025108MST7901003549/7931005498     FOB0                              USD                                                        00025103201812100002510300025103SCMM                                        00038274                                                     
12000I     O31A812510800025108201810291939100025108MST7901003549/7931005498     FOB                                                                                                                                                                                                                                   
12000I     O31E112510800025108201810291939100025108MST7901003549/7931005498 0010EFDHV11D65T                                                 00033600  000000000000120000001020181210SEA.FLKGMST7901003549/7931005498                                                                                                  
12000I     O31E912510800025108201810291939 00025108MST7901003549/7931005498 0010                        00025103                                                                                                                                                                                                      
12000I     O31E112510800025108201810291939100025108MST7901003549/7931005498 0020EFDHV15D65T1                                                00288000  000000000000120000001020181210SEA.FLKGMST7901003549/7931005498                                                                                                  
12000I     O31E912510800025108201810291939 00025108MST7901003549/7931005498 0020                        00025103                                                                                                                                                                                                      
12000I     O31E112510800025108201810291939100025108MST7901003549/7931005498 0030EFDHV15L27T1                                                00140160  000000000000120000001020181210SEA.FLKGMST7901003549/7931005498                                                                                                  
12000I     O31E912510800025108201810291939 00025108MST7901003549/7931005498 0030                        00025103                                                                                                                                                                                                      
12000I     O31E112510800025108201810291939100025108MST7901003549/7931005498 0040EFDHV20D65T1                                                00019200  000000000000120000001020181210SEA.FLKGMST7901003549/7931005498                                                                                                  
12000I     O31E912510800025108201810291939 00025108MST7901003549/7931005498 0040                        00025103                                                                                                                                                                                                      
12000I     O31E112510800025108201810291939100025108MST7901003549/7931005498 0050EFDHV23D65T1                                                00019200  000000000000120000001020181210SEA.FLKGMST7901003549/7931005498                                                                                                  
12000I     O31E912510800025108201810291939 00025108MST7901003549/7931005498 0050                        00025103                                                                                                                                                                                                      
12000I     O31E112510800025108201810291939100025108MST7901003549/7931005498 0060EFDHV25D65T                                                 02160000  000000000014820000001020181210SEA.FLKGMST7901003549/7931005498                                                                                                  
12000I     O31E912510800025108201810291939 00025108MST7901003549/7931005498 0060                        00025103                                                                                                                                                                                                      
12000I     O31E112510800025108201810291939100025108MST7901003549/7931005498 0070EFDHV25L27T                                                 00034560  000000000014820000001020181210SEA.FLKGMST7901003549/7931005498                                                                                                  
12000I     O31E912510800025108201810291939 00025108MST7901003549/7931005498 0070                        00025103                                                                                                                                                                                                      
12000I     O31E112510800025108201810291939100025108MST7901003549/7931005498 0080EFDHV32D65A                                                 00018000  000000000000120000001020181210SEA.FLKGMST7901003549/7931005498                                                                                                  
12000I     O31E912510800025108201810291939 00025108MST7901003549/7931005498 0080                        00025103                                                                                                                                                                                                      
12000I     O31E112510800025108201810291939100025108MST7901003549/7931005498 0090EFDHV42D65A                                                 00027840  000000000000120000001020181210SEA.FLKGMST7901003549/7931005498                                                                                                  
12000I     O31E912510800025108201810291939 00025108MST7901003549/7931005498 0090                        00025103                                                                                                                                                                                                      
12000I     O31E112510800025108201810291939100025108MST7901003549/7931005498 0100EFU11E652V                                                  00042000  000000000000120000001020181210SEA.FLKGMST7901003549/7931005498                                                                                                  
12000I     O31E912510800025108201810291939 00025108MST7901003549/7931005498 0100                        00025103                                                                                                                                                                                                      
12000I     O31E112510800025108201810291939100025108MST7901003549/7931005498 0110EFU14E272V1                                                 00132000  000000000000120000001020181210SEA.FLKGMST7901003549/7931005498                                                                                                  
12000I     O31E912510800025108201810291939 00025108MST7901003549/7931005498 0110                        00025103                                                                                                                                                                                                      
12000I     O31E112510800025108201810291939100025108MST7901003549/7931005498 0120EFU8E652V1                                                  00120000  000000000000120000001020181210SEA.FLKGMST7901003549/7931005498                                                                                                  
12000I     O31E912510800025108201810291939 00025108MST7901003549/7931005498 0120                        00025103                                                                                                                                                                                                      
12000I     O31E112510800025108201810291939100025108MST7901003549/7931005498 0130EFUHV23D65A                                                 00050000  000000000000120000001020181210SEA.FLKGMST7901003549/7931005498                                                                                                  
12000I     O31E912510800025108201810291939 00025108MST7901003549/7931005498 0130                        00025103                                                                                                                                                                                                      
12000I     O31E112510800025108201810291939100025108MST7901003549/7931005498 0140LDR400N                                                     00020000  000000000289520000001020181210SEA.FLKGMST7901003549/7931005498                                                                                                  
12000I     O31E912510800025108201810291939 00025108MST7901003549/7931005498 0140                        00025103                                                                                                                                                                                                      
