12000I     O31A112510800025108201901281708100025108MST7901005829/7931005972       10002510300039130                                 L31790                              NNR01-SG                        20190310         N 0003827420190223SEA.FLKGLIGHTING                                                       O   
12000I     O31A212510800025108201901281708100025108MST7901005829/7931005972     FOB0                              USD                                                        00025103201903100002510300025103SCMM                                        00038274                                                     
12000I     O31A812510800025108201901281708100025108MST7901005829/7931005972     FOB                                                                                                                                                                                                                                   
12000I     O31E112510800025108201901281708100025108MST7901005829/7931005972 0010LDAHV12DH6T                                                 00180000  000000000011520000001020190310SEA.FLKGMST7901005829/7931005972                                                                                                  
12000I     O31E912510800025108201901281708 00025108MST7901005829/7931005972 0010                        00025103                                                                                                                                                                                                      
12000I     O31E112510800025108201901281708100025108MST7901005829/7931005972 0020LDAHV12LH6T                                                 00050000  000000000011520000001020190310SEA.FLKGMST7901005829/7931005972                                                                                                  
12000I     O31E912510800025108201901281708 00025108MST7901005829/7931005972 0020                        00025103                                                                                                                                                                                                      
12000I     O31E112510800025108201901281708100025108MST7901005829/7931005972 0030LDAHV15DH6T                                                 00085000  000000000014220000001020190310SEA.FLKGMST7901005829/7931005972                                                                                                  
12000I     O31E912510800025108201901281708 00025108MST7901005829/7931005972 0030                        00025103                                                                                                                                                                                                      
12000I     O31E112510800025108201901281708100025108MST7901005829/7931005972 0040LDAHV15LH6T                                                 00025000  000000000014220000001020190310SEA.FLKGMST7901005829/7931005972                                                                                                  
12000I     O31E912510800025108201901281708 00025108MST7901005829/7931005972 0040                        00025103                                                                                                                                                                                                      
12000I     O31E112510800025108201901281708100025108MST7901005829/7931005972 0050LDAHV3DH6T                                                  00060000  000000000005520000001020190310SEA.FLKGMST7901005829/7931005972                                                                                                  
12000I     O31E912510800025108201901281708 00025108MST7901005829/7931005972 0050                        00025103                                                                                                                                                                                                      
12000I     O31E112510800025108201901281708100025108MST7901005829/7931005972 0060LDAHV3LH6T                                                  00050000  000000000005520000001020190310SEA.FLKGMST7901005829/7931005972                                                                                                  
12000I     O31E912510800025108201901281708 00025108MST7901005829/7931005972 0060                        00025103                                                                                                                                                                                                      
12000I     O31E112510800025108201901281708100025108MST7901005829/7931005972 0070LDAHV5DH6T                                                  00180000  000000000000610000001020190310SEA.FLKGMST7901005829/7931005972                                                                                                  
12000I     O31E912510800025108201901281708 00025108MST7901005829/7931005972 0070                        00025103                                                                                                                                                                                                      
12000I     O31E112510800025108201901281708100025108MST7901005829/7931005972 0080LDAHV5LH6T                                                  00120000  000000000000610000001020190310SEA.FLKGMST7901005829/7931005972                                                                                                  
12000I     O31E912510800025108201901281708 00025108MST7901005829/7931005972 0080                        00025103                                                                                                                                                                                                      
12000I     O31E112510800025108201901281708100025108MST7901005829/7931005972 0090LDAHV7DH6T                                                  00200000  000000000006820000001020190310SEA.FLKGMST7901005829/7931005972                                                                                                  
12000I     O31E912510800025108201901281708 00025108MST7901005829/7931005972 0090                        00025103                                                                                                                                                                                                      
12000I     O31E112510800025108201901281708100025108MST7901005829/7931005972 0100LDAHV7LH6T                                                  00090000  000000000006820000001020190310SEA.FLKGMST7901005829/7931005972                                                                                                  
12000I     O31E912510800025108201901281708 00025108MST7901005829/7931005972 0100                        00025103                                                                                                                                                                                                      
12000I     O31E112510800025108201901281708100025108MST7901005829/7931005972 0110LDAHV9DH6T                                                  00300000  000000000008920000001020190310SEA.FLKGMST7901005829/7931005972                                                                                                  
12000I     O31E912510800025108201901281708 00025108MST7901005829/7931005972 0110                        00025103                                                                                                                                                                                                      
12000I     O31E112510800025108201901281708100025108MST7901005829/7931005972 0120LDAHV9LH6T                                                  00080000  000000000008920000001020190310SEA.FLKGMST7901005829/7931005972                                                                                                  
12000I     O31E912510800025108201901281708 00025108MST7901005829/7931005972 0120                        00025103                                                                                                                                                                                                      
12000I     O31E112510800025108201901281708100025108MST7901005829/7931005972 0130LDS300D2N                                                   00014000  000000000177720000001020190310SEA.FLKGMST7901005829/7931005972                                                                                                  
12000I     O31E912510800025108201901281708 00025108MST7901005829/7931005972 0130                        00025103                                                                                                                                                                                                      
12000I     O31A112510800025108201901281708100025108MST7901005831/7931005973       10002510300039130                                 L31790                              NNR01-SG                        20190310         N 0003827420190223SEA.FLKGLIGHTING                                                       O   
12000I     O31A212510800025108201901281708100025108MST7901005831/7931005973     FOB0                              USD                                                        00025103201903100002510300025103SCMM                                        00038274                                                     
12000I     O31A812510800025108201901281708100025108MST7901005831/7931005973     FOB                                                                                                                                                                                                                                   
12000I     O31E112510800025108201901281708100025108MST7901005831/7931005973 0010EFDHV15L27T1                                                00053760  000000000000120000001020190310SEA.FLKGMST7901005831/7931005973                                                                                                  
12000I     O31E912510800025108201901281708 00025108MST7901005831/7931005973 0010                        00025103                                                                                                                                                                                                      
12000I     O31E112510800025108201901281708100025108MST7901005831/7931005973 0020EFDHV20D65T1                                                00009600  000000000000120000001020190310SEA.FLKGMST7901005831/7931005973                                                                                                  
12000I     O31E912510800025108201901281708 00025108MST7901005831/7931005973 0020                        00025103                                                                                                                                                                                                      
12000I     O31E112510800025108201901281708100025108MST7901005831/7931005973 0030EFU11E652V                                                  00040000  000000000000120000001020190310SEA.FLKGMST7901005831/7931005973                                                                                                  
12000I     O31E912510800025108201901281708 00025108MST7901005831/7931005973 0030                        00025103                                                                                                                                                                                                      
12000I     O31E112510800025108201901281708100025108MST7901005831/7931005973 0040EFU14E272V1                                                 00050000  000000000000120000001020190310SEA.FLKGMST7901005831/7931005973                                                                                                  
12000I     O31E912510800025108201901281708 00025108MST7901005831/7931005973 0040                        00025103                                                                                                                                                                                                      
12000I     O31E112510800025108201901281708100025108MST7901005831/7931005973 0050EFU8E652V1                                                  00080000  000000000000120000001020190310SEA.FLKGMST7901005831/7931005973                                                                                                  
12000I     O31E912510800025108201901281708 00025108MST7901005831/7931005973 0050                        00025103                                                                                                                                                                                                      
12000I     O31E112510800025108201901281708100025108MST7901005831/7931005973 0060EFUHV18D65A                                                 00080000  000000000000120000001020190310SEA.FLKGMST7901005831/7931005973                                                                                                  
12000I     O31E912510800025108201901281708 00025108MST7901005831/7931005973 0060                        00025103                                                                                                                                                                                                      
12000I     O31E112510800025108201901281708100025108MST7901005831/7931005973 0070EFUHV23D65A                                                 00035000  000000000000120000001020190310SEA.FLKGMST7901005831/7931005973                                                                                                  
12000I     O31E912510800025108201901281708 00025108MST7901005831/7931005973 0070                        00025103                                                                                                                                                                                                      
12000I     O31E112510800025108201901281708100025108MST7901005831/7931005973 0080LDR400N                                                     00021000  000000000289520000001020190310SEA.FLKGMST7901005831/7931005973                                                                                                  
12000I     O31E912510800025108201901281708 00025108MST7901005831/7931005973 0080                        00025103                                                                                                                                                                                                      
