00025103   O31A112520700025207201604191132100025207MGM152008/660-404444         A  000251032062061620620616                         L31790                              YCKE, MS. CHUI HONG, MICHELLE MI20160424        1N10003827420160514SEA.F   LIGHTING                                                       O   
00025103   O31A212520700025207201604191132100025207MGM152008/660-404444         FOB0                              USD                                                                20160610                                                            00038274                                                     
00025103   O31E112520700025207201604191132100025207MGM152008/660-404444     0001EFDHV25D65A         EFDHV25D65A                             00011520  0000000000156200000010                660-404444                                                                                                                
00025103   O31E112520700025207201604191132100025207MGM152008/660-404444     0002EFDHV15D65A         EFDHV15D65A                             00024000  0000000000126200000010                660-404444                                                                                                                
00025103   O31E112520700025207201604191132100025207MGM152008/660-404444     0003EFDHV20D65A         EFDHV20D65A                             00005760  0000000000156200000010                660-404444                                                                                                                
00025103   O31E112520700025207201604191132100025207MGM152008/660-404444     0004EFDHV5L27A          EFDHV5L27A                              00005760  0000000000108200000010                660-404444                                                                                                                
00025103   O31E112520700025207201604191132100025207MGM152008/660-404444     0005EFDHV8D65A          EFDHV8D65A                              00005760  0000000000108200000010                660-404444                                                                                                                
00025103   O31E112520700025207201604191132100025207MGM152008/660-404444     0006EFDHV8L27A          EFDHV8L27A                              00005760  0000000000108200000010                660-404444                                                                                                                
