00025103   O31A112510800025108201611160136100025108MST158190/7931001054         A  0002510300039130                                 S31790                              YCKE, MS. CHUI HONG, MICHELLE MI20161121        1N100038274        SEA.FLKGLIGHTING                                                       O   
00025103   O31A212510800025108201611160136100025108MST158190/7931001054         FOB0                              USD                                                        00039130201612020003913000039130                                            00038274                                                     
00025103   O31E112510800025108201611160136100025108MST158190/7931001054     0001EFDHV25D65T                                                 01000000  0000000000152200000010        SEA.FLKG7931001054                                                                                                                
00025103   O31E912510800025108201611160136 00025108MST158190/7931001054     0001                        00039130                                                                                                                                                                                                      
00025103   O31A112510800025108201611160136100025108MST158193/7931001055         A  0002510300039130                                 L31790                              YCKE, MS. CHUI HONG, MICHELLE MI20161121        1N100038274        SEA.FLKGLIGHTING                                                       O   
00025103   O31A212510800025108201611160136100025108MST158193/7931001055         FOB0                              USD                                                        00039130201612030003913000039130                                            00038274                                                     
00025103   O31E112510800025108201611160136100025108MST158193/7931001055     0001LDAHV3DH6A                                                  00397000  0000000007164400000010        SEA.FLKG7931001055                                                                                                                
00025103   O31E912510800025108201611160136 00025108MST158193/7931001055     0001                        00039130                                                                                                                                                                                                      
00025103   O31E112510800025108201611160136100025108MST158193/7931001055     0002LDAHV3LH6A                                                  00135000  0000000007164400000010        SEA.FLKG7931001055                                                                                                                
00025103   O31E912510800025108201611160136 00025108MST158193/7931001055     0002                        00039130                                                                                                                                                                                                      
00025103   O31E112510800025108201611160136100025108MST158193/7931001055     0003LDAHV5DH6A                                                  00550000  0000000008539400000010        SEA.FLKG7931001055                                                                                                                
00025103   O31E912510800025108201611160136 00025108MST158193/7931001055     0003                        00039130                                                                                                                                                                                                      
00025103   O31E112510800025108201611160136100025108MST158193/7931001055     0004LDAHV5LH6A                                                  00129000  0000000008539400000010        SEA.FLKG7931001055                                                                                                                
00025103   O31E912510800025108201611160136 00025108MST158193/7931001055     0004                        00039130                                                                                                                                                                                                      
00025103   O31E112510800025108201611160136100025108MST158193/7931001055     0005LDAHV9DH6A                                                  00140000  0000000001475300000010        SEA.FLKG7931001055                                                                                                                
00025103   O31E912510800025108201611160136 00025108MST158193/7931001055     0005                        00039130                                                                                                                                                                                                      
