00025103   O31A112510800025108201706211147100025108MST164647/7931002519         A  0002510300039130                                 L31790                              YCKE, MS. CHUI HONG, MICHELLE MI20170626        1N100038274        SEA.FLKGUA                                                             O   
00025103   O31A212510800025108201706211147100025108MST164647/7931002519         FOB0                              USD                                                        00039130201707060003913000039130                                            00038274                                                     
00025103   O31E112510800025108201706211147100025108MST164647/7931002519     0001LDAHV12DH5T                                                 00200000  000000001327140000001020170629SEA.FLKG7931002519                                                                                                                
00025103   O31E912510800025108201706211147 00025108MST164647/7931002519     0001                        00039130                                                                                                                                                                                                      
00025103   O31E112510800025108201706211147100025108MST164647/7931002519     0002LDAHV12LH5T                                                 00055000  000000001327140000001020170629SEA.FLKG7931002519                                                                                                                
00025103   O31E912510800025108201706211147 00025108MST164647/7931002519     0002                        00039130                                                                                                                                                                                                      
00025103   O31E112510800025108201706211147100025108MST164647/7931002519     0003LDAHV15DH5T                                                 00120000  000000001775940000001020170629SEA.FLKG7931002519                                                                                                                
00025103   O31E912510800025108201706211147 00025108MST164647/7931002519     0003                        00039130                                                                                                                                                                                                      
00025103   O31E112510800025108201706211147100025108MST164647/7931002519     0004LDAHV15LH5T                                                 00030000  000000001775940000001020170629SEA.FLKG7931002519                                                                                                                
00025103   O31E912510800025108201706211147 00025108MST164647/7931002519     0004                        00039130                                                                                                                                                                                                      
