00025103   O31A112510800025108201706061039100025108MST164403/7931002443         A  0002510300039130                                 L31790                              YCKE, MS. CHUI HONG, MICHELLE MI20170611        1N10003827420170617SEA.FLKGLIGHTING                                                       O   
00025103   O31A212510800025108201706061039100025108MST164403/7931002443         FOB0                              USD                                                        00039130201707050003913000039130                                            00038274                                                     
00025103   O31E112510800025108201706061039100025108MST164403/7931002443     0001LDAHV3LH6A                                                  00070000  000000000630340000001020170628SEA.FLKG7931002443                                                                                                                
00025103   O31E912510800025108201706061039 00025108MST164403/7931002443     0001                        00039130                                                                                                                                                                                                      
00025103   O31E112510800025108201706061039100025108MST164403/7931002443     0002LDAHV5LH6A                                                  00045000  000000000630340000001020170628SEA.FLKG7931002443                                                                                                                
00025103   O31E912510800025108201706061039 00025108MST164403/7931002443     0002                        00039130                                                                                                                                                                                                      
00025103   O31A112510800025108201706061039100025108MST164404/7931002442         A  0002510300039130                                 L31790                              YCKE, MS. CHUI HONG, MICHELLE MI20170611        1N100038274        SEA.FLKGLIGHTING                                                       O   
00025103   O31A212510800025108201706061039100025108MST164404/7931002442         FOB0                              USD                                                        00039130201706210003913000039130                                            00038274                                                     
00025103   O31E112510800025108201706061039100025108MST164404/7931002442     0001LDAHV3LH6A                                                  00060000  000000000630340000001020170614SEA.FLKG7931002442                                                                                                                
00025103   O31E912510800025108201706061039 00025108MST164404/7931002442     0001                        00039130                                                                                                                                                                                                      
00025103   O31E112510800025108201706061039100025108MST164404/7931002442     0002LDAHV5LH6A                                                  00045000  000000000630340000001020170614SEA.FLKG7931002442                                                                                                                
00025103   O31E912510800025108201706061039 00025108MST164404/7931002442     0002                        00039130                                                                                                                                                                                                      
00025103   O31A112510700025107201706071244100025107MPH164406/7961001942         A  0002510300029474                                 L31790                              YCKE, MS. CHUI HONG, MICHELLE MI20170612        1N10003827420170703SEA.FMNLLIGHTING                                                       O   
00025103   O31A212510700025107201706071244100025107MPH164406/7961001942         FOB0                              USD                                                        00029474201708040002947400029474                                            00038274                                                     
00025103   O31E112510700025107201706071244100025107MPH164406/7961001942     0001EFUHV14D65A                                                 00100000  0000000010363400000010        SEA.FMNL7961001942                                                                                                                
00025103   O31E912510700025107201706071244 00025107MPH164406/7961001942     0001                        00029474                                                                                                                                                                                                      
00025103   O31E112510700025107201706071244100025107MPH164406/7961001942     0002EFUHV11D65A                                                 00110000  0000000009574400000010        SEA.FMNL7961001942                                                                                                                
00025103   O31E912510700025107201706071244 00025107MPH164406/7961001942     0002                        00029474                                                                                                                                                                                                      
00025103   O31E112510700025107201706071244100025107MPH164406/7961001942     0003EFUHV18D65A3                                                00100000  0000000014213400000010        SEA.FMNL7961001942                                                                                                                
00025103   O31E912510700025107201706071244 00025107MPH164406/7961001942     0003                        00029474                                                                                                                                                                                                      
00025103   O31E112510700025107201706071244100025107MPH164406/7961001942     0004EFUHV8D65A                                                  00110000  0000000009574400000010        SEA.FMNL7961001942                                                                                                                
00025103   O31E912510700025107201706071244 00025107MPH164406/7961001942     0004                        00029474                                                                                                                                                                                                      
