00025103   O31A112511000025110201604250335100025110MMQ152159/ES1604011          A  0002510300039140                                 S31790                               CKE, MS. CHUI HONG, MICHELLE MI20160430        1N10003827420160522SEA.FPKLLIGHTING                                                       O   
00025103   O31A212511000025110201604250335100025110MMQ152159/ES1604011          FOB0                              USD                                                                20160610                SCMM                                        00038274                                                     
00025103   O31E112511000025110201604250335100025110MMQ152159/ES1604011      0001EFDHV15D65A                                                 00027840  0000000012239400000010                                                                                                                                          
00025103   O31E112511000025110201604250335100025110MMQ152159/ES1604011      0002EFDHV15L27A                                                 00002880  0000000012239400000010                                                                                                                                          
00025103   O31E112511000025110201604250335100025110MMQ152159/ES1604011      0003EFDHV20D65A                                                 00031680  0000000000152200000010                                                                                                                                          
00025103   O31E112511000025110201604250335100025110MMQ152159/ES1604011      0004EFDHV25L27A                                                 00030720  0000000000152200000010                                                                                                                                          
00025103   O31E112511000025110201604250335100025110MMQ152159/ES1604011      0005EFDHV8D65A                                                  00010560  0000000010363400000010                                                                                                                                          
00025103   O31E112511000025110201604250335100025110MMQ152159/ES1604011      0006EFU11E652V                                                  00009000  0000000011941400000010                                                                                                                                          
00025103   O31E112511000025110201604250335100025110MMQ152159/ES1604011      0007EFU5E282V                                                   00002000  0000000001026300000010                                                                                                                                          
00025103   O31E112511000025110201604250335100025110MMQ152159/ES1604011      0008EFU5E672V                                                   00005000  0000000001026300000010                                                                                                                                          
00025103   O31E112511000025110201604250335100025110MMQ152159/ES1604011      0009EFU8E652V                                                   00005000  0000000011695400000010                                                                                                                                          
