00025103   O31A112510800025108201709250349100025108MST167751/7931003119         A  0002510300039130                                 L31790                              NCKE, MS. CHUI HONG, MICHELLE MI20171010        1N10003827420171025SEA.FLKGLIGHTING                                                       O   
00025103   O31A212510800025108201709250349100025108MST167751/7931003119         FOB0                              USD                                                        00039130201711100003913000039130SCMM                                        00038274                                                     
00025103   O31E112510800025108201709250349100025108MST167751/7931003119     0001LDAHV5LH6A                                                  00065000  000000000630340000001020171103SEA.FLKG7931003119                                                                                                                
00025103   O31E912510800025108201709250349 00025108MST167751/7931003119     0001                        00039130                                                                                                                                                                                                      
00025103   O31E112510800025108201709250349100025108MST167751/7931003119     0002LDAHV7LH6A                                                  00130000  000000000779240000001020171103SEA.FLKG7931003119                                                                                                                
00025103   O31E912510800025108201709250349 00025108MST167751/7931003119     0002                        00039130                                                                                                                                                                                                      
00025103   O31E112510800025108201709250349100025108MST167751/7931003119     0003LDAHV9DH6A                                                  00160000  000000001121440000001020171103SEA.FLKG7931003119                                                                                                                
00025103   O31E912510800025108201709250349 00025108MST167751/7931003119     0003                        00039130                                                                                                                                                                                                      
00025103   O31E112510800025108201709250349100025108MST167751/7931003119     0004LDAHV9LH6A                                                  00070000  000000001121440000001020171103SEA.FLKG7931003119                                                                                                                
00025103   O31E912510800025108201709250349 00025108MST167751/7931003119     0004                        00039130                                                                                                                                                                                                      
