12000I     O31A112511000025110201907121520100025110MMQ7901010808/7921007652       10002510300039140                                 L31790                              YNR01-SG                        20190901         N 0003827420190809SEA.FPKLLIGHTING                                                       O   
12000I     O31A212511000025110201907121520100025110MMQ7901010808/7921007652     FOB0                              USD                                                        00025103201909010002510300025103                                            00038274                                                     
12000I     O31A812511000025110201907121520100025110MMQ7901010808/7921007652     FOB                                                                                                                                                                                                                                   
12000I     O31E112511000025110201907121520100025110MMQ7901010808/7921007652 0010EFDHV25L27T1                                                00010560  000000000001410000001020190901SEA.FPKLMMQ7901010808/7921007652                                                                                                  
12000I     O31E912511000025110201907121520 00025110MMQ7901010808/7921007652 0010                        00025103                                                                                                                                                                                                      
12000I     O31E112511000025110201907121520100025110MMQ7901010808/7921007652 0020EFUHV18L27A3                                                00031000  000000000010120000001020190901SEA.FPKLMMQ7901010808/7921007652                                                                                                  
12000I     O31E912511000025110201907121520 00025110MMQ7901010808/7921007652 0020                        00025103                                                                                                                                                                                                      
