12000I     O31A112510700025107201903271840100025107MPH7901007917/7961007097       10002510300029474                                 L31790                              YNR01-SG                        20190412         N 00038274        SEA.FMNLLIGHTING                                                       O   
12000I     O31A212510700025107201903271840100025107MPH7901007917/7961007097     FOB0                              USD                                                        00025103201904120002510300025103                                            00038274                                                     
12000I     O31A812510700025107201903271840100025107MPH7901007917/7961007097     FOB                                                                                                                                                                                                                                   
12000I     O31E112510700025107201903271840100025107MPH7901007917/7961007097 0010EFDHV25D65A                                                 00024960  000000000000120000001020190412SEA.FMNLMPH7901007917/7961007097                                                                                                  
12000I     O31E912510700025107201903271840 00025107MPH7901007917/7961007097 0010                        00025103                                                                                                                                                                                                      
