12000I     O31A112510800025108201809271435100025108MST7901002191/7931005307       10002510300039130                                 L31790                              YNR01-SG                        20181012         N 00038274        SEA.FLKGLIGHTING                                                       O   
12000I     O31A212510800025108201809271435100025108MST7901002191/7931005307     FOB0                              USD                                                        00025103201810120002510300025103                                            00038274                                                     
12000I     O31A812510800025108201809271435100025108MST7901002191/7931005307     FOB                                                                                                                                                                                                                                   
12000I     O31E112510800025108201809271435100025108MST7901002191/7931005307 0010LDR400N                                                     00012000  000000000289520000001020181012SEA.FLKGMST7901002191/7931005307                                                                                                  
12000I     O31E912510800025108201809271435 00025108MST7901002191/7931005307 0010                        00025103                                                                                                                                                                                                      
12000I     O31A112510800025108201809271435100025108MST7901002192/7931005308       10002510300039130                                 L31790                              YNR01-SG                        20181012         N 00038274        SEA.FLKGLIGHTING                                                       O   
12000I     O31A212510800025108201809271435100025108MST7901002192/7931005308     FOB0                              USD                                                        00025103201810120002510300025103                                            00038274                                                     
12000I     O31A812510800025108201809271435100025108MST7901002192/7931005308     FOB                                                                                                                                                                                                                                   
12000I     O31E112510800025108201809271435100025108MST7901002192/7931005308 0010LDS300D2N                                                   00002500  000000000177720000001020181012SEA.FLKGMST7901002192/7931005308                                                                                                  
12000I     O31E912510800025108201809271435 00025108MST7901002192/7931005308 0010                        00025103                                                                                                                                                                                                      
