12000I     O31A112510700025107201904252040100025107MPH7901008274/7961007295       10002510300029474                                 L31790                              YNR01-SG                        20190603         N 0003827420190502SEA.FMNLLIGHTING                                                       O   
12000I     O31A212510700025107201904252040100025107MPH7901008274/7961007295     FOB0                              USD                                                        00025103201906030002510300025103                                            00038274                                                     
12000I     O31A812510700025107201904252040100025107MPH7901008274/7961007295     FOB                                                                                                                                                                                                                                   
12000I     O31E112510700025107201904252040100025107MPH7901008274/7961007295 0010EFUHV14D65A                                                 00020000  000000000000120000001020190603SEA.FMNLMPH7901008274/7961007295                                                                                                  
12000I     O31E912510700025107201904252040 00025107MPH7901008274/7961007295 0010                        00025103                                                                                                                                                                                                      
12000I     O31A112510700025107201904252040100025107MPH7901008275/7961007297       10002510300029474                                 L31790                              YNR01-SG                        20190603         N 0003827420190502SEA.FMNLLIGHTING                                                       O   
12000I     O31A212510700025107201904252040100025107MPH7901008275/7961007297     FOB0                              USD                                                        00025103201906030002510300025103                                            00038274                                                     
12000I     O31A812510700025107201904252040100025107MPH7901008275/7961007297     FOB                                                                                                                                                                                                                                   
12000I     O31E112510700025107201904252040100025107MPH7901008275/7961007297 0010LDAHV5DH6T                                                  00060000  000000000000120000001020190603SEA.FMNLMPH7901008275/7961007297                                                                                                  
12000I     O31E912510700025107201904252040 00025107MPH7901008275/7961007297 0010                        00025103                                                                                                                                                                                                      
12000I     O31A112510700025107201904252041100025107MPH7901008276/7961007296       10002510300029474                                 L31790                              YNR01-SG                        20190603         N 0003827420190502SEA.FMNLLIGHTING                                                       O   
12000I     O31A212510700025107201904252041100025107MPH7901008276/7961007296     FOB0                              USD                                                        00025103201906030002510300025103                                            00038274                                                     
12000I     O31A812510700025107201904252041100025107MPH7901008276/7961007296     FOB                                                                                                                                                                                                                                   
12000I     O31E112510700025107201904252041100025107MPH7901008276/7961007296 0010EFDHV20D65A                                                 00010000  000000000000120000001020190603SEA.FMNLMPH7901008276/7961007296                                                                                                  
12000I     O31E912510700025107201904252041 00025107MPH7901008276/7961007296 0010                        00025103                                                                                                                                                                                                      
12000I     O31E112510700025107201904252041100025107MPH7901008276/7961007296 0020EFU11E652V                                                  00050000  000000000000120000001020190603SEA.FMNLMPH7901008276/7961007296                                                                                                  
12000I     O31E912510700025107201904252041 00025107MPH7901008276/7961007296 0020                        00025103                                                                                                                                                                                                      
12000I     O31E112510700025107201904252041100025107MPH7901008276/7961007296 0030EFUHV11D65A                                                 00020000  000000000000120000001020190603SEA.FMNLMPH7901008276/7961007296                                                                                                  
12000I     O31E912510700025107201904252041 00025107MPH7901008276/7961007296 0030                        00025103                                                                                                                                                                                                      
12000I     O31E112510700025107201904252041100025107MPH7901008276/7961007296 0040EFUHV8D65A                                                  00020000  000000000000120000001020190603SEA.FMNLMPH7901008276/7961007296                                                                                                  
12000I     O31E912510700025107201904252041 00025107MPH7901008276/7961007296 0040                        00025103                                                                                                                                                                                                      
12000I     O31E112510700025107201904252041100025107MPH7901008276/7961007296 0050LDAHV12DH6T                                                 00030000  000000000000120000001020190603SEA.FMNLMPH7901008276/7961007296                                                                                                  
12000I     O31E912510700025107201904252041 00025107MPH7901008276/7961007296 0050                        00025103                                                                                                                                                                                                      
12000I     O31E112510700025107201904252041100025107MPH7901008276/7961007296 0060LDAHV7DH6T                                                  00060000  000000000000120000001020190603SEA.FMNLMPH7901008276/7961007296                                                                                                  
12000I     O31E912510700025107201904252041 00025107MPH7901008276/7961007296 0060                        00025103                                                                                                                                                                                                      
12000I     O31E112510700025107201904252041100025107MPH7901008276/7961007296 0070LDAHV9DH6T                                                  00040000  000000000000120000001020190603SEA.FMNLMPH7901008276/7961007296                                                                                                  
12000I     O31E912510700025107201904252041 00025107MPH7901008276/7961007296 0070                        00025103                                                                                                                                                                                                      
