12000I     O31A112510700025107201811091840100025107MPH7901003824/7961006228       10002510300029474                                 L31790                              YNR01-SG                        20181128         N 00038274        SEA.FMNLLIGHTING                                                       O   
12000I     O31A212510700025107201811091840100025107MPH7901003824/7961006228     FOB0                              USD                                                        00025103201811280002510300025103                                            00038274                                                     
12000I     O31A812510700025107201811091840100025107MPH7901003824/7961006228     FOB                                                                                                                                                                                                                                   
12000I     O31E112510700025107201811091840100025107MPH7901003824/7961006228 0010EFUHV11D65A                                                 00060000  000000000000120000001020181128SEA.FMNLMPH7901003824/7961006228                                                                                                  
12000I     O31E912510700025107201811091840 00025107MPH7901003824/7961006228 0010                        00025103                                                                                                                                                                                                      
12000I     O31E112510700025107201811091840100025107MPH7901003824/7961006228 0020EFUHV23D65A3                                                00060000  000000000000120000001020181128SEA.FMNLMPH7901003824/7961006228                                                                                                  
12000I     O31E912510700025107201811091840 00025107MPH7901003824/7961006228 0020                        00025103                                                                                                                                                                                                      
12000I     O31E112510700025107201811091840100025107MPH7901003824/7961006228 0030EFUHV8D65A                                                  00060000  000000000000120000001020181128SEA.FMNLMPH7901003824/7961006228                                                                                                  
12000I     O31E912510700025107201811091840 00025107MPH7901003824/7961006228 0030                        00025103                                                                                                                                                                                                      
12000I     O31E112510700025107201811091840100025107MPH7901003824/7961006228 0040LDAHV12DH5T                                                 00100000  000000000015220000001020181128SEA.FMNLMPH7901003824/7961006228                                                                                                  
12000I     O31E912510700025107201811091840 00025107MPH7901003824/7961006228 0040                        00025103                                                                                                                                                                                                      
12000I     O31E112510700025107201811091840100025107MPH7901003824/7961006228 0050LDAHV15DH5T                                                 00070000  000000000021620000001020181128SEA.FMNLMPH7901003824/7961006228                                                                                                  
12000I     O31E912510700025107201811091840 00025107MPH7901003824/7961006228 0050                        00025103                                                                                                                                                                                                      
12000I     O31E112510700025107201811091840100025107MPH7901003824/7961006228 0060LDAHV3DH6A                                                  00050000  000000000000710000001020181128SEA.FMNLMPH7901003824/7961006228                                                                                                  
12000I     O31E912510700025107201811091840 00025107MPH7901003824/7961006228 0060                        00025103                                                                                                                                                                                                      
12000I     O31E112510700025107201811091840100025107MPH7901003824/7961006228 0070LDAHV5DH6A                                                  00050000  000000000000810000001020181128SEA.FMNLMPH7901003824/7961006228                                                                                                  
12000I     O31E912510700025107201811091840 00025107MPH7901003824/7961006228 0070                        00025103                                                                                                                                                                                                      
12000I     O31E112510700025107201811091840100025107MPH7901003824/7961006228 0080LDAHV7DH6A                                                  00050000  000000000009420000001020181128SEA.FMNLMPH7901003824/7961006228                                                                                                  
12000I     O31E912510700025107201811091840 00025107MPH7901003824/7961006228 0080                        00025103                                                                                                                                                                                                      
12000I     O31E112510700025107201811091840100025107MPH7901003824/7961006228 0090LDAHV9DH6A                                                  00002000  000000000010320000001020181128SEA.FMNLMPH7901003824/7961006228                                                                                                  
12000I     O31E912510700025107201811091840 00025107MPH7901003824/7961006228 0090                        00025103                                                                                                                                                                                                      
