00025103   O31A112510700025107201603180232100025107MPH151066/SS100154           A  000251030002947400029474                         L31790PT Panasonic Gobel Eco SolutioNCKE, MS. CHUI HONG, MICHELLE MI20160402        1N100038274        SEA.FMNLLIGHTING                                                       O   
00025103   O31A212510700025107201603180232100025107MPH151066/SS100154           FOB0                              USD                                                                20160418                                                            00038274                                                     
00025103   O31E112510700025107201603180232100025107MPH151066/SS100154       0001EFU11E652V          EFU11E652V                    00038274  00106000  0000000012042400000010                **********                                                                                                                
00025103   O31E112510700025107201603180232100025107MPH151066/SS100154       0002EFU14E652V          EFU14E652V                    00038274  00106000  0000000012832400000010                **********                                                                                                                
00025103   O31E112510700025107201603180232100025107MPH151066/SS100154       0003EFU5E672V           EFU5E672V                     00038274  00106000  0000000011154400000010                **********                                                                                                                
00025103   O31E112510700025107201603180232100025107MPH151066/SS100154       0004EFUHV18D65A3        EFUHV18D65A3                  00038274  00106000  0000000014213400000010                **********                                                                                                                
