12000I     O31A112510800025108201902062205100025108MST7901006300/7931006038       10002510300039130                                 L31790                              YNR01-SG                        20190310         N 0003827420190220SEA.FLKGLIGHTING                                                       O   
12000I     O31A212510800025108201902062205100025108MST7901006300/7931006038     FOB0                              USD                                                        00025103201903100002510300025103                                            00038274                                                     
12000I     O31A812510800025108201902062205100025108MST7901006300/7931006038     FOB                                                                                                                                                                                                                                   
12000I     O31E112510800025108201902062205100025108MST7901006300/7931006038 0010EFUHV18D65A                                                 00080000  000000000013220000001020190310SEA.FLKGMST7901006300/7931006038                                                                                                  
12000I     O31E912510800025108201902062205 00025108MST7901006300/7931006038 0010                        00025103                                                                                                                                                                                                      
