00025103   O31A112510800025108201712201243100025108MST170322/7931003639         A  0002510300039130                                 S31790                              YCKE, MS. CHUI HONG, MICHELLE MI20171225        1N10003827420171223SEA.FLKGLIGHTING                                                       O   
00025103   O31A212510800025108201712201243100025108MST170322/7931003639         FOB0                              USD                                                        00039130201801100003913000039130                                            00038274                                                     
00025103   O31E112510800025108201712201243100025108MST170322/7931003639     0001EFDHV15D65T1                                                00020160  000000001112740000001020180103SEA.FLKG7931003639                                                                                                                
00025103   O31E912510800025108201712201243 00025108MST170322/7931003639     0001                        00039130                                                                                                                                                                                                      
00025103   O31E112510800025108201712201243100025108MST170322/7931003639     0002EFDHV20D65T1                                                00048960  000000001381940000001020180103SEA.FLKG7931003639                                                                                                                
00025103   O31E912510800025108201712201243 00025108MST170322/7931003639     0002                        00039130                                                                                                                                                                                                      
00025103   O31E112510800025108201712201243100025108MST170322/7931003639     0003EFU11E652V                                                  00015000  000000001223440000001020180103SEA.FLKG7931003639                                                                                                                
00025103   O31E912510800025108201712201243 00025108MST170322/7931003639     0003                        00039130                                                                                                                                                                                                      
00025103   O31E112510800025108201712201243100025108MST170322/7931003639     0004EFUHV18D65A                                                 00363000  000000001342340000001020180103SEA.FLKG7931003639                                                                                                                
00025103   O31E912510800025108201712201243 00025108MST170322/7931003639     0004                        00039130                                                                                                                                                                                                      
00025103   O31E112510800025108201712201243100025108MST170322/7931003639     0005EFUHV18L27A                                                 00011000  000000001342340000001020180103SEA.FLKG7931003639                                                                                                                
00025103   O31E912510800025108201712201243 00025108MST170322/7931003639     0005                        00039130                                                                                                                                                                                                      
00025103   O31A112510800025108201712201243100025108MST170323/7931003638         A  0002510300039130                                 L31790                              YCKE, MS. CHUI HONG, MICHELLE MI20171225        1N10003827420171223SEA.FLKGUA                                                             O   
00025103   O31A212510800025108201712201243100025108MST170323/7931003638         FOB0                              USD                                                        00039130201801100003913000039130                                            00038274                                                     
00025103   O31E112510800025108201712201243100025108MST170323/7931003638     0001LDAHV12DH5T                                                 00600000  000000001327140000001020180103SEA.FLKG7931003638                                                                                                                
00025103   O31E912510800025108201712201243 00025108MST170323/7931003638     0001                        00039130                                                                                                                                                                                                      
00025103   O31E112510800025108201712201243100025108MST170323/7931003638     0002LDAHV12LH5T                                                 00030000  000000001327140000001020180103SEA.FLKG7931003638                                                                                                                
00025103   O31E912510800025108201712201243 00025108MST170323/7931003638     0002                        00039130                                                                                                                                                                                                      
00025103   O31E112510800025108201712201243100025108MST170323/7931003638     0003LDAHV15DH5T                                                 00612000  000000001775940000001020180103SEA.FLKG7931003638                                                                                                                
00025103   O31E912510800025108201712201243 00025108MST170323/7931003638     0003                        00039130                                                                                                                                                                                                      
00025103   O31E112510800025108201712201243100025108MST170323/7931003638     0004LDAHV15LH5T                                                 00040000  000000001775940000001020180103SEA.FLKG7931003638                                                                                                                
00025103   O31E912510800025108201712201243 00025108MST170323/7931003638     0004                        00039130                                                                                                                                                                                                      
