12000I     O31A112510800025108201905021406100025108MST7901008853/7931006524       10002510300039130                                 L31790                              YNR01-SG                        20190609         N 0003827420190522SEA.FLKGLIGHTING                                                       O   
12000I     O31A212510800025108201905021406100025108MST7901008853/7931006524     FOB0                              USD                                                        00025103201906090002510300025103                                            00038274                                                     
12000I     O31A812510800025108201905021406100025108MST7901008853/7931006524     FOB                                                                                                                                                                                                                                   
12000I     O31E112510800025108201905021406100025108MST7901008853/7931006524 0010LDAHV23DH5T                                                 00020000  000000000000120000001020190609SEA.FLKGMST7901008853/7931006524                                                                                                  
12000I     O31E912510800025108201905021406 00025108MST7901008853/7931006524 0010                        00025103                                                                                                                                                                                                      
12000I     O31E112510800025108201905021406100025108MST7901008853/7931006524 0020LDAHV3LH6T                                                  00005000  000000000005520000001020190609SEA.FLKGMST7901008853/7931006524                                                                                                  
12000I     O31E912510800025108201905021406 00025108MST7901008853/7931006524 0020                        00025103                                                                                                                                                                                                      
