00025103   O31A112510800025108201703280443100025108MST161920/7931001956         A  0002510300039130                                 L31790                              NCKE, MS. CHUI HONG, MICHELLE MI20170412        1N10003827420170423SEA.FLKGLIGHTING                                                       O   
00025103   O31A212510800025108201703280443100025108MST161920/7931001956         FOB0                              USD                                                        00039130201705100003913000039130SCMM                                        00038274                                                     
00025103   O31E112510800025108201703280443100025108MST161920/7931001956     0001LDAHV5LH6A                                                  00070000  000000000000000000001020170503SEA.FLKG7931001956                                                                                                                
00025103   O31E912510800025108201703280443 00025108MST161920/7931001956     0001                        00039130                                                                                                                                                                                                      
00025103   O31E112510800025108201703280443100025108MST161920/7931001956     0002LDAHV7DH6A                                                  00332000  000000000000000000001020170503SEA.FLKG7931001956                                                                                                                
00025103   O31E912510800025108201703280443 00025108MST161920/7931001956     0002                        00039130                                                                                                                                                                                                      
00025103   O31E112510800025108201703280443100025108MST161920/7931001956     0003LDAHV7LH6A                                                  00200000  000000000000000000001020170503SEA.FLKG7931001956                                                                                                                
00025103   O31E912510800025108201703280443 00025108MST161920/7931001956     0003                        00039130                                                                                                                                                                                                      
00025103   O31E112510800025108201703280443100025108MST161920/7931001956     0004LDAHV9DH6A                                                  00040000  000000000000000000001020170503SEA.FLKG7931001956                                                                                                                
00025103   O31E912510800025108201703280443 00025108MST161920/7931001956     0004                        00039130                                                                                                                                                                                                      
00025103   O31E112510800025108201703280443100025108MST161920/7931001956     0005LDAHV9LH6A                                                  00030000  000000000000000000001020170503SEA.FLKG7931001956                                                                                                                
00025103   O31E912510800025108201703280443 00025108MST161920/7931001956     0005                        00039130                                                                                                                                                                                                      
00025103   O31A112510800025108201703280443100025108MST161949/7931001957         A  0002510300039130                                 S31790                              NCKE, MS. CHUI HONG, MICHELLE MI20170412        1N10003827420170423SEA.FLKGLIGHTING                                                       O   
00025103   O31A212510800025108201703280443100025108MST161949/7931001957         FOB0                              USD                                                        00039130201705100003913000039130SCMM                                        00038274                                                     
00025103   O31E112510800025108201703280443100025108MST161949/7931001957     0001EFDHV11D65T                                                 00038000  000000000012420000001020170503SEA.FLKG7931001957                                                                                                                
00025103   O31E912510800025108201703280443 00025108MST161949/7931001957     0001                        00039130                                                                                                                                                                                                      
00025103   O31E112510800025108201703280443100025108MST161949/7931001957     0002EFDHV15D65T1                                                00189120  000000000000000000001020170503SEA.FLKG7931001957                                                                                                                
00025103   O31E912510800025108201703280443 00025108MST161949/7931001957     0002                        00039130                                                                                                                                                                                                      
00025103   O31E112510800025108201703280443100025108MST161949/7931001957     0003EFDHV15L27T1                                                00064320  000000000000000000001020170503SEA.FLKG7931001957                                                                                                                
00025103   O31E912510800025108201703280443 00025108MST161949/7931001957     0003                        00039130                                                                                                                                                                                                      
00025103   O31E112510800025108201703280443100025108MST161949/7931001957     0004EFDHV20D65T1                                                00039360  000000000000000000001020170503SEA.FLKG7931001957                                                                                                                
00025103   O31E912510800025108201703280443 00025108MST161949/7931001957     0004                        00039130                                                                                                                                                                                                      
00025103   O31E112510800025108201703280443100025108MST161949/7931001957     0005EFDHV23D65T1                                                00042240  000000000000000000001020170503SEA.FLKG7931001957                                                                                                                
00025103   O31E912510800025108201703280443 00025108MST161949/7931001957     0005                        00039130                                                                                                                                                                                                      
00025103   O31E112510800025108201703280443100025108MST161949/7931001957     0006EFDHV25D65T                                                 02499840  000000000015420000001020170503SEA.FLKG7931001957                                                                                                                
00025103   O31E912510800025108201703280443 00025108MST161949/7931001957     0006                        00039130                                                                                                                                                                                                      
00025103   O31E112510800025108201703280443100025108MST161949/7931001957     0007EFDHV25L27T                                                 00039360  000000000015420000001020170503SEA.FLKG7931001957                                                                                                                
00025103   O31E912510800025108201703280443 00025108MST161949/7931001957     0007                        00039130                                                                                                                                                                                                      
00025103   O31E112510800025108201703280443100025108MST161949/7931001957     0008EFDHV32D65A                                                 00004800  000000000275830000001020170503SEA.FLKG7931001957                                                                                                                
00025103   O31E912510800025108201703280443 00025108MST161949/7931001957     0008                        00039130                                                                                                                                                                                                      
00025103   O31E112510800025108201703280443100025108MST161949/7931001957     0009EFDHV42D65A                                                 00039840  000000003053540000001020170503SEA.FLKG7931001957                                                                                                                
00025103   O31E912510800025108201703280443 00025108MST161949/7931001957     0009                        00039130                                                                                                                                                                                                      
00025103   O31E112510800025108201703280443100025108MST161949/7931001957     0010EFU14E272V1                                                 00100000  000000000000000000001020170503SEA.FLKG7931001957                                                                                                                
00025103   O31E912510800025108201703280443 00025108MST161949/7931001957     0010                        00039130                                                                                                                                                                                                      
00025103   O31E112510800025108201703280443100025108MST161949/7931001957     0011EFU14E652V1                                                 00450000  000000000000000000001020170503SEA.FLKG7931001957                                                                                                                
00025103   O31E912510800025108201703280443 00025108MST161949/7931001957     0011                        00039130                                                                                                                                                                                                      
00025103   O31E112510800025108201703280443100025108MST161949/7931001957     0012EFU8E652V1                                                  00100000  000000000000000000001020170503SEA.FLKG7931001957                                                                                                                
00025103   O31E912510800025108201703280443 00025108MST161949/7931001957     0012                        00039130                                                                                                                                                                                                      
00025103   O31E112510800025108201703280443100025108MST161949/7931001957     0013EFUHV18D65A                                                 00270000  000000000013620000001020170503SEA.FLKG7931001957                                                                                                                
00025103   O31E912510800025108201703280443 00025108MST161949/7931001957     0013                        00039130                                                                                                                                                                                                      
00025103   O31E112510800025108201703280443100025108MST161949/7931001957     0014EFUHV18L27A                                                 00010000  000000000013620000001020170503SEA.FLKG7931001957                                                                                                                
00025103   O31E912510800025108201703280443 00025108MST161949/7931001957     0014                        00039130                                                                                                                                                                                                      
00025103   O31E112510800025108201703280443100025108MST161949/7931001957     0015EFUHV23D65A                                                 00050000  000000000014320000001020170503SEA.FLKG7931001957                                                                                                                
00025103   O31E912510800025108201703280443 00025108MST161949/7931001957     0015                        00039130                                                                                                                                                                                                      
