00025103   O31A112510700025107201608040434100025107MPH155333/SS100182           A  000251030002947400029474                         L31790PT Panasonic Gobel Eco SolutioNCKE, MS. CHUI HONG, MICHELLE MI20160819        1N100038274        SEA.FMNLLIGHTING                                                       O   
00025103   O31A212510700025107201608040434100025107MPH155333/SS100182           FOB0                              USD                                                                20160823                                                            00038274                                                     
00025103   O31E112510700025107201608040434100025107MPH155333/SS100182       0001LDTHV16DGNA         LDTHV16DGNA                   00038274  00003000  0000000008055300000010                **********                                                                                                                
00025103   O31E112510700025107201608040434100025107MPH155333/SS100182       0002LDTHV25DGNA         LDTHV25DGNA                   00038274  00003000  0000000011002300000010                **********                                                                                                                
00025103   O31E112510700025107201608040434100025107MPH155333/SS100182       0003LDTHV35DGNA         LDTHV35DGNA                   00038274  00004000  0000000013556300000010                **********                                                                                                                
