00025103   O31A112510800025108201607260340100025108MST154967/7931000330         A  0002510300039130                                 S31790                              NCKE, MS. CHUI HONG, MICHELLE MI20160810        1N10003827420160825SEA.FLKGLIGHTING                                                       O   
00025103   O31A212510800025108201607260340100025108MST154967/7931000330         FOB0                              USD                                                        00039130201609100003913000039130SCMM                                        00038274                                                     
00025103   O31E112510800025108201607260340100025108MST154967/7931000330     0001EFDHV15D65T                                                 00203760  0000000012239400000010        SEA.FLKG7931000330                                                                                                                
00025103   O31E912510800025108201607260340 00025108MST154967/7931000330     0001                        00039130                                                                                                                                                                                                      
00025103   O31E112510800025108201607260340100025108MST154967/7931000330     0002EFDHV15L27T                                                 00079680  0000000012239400000010        SEA.FLKG7931000330                                                                                                                
00025103   O31E912510800025108201607260340 00025108MST154967/7931000330     0002                        00039130                                                                                                                                                                                                      
00025103   O31E112510800025108201607260340100025108MST154967/7931000330     0003EFDHV20D65T                                                 00024960  0000000000152200000010        SEA.FLKG7931000330                                                                                                                
00025103   O31E912510800025108201607260340 00025108MST154967/7931000330     0003                        00039130                                                                                                                                                                                                      
00025103   O31E112510800025108201607260340100025108MST154967/7931000330     0004EFDHV23D65T                                                 00051840  0000000000152200000010        SEA.FLKG7931000330                                                                                                                
00025103   O31E912510800025108201607260340 00025108MST154967/7931000330     0004                        00039130                                                                                                                                                                                                      
00025103   O31E112510800025108201607260340100025108MST154967/7931000330     0005EFDHV25D65T                                                 00809280  0000000000152200000010        SEA.FLKG7931000330                                                                                                                
00025103   O31E912510800025108201607260340 00025108MST154967/7931000330     0005                        00039130                                                                                                                                                                                                      
00025103   O31E112510800025108201607260340100025108MST154967/7931000330     0006EFDHV25L27T                                                 00029760  0000000000152200000010        SEA.FLKG7931000330                                                                                                                
00025103   O31E912510800025108201607260340 00025108MST154967/7931000330     0006                        00039130                                                                                                                                                                                                      
00025103   O31E112510800025108201607260340100025108MST154967/7931000330     0007EFDHV42D65A                                                 00006000  0000000030138400000010        SEA.FLKG7931000330                                                                                                                
00025103   O31E912510800025108201607260340 00025108MST154967/7931000330     0007                        00039130                                                                                                                                                                                                      
00025103   O31E112510800025108201607260340100025108MST154967/7931000330     0008EFU11E652V                                                  00009000  0000000012234400000010        SEA.FLKG7931000330                                                                                                                
00025103   O31E912510800025108201607260340 00025108MST154967/7931000330     0008                        00039130                                                                                                                                                                                                      
00025103   O31E112510800025108201607260340100025108MST154967/7931000330     0009EFU14E272V                                                  00095000  0000000013083400000010        SEA.FLKG7931000330                                                                                                                
00025103   O31E912510800025108201607260340 00025108MST154967/7931000330     0009                        00039130                                                                                                                                                                                                      
00025103   O31E112510800025108201607260340100025108MST154967/7931000330     0010EFU8E652V                                                   00140000  0000000011971400000010        SEA.FLKG7931000330                                                                                                                
00025103   O31E912510800025108201607260340 00025108MST154967/7931000330     0010                        00039130                                                                                                                                                                                                      
00025103   O31A112510800025108201607260340100025108MST155008/7931000331         A  0002510300039130                                 S31790                              NCKE, MS. CHUI HONG, MICHELLE MI20160810        1N10003827420160912SEA.FLKGLIGHTING                                                       O   
00025103   O31A212510800025108201607260340100025108MST155008/7931000331         FOB0                              USD                                                        00039130201609300003913000039130SCMM                                        00038274                                                     
00025103   O31E112510800025108201607260340100025108MST155008/7931000331     0001EFDHV25D65T                                                 00810240  0000000000152200000010        SEA.FLKG7931000331                                                                                                                
00025103   O31E912510800025108201607260340 00025108MST155008/7931000331     0001                        00039130                                                                                                                                                                                                      
00025103   O31E112510800025108201607260340100025108MST155008/7931000331     0002LDR400N                                                     00011000  0000000003535200000010        SEA.FLKG7931000331                                                                                                                
00025103   O31E912510800025108201607260340 00025108MST155008/7931000331     0002                        00039130                                                                                                                                                                                                      
