00025103   O31A112510800025108201706260940100025108MST165019/7931002556         A  0002510300039130                                 L31790                              NCKE, MS. CHUI HONG, MICHELLE MI20170711        1N10003827420170724SEA.FLKGLIGHTING                                                       O   
00025103   O31A212510800025108201706260940100025108MST165019/7931002556         FOB0                              USD                                                        00039130201708100003913000039130SCMM                                        00038274                                                     
00025103   O31E112510800025108201706260940100025108MST165019/7931002556     0001LDAHV3LH6A                                                  00045000  000000000630340000001020170803SEA.FLKG7931002556                                                                                                                
00025103   O31E912510800025108201706260940 00025108MST165019/7931002556     0001                        00039130                                                                                                                                                                                                      
00025103   O31E112510800025108201706260940100025108MST165019/7931002556     0002LDAHV5DH6A                                                  00040000  000000000630340000001020170803SEA.FLKG7931002556                                                                                                                
00025103   O31E912510800025108201706260940 00025108MST165019/7931002556     0002                        00039130                                                                                                                                                                                                      
00025103   O31E112510800025108201706260940100025108MST165019/7931002556     0003LDAHV9DH6A                                                  00230000  000000001121440000001020170803SEA.FLKG7931002556                                                                                                                
00025103   O31E912510800025108201706260940 00025108MST165019/7931002556     0003                        00039130                                                                                                                                                                                                      
00025103   O31A112510800025108201706260940100025108MST165022/7931002557         A  0002510300039130                                 S31790                              NCKE, MS. CHUI HONG, MICHELLE MI20170711        1N10003827420170724SEA.FLKGLIGHTING                                                       O   
00025103   O31A212510800025108201706260940100025108MST165022/7931002557         FOB0                              USD                                                        00039130201708100003913000039130SCMM                                        00038274                                                     
00025103   O31E112510800025108201706260940100025108MST165022/7931002557     0001EFDHV15L27T1                                                00010000  000000001112740000001020170803SEA.FLKG7931002557                                                                                                                
00025103   O31E912510800025108201706260940 00025108MST165022/7931002557     0001                        00039130                                                                                                                                                                                                      
00025103   O31E112510800025108201706260940100025108MST165022/7931002557     0002EFUHV23D65A                                                 00021000  000000001411440000001020170803SEA.FLKG7931002557                                                                                                                
00025103   O31E912510800025108201706260940 00025108MST165022/7931002557     0002                        00039130                                                                                                                                                                                                      
