00025103   O31A112510700025107201704221243100025107MPH162610/7961001606         A  0002510300029474                                 L31790                              YCKE, MS. CHUI HONG, MICHELLE MI20170427        1N10003827420170504SEA.FMNLLIGHTING                                                       O   
00025103   O31A212510700025107201704221243100025107MPH162610/7961001606         FOB0                              USD                                                        00029474201706050002947400029474                                            00038274                                                     
00025103   O31E112510700025107201704221243100025107MPH162610/7961001606     0001EFUHV11D65A                                                 00150000  0000000009574400000010        SEA.FMNL7961001606                                                                                                                
00025103   O31E912510700025107201704221243 00025107MPH162610/7961001606     0001                        00029474                                                                                                                                                                                                      
00025103   O31E112510700025107201704221243100025107MPH162610/7961001606     0002EFUHV18D65A3                                                00100000  0000000014213400000010        SEA.FMNL7961001606                                                                                                                
00025103   O31E912510700025107201704221243 00025107MPH162610/7961001606     0002                        00029474                                                                                                                                                                                                      
00025103   O31E112510700025107201704221243100025107MPH162610/7961001606     0003EFUHV8D65A                                                  00150000  0000000009574400000010        SEA.FMNL7961001606                                                                                                                
00025103   O31E912510700025107201704221243 00025107MPH162610/7961001606     0003                        00029474                                                                                                                                                                                                      
