12000I     O31A112510800025108201810181236100025108MST7901003056/7931005422       10002510300039130                                 L31790                              YNR01-SG                        20181107         N 0003827420181020SEA.FLKGLIGHTING                                                       O   
12000I     O31A212510800025108201810181236100025108MST7901003056/7931005422     FOB0                              USD                                                        00025103201811070002510300025103                                            00038274                                                     
12000I     O31A812510800025108201810181236100025108MST7901003056/7931005422     FOB                                                                                                                                                                                                                                   
12000I     O31E112510800025108201810181236100025108MST7901003056/7931005422 0010NNP81900                                                    00001000  000000000000120000001020181107SEA.FLKGMST7901003056/7931005422                                                                                                  
12000I     O31E912510800025108201810181236 00025108MST7901003056/7931005422 0010                        00025103                                                                                                                                                                                                      
