12000I     O31A112510800025108201907112206100025108MST7901010789/7931006937       10002510300039130                                 L31790                              YNR01-SG                        20190812         N 0003827420190725SEA.FLKGLIGHTING                                                       O   
12000I     O31A212510800025108201907112206100025108MST7901010789/7931006937     FOB0                              USD                                                        00025103201908120002510300025103                                            00038274                                                     
12000I     O31A812510800025108201907112206100025108MST7901010789/7931006937     FOB                                                                                                                                                                                                                                   
12000I     O31E112510800025108201907112206100025108MST7901010789/7931006937 0010NNP81900                                                    00001000  000000000000120000001020190812SEA.FLKGMST7901010789/7931006937                                                                                                  
12000I     O31E912510800025108201907112206 00025108MST7901010789/7931006937 0010                        00025103                                                                                                                                                                                                      
