00025103   O31A112511000025110201701311040100025110MMQ160272/ES1701004          A  0002510300039140                                 S31790                               CKE, MS. CHUI HONG, MICHELLE MI20170205        1N10003827420170224SEA.FPKLLIGHTING                                                       O   
00025103   O31A212511000025110201701311040100025110MMQ160272/ES1701004          FOB0                              USD                                                                20170310                SCMM                                        00038274                                                     
00025103   O31E112511000025110201701311040100025110MMQ160272/ES1701004      0001EFDHV23D65A                                                 00038400  0000000000000000000010                                                                                                                                          
00025103   O31E112511000025110201701311040100025110MMQ160272/ES1701004      0002EFDHV25D65A                                                 00240000  0000000000000000000010                                                                                                                                          
00025103   O31E112511000025110201701311040100025110MMQ160272/ES1701004      0003EFDHV25L27A                                                 00060480  0000000000000000000010                                                                                                                                          
00025103   O31E112511000025110201701311040100025110MMQ160272/ES1701004      0004EFUHV18D65A3                                                00400000  0000000010806400000010                                                                                                                                          
00025103   O31E112511000025110201701311040100025110MMQ160272/ES1701004      0005EFUHV23D65A3                                                00030000  0000000000000000000010                                                                                                                                          
00025103   O31E112511000025110201701311040100025110MMQ160272/ES1701004      0006LDAHV10DG4M                                                 00032000  0000000018566400000010                                                                                                                                          
00025103   O31E112511000025110201701311040100025110MMQ160272/ES1701004      0007LDAHV10LG4M                                                 00005000  0000000018566400000010                                                                                                                                          
00025103   O31E112511000025110201701311040100025110MMQ160272/ES1701004      0008LDAHV12DG4M                                                 00030000  0000000026621400000010                                                                                                                                          
00025103   O31E112511000025110201701311040100025110MMQ160272/ES1701004      0009LDAHV12LG4M                                                 00005000  0000000026621400000010                                                                                                                                          
00025103   O31E112511000025110201701311040100025110MMQ160272/ES1701004      0010LDAHV7DG4M                                                  00010000  0000000013772400000010                                                                                                                                          
00025103   O31E112511000025110201701311040100025110MMQ160272/ES1701004      0011LDAHV8DG4M                                                  00030000  0000000015226400000010                                                                                                                                          
