00025103   O31A112510700025107201806070638100025107MPH175595/7961005118         A  0002510300029474                                 L31790                              YCKE, MS. CHUI HONG, MICHELLE MI20180612        1N10003827420180628SEA.FMNLUA                                                             O   
00025103   O31A212510700025107201806070638100025107MPH175595/7961005118         FOB0                              USD                                                        00029474201807300002947400029474                                            00038274                                                     
00025103   O31E112510700025107201806070638100025107MPH175595/7961005118     0001LDAHV12DH5T                                                 00020000  0000000017385400000010        SEA.FMNL7961005118                                                                                                                
00025103   O31E912510700025107201806070638 00025107MPH175595/7961005118     0001                        00029474                                                                                                                                                                                                      
00025103   O31E112510700025107201806070638100025107MPH175595/7961005118     0002LDAHV12LH5T                                                 00020000  0000000017385400000010        SEA.FMNL7961005118                                                                                                                
00025103   O31E912510700025107201806070638 00025107MPH175595/7961005118     0002                        00029474                                                                                                                                                                                                      
00025103   O31E112510700025107201806070638100025107MPH175595/7961005118     0003LDAHV15DH5T                                                 00020000  0000000025385400000010        SEA.FMNL7961005118                                                                                                                
00025103   O31E912510700025107201806070638 00025107MPH175595/7961005118     0003                        00029474                                                                                                                                                                                                      
00025103   O31E112510700025107201806070638100025107MPH175595/7961005118     0004LDAHV15LH5T                                                 00020000  0000000025385400000010        SEA.FMNL7961005118                                                                                                                
00025103   O31E912510700025107201806070638 00025107MPH175595/7961005118     0004                        00029474                                                                                                                                                                                                      
