12000I     O31A112511000025110201904291408100025110MMQ7901008449/7921006904       10002510300039140                                 L31790                              NNR01-SG                        20190610         N 0003827420190524SEA.FPKLLIGHTING                                                       O   
12000I     O31A212511000025110201904291408100025110MMQ7901008449/7921006904     FOB0                              USD                                                        00025103201906100002510300025103SCMM                                        00038274                                                     
12000I     O31A812511000025110201904291408100025110MMQ7901008449/7921006904     FOB                                                                                                                                                                                                                                   
12000I     O31E112511000025110201904291408100025110MMQ7901008449/7921006904 0010EFDHV20D65T1                                                00017280  000000000000120000001020190610SEA.FPKLMMQ7901008449/7921006904                                                                                                  
12000I     O31E912511000025110201904291408 00025110MMQ7901008449/7921006904 0010                        00025103                                                                                                                                                                                                      
12000I     O31E112511000025110201904291408100025110MMQ7901008449/7921006904 0020EFUHV18D65A3                                                00450000  000000000000120000001020190610SEA.FPKLMMQ7901008449/7921006904                                                                                                  
12000I     O31E912511000025110201904291408 00025110MMQ7901008449/7921006904 0020                        00025103                                                                                                                                                                                                      
12000I     O31E112511000025110201904291408100025110MMQ7901008449/7921006904 0030LDAHV13DH7A                                                 00020000  000000000000120000001020190610SEA.FPKLMMQ7901008449/7921006904                                                                                                  
12000I     O31E912511000025110201904291408 00025110MMQ7901008449/7921006904 0030                        00025103                                                                                                                                                                                                      
