00025103   O31A112510800025108201710310416100025108MST169048/7931003328         A  0002510300039130                                 L31790                              YCKE, MS. CHUI HONG, MICHELLE MI20171105        1N10003827420171104SEA.FLKGUA                                                             O   
00025103   O31A212510800025108201710310416100025108MST169048/7931003328         FOB0                              USD                                                        00039130201711220003913000039130                                            00038274                                                     
00025103   O31E112510800025108201710310416100025108MST169048/7931003328     0001LDAHV12DH5T                                                 00080000  000000001327140000001020171115SEA.FLKG7931003328                                                                                                                
00025103   O31E912510800025108201710310416 00025108MST169048/7931003328     0001                        00039130                                                                                                                                                                                                      
00025103   O31E112510800025108201710310416100025108MST169048/7931003328     0002LDAHV15DH5T                                                 00170000  000000001775940000001020171115SEA.FLKG7931003328                                                                                                                
00025103   O31E912510800025108201710310416 00025108MST169048/7931003328     0002                        00039130                                                                                                                                                                                                      
00025103   O31A112510800025108201710310416100025108MST169049/7931003329         A  0002510300039130                                 S31790                              YCKE, MS. CHUI HONG, MICHELLE MI20171105        1N10003827420171118SEA.FLKGLIGHTING                                                       O   
00025103   O31A212510800025108201710310416100025108MST169049/7931003329         FOB0                              USD                                                        00039130201712060003913000039130                                            00038274                                                     
00025103   O31E112510800025108201710310416100025108MST169049/7931003329     0001EFUHV18D65A                                                 00050000  000000001342340000001020171129SEA.FLKG7931003329                                                                                                                
00025103   O31E912510800025108201710310416 00025108MST169049/7931003329     0001                        00039130                                                                                                                                                                                                      
00025103   O31E112510800025108201710310416100025108MST169049/7931003329     0002EFUHV18L27A                                                 00002000  000000001342340000001020171129SEA.FLKG7931003329                                                                                                                
00025103   O31E912510800025108201710310416 00025108MST169049/7931003329     0002                        00039130                                                                                                                                                                                                      
