00025103   O31A112510800025108201703290455100025108MST162077/7931002005         A  0002510300039130                                 S31790                              YCKE, MS. CHUI HONG, MICHELLE MI20170403        1N100038274        SEA.FLKGLIGHTING                                                       O   
00025103   O31A212510800025108201703290455100025108MST162077/7931002005         FOB0                              USD                                                        00039130201704130003913000039130                                            00038274                                                     
00025103   O31E112510800025108201703290455100025108MST162077/7931002005     0001EFDHV20D65T1                                                00059520  000000000000000000001020170406SEA.FLKG7931002005                                                                                                                
00025103   O31E912510800025108201703290455 00025108MST162077/7931002005     0001                        00039130                                                                                                                                                                                                      
00025103   O31E112510800025108201703290455100025108MST162077/7931002005     0002EFDHV23D65T1                                                00039360  000000000000000000001020170406SEA.FLKG7931002005                                                                                                                
00025103   O31E912510800025108201703290455 00025108MST162077/7931002005     0002                        00039130                                                                                                                                                                                                      
00025103   O31E112510800025108201703290455100025108MST162077/7931002005     0003EFDHV25L27T                                                 00009600  000000000015420000001020170406SEA.FLKG7931002005                                                                                                                
00025103   O31E912510800025108201703290455 00025108MST162077/7931002005     0003                        00039130                                                                                                                                                                                                      
00025103   O31E112510800025108201703290455100025108MST162077/7931002005     0004EFUHV23D65A                                                 00085000  000000000014320000001020170406SEA.FLKG7931002005                                                                                                                
00025103   O31E912510800025108201703290455 00025108MST162077/7931002005     0004                        00039130                                                                                                                                                                                                      
