12000I     O31A112510700025107201810191740100025107MPH7901003079/7961006112       10002510300029474                                 L31790                              YNR01-SG                        20181103         N 00038274        SEA.FMNLLIGHTING                                                       O   
12000I     O31A212510700025107201810191740100025107MPH7901003079/7961006112     FOB0                              USD                                                        00025103201811030002510300025103                                            00038274                                                     
12000I     O31A812510700025107201810191740100025107MPH7901003079/7961006112     FOB                                                                                                                                                                                                                                   
12000I     O31E112510700025107201810191740100025107MPH7901003079/7961006112 0010EFUHV11D65A                                                 00080000  000000000000120000001020181103SEA.FMNLMPH7901003079/7961006112                                                                                                  
12000I     O31E912510700025107201810191740 00025107MPH7901003079/7961006112 0010                        00025103                                                                                                                                                                                                      
12000I     O31E112510700025107201810191740100025107MPH7901003079/7961006112 0020EFUHV8D65A                                                  00080000  000000000000120000001020181103SEA.FMNLMPH7901003079/7961006112                                                                                                  
12000I     O31E912510700025107201810191740 00025107MPH7901003079/7961006112 0020                        00025103                                                                                                                                                                                                      
