12000I     O31A112510800025108201812281838100025108MST7901004934/7931005832       10002510300039130                                 L31790                              NNR01-SG                        20190210         N 0003827420190125SEA.FLKGLIGHTING                                                       O   
12000I     O31A212510800025108201812281838100025108MST7901004934/7931005832     FOB0                              USD                                                        00025103201902100002510300025103SCMM                                        00038274                                                     
12000I     O31A812510800025108201812281838100025108MST7901004934/7931005832     FOB                                                                                                                                                                                                                                   
12000I     O31E112510800025108201812281838100025108MST7901004934/7931005832 0010EFDHV15D65T1                                                00162240  000000000000120000001020190210SEA.FLKGMST7901004934/7931005832                                                                                                  
12000I     O31E912510800025108201812281838 00025108MST7901004934/7931005832 0010                        00025103                                                                                                                                                                                                      
12000I     O31E112510800025108201812281838100025108MST7901004934/7931005832 0020EFDHV15L27T1                                                00053760  000000000000120000001020190210SEA.FLKGMST7901004934/7931005832                                                                                                  
12000I     O31E912510800025108201812281838 00025108MST7901004934/7931005832 0020                        00025103                                                                                                                                                                                                      
12000I     O31E112510800025108201812281838100025108MST7901004934/7931005832 0030EFDHV20D65T1                                                00009600  000000000000120000001020190210SEA.FLKGMST7901004934/7931005832                                                                                                  
12000I     O31E912510800025108201812281838 00025108MST7901004934/7931005832 0030                        00025103                                                                                                                                                                                                      
12000I     O31E112510800025108201812281838100025108MST7901004934/7931005832 0040EFU14E272V1                                                 00090000  000000000000120000001020190210SEA.FLKGMST7901004934/7931005832                                                                                                  
12000I     O31E912510800025108201812281838 00025108MST7901004934/7931005832 0040                        00025103                                                                                                                                                                                                      
12000I     O31E112510800025108201812281838100025108MST7901004934/7931005832 0050EFU14E652V1                                                 00315000  000000000000120000001020190210SEA.FLKGMST7901004934/7931005832                                                                                                  
12000I     O31E912510800025108201812281838 00025108MST7901004934/7931005832 0050                        00025103                                                                                                                                                                                                      
12000I     O31E112510800025108201812281838100025108MST7901004934/7931005832 0060LDR400N                                                     00015000  000000000289520000001020190210SEA.FLKGMST7901004934/7931005832                                                                                                  
12000I     O31E912510800025108201812281838 00025108MST7901004934/7931005832 0060                        00025103                                                                                                                                                                                                      
12000I     O31A112510800025108201812281838100025108MST7901004935/7931005831       10002510300039130                                 L31790                              NNR01-SG                        20190210         N 0003827420190125SEA.FLKGLIGHTING                                                       O   
12000I     O31A212510800025108201812281838100025108MST7901004935/7931005831     FOB0                              USD                                                        00025103201902100002510300025103SCMM                                        00038274                                                     
12000I     O31A812510800025108201812281838100025108MST7901004935/7931005831     FOB                                                                                                                                                                                                                                   
12000I     O31E112510800025108201812281838100025108MST7901004935/7931005831 0010LDAHV12DH6T                                                 00180000  000000000011520000001020190210SEA.FLKGMST7901004935/7931005831                                                                                                  
12000I     O31E912510800025108201812281838 00025108MST7901004935/7931005831 0010                        00025103                                                                                                                                                                                                      
12000I     O31E112510800025108201812281838100025108MST7901004935/7931005831 0020LDAHV12LH6T                                                 00040000  000000000011520000001020190210SEA.FLKGMST7901004935/7931005831                                                                                                  
12000I     O31E912510800025108201812281838 00025108MST7901004935/7931005831 0020                        00025103                                                                                                                                                                                                      
12000I     O31E112510800025108201812281838100025108MST7901004935/7931005831 0030LDAHV20DH5T                                                 00031500  000000000027520000001020190210SEA.FLKGMST7901004935/7931005831                                                                                                  
12000I     O31E912510800025108201812281838 00025108MST7901004935/7931005831 0030                        00025103                                                                                                                                                                                                      
12000I     O31E112510800025108201812281838100025108MST7901004935/7931005831 0040LDAHV30DH5T                                                 00041400  000000000042820000001020190210SEA.FLKGMST7901004935/7931005831                                                                                                  
12000I     O31E912510800025108201812281838 00025108MST7901004935/7931005831 0040                        00025103                                                                                                                                                                                                      
12000I     O31E112510800025108201812281838100025108MST7901004935/7931005831 0050LDAHV3DH6T                                                  00060000  000000000005520000001020190210SEA.FLKGMST7901004935/7931005831                                                                                                  
12000I     O31E912510800025108201812281838 00025108MST7901004935/7931005831 0050                        00025103                                                                                                                                                                                                      
12000I     O31E112510800025108201812281838100025108MST7901004935/7931005831 0060LDAHV3LH6T                                                  00050000  000000000005520000001020190210SEA.FLKGMST7901004935/7931005831                                                                                                  
12000I     O31E912510800025108201812281838 00025108MST7901004935/7931005831 0060                        00025103                                                                                                                                                                                                      
12000I     O31E112510800025108201812281838100025108MST7901004935/7931005831 0070LDAHV5DH6T                                                  00165000  000000000000610000001020190210SEA.FLKGMST7901004935/7931005831                                                                                                  
12000I     O31E912510800025108201812281838 00025108MST7901004935/7931005831 0070                        00025103                                                                                                                                                                                                      
12000I     O31E112510800025108201812281838100025108MST7901004935/7931005831 0080LDAHV5LH6T                                                  00120000  000000000000610000001020190210SEA.FLKGMST7901004935/7931005831                                                                                                  
12000I     O31E912510800025108201812281838 00025108MST7901004935/7931005831 0080                        00025103                                                                                                                                                                                                      
12000I     O31E112510800025108201812281838100025108MST7901004935/7931005831 0090LDAHV7DH6T                                                  00300000  000000000006820000001020190210SEA.FLKGMST7901004935/7931005831                                                                                                  
12000I     O31E912510800025108201812281838 00025108MST7901004935/7931005831 0090                        00025103                                                                                                                                                                                                      
12000I     O31E112510800025108201812281838100025108MST7901004935/7931005831 0100LDAHV7LH6T                                                  00090000  000000000006820000001020190210SEA.FLKGMST7901004935/7931005831                                                                                                  
12000I     O31E912510800025108201812281838 00025108MST7901004935/7931005831 0100                        00025103                                                                                                                                                                                                      
12000I     O31E112510800025108201812281838100025108MST7901004935/7931005831 0110LDAHV9DH6T                                                  00300000  000000000008920000001020190210SEA.FLKGMST7901004935/7931005831                                                                                                  
12000I     O31E912510800025108201812281838 00025108MST7901004935/7931005831 0110                        00025103                                                                                                                                                                                                      
12000I     O31E112510800025108201812281838100025108MST7901004935/7931005831 0120LDAHV9LH6T                                                  00080000  000000000008920000001020190210SEA.FLKGMST7901004935/7931005831                                                                                                  
12000I     O31E912510800025108201812281838 00025108MST7901004935/7931005831 0120                        00025103                                                                                                                                                                                                      
12000I     O31E112510800025108201812281838100025108MST7901004935/7931005831 0130LDS300D2N                                                   00007000  000000000177720000001020190210SEA.FLKGMST7901004935/7931005831                                                                                                  
12000I     O31E912510800025108201812281838 00025108MST7901004935/7931005831 0130                        00025103                                                                                                                                                                                                      
