00025103   O31A112511000025110201704040837100025110MMQ162155/7921000002         A  0002510300039140                                 S31790                              YCKE, MS. CHUI HONG, MICHELLE MI20170409        1N10003827420170511SEA.FPKLLIGHTING                                                       O   
00025103   O31A212511000025110201704040837100025110MMQ162155/7921000002         FOB0                              USD                                                        00039140201706030003914000039140                                            00038274                                                     
00025103   O31E112511000025110201704040837100025110MMQ162155/7921000002     0001EFUHV18D65A3                                                00750000  0000000012048400000010        SEA.FPKL7921000002                                                                                                                
00025103   O31E912511000025110201704040837 00025110MMQ162155/7921000002     0001                        00039140                                                                                                                                                                                                      
00025103   O31E112511000025110201704040837100025110MMQ162155/7921000002     0002EFUHV18L27A3                                                00100000  0000000012048400000010        SEA.FPKL7921000002                                                                                                                
00025103   O31E912511000025110201704040837 00025110MMQ162155/7921000002     0002                        00039140                                                                                                                                                                                                      
00025103   O31A112511000025110201704040837100025110MMQ162156/7921000001         A  0002510300039140                                 S31790                              YCKE, MS. CHUI HONG, MICHELLE MI20170409        1N10003827420170428SEA.FPKLLIGHTING                                                       O   
00025103   O31A212511000025110201704040837100025110MMQ162156/7921000001         FOB0                              USD                                                        00039140201705210003914000039140                                            00038274                                                     
00025103   O31E112511000025110201704040837100025110MMQ162156/7921000001     0001EFUHV18D65A3                                                00900000  0000000012048400000010        SEA.FPKL7921000001                                                                                                                
00025103   O31E912511000025110201704040837 00025110MMQ162156/7921000001     0001                        00039140                                                                                                                                                                                                      
00025103   O31E112511000025110201704040837100025110MMQ162156/7921000001     0002EFUHV18L27A3                                                00250000  0000000012048400000010        SEA.FPKL7921000001                                                                                                                
00025103   O31E912511000025110201704040837 00025110MMQ162156/7921000001     0002                        00039140                                                                                                                                                                                                      
