12000I     O31A112510800025108201807201935100025108MST7901000265/7931004929       10002510300039130                                 L31790                              YNR01-SG                        20180813         N 0003827420180726SEA.FLKGLIGHTING                                                       O   
12000I     O31A212510800025108201807201935100025108MST7901000265/7931004929     FOB                               USD                                                        00025103201808130002510300025103                                            00038274                                                     
12000I     O31A812510800025108201807201935100025108MST7901000265/7931004929     FOB                                                                                                                                                                                                                                   
12000I     O31E112510800025108201807201935100025108MST7901000265/7931004929 0010LDAHV12DH6T                                                 00100000PC000000000000120000001020180813SEA.FLKGMST7901000265/7931004929                                                                                                  
12000I     O31E912510800025108201807201935 00025108MST7901000265/7931004929 0010                        00025103                                                                                                                                                                                                      
12000I     O31E112510800025108201807201935100025108MST7901000265/7931004929 0020LDAHV12LH6T                                                 00040000PC000000000000120000001020180813SEA.FLKGMST7901000265/7931004929                                                                                                  
12000I     O31E912510800025108201807201935 00025108MST7901000265/7931004929 0020                        00025103                                                                                                                                                                                                      
12000I     O31E112510800025108201807201935100025108MST7901000265/7931004929 0030LDAHV15DH6T                                                 00060000PC000000000000120000001020180813SEA.FLKGMST7901000265/7931004929                                                                                                  
12000I     O31E912510800025108201807201935 00025108MST7901000265/7931004929 0030                        00025103                                                                                                                                                                                                      
12000I     O31E112510800025108201807201935100025108MST7901000265/7931004929 0040LDAHV15LH6T                                                 00030000PC000000000000120000001020180813SEA.FLKGMST7901000265/7931004929                                                                                                  
12000I     O31E912510800025108201807201935 00025108MST7901000265/7931004929 0040                        00025103                                                                                                                                                                                                      
12000I     O31E112510800025108201807201935100025108MST7901000265/7931004929 0050LDAHV3DH6T                                                  00080000PC000000000000120000001020180813SEA.FLKGMST7901000265/7931004929                                                                                                  
12000I     O31E912510800025108201807201935 00025108MST7901000265/7931004929 0050                        00025103                                                                                                                                                                                                      
12000I     O31E112510800025108201807201935100025108MST7901000265/7931004929 0060LDAHV3LH6T                                                  00046000PC000000000000120000001020180813SEA.FLKGMST7901000265/7931004929                                                                                                  
12000I     O31E912510800025108201807201935 00025108MST7901000265/7931004929 0060                        00025103                                                                                                                                                                                                      
12000I     O31E112510800025108201807201935100025108MST7901000265/7931004929 0070LDAHV5DH6T                                                  00145000PC000000000000120000001020180813SEA.FLKGMST7901000265/7931004929                                                                                                  
12000I     O31E912510800025108201807201935 00025108MST7901000265/7931004929 0070                        00025103                                                                                                                                                                                                      
12000I     O31E112510800025108201807201935100025108MST7901000265/7931004929 0080LDAHV5LH6T                                                  00060000PC000000000000120000001020180813SEA.FLKGMST7901000265/7931004929                                                                                                  
12000I     O31E912510800025108201807201935 00025108MST7901000265/7931004929 0080                        00025103                                                                                                                                                                                                      
12000I     O31E112510800025108201807201935100025108MST7901000265/7931004929 0090LDAHV7DH6T                                                  00290000PC000000000000120000001020180813SEA.FLKGMST7901000265/7931004929                                                                                                  
12000I     O31E912510800025108201807201935 00025108MST7901000265/7931004929 0090                        00025103                                                                                                                                                                                                      
12000I     O31E112510800025108201807201935100025108MST7901000265/7931004929 0100LDAHV7LH6T                                                  00080000PC000000000000120000001020180813SEA.FLKGMST7901000265/7931004929                                                                                                  
12000I     O31E912510800025108201807201935 00025108MST7901000265/7931004929 0100                        00025103                                                                                                                                                                                                      
12000I     O31E112510800025108201807201935100025108MST7901000265/7931004929 0110LDAHV9DH6T                                                  00190000PC000000000000120000001020180813SEA.FLKGMST7901000265/7931004929                                                                                                  
12000I     O31E912510800025108201807201935 00025108MST7901000265/7931004929 0110                        00025103                                                                                                                                                                                                      
12000I     O31E112510800025108201807201935100025108MST7901000265/7931004929 0120LDAHV9LH6T                                                  00050000PC000000000000120000001020180813SEA.FLKGMST7901000265/7931004929                                                                                                  
12000I     O31E912510800025108201807201935 00025108MST7901000265/7931004929 0120                        00025103                                                                                                                                                                                                      
