12000I     O31A112510800025108201808312235100025108MST7901001900/7931005189       10002510300039130                                 L31790                              YNR01-SG                        20180923         N 0003827420180905SEA.FLKGLIGHTING                                                       O   
12000I     O31A212510800025108201808312235100025108MST7901001900/7931005189     FOB0                              USD                                                        00025103201809230002510300025103                                            00038274                                                     
12000I     O31A812510800025108201808312235100025108MST7901001900/7931005189     FOB                                                                                                                                                                                                                                   
12000I     O31E112510800025108201808312235100025108MST7901001900/7931005189 0010EFDHV15D65T1                                                00049920  000000000000120000001020180923SEA.FLKGMST7901001900/7931005189                                                                                                  
12000I     O31E912510800025108201808312235 00025108MST7901001900/7931005189 0010                        00025103                                                                                                                                                                                                      
12000I     O31E112510800025108201808312235100025108MST7901001900/7931005189 0020EFDHV15L27T1                                                00009600  000000000000120000001020180923SEA.FLKGMST7901001900/7931005189                                                                                                  
12000I     O31E912510800025108201808312235 00025108MST7901001900/7931005189 0020                        00025103                                                                                                                                                                                                      
12000I     O31E112510800025108201808312235100025108MST7901001900/7931005189 0030EFDHV23D65T1                                                00001920  000000000000120000001020180923SEA.FLKGMST7901001900/7931005189                                                                                                  
12000I     O31E912510800025108201808312235 00025108MST7901001900/7931005189 0030                        00025103                                                                                                                                                                                                      
12000I     O31E112510800025108201808312235100025108MST7901001900/7931005189 0040EFDHV25D65T                                                 00299520  000000000014820000001020180923SEA.FLKGMST7901001900/7931005189                                                                                                  
12000I     O31E912510800025108201808312235 00025108MST7901001900/7931005189 0040                        00025103                                                                                                                                                                                                      
12000I     O31E112510800025108201808312235100025108MST7901001900/7931005189 0050EFDHV42D65A                                                 00009840  000000000000120000001020180923SEA.FLKGMST7901001900/7931005189                                                                                                  
12000I     O31E912510800025108201808312235 00025108MST7901001900/7931005189 0050                        00025103                                                                                                                                                                                                      
12000I     O31E112510800025108201808312235100025108MST7901001900/7931005189 0060EFU14E652V1                                                 00050000  000000000000120000001020180923SEA.FLKGMST7901001900/7931005189                                                                                                  
12000I     O31E912510800025108201808312235 00025108MST7901001900/7931005189 0060                        00025103                                                                                                                                                                                                      
12000I     O31E112510800025108201808312235100025108MST7901001900/7931005189 0070EFUHV23D65A                                                 00001000  000000000000120000001020180923SEA.FLKGMST7901001900/7931005189                                                                                                  
12000I     O31E912510800025108201808312235 00025108MST7901001900/7931005189 0070                        00025103                                                                                                                                                                                                      
