12000I     O31A112510800025108201901311906100025108MST7901006258/7931006000       10002510300039130                                 L31790                              YNR01-SG                        20190310         N 0003827420190220SEA.FLKGLIGHTING                                                       O   
12000I     O31A212510800025108201901311906100025108MST7901006258/7931006000     FOB0                              USD                                                        00025103201903100002510300025103                                            00038274                                                     
12000I     O31A812510800025108201901311906100025108MST7901006258/7931006000     FOB                                                                                                                                                                                                                                   
12000I     O31E112510800025108201901311906100025108MST7901006258/7931006000 0010LDTHV11D65GA1                                               00090000  000000000000120000001020190310SEA.FLKGMST7901006258/7931006000                                                                                                  
12000I     O31E912510800025108201901311906 00025108MST7901006258/7931006000 0010                        00025103                                                                                                                                                                                                      
12000I     O31E112510800025108201901311906100025108MST7901006258/7931006000 0020LDTHV11L30GA1                                               00030000  000000000000120000001020190310SEA.FLKGMST7901006258/7931006000                                                                                                  
12000I     O31E912510800025108201901311906 00025108MST7901006258/7931006000 0020                        00025103                                                                                                                                                                                                      
12000I     O31E112510800025108201901311906100025108MST7901006258/7931006000 0030LDTHV7D65GA1                                                00070000  000000000000120000001020190310SEA.FLKGMST7901006258/7931006000                                                                                                  
12000I     O31E912510800025108201901311906 00025108MST7901006258/7931006000 0030                        00025103                                                                                                                                                                                                      
12000I     O31E112510800025108201901311906100025108MST7901006258/7931006000 0040LDTHV7L30GA1                                                00020000  000000000000120000001020190310SEA.FLKGMST7901006258/7931006000                                                                                                  
12000I     O31E912510800025108201901311906 00025108MST7901006258/7931006000 0040                        00025103                                                                                                                                                                                                      
