00025103   O31A112510800025108201611070304100025108MST150998/7931000307         A  0002510300039130                                 S31790                              NCKE, MS. CHUI HONG, MICHELLE MI20161122        1N10003827420161125SEA.FLKGLIGHTING                                                       O   
00025103   O31A212510800025108201611070304100025108MST150998/7931000307         FOB0                              USD                                                        00039130201612060003913000039130SCMM                                        00038274                                                     
00025103   O31E112510800025108201611070304100025108MST150998/7931000307     0001EFDHV20D65T                                                 00000960  000000000015420000001020161129SEA.FLKG7931000307                                                                                                                
00025103   O31E912510800025108201611070304 00025108MST150998/7931000307     0001                        00039130                                                                                                                                                                                                      
00025103   O31E112510800025108201611070304100025108MST150998/7931000307     0002EFDHV23D65T                                                 00000960  000000000015420000001020161129SEA.FLKG7931000307                                                                                                                
00025103   O31E912510800025108201611070304 00025108MST150998/7931000307     0002                        00039130                                                                                                                                                                                                      
00025103   O31E112510800025108201611070304100025108MST150998/7931000307     0003EFDHV25L27T                                                 00000960  000000000015420000001020161129SEA.FLKG7931000307                                                                                                                
00025103   O31E912510800025108201611070304 00025108MST150998/7931000307     0003                        00039130                                                                                                                                                                                                      
