00025103   O31A112511300025113201802261049100025113MNZ172220/P89164             A  0002510300029671                                 S31790ERASMUSJ                      NCKE, MS. CHUI HONG, MICHELLE MI20180313        1N10003827420180325SEA.FAKLLIGHTING                                                       O   
00025103   O31A212511300025113201802261049100025113MNZ172220/P89164             FOB0                              USD                                                                20180420                SCMM                                        00038274                                                     
00025103   O31E112511300025113201802261049100025113MNZ172220/P89164         0001LDAHV10DG4BA        LDAHV10DG4BA                            00002500  0000000000000000000010                                         ATP Auto Generate                                                                                
00025103   O31E112511300025113201802261049100025113MNZ172220/P89164         0002LDAHV10LG4BA        LDAHV10LG4BA                            00002500  0000000000000000000010                                         ATP Auto Generate                                                                                
00025103   O31A112510800025108201802261149100025108MST172270/7931004035         A  0002510300039130                                 S31790                              NCKE, MS. CHUI HONG, MICHELLE MI20180313        1N10003827420180325SEA.FLKGLIGHTING                                                       O   
00025103   O31A212510800025108201802261149100025108MST172270/7931004035         FOB0                              USD                                                        00039130201804100003913000039130SCMM                                        00038274                                                     
00025103   O31E112510800025108201802261149100025108MST172270/7931004035     0001EFDHV11D65T                                                 00019200  000000000000000000001020180403SEA.FLKG7931004035                                                                                                                
00025103   O31E912510800025108201802261149 00025108MST172270/7931004035     0001                        00039130                                                                                                                                                                                                      
00025103   O31E112510800025108201802261149100025108MST172270/7931004035     0002EFDHV15D65T1                                                00249600  000000000000000000001020180403SEA.FLKG7931004035                                                                                                                
00025103   O31E912510800025108201802261149 00025108MST172270/7931004035     0002                        00039130                                                                                                                                                                                                      
00025103   O31E112510800025108201802261149100025108MST172270/7931004035     0003EFDHV15L27T1                                                00044160  000000000000000000001020180403SEA.FLKG7931004035                                                                                                                
00025103   O31E912510800025108201802261149 00025108MST172270/7931004035     0003                        00039130                                                                                                                                                                                                      
00025103   O31E112510800025108201802261149100025108MST172270/7931004035     0004EFDHV20D65T1                                                00056640  000000000000000000001020180403SEA.FLKG7931004035                                                                                                                
00025103   O31E912510800025108201802261149 00025108MST172270/7931004035     0004                        00039130                                                                                                                                                                                                      
00025103   O31E112510800025108201802261149100025108MST172270/7931004035     0005EFDHV23D65T1                                                00036480  000000000000000000001020180403SEA.FLKG7931004035                                                                                                                
00025103   O31E912510800025108201802261149 00025108MST172270/7931004035     0005                        00039130                                                                                                                                                                                                      
00025103   O31E112510800025108201802261149100025108MST172270/7931004035     0006EFDHV25D65T                                                 01699200  000000000000000000001020180403SEA.FLKG7931004035                                                                                                                
00025103   O31E912510800025108201802261149 00025108MST172270/7931004035     0006                        00039130                                                                                                                                                                                                      
00025103   O31E112510800025108201802261149100025108MST172270/7931004035     0007EFDHV25L27T                                                 00062400  000000000000000000001020180403SEA.FLKG7931004035                                                                                                                
00025103   O31E912510800025108201802261149 00025108MST172270/7931004035     0007                        00039130                                                                                                                                                                                                      
00025103   O31E112510800025108201802261149100025108MST172270/7931004035     0008EFDHV32D65A                                                 00017760  000000000000000000001020180403SEA.FLKG7931004035                                                                                                                
00025103   O31E912510800025108201802261149 00025108MST172270/7931004035     0008                        00039130                                                                                                                                                                                                      
00025103   O31E112510800025108201802261149100025108MST172270/7931004035     0009EFDHV42D65A                                                 00074640  000000000000000000001020180403SEA.FLKG7931004035                                                                                                                
00025103   O31E912510800025108201802261149 00025108MST172270/7931004035     0009                        00039130                                                                                                                                                                                                      
00025103   O31E112510800025108201802261149100025108MST172270/7931004035     0010EFU11E652V                                                  00055000  000000000000000000001020180403SEA.FLKG7931004035                                                                                                                
00025103   O31E912510800025108201802261149 00025108MST172270/7931004035     0010                        00039130                                                                                                                                                                                                      
00025103   O31E112510800025108201802261149100025108MST172270/7931004035     0011EFU14E272V1                                                 00150000  000000000000000000001020180403SEA.FLKG7931004035                                                                                                                
00025103   O31E912510800025108201802261149 00025108MST172270/7931004035     0011                        00039130                                                                                                                                                                                                      
00025103   O31E112510800025108201802261149100025108MST172270/7931004035     0012EFU14E652V1                                                 00600000  000000000000000000001020180403SEA.FLKG7931004035                                                                                                                
00025103   O31E912510800025108201802261149 00025108MST172270/7931004035     0012                        00039130                                                                                                                                                                                                      
00025103   O31E112510800025108201802261149100025108MST172270/7931004035     0013EFU8E652V1                                                  00210000  000000000000000000001020180403SEA.FLKG7931004035                                                                                                                
00025103   O31E912510800025108201802261149 00025108MST172270/7931004035     0013                        00039130                                                                                                                                                                                                      
00025103   O31E112510800025108201802261149100025108MST172270/7931004035     0014EFUHV18D65A                                                 00380000  000000000000000000001020180403SEA.FLKG7931004035                                                                                                                
00025103   O31E912510800025108201802261149 00025108MST172270/7931004035     0014                        00039130                                                                                                                                                                                                      
00025103   O31E112510800025108201802261149100025108MST172270/7931004035     0015EFUHV18L27A                                                 00022000  000000000000000000001020180403SEA.FLKG7931004035                                                                                                                
00025103   O31E912510800025108201802261149 00025108MST172270/7931004035     0015                        00039130                                                                                                                                                                                                      
00025103   O31E112510800025108201802261149100025108MST172270/7931004035     0016EFUHV23D65A                                                 00055000  000000000000000000001020180403SEA.FLKG7931004035                                                                                                                
00025103   O31E912510800025108201802261149 00025108MST172270/7931004035     0016                        00039130                                                                                                                                                                                                      
00025103   O31E112510800025108201802261149100025108MST172270/7931004035     0017LDR400N                                                     00012000  000000000000000000001020180403SEA.FLKG7931004035                                                                                                                
00025103   O31E912510800025108201802261149 00025108MST172270/7931004035     0017                        00039130                                                                                                                                                                                                      
00025103   O31A112510800025108201802261149100025108MST172283/7931004034         A  0002510300039130                                 L31790                              NCKE, MS. CHUI HONG, MICHELLE MI20180313        1N10003827420180325SEA.FLKGLIGHTING                                                       O   
00025103   O31A212510800025108201802261149100025108MST172283/7931004034         FOB0                              USD                                                        00039130201804100003913000039130SCMM                                        00038274                                                     
00025103   O31E112510800025108201802261149100025108MST172283/7931004034     0001LDAHV3DH6A                                                  00030000  000000000000000000001020180403SEA.FLKG7931004034                                                                                                                
00025103   O31E912510800025108201802261149 00025108MST172283/7931004034     0001                        00039130                                                                                                                                                                                                      
00025103   O31E112510800025108201802261149100025108MST172283/7931004034     0002LDAHV3LH6A                                                  00030000  000000000000000000001020180403SEA.FLKG7931004034                                                                                                                
00025103   O31E912510800025108201802261149 00025108MST172283/7931004034     0002                        00039130                                                                                                                                                                                                      
00025103   O31E112510800025108201802261149100025108MST172283/7931004034     0003LDAHV5DH6A                                                  00135000  000000000000000000001020180403SEA.FLKG7931004034                                                                                                                
00025103   O31E912510800025108201802261149 00025108MST172283/7931004034     0003                        00039130                                                                                                                                                                                                      
00025103   O31E112510800025108201802261149100025108MST172283/7931004034     0004LDAHV5LH6A                                                  00060000  000000000000000000001020180403SEA.FLKG7931004034                                                                                                                
00025103   O31E912510800025108201802261149 00025108MST172283/7931004034     0004                        00039130                                                                                                                                                                                                      
00025103   O31E112510800025108201802261149100025108MST172283/7931004034     0005LDAHV7DH6A                                                  00300000  000000000000000000001020180403SEA.FLKG7931004034                                                                                                                
00025103   O31E912510800025108201802261149 00025108MST172283/7931004034     0005                        00039130                                                                                                                                                                                                      
00025103   O31E112510800025108201802261149100025108MST172283/7931004034     0006LDAHV7LH6A                                                  00130000  000000000000000000001020180403SEA.FLKG7931004034                                                                                                                
00025103   O31E912510800025108201802261149 00025108MST172283/7931004034     0006                        00039130                                                                                                                                                                                                      
00025103   O31E112510800025108201802261149100025108MST172283/7931004034     0007LDAHV9DH6A                                                  00200000  000000000000000000001020180403SEA.FLKG7931004034                                                                                                                
00025103   O31E912510800025108201802261149 00025108MST172283/7931004034     0007                        00039130                                                                                                                                                                                                      
00025103   O31E112510800025108201802261149100025108MST172283/7931004034     0008LDAHV9LH6A                                                  00070000  000000000000000000001020180403SEA.FLKG7931004034                                                                                                                
00025103   O31E912510800025108201802261149 00025108MST172283/7931004034     0008                        00039130                                                                                                                                                                                                      
00025103   O31E112510800025108201802261149100025108MST172283/7931004034     0009LDS300D2N                                                   00005000  000000000000000000001020180403SEA.FLKG7931004034                                                                                                                
00025103   O31E912510800025108201802261149 00025108MST172283/7931004034     0009                        00039130                                                                                                                                                                                                      
