00025103   O31A112510800025108201606131034100025108MST153695/7931000022         A  0002510300039130                                 S31790                              YCKE, MS. CHUI HONG, MICHELLE MI20160618        1N10003827420160613SEA.FLKGLIGHTING                                                       O   
00025103   O31A212510800025108201606131034100025108MST153695/7931000022         FOB0                              USD                                                        00039130201607010003913000039130                                            00038274                                                     
00025103   O31E112510800025108201606131034100025108MST153695/7931000022     0001EFDHV15D65T                                                 00316800  0000000012239400000010        SEA.FLKG7931000022                                                                                                                
00025103   O31E912510800025108201606131034 00025108MST153695/7931000022     0001                        00039130                                                                                                                                                                                                      
00025103   O31E112510800025108201606131034100025108MST153695/7931000022     0002EFDHV20D65T                                                 00086400  0000000000152200000010        SEA.FLKG7931000022                                                                                                                
00025103   O31E912510800025108201606131034 00025108MST153695/7931000022     0002                        00039130                                                                                                                                                                                                      
00025103   O31E112510800025108201606131034100025108MST153695/7931000022     0003EFDHV23D65T                                                 00031680  0000000000152200000010        SEA.FLKG7931000022                                                                                                                
00025103   O31E912510800025108201606131034 00025108MST153695/7931000022     0003                        00039130                                                                                                                                                                                                      
00025103   O31E112510800025108201606131034100025108MST153695/7931000022     0004EFDHV25D65T                                                 01497600  0000000000152200000010        SEA.FLKG7931000022                                                                                                                
00025103   O31E912510800025108201606131034 00025108MST153695/7931000022     0004                        00039130                                                                                                                                                                                                      
00025103   O31A112510800025108201606131034100025108MST153696/7931000024         A  0002510300039130                                 S31790                              YCKE, MS. CHUI HONG, MICHELLE MI20160618        1N10003827420160622SEA.FLKGLIGHTING                                                       O   
00025103   O31A212510800025108201606131034100025108MST153696/7931000024         FOB0                              USD                                                        00039130201607100003913000039130                                            00038274                                                     
00025103   O31E112510800025108201606131034100025108MST153696/7931000024     0001EFDHV23D65T                                                 00048000  0000000000152200000010        SEA.FLKG7931000024                                                                                                                
00025103   O31E912510800025108201606131034 00025108MST153696/7931000024     0001                        00039130                                                                                                                                                                                                      
00025103   O31E112510800025108201606131034100025108MST153696/7931000024     0002EFDHV25D65T                                                 00480000  0000000000152200000010        SEA.FLKG7931000024                                                                                                                
00025103   O31E912510800025108201606131034 00025108MST153696/7931000024     0002                        00039130                                                                                                                                                                                                      
00025103   O31A112510800025108201606131034100025108MST153697/7931000023         A  0002510300039130                                 S31790                              YCKE, MS. CHUI HONG, MICHELLE MI20160618        1N10003827420160613SEA.FLKGLIGHTING                                                       O   
00025103   O31A212510800025108201606131034100025108MST153697/7931000023         FOB0                              USD                                                        00039130201607010003913000039130                                            00038274                                                     
00025103   O31E112510800025108201606131034100025108MST153697/7931000023     0001EFU14E272V                                                  00110000  0000000013083400000010        SEA.FLKG7931000023                                                                                                                
00025103   O31E912510800025108201606131034 00025108MST153697/7931000023     0001                        00039130                                                                                                                                                                                                      
00025103   O31E112510800025108201606131034100025108MST153697/7931000023     0002EFU14E652V                                                  00550000  0000000013083400000010        SEA.FLKG7931000023                                                                                                                
00025103   O31E912510800025108201606131034 00025108MST153697/7931000023     0002                        00039130                                                                                                                                                                                                      
00025103   O31E112510800025108201606131034100025108MST153697/7931000023     0003EFU8E652V                                                   00120000  0000000011971400000010        SEA.FLKG7931000023                                                                                                                
00025103   O31E912510800025108201606131034 00025108MST153697/7931000023     0003                        00039130                                                                                                                                                                                                      
00025103   O31E112510800025108201606131034100025108MST153697/7931000023     0004EFUHV18D65A                                                 00330000  0000000013423400000010        SEA.FLKG7931000023                                                                                                                
00025103   O31E912510800025108201606131034 00025108MST153697/7931000023     0004                        00039130                                                                                                                                                                                                      
00025103   O31A112511300025113201606140932100025113MNZ153700/P83813             A  0002510300029671                                 S31790                              YCKE, MS. CHUI HONG, MICHELLE MI20160619        1N10003827420160618SEA.FAKLLIGHTING                                                       O   
00025103   O31A212511300025113201606140932100025113MNZ153700/P83813             FOB0                              USD                                                                20160720                                                            00038274                                                     
00025103   O31E112511300025113201606140932100025113MNZ153700/P83813         0001LDAHV11DH3A2        LDAHV11DH3A2                            00020000  0000000032571400000010                                                                                                                                          
00025103   O31E112511300025113201606140932100025113MNZ153700/P83813         0002LDAHV11DH3BA2       LDAHV11DH3BA2                           00020000  0000000032571400000010                                                                                                                                          
00025103   O31E112511300025113201606140932100025113MNZ153700/P83813         0003LDAHV11LH3A2        LDAHV11LH3A2                            00020000  0000000032571400000010                                                                                                                                          
00025103   O31E112511300025113201606140932100025113MNZ153700/P83813         0004LDAHV11LH3BA2       LDAHV11LH3BA2                           00020000  0000000032571400000010                                                                                                                                          
