00025103   O31A112510800025108201605301140100025108MST153250/LIGH-141621        A  0002510300039130                                 S31790                              NCKE, MS. CHUI HONG, MICHELLE MI20160614        1N10003827420160625SEA.FLKGLIGHTING                                                       O   
00025103   O31A212510800025108201605301140100025108MST153250/LIGH-141621        FOB0                              USD                                                                20160710                SCMM                                        00038274                                                     
00025103   O31E112510800025108201605301140100025108MST153250/LIGH-141621    0001EFDHV15D65T         EFDHV15D65T                             00316800  0000000012239400000010                LIGH-141621                                                                                                               
00025103   O31E112510800025108201605301140100025108MST153250/LIGH-141621    0002EFDHV20D65T         EFDHV20D65T                             00086400  0000000000152200000010                LIGH-141621                                                                                                               
00025103   O31E112510800025108201605301140100025108MST153250/LIGH-141621    0003EFDHV23D65T         EFDHV23D65T                             00031680  0000000000152200000010                LIGH-141621                                                                                                               
00025103   O31E112510800025108201605301140100025108MST153250/LIGH-141621    0004EFDHV25D65T         EFDHV25D65T                             01497600  0000000000152200000010                LIGH-141621                                                                                                               
00025103   O31E112510800025108201605301140100025108MST153250/LIGH-141621    0005EFU14E272V          EFU14E272V                              00110000  0000000013083400000010                LIGH-141621                                                                                                               
00025103   O31E112510800025108201605301140100025108MST153250/LIGH-141621    0006EFU14E652V          EFU14E652V                              00550000  0000000013083400000010                LIGH-141621                                                                                                               
00025103   O31E112510800025108201605301140100025108MST153250/LIGH-141621    0007EFU8E652V           EFU8E652V                               00120000  0000000011971400000010                LIGH-141621                                                                                                               
00025103   O31E112510800025108201605301140100025108MST153250/LIGH-141621    0008EFUHV18D65A         EFUHV18D65A                             00330000  0000000013423400000010                LIGH-141621                                                                                                               
00025103   O31E112510800025108201605301140100025108MST153250/LIGH-141621    0009LDAHV10DG4A         LDAHV10DG4A                             00100000  0000000023537400000010                LIGH-141621                                                                                                               
00025103   O31E112510800025108201605301140100025108MST153250/LIGH-141621    0010LDAHV12DG4A         LDAHV12DG4A                             00070000  0000000029136400000010                LIGH-141621                                                                                                               
00025103   O31E112510800025108201605301140100025108MST153250/LIGH-141621    0011LDAHV12LG4A         LDAHV12LG4A                             00050000  0000000029136400000010                LIGH-141621                                                                                                               
00025103   O31E112510800025108201605301140100025108MST153250/LIGH-141621    0012LDAHV2DG4A          LDAHV2DG4A                              00050000  0000000009415400000010                LIGH-141621                                                                                                               
00025103   O31E112510800025108201605301140100025108MST153250/LIGH-141621    0013LDAHV2LG4A          LDAHV2LG4A                              00050000  0000000009415400000010                LIGH-141621                                                                                                               
00025103   O31E112510800025108201605301140100025108MST153250/LIGH-141621    0014LDAHV4DG4A          LDAHV4DG4A                              00216000  0000000011021400000010                LIGH-141621                                                                                                               
00025103   O31E112510800025108201605301140100025108MST153250/LIGH-141621    0015LDAHV7DG4A          LDAHV7DG4A                              00144000  0000000015609400000010                LIGH-141621                                                                                                               
00025103   O31E112510800025108201605301140100025108MST153250/LIGH-141621    0016LDAHV7LG4A          LDAHV7LG4A                              00063000  0000000015609400000010                LIGH-141621                                                                                                               
00025103   O31E112510800025108201605301140100025108MST153250/LIGH-141621    0017LDAHV8DG4A          LDAHV8DG4A                              00270000  0000000020069400000010                LIGH-141621                                                                                                               
00025103   O31E112510800025108201605301140100025108MST153250/LIGH-141621    0018LDAHV8LG4A          LDAHV8LG4A                              00063000  0000000020069400000010                LIGH-141621                                                                                                               
