00025103   O31A112510700025107201709291239100025107MPH168234/7961002917         A  0002510300029474                                 L31790                              YCKE, MS. CHUI HONG, MICHELLE MI20171004        1N10003827420171010SEA.FMNLLIGHTING                                                       O   
00025103   O31A212510700025107201709291239100025107MPH168234/7961002917         FOB0                              USD                                                        00029474201711110002947400029474                                            00038274                                                     
00025103   O31E112510700025107201709291239100025107MPH168234/7961002917     0001LDAHV3DH6A                                                  00100000  0000000007994400000010        SEA.FMNL7961002917                                                                                                                
00025103   O31E912510700025107201709291239 00025107MPH168234/7961002917     0001                        00029474                                                                                                                                                                                                      
00025103   O31E112510700025107201709291239100025107MPH168234/7961002917     0002LDAHV7DH6A                                                  00100000  0000000000012100000010        SEA.FMNL7961002917                                                                                                                
00025103   O31E912510700025107201709291239 00025107MPH168234/7961002917     0002                        00029474                                                                                                                                                                                                      
00025103   O31E112510700025107201709291239100025107MPH168234/7961002917     0003LDAHV9DH6A                                                  00100000  0000000000132200000010        SEA.FMNL7961002917                                                                                                                
00025103   O31E912510700025107201709291239 00025107MPH168234/7961002917     0003                        00029474                                                                                                                                                                                                      
