00025103   O31A112510800025108201703131137100025108MST161419/7931001872         A  0002510300039130                                 S31790                              YCKE, MS. CHUI HONG, MICHELLE MI20170318        1N10003827420170325SEA.FLKGLIGHTING                                                       O   
00025103   O31A212510800025108201703131137100025108MST161419/7931001872         FOB0                              USD                                                        00039130201704120003913000039130                                            00038274                                                     
00025103   O31E112510800025108201703131137100025108MST161419/7931001872     0001EFDHV15D65T1                                                00089280  000000000000000000001020170405SEA.FLKG7931001872                                                                                                                
00025103   O31E912510800025108201703131137 00025108MST161419/7931001872     0001                        00039130                                                                                                                                                                                                      
00025103   O31E112510800025108201703131137100025108MST161419/7931001872     0002EFDHV15L27T1                                                00059520  000000000000000000001020170405SEA.FLKG7931001872                                                                                                                
00025103   O31E912510800025108201703131137 00025108MST161419/7931001872     0002                        00039130                                                                                                                                                                                                      
00025103   O31E112510800025108201703131137100025108MST161419/7931001872     0003EFDHV25D65T                                                 00799680  000000000000000000001020170405SEA.FLKG7931001872                                                                                                                
00025103   O31E912510800025108201703131137 00025108MST161419/7931001872     0003                        00039130                                                                                                                                                                                                      
00025103   O31E112510800025108201703131137100025108MST161419/7931001872     0004EFDHV32D65A                                                 00014880  000000000000000000001020170405SEA.FLKG7931001872                                                                                                                
00025103   O31E912510800025108201703131137 00025108MST161419/7931001872     0004                        00039130                                                                                                                                                                                                      
00025103   O31E112510800025108201703131137100025108MST161419/7931001872     0005EFU14E272V1                                                 00100000  000000000000000000001020170405SEA.FLKG7931001872                                                                                                                
00025103   O31E912510800025108201703131137 00025108MST161419/7931001872     0005                        00039130                                                                                                                                                                                                      
00025103   O31E112510800025108201703131137100025108MST161419/7931001872     0006EFU14E652V1                                                 00100000  000000000000000000001020170405SEA.FLKG7931001872                                                                                                                
00025103   O31E912510800025108201703131137 00025108MST161419/7931001872     0006                        00039130                                                                                                                                                                                                      
00025103   O31E112510800025108201703131137100025108MST161419/7931001872     0007EFU8E652V1                                                  00080000  000000000000000000001020170405SEA.FLKG7931001872                                                                                                                
00025103   O31E912510800025108201703131137 00025108MST161419/7931001872     0007                        00039130                                                                                                                                                                                                      
