12000I     O31A112510700025107201810051640100025107MPH7901002861/7961006035       10002510300029474                                 L31790                              YNR01-SG                        20181123         N 0003827420181022SEA.FMNLLIGHTING                                                       O   
12000I     O31A212510700025107201810051640100025107MPH7901002861/7961006035     FOB0                              USD                                                        00025103201811230002510300025103                                            00038274                                                     
12000I     O31A812510700025107201810051640100025107MPH7901002861/7961006035     FOB                                                                                                                                                                                                                                   
12000I     O31E112510700025107201810051640100025107MPH7901002861/7961006035 0010LDAHV12DH5T                                                 00100000  000000000000120000001020181123SEA.FMNLMPH7901002861/7961006035                                                                                                  
12000I     O31E912510700025107201810051640 00025107MPH7901002861/7961006035 0010                        00025103                                                                                                                                                                                                      
12000I     O31E112510700025107201810051640100025107MPH7901002861/7961006035 0020LDAHV15DH5T                                                 00070000  000000000000120000001020181123SEA.FMNLMPH7901002861/7961006035                                                                                                  
12000I     O31E912510700025107201810051640 00025107MPH7901002861/7961006035 0020                        00025103                                                                                                                                                                                                      
12000I     O31A112510700025107201810051640100025107MPH7901002862/7961006033       10002510300029474                                 L31790                              YNR01-SG                        20181123         N 0003827420181022SEA.FMNLLIGHTING                                                       O   
12000I     O31A212510700025107201810051640100025107MPH7901002862/7961006033     FOB0                              USD                                                        00025103201811230002510300025103                                            00038274                                                     
12000I     O31A812510700025107201810051640100025107MPH7901002862/7961006033     FOB                                                                                                                                                                                                                                   
12000I     O31E112510700025107201810051640100025107MPH7901002862/7961006033 0010EFUHV11D65A                                                 00060000  000000000000120000001020181123SEA.FMNLMPH7901002862/7961006033                                                                                                  
12000I     O31E912510700025107201810051640 00025107MPH7901002862/7961006033 0010                        00025103                                                                                                                                                                                                      
12000I     O31E112510700025107201810051640100025107MPH7901002862/7961006033 0020EFUHV23D65A3                                                00060000  000000000000120000001020181123SEA.FMNLMPH7901002862/7961006033                                                                                                  
12000I     O31E912510700025107201810051640 00025107MPH7901002862/7961006033 0020                        00025103                                                                                                                                                                                                      
12000I     O31E112510700025107201810051640100025107MPH7901002862/7961006033 0030EFUHV8D65A                                                  00060000  000000000000120000001020181123SEA.FMNLMPH7901002862/7961006033                                                                                                  
12000I     O31E912510700025107201810051640 00025107MPH7901002862/7961006033 0030                        00025103                                                                                                                                                                                                      
12000I     O31A112510700025107201810051640100025107MPH7901002863/7961006034       10002510300029474                                 L31790                              YNR01-SG                        20181123         N 0003827420181022SEA.FMNLLIGHTING                                                       O   
12000I     O31A212510700025107201810051640100025107MPH7901002863/7961006034     FOB0                              USD                                                        00025103201811230002510300025103                                            00038274                                                     
12000I     O31A812510700025107201810051640100025107MPH7901002863/7961006034     FOB                                                                                                                                                                                                                                   
12000I     O31E112510700025107201810051640100025107MPH7901002863/7961006034 0010LDAHV3DH6A                                                  00050000  000000000000120000001020181123SEA.FMNLMPH7901002863/7961006034                                                                                                  
12000I     O31E912510700025107201810051640 00025107MPH7901002863/7961006034 0010                        00025103                                                                                                                                                                                                      
12000I     O31E112510700025107201810051640100025107MPH7901002863/7961006034 0020LDAHV5DH6A                                                  00050000  000000000000120000001020181123SEA.FMNLMPH7901002863/7961006034                                                                                                  
12000I     O31E912510700025107201810051640 00025107MPH7901002863/7961006034 0020                        00025103                                                                                                                                                                                                      
12000I     O31E112510700025107201810051640100025107MPH7901002863/7961006034 0030LDAHV7DH6A                                                  00050000  000000000000120000001020181123SEA.FMNLMPH7901002863/7961006034                                                                                                  
12000I     O31E912510700025107201810051640 00025107MPH7901002863/7961006034 0030                        00025103                                                                                                                                                                                                      
12000I     O31E112510700025107201810051640100025107MPH7901002863/7961006034 0040LDAHV9DH6A                                                  00002000  000000000000120000001020181123SEA.FMNLMPH7901002863/7961006034                                                                                                  
12000I     O31E912510700025107201810051640 00025107MPH7901002863/7961006034 0040                        00025103                                                                                                                                                                                                      
