00025103   O31A112510700025107201712281239100025107MPH170904/7961003672         A  0002510300029474                                 L31790                              YCKE, MS. CHUI HONG, MICHELLE MI20180102        1N10003827420180109SEA.FMNLLIGHTING                                                       O   
00025103   O31A212510700025107201712281239100025107MPH170904/7961003672         FOB0                              USD                                                        00029474201802100002947400029474                                            00038274                                                     
00025103   O31E112510700025107201712281239100025107MPH170904/7961003672     0001LDAHV5DH6A                                                  00100000  0000000000983300000010        SEA.FMNL7961003672                                                                                                                
00025103   O31E912510700025107201712281239 00025107MPH170904/7961003672     0001                        00029474                                                                                                                                                                                                      
00025103   O31E112510700025107201712281239100025107MPH170904/7961003672     0002LDAHV7DH6A                                                  00030000  0000000000114200000010        SEA.FMNL7961003672                                                                                                                
00025103   O31E912510700025107201712281239 00025107MPH170904/7961003672     0002                        00029474                                                                                                                                                                                                      
00025103   O31E112510700025107201712281239100025107MPH170904/7961003672     0003LDAHV9DH6A                                                  00040000  0000000001254300000010        SEA.FMNL7961003672                                                                                                                
00025103   O31E912510700025107201712281239 00025107MPH170904/7961003672     0003                        00029474                                                                                                                                                                                                      
