12000I     O31A112510700025107201906031840100025107MPH7901009843/7961007652       10002510300029474                                 L31790                              YNR01-SG                        20190705         N 0003827420190603SEA.FMNLLIGHTING                                                       O   
12000I     O31A212510700025107201906031840100025107MPH7901009843/7961007652     FOB0                              USD                                                        00025103201907050002510300025103                                            00038274                                                     
12000I     O31A812510700025107201906031840100025107MPH7901009843/7961007652     FOB                                                                                                                                                                                                                                   
12000I     O31E112510700025107201906031840100025107MPH7901009843/7961007652 0010EFUHV14D65A                                                 00090000  000000000000120000001020190705SEA.FMNLMPH7901009843/7961007652                                                                                                  
12000I     O31E912510700025107201906031840 00025107MPH7901009843/7961007652 0010                        00025103                                                                                                                                                                                                      
12000I     O31E112510700025107201906031840100025107MPH7901009843/7961007652 0020EFUHV11D65A                                                 00090000  000000000000120000001020190705SEA.FMNLMPH7901009843/7961007652                                                                                                  
12000I     O31E912510700025107201906031840 00025107MPH7901009843/7961007652 0020                        00025103                                                                                                                                                                                                      
12000I     O31E112510700025107201906031840100025107MPH7901009843/7961007652 0030EFUHV18D65A3                                                00090000  000000000000120000001020190705SEA.FMNLMPH7901009843/7961007652                                                                                                  
12000I     O31E912510700025107201906031840 00025107MPH7901009843/7961007652 0030                        00025103                                                                                                                                                                                                      
12000I     O31E112510700025107201906031840100025107MPH7901009843/7961007652 0040EFUHV8D65A                                                  00090000  000000000000120000001020190705SEA.FMNLMPH7901009843/7961007652                                                                                                  
12000I     O31E912510700025107201906031840 00025107MPH7901009843/7961007652 0040                        00025103                                                                                                                                                                                                      
12000I     O31E112510700025107201906031840100025107MPH7901009843/7961007652 0050LDAHV5DH6T                                                  00075000  000000000000120000001020190705SEA.FMNLMPH7901009843/7961007652                                                                                                  
12000I     O31E912510700025107201906031840 00025107MPH7901009843/7961007652 0050                        00025103                                                                                                                                                                                                      
12000I     O31E112510700025107201906031840100025107MPH7901009843/7961007652 0060LDAHV5LH6T                                                  00010000  000000000000120000001020190705SEA.FMNLMPH7901009843/7961007652                                                                                                  
12000I     O31E912510700025107201906031840 00025107MPH7901009843/7961007652 0060                        00025103                                                                                                                                                                                                      
12000I     O31E112510700025107201906031840100025107MPH7901009843/7961007652 0070LDAHV7DH6T                                                  00074000  000000000000120000001020190705SEA.FMNLMPH7901009843/7961007652                                                                                                  
12000I     O31E912510700025107201906031840 00025107MPH7901009843/7961007652 0070                        00025103                                                                                                                                                                                                      
12000I     O31E112510700025107201906031840100025107MPH7901009843/7961007652 0080LDAHV9DH6T                                                  00072000  000000000000120000001020190705SEA.FMNLMPH7901009843/7961007652                                                                                                  
12000I     O31E912510700025107201906031840 00025107MPH7901009843/7961007652 0080                        00025103                                                                                                                                                                                                      
