00025103   O31A112510800025108201604080431100025108MST151889/LIGH-141102        A  0002510300039130                                 S31790                              YCKE, MS. CHUI HONG, MICHELLE MI20160413        1N100038274        SEA.FLKGLIGHTING                                                       O   
00025103   O31A212510800025108201604080431100025108MST151889/LIGH-141102        FOB0                              USD                                                                20160423                                                            00038274                                                     
00025103   O31E112510800025108201604080431100025108MST151889/LIGH-141102    0001LDAHV10DG4A         LDAHV10DG4A                             00126000  0000000023537400000010                LIGH-141102                                                                                                               
00025103   O31E112510800025108201604080431100025108MST151889/LIGH-141102    0002LDAHV10LG4A         LDAHV10LG4A                             00050000  0000000023537400000010                LIGH-141102                                                                                                               
00025103   O31E112510800025108201604080431100025108MST151889/LIGH-141102    0003LDAHV12DG4A         LDAHV12DG4A                             00050000  0000000029136400000010                LIGH-141102                                                                                                               
00025103   O31E112510800025108201604080431100025108MST151889/LIGH-141102    0004LDAHV12LG4A         LDAHV12LG4A                             00050000  0000000029136400000010                LIGH-141102                                                                                                               
00025103   O31E112510800025108201604080431100025108MST151889/LIGH-141102    0005LDAHV2DG4A          LDAHV2DG4A                              00050000  0000000009415400000010                LIGH-141102                                                                                                               
00025103   O31E112510800025108201604080431100025108MST151889/LIGH-141102    0006LDAHV2LG4A          LDAHV2LG4A                              00050000  0000000009415400000010                LIGH-141102                                                                                                               
00025103   O31E112510800025108201604080431100025108MST151889/LIGH-141102    0007LDAHV4DG4A          LDAHV4DG4A                              00105000  0000000011021400000010                LIGH-141102                                                                                                               
00025103   O31E112510800025108201604080431100025108MST151889/LIGH-141102    0008LDAHV4LG4A          LDAHV4LG4A                              00050000  0000000011021400000010                LIGH-141102                                                                                                               
00025103   O31E112510800025108201604080431100025108MST151889/LIGH-141102    0009LDAHV7DG4A          LDAHV7DG4A                              00135000  0000000015609400000010                LIGH-141102                                                                                                               
00025103   O31E112510800025108201604080431100025108MST151889/LIGH-141102    0010LDAHV7LG4A          LDAHV7LG4A                              00070000  0000000015609400000010                LIGH-141102                                                                                                               
00025103   O31E112510800025108201604080431100025108MST151889/LIGH-141102    0011LDAHV8DG4A          LDAHV8DG4A                              00150000  0000000020069400000010                LIGH-141102                                                                                                               
00025103   O31E112510800025108201604080431100025108MST151889/LIGH-141102    0012LDAHV8LG4A          LDAHV8LG4A                              00073000  0000000020069400000010                LIGH-141102                                                                                                               
00025103   O31A112510800025108201604080431100025108MST151890/LIGH-141101        A  0002510300039130                                 S31790                              YCKE, MS. CHUI HONG, MICHELLE MI20160413        1N10003827420160422SEA.FLKGLIGHTING                                                       O   
00025103   O31A212510800025108201604080431100025108MST151890/LIGH-141101        FOB0                              USD                                                                20160510                                                            00038274                                                     
00025103   O31E112510800025108201604080431100025108MST151890/LIGH-141101    0001LDAHV10DG4A         LDAHV10DG4A                             00060000  0000000023537400000010                LIGH-141101                                                                                                               
00025103   O31E112510800025108201604080431100025108MST151890/LIGH-141101    0002LDAHV10LG4A         LDAHV10LG4A                             00050000  0000000023537400000010                LIGH-141101                                                                                                               
00025103   O31E112510800025108201604080431100025108MST151890/LIGH-141101    0003LDAHV12DG4A         LDAHV12DG4A                             00050000  0000000029136400000010                LIGH-141101                                                                                                               
00025103   O31E112510800025108201604080431100025108MST151890/LIGH-141101    0004LDAHV2DG4A          LDAHV2DG4A                              00030000  0000000009415400000010                LIGH-141101                                                                                                               
00025103   O31E112510800025108201604080431100025108MST151890/LIGH-141101    0005LDAHV4DG4A          LDAHV4DG4A                              00270000  0000000011021400000010                LIGH-141101                                                                                                               
00025103   O31E112510800025108201604080431100025108MST151890/LIGH-141101    0006LDAHV4LG4A          LDAHV4LG4A                              00034000  0000000011021400000010                LIGH-141101                                                                                                               
00025103   O31E112510800025108201604080431100025108MST151890/LIGH-141101    0007LDAHV7DG4A          LDAHV7DG4A                              00300000  0000000015609400000010                LIGH-141101                                                                                                               
00025103   O31E112510800025108201604080431100025108MST151890/LIGH-141101    0008LDAHV7LG4A          LDAHV7LG4A                              00050000  0000000015609400000010                LIGH-141101                                                                                                               
00025103   O31E112510800025108201604080431100025108MST151890/LIGH-141101    0009LDAHV8DG4A          LDAHV8DG4A                              00300000  0000000020069400000010                LIGH-141101                                                                                                               
00025103   O31E112510800025108201604080431100025108MST151890/LIGH-141101    0010LDAHV8LG4A          LDAHV8LG4A                              00037000  0000000020069400000010                LIGH-141101                                                                                                               
00025103   O31A112520700025207201604081131100025207MGM151894/660-404420         A  000251032062061620620616                         L31790                              YCKE, MS. CHUI HONG, MICHELLE MI20160413        1N10003827420160413SEA.F   LIGHTING                                                       O   
00025103   O31A212520700025207201604081131100025207MGM151894/660-404420         FOB0                              USD                                                                20160510                                                            00038274                                                     
00025103   O31E112520700025207201604081131100025207MGM151894/660-404420     0001EFDHV15D65BA        EFDHV15D65BA                            00024000  0000000000126200000010                660-404420                                                                                                                
00025103   O31E112520700025207201604081131100025207MGM151894/660-404420     0002EFDHV23D65BA        EFDHV23D65BA                            00017280  0000000000156200000010                660-404420                                                                                                                
00025103   O31E112520700025207201604081131100025207MGM151894/660-404420     0003EFDHV5D65BA         EFDHV5D65BA                             00035520  0000000000108200000010                660-404420                                                                                                                
00025103   O31E112520700025207201604081131100025207MGM151894/660-404420     0004EFDHV20D65BA        EFDHV20D65BA                            00029760  0000000000156200000010                660-404420                                                                                                                
00025103   O31A112520700025207201604081131100025207MGM151895/660-404419         A  000251032062061620620616                         L31790                              YCKE, MS. CHUI HONG, MICHELLE MI20160413        1N10003827420160413SEA.F   LIGHTING                                                       O   
00025103   O31A212520700025207201604081131100025207MGM151895/660-404419         FOB0                              USD                                                                20160510                                                            00038274                                                     
00025103   O31E112520700025207201604081131100025207MGM151895/660-404419     0001EFDHV11L27A         EFDHV11L27A                             00011520  0000000000126200000010                660-404419                                                                                                                
00025103   O31E112520700025207201604081131100025207MGM151895/660-404419     0002EFDHV20L27A         EFDHV20L27A                             00004800  0000000000156200000010                660-404419                                                                                                                
00025103   O31E112520700025207201604081131100025207MGM151895/660-404419     0003EFDHV25D65A         EFDHV25D65A                             00048000  0000000000156200000010                660-404419                                                                                                                
00025103   O31E112520700025207201604081131100025207MGM151895/660-404419     0004EFDHV15D65A         EFDHV15D65A                             00044160  0000000000126200000010                660-404419                                                                                                                
00025103   O31E112520700025207201604081131100025207MGM151895/660-404419     0005EFDHV15L27A         EFDHV15L27A                             00009600  0000000000126200000010                660-404419                                                                                                                
00025103   O31E112520700025207201604081131100025207MGM151895/660-404419     0006EFDHV20D65A         EFDHV20D65A                             00011520  0000000000156200000010                660-404419                                                                                                                
00025103   O31E112520700025207201604081131100025207MGM151895/660-404419     0007EFDHV25L27A         EFDHV25L27A                             00004800  0000000000156200000010                660-404419                                                                                                                
00025103   O31E112520700025207201604081131100025207MGM151895/660-404419     0008EFDHV5L27A          EFDHV5L27A                              00011520  0000000000108200000010                660-404419                                                                                                                
00025103   O31E112520700025207201604081131100025207MGM151895/660-404419     0009EFDHV8D65A          EFDHV8D65A                              00011520  0000000000108200000010                660-404419                                                                                                                
00025103   O31E112520700025207201604081131100025207MGM151895/660-404419     0010EFDHV8L27A          EFDHV8L27A                              00024000  0000000000108200000010                660-404419                                                                                                                
