00025103   O31A112510800025108201710170641100025108MST168495/7931003236         A  0002510300039130                                 S31790                              YCKE, MS. CHUI HONG, MICHELLE MI20171022        1N100038274        AIR.FLKGLIGHTING                                                       O   
00025103   O31A212510800025108201710170641100025108MST168495/7931003236         FOB0                              USD                                                        00039130201710310003913000039130                                            00038274                                                     
00025103   O31E112510800025108201710170641100025108MST168495/7931003236     0001EFU14E652V1                                                 00096000  0000000011896400000010        AIR.FLKG7931003236                                                                                                                
00025103   O31E912510800025108201710170641 00025108MST168495/7931003236     0001                        00039130                                                                                                                                                                                                      
00025103   O31E112510800025108201710170641100025108MST168495/7931003236     0002EFUHV18D65A                                                 00072000  0000000013423400000010        AIR.FLKG7931003236                                                                                                                
00025103   O31E912510800025108201710170641 00025108MST168495/7931003236     0002                        00039130                                                                                                                                                                                                      
00025103   O31E112510800025108201710170641100025108MST168495/7931003236     0003EFUHV18L27A                                                 00002000  0000000013423400000010        AIR.FLKG7931003236                                                                                                                
00025103   O31E912510800025108201710170641 00025108MST168495/7931003236     0003                        00039130                                                                                                                                                                                                      
00025103   O31A112510800025108201710170641100025108MST168496/7931003235         A  0002510300039130                                 S31790                              YCKE, MS. CHUI HONG, MICHELLE MI20171022        1N10003827420171025SEA.FLKGLIGHTING                                                       O   
00025103   O31A212510800025108201710170641100025108MST168496/7931003235         FOB0                              USD                                                        00039130201711120003913000039130                                            00038274                                                     
00025103   O31E112510800025108201710170641100025108MST168496/7931003235     0001EFU14E652V1                                                 00004000  000000001189640000001020171105SEA.FLKG7931003235                                                                                                                
00025103   O31E912510800025108201710170641 00025108MST168496/7931003235     0001                        00039130                                                                                                                                                                                                      
00025103   O31E112510800025108201710170641100025108MST168496/7931003235     0002EFUHV18D65A                                                 00028000  000000001342340000001020171105SEA.FLKG7931003235                                                                                                                
00025103   O31E912510800025108201710170641 00025108MST168496/7931003235     0002                        00039130                                                                                                                                                                                                      
