12000I     O31A112510800025108201904022206100025108MST7901008017/7931006360       10002510300039130                                 L31790                              YNR01-SG                        20190509         N 0003827420190421SEA.FLKGLIGHTING                                                       O   
12000I     O31A212510800025108201904022206100025108MST7901008017/7931006360     FOB0                              USD                                                        00025103201905090002510300025103                                            00038274                                                     
12000I     O31A812510800025108201904022206100025108MST7901008017/7931006360     FOB                                                                                                                                                                                                                                   
12000I     O31E112510800025108201904022206100025108MST7901008017/7931006360 0010LDAHV12DH6T                                                 00165000  000000000011520000001020190509SEA.FLKGMST7901008017/7931006360                                                                                                  
12000I     O31E912510800025108201904022206 00025108MST7901008017/7931006360 0010                        00025103                                                                                                                                                                                                      
12000I     O31E112510800025108201904022206100025108MST7901008017/7931006360 0020LDAHV12LH6T                                                 00044000  000000000011520000001020190509SEA.FLKGMST7901008017/7931006360                                                                                                  
12000I     O31E912510800025108201904022206 00025108MST7901008017/7931006360 0020                        00025103                                                                                                                                                                                                      
12000I     O31E112510800025108201904022206100025108MST7901008017/7931006360 0030LDAHV15DH6T                                                 00100000  000000000014220000001020190509SEA.FLKGMST7901008017/7931006360                                                                                                  
12000I     O31E912510800025108201904022206 00025108MST7901008017/7931006360 0030                        00025103                                                                                                                                                                                                      
12000I     O31E112510800025108201904022206100025108MST7901008017/7931006360 0040LDAHV15LH6T                                                 00027000  000000000014220000001020190509SEA.FLKGMST7901008017/7931006360                                                                                                  
12000I     O31E912510800025108201904022206 00025108MST7901008017/7931006360 0040                        00025103                                                                                                                                                                                                      
12000I     O31E112510800025108201904022206100025108MST7901008017/7931006360 0050LDAHV20DH5T                                                 00045000  000000000000120000001020190509SEA.FLKGMST7901008017/7931006360                                                                                                  
12000I     O31E912510800025108201904022206 00025108MST7901008017/7931006360 0050                        00025103                                                                                                                                                                                                      
12000I     O31E112510800025108201904022206100025108MST7901008017/7931006360 0060LDAHV23DH5T                                                 00040500  000000000000120000001020190509SEA.FLKGMST7901008017/7931006360                                                                                                  
12000I     O31E912510800025108201904022206 00025108MST7901008017/7931006360 0060                        00025103                                                                                                                                                                                                      
12000I     O31E112510800025108201904022206100025108MST7901008017/7931006360 0070LDAHV30DH5T                                                 00027000  000000000000120000001020190509SEA.FLKGMST7901008017/7931006360                                                                                                  
12000I     O31E912510800025108201904022206 00025108MST7901008017/7931006360 0070                        00025103                                                                                                                                                                                                      
12000I     O31E112510800025108201904022206100025108MST7901008017/7931006360 0080LDAHV3DH6T                                                  00055000  000000000005520000001020190509SEA.FLKGMST7901008017/7931006360                                                                                                  
12000I     O31E912510800025108201904022206 00025108MST7901008017/7931006360 0080                        00025103                                                                                                                                                                                                      
12000I     O31E112510800025108201904022206100025108MST7901008017/7931006360 0090LDAHV3LH6T                                                  00030000  000000000005520000001020190509SEA.FLKGMST7901008017/7931006360                                                                                                  
12000I     O31E912510800025108201904022206 00025108MST7901008017/7931006360 0090                        00025103                                                                                                                                                                                                      
12000I     O31E112510800025108201904022206100025108MST7901008017/7931006360 0100LDAHV5DH6T                                                  00160000  000000000000610000001020190509SEA.FLKGMST7901008017/7931006360                                                                                                  
12000I     O31E912510800025108201904022206 00025108MST7901008017/7931006360 0100                        00025103                                                                                                                                                                                                      
12000I     O31E112510800025108201904022206100025108MST7901008017/7931006360 0110LDAHV5LH6T                                                  00050000  000000000000610000001020190509SEA.FLKGMST7901008017/7931006360                                                                                                  
12000I     O31E912510800025108201904022206 00025108MST7901008017/7931006360 0110                        00025103                                                                                                                                                                                                      
12000I     O31E112510800025108201904022206100025108MST7901008017/7931006360 0120LDAHV7DH6T                                                  00300000  000000000006820000001020190509SEA.FLKGMST7901008017/7931006360                                                                                                  
12000I     O31E912510800025108201904022206 00025108MST7901008017/7931006360 0120                        00025103                                                                                                                                                                                                      
12000I     O31E112510800025108201904022206100025108MST7901008017/7931006360 0130LDAHV7LH6T                                                  00055000  000000000006820000001020190509SEA.FLKGMST7901008017/7931006360                                                                                                  
12000I     O31E912510800025108201904022206 00025108MST7901008017/7931006360 0130                        00025103                                                                                                                                                                                                      
12000I     O31E112510800025108201904022206100025108MST7901008017/7931006360 0140LDAHV9DH6T                                                  00180000  000000000008920000001020190509SEA.FLKGMST7901008017/7931006360                                                                                                  
12000I     O31E912510800025108201904022206 00025108MST7901008017/7931006360 0140                        00025103                                                                                                                                                                                                      
12000I     O31E112510800025108201904022206100025108MST7901008017/7931006360 0150LDAHV9LH6T                                                  00033000  000000000008920000001020190509SEA.FLKGMST7901008017/7931006360                                                                                                  
12000I     O31E912510800025108201904022206 00025108MST7901008017/7931006360 0150                        00025103                                                                                                                                                                                                      
