00025103   O31A112510700025107201605040238100025107MPH152644/SS100162           A  000251030002947400029474                         L31790PT Panasonic Gobel Eco SolutioNCKE, MS. CHUI HONG, MICHELLE MI20160519        1N10003827420160505SEA.FMNLLIGHTING                                                       O   
00025103   O31A212510700025107201605040238100025107MPH152644/SS100162           FOB0                              USD                                                                20160606                                                            00038274                                                     
00025103   O31E112510700025107201605040238100025107MPH152644/SS100162       0001EFDHV15D65A         EFDHV15D65A                   00038274  00107520  0000000011846400000010                **********                                                                                                                
00025103   O31E112510700025107201605040238100025107MPH152644/SS100162       0002EFDHV20D65A         EFDHV20D65A                   00038274  00107520  0000000014364400000010                **********                                                                                                                
00025103   O31E112510700025107201605040238100025107MPH152644/SS100162       0003EFDHV25D65A         EFDHV25D65A                   00038274  00107520  0000000016473400000010                **********                                                                                                                
