00025103   O31A112510700025107201806060742100025107MPH175576/7961005114         A  0002510300029474                                 L31790                              YCKE, MS. CHUI HONG, MICHELLE MI20180611        1N10003827420180628SEA.FMNLLIGHTING                                                       O   
00025103   O31A212510700025107201806060742100025107MPH175576/7961005114         FOB0                              USD                                                        00029474201807300002947400029474                                            00038274                                                     
00025103   O31E112510700025107201806060742100025107MPH175576/7961005114     0001LDAHV3LH6A                                                  00010000  0000000000759300000010        SEA.FMNL7961005114                                                                                                                
00025103   O31E912510700025107201806060742 00025107MPH175576/7961005114     0001                        00029474                                                                                                                                                                                                      
00025103   O31E112510700025107201806060742100025107MPH175576/7961005114     0002LDAHV5LH6A                                                  00010000  0000000000983300000010        SEA.FMNL7961005114                                                                                                                
00025103   O31E912510700025107201806060742 00025107MPH175576/7961005114     0002                        00029474                                                                                                                                                                                                      
00025103   O31E112510700025107201806060742100025107MPH175576/7961005114     0003LDAHV7LH6A                                                  00010000  0000000000114200000010        SEA.FMNL7961005114                                                                                                                
00025103   O31E912510700025107201806060742 00025107MPH175576/7961005114     0003                        00029474                                                                                                                                                                                                      
00025103   O31E112510700025107201806060742100025107MPH175576/7961005114     0004LDAHV9LH6A                                                  00010000  0000000001254300000010        SEA.FMNL7961005114                                                                                                                
00025103   O31E912510700025107201806060742 00025107MPH175576/7961005114     0004                        00029474                                                                                                                                                                                                      
00025103   O31A112510700025107201806060742100025107MPH175578/7961005115         A  0002510300029474                                 L31790                              YCKE, MS. CHUI HONG, MICHELLE MI20180611        1N10003827420180628SEA.FMNLLIGHTING                                                       O   
00025103   O31A212510700025107201806060742100025107MPH175578/7961005115         FOB0                              USD                                                        00029474201807300002947400029474                                            00038274                                                     
00025103   O31E112510700025107201806060742100025107MPH175578/7961005115     0001EFDHV25D65A                                                 00038400  0000000001562300000010        SEA.FMNL7961005115                                                                                                                
00025103   O31E912510700025107201806060742 00025107MPH175578/7961005115     0001                        00029474                                                                                                                                                                                                      
00025103   O31E112510700025107201806060742100025107MPH175578/7961005115     0002EFUHV11D65A                                                 00080000  0000000000953300000010        SEA.FMNL7961005115                                                                                                                
00025103   O31E912510700025107201806060742 00025107MPH175578/7961005115     0002                        00029474                                                                                                                                                                                                      
00025103   O31E112510700025107201806060742100025107MPH175578/7961005115     0003EFUHV23D65A3                                                00070000  0000000001444300000010        SEA.FMNL7961005115                                                                                                                
00025103   O31E912510700025107201806060742 00025107MPH175578/7961005115     0003                        00029474                                                                                                                                                                                                      
00025103   O31E112510700025107201806060742100025107MPH175578/7961005115     0004EFUHV8D65A                                                  00080000  0000000000943300000010        SEA.FMNL7961005115                                                                                                                
00025103   O31E912510700025107201806060742 00025107MPH175578/7961005115     0004                        00029474                                                                                                                                                                                                      
00025103   O31A112510800025108201806061044100025108MST175579/7931004670         A  0002510300039130                                 L31790                              YCKE, MS. CHUI HONG, MICHELLE MI20180611        1N10003827420180625SEA.FLKGUA                                                             O   
00025103   O31A212510800025108201806061044100025108MST175579/7931004670         FOB0                              USD                                                        00039130201807130003913000039130                                            00038274                                                     
00025103   O31E112510800025108201806061044100025108MST175579/7931004670     0001LDAHV12DH5T                                                 00100000  000000001327140000001020180706SEA.FLKG7931004670                                                                                                                
00025103   O31E912510800025108201806061044 00025108MST175579/7931004670     0001                        00039130                                                                                                                                                                                                      
00025103   O31E112510800025108201806061044100025108MST175579/7931004670     0002LDAHV12LH5T                                                 00035000  000000001327140000001020180706SEA.FLKG7931004670                                                                                                                
00025103   O31E912510800025108201806061044 00025108MST175579/7931004670     0002                        00039130                                                                                                                                                                                                      
00025103   O31E112510800025108201806061044100025108MST175579/7931004670     0003LDAHV15DH5T                                                 00085000  000000001775940000001020180706SEA.FLKG7931004670                                                                                                                
00025103   O31E912510800025108201806061044 00025108MST175579/7931004670     0003                        00039130                                                                                                                                                                                                      
00025103   O31E112510800025108201806061044100025108MST175579/7931004670     0004LDAHV15LH5T                                                 00030000  000000001775940000001020180706SEA.FLKG7931004670                                                                                                                
00025103   O31E912510800025108201806061044 00025108MST175579/7931004670     0004                        00039130                                                                                                                                                                                                      
