00025103   O31A112510800025108201605171133100025108MST152853/LIGH-141477        A  0002510300039130                                 S31790                              YCKE, MS. CHUI HONG, MICHELLE MI20160522        1N10003827420160604SEA.FLKGLIGHTING                                                       O   
00025103   O31A212510800025108201605171133100025108MST152853/LIGH-141477        FOB0                              USD                                                                20160622                                                            00038274                                                     
00025103   O31E112510800025108201605171133100025108MST152853/LIGH-141477    0001EFDHV15D65T         EFDHV15D65T                             00240000  0000000012239400000010                LIGH-141477                                                                                                               
00025103   O31E112510800025108201605171133100025108MST152853/LIGH-141477    0002EFDHV25D65T         EFDHV25D65T                             00604800  0000000000152200000010                LIGH-141477                                                                                                               
00025103   O31E112510800025108201605171133100025108MST152853/LIGH-141477    0003EFU11E652V          EFU11E652V                              00030000  0000000012234400000010                LIGH-141477                                                                                                               
00025103   O31E112510800025108201605171133100025108MST152853/LIGH-141477    0004EFU14E272V          EFU14E272V                              00030000  0000000013083400000010                LIGH-141477                                                                                                               
00025103   O31E112510800025108201605171133100025108MST152853/LIGH-141477    0005EFU8E652V           EFU8E652V                               00050000  0000000011971400000010                LIGH-141477                                                                                                               
00025103   O31A112510800025108201605171133100025108MST152854/LIGH-141480        A  0002510300039130                                 S31790                              YCKE, MS. CHUI HONG, MICHELLE MI20160522        1N10003827420160617SEA.FLKGLIGHTING                                                       O   
00025103   O31A212510800025108201605171133100025108MST152854/LIGH-141480        FOB0                              USD                                                                20160705                                                            00038274                                                     
00025103   O31E112510800025108201605171133100025108MST152854/LIGH-141480    0001EFDHV25D65T         EFDHV25D65T                             00528000  0000000000152200000010                LIGH-141480                                                                                                               
00025103   O31E112510800025108201605171133100025108MST152854/LIGH-141480    0002EFDHV25L27T         EFDHV25L27T                             00024000  0000000000152200000010                LIGH-141480                                                                                                               
00025103   O31E112510800025108201605171133100025108MST152854/LIGH-141480    0003EFU8E652V           EFU8E652V                               00020000  0000000011971400000010                LIGH-141480                                                                                                               
