12000I     O31A112511000025110201907091551100025110MMQ7901010755/7921007615       10002510300039140                                 L31790                              YNR01-SG                        20190810         N 0003827420190718SEA.FPKLLIGHTING                                                       O   
12000I     O31A212511000025110201907091551100025110MMQ7901010755/7921007615     FOB0                              USD                                                        00025103201908100002510300025103                                            00038274                                                     
12000I     O31A812511000025110201907091551100025110MMQ7901010755/7921007615     FOB                                                                                                                                                                                                                                   
12000I     O31E112511000025110201907091551100025110MMQ7901010755/7921007615 0010LDAHV11DH7A                                                 00020000  000000000013320000001020190810SEA.FPKLMMQ7901010755/7921007615                                                                                                  
12000I     O31E912511000025110201907091551 00025110MMQ7901010755/7921007615 0010                        00025103                                                                                                                                                                                                      
12000I     O31E112511000025110201907091551100025110MMQ7901010755/7921007615 0020LDAHV13DH7A                                                 00030000  000000000013920000001020190810SEA.FPKLMMQ7901010755/7921007615                                                                                                  
12000I     O31E912511000025110201907091551 00025110MMQ7901010755/7921007615 0020                        00025103                                                                                                                                                                                                      
