00025103   O31A112510700025107201608301039100025107MPH156010/SS100185           A  000251030002947400029474                         L31790PT Panasonic Gobel Eco SolutioNCKE, MS. CHUI HONG, MICHELLE MI20160914        1N10003827420160910SEA.FMNLLIGHTING                                                       O   
00025103   O31A212510700025107201608301039100025107MPH156010/SS100185           FOB0                              USD                                                                20161012                                                            00038274                                                     
00025103   O31E112510700025107201608301039100025107MPH156010/SS100185       0001LDAHV4DG4A          LDAHV4DG4A                    00038274  00044000  0000000000115200000010                **********                                                                                                                
00025103   O31E112510700025107201608301039100025107MPH156010/SS100185       0002LDAHV4LG4A          LDAHV4LG4A                    00038274  00026000  0000000000115200000010                **********                                                                                                                
00025103   O31E112510700025107201608301039100025107MPH156010/SS100185       0003LDAHV5DG4A          LDAHV5DG4A                    00038274  00060000  0000000000013100000010                **********                                                                                                                
00025103   O31E112510700025107201608301039100025107MPH156010/SS100185       0004LDAHV5LG4A          LDAHV5LG4A                    00038274  00042000  0000000000013100000010                **********                                                                                                                
00025103   O31E112510700025107201608301039100025107MPH156010/SS100185       0005LDAHV7DG4A          LDAHV7DG4A                    00038274  00034000  0000000000175200000010                **********                                                                                                                
00025103   O31E112510700025107201608301039100025107MPH156010/SS100185       0006LDAHV7LG4A          LDAHV7LG4A                    00038274  00022000  0000000000175200000010                **********                                                                                                                
00025103   O31E112510700025107201608301039100025107MPH156010/SS100185       0007LDAHV8DG4A          LDAHV8DG4A                    00038274  00030000  0000000021395400000010                **********                                                                                                                
00025103   O31E112510700025107201608301039100025107MPH156010/SS100185       0008LDAHV8LG4A          LDAHV8LG4A                    00038274  00018000  0000000021395400000010                **********                                                                                                                
00025103   O31E112510700025107201608301039100025107MPH156010/SS100185       0009LDAHV10DG4A         LDAHV10DG4A                   00038274  00030000  0000000000026100000010                **********                                                                                                                
00025103   O31E112510700025107201608301039100025107MPH156010/SS100185       0010LDAHV10LG4A         LDAHV10LG4A                   00038274  00018000  0000000000026100000010                **********                                                                                                                
00025103   O31E112510700025107201608301039100025107MPH156010/SS100185       0011LDAHV12DG4A         LDAHV12DG4A                   00038274  00010000  0000000035399400000010                **********                                                                                                                
00025103   O31E112510700025107201608301039100025107MPH156010/SS100185       0012LDAHV12LG4A         LDAHV12LG4A                   00038274  00010000  0000000035399400000010                **********                                                                                                                
00025103   O31E112510700025107201608301039100025107MPH156010/SS100185       0013EFDHV11D65A         EFDHV11D65A                   00038274  00029760  0000000011846400000010                **********                                                                                                                
00025103   O31E112510700025107201608301039100025107MPH156010/SS100185       0014EFDHV15D65A         EFDHV15D65A                   00038274  00029760  0000000011846400000010                **********                                                                                                                
00025103   O31E112510700025107201608301039100025107MPH156010/SS100185       0015EFDHV20D65A         EFDHV20D65A                   00038274  00067200  0000000014364400000010                **********                                                                                                                
00025103   O31E112510700025107201608301039100025107MPH156010/SS100185       0016EFDHV23D65A         EFDHV23D65A                   00038274  00029760  0000000001525300000010                **********                                                                                                                
00025103   O31E112510700025107201608301039100025107MPH156010/SS100185       0017EFDHV25D65A         EFDHV25D65A                   00038274  00048000  0000000016473400000010                **********                                                                                                                
00025103   O31E112510700025107201608301039100025107MPH156010/SS100185       0018EFUHV8D65A          EFUHV8D65A                    00038274  00020000  0000000009574400000010                **********                                                                                                                
00025103   O31E112510700025107201608301039100025107MPH156010/SS100185       0019EFUHV11D65A         EFUHV11D65A                   00038274  00048000  0000000009574400000010                **********                                                                                                                
00025103   O31E112510700025107201608301039100025107MPH156010/SS100185       0020EFUHV14D65A         EFUHV14D65A                   00038274  00077000  0000000010363400000010                **********                                                                                                                
00025103   O31E112510700025107201608301039100025107MPH156010/SS100185       0021EFU11E652V          EFU11E652V                    00038274  00020000  0000000012042400000010                **********                                                                                                                
00025103   O31E112510700025107201608301039100025107MPH156010/SS100185       0022EFU14E652V          EFU14E652V                    00038274  00010000  0000000012832400000010                **********                                                                                                                
00025103   O31E112510700025107201608301039100025107MPH156010/SS100185       0023EFUHV18D65A3        EFUHV18D65A3                  00038274  00031000  0000000014213400000010                **********                                                                                                                
00025103   O31E112510700025107201608301039100025107MPH156010/SS100185       0024EFUHV23D65A3        EFUHV23D65A3                  00038274  00042000  0000000015169400000010                **********                                                                                                                
00025103   O31E112510700025107201608301039100025107MPH156010/SS100185       0025LDTHV16DGNA         LDTHV16DGNA                   00038274  00010000  0000000008055300000010                **********                                                                                                                
00025103   O31E112510700025107201608301039100025107MPH156010/SS100185       0026LDTHV25DGNA         LDTHV25DGNA                   00038274  00010000  0000000011002300000010                **********                                                                                                                
00025103   O31E112510700025107201608301039100025107MPH156010/SS100185       0027LDTHV35DGNA         LDTHV35DGNA                   00038274  00010000  0000000013556300000010                **********                                                                                                                
