00025103   O31A112510800025108201705290848100025108MST164006/7931002385         A  0002510300039130                                 S31790                              NCKE, MS. CHUI HONG, MICHELLE MI20170613        1N10003827420170623SEA.FLKGLIGHTING                                                       O   
00025103   O31A212510800025108201705290848100025108MST164006/7931002385         FOB0                              USD                                                        00039130201707100003913000039130SCMM                                        00038274                                                     
00025103   O31E112510800025108201705290848100025108MST164006/7931002385     0001EFDHV15D65T1                                                00189120  000000001112740000001020170703SEA.FLKG7931002385                                                                                                                
00025103   O31E912510800025108201705290848 00025108MST164006/7931002385     0001                        00039130                                                                                                                                                                                                      
00025103   O31E112510800025108201705290848100025108MST164006/7931002385     0002EFDHV20D65T1                                                00036480  000000001381940000001020170703SEA.FLKG7931002385                                                                                                                
00025103   O31E912510800025108201705290848 00025108MST164006/7931002385     0002                        00039130                                                                                                                                                                                                      
00025103   O31E112510800025108201705290848100025108MST164006/7931002385     0003EFDHV23D65T1                                                00008640  000000001381940000001020170703SEA.FLKG7931002385                                                                                                                
00025103   O31E912510800025108201705290848 00025108MST164006/7931002385     0003                        00039130                                                                                                                                                                                                      
00025103   O31E112510800025108201705290848100025108MST164006/7931002385     0004EFDHV25D65T                                                 01599360  000000000015220000001020170703SEA.FLKG7931002385                                                                                                                
00025103   O31E912510800025108201705290848 00025108MST164006/7931002385     0004                        00039130                                                                                                                                                                                                      
00025103   O31E112510800025108201705290848100025108MST164006/7931002385     0005EFU11E652V                                                  00017000  000000001223440000001020170703SEA.FLKG7931002385                                                                                                                
00025103   O31E912510800025108201705290848 00025108MST164006/7931002385     0005                        00039130                                                                                                                                                                                                      
00025103   O31E112510800025108201705290848100025108MST164006/7931002385     0006EFU14E272V1                                                 00060000  000000001189640000001020170703SEA.FLKG7931002385                                                                                                                
00025103   O31E912510800025108201705290848 00025108MST164006/7931002385     0006                        00039130                                                                                                                                                                                                      
00025103   O31E112510800025108201705290848100025108MST164006/7931002385     0007EFU14E652V1                                                 00350000  000000001189640000001020170703SEA.FLKG7931002385                                                                                                                
00025103   O31E912510800025108201705290848 00025108MST164006/7931002385     0007                        00039130                                                                                                                                                                                                      
00025103   O31E112510800025108201705290848100025108MST164006/7931002385     0008EFU8E652V1                                                  00125000  000000001088340000001020170703SEA.FLKG7931002385                                                                                                                
00025103   O31E912510800025108201705290848 00025108MST164006/7931002385     0008                        00039130                                                                                                                                                                                                      
00025103   O31E112510800025108201705290848100025108MST164006/7931002385     0009EFUHV18D65A                                                 00260000  000000001342340000001020170703SEA.FLKG7931002385                                                                                                                
00025103   O31E912510800025108201705290848 00025108MST164006/7931002385     0009                        00039130                                                                                                                                                                                                      
00025103   O31A112510800025108201705290848100025108MST164012/7931002384         A  0002510300039130                                 L31790                              NCKE, MS. CHUI HONG, MICHELLE MI20170613        1N10003827420170623SEA.FLKGLIGHTING                                                       O   
00025103   O31A212510800025108201705290848100025108MST164012/7931002384         FOB0                              USD                                                        00039130201707100003913000039130SCMM                                        00038274                                                     
00025103   O31E112510800025108201705290848100025108MST164012/7931002384     0001LDAHV5LH6A                                                  00005000  000000000630340000001020170703SEA.FLKG7931002384                                                                                                                
00025103   O31E912510800025108201705290848 00025108MST164012/7931002384     0001                        00039130                                                                                                                                                                                                      
00025103   O31E112510800025108201705290848100025108MST164012/7931002384     0002LDAHV7LH6A                                                  00072000  000000000779240000001020170703SEA.FLKG7931002384                                                                                                                
00025103   O31E912510800025108201705290848 00025108MST164012/7931002384     0002                        00039130                                                                                                                                                                                                      
00025103   O31E112510800025108201705290848100025108MST164012/7931002384     0003LDAHV9DH6A                                                  00100000  000000001121440000001020170703SEA.FLKG7931002384                                                                                                                
00025103   O31E912510800025108201705290848 00025108MST164012/7931002384     0003                        00039130                                                                                                                                                                                                      
00025103   O31E112510800025108201705290848100025108MST164012/7931002384     0004LDAHV9LH6A                                                  00045000  000000001121440000001020170703SEA.FLKG7931002384                                                                                                                
00025103   O31E912510800025108201705290848 00025108MST164012/7931002384     0004                        00039130                                                                                                                                                                                                      
