00025103   O31A112510800025108201706150142100025108MST164549/7931002491         A  0002510300039130                                 S31790                              YCKE, MS. CHUI HONG, MICHELLE MI20170620        1N10003827420170627SEA.FLKGLIGHTING                                                       O   
00025103   O31A212510800025108201706150142100025108MST164549/7931002491         FOB0                              USD                                                        00039130201707150003913000039130                                            00038274                                                     
00025103   O31E112510800025108201706150142100025108MST164549/7931002491     0001EFDHV11D65T                                                 00030000  000000001223940000001020170708SEA.FLKG7931002491                                                                                                                
00025103   O31E912510800025108201706150142 00025108MST164549/7931002491     0001                        00039130                                                                                                                                                                                                      
00025103   O31E112510800025108201706150142100025108MST164549/7931002491     0002EFDHV20D65T1                                                00052800  000000001381940000001020170708SEA.FLKG7931002491                                                                                                                
00025103   O31E912510800025108201706150142 00025108MST164549/7931002491     0002                        00039130                                                                                                                                                                                                      
00025103   O31E112510800025108201706150142100025108MST164549/7931002491     0003EFDHV25D65T                                                 00900640  000000000015220000001020170708SEA.FLKG7931002491                                                                                                                
00025103   O31E912510800025108201706150142 00025108MST164549/7931002491     0003                        00039130                                                                                                                                                                                                      
00025103   O31E112510800025108201706150142100025108MST164549/7931002491     0004EFDHV42D65A                                                 00025000  000000003013840000001020170708SEA.FLKG7931002491                                                                                                                
00025103   O31E912510800025108201706150142 00025108MST164549/7931002491     0004                        00039130                                                                                                                                                                                                      
00025103   O31E112510800025108201706150142100025108MST164549/7931002491     0005EFU11E652V                                                  00010000  000000001223440000001020170708SEA.FLKG7931002491                                                                                                                
00025103   O31E912510800025108201706150142 00025108MST164549/7931002491     0005                        00039130                                                                                                                                                                                                      
00025103   O31E112510800025108201706150142100025108MST164549/7931002491     0006EFU14E652V1                                                 00150000  000000001189640000001020170708SEA.FLKG7931002491                                                                                                                
00025103   O31E912510800025108201706150142 00025108MST164549/7931002491     0006                        00039130                                                                                                                                                                                                      
00025103   O31A112510800025108201706150142100025108MST164556/7931002492         A  0002510300039130                                 S31790                              YCKE, MS. CHUI HONG, MICHELLE MI20170620        1N10003827420170717SEA.FLKGLIGHTING                                                       O   
00025103   O31A212510800025108201706150142100025108MST164556/7931002492         FOB0                              USD                                                        00039130201708040003913000039130                                            00038274                                                     
00025103   O31E112510800025108201706150142100025108MST164556/7931002492     0001EFDHV11D65T                                                 00019920  000000001223940000001020170728SEA.FLKG7931002492                                                                                                                
00025103   O31E912510800025108201706150142 00025108MST164556/7931002492     0001                        00039130                                                                                                                                                                                                      
00025103   O31E112510800025108201706150142100025108MST164556/7931002492     0002EFDHV42D65A                                                 00014840  000000003013840000001020170728SEA.FLKG7931002492                                                                                                                
00025103   O31E912510800025108201706150142 00025108MST164556/7931002492     0002                        00039130                                                                                                                                                                                                      
00025103   O31A112510800025108201706150142100025108MST164557/7931002493         A  0002510300039130                                 S31790                              YCKE, MS. CHUI HONG, MICHELLE MI20170620        1N10003827420170802SEA.FLKGLIGHTING                                                       O   
00025103   O31A212510800025108201706150142100025108MST164557/7931002493         FOB0                              USD                                                        00039130201708200003913000039130                                            00038274                                                     
00025103   O31E112510800025108201706150142100025108MST164557/7931002493     0001EFU8E652V1                                                  00010000  000000001088340000001020170813SEA.FLKG7931002493                                                                                                                
00025103   O31E912510800025108201706150142 00025108MST164557/7931002493     0001                        00039130                                                                                                                                                                                                      
