00025103   O31A112510800025108201612260136100025108MST159290/7931001341         A  0002510300039130                                 L31790                              NCKE, MS. CHUI HONG, MICHELLE MI20170110        1N10003827420170123SEA.FLKGLIGHTING                                                       O   
00025103   O31A212510800025108201612260136100025108MST159290/7931001341         FOB0                              USD                                                        00039130201702100003913000039130SCMM                                        00038274                                                     
00025103   O31E112510800025108201612260136100025108MST159290/7931001341     0001LDAHV3DH6A                                                  00120000  0000000007164400000010        SEA.FLKG7931001341                                                                                                                
00025103   O31E912510800025108201612260136 00025108MST159290/7931001341     0001                        00039130                                                                                                                                                                                                      
00025103   O31E112510800025108201612260136100025108MST159290/7931001341     0002LDAHV3LH6A                                                  00081000  0000000007164400000010        SEA.FLKG7931001341                                                                                                                
00025103   O31E912510800025108201612260136 00025108MST159290/7931001341     0002                        00039130                                                                                                                                                                                                      
00025103   O31E112510800025108201612260136100025108MST159290/7931001341     0003LDAHV5DH6A                                                  00200000  0000000008539400000010        SEA.FLKG7931001341                                                                                                                
00025103   O31E912510800025108201612260136 00025108MST159290/7931001341     0003                        00039130                                                                                                                                                                                                      
00025103   O31E112510800025108201612260136100025108MST159290/7931001341     0004LDAHV5LH6A                                                  00077400  0000000008539400000010        SEA.FLKG7931001341                                                                                                                
00025103   O31E912510800025108201612260136 00025108MST159290/7931001341     0004                        00039130                                                                                                                                                                                                      
00025103   O31E112510800025108201612260136100025108MST159290/7931001341     0005LDAHV7DH6A                                                  00480000  0000000001006300000010        SEA.FLKG7931001341                                                                                                                
00025103   O31E912510800025108201612260136 00025108MST159290/7931001341     0005                        00039130                                                                                                                                                                                                      
00025103   O31E112510800025108201612260136100025108MST159290/7931001341     0006LDAHV7LH6A                                                  00100000  0000000001006300000010        SEA.FLKG7931001341                                                                                                                
00025103   O31E912510800025108201612260136 00025108MST159290/7931001341     0006                        00039130                                                                                                                                                                                                      
00025103   O31E112510800025108201612260136100025108MST159290/7931001341     0007LDAHV9DH6A                                                  00333000  0000000001475300000010        SEA.FLKG7931001341                                                                                                                
00025103   O31E912510800025108201612260136 00025108MST159290/7931001341     0007                        00039130                                                                                                                                                                                                      
00025103   O31E112510800025108201612260136100025108MST159290/7931001341     0008LDAHV9LH6A                                                  00056000  0000000001475300000010        SEA.FLKG7931001341                                                                                                                
00025103   O31E912510800025108201612260136 00025108MST159290/7931001341     0008                        00039130                                                                                                                                                                                                      
00025103   O31E112510800025108201612260136100025108MST159290/7931001341     0009LDS300D2N                                                   00006300  0000000223169400000010        SEA.FLKG7931001341                                                                                                                
00025103   O31E912510800025108201612260136 00025108MST159290/7931001341     0009                        00039130                                                                                                                                                                                                      
00025103   O31A112510800025108201612260136100025108MST159292/7931001342         A  0002510300039130                                 S31790                              NCKE, MS. CHUI HONG, MICHELLE MI20170110        1N10003827420170123SEA.FLKGLIGHTING                                                       O   
00025103   O31A212510800025108201612260136100025108MST159292/7931001342         FOB0                              USD                                                        00039130201702100003913000039130SCMM                                        00038274                                                     
00025103   O31E112510800025108201612260136100025108MST159292/7931001342     0001EFDHV15D65T1                                                00141120  0000000011127400000010        SEA.FLKG7931001342                                                                                                                
00025103   O31E912510800025108201612260136 00025108MST159292/7931001342     0001                        00039130                                                                                                                                                                                                      
00025103   O31E112510800025108201612260136100025108MST159292/7931001342     0002EFDHV20D65T1                                                00046080  0000000013819400000010        SEA.FLKG7931001342                                                                                                                
00025103   O31E912510800025108201612260136 00025108MST159292/7931001342     0002                        00039130                                                                                                                                                                                                      
00025103   O31E112510800025108201612260136100025108MST159292/7931001342     0003EFDHV25D65T                                                 01200000  0000000000152200000010        SEA.FLKG7931001342                                                                                                                
00025103   O31E912510800025108201612260136 00025108MST159292/7931001342     0003                        00039130                                                                                                                                                                                                      
00025103   O31E112510800025108201612260136100025108MST159292/7931001342     0004EFDHV25L27T                                                 00014400  0000000000152200000010        SEA.FLKG7931001342                                                                                                                
00025103   O31E912510800025108201612260136 00025108MST159292/7931001342     0004                        00039130                                                                                                                                                                                                      
00025103   O31E112510800025108201612260136100025108MST159292/7931001342     0005EFDHV42D65A                                                 00041600  0000000030138400000010        SEA.FLKG7931001342                                                                                                                
00025103   O31E912510800025108201612260136 00025108MST159292/7931001342     0005                        00039130                                                                                                                                                                                                      
00025103   O31E112510800025108201612260136100025108MST159292/7931001342     0006EFU11E652V                                                  00002000  0000000012234400000010        SEA.FLKG7931001342                                                                                                                
00025103   O31E912510800025108201612260136 00025108MST159292/7931001342     0006                        00039130                                                                                                                                                                                                      
00025103   O31E112510800025108201612260136100025108MST159292/7931001342     0007EFU14E652V1                                                 00324000  0000000011896400000010        SEA.FLKG7931001342                                                                                                                
00025103   O31E912510800025108201612260136 00025108MST159292/7931001342     0007                        00039130                                                                                                                                                                                                      
00025103   O31E112510800025108201612260136100025108MST159292/7931001342     0008EFUHV18D65A                                                 00150000  0000000013423400000010        SEA.FLKG7931001342                                                                                                                
00025103   O31E912510800025108201612260136 00025108MST159292/7931001342     0008                        00039130                                                                                                                                                                                                      
00025103   O31E112510800025108201612260136100025108MST159292/7931001342     0009LDAHV10LG4A                                                 00015000  0000000023537400000010        SEA.FLKG7931001342                                                                                                                
00025103   O31E912510800025108201612260136 00025108MST159292/7931001342     0009                        00039130                                                                                                                                                                                                      
00025103   O31E112510800025108201612260136100025108MST159292/7931001342     0010LDAHV12DG4A                                                 00003000  0000000029136400000010        SEA.FLKG7931001342                                                                                                                
00025103   O31E912510800025108201612260136 00025108MST159292/7931001342     0010                        00039130                                                                                                                                                                                                      
00025103   O31E112510800025108201612260136100025108MST159292/7931001342     0011LDAHV4DG4A                                                  00108000  0000000011021400000010        SEA.FLKG7931001342                                                                                                                
00025103   O31E912510800025108201612260136 00025108MST159292/7931001342     0011                        00039130                                                                                                                                                                                                      
00025103   O31E112510800025108201612260136100025108MST159292/7931001342     0012LDAHV7LG4A                                                  00030000  0000000013892400000010        SEA.FLKG7931001342                                                                                                                
00025103   O31E912510800025108201612260136 00025108MST159292/7931001342     0012                        00039130                                                                                                                                                                                                      
00025103   O31E112510800025108201612260136100025108MST159292/7931001342     0013LDR400N                                                     00005000  0000000003535200000010        SEA.FLKG7931001342                                                                                                                
00025103   O31E912510800025108201612260136 00025108MST159292/7931001342     0013                        00039130                                                                                                                                                                                                      
00025103   O31A112510800025108201612260136100025108MST159293/7931001343         A  0002510300039130                                 S31790                              NCKE, MS. CHUI HONG, MICHELLE MI20170110        1N10003827420170213SEA.FLKGLIGHTING                                                       O   
00025103   O31A212510800025108201612260136100025108MST159293/7931001343         FOB0                              USD                                                        00039130201703030003913000039130SCMM                                        00038274                                                     
00025103   O31E112510800025108201612260136100025108MST159293/7931001343     0001EFDHV15L27T1                                                00048890  0000000011127400000010        SEA.FLKG7931001343                                                                                                                
00025103   O31E912510800025108201612260136 00025108MST159293/7931001343     0001                        00039130                                                                                                                                                                                                      
00025103   O31E112510800025108201612260136100025108MST159293/7931001343     0002EFU14E272V1                                                 00040500  0000000011896400000010        SEA.FLKG7931001343                                                                                                                
00025103   O31E912510800025108201612260136 00025108MST159293/7931001343     0002                        00039130                                                                                                                                                                                                      
00025103   O31E112510800025108201612260136100025108MST159293/7931001343     0003EFU8E652V1                                                  00040500  0000000010883400000010        SEA.FLKG7931001343                                                                                                                
00025103   O31E912510800025108201612260136 00025108MST159293/7931001343     0003                        00039130                                                                                                                                                                                                      
00025103   O31E112510800025108201612260136100025108MST159293/7931001343     0004LDR400N                                                     00006000  0000000003535200000010        SEA.FLKG7931001343                                                                                                                
00025103   O31E912510800025108201612260136 00025108MST159293/7931001343     0004                        00039130                                                                                                                                                                                                      
