12000I     O31A112511000025110201902190912100025110MMQ7901006388/7921006140       10002510300039140                                 L31790                              YNR01-SG                        20190219         N 00038274        SEA.FPKLLIGHTING                                                       O   
12000I     O31A212511000025110201902190912100025110MMQ7901006388/7921006140     FOB0                              USD                                                        00025103201902190002510300025103                                            00038274                                                     
12000I     O31A812511000025110201902190912100025110MMQ7901006388/7921006140     FOB                                                                                                                                                                                                                                   
12000I     O31E112511000025110201902190912100025110MMQ7901006388/7921006140 0010EFDHV20D65T1                                                00009600  000000000000120000001020190219SEA.FPKLMMQ7901006388/7921006140                                                                                                  
12000I     O31E912511000025110201902190912 00025110MMQ7901006388/7921006140 0010                        00025103                                                                                                                                                                                                      
12000I     O31E112511000025110201902190912100025110MMQ7901006388/7921006140 0020EFDHV23D65T1                                                00009600  000000000000120000001020190219SEA.FPKLMMQ7901006388/7921006140                                                                                                  
12000I     O31E912511000025110201902190912 00025110MMQ7901006388/7921006140 0020                        00025103                                                                                                                                                                                                      
12000I     O31E112511000025110201902190912100025110MMQ7901006388/7921006140 0030EFUHV18D65A3                                                00250000  000000000000120000001020190219SEA.FPKLMMQ7901006388/7921006140                                                                                                  
12000I     O31E912511000025110201902190912 00025110MMQ7901006388/7921006140 0030                        00025103                                                                                                                                                                                                      
