00025103   O31A112510800025108201705220544100025108MST163595/7931002303         A  0002510300039130                                 S31790                              YCKE, MS. CHUI HONG, MICHELLE MI20170527        1N10003827420170524SEA.FLKGLIGHTING                                                       O   
00025103   O31A212510800025108201705220544100025108MST163595/7931002303         FOB0                              USD                                                        00039130201706110003913000039130                                            00038274                                                     
00025103   O31E112510800025108201705220544100025108MST163595/7931002303     0001EFDHV25D65T                                                 00190080  000000000015220000001020170604SEA.FLKG7931002303                                                                                                                
00025103   O31E912510800025108201705220544 00025108MST163595/7931002303     0001                        00039130                                                                                                                                                                                                      
00025103   O31E112510800025108201705220544100025108MST163595/7931002303     0002EFU11E652V                                                  00030000  000000001223440000001020170604SEA.FLKG7931002303                                                                                                                
00025103   O31E912510800025108201705220544 00025108MST163595/7931002303     0002                        00039130                                                                                                                                                                                                      
00025103   O31E112510800025108201705220544100025108MST163595/7931002303     0003EFUHV18D65A                                                 00100000  000000001342340000001020170604SEA.FLKG7931002303                                                                                                                
00025103   O31E912510800025108201705220544 00025108MST163595/7931002303     0003                        00039130                                                                                                                                                                                                      
