00025103   O31A112520700025207201604190233100025207MGM152002/660-404443         A  000251032062061620620616                         L31790                              YCKE, MS. CHUI HONG, MICHELLE MI20160424        1N10003827420160514SEA.F   LIGHTING                                                       O   
00025103   O31A212520700025207201604190233100025207MGM152002/660-404443         FOB0                              USD                                                                20160610                                                            00038274                                                     
00025103   O31E112520700025207201604190233100025207MGM152002/660-404443     0001EFDHV11D65BA        EFDHV11D65BA                            00011520  0000000000126200000010                660-404443                                                                                                                
00025103   O31E112520700025207201604190233100025207MGM152002/660-404443     0002EFDHV15D65BA        EFDHV15D65BA                            00024000  0000000000126200000010                660-404443                                                                                                                
00025103   O31E112520700025207201604190233100025207MGM152002/660-404443     0003EFDHV23D65BA        EFDHV23D65BA                            00017280  0000000000156200000010                660-404443                                                                                                                
00025103   O31E112520700025207201604190233100025207MGM152002/660-404443     0004EFDHV5D65BA         EFDHV5D65BA                             00017280  0000000000108200000010                660-404443                                                                                                                
00025103   O31E112520700025207201604190233100025207MGM152002/660-404443     0005EFDHV20D65BA        EFDHV20D65BA                            00029760  0000000000156200000010                660-404443                                                                                                                
