12000I     O31A112510800025108201811132205100025108MST7901003859/7931005575       10002510300039130                                 L31790                              YNR01-SG                        20181217         N 0003827420181129SEA.FLKGLIGHTING                                                       O   
12000I     O31A212510800025108201811132205100025108MST7901003859/7931005575     FOB0                              USD                                                        00025103201812170002510300025103                                            00038274                                                     
12000I     O31A812510800025108201811132205100025108MST7901003859/7931005575     FOB                                                                                                                                                                                                                                   
12000I     O31E112510800025108201811132205100025108MST7901003859/7931005575 0010NNP81900                                                    00001000  000000000000120000001020181217SEA.FLKGMST7901003859/7931005575                                                                                                  
12000I     O31E912510800025108201811132205 00025108MST7901003859/7931005575 0010                        00025103                                                                                                                                                                                                      
