00025103   O31A112510800025108201712250146100025108MST170527/7931003675         A  0002510300039130                                 L31790                              NCKE, MS. CHUI HONG, MICHELLE MI20180109        1N10003827420180125SEA.FLKGLIGHTING                                                       O   
00025103   O31A212510800025108201712250146100025108MST170527/7931003675         FOB0                              USD                                                        00039130201802100003913000039130SCMM                                        00038274                                                     
00025103   O31E112510800025108201712250146100025108MST170527/7931003675     0001LDAHV3DH6A                                                  00030000  000000000630340000001020180203SEA.FLKG7931003675                                                                                                                
00025103   O31E912510800025108201712250146 00025108MST170527/7931003675     0001                        00039130                                                                                                                                                                                                      
00025103   O31E112510800025108201712250146100025108MST170527/7931003675     0002LDAHV3LH6A                                                  00060000  000000000630340000001020180203SEA.FLKG7931003675                                                                                                                
00025103   O31E912510800025108201712250146 00025108MST170527/7931003675     0002                        00039130                                                                                                                                                                                                      
00025103   O31E112510800025108201712250146100025108MST170527/7931003675     0003LDAHV5DH6A                                                  00040000  000000000630340000001020180203SEA.FLKG7931003675                                                                                                                
00025103   O31E912510800025108201712250146 00025108MST170527/7931003675     0003                        00039130                                                                                                                                                                                                      
00025103   O31E112510800025108201712250146100025108MST170527/7931003675     0004LDAHV5LH6A                                                  00057000  000000000630340000001020180203SEA.FLKG7931003675                                                                                                                
00025103   O31E912510800025108201712250146 00025108MST170527/7931003675     0004                        00039130                                                                                                                                                                                                      
00025103   O31E112510800025108201712250146100025108MST170527/7931003675     0005LDAHV7DH6A                                                  00300000  000000000779240000001020180203SEA.FLKG7931003675                                                                                                                
00025103   O31E912510800025108201712250146 00025108MST170527/7931003675     0005                        00039130                                                                                                                                                                                                      
00025103   O31E112510800025108201712250146100025108MST170527/7931003675     0006LDAHV7LH6A                                                  00090000  000000000779240000001020180203SEA.FLKG7931003675                                                                                                                
00025103   O31E912510800025108201712250146 00025108MST170527/7931003675     0006                        00039130                                                                                                                                                                                                      
00025103   O31E112510800025108201712250146100025108MST170527/7931003675     0007LDAHV9DH6A                                                  00050000  000000001121440000001020180203SEA.FLKG7931003675                                                                                                                
00025103   O31E912510800025108201712250146 00025108MST170527/7931003675     0007                        00039130                                                                                                                                                                                                      
00025103   O31E112510800025108201712250146100025108MST170527/7931003675     0008LDAHV9LH6A                                                  00060000  000000001121440000001020180203SEA.FLKG7931003675                                                                                                                
00025103   O31E912510800025108201712250146 00025108MST170527/7931003675     0008                        00039130                                                                                                                                                                                                      
00025103   O31E112510800025108201712250146100025108MST170527/7931003675     0009LDS300D2N                                                   00003000  000000019743840000001020180203SEA.FLKG7931003675                                                                                                                
00025103   O31E912510800025108201712250146 00025108MST170527/7931003675     0009                        00039130                                                                                                                                                                                                      
00025103   O31A112510800025108201712250146100025108MST170545/7931003676         A  0002510300039130                                 S31790                              NCKE, MS. CHUI HONG, MICHELLE MI20180109        1N10003827420180125SEA.FLKGLIGHTING                                                       O   
00025103   O31A212510800025108201712250146100025108MST170545/7931003676         FOB0                              USD                                                        00039130201802100003913000039130SCMM                                        00038274                                                     
00025103   O31E112510800025108201712250146100025108MST170545/7931003676     0001EFDHV11D65T                                                 00029760  000000001223940000001020180203SEA.FLKG7931003676                                                                                                                
00025103   O31E912510800025108201712250146 00025108MST170545/7931003676     0001                        00039130                                                                                                                                                                                                      
00025103   O31E112510800025108201712250146100025108MST170545/7931003676     0002EFDHV15D65T1                                                00243840  000000001112740000001020180203SEA.FLKG7931003676                                                                                                                
00025103   O31E912510800025108201712250146 00025108MST170545/7931003676     0002                        00039130                                                                                                                                                                                                      
00025103   O31E112510800025108201712250146100025108MST170545/7931003676     0003EFDHV15L27T1                                                00044160  000000001112740000001020180203SEA.FLKG7931003676                                                                                                                
00025103   O31E912510800025108201712250146 00025108MST170545/7931003676     0003                        00039130                                                                                                                                                                                                      
00025103   O31E112510800025108201712250146100025108MST170545/7931003676     0004EFDHV20D65T1                                                00062400  000000001381940000001020180203SEA.FLKG7931003676                                                                                                                
00025103   O31E912510800025108201712250146 00025108MST170545/7931003676     0004                        00039130                                                                                                                                                                                                      
00025103   O31E112510800025108201712250146100025108MST170545/7931003676     0005EFDHV23D65T1                                                00031680  000000001381940000001020180203SEA.FLKG7931003676                                                                                                                
00025103   O31E912510800025108201712250146 00025108MST170545/7931003676     0005                        00039130                                                                                                                                                                                                      
00025103   O31E112510800025108201712250146100025108MST170545/7931003676     0006EFDHV25D65T                                                 00999360  000000000015220000001020180203SEA.FLKG7931003676                                                                                                                
00025103   O31E912510800025108201712250146 00025108MST170545/7931003676     0006                        00039130                                                                                                                                                                                                      
00025103   O31E112510800025108201712250146100025108MST170545/7931003676     0007EFDHV25L27T                                                 00062400  000000000015220000001020180203SEA.FLKG7931003676                                                                                                                
00025103   O31E912510800025108201712250146 00025108MST170545/7931003676     0007                        00039130                                                                                                                                                                                                      
00025103   O31E112510800025108201712250146100025108MST170545/7931003676     0008EFDHV32D65A                                                 00017760  000000002722140000001020180203SEA.FLKG7931003676                                                                                                                
00025103   O31E912510800025108201712250146 00025108MST170545/7931003676     0008                        00039130                                                                                                                                                                                                      
00025103   O31E112510800025108201712250146100025108MST170545/7931003676     0009EFDHV42D65A                                                 00069840  000000003013840000001020180203SEA.FLKG7931003676                                                                                                                
00025103   O31E912510800025108201712250146 00025108MST170545/7931003676     0009                        00039130                                                                                                                                                                                                      
00025103   O31E112510800025108201712250146100025108MST170545/7931003676     0010EFU11E652V                                                  00050000  000000001223440000001020180203SEA.FLKG7931003676                                                                                                                
00025103   O31E912510800025108201712250146 00025108MST170545/7931003676     0010                        00039130                                                                                                                                                                                                      
00025103   O31E112510800025108201712250146100025108MST170545/7931003676     0011EFU14E272V1                                                 00150000  000000001189640000001020180203SEA.FLKG7931003676                                                                                                                
00025103   O31E912510800025108201712250146 00025108MST170545/7931003676     0011                        00039130                                                                                                                                                                                                      
00025103   O31E112510800025108201712250146100025108MST170545/7931003676     0012EFU14E652V1                                                 00700000  000000001189640000001020180203SEA.FLKG7931003676                                                                                                                
00025103   O31E912510800025108201712250146 00025108MST170545/7931003676     0012                        00039130                                                                                                                                                                                                      
00025103   O31E112510800025108201712250146100025108MST170545/7931003676     0013EFU8E652V1                                                  00175000  000000001088340000001020180203SEA.FLKG7931003676                                                                                                                
00025103   O31E912510800025108201712250146 00025108MST170545/7931003676     0013                        00039130                                                                                                                                                                                                      
00025103   O31E112510800025108201712250146100025108MST170545/7931003676     0014EFUHV18D65A                                                 00457000  000000001342340000001020180203SEA.FLKG7931003676                                                                                                                
00025103   O31E912510800025108201712250146 00025108MST170545/7931003676     0014                        00039130                                                                                                                                                                                                      
00025103   O31E112510800025108201712250146100025108MST170545/7931003676     0015EFUHV18L27A                                                 00022000  000000001342340000001020180203SEA.FLKG7931003676                                                                                                                
00025103   O31E912510800025108201712250146 00025108MST170545/7931003676     0015                        00039130                                                                                                                                                                                                      
00025103   O31E112510800025108201712250146100025108MST170545/7931003676     0016EFUHV23D65A                                                 00065000  000000001411440000001020180203SEA.FLKG7931003676                                                                                                                
00025103   O31E912510800025108201712250146 00025108MST170545/7931003676     0016                        00039130                                                                                                                                                                                                      
00025103   O31E112510800025108201712250146100025108MST170545/7931003676     0017LDR400N                                                     00009500  000000032154740000001020180203SEA.FLKG7931003676                                                                                                                
00025103   O31E912510800025108201712250146 00025108MST170545/7931003676     0017                        00039130                                                                                                                                                                                                      
