12000I     O31A112510800025108201907082206100025108MST7901010750/7931006912       10002510300039130                                 L31790                              YNR01-SG                        20190804         N 0003827420190717SEA.FLKGLIGHTING                                                       O   
12000I     O31A212510800025108201907082206100025108MST7901010750/7931006912     FOB0                              USD                                                        00025103201908040002510300025103                                            00038274                                                     
12000I     O31A812510800025108201907082206100025108MST7901010750/7931006912     FOB                                                                                                                                                                                                                                   
12000I     O31E112510800025108201907082206100025108MST7901010750/7931006912 0010EFDHV15D65T1                                                00000960  000000000000120000001020190804SEA.FLKGMST7901010750/7931006912                                                                                                  
12000I     O31E912510800025108201907082206 00025108MST7901010750/7931006912 0010                        00025103                                                                                                                                                                                                      
