12000I     O31A112510800025108201907292208100025108MST7901011227/7931007039       10002510300039130                                 L31790                              NNR01-SG                        20190910         N 0003827420190823SEA.FLKGLIGHTING                                                       O   
12000I     O31A212510800025108201907292208100025108MST7901011227/7931007039     FOB0                              USD                                                        00025103201909100002510300025103SCMM                                        00038274                                                     
12000I     O31A812510800025108201907292208100025108MST7901011227/7931007039     FOB                                                                                                                                                                                                                                   
12000I     O31E112510800025108201907292208100025108MST7901011227/7931007039 0010EFDHV11D65T                                                 00009600  000000000000120000001020190910SEA.FLKGMST7901011227/7931007039                                                                                                  
12000I     O31E912510800025108201907292208 00025108MST7901011227/7931007039 0010                        00025103                                                                                                                                                                                                      
12000I     O31E112510800025108201907292208100025108MST7901011227/7931007039 0020EFDHV15D65T1                                                00200640  000000000000120000001020190910SEA.FLKGMST7901011227/7931007039                                                                                                  
12000I     O31E912510800025108201907292208 00025108MST7901011227/7931007039 0020                        00025103                                                                                                                                                                                                      
12000I     O31E112510800025108201907292208100025108MST7901011227/7931007039 0030EFDHV15L27T1                                                00049920  000000000000120000001020190910SEA.FLKGMST7901011227/7931007039                                                                                                  
12000I     O31E912510800025108201907292208 00025108MST7901011227/7931007039 0030                        00025103                                                                                                                                                                                                      
12000I     O31E112510800025108201907292208100025108MST7901011227/7931007039 0040EFDHV20D65T1                                                00011520  000000000000120000001020190910SEA.FLKGMST7901011227/7931007039                                                                                                  
12000I     O31E912510800025108201907292208 00025108MST7901011227/7931007039 0040                        00025103                                                                                                                                                                                                      
12000I     O31E112510800025108201907292208100025108MST7901011227/7931007039 0050EFDHV20L27T1                                                00002400  000000000000120000001020190910SEA.FLKGMST7901011227/7931007039                                                                                                  
12000I     O31E912510800025108201907292208 00025108MST7901011227/7931007039 0050                        00025103                                                                                                                                                                                                      
12000I     O31E112510800025108201907292208100025108MST7901011227/7931007039 0060EFDHV23D65T1                                                00009600  000000000000120000001020190910SEA.FLKGMST7901011227/7931007039                                                                                                  
12000I     O31E912510800025108201907292208 00025108MST7901011227/7931007039 0060                        00025103                                                                                                                                                                                                      
12000I     O31E112510800025108201907292208100025108MST7901011227/7931007039 0070EFDHV25D65T                                                 01100160  000000000014820000001020190910SEA.FLKGMST7901011227/7931007039                                                                                                  
12000I     O31E912510800025108201907292208 00025108MST7901011227/7931007039 0070                        00025103                                                                                                                                                                                                      
12000I     O31E112510800025108201907292208100025108MST7901011227/7931007039 0080EFDHV25L27T                                                 00021120  000000000014820000001020190910SEA.FLKGMST7901011227/7931007039                                                                                                  
12000I     O31E912510800025108201907292208 00025108MST7901011227/7931007039 0080                        00025103                                                                                                                                                                                                      
12000I     O31E112510800025108201907292208100025108MST7901011227/7931007039 0090EFDHV32D65A                                                 00021060  000000000000120000001020190910SEA.FLKGMST7901011227/7931007039                                                                                                  
12000I     O31E912510800025108201907292208 00025108MST7901011227/7931007039 0090                        00025103                                                                                                                                                                                                      
12000I     O31E112510800025108201907292208100025108MST7901011227/7931007039 0100EFDHV42D65A                                                 00027120  000000000000120000001020190910SEA.FLKGMST7901011227/7931007039                                                                                                  
12000I     O31E912510800025108201907292208 00025108MST7901011227/7931007039 0100                        00025103                                                                                                                                                                                                      
12000I     O31E112510800025108201907292208100025108MST7901011227/7931007039 0110EFU11E652V                                                  00060000  000000000012220000001020190910SEA.FLKGMST7901011227/7931007039                                                                                                  
12000I     O31E912510800025108201907292208 00025108MST7901011227/7931007039 0110                        00025103                                                                                                                                                                                                      
12000I     O31E112510800025108201907292208100025108MST7901011227/7931007039 0120EFU14E272V1                                                 00090000  000000000000120000001020190910SEA.FLKGMST7901011227/7931007039                                                                                                  
12000I     O31E912510800025108201907292208 00025108MST7901011227/7931007039 0120                        00025103                                                                                                                                                                                                      
12000I     O31E112510800025108201907292208100025108MST7901011227/7931007039 0130EFU14E652V1                                                 00470000  000000000000120000001020190910SEA.FLKGMST7901011227/7931007039                                                                                                  
12000I     O31E912510800025108201907292208 00025108MST7901011227/7931007039 0130                        00025103                                                                                                                                                                                                      
12000I     O31E112510800025108201907292208100025108MST7901011227/7931007039 0140EFU8E652V1                                                  00100000  000000000000120000001020190910SEA.FLKGMST7901011227/7931007039                                                                                                  
12000I     O31E912510800025108201907292208 00025108MST7901011227/7931007039 0140                        00025103                                                                                                                                                                                                      
12000I     O31E112510800025108201907292208100025108MST7901011227/7931007039 0150EFUHV18D65A                                                 00365000  000000000000120000001020190910SEA.FLKGMST7901011227/7931007039                                                                                                  
12000I     O31E912510800025108201907292208 00025108MST7901011227/7931007039 0150                        00025103                                                                                                                                                                                                      
12000I     O31E112510800025108201907292208100025108MST7901011227/7931007039 0160EFUHV23D65A                                                 00030000  000000000000120000001020190910SEA.FLKGMST7901011227/7931007039                                                                                                  
12000I     O31E912510800025108201907292208 00025108MST7901011227/7931007039 0160                        00025103                                                                                                                                                                                                      
12000I     O31A112510800025108201907292208100025108MST7901011228/7931007038       10002510300039130                                 L31790                              NNR01-SG                        20190910         N 0003827420190823SEA.FLKGLIGHTING                                                       O   
12000I     O31A212510800025108201907292208100025108MST7901011228/7931007038     FOB0                              USD                                                        00025103201909100002510300025103SCMM                                        00038274                                                     
12000I     O31A812510800025108201907292208100025108MST7901011228/7931007038     FOB                                                                                                                                                                                                                                   
12000I     O31E112510800025108201907292208100025108MST7901011228/7931007038 0010LDAHV12DH6T                                                 00250000  000000000011520000001020190910SEA.FLKGMST7901011228/7931007038                                                                                                  
12000I     O31E912510800025108201907292208 00025108MST7901011228/7931007038 0010                        00025103                                                                                                                                                                                                      
12000I     O31E112510800025108201907292208100025108MST7901011228/7931007038 0020LDAHV12LH6T                                                 00099000  000000000011520000001020190910SEA.FLKGMST7901011228/7931007038                                                                                                  
12000I     O31E912510800025108201907292208 00025108MST7901011228/7931007038 0020                        00025103                                                                                                                                                                                                      
12000I     O31E112510800025108201907292208100025108MST7901011228/7931007038 0030LDAHV15DH6T                                                 00180000  000000000014220000001020190910SEA.FLKGMST7901011228/7931007038                                                                                                  
12000I     O31E912510800025108201907292208 00025108MST7901011228/7931007038 0030                        00025103                                                                                                                                                                                                      
12000I     O31E112510800025108201907292208100025108MST7901011228/7931007038 0040LDAHV15LH6T                                                 00100000  000000000014220000001020190910SEA.FLKGMST7901011228/7931007038                                                                                                  
12000I     O31E912510800025108201907292208 00025108MST7901011228/7931007038 0040                        00025103                                                                                                                                                                                                      
12000I     O31E112510800025108201907292208100025108MST7901011228/7931007038 0050LDAHV20DH5T                                                 00055000  000000000000120000001020190910SEA.FLKGMST7901011228/7931007038                                                                                                  
12000I     O31E912510800025108201907292208 00025108MST7901011228/7931007038 0050                        00025103                                                                                                                                                                                                      
12000I     O31E112510800025108201907292208100025108MST7901011228/7931007038 0060LDAHV30DH5T                                                 00018000  000000000000120000001020190910SEA.FLKGMST7901011228/7931007038                                                                                                  
12000I     O31E912510800025108201907292208 00025108MST7901011228/7931007038 0060                        00025103                                                                                                                                                                                                      
12000I     O31E112510800025108201907292208100025108MST7901011228/7931007038 0070LDAHV3DH6T                                                  00160000  000000000005520000001020190910SEA.FLKGMST7901011228/7931007038                                                                                                  
12000I     O31E912510800025108201907292208 00025108MST7901011228/7931007038 0070                        00025103                                                                                                                                                                                                      
12000I     O31E112510800025108201907292208100025108MST7901011228/7931007038 0080LDAHV3LH6T                                                  00079000  000000000005520000001020190910SEA.FLKGMST7901011228/7931007038                                                                                                  
12000I     O31E912510800025108201907292208 00025108MST7901011228/7931007038 0080                        00025103                                                                                                                                                                                                      
12000I     O31E112510800025108201907292208100025108MST7901011228/7931007038 0090LDAHV5DH6T                                                  00220000  000000000000610000001020190910SEA.FLKGMST7901011228/7931007038                                                                                                  
12000I     O31E912510800025108201907292208 00025108MST7901011228/7931007038 0090                        00025103                                                                                                                                                                                                      
12000I     O31E112510800025108201907292208100025108MST7901011228/7931007038 0100LDAHV5LH6T                                                  00125000  000000000000610000001020190910SEA.FLKGMST7901011228/7931007038                                                                                                  
12000I     O31E912510800025108201907292208 00025108MST7901011228/7931007038 0100                        00025103                                                                                                                                                                                                      
12000I     O31E112510800025108201907292208100025108MST7901011228/7931007038 0110LDAHV7DH6T                                                  00400000  000000000006820000001020190910SEA.FLKGMST7901011228/7931007038                                                                                                  
12000I     O31E912510800025108201907292208 00025108MST7901011228/7931007038 0110                        00025103                                                                                                                                                                                                      
12000I     O31E112510800025108201907292208100025108MST7901011228/7931007038 0120LDAHV7LH6T                                                  00120000  000000000006820000001020190910SEA.FLKGMST7901011228/7931007038                                                                                                  
12000I     O31E912510800025108201907292208 00025108MST7901011228/7931007038 0120                        00025103                                                                                                                                                                                                      
12000I     O31E112510800025108201907292208100025108MST7901011228/7931007038 0130LDAHV9DH6T                                                  00260000  000000000008920000001020190910SEA.FLKGMST7901011228/7931007038                                                                                                  
12000I     O31E912510800025108201907292208 00025108MST7901011228/7931007038 0130                        00025103                                                                                                                                                                                                      
12000I     O31E112510800025108201907292208100025108MST7901011228/7931007038 0140LDAHV9LH6T                                                  00100000  000000000008920000001020190910SEA.FLKGMST7901011228/7931007038                                                                                                  
12000I     O31E912510800025108201907292208 00025108MST7901011228/7931007038 0140                        00025103                                                                                                                                                                                                      
