12000I     O31A112511000025110201812201124100025110MMQ7901004836/7921005627       10002510300039140                                 L31790                              YNR01-SG                        20190208         N 0003827420190116SEA.FPKLLIGHTING                                                       O   
12000I     O31A212511000025110201812201124100025110MMQ7901004836/7921005627     FOB0                              USD                                                        00025103201902080002510300025103                                            00038274                                                     
12000I     O31A812511000025110201812201124100025110MMQ7901004836/7921005627     FOB                                                                                                                                                                                                                                   
12000I     O31E112511000025110201812201124100025110MMQ7901004836/7921005627 0010EFUHV18D65A3                                                00100000  000000000000120000001020190208SEA.FPKLMMQ7901004836/7921005627                                                                                                  
12000I     O31E912511000025110201812201124 00025110MMQ7901004836/7921005627 0010                        00025103                                                                                                                                                                                                      
