00025103   O31A112510800025108201801121041100025108MST171116/7931003787         A  0002510300039130                                 S31790                              YCKE, MS. CHUI HONG, MICHELLE MI20180117        1N10003827420180124SEA.FLKGLIGHTING                                                       O   
00025103   O31A212510800025108201801121041100025108MST171116/7931003787         FOB0                              USD                                                        00039130201802110003913000039130                                            00038274                                                     
00025103   O31E112510800025108201801121041100025108MST171116/7931003787     0001EFDHV15D65T1                                                00198720  000000001112740000001020180204SEA.FLKG7931003787                                                                                                                
00025103   O31E912510800025108201801121041 00025108MST171116/7931003787     0001                        00039130                                                                                                                                                                                                      
00025103   O31A112510800025108201801121041100025108MST171117/7931003786         A  0002510300039130                                 L31790                              YCKE, MS. CHUI HONG, MICHELLE MI20180117        1N10003827420180124SEA.FLKGLIGHTING                                                       O   
00025103   O31A212510800025108201801121041100025108MST171117/7931003786         FOB0                              USD                                                        00039130201802110003913000039130                                            00038274                                                     
00025103   O31E112510800025108201801121041100025108MST171117/7931003786     0001LDAHV12DH5T                                                 00180000  000000001327140000001020180204SEA.FLKG7931003786                                                                                                                
00025103   O31E912510800025108201801121041 00025108MST171117/7931003786     0001                        00039130                                                                                                                                                                                                      
00025103   O31E112510800025108201801121041100025108MST171117/7931003786     0002LDAHV12LH5T                                                 00045000  000000001327140000001020180204SEA.FLKG7931003786                                                                                                                
00025103   O31E912510800025108201801121041 00025108MST171117/7931003786     0002                        00039130                                                                                                                                                                                                      
00025103   O31E112510800025108201801121041100025108MST171117/7931003786     0003LDAHV15DH5T                                                 00200000  000000001775940000001020180204SEA.FLKG7931003786                                                                                                                
00025103   O31E912510800025108201801121041 00025108MST171117/7931003786     0003                        00039130                                                                                                                                                                                                      
00025103   O31E112510800025108201801121041100025108MST171117/7931003786     0004LDAHV15LH5T                                                 00035000  000000001775940000001020180204SEA.FLKG7931003786                                                                                                                
00025103   O31E912510800025108201801121041 00025108MST171117/7931003786     0004                        00039130                                                                                                                                                                                                      
00025103   O31E112510800025108201801121041100025108MST171117/7931003786     0005LDAHV9LH6A                                                  00020000  000000001121440000001020180204SEA.FLKG7931003786                                                                                                                
00025103   O31E912510800025108201801121041 00025108MST171117/7931003786     0005                        00039130                                                                                                                                                                                                      
00025103   O31A112510800025108201801121041100025108MST171118/7931003788         A  0002510300039130                                 S31790                              YCKE, MS. CHUI HONG, MICHELLE MI20180117        1N10003827420180127SEA.FLKGLIGHTING                                                       O   
00025103   O31A212510800025108201801121041100025108MST171118/7931003788         FOB0                              USD                                                        00039130201802140003913000039130                                            00038274                                                     
00025103   O31E112510800025108201801121041100025108MST171118/7931003788     0001EFDHV32D65A                                                 00009840  000000002722140000001020180207SEA.FLKG7931003788                                                                                                                
00025103   O31E912510800025108201801121041 00025108MST171118/7931003788     0001                        00039130                                                                                                                                                                                                      
00025103   O31E112510800025108201801121041100025108MST171118/7931003788     0002EFDHV42D65A                                                 00089760  000000003013840000001020180207SEA.FLKG7931003788                                                                                                                
00025103   O31E912510800025108201801121041 00025108MST171118/7931003788     0002                        00039130                                                                                                                                                                                                      
00025103   O31E112510800025108201801121041100025108MST171118/7931003788     0003EFUHV23D65A                                                 00020000  000000001411440000001020180207SEA.FLKG7931003788                                                                                                                
00025103   O31E912510800025108201801121041 00025108MST171118/7931003788     0003                        00039130                                                                                                                                                                                                      
