12000I     O31A112510700025107201901241640100025107MPH7901005646/7961006628       10002510300029474                                 L31790                              YNR01-SG                        20190310         N 0003827420190206SEA.FMNLLIGHTING                                                       O   
12000I     O31A212510700025107201901241640100025107MPH7901005646/7961006628     FOB0                              USD                                                        00025103201903100002510300025103                                            00038274                                                     
12000I     O31A812510700025107201901241640100025107MPH7901005646/7961006628     FOB                                                                                                                                                                                                                                   
12000I     O31E112510700025107201901241640100025107MPH7901005646/7961006628 0010LDAHV3DH6T                                                  00099000  000000000006720000001020190310SEA.FMNLMPH7901005646/7961006628                                                                                                  
12000I     O31E912510700025107201901241640 00025107MPH7901005646/7961006628 0010                        00025103                                                                                                                                                                                                      
12000I     O31E112510700025107201901241640100025107MPH7901005646/7961006628 0020LDAHV5DH6T                                                  00099000  000000000007120000001020190310SEA.FMNLMPH7901005646/7961006628                                                                                                  
12000I     O31E912510700025107201901241640 00025107MPH7901005646/7961006628 0020                        00025103                                                                                                                                                                                                      
12000I     O31E112510700025107201901241640100025107MPH7901005646/7961006628 0030LDAHV7DH6T                                                  00099000  000000000009220000001020190310SEA.FMNLMPH7901005646/7961006628                                                                                                  
12000I     O31E912510700025107201901241640 00025107MPH7901005646/7961006628 0030                        00025103                                                                                                                                                                                                      
12000I     O31E112510700025107201901241640100025107MPH7901005646/7961006628 0040LDAHV9DH6T                                                  00099000  000000000010320000001020190310SEA.FMNLMPH7901005646/7961006628                                                                                                  
12000I     O31E912510700025107201901241640 00025107MPH7901005646/7961006628 0040                        00025103                                                                                                                                                                                                      
12000I     O31A112510800025108201901242205100025108MST7901005647/7931005941       10002510300039130                                 L31790                              YNR01-SG                        20190310         N 0003827420190220SEA.FLKGLIGHTING                                                       O   
12000I     O31A212510800025108201901242205100025108MST7901005647/7931005941     FOB0                              USD                                                        00025103201903100002510300025103                                            00038274                                                     
12000I     O31A812510800025108201901242205100025108MST7901005647/7931005941     FOB                                                                                                                                                                                                                                   
12000I     O31E112510800025108201901242205100025108MST7901005647/7931005941 0010LDTHV11D65GA1                                               00090000  000000000000120000001020190310SEA.FLKGMST7901005647/7931005941                                                                                                  
12000I     O31E912510800025108201901242205 00025108MST7901005647/7931005941 0010                        00025103                                                                                                                                                                                                      
12000I     O31E112510800025108201901242205100025108MST7901005647/7931005941 0020LDTHV11L30GA1                                               00030000  000000000000120000001020190310SEA.FLKGMST7901005647/7931005941                                                                                                  
12000I     O31E912510800025108201901242205 00025108MST7901005647/7931005941 0020                        00025103                                                                                                                                                                                                      
12000I     O31E112510800025108201901242205100025108MST7901005647/7931005941 0030LDTHV7D65GA1                                                00070000  000000000000120000001020190310SEA.FLKGMST7901005647/7931005941                                                                                                  
12000I     O31E912510800025108201901242205 00025108MST7901005647/7931005941 0030                        00025103                                                                                                                                                                                                      
12000I     O31E112510800025108201901242205100025108MST7901005647/7931005941 0040LDTHV7L30GA1                                                00020000  000000000000120000001020190310SEA.FLKGMST7901005647/7931005941                                                                                                  
12000I     O31E912510800025108201901242205 00025108MST7901005647/7931005941 0040                        00025103                                                                                                                                                                                                      
