12000I     O31A112510800025108201905271008100025108MST7901009164/7931006661       10002510300039130                                 L31790                              NNR01-SG                        20190710         N 0003827420190623SEA.FLKGLIGHTING                                                       O   
12000I     O31A212510800025108201905271008100025108MST7901009164/7931006661     FOB0                              USD                                                        00025103201907100002510300025103SCMM                                        00038274                                                     
12000I     O31A812510800025108201905271008100025108MST7901009164/7931006661     FOB                                                                                                                                                                                                                                   
12000I     O31E112510800025108201905271008100025108MST7901009164/7931006661 0010LDAHV12DH6T                                                 00220000  000000000011520000001020190710SEA.FLKGMST7901009164/7931006661                                                                                                  
12000I     O31E912510800025108201905271008 00025108MST7901009164/7931006661 0010                        00025103                                                                                                                                                                                                      
12000I     O31E112510800025108201905271008100025108MST7901009164/7931006661 0020LDAHV12LH6T                                                 00040000  000000000011520000001020190710SEA.FLKGMST7901009164/7931006661                                                                                                  
12000I     O31E912510800025108201905271008 00025108MST7901009164/7931006661 0020                        00025103                                                                                                                                                                                                      
12000I     O31E112510800025108201905271008100025108MST7901009164/7931006661 0030LDAHV15DH6T                                                 00080000  000000000014220000001020190710SEA.FLKGMST7901009164/7931006661                                                                                                  
12000I     O31E912510800025108201905271008 00025108MST7901009164/7931006661 0030                        00025103                                                                                                                                                                                                      
12000I     O31E112510800025108201905271008100025108MST7901009164/7931006661 0040LDAHV15LH6T                                                 00018000  000000000014220000001020190710SEA.FLKGMST7901009164/7931006661                                                                                                  
12000I     O31E912510800025108201905271008 00025108MST7901009164/7931006661 0040                        00025103                                                                                                                                                                                                      
12000I     O31E112510800025108201905271008100025108MST7901009164/7931006661 0050LDAHV20DH5T                                                 00044000  000000000000120000001020190710SEA.FLKGMST7901009164/7931006661                                                                                                  
12000I     O31E912510800025108201905271008 00025108MST7901009164/7931006661 0050                        00025103                                                                                                                                                                                                      
12000I     O31E112510800025108201905271008100025108MST7901009164/7931006661 0060LDAHV30DH5T                                                 00015000  000000000000120000001020190710SEA.FLKGMST7901009164/7931006661                                                                                                  
12000I     O31E912510800025108201905271008 00025108MST7901009164/7931006661 0060                        00025103                                                                                                                                                                                                      
12000I     O31E112510800025108201905271008100025108MST7901009164/7931006661 0070LDAHV3DH6T                                                  00070000  000000000005520000001020190710SEA.FLKGMST7901009164/7931006661                                                                                                  
12000I     O31E912510800025108201905271008 00025108MST7901009164/7931006661 0070                        00025103                                                                                                                                                                                                      
12000I     O31E112510800025108201905271008100025108MST7901009164/7931006661 0080LDAHV3LH6T                                                  00045000  000000000005520000001020190710SEA.FLKGMST7901009164/7931006661                                                                                                  
12000I     O31E912510800025108201905271008 00025108MST7901009164/7931006661 0080                        00025103                                                                                                                                                                                                      
12000I     O31E112510800025108201905271008100025108MST7901009164/7931006661 0090LDAHV5DH6T                                                  00144000  000000000000610000001020190710SEA.FLKGMST7901009164/7931006661                                                                                                  
12000I     O31E912510800025108201905271008 00025108MST7901009164/7931006661 0090                        00025103                                                                                                                                                                                                      
12000I     O31E112510800025108201905271008100025108MST7901009164/7931006661 0100LDAHV5LH6T                                                  00081000  000000000000610000001020190710SEA.FLKGMST7901009164/7931006661                                                                                                  
12000I     O31E912510800025108201905271008 00025108MST7901009164/7931006661 0100                        00025103                                                                                                                                                                                                      
12000I     O31E112510800025108201905271008100025108MST7901009164/7931006661 0110LDAHV7DH6T                                                  00320000  000000000006820000001020190710SEA.FLKGMST7901009164/7931006661                                                                                                  
12000I     O31E912510800025108201905271008 00025108MST7901009164/7931006661 0110                        00025103                                                                                                                                                                                                      
12000I     O31E112510800025108201905271008100025108MST7901009164/7931006661 0120LDAHV7LH6T                                                  00090000  000000000006820000001020190710SEA.FLKGMST7901009164/7931006661                                                                                                  
12000I     O31E912510800025108201905271008 00025108MST7901009164/7931006661 0120                        00025103                                                                                                                                                                                                      
12000I     O31E112510800025108201905271008100025108MST7901009164/7931006661 0130LDAHV9DH6T                                                  00220000  000000000008920000001020190710SEA.FLKGMST7901009164/7931006661                                                                                                  
12000I     O31E912510800025108201905271008 00025108MST7901009164/7931006661 0130                        00025103                                                                                                                                                                                                      
12000I     O31E112510800025108201905271008100025108MST7901009164/7931006661 0140LDAHV9LH6T                                                  00085000  000000000008920000001020190710SEA.FLKGMST7901009164/7931006661                                                                                                  
12000I     O31E912510800025108201905271008 00025108MST7901009164/7931006661 0140                        00025103                                                                                                                                                                                                      
12000I     O31A112510800025108201905271008100025108MST7901009166/7931006662       10002510300039130                                 L31790                              NNR01-SG                        20190710         N 0003827420190623SEA.FLKGLIGHTING                                                       O   
12000I     O31A212510800025108201905271008100025108MST7901009166/7931006662     FOB0                              USD                                                        00025103201907100002510300025103SCMM                                        00038274                                                     
12000I     O31A812510800025108201905271008100025108MST7901009166/7931006662     FOB                                                                                                                                                                                                                                   
12000I     O31E112510800025108201905271008100025108MST7901009166/7931006662 0010EFDHV15D65T1                                                00162240  000000000000120000001020190710SEA.FLKGMST7901009166/7931006662                                                                                                  
12000I     O31E912510800025108201905271008 00025108MST7901009166/7931006662 0010                        00025103                                                                                                                                                                                                      
12000I     O31E112510800025108201905271008100025108MST7901009166/7931006662 0020EFDHV15L27T1                                                00059520  000000000000120000001020190710SEA.FLKGMST7901009166/7931006662                                                                                                  
12000I     O31E912510800025108201905271008 00025108MST7901009166/7931006662 0020                        00025103                                                                                                                                                                                                      
12000I     O31E112510800025108201905271008100025108MST7901009166/7931006662 0030EFDHV20D65T1                                                00009600  000000000000120000001020190710SEA.FLKGMST7901009166/7931006662                                                                                                  
12000I     O31E912510800025108201905271008 00025108MST7901009166/7931006662 0030                        00025103                                                                                                                                                                                                      
12000I     O31E112510800025108201905271008100025108MST7901009166/7931006662 0040EFDHV23D65T1                                                00004800  000000000000120000001020190710SEA.FLKGMST7901009166/7931006662                                                                                                  
12000I     O31E912510800025108201905271008 00025108MST7901009166/7931006662 0040                        00025103                                                                                                                                                                                                      
12000I     O31E112510800025108201905271008100025108MST7901009166/7931006662 0050EFDHV25D65T                                                 00540480  000000000014820000001020190710SEA.FLKGMST7901009166/7931006662                                                                                                  
12000I     O31E912510800025108201905271008 00025108MST7901009166/7931006662 0050                        00025103                                                                                                                                                                                                      
12000I     O31E112510800025108201905271008100025108MST7901009166/7931006662 0060EFDHV32D65A                                                 00012000  000000000000120000001020190710SEA.FLKGMST7901009166/7931006662                                                                                                  
12000I     O31E912510800025108201905271008 00025108MST7901009166/7931006662 0060                        00025103                                                                                                                                                                                                      
12000I     O31E112510800025108201905271008100025108MST7901009166/7931006662 0070EFDHV42D65A                                                 00004800  000000000000120000001020190710SEA.FLKGMST7901009166/7931006662                                                                                                  
12000I     O31E912510800025108201905271008 00025108MST7901009166/7931006662 0070                        00025103                                                                                                                                                                                                      
12000I     O31E112510800025108201905271008100025108MST7901009166/7931006662 0080EFU11E652V                                                  00044000  000000000012220000001020190710SEA.FLKGMST7901009166/7931006662                                                                                                  
12000I     O31E912510800025108201905271008 00025108MST7901009166/7931006662 0080                        00025103                                                                                                                                                                                                      
12000I     O31E112510800025108201905271008100025108MST7901009166/7931006662 0090EFU14E272V1                                                 00100000  000000000000120000001020190710SEA.FLKGMST7901009166/7931006662                                                                                                  
12000I     O31E912510800025108201905271008 00025108MST7901009166/7931006662 0090                        00025103                                                                                                                                                                                                      
12000I     O31E112510800025108201905271008100025108MST7901009166/7931006662 0100EFU14E652V1                                                 00400000  000000000000120000001020190710SEA.FLKGMST7901009166/7931006662                                                                                                  
12000I     O31E912510800025108201905271008 00025108MST7901009166/7931006662 0100                        00025103                                                                                                                                                                                                      
12000I     O31E112510800025108201905271008100025108MST7901009166/7931006662 0110EFU8E652V1                                                  00150000  000000000000120000001020190710SEA.FLKGMST7901009166/7931006662                                                                                                  
12000I     O31E912510800025108201905271008 00025108MST7901009166/7931006662 0110                        00025103                                                                                                                                                                                                      
12000I     O31E112510800025108201905271008100025108MST7901009166/7931006662 0120EFUHV18D65A                                                 00090000  000000000000120000001020190710SEA.FLKGMST7901009166/7931006662                                                                                                  
12000I     O31E912510800025108201905271008 00025108MST7901009166/7931006662 0120                        00025103                                                                                                                                                                                                      
12000I     O31E112510800025108201905271008100025108MST7901009166/7931006662 0130EFUHV23D65A                                                 00030000  000000000000120000001020190710SEA.FLKGMST7901009166/7931006662                                                                                                  
12000I     O31E912510800025108201905271008 00025108MST7901009166/7931006662 0130                        00025103                                                                                                                                                                                                      
12000I     O31E112510800025108201905271008100025108MST7901009166/7931006662 0140LDR400N                                                     00008000  000000000000120000001020190710SEA.FLKGMST7901009166/7931006662                                                                                                  
12000I     O31E912510800025108201905271008 00025108MST7901009166/7931006662 0140                        00025103                                                                                                                                                                                                      
