12000I     O31A112510700025107201907021841100025107MPH7901010676/7961007898       10002510300029474                                 L31790                              YNR01-SG                        20190805         N 0003827420190704SEA.FMNLLIGHTING                                                       O   
12000I     O31A212510700025107201907021841100025107MPH7901010676/7961007898     FOB0                              USD                                                        00025103201908050002510300025103                                            00038274                                                     
12000I     O31A812510700025107201907021841100025107MPH7901010676/7961007898     FOB                                                                                                                                                                                                                                   
12000I     O31E112510700025107201907021841100025107MPH7901010676/7961007898 0010EFDHV25D65A                                                 00025200  000000000000120000001020190805SEA.FMNLMPH7901010676/7961007898                                                                                                  
12000I     O31E912510700025107201907021841 00025107MPH7901010676/7961007898 0010                        00025103                                                                                                                                                                                                      
12000I     O31E112510700025107201907021841100025107MPH7901010676/7961007898 0020LDAHV12DH6T                                                 00080000  000000000000120000001020190805SEA.FMNLMPH7901010676/7961007898                                                                                                  
12000I     O31E912510700025107201907021841 00025107MPH7901010676/7961007898 0020                        00025103                                                                                                                                                                                                      
12000I     O31E112510700025107201907021841100025107MPH7901010676/7961007898 0030LDAHV12LH6T                                                 00020000  000000000000120000001020190805SEA.FMNLMPH7901010676/7961007898                                                                                                  
12000I     O31E912510700025107201907021841 00025107MPH7901010676/7961007898 0030                        00025103                                                                                                                                                                                                      
12000I     O31E112510700025107201907021841100025107MPH7901010676/7961007898 0040LDAHV15DH6T                                                 00080000  000000000000120000001020190805SEA.FMNLMPH7901010676/7961007898                                                                                                  
12000I     O31E912510700025107201907021841 00025107MPH7901010676/7961007898 0040                        00025103                                                                                                                                                                                                      
12000I     O31E112510700025107201907021841100025107MPH7901010676/7961007898 0050LDAHV15LH6T                                                 00020000  000000000000120000001020190805SEA.FMNLMPH7901010676/7961007898                                                                                                  
12000I     O31E912510700025107201907021841 00025107MPH7901010676/7961007898 0050                        00025103                                                                                                                                                                                                      
12000I     O31E112510700025107201907021841100025107MPH7901010676/7961007898 0060LDAHV3DH6T                                                  00080000  000000000000120000001020190805SEA.FMNLMPH7901010676/7961007898                                                                                                  
12000I     O31E912510700025107201907021841 00025107MPH7901010676/7961007898 0060                        00025103                                                                                                                                                                                                      
12000I     O31E112510700025107201907021841100025107MPH7901010676/7961007898 0070LDAHV5DH6T                                                  00085000  000000000000120000001020190805SEA.FMNLMPH7901010676/7961007898                                                                                                  
12000I     O31E912510700025107201907021841 00025107MPH7901010676/7961007898 0070                        00025103                                                                                                                                                                                                      
12000I     O31E112510700025107201907021841100025107MPH7901010676/7961007898 0080LDAHV7DH6T                                                  00085000  000000000000120000001020190805SEA.FMNLMPH7901010676/7961007898                                                                                                  
12000I     O31E912510700025107201907021841 00025107MPH7901010676/7961007898 0080                        00025103                                                                                                                                                                                                      
12000I     O31E112510700025107201907021841100025107MPH7901010676/7961007898 0090LDAHV7LH6T                                                  00020000  000000000000120000001020190805SEA.FMNLMPH7901010676/7961007898                                                                                                  
12000I     O31E912510700025107201907021841 00025107MPH7901010676/7961007898 0090                        00025103                                                                                                                                                                                                      
12000I     O31E112510700025107201907021841100025107MPH7901010676/7961007898 0100LDAHV9DH6T                                                  00080000  000000000000120000001020190805SEA.FMNLMPH7901010676/7961007898                                                                                                  
12000I     O31E912510700025107201907021841 00025107MPH7901010676/7961007898 0100                        00025103                                                                                                                                                                                                      
12000I     O31E112510700025107201907021841100025107MPH7901010676/7961007898 0110LDAHV9LH6T                                                  00020000  000000000000120000001020190805SEA.FMNLMPH7901010676/7961007898                                                                                                  
12000I     O31E912510700025107201907021841 00025107MPH7901010676/7961007898 0110                        00025103                                                                                                                                                                                                      
