00025103   O31A112511300025113201806251156100025113MNZ175750/P89917             A  0002510300029671                                 S31790ERASMUSJ                      NCKE, MS. CHUI HONG, MICHELLE MI20180710        1N10003827420180725SEA.FAKLLIGHTING                                                       O   
00025103   O31A212511300025113201806251156100025113MNZ175750/P89917             FOB0                              USD                                                                20180820                SCMM                                        00038274                                                     
00025103   O31E112511300025113201806251156100025113MNZ175750/P89917         0001LDAHV10DG4BA        LDAHV10DG4BA                            00002500  0000000024714400000010                                         ATP Auto Generate                                                                                
00025103   O31E112511300025113201806251156100025113MNZ175750/P89917         0002LDAHV10LG4A1        LDAHV10LG4A1                            00002500  0000000024714400000010                                         ATP Auto Generate                                                                                
00025103   O31E112511300025113201806251156100025113MNZ175750/P89917         0003LDAHV10LG4BA        LDAHV10LG4BA                            00002500  0000000024714400000010                                         ATP Auto Generate                                                                                
00025103   O31E112511300025113201806251156100025113MNZ175750/P89917         0004LDAHV7DG4A1         LDAHV7DG4A1                             00002500  0000000001717300000010                                         ATP Auto Generate                                                                                
00025103   O31E112511300025113201806251156100025113MNZ175750/P89917         0005LDAHV7LG4A1         LDAHV7LG4A1                             00002500  0000000001717300000010                                         ATP Auto Generate                                                                                
00025103   O31E112511300025113201806251156100025113MNZ175750/P89917         0006LDAHV8LG4A1         LDAHV8LG4A1                             00002500  0000000021072400000010                                         ATP Auto Generate                                                                                
