12000I     O31A112510700025107201904041540100025107MPH7901008042/7961007171       10002510300029474                                 L31790                              YNR01-SG                        20190421         N 00038274        SEA.FMNLLIGHTING                                                       O   
12000I     O31A212510700025107201904041540100025107MPH7901008042/7961007171     FOB0                              USD                                                        00025103201904210002510300025103                                            00038274                                                     
12000I     O31A812510700025107201904041540100025107MPH7901008042/7961007171     FOB                                                                                                                                                                                                                                   
12000I     O31E112510700025107201904041540100025107MPH7901008042/7961007171 0010LDR400N                                                     00000500  000000000000120000001020190421SEA.FMNLMPH7901008042/7961007171                                                                                                  
12000I     O31E912510700025107201904041540 00025107MPH7901008042/7961007171 0010                        00025103                                                                                                                                                                                                      
