12000I     O31A112510700025107201811071440100025107MPH7901003809/7961006207       10002510300029474                                 L31790                              YNR01-SG                        20181214         N 0003827420181112SEA.FMNLLIGHTING                                                       O   
12000I     O31A212510700025107201811071440100025107MPH7901003809/7961006207     FOB0                              USD                                                        00025103201812140002510300025103                                            00038274                                                     
12000I     O31A812510700025107201811071440100025107MPH7901003809/7961006207     FOB                                                                                                                                                                                                                                   
12000I     O31E112510700025107201811071440100025107MPH7901003809/7961006207 0010EFUHV11D65A                                                 00035000  000000000000120000001020181214SEA.FMNLMPH7901003809/7961006207                                                                                                  
12000I     O31E912510700025107201811071440 00025107MPH7901003809/7961006207 0010                        00025103                                                                                                                                                                                                      
12000I     O31E112510700025107201811071440100025107MPH7901003809/7961006207 0020EFUHV23D65A3                                                00035000  000000000000120000001020181214SEA.FMNLMPH7901003809/7961006207                                                                                                  
12000I     O31E912510700025107201811071440 00025107MPH7901003809/7961006207 0020                        00025103                                                                                                                                                                                                      
12000I     O31E112510700025107201811071440100025107MPH7901003809/7961006207 0030EFUHV8D65A                                                  00035000  000000000000120000001020181214SEA.FMNLMPH7901003809/7961006207                                                                                                  
12000I     O31E912510700025107201811071440 00025107MPH7901003809/7961006207 0030                        00025103                                                                                                                                                                                                      
12000I     O31E112510700025107201811071440100025107MPH7901003809/7961006207 0040LDAHV12DH5T                                                 00080000  000000000015220000001020181214SEA.FMNLMPH7901003809/7961006207                                                                                                  
12000I     O31E912510700025107201811071440 00025107MPH7901003809/7961006207 0040                        00025103                                                                                                                                                                                                      
12000I     O31E112510700025107201811071440100025107MPH7901003809/7961006207 0050LDAHV15DH5T                                                 00080000  000000000021620000001020181214SEA.FMNLMPH7901003809/7961006207                                                                                                  
12000I     O31E912510700025107201811071440 00025107MPH7901003809/7961006207 0050                        00025103                                                                                                                                                                                                      
12000I     O31E112510700025107201811071440100025107MPH7901003809/7961006207 0060LDAHV3DH6A                                                  00080000  000000000000710000001020181214SEA.FMNLMPH7901003809/7961006207                                                                                                  
12000I     O31E912510700025107201811071440 00025107MPH7901003809/7961006207 0060                        00025103                                                                                                                                                                                                      
12000I     O31E112510700025107201811071440100025107MPH7901003809/7961006207 0070LDAHV5DH6A                                                  00080000  000000000000810000001020181214SEA.FMNLMPH7901003809/7961006207                                                                                                  
12000I     O31E912510700025107201811071440 00025107MPH7901003809/7961006207 0070                        00025103                                                                                                                                                                                                      
12000I     O31E112510700025107201811071440100025107MPH7901003809/7961006207 0080LDAHV7DH6A                                                  00080000  000000000009420000001020181214SEA.FMNLMPH7901003809/7961006207                                                                                                  
12000I     O31E912510700025107201811071440 00025107MPH7901003809/7961006207 0080                        00025103                                                                                                                                                                                                      
