12000I     O31A112510800025108201905312205100025108MST7901009833/7931006712       10002510300039130                                 L31790                              YNR01-SG                        20190711         N 0003827420190623SEA.FLKGLIGHTING                                                       O   
12000I     O31A212510800025108201905312205100025108MST7901009833/7931006712     FOB0                              USD                                                        00025103201907110002510300025103                                            00038274                                                     
12000I     O31A812510800025108201905312205100025108MST7901009833/7931006712     FOB                                                                                                                                                                                                                                   
12000I     O31E112510800025108201905312205100025108MST7901009833/7931006712 0010LDAHV23DH5T                                                 00030000  000000000000120000001020190711SEA.FLKGMST7901009833/7931006712                                                                                                  
12000I     O31E912510800025108201905312205 00025108MST7901009833/7931006712 0010                        00025103                                                                                                                                                                                                      
12000I     O31E112510800025108201905312205100025108MST7901009833/7931006712 0020LDAHV3LH6T                                                  00005000  000000000005520000001020190711SEA.FLKGMST7901009833/7931006712                                                                                                  
12000I     O31E912510800025108201905312205 00025108MST7901009833/7931006712 0020                        00025103                                                                                                                                                                                                      
12000I     O31A112510800025108201905312205100025108MST7901009834/7931006713       10002510300039130                                 L31790                              YNR01-SG                        20190711         N 0003827420190623SEA.FLKGLIGHTING                                                       O   
12000I     O31A212510800025108201905312205100025108MST7901009834/7931006713     FOB0                              USD                                                        00025103201907110002510300025103                                            00038274                                                     
12000I     O31A812510800025108201905312205100025108MST7901009834/7931006713     FOB                                                                                                                                                                                                                                   
12000I     O31E112510800025108201905312205100025108MST7901009834/7931006713 0010EFDHV15L27T1                                                00000960  000000000000120000001020190711SEA.FLKGMST7901009834/7931006713                                                                                                  
12000I     O31E912510800025108201905312205 00025108MST7901009834/7931006713 0010                        00025103                                                                                                                                                                                                      
