00025103   O31A112520700025207201604051133100025207MGM151811/660-404408         A  000251032062061620620616                         L31790                              YCKE, MS. CHUI HONG, MICHELLE MI20160410        1N10003827420160413SEA.F   LIGHTING                                                       O   
00025103   O31A212520700025207201604051133100025207MGM151811/660-404408         FOB0                              USD                                                                20160510                                                            00038274                                                     
00025103   O31E112520700025207201604051133100025207MGM151811/660-404408     0001EFU11E272V          EFU11E272V                              00006000  0000000014041400000010                660-404408                                                                                                                
00025103   O31E112520700025207201604051133100025207MGM151811/660-404408     0002EFU14E652V          EFU14E652V                              00012000  0000000014041400000010                660-404408                                                                                                                
00025103   O31E112520700025207201604051133100025207MGM151811/660-404408     0003EFU8E272V           EFU8E272V                               00024000  0000000013756400000010                660-404408                                                                                                                
00025103   O31E112520700025207201604051133100025207MGM151811/660-404408     0004EFU8E652V           EFU8E652V                               00012000  0000000013756400000010                660-404408                                                                                                                
00025103   O31A112511100025111201604061131100025111MSP151818/DD5555-234817      A  0002510300029073                                 S31790                              YCKE, MS. CHUI HONG, MICHELLE MI20160411        1N10003827420160421SEA.FSINLIGHTING                                                       O   
00025103   O31A212511100025111201604061131100025111MSP151818/DD5555-234817      FOB0                              USD                                                                20160510                                                            00038274                                                     
00025103   O31A612511100025111201604061131100025111MSP151818/DD5555-234817      Replace 234776 due to wrong supplier code                                                                                                                                                                                             
00025103   O31E112511100025111201604061131100025111MSP151818/DD5555-234817  0001EFDHV15D65A         EFDHV15D65A                             00005760  0000000012239400000010                DD5555-234817                                                                                                             
00025103   O31E112511100025111201604061131100025111MSP151818/DD5555-234817  0002EFDHV20D65A         EFDHV20D65A                             00003840  0000000000152200000010                DD5555-234817                                                                                                             
00025103   O31E112511100025111201604061131100025111MSP151818/DD5555-234817  0003EFDHV25D65A         EFDHV25D65A                             00003840  0000000000152200000010                DD5555-234817                                                                                                             
00025103   O31A112511100025111201604061131100025111MSP151819/DD5555-234818      A  0002510300029073                                 L31790                              YCKE, MS. CHUI HONG, MICHELLE MI20160411        1N10003827420160421SEA.FSINLIGHTING                                                       O   
00025103   O31A212511100025111201604061131100025111MSP151819/DD5555-234818      FOB0                              USD                                                                20160510                                                            00038274                                                     
00025103   O31A612511100025111201604061131100025111MSP151819/DD5555-234818      Replace 234775 due to wrong supplier code                                                                                                                                                                                             
00025103   O31E112511100025111201604061131100025111MSP151819/DD5555-234818  0001FCL32EX-D/30        FCL32EX-D/30                            00060000  0000000002282300000010                DD5555-234818                                                                                                             
