00025103   O31A112510800025108201611280843100025108MST158545/7931001144         A  0002510300039130                                 S31790                              NCKE, MS. CHUI HONG, MICHELLE MI20161213        1N10003827420170116SEA.FLKGLIGHTING                                                       O   
00025103   O31A212510800025108201611280843100025108MST158545/7931001144         FOB0                              USD                                                        00039130201702030003913000039130SCMM                                        00038274                                                     
00025103   O31E112510800025108201611280843100025108MST158545/7931001144     0001LDR400N                                                     00005100  0000000003535200000010        SEA.FLKG7931001144                                                                                                                
00025103   O31E912510800025108201611280843 00025108MST158545/7931001144     0001                        00039130                                                                                                                                                                                                      
00025103   O31A112510800025108201611280843100025108MST158549/7931001143         A  0002510300039130                                 L31790                              NCKE, MS. CHUI HONG, MICHELLE MI20161213        1N10003827420161224SEA.FLKGLIGHTING                                                       O   
00025103   O31A212510800025108201611280843100025108MST158549/7931001143         FOB0                              USD                                                        00039130201701100003913000039130SCMM                                        00038274                                                     
00025103   O31E112510800025108201611280843100025108MST158549/7931001143     0001LDAHV3DH6A                                                  00240000  0000000007164400000010        SEA.FLKG7931001143                                                                                                                
00025103   O31E912510800025108201611280843 00025108MST158549/7931001143     0001                        00039130                                                                                                                                                                                                      
00025103   O31E112510800025108201611280843100025108MST158549/7931001143     0002LDAHV3LH6A                                                  00100000  0000000007164400000010        SEA.FLKG7931001143                                                                                                                
00025103   O31E912510800025108201611280843 00025108MST158549/7931001143     0002                        00039130                                                                                                                                                                                                      
00025103   O31E112510800025108201611280843100025108MST158549/7931001143     0003LDAHV5DH6A                                                  00350000  0000000008539400000010        SEA.FLKG7931001143                                                                                                                
00025103   O31E912510800025108201611280843 00025108MST158549/7931001143     0003                        00039130                                                                                                                                                                                                      
00025103   O31E112510800025108201611280843100025108MST158549/7931001143     0004LDAHV5LH6A                                                  00077000  0000000008539400000010        SEA.FLKG7931001143                                                                                                                
00025103   O31E912510800025108201611280843 00025108MST158549/7931001143     0004                        00039130                                                                                                                                                                                                      
00025103   O31E112510800025108201611280843100025108MST158549/7931001143     0005LDAHV7DH6A                                                  00500000  0000000001006300000010        SEA.FLKG7931001143                                                                                                                
00025103   O31E912510800025108201611280843 00025108MST158549/7931001143     0005                        00039130                                                                                                                                                                                                      
00025103   O31E112510800025108201611280843100025108MST158549/7931001143     0006LDAHV7LH6A                                                  00165000  0000000001006300000010        SEA.FLKG7931001143                                                                                                                
00025103   O31E912510800025108201611280843 00025108MST158549/7931001143     0006                        00039130                                                                                                                                                                                                      
00025103   O31E112510800025108201611280843100025108MST158549/7931001143     0007LDAHV9DH6A                                                  00370000  0000000001475300000010        SEA.FLKG7931001143                                                                                                                
00025103   O31E912510800025108201611280843 00025108MST158549/7931001143     0007                        00039130                                                                                                                                                                                                      
00025103   O31E112510800025108201611280843100025108MST158549/7931001143     0008LDAHV9LH6A                                                  00103000  0000000001475300000010        SEA.FLKG7931001143                                                                                                                
00025103   O31E912510800025108201611280843 00025108MST158549/7931001143     0008                        00039130                                                                                                                                                                                                      
00025103   O31E112510800025108201611280843100025108MST158549/7931001143     0009LDS300D2N                                                   00007000  0000000223169400000010        SEA.FLKG7931001143                                                                                                                
00025103   O31E912510800025108201611280843 00025108MST158549/7931001143     0009                        00039130                                                                                                                                                                                                      
