00025103   O31A112510800025108201804101045100025108MST173820/7931004330         A  0002510300039130                                 L31790                              YCKE, MS. CHUI HONG, MICHELLE MI20180415        1N10003827420180428SEA.FLKGUA                                                             O   
00025103   O31A212510800025108201804101045100025108MST173820/7931004330         FOB0                              USD                                                        00039130201805160003913000039130                                            00038274                                                     
00025103   O31E112510800025108201804101045100025108MST173820/7931004330     0001LDAHV12DH5T                                                 00070000  000000001327140000001020180509SEA.FLKG7931004330                                                                                                                
00025103   O31E912510800025108201804101045 00025108MST173820/7931004330     0001                        00039130                                                                                                                                                                                                      
00025103   O31E112510800025108201804101045100025108MST173820/7931004330     0002LDAHV15DH5T                                                 00060000  000000001775940000001020180509SEA.FLKG7931004330                                                                                                                
00025103   O31E912510800025108201804101045 00025108MST173820/7931004330     0002                        00039130                                                                                                                                                                                                      
00025103   O31A112510800025108201804101045100025108MST173821/7931004332         A  0002510300039130                                 S31790                              YCKE, MS. CHUI HONG, MICHELLE MI20180415        1N10003827420180428SEA.FLKGLIGHTING                                                       O   
00025103   O31A212510800025108201804101045100025108MST173821/7931004332         FOB0                              USD                                                        00039130201805160003913000039130                                            00038274                                                     
00025103   O31E112510800025108201804101045100025108MST173821/7931004332     0001EFU8E652V1                                                  00040000  000000001088340000001020180509SEA.FLKG7931004332                                                                                                                
00025103   O31E912510800025108201804101045 00025108MST173821/7931004332     0001                        00039130                                                                                                                                                                                                      
00025103   O31E112510800025108201804101045100025108MST173821/7931004332     0002EFUHV18D65A                                                 00020000  000000001342340000001020180509SEA.FLKG7931004332                                                                                                                
00025103   O31E912510800025108201804101045 00025108MST173821/7931004332     0002                        00039130                                                                                                                                                                                                      
00025103   O31A112510800025108201804101045100025108MST173822/7931004331         A  0002510300039130                                 S31790                              YCKE, MS. CHUI HONG, MICHELLE MI20180415        1N10003827420180425SEA.FLKGLIGHTING                                                       O   
00025103   O31A212510800025108201804101045100025108MST173822/7931004331         FOB0                              USD                                                        00039130201805130003913000039130                                            00038274                                                     
00025103   O31E112510800025108201804101045100025108MST173822/7931004331     0001EFDHV11D65T                                                 00009600  000000001223940000001020180506SEA.FLKG7931004331                                                                                                                
00025103   O31E912510800025108201804101045 00025108MST173822/7931004331     0001                        00039130                                                                                                                                                                                                      
00025103   O31E112510800025108201804101045100025108MST173822/7931004331     0002EFDHV25L27T                                                 00004800  000000000014820000001020180506SEA.FLKG7931004331                                                                                                                
00025103   O31E912510800025108201804101045 00025108MST173822/7931004331     0002                        00039130                                                                                                                                                                                                      
00025103   O31E112510800025108201804101045100025108MST173822/7931004331     0003EFDHV32D65A                                                 00009840  000000002722140000001020180506SEA.FLKG7931004331                                                                                                                
00025103   O31E912510800025108201804101045 00025108MST173822/7931004331     0003                        00039130                                                                                                                                                                                                      
00025103   O31E112510800025108201804101045100025108MST173822/7931004331     0004EFDHV42D65A                                                 00005040  000000003013840000001020180506SEA.FLKG7931004331                                                                                                                
00025103   O31E912510800025108201804101045 00025108MST173822/7931004331     0004                        00039130                                                                                                                                                                                                      
00025103   O31A112510800025108201804101045100025108MST173823/7931004329         A  0002510300039130                                 L31790                              YCKE, MS. CHUI HONG, MICHELLE MI20180415        1N10003827420180425SEA.FLKGLIGHTING                                                       O   
00025103   O31A212510800025108201804101045100025108MST173823/7931004329         FOB0                              USD                                                        00039130201805130003913000039130                                            00038274                                                     
00025103   O31E112510800025108201804101045100025108MST173823/7931004329     0001LDAHV12DH5T                                                 00010000  000000001327140000001020180506SEA.FLKG7931004329                                                                                                                
00025103   O31E912510800025108201804101045 00025108MST173823/7931004329     0001                        00039130                                                                                                                                                                                                      
00025103   O31E112510800025108201804101045100025108MST173823/7931004329     0002LDAHV12LH5T                                                 00025000  000000001327140000001020180506SEA.FLKG7931004329                                                                                                                
00025103   O31E912510800025108201804101045 00025108MST173823/7931004329     0002                        00039130                                                                                                                                                                                                      
00025103   O31E112510800025108201804101045100025108MST173823/7931004329     0003LDAHV15DH5T                                                 00010000  000000001775940000001020180506SEA.FLKG7931004329                                                                                                                
00025103   O31E912510800025108201804101045 00025108MST173823/7931004329     0003                        00039130                                                                                                                                                                                                      
00025103   O31E112510800025108201804101045100025108MST173823/7931004329     0004LDAHV15LH5T                                                 00060000  000000001775940000001020180506SEA.FLKG7931004329                                                                                                                
00025103   O31E912510800025108201804101045 00025108MST173823/7931004329     0004                        00039130                                                                                                                                                                                                      
00025103   O31E112510800025108201804101045100025108MST173823/7931004329     0005LDAHV3LH6A                                                  00010000  000000000630340000001020180506SEA.FLKG7931004329                                                                                                                
00025103   O31E912510800025108201804101045 00025108MST173823/7931004329     0005                        00039130                                                                                                                                                                                                      
