00025103   O31A112510800025108201610181036100025108MST157414/7931000847         A  0002510300039130                                 L31790                              YCKE, MS. CHUI HONG, MICHELLE MI20161023        1N100038274        SEA.FLKGLIGHTING                                                       O   
00025103   O31A212510800025108201610181036100025108MST157414/7931000847         FOB0                              USD                                                        00039130201611040003913000039130                                            00038274                                                     
00025103   O31E112510800025108201610181036100025108MST157414/7931000847     0001LDAHV3DH6A                                                  00360000  0000000007164400000010        SEA.FLKG7931000847                                                                                                                
00025103   O31E912510800025108201610181036 00025108MST157414/7931000847     0001                        00039130                                                                                                                                                                                                      
00025103   O31E112510800025108201610181036100025108MST157414/7931000847     0002LDAHV3LH6A                                                  00151000  0000000007164400000010        SEA.FLKG7931000847                                                                                                                
00025103   O31E912510800025108201610181036 00025108MST157414/7931000847     0002                        00039130                                                                                                                                                                                                      
00025103   O31E112510800025108201610181036100025108MST157414/7931000847     0003LDAHV5DH6A                                                  00150000  0000000008539400000010        SEA.FLKG7931000847                                                                                                                
00025103   O31E912510800025108201610181036 00025108MST157414/7931000847     0003                        00039130                                                                                                                                                                                                      
00025103   O31E112510800025108201610181036100025108MST157414/7931000847     0004LDAHV5LH6A                                                  00140000  0000000008539400000010        SEA.FLKG7931000847                                                                                                                
00025103   O31E912510800025108201610181036 00025108MST157414/7931000847     0004                        00039130                                                                                                                                                                                                      
00025103   O31E112510800025108201610181036100025108MST157414/7931000847     0005LDAHV7DH6A                                                  00400000  0000000001006300000010        SEA.FLKG7931000847                                                                                                                
00025103   O31E912510800025108201610181036 00025108MST157414/7931000847     0005                        00039130                                                                                                                                                                                                      
00025103   O31E112510800025108201610181036100025108MST157414/7931000847     0006LDAHV7LH6A                                                  00030000  0000000001006300000010        SEA.FLKG7931000847                                                                                                                
00025103   O31E912510800025108201610181036 00025108MST157414/7931000847     0006                        00039130                                                                                                                                                                                                      
00025103   O31E112510800025108201610181036100025108MST157414/7931000847     0007LDAHV9DH6A                                                  00160000  0000000001475300000010        SEA.FLKG7931000847                                                                                                                
00025103   O31E912510800025108201610181036 00025108MST157414/7931000847     0007                        00039130                                                                                                                                                                                                      
