12000I     O31A112510800025108201808292205100025108MST7901001874/7931005174       10002510300039130                                 L31790                              YNR01-SG                        20181014         N 0003827420180926SEA.FLKGLIGHTING                                                       O   
12000I     O31A212510800025108201808292205100025108MST7901001874/7931005174     FOB0                              USD                                                        00025103201810140002510300025103                                            00038274                                                     
12000I     O31A812510800025108201808292205100025108MST7901001874/7931005174     FOB                                                                                                                                                                                                                                   
12000I     O31E112510800025108201808292205100025108MST7901001874/7931005174 0010LDAHV5LH6T                                                  00210000  000000000000120000001020181014SEA.FLKGMST7901001874/7931005174                                                                                                  
12000I     O31E912510800025108201808292205 00025108MST7901001874/7931005174 0010                        00025103                                                                                                                                                                                                      
12000I     O31A112510800025108201808292205100025108MST7901001875/7931005179       10002510300039130                                 L31790                              YNR01-SG                        20181108         N 0003827420181021SEA.FLKGLIGHTING                                                       O   
12000I     O31A212510800025108201808292205100025108MST7901001875/7931005179     FOB0                              USD                                                        00025103201811080002510300025103                                            00038274                                                     
12000I     O31A812510800025108201808292205100025108MST7901001875/7931005179     FOB                                                                                                                                                                                                                                   
12000I     O31E112510800025108201808292205100025108MST7901001875/7931005179 0010LDA8DNLHSNA                                                 00050000  000000000000120000001020181108SEA.FLKGMST7901001875/7931005179                                                                                                  
12000I     O31E912510800025108201808292205 00025108MST7901001875/7931005179 0010                        00025103                                                                                                                                                                                                      
12000I     O31A112510800025108201808292206100025108MST7901001876/7931005175       10002510300039130                                 L31790                              YNR01-SG                        20181025         N 0003827420181007SEA.FLKGLIGHTING                                                       O   
12000I     O31A212510800025108201808292206100025108MST7901001876/7931005175     FOB0                              USD                                                        00025103201810250002510300025103                                            00038274                                                     
12000I     O31A812510800025108201808292206100025108MST7901001876/7931005175     FOB                                                                                                                                                                                                                                   
12000I     O31E112510800025108201808292206100025108MST7901001876/7931005175 0010EFDHV15D65T1                                                00050000  000000000000120000001020181025SEA.FLKGMST7901001876/7931005175                                                                                                  
12000I     O31E912510800025108201808292206 00025108MST7901001876/7931005175 0010                        00025103                                                                                                                                                                                                      
12000I     O31E112510800025108201808292206100025108MST7901001876/7931005175 0020EFDHV15L27T1                                                00009800  000000000000120000001020181025SEA.FLKGMST7901001876/7931005175                                                                                                  
12000I     O31E912510800025108201808292206 00025108MST7901001876/7931005175 0020                        00025103                                                                                                                                                                                                      
12000I     O31E112510800025108201808292206100025108MST7901001876/7931005175 0030EFDHV23D65T1                                                00001920  000000000000120000001020181025SEA.FLKGMST7901001876/7931005175                                                                                                  
12000I     O31E912510800025108201808292206 00025108MST7901001876/7931005175 0030                        00025103                                                                                                                                                                                                      
12000I     O31E112510800025108201808292206100025108MST7901001876/7931005175 0040EFDHV25D65T                                                 00300000  000000000014820000001020181025SEA.FLKGMST7901001876/7931005175                                                                                                  
12000I     O31E912510800025108201808292206 00025108MST7901001876/7931005175 0040                        00025103                                                                                                                                                                                                      
12000I     O31E112510800025108201808292206100025108MST7901001876/7931005175 0050EFDHV42D65A                                                 00009840  000000000000120000001020181025SEA.FLKGMST7901001876/7931005175                                                                                                  
12000I     O31E912510800025108201808292206 00025108MST7901001876/7931005175 0050                        00025103                                                                                                                                                                                                      
12000I     O31E112510800025108201808292206100025108MST7901001876/7931005175 0060EFU14E652V1                                                 00050000  000000000000120000001020181025SEA.FLKGMST7901001876/7931005175                                                                                                  
12000I     O31E912510800025108201808292206 00025108MST7901001876/7931005175 0060                        00025103                                                                                                                                                                                                      
12000I     O31E112510800025108201808292206100025108MST7901001876/7931005175 0070EFUHV23D65A                                                 00001000  000000000000120000001020181025SEA.FLKGMST7901001876/7931005175                                                                                                  
12000I     O31E912510800025108201808292206 00025108MST7901001876/7931005175 0070                        00025103                                                                                                                                                                                                      
