12000I     O31A112511300025113201902251018100025113MNZ7901006498/P91463           10002510300029671                                 S31790                              NNR01-SG                                         N 0003827420190325SEA.FAKLLIGHTING                                                       O   
12000I     O31A212511300025113201902251018100025113MNZ7901006498/P91463         FOB0                              USD                                                        00025103201904200002510300025103SCMM                                        00038274                                                     
12000I     O31A812511300025113201902251018100025113MNZ7901006498/P91463         FOB                                                                                                                                                                                                                                   
12000I     O31E112511300025113201902251018100025113MNZ7901006498/P91463     0010LDAHV10LG4A1                                                00002500  0000000000001200000010        SEA.FAKLMNZ7901006498/P91463                                                                                                      
12000I     O31E912511300025113201902251018 00025113MNZ7901006498/P91463     0010                        00025103                                                                                                                                                                                                      
12000I     O31E112511300025113201902251018100025113MNZ7901006498/P91463     0020LDAHV7LG4BA                                                 00002500  0000000000001200000010        SEA.FAKLMNZ7901006498/P91463                                                                                                      
12000I     O31E912511300025113201902251018 00025113MNZ7901006498/P91463     0020                        00025103                                                                                                                                                                                                      
12000I     O31E112511300025113201902251018100025113MNZ7901006498/P91463     0030LDAHV8DG4A1                                                 00002500  0000000000001200000010        SEA.FAKLMNZ7901006498/P91463                                                                                                      
12000I     O31E912511300025113201902251018 00025113MNZ7901006498/P91463     0030                        00025103                                                                                                                                                                                                      
