12000I     O31A112510800025108201807172206100025108MST7901000212/7931004905       10002510300039130                                 L31790                              YNR01-SG                        20180806         N 0003827420180719SEA.FLKGLIGHTING                                                       O   
12000I     O31A212510800025108201807172206100025108MST7901000212/7931004905     FOB                               USD                                                        00025103201808060002510300025103                                            00038274                                                     
12000I     O31A812510800025108201807172206100025108MST7901000212/7931004905     FOB                                                                                                                                                                                                                                   
12000I     O31E112510800025108201807172206100025108MST7901000212/7931004905 0010LDS300D2N                                                   00001000PC000000000000120000001020180806SEA.FLKGMST7901000212/7931004905                                                                                                  
12000I     O31E912510800025108201807172206 00025108MST7901000212/7931004905 0010                        00025103                                                                                                                                                                                                      
