00025103   O31A112510800025108201704201033100025108MST162579/7931002108         A  0002510300039130                                 S31790                              YCKE, MS. CHUI HONG, MICHELLE MI20170425        1N10003827420170423SEA.FLKGLIGHTING                                                       O   
00025103   O31A212510800025108201704201033100025108MST162579/7931002108         FOB0                              USD                                                        00039130201705110003913000039130                                            00038274                                                     
00025103   O31E112510800025108201704201033100025108MST162579/7931002108     0001EFDHV11D65T                                                 00038000  000000001223940000001020170504SEA.FLKG7931002108                                                                                                                
00025103   O31E912510800025108201704201033 00025108MST162579/7931002108     0001                        00039130                                                                                                                                                                                                      
00025103   O31E112510800025108201704201033100025108MST162579/7931002108     0002EFDHV15D65T1                                                00150720  000000001112740000001020170504SEA.FLKG7931002108                                                                                                                
00025103   O31E912510800025108201704201033 00025108MST162579/7931002108     0002                        00039130                                                                                                                                                                                                      
00025103   O31E112510800025108201704201033100025108MST162579/7931002108     0003EFDHV15L27T1                                                00064320  000000001112740000001020170504SEA.FLKG7931002108                                                                                                                
00025103   O31E912510800025108201704201033 00025108MST162579/7931002108     0003                        00039130                                                                                                                                                                                                      
00025103   O31E112510800025108201704201033100025108MST162579/7931002108     0004EFDHV20D65T1                                                00039360  000000001381940000001020170504SEA.FLKG7931002108                                                                                                                
00025103   O31E912510800025108201704201033 00025108MST162579/7931002108     0004                        00039130                                                                                                                                                                                                      
00025103   O31E112510800025108201704201033100025108MST162579/7931002108     0005EFDHV23D65T1                                                00042240  000000001381940000001020170504SEA.FLKG7931002108                                                                                                                
00025103   O31E912510800025108201704201033 00025108MST162579/7931002108     0005                        00039130                                                                                                                                                                                                      
00025103   O31E112510800025108201704201033100025108MST162579/7931002108     0006EFDHV25D65T                                                 02499840  000000000015220000001020170504SEA.FLKG7931002108                                                                                                                
00025103   O31E912510800025108201704201033 00025108MST162579/7931002108     0006                        00039130                                                                                                                                                                                                      
00025103   O31E112510800025108201704201033100025108MST162579/7931002108     0007EFDHV25L27T                                                 00039360  000000000015220000001020170504SEA.FLKG7931002108                                                                                                                
00025103   O31E912510800025108201704201033 00025108MST162579/7931002108     0007                        00039130                                                                                                                                                                                                      
00025103   O31E112510800025108201704201033100025108MST162579/7931002108     0008EFDHV32D65A                                                 00004800  000000002722140000001020170504SEA.FLKG7931002108                                                                                                                
00025103   O31E912510800025108201704201033 00025108MST162579/7931002108     0008                        00039130                                                                                                                                                                                                      
00025103   O31E112510800025108201704201033100025108MST162579/7931002108     0009EFDHV42D65A                                                 00039840  000000003013840000001020170504SEA.FLKG7931002108                                                                                                                
00025103   O31E912510800025108201704201033 00025108MST162579/7931002108     0009                        00039130                                                                                                                                                                                                      
00025103   O31E112510800025108201704201033100025108MST162579/7931002108     0010EFU14E272V1                                                 00080000  000000001189640000001020170504SEA.FLKG7931002108                                                                                                                
00025103   O31E912510800025108201704201033 00025108MST162579/7931002108     0010                        00039130                                                                                                                                                                                                      
00025103   O31E112510800025108201704201033100025108MST162579/7931002108     0011EFU14E652V1                                                 00400000  000000001189640000001020170504SEA.FLKG7931002108                                                                                                                
00025103   O31E912510800025108201704201033 00025108MST162579/7931002108     0011                        00039130                                                                                                                                                                                                      
00025103   O31E112510800025108201704201033100025108MST162579/7931002108     0012EFU8E652V1                                                  00030000  000000001088340000001020170504SEA.FLKG7931002108                                                                                                                
00025103   O31E912510800025108201704201033 00025108MST162579/7931002108     0012                        00039130                                                                                                                                                                                                      
00025103   O31E112510800025108201704201033100025108MST162579/7931002108     0013EFUHV18D65A                                                 00270000  000000001342340000001020170504SEA.FLKG7931002108                                                                                                                
00025103   O31E912510800025108201704201033 00025108MST162579/7931002108     0013                        00039130                                                                                                                                                                                                      
00025103   O31E112510800025108201704201033100025108MST162579/7931002108     0014EFUHV18L27A                                                 00010000  000000001342340000001020170504SEA.FLKG7931002108                                                                                                                
00025103   O31E912510800025108201704201033 00025108MST162579/7931002108     0014                        00039130                                                                                                                                                                                                      
00025103   O31E112510800025108201704201033100025108MST162579/7931002108     0015EFUHV23D65A                                                 00050000  000000001411440000001020170504SEA.FLKG7931002108                                                                                                                
00025103   O31E912510800025108201704201033 00025108MST162579/7931002108     0015                        00039130                                                                                                                                                                                                      
00025103   O31A112510800025108201704201034100025108MST162580/7931002107         A  0002510300039130                                 L31790                              YCKE, MS. CHUI HONG, MICHELLE MI20170425        1N10003827420170423SEA.FLKGLIGHTING                                                       O   
00025103   O31A212510800025108201704201034100025108MST162580/7931002107         FOB0                              USD                                                        00039130201705110003913000039130                                            00038274                                                     
00025103   O31E112510800025108201704201034100025108MST162580/7931002107     0001LDAHV7DH6A                                                  00001000  000000000100630000001020170504SEA.FLKG7931002107                                                                                                                
00025103   O31E912510800025108201704201034 00025108MST162580/7931002107     0001                        00039130                                                                                                                                                                                                      
