00025103   O31A112510700025107201801080439100025107MPH171008/7961003727         A  0002510300029474                                 L31790                              YCKE, MS. CHUI HONG, MICHELLE MI20180113        1N10003827420180109SEA.FMNLLIGHTING                                                       O   
00025103   O31A212510700025107201801080439100025107MPH171008/7961003727         FOB0                              USD                                                        00029474201802100002947400029474                                            00038274                                                     
00025103   O31E112510700025107201801080439100025107MPH171008/7961003727     0001EFDHV5D65A                                                  00049920  0000000000011100000010        SEA.FMNL7961003727                                                                                                                
00025103   O31E912510700025107201801080439 00025107MPH171008/7961003727     0001                        00029474                                                                                                                                                                                                      
00025103   O31E112510700025107201801080439100025107MPH171008/7961003727     0002EFU11E652V                                                  00070000  0000000012042400000010        SEA.FMNL7961003727                                                                                                                
00025103   O31E912510700025107201801080439 00025107MPH171008/7961003727     0002                        00029474                                                                                                                                                                                                      
00025103   O31E112510700025107201801080439100025107MPH171008/7961003727     0003EFUHV11D65A                                                 00050000  0000000000953300000010        SEA.FMNL7961003727                                                                                                                
00025103   O31E912510700025107201801080439 00025107MPH171008/7961003727     0003                        00029474                                                                                                                                                                                                      
00025103   O31E112510700025107201801080439100025107MPH171008/7961003727     0004EFUHV8D65A                                                  00050000  0000000000943300000010        SEA.FMNL7961003727                                                                                                                
00025103   O31E912510700025107201801080439 00025107MPH171008/7961003727     0004                        00029474                                                                                                                                                                                                      
