00025103   O31A112510800025108201704071135100025108MST162276/7931002045         A  0002510300039130                                 S31790                              YCKE, MS. CHUI HONG, MICHELLE MI20170412        1N10003827420170423SEA.FLKGLIGHTING                                                       O   
00025103   O31A212510800025108201704071135100025108MST162276/7931002045         FOB0                              USD                                                        00039130201705110003913000039130                                            00038274                                                     
00025103   O31E112510800025108201704071135100025108MST162276/7931002045     0001EFDHV15D65T1                                                00030880  000000000000000000001020170504SEA.FLKG7931002045                                                                                                                
00025103   O31E912510800025108201704071135 00025108MST162276/7931002045     0001                        00039130                                                                                                                                                                                                      
00025103   O31E112510800025108201704071135100025108MST162276/7931002045     0002EFDHV15L27T1                                                00015680  000000000000000000001020170504SEA.FLKG7931002045                                                                                                                
00025103   O31E912510800025108201704071135 00025108MST162276/7931002045     0002                        00039130                                                                                                                                                                                                      
00025103   O31E112510800025108201704071135100025108MST162276/7931002045     0003EFU11E652V                                                  00027500  000000001239540000001020170504SEA.FLKG7931002045                                                                                                                
00025103   O31E912510800025108201704071135 00025108MST162276/7931002045     0003                        00039130                                                                                                                                                                                                      
00025103   O31E112510800025108201704071135100025108MST162276/7931002045     0004EFU14E272V1                                                 00070000  000000000000000000001020170504SEA.FLKG7931002045                                                                                                                
00025103   O31E912510800025108201704071135 00025108MST162276/7931002045     0004                        00039130                                                                                                                                                                                                      
00025103   O31E112510800025108201704071135100025108MST162276/7931002045     0005EFU14E652V1                                                 00100000  000000000000000000001020170504SEA.FLKG7931002045                                                                                                                
00025103   O31E912510800025108201704071135 00025108MST162276/7931002045     0005                        00039130                                                                                                                                                                                                      
00025103   O31E112510800025108201704071135100025108MST162276/7931002045     0006EFU8E652V1                                                  00116000  000000000000000000001020170504SEA.FLKG7931002045                                                                                                                
00025103   O31E912510800025108201704071135 00025108MST162276/7931002045     0006                        00039130                                                                                                                                                                                                      
00025103   O31E112510800025108201704071135100025108MST162276/7931002045     0007EFUHV18L27A                                                 00005000  000000000013620000001020170504SEA.FLKG7931002045                                                                                                                
00025103   O31E912510800025108201704071135 00025108MST162276/7931002045     0007                        00039130                                                                                                                                                                                                      
00025103   O31E112510800025108201704071135100025108MST162276/7931002045     0008EFUHV23D65A                                                 00040000  000000000014320000001020170504SEA.FLKG7931002045                                                                                                                
00025103   O31E912510800025108201704071135 00025108MST162276/7931002045     0008                        00039130                                                                                                                                                                                                      
