12000I     O31A112510800025108201907020908100025108MST7901010348/7931006873       10002510300039130                                 L31790                              NNR01-SG                        20190810         N 0003827420190725SEA.FLKGLIGHTING                                                       O   
12000I     O31A212510800025108201907020908100025108MST7901010348/7931006873     FOB0                              USD                                                        00025103201908100002510300025103SCMM                                        00038274                                                     
12000I     O31A812510800025108201907020908100025108MST7901010348/7931006873     FOB                                                                                                                                                                                                                                   
12000I     O31E112510800025108201907020908100025108MST7901010348/7931006873 0010LDAHV12DH6T                                                 00150000  000000000011520000001020190810SEA.FLKGMST7901010348/7931006873                                                                                                  
12000I     O31E912510800025108201907020908 00025108MST7901010348/7931006873 0010                        00025103                                                                                                                                                                                                      
12000I     O31E112510800025108201907020908100025108MST7901010348/7931006873 0020LDAHV12LH6T                                                 00035000  000000000011520000001020190810SEA.FLKGMST7901010348/7931006873                                                                                                  
12000I     O31E912510800025108201907020908 00025108MST7901010348/7931006873 0020                        00025103                                                                                                                                                                                                      
12000I     O31E112510800025108201907020908100025108MST7901010348/7931006873 0030LDAHV15DH6T                                                 00077000  000000000014220000001020190810SEA.FLKGMST7901010348/7931006873                                                                                                  
12000I     O31E912510800025108201907020908 00025108MST7901010348/7931006873 0030                        00025103                                                                                                                                                                                                      
12000I     O31E112510800025108201907020908100025108MST7901010348/7931006873 0040LDAHV15LH6T                                                 00020000  000000000014220000001020190810SEA.FLKGMST7901010348/7931006873                                                                                                  
12000I     O31E912510800025108201907020908 00025108MST7901010348/7931006873 0040                        00025103                                                                                                                                                                                                      
12000I     O31E112510800025108201907020908100025108MST7901010348/7931006873 0050LDAHV20DH5T                                                 00055000  000000000000120000001020190810SEA.FLKGMST7901010348/7931006873                                                                                                  
12000I     O31E912510800025108201907020908 00025108MST7901010348/7931006873 0050                        00025103                                                                                                                                                                                                      
12000I     O31E112510800025108201907020908100025108MST7901010348/7931006873 0060LDAHV30DH5T                                                 00018000  000000000000120000001020190810SEA.FLKGMST7901010348/7931006873                                                                                                  
12000I     O31E912510800025108201907020908 00025108MST7901010348/7931006873 0060                        00025103                                                                                                                                                                                                      
12000I     O31E112510800025108201907020908100025108MST7901010348/7931006873 0070LDAHV3DH6T                                                  00070000  000000000005520000001020190810SEA.FLKGMST7901010348/7931006873                                                                                                  
12000I     O31E912510800025108201907020908 00025108MST7901010348/7931006873 0070                        00025103                                                                                                                                                                                                      
12000I     O31E112510800025108201907020908100025108MST7901010348/7931006873 0080LDAHV3LH6T                                                  00050000  000000000005520000001020190810SEA.FLKGMST7901010348/7931006873                                                                                                  
12000I     O31E912510800025108201907020908 00025108MST7901010348/7931006873 0080                        00025103                                                                                                                                                                                                      
12000I     O31E112510800025108201907020908100025108MST7901010348/7931006873 0090LDAHV5DH6T                                                  00150000  000000000000610000001020190810SEA.FLKGMST7901010348/7931006873                                                                                                  
12000I     O31E912510800025108201907020908 00025108MST7901010348/7931006873 0090                        00025103                                                                                                                                                                                                      
12000I     O31E112510800025108201907020908100025108MST7901010348/7931006873 0100LDAHV5LH6T                                                  00050000  000000000000610000001020190810SEA.FLKGMST7901010348/7931006873                                                                                                  
12000I     O31E912510800025108201907020908 00025108MST7901010348/7931006873 0100                        00025103                                                                                                                                                                                                      
12000I     O31E112510800025108201907020908100025108MST7901010348/7931006873 0110LDAHV7DH6T                                                  00352000  000000000006820000001020190810SEA.FLKGMST7901010348/7931006873                                                                                                  
12000I     O31E912510800025108201907020908 00025108MST7901010348/7931006873 0110                        00025103                                                                                                                                                                                                      
12000I     O31E112510800025108201907020908100025108MST7901010348/7931006873 0120LDAHV7LH6T                                                  00050000  000000000006820000001020190810SEA.FLKGMST7901010348/7931006873                                                                                                  
12000I     O31E912510800025108201907020908 00025108MST7901010348/7931006873 0120                        00025103                                                                                                                                                                                                      
12000I     O31E112510800025108201907020908100025108MST7901010348/7931006873 0130LDAHV9DH6T                                                  00220000  000000000008920000001020190810SEA.FLKGMST7901010348/7931006873                                                                                                  
12000I     O31E912510800025108201907020908 00025108MST7901010348/7931006873 0130                        00025103                                                                                                                                                                                                      
12000I     O31E112510800025108201907020908100025108MST7901010348/7931006873 0140LDAHV9LH6T                                                  00060000  000000000008920000001020190810SEA.FLKGMST7901010348/7931006873                                                                                                  
12000I     O31E912510800025108201907020908 00025108MST7901010348/7931006873 0140                        00025103                                                                                                                                                                                                      
12000I     O31A112510800025108201907020908100025108MST7901010352/7931006874       10002510300039130                                 L31790                              NNR01-SG                        20190810         N 0003827420190725SEA.FLKGLIGHTING                                                       O   
12000I     O31A212510800025108201907020908100025108MST7901010352/7931006874     FOB0                              USD                                                        00025103201908100002510300025103SCMM                                        00038274                                                     
12000I     O31A812510800025108201907020908100025108MST7901010352/7931006874     FOB                                                                                                                                                                                                                                   
12000I     O31E112510800025108201907020908100025108MST7901010352/7931006874 0010EFDHV11D65T                                                 00011520  000000000000120000001020190810SEA.FLKGMST7901010352/7931006874                                                                                                  
12000I     O31E912510800025108201907020908 00025108MST7901010352/7931006874 0010                        00025103                                                                                                                                                                                                      
12000I     O31E112510800025108201907020908100025108MST7901010352/7931006874 0020EFDHV15D65T1                                                00162240  000000000000120000001020190810SEA.FLKGMST7901010352/7931006874                                                                                                  
12000I     O31E912510800025108201907020908 00025108MST7901010352/7931006874 0020                        00025103                                                                                                                                                                                                      
12000I     O31E112510800025108201907020908100025108MST7901010352/7931006874 0030EFDHV15L27T1                                                00049920  000000000000120000001020190810SEA.FLKGMST7901010352/7931006874                                                                                                  
12000I     O31E912510800025108201907020908 00025108MST7901010352/7931006874 0030                        00025103                                                                                                                                                                                                      
12000I     O31E112510800025108201907020908100025108MST7901010352/7931006874 0040EFDHV20D65T1                                                00009600  000000000000120000001020190810SEA.FLKGMST7901010352/7931006874                                                                                                  
12000I     O31E912510800025108201907020908 00025108MST7901010352/7931006874 0040                        00025103                                                                                                                                                                                                      
12000I     O31E112510800025108201907020908100025108MST7901010352/7931006874 0050EFDHV23D65T1                                                00009600  000000000000120000001020190810SEA.FLKGMST7901010352/7931006874                                                                                                  
12000I     O31E912510800025108201907020908 00025108MST7901010352/7931006874 0050                        00025103                                                                                                                                                                                                      
12000I     O31E112510800025108201907020908100025108MST7901010352/7931006874 0060EFDHV25D65T                                                 00943680  000000000014820000001020190810SEA.FLKGMST7901010352/7931006874                                                                                                  
12000I     O31E912510800025108201907020908 00025108MST7901010352/7931006874 0060                        00025103                                                                                                                                                                                                      
12000I     O31E112510800025108201907020908100025108MST7901010352/7931006874 0070EFDHV32D65A                                                 00009600  000000000000120000001020190810SEA.FLKGMST7901010352/7931006874                                                                                                  
12000I     O31E912510800025108201907020908 00025108MST7901010352/7931006874 0070                        00025103                                                                                                                                                                                                      
12000I     O31E112510800025108201907020908100025108MST7901010352/7931006874 0080EFDHV42D65A                                                 00009600  000000000000120000001020190810SEA.FLKGMST7901010352/7931006874                                                                                                  
12000I     O31E912510800025108201907020908 00025108MST7901010352/7931006874 0080                        00025103                                                                                                                                                                                                      
12000I     O31E112510800025108201907020908100025108MST7901010352/7931006874 0090EFU11E652V                                                  00065000  000000000012220000001020190810SEA.FLKGMST7901010352/7931006874                                                                                                  
12000I     O31E912510800025108201907020908 00025108MST7901010352/7931006874 0090                        00025103                                                                                                                                                                                                      
12000I     O31E112510800025108201907020908100025108MST7901010352/7931006874 0100EFU14E272V1                                                 00080000  000000000000120000001020190810SEA.FLKGMST7901010352/7931006874                                                                                                  
12000I     O31E912510800025108201907020908 00025108MST7901010352/7931006874 0100                        00025103                                                                                                                                                                                                      
12000I     O31E112510800025108201907020908100025108MST7901010352/7931006874 0110EFU14E652V1                                                 00330000  000000000000120000001020190810SEA.FLKGMST7901010352/7931006874                                                                                                  
12000I     O31E912510800025108201907020908 00025108MST7901010352/7931006874 0110                        00025103                                                                                                                                                                                                      
12000I     O31E112510800025108201907020908100025108MST7901010352/7931006874 0120EFU8E652V1                                                  00100000  000000000000120000001020190810SEA.FLKGMST7901010352/7931006874                                                                                                  
12000I     O31E912510800025108201907020908 00025108MST7901010352/7931006874 0120                        00025103                                                                                                                                                                                                      
12000I     O31E112510800025108201907020908100025108MST7901010352/7931006874 0130EFUHV18D65A                                                 00090000  000000000000120000001020190810SEA.FLKGMST7901010352/7931006874                                                                                                  
12000I     O31E912510800025108201907020908 00025108MST7901010352/7931006874 0130                        00025103                                                                                                                                                                                                      
12000I     O31E112510800025108201907020908100025108MST7901010352/7931006874 0140EFUHV23D65A                                                 00030000  000000000000120000001020190810SEA.FLKGMST7901010352/7931006874                                                                                                  
12000I     O31E912510800025108201907020908 00025108MST7901010352/7931006874 0140                        00025103                                                                                                                                                                                                      
12000I     O31E112510800025108201907020908100025108MST7901010352/7931006874 0150LDR400N                                                     00008000  000000000000120000001020190810SEA.FLKGMST7901010352/7931006874                                                                                                  
12000I     O31E912510800025108201907020908 00025108MST7901010352/7931006874 0150                        00025103                                                                                                                                                                                                      
