12000I     O31A112510800025108201906191705100025108MST7901009981/7931006777       10002510300039130                                 L31790                              YNR01-SG                        20190708         N 0003827420190620SEA.FLKGLIGHTING                                                       O   
12000I     O31A212510800025108201906191705100025108MST7901009981/7931006777     FOB0                              USD                                                        00025103201907080002510300025103                                            00038274                                                     
12000I     O31A812510800025108201906191705100025108MST7901009981/7931006777     FOB                                                                                                                                                                                                                                   
12000I     O31E112510800025108201906191705100025108MST7901009981/7931006777 0010EFDHV20L27T                                                 00004800  000000000015220000001020190708SEA.FLKGMST7901009981/7931006777                                                                                                  
12000I     O31E912510800025108201906191705 00025108MST7901009981/7931006777 0010                        00025103                                                                                                                                                                                                      
