00025103   O31A112510800025108201610101235100025108MST157257/7931000802         A  0002510300039130                                 L31790                              YCKE, MS. CHUI HONG, MICHELLE MI20161015        1N10003827420161014SEA.FLKGLIGHTING                                                       O   
00025103   O31A212510800025108201610101235100025108MST157257/7931000802         FOB0                              USD                                                        00039130201611010003913000039130                                            00038274                                                     
00025103   O31E112510800025108201610101235100025108MST157257/7931000802     0001LDAHV3DH6A                                                  00080000  0000000007882400000010        SEA.FLKG7931000802                                                                                                                
00025103   O31E912510800025108201610101235 00025108MST157257/7931000802     0001                        00039130                                                                                                                                                                                                      
00025103   O31E112510800025108201610101235100025108MST157257/7931000802     0002LDAHV3LH6A                                                  00031000  0000000007882400000010        SEA.FLKG7931000802                                                                                                                
00025103   O31E912510800025108201610101235 00025108MST157257/7931000802     0002                        00039130                                                                                                                                                                                                      
00025103   O31E112510800025108201610101235100025108MST157257/7931000802     0003LDAHV5LH6A                                                  00040000  0000000009474400000010        SEA.FLKG7931000802                                                                                                                
00025103   O31E912510800025108201610101235 00025108MST157257/7931000802     0003                        00039130                                                                                                                                                                                                      
00025103   O31A112510800025108201610101235100025108MST157258/7931000801         A  0002510300039130                                 S31790                              YCKE, MS. CHUI HONG, MICHELLE MI20161015        1N10003827420161014SEA.FLKGLIGHTING                                                       O   
00025103   O31A212510800025108201610101235100025108MST157258/7931000801         FOB0                              USD                                                        00039130201611010003913000039130                                            00038274                                                     
00025103   O31E112510800025108201610101235100025108MST157258/7931000801     0001EFDHV15D65T1                                                00199680  0000000011127400000010        SEA.FLKG7931000801                                                                                                                
00025103   O31E912510800025108201610101235 00025108MST157258/7931000801     0001                        00039130                                                                                                                                                                                                      
00025103   O31E112510800025108201610101235100025108MST157258/7931000801     0002EFDHV20D65T1                                                00070080  0000000013819400000010        SEA.FLKG7931000801                                                                                                                
00025103   O31E912510800025108201610101235 00025108MST157258/7931000801     0002                        00039130                                                                                                                                                                                                      
00025103   O31E112510800025108201610101235100025108MST157258/7931000801     0003EFDHV23D65T1                                                00049920  0000000013819400000010        SEA.FLKG7931000801                                                                                                                
00025103   O31E912510800025108201610101235 00025108MST157258/7931000801     0003                        00039130                                                                                                                                                                                                      
00025103   O31E112510800025108201610101235100025108MST157258/7931000801     0004EFU14E272V1                                                 00110000  0000000011896400000010        SEA.FLKG7931000801                                                                                                                
00025103   O31E912510800025108201610101235 00025108MST157258/7931000801     0004                        00039130                                                                                                                                                                                                      
00025103   O31E112510800025108201610101235100025108MST157258/7931000801     0005EFU14E652V1                                                 00700000  0000000011896400000010        SEA.FLKG7931000801                                                                                                                
00025103   O31E912510800025108201610101235 00025108MST157258/7931000801     0005                        00039130                                                                                                                                                                                                      
00025103   O31E112510800025108201610101235100025108MST157258/7931000801     0006EFU8E652V1                                                  00180000  0000000010883400000010        SEA.FLKG7931000801                                                                                                                
00025103   O31E912510800025108201610101235 00025108MST157258/7931000801     0006                        00039130                                                                                                                                                                                                      
