12000I     O31A112510800025108201811261438100025108MST7901004100/7931005643       10002510300039130                                 L31790                              NNR01-SG                        20190110         N 0003827420181224SEA.FLKGLIGHTING                                                       O   
12000I     O31A212510800025108201811261438100025108MST7901004100/7931005643     FOB0                              USD                                                        00025103201901100002510300025103SCMM                                        00038274                                                     
12000I     O31A812510800025108201811261438100025108MST7901004100/7931005643     FOB                                                                                                                                                                                                                                   
12000I     O31E112510800025108201811261438100025108MST7901004100/7931005643 0010LDAHV12DH6T                                                 00198000  000000000011520000001020190110SEA.FLKGMST7901004100/7931005643                                                                                                  
12000I     O31E912510800025108201811261438 00025108MST7901004100/7931005643 0010                        00025103                                                                                                                                                                                                      
12000I     O31E112510800025108201811261438100025108MST7901004100/7931005643 0020LDAHV12LH6T                                                 00040000  000000000011520000001020190110SEA.FLKGMST7901004100/7931005643                                                                                                  
12000I     O31E912510800025108201811261438 00025108MST7901004100/7931005643 0020                        00025103                                                                                                                                                                                                      
12000I     O31E112510800025108201811261438100025108MST7901004100/7931005643 0030LDAHV15DH6T                                                 00100000  000000000014220000001020190110SEA.FLKGMST7901004100/7931005643                                                                                                  
12000I     O31E912510800025108201811261438 00025108MST7901004100/7931005643 0030                        00025103                                                                                                                                                                                                      
12000I     O31E112510800025108201811261438100025108MST7901004100/7931005643 0040LDAHV15LH6T                                                 00010000  000000000014220000001020190110SEA.FLKGMST7901004100/7931005643                                                                                                  
12000I     O31E912510800025108201811261438 00025108MST7901004100/7931005643 0040                        00025103                                                                                                                                                                                                      
12000I     O31E112510800025108201811261438100025108MST7901004100/7931005643 0050LDAHV20DH5T                                                 00045000  000000000002710000001020190110SEA.FLKGMST7901004100/7931005643                                                                                                  
12000I     O31E912510800025108201811261438 00025108MST7901004100/7931005643 0050                        00025103                                                                                                                                                                                                      
12000I     O31E112510800025108201811261438100025108MST7901004100/7931005643 0060LDAHV30DH5T                                                 00040000  000000000004210000001020190110SEA.FLKGMST7901004100/7931005643                                                                                                  
12000I     O31E912510800025108201811261438 00025108MST7901004100/7931005643 0060                        00025103                                                                                                                                                                                                      
12000I     O31E112510800025108201811261438100025108MST7901004100/7931005643 0070LDAHV3DH6T                                                  00080000  000000000005520000001020190110SEA.FLKGMST7901004100/7931005643                                                                                                  
12000I     O31E912510800025108201811261438 00025108MST7901004100/7931005643 0070                        00025103                                                                                                                                                                                                      
12000I     O31E112510800025108201811261438100025108MST7901004100/7931005643 0080LDAHV3LH6T                                                  00050000  000000000005520000001020190110SEA.FLKGMST7901004100/7931005643                                                                                                  
12000I     O31E912510800025108201811261438 00025108MST7901004100/7931005643 0080                        00025103                                                                                                                                                                                                      
12000I     O31E112510800025108201811261438100025108MST7901004100/7931005643 0090LDAHV5DH6T                                                  00150000  000000000000610000001020190110SEA.FLKGMST7901004100/7931005643                                                                                                  
12000I     O31E912510800025108201811261438 00025108MST7901004100/7931005643 0090                        00025103                                                                                                                                                                                                      
12000I     O31E112510800025108201811261438100025108MST7901004100/7931005643 0100LDAHV5LH6T                                                  00120000  000000000000610000001020190110SEA.FLKGMST7901004100/7931005643                                                                                                  
12000I     O31E912510800025108201811261438 00025108MST7901004100/7931005643 0100                        00025103                                                                                                                                                                                                      
12000I     O31E112510800025108201811261438100025108MST7901004100/7931005643 0110LDAHV7DH6T                                                  00250000  000000000006820000001020190110SEA.FLKGMST7901004100/7931005643                                                                                                  
12000I     O31E912510800025108201811261438 00025108MST7901004100/7931005643 0110                        00025103                                                                                                                                                                                                      
12000I     O31E112510800025108201811261438100025108MST7901004100/7931005643 0120LDAHV7LH6T                                                  00090000  000000000006820000001020190110SEA.FLKGMST7901004100/7931005643                                                                                                  
12000I     O31E912510800025108201811261438 00025108MST7901004100/7931005643 0120                        00025103                                                                                                                                                                                                      
12000I     O31E112510800025108201811261438100025108MST7901004100/7931005643 0130LDAHV9DH6T                                                  00275000  000000000008920000001020190110SEA.FLKGMST7901004100/7931005643                                                                                                  
12000I     O31E912510800025108201811261438 00025108MST7901004100/7931005643 0130                        00025103                                                                                                                                                                                                      
12000I     O31E112510800025108201811261438100025108MST7901004100/7931005643 0140LDAHV9LH6T                                                  00055000  000000000008920000001020190110SEA.FLKGMST7901004100/7931005643                                                                                                  
12000I     O31E912510800025108201811261438 00025108MST7901004100/7931005643 0140                        00025103                                                                                                                                                                                                      
12000I     O31E112510800025108201811261438100025108MST7901004100/7931005643 0150LDS300D2N                                                   00005000  000000000177720000001020190110SEA.FLKGMST7901004100/7931005643                                                                                                  
12000I     O31E912510800025108201811261438 00025108MST7901004100/7931005643 0150                        00025103                                                                                                                                                                                                      
12000I     O31A112510800025108201811261439100025108MST7901004101/7931005644       10002510300039130                                 L31790                              NNR01-SG                        20190110         N 0003827420181224SEA.FLKGLIGHTING                                                       O   
12000I     O31A212510800025108201811261439100025108MST7901004101/7931005644     FOB0                              USD                                                        00025103201901100002510300025103SCMM                                        00038274                                                     
12000I     O31A812510800025108201811261439100025108MST7901004101/7931005644     FOB                                                                                                                                                                                                                                   
12000I     O31E112510800025108201811261439100025108MST7901004101/7931005644 0010EFDHV15D65T1                                                00162240  000000000000120000001020190110SEA.FLKGMST7901004101/7931005644                                                                                                  
12000I     O31E912510800025108201811261439 00025108MST7901004101/7931005644 0010                        00025103                                                                                                                                                                                                      
12000I     O31E112510800025108201811261439100025108MST7901004101/7931005644 0020EFDHV15L27T1                                                00072000  000000000000120000001020190110SEA.FLKGMST7901004101/7931005644                                                                                                  
12000I     O31E912510800025108201811261439 00025108MST7901004101/7931005644 0020                        00025103                                                                                                                                                                                                      
12000I     O31E112510800025108201811261439100025108MST7901004101/7931005644 0030EFDHV20D65T1                                                00009600  000000000000120000001020190110SEA.FLKGMST7901004101/7931005644                                                                                                  
12000I     O31E912510800025108201811261439 00025108MST7901004101/7931005644 0030                        00025103                                                                                                                                                                                                      
12000I     O31E112510800025108201811261439100025108MST7901004101/7931005644 0040EFDHV23D65T1                                                00019200  000000000000120000001020190110SEA.FLKGMST7901004101/7931005644                                                                                                  
12000I     O31E912510800025108201811261439 00025108MST7901004101/7931005644 0040                        00025103                                                                                                                                                                                                      
12000I     O31E112510800025108201811261439100025108MST7901004101/7931005644 0050EFDHV25L27T                                                 00021120  000000000014820000001020190110SEA.FLKGMST7901004101/7931005644                                                                                                  
12000I     O31E912510800025108201811261439 00025108MST7901004101/7931005644 0050                        00025103                                                                                                                                                                                                      
12000I     O31E112510800025108201811261439100025108MST7901004101/7931005644 0060EFDHV32D65A                                                 00012960  000000000000120000001020190110SEA.FLKGMST7901004101/7931005644                                                                                                  
12000I     O31E912510800025108201811261439 00025108MST7901004101/7931005644 0060                        00025103                                                                                                                                                                                                      
12000I     O31E112510800025108201811261439100025108MST7901004101/7931005644 0070EFU11E652V                                                  00042000  000000000000120000001020190110SEA.FLKGMST7901004101/7931005644                                                                                                  
12000I     O31E912510800025108201811261439 00025108MST7901004101/7931005644 0070                        00025103                                                                                                                                                                                                      
12000I     O31E112510800025108201811261439100025108MST7901004101/7931005644 0080EFU14E272V1                                                 00117000  000000000000120000001020190110SEA.FLKGMST7901004101/7931005644                                                                                                  
12000I     O31E912510800025108201811261439 00025108MST7901004101/7931005644 0080                        00025103                                                                                                                                                                                                      
12000I     O31E112510800025108201811261439100025108MST7901004101/7931005644 0090EFU14E652V1                                                 00650000  000000000000120000001020190110SEA.FLKGMST7901004101/7931005644                                                                                                  
12000I     O31E912510800025108201811261439 00025108MST7901004101/7931005644 0090                        00025103                                                                                                                                                                                                      
12000I     O31E112510800025108201811261439100025108MST7901004101/7931005644 0100EFU8E652V1                                                  00108000  000000000000120000001020190110SEA.FLKGMST7901004101/7931005644                                                                                                  
12000I     O31E912510800025108201811261439 00025108MST7901004101/7931005644 0100                        00025103                                                                                                                                                                                                      
12000I     O31E112510800025108201811261439100025108MST7901004101/7931005644 0110EFUHV18D65A                                                 00050000  000000000000120000001020190110SEA.FLKGMST7901004101/7931005644                                                                                                  
12000I     O31E912510800025108201811261439 00025108MST7901004101/7931005644 0110                        00025103                                                                                                                                                                                                      
12000I     O31E112510800025108201811261439100025108MST7901004101/7931005644 0120EFUHV23D65A                                                 00050000  000000000000120000001020190110SEA.FLKGMST7901004101/7931005644                                                                                                  
12000I     O31E912510800025108201811261439 00025108MST7901004101/7931005644 0120                        00025103                                                                                                                                                                                                      
12000I     O31E112510800025108201811261439100025108MST7901004101/7931005644 0130LDR400N                                                     00015000  000000000289520000001020190110SEA.FLKGMST7901004101/7931005644                                                                                                  
12000I     O31E912510800025108201811261439 00025108MST7901004101/7931005644 0130                        00025103                                                                                                                                                                                                      
