12000I     O31A112510800025108201901292205100025108MST7901006187/7931005993       10002510300039130                                 L31790                              YNR01-SG                        20190315         N 0003827420190225SEA.FLKGLIGHTING                                                       O   
12000I     O31A212510800025108201901292205100025108MST7901006187/7931005993     FOB0                              USD                                                        00025103201903150002510300025103                                            00038274                                                     
12000I     O31A812510800025108201901292205100025108MST7901006187/7931005993     FOB                                                                                                                                                                                                                                   
12000I     O31E112510800025108201901292205100025108MST7901006187/7931005993 0010NNP81900                                                    00002000  000000000000120000001020190315SEA.FLKGMST7901006187/7931005993                                                                                                  
12000I     O31E912510800025108201901292205 00025108MST7901006187/7931005993 0010                        00025103                                                                                                                                                                                                      
