00025103   O31A112511300025113201805281253100025113MNZ174962/P89730             A  0002510300029671                                 S31790ERASMUSJ                      NCKE, MS. CHUI HONG, MICHELLE MI20180612        1N10003827420180623SEA.FAKLLIGHTING                                                       O   
00025103   O31A212511300025113201805281253100025113MNZ174962/P89730             FOB0                              USD                                                                20180720                SCMM                                        00038274                                                     
00025103   O31E112511300025113201805281253100025113MNZ174962/P89730         0001LDAHV7DG4A1         LDAHV7DG4A1                             00005000  0000000000000000000010                                         ATP Auto Generate                                                                                
00025103   O31E112511300025113201805281253100025113MNZ174962/P89730         0002LDAHV7DG4BA         LDAHV7DG4BA                             00002500  0000000000000000000010                                         ATP Auto Generate                                                                                
00025103   O31E112511300025113201805281253100025113MNZ174962/P89730         0003LDAHV7LG4A1         LDAHV7LG4A1                             00005000  0000000000000000000010                                         ATP Auto Generate                                                                                
00025103   O31E112511300025113201805281253100025113MNZ174962/P89730         0004LDAHV7LG4BA         LDAHV7LG4BA                             00002500  0000000000000000000010                                         ATP Auto Generate                                                                                
00025103   O31E112511300025113201805281253100025113MNZ174962/P89730         0005LDAHV8LG4A1         LDAHV8LG4A1                             00005000  0000000000000000000010                                         ATP Auto Generate                                                                                
00025103   O31A112510800025108201805281253100025108MST175035/7931004596         A  0002510300039130                                 S31790                              NCKE, MS. CHUI HONG, MICHELLE MI20180612        1N10003827420180623SEA.FLKGLIGHTING                                                       O   
00025103   O31A212510800025108201805281253100025108MST175035/7931004596         FOB0                              USD                                                        00039130201807100003913000039130SCMM                                        00038274                                                     
00025103   O31E112510800025108201805281253100025108MST175035/7931004596     0001EFDHV11D65T                                                 00029760  000000000000000000001020180703SEA.FLKG7931004596                                                                                                                
00025103   O31E912510800025108201805281253 00025108MST175035/7931004596     0001                        00039130                                                                                                                                                                                                      
00025103   O31E112510800025108201805281253100025108MST175035/7931004596     0002EFDHV15D65T1                                                00199680  000000000000000000001020180703SEA.FLKG7931004596                                                                                                                
00025103   O31E912510800025108201805281253 00025108MST175035/7931004596     0002                        00039130                                                                                                                                                                                                      
00025103   O31E112510800025108201805281253100025108MST175035/7931004596     0003EFDHV15L27T1                                                00049920  000000000000000000001020180703SEA.FLKG7931004596                                                                                                                
00025103   O31E912510800025108201805281253 00025108MST175035/7931004596     0003                        00039130                                                                                                                                                                                                      
00025103   O31E112510800025108201805281253100025108MST175035/7931004596     0004EFDHV20D65T1                                                00036480  000000000000000000001020180703SEA.FLKG7931004596                                                                                                                
00025103   O31E912510800025108201805281253 00025108MST175035/7931004596     0004                        00039130                                                                                                                                                                                                      
00025103   O31E112510800025108201805281253100025108MST175035/7931004596     0005EFDHV23D65T1                                                00031680  000000000000000000001020180703SEA.FLKG7931004596                                                                                                                
00025103   O31E912510800025108201805281253 00025108MST175035/7931004596     0005                        00039130                                                                                                                                                                                                      
00025103   O31E112510800025108201805281253100025108MST175035/7931004596     0006EFDHV25D65T                                                 02299200  000000000014820000001020180703SEA.FLKG7931004596                                                                                                                
00025103   O31E912510800025108201805281253 00025108MST175035/7931004596     0006                        00039130                                                                                                                                                                                                      
00025103   O31E112510800025108201805281253100025108MST175035/7931004596     0007EFDHV25L27T                                                 00039760  000000000014820000001020180703SEA.FLKG7931004596                                                                                                                
00025103   O31E912510800025108201805281253 00025108MST175035/7931004596     0007                        00039130                                                                                                                                                                                                      
00025103   O31E112510800025108201805281253100025108MST175035/7931004596     0008EFDHV32D65A                                                 00017760  000000000000000000001020180703SEA.FLKG7931004596                                                                                                                
00025103   O31E912510800025108201805281253 00025108MST175035/7931004596     0008                        00039130                                                                                                                                                                                                      
00025103   O31E112510800025108201805281253100025108MST175035/7931004596     0009EFDHV42D65A                                                 00034800  000000000000000000001020180703SEA.FLKG7931004596                                                                                                                
00025103   O31E912510800025108201805281253 00025108MST175035/7931004596     0009                        00039130                                                                                                                                                                                                      
00025103   O31E112510800025108201805281253100025108MST175035/7931004596     0010EFU11E652V                                                  00050000  000000000000000000001020180703SEA.FLKG7931004596                                                                                                                
00025103   O31E912510800025108201805281253 00025108MST175035/7931004596     0010                        00039130                                                                                                                                                                                                      
00025103   O31E112510800025108201805281253100025108MST175035/7931004596     0011EFU14E272V1                                                 00100000  000000000000000000001020180703SEA.FLKG7931004596                                                                                                                
00025103   O31E912510800025108201805281253 00025108MST175035/7931004596     0011                        00039130                                                                                                                                                                                                      
00025103   O31E112510800025108201805281253100025108MST175035/7931004596     0012EFU14E652V1                                                 00550000  000000000000000000001020180703SEA.FLKG7931004596                                                                                                                
00025103   O31E912510800025108201805281253 00025108MST175035/7931004596     0012                        00039130                                                                                                                                                                                                      
00025103   O31E112510800025108201805281253100025108MST175035/7931004596     0013EFU8E652V1                                                  00080000  000000000000000000001020180703SEA.FLKG7931004596                                                                                                                
00025103   O31E912510800025108201805281253 00025108MST175035/7931004596     0013                        00039130                                                                                                                                                                                                      
00025103   O31E112510800025108201805281253100025108MST175035/7931004596     0014EFUHV18D65A                                                 00200000  000000000000000000001020180703SEA.FLKG7931004596                                                                                                                
00025103   O31E912510800025108201805281253 00025108MST175035/7931004596     0014                        00039130                                                                                                                                                                                                      
00025103   O31E112510800025108201805281253100025108MST175035/7931004596     0015EFUHV18L27A                                                 00017000  000000000000000000001020180703SEA.FLKG7931004596                                                                                                                
00025103   O31E912510800025108201805281253 00025108MST175035/7931004596     0015                        00039130                                                                                                                                                                                                      
00025103   O31E112510800025108201805281253100025108MST175035/7931004596     0016EFUHV23D65A                                                 00060000  000000000000000000001020180703SEA.FLKG7931004596                                                                                                                
00025103   O31E912510800025108201805281253 00025108MST175035/7931004596     0016                        00039130                                                                                                                                                                                                      
00025103   O31E112510800025108201805281253100025108MST175035/7931004596     0017LDR400N                                                     00003000  000000000000000000001020180703SEA.FLKG7931004596                                                                                                                
00025103   O31E912510800025108201805281253 00025108MST175035/7931004596     0017                        00039130                                                                                                                                                                                                      
00025103   O31A112510800025108201805281253100025108MST175037/7931004595         A  0002510300039130                                 L31790                              NCKE, MS. CHUI HONG, MICHELLE MI20180612        1N10003827420180623SEA.FLKGLIGHTING                                                       O   
00025103   O31A212510800025108201805281253100025108MST175037/7931004595         FOB0                              USD                                                        00039130201807100003913000039130SCMM                                        00038274                                                     
00025103   O31E112510800025108201805281253100025108MST175037/7931004595     0001LDAHV3LH6A                                                  00046000  000000000000000000001020180703SEA.FLKG7931004595                                                                                                                
00025103   O31E912510800025108201805281253 00025108MST175037/7931004595     0001                        00039130                                                                                                                                                                                                      
00025103   O31E112510800025108201805281253100025108MST175037/7931004595     0002LDAHV5DH6A                                                  00145000  000000000000000000001020180703SEA.FLKG7931004595                                                                                                                
00025103   O31E912510800025108201805281253 00025108MST175037/7931004595     0002                        00039130                                                                                                                                                                                                      
00025103   O31E112510800025108201805281253100025108MST175037/7931004595     0003LDAHV5LH6A                                                  00055000  000000000000000000001020180703SEA.FLKG7931004595                                                                                                                
00025103   O31E912510800025108201805281253 00025108MST175037/7931004595     0003                        00039130                                                                                                                                                                                                      
00025103   O31E112510800025108201805281253100025108MST175037/7931004595     0004LDAHV7DH6A                                                  00290000  000000000000000000001020180703SEA.FLKG7931004595                                                                                                                
00025103   O31E912510800025108201805281253 00025108MST175037/7931004595     0004                        00039130                                                                                                                                                                                                      
00025103   O31E112510800025108201805281253100025108MST175037/7931004595     0005LDAHV7LH6A                                                  00080000  000000000000000000001020180703SEA.FLKG7931004595                                                                                                                
00025103   O31E912510800025108201805281253 00025108MST175037/7931004595     0005                        00039130                                                                                                                                                                                                      
00025103   O31E112510800025108201805281253100025108MST175037/7931004595     0006LDAHV9DH6A                                                  00240000  000000000000000000001020180703SEA.FLKG7931004595                                                                                                                
00025103   O31E912510800025108201805281253 00025108MST175037/7931004595     0006                        00039130                                                                                                                                                                                                      
00025103   O31E112510800025108201805281253100025108MST175037/7931004595     0007LDAHV9LH6A                                                  00050000  000000000000000000001020180703SEA.FLKG7931004595                                                                                                                
00025103   O31E912510800025108201805281253 00025108MST175037/7931004595     0007                        00039130                                                                                                                                                                                                      
00025103   O31E112510800025108201805281253100025108MST175037/7931004595     0008LDS300D2N                                                   00002500  000000000000000000001020180703SEA.FLKG7931004595                                                                                                                
00025103   O31E912510800025108201805281253 00025108MST175037/7931004595     0008                        00039130                                                                                                                                                                                                      
00025103   O31E112510800025108201805281253100025108MST175037/7931004595     0009LDAHV3DH6A                                                  00085000  000000000000000000001020180703SEA.FLKG7931004595                                                                                                                
00025103   O31E912510800025108201805281253 00025108MST175037/7931004595     0009                        00039130                                                                                                                                                                                                      
