12000I     O31A112510800025108201808151235100025108MST7901001114/7931005059       10002510300039130                                 L31790                              YNR01-SG                        20180913         N 0003827420180826SEA.FLKGLIGHTING                                                       O   
12000I     O31A212510800025108201808151235100025108MST7901001114/7931005059     FOB0                              USD                                                        00025103201809130002510300025103                                            00038274                                                     
12000I     O31A812510800025108201808151235100025108MST7901001114/7931005059     FOB                                                                                                                                                                                                                                   
12000I     O31E112510800025108201808151235100025108MST7901001114/7931005059 0010EFU8E652V1                                                  00080000PC000000000000120000001020180913SEA.FLKGMST7901001114/7931005059                                                                                                  
12000I     O31E912510800025108201808151235 00025108MST7901001114/7931005059 0010                        00025103                                                                                                                                                                                                      
12000I     O31E112510800025108201808151235100025108MST7901001114/7931005059 0020EFUHV18D65A                                                 00015000PC000000000000120000001020180913SEA.FLKGMST7901001114/7931005059                                                                                                  
12000I     O31E912510800025108201808151235 00025108MST7901001114/7931005059 0020                        00025103                                                                                                                                                                                                      
