00025103   O31A112520700025207201604061132100025207MGM151838/660-404411         A  000251032062061620620616                         L31790                              YCKE, MS. CHUI HONG, MICHELLE MI20160411        1N10003827420160514SEA.F   LIGHTING                                                       O   
00025103   O31A212520700025207201604061132100025207MGM151838/660-404411         FOB0                              USD                                                                20160610                                                            00038274                                                     
00025103   O31E112520700025207201604061132100025207MGM151838/660-404411     0001EFDHV11D65BA        EFDHV11D65BA                            00012000  0000000000126200000010                660-404411                                                                                                                
00025103   O31E112520700025207201604061132100025207MGM151838/660-404411     0002EFDHV15D65BA        EFDHV15D65BA                            00024000  0000000000126200000010                660-404411                                                                                                                
00025103   O31E112520700025207201604061132100025207MGM151838/660-404411     0003EFDHV23D65BA        EFDHV23D65BA                            00017760  0000000000156200000010                660-404411                                                                                                                
00025103   O31E112520700025207201604061132100025207MGM151838/660-404411     0004EFDHV5D65BA         EFDHV5D65BA                             00017760  0000000000108200000010                660-404411                                                                                                                
00025103   O31E112520700025207201604061132100025207MGM151838/660-404411     0005EFDHV20D65BA        EFDHV20D65BA                            00029760  0000000000156200000010                660-404411                                                                                                                
00025103   O31A112520700025207201604061132100025207MGM151841/660-404410         A  000251032062061620620616                         L31790                              YCKE, MS. CHUI HONG, MICHELLE MI20160411        1N10003827420160514SEA.F   LIGHTING                                                       O   
00025103   O31A212520700025207201604061132100025207MGM151841/660-404410         FOB0                              USD                                                                20160610                                                            00038274                                                     
00025103   O31E112520700025207201604061132100025207MGM151841/660-404410     0001EFDHV25D65A         EFDHV25D65A                             00012000  0000000000156200000010                660-404410                                                                                                                
00025103   O31E112520700025207201604061132100025207MGM151841/660-404410     0002EFDHV15D65A         EFDHV15D65A                             00024000  0000000000126200000010                660-404410                                                                                                                
00025103   O31E112520700025207201604061132100025207MGM151841/660-404410     0003EFDHV20D65A         EFDHV20D65A                             00006000  0000000000156200000010                660-404410                                                                                                                
00025103   O31E112520700025207201604061132100025207MGM151841/660-404410     0004EFDHV5L27A          EFDHV5L27A                              00006000  0000000000108200000010                660-404410                                                                                                                
00025103   O31E112520700025207201604061132100025207MGM151841/660-404410     0005EFDHV8D65A          EFDHV8D65A                              00006000  0000000000108200000010                660-404410                                                                                                                
00025103   O31E112520700025207201604061132100025207MGM151841/660-404410     0006EFDHV8L27A          EFDHV8L27A                              00006000  0000000000108200000010                660-404410                                                                                                                
00025103   O31A112520700025207201604061132100025207MGM151847/660-404409         A  000251032062061620620616                         L31790                              YCKE, MS. CHUI HONG, MICHELLE MI20160411        1N10003827420160514SEA.F   LIGHTING                                                       O   
00025103   O31A212520700025207201604061132100025207MGM151847/660-404409         FOB0                              USD                                                                20160610                                                            00038274                                                     
00025103   O31E112520700025207201604061132100025207MGM151847/660-404409     0001EFU11E272V          EFU11E272V                              00003000  0000000014041400000010                660-404409                                                                                                                
00025103   O31E112520700025207201604061132100025207MGM151847/660-404409     0002EFU11E652V          EFU11E652V                              00012000  0000000014041400000010                660-404409                                                                                                                
00025103   O31E112520700025207201604061132100025207MGM151847/660-404409     0003EFU8E272V           EFU8E272V                               00006000  0000000013756400000010                660-404409                                                                                                                
00025103   O31E112520700025207201604061132100025207MGM151847/660-404409     0004EFU8E652V           EFU8E652V                               00006000  0000000013756400000010                660-404409                                                                                                                
