00025103   O31A112511300025113201605301139100025113MNZ153073/P83590             A  0002510300029671                                 L31790ERASMUSJ                      NCKE, MS. CHUI HONG, MICHELLE MI20160614        1N10003827420160625SEA.FAKLLIGHTING                                                       O   
00025103   O31A212511300025113201605301139100025113MNZ153073/P83590             FOB0                              USD                                                                20160720                SCMM                                        00038274                                                     
00025103   O31E112511300025113201605301139100025113MNZ153073/P83590         0001LDAHV8LG4BA         LDAHV8LG4BA                             00030000  0000000021072400000010                                         ATP Auto Generate                                                                                
00025103   O31A112511300025113201605301139100025113MNZ153083/P83592             A  0002510300029671                                 S31790ERASMUSJ                      NCKE, MS. CHUI HONG, MICHELLE MI20160614        1N10003827420160625SEA.FAKLLIGHTING                                                       O   
00025103   O31A212511300025113201605301139100025113MNZ153083/P83592             FOB0                              USD                                                                20160720                SCMM                                        00038274                                                     
00025103   O31E112511300025113201605301139100025113MNZ153083/P83592         0001EFDHV15D65BE        EFDHV15D65BE                            00024000  0000000012239400000010                                         ATP Auto Generate                                                                                
00025103   O31E112511300025113201605301139100025113MNZ153083/P83592         0002EFDHV15D65E         EFDHV15D65E                             00011520  0000000012239400000010                                         ATP Auto Generate                                                                                
00025103   O31E112511300025113201605301139100025113MNZ153083/P83592         0003EFDHV15L27BE        EFDHV15L27BE                            00024000  0000000012239400000010                                         ATP Auto Generate                                                                                
00025103   O31E112511300025113201605301139100025113MNZ153083/P83592         0004EFDHV15L27E         EFDHV15L27E                             00011520  0000000012239400000010                                         ATP Auto Generate                                                                                
00025103   O31E112511300025113201605301139100025113MNZ153083/P83592         0005EFDHV23D65BE        EFDHV23D65BE                            00035520  0000000000152200000010                                         ATP Auto Generate                                                                                
00025103   O31E112511300025113201605301139100025113MNZ153083/P83592         0006EFDHV23D65E         EFDHV23D65E                             00024000  0000000000152200000010                                         ATP Auto Generate                                                                                
00025103   O31E112511300025113201605301139100025113MNZ153083/P83592         0007EFDHV23L27BE        EFDHV23L27BE                            00035520  0000000000152200000010                                         ATP Auto Generate                                                                                
00025103   O31E112511300025113201605301139100025113MNZ153083/P83592         0008EFDHV23L27E         EFDHV23L27E                             00035520  0000000000152200000010                                         ATP Auto Generate                                                                                
00025103   O31A112511300025113201605301139100025113MNZ153093/P83591             A  0002510300029671                                 S31790ERASMUSJ                      NCKE, MS. CHUI HONG, MICHELLE MI20160614        1N10003827420160625SEA.FAKLLIGHTING                                                       O   
00025103   O31A212511300025113201605301139100025113MNZ153093/P83591             FOB0                              USD                                                                20160720                SCMM                                        00038274                                                     
00025103   O31E112511300025113201605301139100025113MNZ153093/P83591         0001LDAHV11DH3A2        LDAHV11DH3A2                            00020000  0000000032571400000010                                         ATP Auto Generate                                                                                
00025103   O31E112511300025113201605301139100025113MNZ153093/P83591         0002LDAHV11DH3BA2       LDAHV11DH3BA2                           00020000  0000000032571400000010                                         ATP Auto Generate                                                                                
00025103   O31E112511300025113201605301139100025113MNZ153093/P83591         0003LDAHV11LH3A2        LDAHV11LH3A2                            00020000  0000000032571400000010                                         ATP Auto Generate                                                                                
00025103   O31E112511300025113201605301139100025113MNZ153093/P83591         0004LDAHV11LH3BA2       LDAHV11LH3BA2                           00020000  0000000032571400000010                                         ATP Auto Generate                                                                                
00025103   O31E112511300025113201605301139100025113MNZ153093/P83591         0005LDAHV7DG4A1         LDAHV7DG4A1                             00030000  0000000001717300000010                                         ATP Auto Generate                                                                                
00025103   O31E112511300025113201605301139100025113MNZ153093/P83591         0006LDAHV7DG4BA         LDAHV7DG4BA                             00030000  0000000001717300000010                                         ATP Auto Generate                                                                                
00025103   O31E112511300025113201605301139100025113MNZ153093/P83591         0007LDAHV7LG4A1         LDAHV7LG4A1                             00030000  0000000001717300000010                                         ATP Auto Generate                                                                                
00025103   O31E112511300025113201605301139100025113MNZ153093/P83591         0008LDAHV7LG4BA         LDAHV7LG4BA                             00030000  0000000001717300000010                                         ATP Auto Generate                                                                                
00025103   O31E112511300025113201605301139100025113MNZ153093/P83591         0009LDAHV8DG4A1         LDAHV8DG4A1                             00025000  0000000021072400000010                                         ATP Auto Generate                                                                                
00025103   O31E112511300025113201605301139100025113MNZ153093/P83591         0010LDAHV8DG4BA         LDAHV8DG4BA                             00030000  0000000021072400000010                                         ATP Auto Generate                                                                                
00025103   O31E112511300025113201605301139100025113MNZ153093/P83591         0011LDAHV8LG4A1         LDAHV8LG4A1                             00030000  0000000021072400000010                                         ATP Auto Generate                                                                                
