00025103   O31A112510800025108201801191040100025108MST171228/7931003832         A  0002510300039130                                 S31790                              YCKE, MS. CHUI HONG, MICHELLE MI20180124        1N10003827420180203SEA.FLKGLIGHTING                                                       O   
00025103   O31A212510800025108201801191040100025108MST171228/7931003832         FOB0                              USD                                                        00039130201802210003913000039130                                            00038274                                                     
00025103   O31E112510800025108201801191040100025108MST171228/7931003832     0001EFDHV11D65T                                                 00019760  000000001223940000001020180214SEA.FLKG7931003832                                                                                                                
00025103   O31E912510800025108201801191040 00025108MST171228/7931003832     0001                        00039130                                                                                                                                                                                                      
00025103   O31E112510800025108201801191040100025108MST171228/7931003832     0002EFDHV15D65T1                                                00343840  000000001112740000001020180214SEA.FLKG7931003832                                                                                                                
00025103   O31E912510800025108201801191040 00025108MST171228/7931003832     0002                        00039130                                                                                                                                                                                                      
00025103   O31E112510800025108201801191040100025108MST171228/7931003832     0003EFDHV15L27T1                                                00044160  000000001112740000001020180214SEA.FLKG7931003832                                                                                                                
00025103   O31E912510800025108201801191040 00025108MST171228/7931003832     0003                        00039130                                                                                                                                                                                                      
00025103   O31E112510800025108201801191040100025108MST171228/7931003832     0004EFDHV20D65T1                                                00062400  000000001381940000001020180214SEA.FLKG7931003832                                                                                                                
00025103   O31E912510800025108201801191040 00025108MST171228/7931003832     0004                        00039130                                                                                                                                                                                                      
00025103   O31E112510800025108201801191040100025108MST171228/7931003832     0005EFDHV23D65T1                                                00037280  000000001381940000001020180214SEA.FLKG7931003832                                                                                                                
00025103   O31E912510800025108201801191040 00025108MST171228/7931003832     0005                        00039130                                                                                                                                                                                                      
00025103   O31E112510800025108201801191040100025108MST171228/7931003832     0006EFDHV25D65T                                                 01049280  000000000015220000001020180214SEA.FLKG7931003832                                                                                                                
00025103   O31E912510800025108201801191040 00025108MST171228/7931003832     0006                        00039130                                                                                                                                                                                                      
00025103   O31E112510800025108201801191040100025108MST171228/7931003832     0007EFDHV25L27T                                                 00063000  000000000015220000001020180214SEA.FLKG7931003832                                                                                                                
00025103   O31E912510800025108201801191040 00025108MST171228/7931003832     0007                        00039130                                                                                                                                                                                                      
00025103   O31E112510800025108201801191040100025108MST171228/7931003832     0008EFDHV32D65A                                                 00017920  000000002722140000001020180214SEA.FLKG7931003832                                                                                                                
00025103   O31E912510800025108201801191040 00025108MST171228/7931003832     0008                        00039130                                                                                                                                                                                                      
00025103   O31E112510800025108201801191040100025108MST171228/7931003832     0009EFDHV42D65A                                                 00074800  000000003013840000001020180214SEA.FLKG7931003832                                                                                                                
00025103   O31E912510800025108201801191040 00025108MST171228/7931003832     0009                        00039130                                                                                                                                                                                                      
00025103   O31E112510800025108201801191040100025108MST171228/7931003832     0010EFU11E652V                                                  00050000  000000001223440000001020180214SEA.FLKG7931003832                                                                                                                
00025103   O31E912510800025108201801191040 00025108MST171228/7931003832     0010                        00039130                                                                                                                                                                                                      
00025103   O31E112510800025108201801191040100025108MST171228/7931003832     0011EFU14E272V1                                                 00150000  000000001189640000001020180214SEA.FLKG7931003832                                                                                                                
00025103   O31E912510800025108201801191040 00025108MST171228/7931003832     0011                        00039130                                                                                                                                                                                                      
00025103   O31E112510800025108201801191040100025108MST171228/7931003832     0012EFU14E652V1                                                 00550000  000000001189640000001020180214SEA.FLKG7931003832                                                                                                                
00025103   O31E912510800025108201801191040 00025108MST171228/7931003832     0012                        00039130                                                                                                                                                                                                      
00025103   O31E112510800025108201801191040100025108MST171228/7931003832     0013EFU8E652V1                                                  00175000  000000001088340000001020180214SEA.FLKG7931003832                                                                                                                
00025103   O31E912510800025108201801191040 00025108MST171228/7931003832     0013                        00039130                                                                                                                                                                                                      
00025103   O31E112510800025108201801191040100025108MST171228/7931003832     0014EFUHV18D65A                                                 00480000  000000001342340000001020180214SEA.FLKG7931003832                                                                                                                
00025103   O31E912510800025108201801191040 00025108MST171228/7931003832     0014                        00039130                                                                                                                                                                                                      
00025103   O31E112510800025108201801191040100025108MST171228/7931003832     0015EFUHV18L27A                                                 00022000  000000001342340000001020180214SEA.FLKG7931003832                                                                                                                
00025103   O31E912510800025108201801191040 00025108MST171228/7931003832     0015                        00039130                                                                                                                                                                                                      
00025103   O31E112510800025108201801191040100025108MST171228/7931003832     0016EFUHV23D65A                                                 00075000  000000001411440000001020180214SEA.FLKG7931003832                                                                                                                
00025103   O31E912510800025108201801191040 00025108MST171228/7931003832     0016                        00039130                                                                                                                                                                                                      
00025103   O31A112510800025108201801191040100025108MST171229/7931003834         A  0002510300039130                                 L31790                              YCKE, MS. CHUI HONG, MICHELLE MI20180124        1N10003827420180224SEA.FLKGLIGHTING                                                       O   
00025103   O31A212510800025108201801191040100025108MST171229/7931003834         FOB0                              USD                                                        00039130201803140003913000039130                                            00038274                                                     
00025103   O31E112510800025108201801191040100025108MST171229/7931003834     0001LDAHV12DH5T                                                 00100000  000000001327140000001020180307SEA.FLKG7931003834                                                                                                                
00025103   O31E912510800025108201801191040 00025108MST171229/7931003834     0001                        00039130                                                                                                                                                                                                      
00025103   O31E112510800025108201801191040100025108MST171229/7931003834     0002LDAHV12LH5T                                                 00045000  000000001327140000001020180307SEA.FLKG7931003834                                                                                                                
00025103   O31E912510800025108201801191040 00025108MST171229/7931003834     0002                        00039130                                                                                                                                                                                                      
00025103   O31E112510800025108201801191040100025108MST171229/7931003834     0003LDAHV15DH5T                                                 00200000  000000001775940000001020180307SEA.FLKG7931003834                                                                                                                
00025103   O31E912510800025108201801191040 00025108MST171229/7931003834     0003                        00039130                                                                                                                                                                                                      
00025103   O31E112510800025108201801191040100025108MST171229/7931003834     0004LDAHV15LH5T                                                 00040000  000000001775940000001020180307SEA.FLKG7931003834                                                                                                                
00025103   O31E912510800025108201801191040 00025108MST171229/7931003834     0004                        00039130                                                                                                                                                                                                      
00025103   O31E112510800025108201801191040100025108MST171229/7931003834     0005LDAHV3DH6A                                                  00030000  000000000630340000001020180307SEA.FLKG7931003834                                                                                                                
00025103   O31E912510800025108201801191040 00025108MST171229/7931003834     0005                        00039130                                                                                                                                                                                                      
00025103   O31E112510800025108201801191040100025108MST171229/7931003834     0006LDAHV3LH6A                                                  00060000  000000000630340000001020180307SEA.FLKG7931003834                                                                                                                
00025103   O31E912510800025108201801191040 00025108MST171229/7931003834     0006                        00039130                                                                                                                                                                                                      
00025103   O31E112510800025108201801191040100025108MST171229/7931003834     0007LDAHV5DH6A                                                  00125000  000000000630340000001020180307SEA.FLKG7931003834                                                                                                                
00025103   O31E912510800025108201801191040 00025108MST171229/7931003834     0007                        00039130                                                                                                                                                                                                      
00025103   O31E112510800025108201801191040100025108MST171229/7931003834     0008LDAHV5LH6A                                                  00060000  000000000630340000001020180307SEA.FLKG7931003834                                                                                                                
00025103   O31E912510800025108201801191040 00025108MST171229/7931003834     0008                        00039130                                                                                                                                                                                                      
00025103   O31E112510800025108201801191040100025108MST171229/7931003834     0009LDAHV7DH6A                                                  00300000  000000000779240000001020180307SEA.FLKG7931003834                                                                                                                
00025103   O31E912510800025108201801191040 00025108MST171229/7931003834     0009                        00039130                                                                                                                                                                                                      
00025103   O31E112510800025108201801191040100025108MST171229/7931003834     0010LDAHV7LH6A                                                  00130000  000000000779240000001020180307SEA.FLKG7931003834                                                                                                                
00025103   O31E912510800025108201801191040 00025108MST171229/7931003834     0010                        00039130                                                                                                                                                                                                      
00025103   O31E112510800025108201801191040100025108MST171229/7931003834     0011LDAHV9DH6A                                                  00160000  000000001121440000001020180307SEA.FLKG7931003834                                                                                                                
00025103   O31E912510800025108201801191040 00025108MST171229/7931003834     0011                        00039130                                                                                                                                                                                                      
00025103   O31E112510800025108201801191040100025108MST171229/7931003834     0012LDAHV9LH6A                                                  00070000  000000001121440000001020180307SEA.FLKG7931003834                                                                                                                
00025103   O31E912510800025108201801191040 00025108MST171229/7931003834     0012                        00039130                                                                                                                                                                                                      
00025103   O31A112510800025108201801191040100025108MST171230/7931003833         A  0002510300039130                                 S31790                              YCKE, MS. CHUI HONG, MICHELLE MI20180124        1N10003827420180210SEA.FLKGLIGHTING                                                       O   
00025103   O31A212510800025108201801191040100025108MST171230/7931003833         FOB0                              USD                                                        00039130201802280003913000039130                                            00038274                                                     
00025103   O31E112510800025108201801191040100025108MST171230/7931003833     0001EFDHV25D65T                                                 00350400  000000000015220000001020180221SEA.FLKG7931003833                                                                                                                
00025103   O31E912510800025108201801191040 00025108MST171230/7931003833     0001                        00039130                                                                                                                                                                                                      
