12000I     O31A112511000025110201810231011100025110MMQ7901003117/7921005066       10002510300039140                                 L31790                              YNR01-SG                        20181201         N 0003827420181108SEA.FPKLLIGHTING                                                       O   
12000I     O31A212511000025110201810231011100025110MMQ7901003117/7921005066     FOB0                              USD                                                        00025103201812010002510300025103                                            00038274                                                     
12000I     O31A812511000025110201810231011100025110MMQ7901003117/7921005066     FOB                                                                                                                                                                                                                                   
12000I     O31E112511000025110201810231011100025110MMQ7901003117/7921005066 0010EFDHV25L27T1                                                00019200  000000000000120000001020181201SEA.FPKLMMQ7901003117/7921005066                                                                                                  
12000I     O31E912511000025110201810231011 00025110MMQ7901003117/7921005066 0010                        00025103                                                                                                                                                                                                      
12000I     O31E112511000025110201810231011100025110MMQ7901003117/7921005066 0020EFUHV23D65A3                                                00010000  000000000000120000001020181201SEA.FPKLMMQ7901003117/7921005066                                                                                                  
12000I     O31E912511000025110201810231011 00025110MMQ7901003117/7921005066 0020                        00025103                                                                                                                                                                                                      
