12000I     O31A112510800025108201809171154100025108MST7901002117/7931005257       10002510300039130                                 L31790                              YNR01-SG                        20181014         N 0003827420180926SEA.FLKGLIGHTING                                                       O   
12000I     O31A212510800025108201809171154100025108MST7901002117/7931005257     FOB0                              USD                                                        00025103201810140002510300025103                                            00038274                                                     
12000I     O31A812510800025108201809171154100025108MST7901002117/7931005257     FOB                                                                                                                                                                                                                                   
12000I     O31E112510800025108201809171154100025108MST7901002117/7931005257 0010LDAHV20DH5T                                                 00015000  000000000000120000001020181014SEA.FLKGMST7901002117/7931005257                                                                                                  
12000I     O31E912510800025108201809171154 00025108MST7901002117/7931005257 0010                        00025103                                                                                                                                                                                                      
12000I     O31E112510800025108201809171154100025108MST7901002117/7931005257 0020LDAHV23DH5T                                                 00015000  000000000000120000001020181014SEA.FLKGMST7901002117/7931005257                                                                                                  
12000I     O31E912510800025108201809171154 00025108MST7901002117/7931005257 0020                        00025103                                                                                                                                                                                                      
12000I     O31E112510800025108201809171154100025108MST7901002117/7931005257 0030LDAHV30DH5T                                                 00010000  000000000000120000001020181014SEA.FLKGMST7901002117/7931005257                                                                                                  
12000I     O31E912510800025108201809171154 00025108MST7901002117/7931005257 0030                        00025103                                                                                                                                                                                                      
12000I     O31A112510800025108201809171221100025108MST7901002118/7931005256       10002510300039130                                 L31790                              YNR01-SG                        20181004         N 00038274        SEA.FLKGLIGHTING                                                       O   
12000I     O31A212510800025108201809171221100025108MST7901002118/7931005256     FOB0                              USD                                                        00025103201810040002510300025103                                            00038274                                                     
12000I     O31A812510800025108201809171221100025108MST7901002118/7931005256     FOB                                                                                                                                                                                                                                   
12000I     O31E112510800025108201809171221100025108MST7901002118/7931005256 0010LDAHV20DH5T                                                 00050000  000000000000120000001020181004SEA.FLKGMST7901002118/7931005256                                                                                                  
12000I     O31E912510800025108201809171221 00025108MST7901002118/7931005256 0010                        00025103                                                                                                                                                                                                      
12000I     O31E112510800025108201809171221100025108MST7901002118/7931005256 0020LDAHV23DH5T                                                 00050000  000000000000120000001020181004SEA.FLKGMST7901002118/7931005256                                                                                                  
12000I     O31E912510800025108201809171221 00025108MST7901002118/7931005256 0020                        00025103                                                                                                                                                                                                      
12000I     O31E112510800025108201809171221100025108MST7901002118/7931005256 0030LDAHV30DH5T                                                 00050000  000000000000120000001020181004SEA.FLKGMST7901002118/7931005256                                                                                                  
12000I     O31E912510800025108201809171221 00025108MST7901002118/7931005256 0030                        00025103                                                                                                                                                                                                      
12000I     O31E112510800025108201809171221100025108MST7901002118/7931005256 0040LDMHV3L30MG5T                                               00030000  000000000000120000001020181004SEA.FLKGMST7901002118/7931005256                                                                                                  
12000I     O31E912510800025108201809171221 00025108MST7901002118/7931005256 0040                        00025103                                                                                                                                                                                                      
12000I     O31E112510800025108201809171221100025108MST7901002118/7931005256 0050LDMHV4L30MG5T                                               00030000  000000000000120000001020181004SEA.FLKGMST7901002118/7931005256                                                                                                  
12000I     O31E912510800025108201809171221 00025108MST7901002118/7931005256 0050                        00025103                                                                                                                                                                                                      
