12000I     O31A112510800025108201807251305100025108MST7901000364/7931004945       10002510300039130                                 L31790                              YNR01-SG                        20180813         N 0003827420180726SEA.FLKGLIGHTING                                                       O   
12000I     O31A212510800025108201807251305100025108MST7901000364/7931004945     FOB                               USD                                                        00025103201808130002510300025103                                            00038274                                                     
12000I     O31A812510800025108201807251305100025108MST7901000364/7931004945     FOB                                                                                                                                                                                                                                   
12000I     O31E112510800025108201807251305100025108MST7901000364/7931004945 0010LDAHV9DH6T                                                  00190000PC000000000008920000001020180813SEA.FLKGMST7901000364/7931004945                                                                                                  
12000I     O31E912510800025108201807251305 00025108MST7901000364/7931004945 0010                        00025103                                                                                                                                                                                                      
