00025103   O31A112511000025110201804160455100025110MMQ173909/7921003422         A  0002510300039140                                 S31790                              YCKE, MS. CHUI HONG, MICHELLE MI20180421        1N10003827420180514SEA.FPKLUA                                                             O   
00025103   O31A212511000025110201804160455100025110MMQ173909/7921003422         FOB0                              USD                                                        00039140201806060003914000039140                                            00038274                                                     
00025103   O31E112511000025110201804160455100025110MMQ173909/7921003422     0001LDAHV13DH7A                                                 00600000  0000000000142200000010        SEA.FPKL7921003422                                                                                                                
00025103   O31E912511000025110201804160455 00025110MMQ173909/7921003422     0001                        00039140                                                                                                                                                                                                      
00025103   O31E112511000025110201804160455100025110MMQ173909/7921003422     0002LDAHV15DH7A                                                 00600000  0000000000184200000010        SEA.FPKL7921003422                                                                                                                
00025103   O31E912511000025110201804160455 00025110MMQ173909/7921003422     0002                        00039140                                                                                                                                                                                                      
