00025103   O31A112510700025107201609160636100025107MPH156381/7961000137         A  0002510300029474                                 L31790                              YCKE, MS. CHUI HONG, MICHELLE MI20160921        1N10003827420160918SEA.FMNLLIGHTING                                                       O   
00025103   O31A212510700025107201609160636100025107MPH156381/7961000137         FOB0                              USD                                                        00029474201610200002947400029474                                            00038274                                                     
00025103   O31E112510700025107201609160636100025107MPH156381/7961000137     0001EFDHV11D65A                                                 00029760  0000000011846400000010        SEA.FMNL7961000137                                                                                                                
00025103   O31E912510700025107201609160636 00025107MPH156381/7961000137     0001                        00029474                                                                                                                                                                                                      
00025103   O31E112510700025107201609160636100025107MPH156381/7961000137     0002EFDHV15D65A                                                 00029760  0000000011846400000010        SEA.FMNL7961000137                                                                                                                
00025103   O31E912510700025107201609160636 00025107MPH156381/7961000137     0002                        00029474                                                                                                                                                                                                      
00025103   O31E112510700025107201609160636100025107MPH156381/7961000137     0003EFDHV20D65A                                                 00067200  0000000014364400000010        SEA.FMNL7961000137                                                                                                                
00025103   O31E912510700025107201609160636 00025107MPH156381/7961000137     0003                        00029474                                                                                                                                                                                                      
00025103   O31E112510700025107201609160636100025107MPH156381/7961000137     0004EFDHV23D65A                                                 00029760  0000000001525300000010        SEA.FMNL7961000137                                                                                                                
00025103   O31E912510700025107201609160636 00025107MPH156381/7961000137     0004                        00029474                                                                                                                                                                                                      
00025103   O31E112510700025107201609160636100025107MPH156381/7961000137     0005EFDHV25D65A                                                 00048000  0000000016473400000010        SEA.FMNL7961000137                                                                                                                
00025103   O31E912510700025107201609160636 00025107MPH156381/7961000137     0005                        00029474                                                                                                                                                                                                      
00025103   O31E112510700025107201609160636100025107MPH156381/7961000137     0006EFU11E652V                                                  00020000  0000000012042400000010        SEA.FMNL7961000137                                                                                                                
00025103   O31E912510700025107201609160636 00025107MPH156381/7961000137     0006                        00029474                                                                                                                                                                                                      
00025103   O31E112510700025107201609160636100025107MPH156381/7961000137     0007EFU14E652V                                                  00010000  0000000012832400000010        SEA.FMNL7961000137                                                                                                                
00025103   O31E912510700025107201609160636 00025107MPH156381/7961000137     0007                        00029474                                                                                                                                                                                                      
00025103   O31E112510700025107201609160636100025107MPH156381/7961000137     0008EFUHV11D65A                                                 00048000  0000000009574400000010        SEA.FMNL7961000137                                                                                                                
00025103   O31E912510700025107201609160636 00025107MPH156381/7961000137     0008                        00029474                                                                                                                                                                                                      
00025103   O31E112510700025107201609160636100025107MPH156381/7961000137     0009EFUHV14D65A                                                 00077000  0000000010363400000010        SEA.FMNL7961000137                                                                                                                
00025103   O31E912510700025107201609160636 00025107MPH156381/7961000137     0009                        00029474                                                                                                                                                                                                      
00025103   O31E112510700025107201609160636100025107MPH156381/7961000137     0010EFUHV18D65A3                                                00031000  0000000014213400000010        SEA.FMNL7961000137                                                                                                                
00025103   O31E912510700025107201609160636 00025107MPH156381/7961000137     0010                        00029474                                                                                                                                                                                                      
00025103   O31E112510700025107201609160636100025107MPH156381/7961000137     0011EFUHV23D65A3                                                00042000  0000000015169400000010        SEA.FMNL7961000137                                                                                                                
00025103   O31E912510700025107201609160636 00025107MPH156381/7961000137     0011                        00029474                                                                                                                                                                                                      
00025103   O31E112510700025107201609160636100025107MPH156381/7961000137     0012EFUHV8D65A                                                  00020000  0000000009574400000010        SEA.FMNL7961000137                                                                                                                
00025103   O31E912510700025107201609160636 00025107MPH156381/7961000137     0012                        00029474                                                                                                                                                                                                      
00025103   O31E112510700025107201609160636100025107MPH156381/7961000137     0013LDAHV10DG4A                                                 00030100  0000000000026100000010        SEA.FMNL7961000137                                                                                                                
00025103   O31E912510700025107201609160636 00025107MPH156381/7961000137     0013                        00029474                                                                                                                                                                                                      
00025103   O31E112510700025107201609160636100025107MPH156381/7961000137     0014LDAHV10LG4A                                                 00018100  0000000000026100000010        SEA.FMNL7961000137                                                                                                                
00025103   O31E912510700025107201609160636 00025107MPH156381/7961000137     0014                        00029474                                                                                                                                                                                                      
00025103   O31E112510700025107201609160636100025107MPH156381/7961000137     0015LDAHV12DG4A                                                 00010100  0000000035399400000010        SEA.FMNL7961000137                                                                                                                
00025103   O31E912510700025107201609160636 00025107MPH156381/7961000137     0015                        00029474                                                                                                                                                                                                      
00025103   O31E112510700025107201609160636100025107MPH156381/7961000137     0016LDAHV12LG4A                                                 00010100  0000000035399400000010        SEA.FMNL7961000137                                                                                                                
00025103   O31E912510700025107201609160636 00025107MPH156381/7961000137     0016                        00029474                                                                                                                                                                                                      
00025103   O31E112510700025107201609160636100025107MPH156381/7961000137     0017LDAHV4DG4A                                                  00044100  0000000000115200000010        SEA.FMNL7961000137                                                                                                                
00025103   O31E912510700025107201609160636 00025107MPH156381/7961000137     0017                        00029474                                                                                                                                                                                                      
00025103   O31E112510700025107201609160636100025107MPH156381/7961000137     0018LDAHV4LG4A                                                  00026100  0000000000115200000010        SEA.FMNL7961000137                                                                                                                
00025103   O31E912510700025107201609160636 00025107MPH156381/7961000137     0018                        00029474                                                                                                                                                                                                      
00025103   O31E112510700025107201609160636100025107MPH156381/7961000137     0019LDAHV5DG4A                                                  00060100  0000000000013100000010        SEA.FMNL7961000137                                                                                                                
00025103   O31E912510700025107201609160636 00025107MPH156381/7961000137     0019                        00029474                                                                                                                                                                                                      
00025103   O31E112510700025107201609160636100025107MPH156381/7961000137     0020LDAHV5LG4A                                                  00042100  0000000000013100000010        SEA.FMNL7961000137                                                                                                                
00025103   O31E912510700025107201609160636 00025107MPH156381/7961000137     0020                        00029474                                                                                                                                                                                                      
00025103   O31E112510700025107201609160636100025107MPH156381/7961000137     0021LDAHV7DG4A                                                  00034100  0000000000175200000010        SEA.FMNL7961000137                                                                                                                
00025103   O31E912510700025107201609160636 00025107MPH156381/7961000137     0021                        00029474                                                                                                                                                                                                      
00025103   O31E112510700025107201609160636100025107MPH156381/7961000137     0022LDAHV7LG4A                                                  00022100  0000000000175200000010        SEA.FMNL7961000137                                                                                                                
00025103   O31E912510700025107201609160636 00025107MPH156381/7961000137     0022                        00029474                                                                                                                                                                                                      
00025103   O31E112510700025107201609160636100025107MPH156381/7961000137     0023LDAHV8DG4A                                                  00030100  0000000021395400000010        SEA.FMNL7961000137                                                                                                                
00025103   O31E912510700025107201609160636 00025107MPH156381/7961000137     0023                        00029474                                                                                                                                                                                                      
00025103   O31E112510700025107201609160636100025107MPH156381/7961000137     0024LDAHV8LG4A                                                  00018100  0000000021395400000010        SEA.FMNL7961000137                                                                                                                
00025103   O31E912510700025107201609160636 00025107MPH156381/7961000137     0024                        00029474                                                                                                                                                                                                      
00025103   O31E112510700025107201609160636100025107MPH156381/7961000137     0025LDTHV16DGNA                                                 00010140  0000000008055300000010        SEA.FMNL7961000137                                                                                                                
00025103   O31E912510700025107201609160636 00025107MPH156381/7961000137     0025                        00029474                                                                                                                                                                                                      
00025103   O31E112510700025107201609160636100025107MPH156381/7961000137     0026LDTHV25DGNA                                                 00010140  0000000011002300000010        SEA.FMNL7961000137                                                                                                                
00025103   O31E912510700025107201609160636 00025107MPH156381/7961000137     0026                        00029474                                                                                                                                                                                                      
00025103   O31E112510700025107201609160636100025107MPH156381/7961000137     0027LDTHV35DGNA                                                 00010020  0000000013556300000010        SEA.FMNL7961000137                                                                                                                
00025103   O31E912510700025107201609160636 00025107MPH156381/7961000137     0027                        00029474                                                                                                                                                                                                      
