12000I     O31A112510800025108201808142205100025108MST7901001111/7931005052       10002510300039130                                 L31790                              YNR01-SG                        20180913         N 0003827420180826SEA.FLKGLIGHTING                                                       O   
12000I     O31A212510800025108201808142205100025108MST7901001111/7931005052     FOB0                              USD                                                        00025103201809130002510300025103                                            00038274                                                     
12000I     O31A812510800025108201808142205100025108MST7901001111/7931005052     FOB                                                                                                                                                                                                                                   
12000I     O31E112510800025108201808142205100025108MST7901001111/7931005052 0010LDAHV12DH6T                                                 00100000PC000000000000100000001020180913SEA.FLKGMST7901001111/7931005052                                                                                                  
12000I     O31E912510800025108201808142205 00025108MST7901001111/7931005052 0010                        00025103                                                                                                                                                                                                      
12000I     O31E112510800025108201808142205100025108MST7901001111/7931005052 0020LDAHV12LH6T                                                 00040000PC000000000000100000001020180913SEA.FLKGMST7901001111/7931005052                                                                                                  
12000I     O31E912510800025108201808142205 00025108MST7901001111/7931005052 0020                        00025103                                                                                                                                                                                                      
12000I     O31E112510800025108201808142205100025108MST7901001111/7931005052 0030LDAHV15DH6T                                                 00050000PC000000000012420000001020180913SEA.FLKGMST7901001111/7931005052                                                                                                  
12000I     O31E912510800025108201808142205 00025108MST7901001111/7931005052 0030                        00025103                                                                                                                                                                                                      
12000I     O31E112510800025108201808142205100025108MST7901001111/7931005052 0040LDAHV15LH6T                                                 00025000PC000000000012420000001020180913SEA.FLKGMST7901001111/7931005052                                                                                                  
12000I     O31E912510800025108201808142205 00025108MST7901001111/7931005052 0040                        00025103                                                                                                                                                                                                      
12000I     O31E112510800025108201808142205100025108MST7901001111/7931005052 0050LDAHV3DH6T                                                  00080000PC000000000004820000001020180913SEA.FLKGMST7901001111/7931005052                                                                                                  
12000I     O31E912510800025108201808142205 00025108MST7901001111/7931005052 0050                        00025103                                                                                                                                                                                                      
12000I     O31E112510800025108201808142205100025108MST7901001111/7931005052 0060LDAHV3LH6T                                                  00046000PC000000000004820000001020180913SEA.FLKGMST7901001111/7931005052                                                                                                  
12000I     O31E912510800025108201808142205 00025108MST7901001111/7931005052 0060                        00025103                                                                                                                                                                                                      
12000I     O31E112510800025108201808142205100025108MST7901001111/7931005052 0070LDAHV5DH6T                                                  00115000PC000000000005220000001020180913SEA.FLKGMST7901001111/7931005052                                                                                                  
12000I     O31E912510800025108201808142205 00025108MST7901001111/7931005052 0070                        00025103                                                                                                                                                                                                      
12000I     O31E112510800025108201808142205100025108MST7901001111/7931005052 0080LDAHV5LH6T                                                  00050000PC000000000005220000001020180913SEA.FLKGMST7901001111/7931005052                                                                                                  
12000I     O31E912510800025108201808142205 00025108MST7901001111/7931005052 0080                        00025103                                                                                                                                                                                                      
12000I     O31E112510800025108201808142205100025108MST7901001111/7931005052 0090LDAHV7DH6T                                                  00320000PC000000000005920000001020180913SEA.FLKGMST7901001111/7931005052                                                                                                  
12000I     O31E912510800025108201808142205 00025108MST7901001111/7931005052 0090                        00025103                                                                                                                                                                                                      
12000I     O31E112510800025108201808142205100025108MST7901001111/7931005052 0100LDAHV7LH6T                                                  00070000PC000000000005920000001020180913SEA.FLKGMST7901001111/7931005052                                                                                                  
12000I     O31E912510800025108201808142205 00025108MST7901001111/7931005052 0100                        00025103                                                                                                                                                                                                      
12000I     O31E112510800025108201808142205100025108MST7901001111/7931005052 0110LDAHV9DH6T                                                  00190000PC000000000007720000001020180913SEA.FLKGMST7901001111/7931005052                                                                                                  
12000I     O31E912510800025108201808142205 00025108MST7901001111/7931005052 0110                        00025103                                                                                                                                                                                                      
12000I     O31E112510800025108201808142205100025108MST7901001111/7931005052 0120LDAHV9LH6T                                                  00050000PC000000000007720000001020180913SEA.FLKGMST7901001111/7931005052                                                                                                  
12000I     O31E912510800025108201808142205 00025108MST7901001111/7931005052 0120                        00025103                                                                                                                                                                                                      
