00025103   O31A112510700025107201709141144100025107MPH167513/7961002799         A  0002510300029474                                 L31790                              YCKE, MS. CHUI HONG, MICHELLE MI20170919        1N100038274        SEA.FMNLLIGHTING                                                       O   
00025103   O31A212510700025107201709141144100025107MPH167513/7961002799         FOB0                              USD                                                        00029474201710120002947400029474                                            00038274                                                     
00025103   O31E112510700025107201709141144100025107MPH167513/7961002799     0001EFUHV14D65A                                                 00090000  0000000000105200000010        SEA.FMNL7961002799                                                                                                                
00025103   O31E912510700025107201709141144 00025107MPH167513/7961002799     0001                        00029474                                                                                                                                                                                                      
00025103   O31E112510700025107201709141144100025107MPH167513/7961002799     0002EFUHV11D65A                                                 00100000  0000000000097200000010        SEA.FMNL7961002799                                                                                                                
00025103   O31E912510700025107201709141144 00025107MPH167513/7961002799     0002                        00029474                                                                                                                                                                                                      
00025103   O31E112510700025107201709141144100025107MPH167513/7961002799     0003EFUHV18D65A3                                                00090000  0000000014213400000010        SEA.FMNL7961002799                                                                                                                
00025103   O31E912510700025107201709141144 00025107MPH167513/7961002799     0003                        00029474                                                                                                                                                                                                      
00025103   O31E112510700025107201709141144100025107MPH167513/7961002799     0004EFUHV8D65A                                                  00100000  0000000000097200000010        SEA.FMNL7961002799                                                                                                                
00025103   O31E912510700025107201709141144 00025107MPH167513/7961002799     0004                        00029474                                                                                                                                                                                                      
