00025103   O31A112511000025110201705291155100025110MMQ163826/7921000500         A  0002510300039140                                 S31790                              NCKE, MS. CHUI HONG, MICHELLE MI20170613        1N10003827420170623SEA.FPKLLIGHTING                                                       O   
00025103   O31A212511000025110201705291155100025110MMQ163826/7921000500         FOB0                              USD                                                        00039140201707100003914000039140SCMM                                        00038274                                                     
00025103   O31E112511000025110201705291155100025110MMQ163826/7921000500     0001EFDHV25D65T1                                                00136320  0000000014381400000010        SEA.FPKL7921000500                                                                                                                
00025103   O31E912511000025110201705291155 00025110MMQ163826/7921000500     0001                        00039140                                                                                                                                                                                                      
00025103   O31E112511000025110201705291155100025110MMQ163826/7921000500     0002EFUHV18D65A3                                                00900000  0000000010408400000010        SEA.FPKL7921000500                                                                                                                
00025103   O31E912511000025110201705291155 00025110MMQ163826/7921000500     0002                        00039140                                                                                                                                                                                                      
00025103   O31E112511000025110201705291155100025110MMQ163826/7921000500     0003LDAHV7DG4M                                                  00005000  0000000013265400000010        SEA.FPKL7921000500                                                                                                                
00025103   O31E912511000025110201705291155 00025110MMQ163826/7921000500     0003                        00039140                                                                                                                                                                                                      
