00025103   O31A112511000025110201608291040100025110MMQ155715/ES1608021          A  0002510300039140                                 S31790                               CKE, MS. CHUI HONG, MICHELLE MI20160903        1N10003827420160923SEA.FPKLLIGHTING                                                       O   
00025103   O31A212511000025110201608291040100025110MMQ155715/ES1608021          FOB0                              USD                                                                20161010                SCMM                                        00038274                                                     
00025103   O31E112511000025110201608291040100025110MMQ155715/ES1608021      0001EFDHV15D65A                                                 00039360  0000000011395400000010                                                                                                                                          
00025103   O31E112511000025110201608291040100025110MMQ155715/ES1608021      0002EFDHV20D65A                                                 00049920  0000000011984400000010                                                                                                                                          
00025103   O31E112511000025110201608291040100025110MMQ155715/ES1608021      0003EFDHV23D65A                                                 00038400  0000000012574400000010                                                                                                                                          
00025103   O31E112511000025110201608291040100025110MMQ155715/ES1608021      0004EFDHV25D65A                                                 00480000  0000000013949400000010                                                                                                                                          
00025103   O31A112511300025113201608291143100025113MNZ155755/P84663             A  0002510300029671                                 S31790ERASMUSJ                      NCKE, MS. CHUI HONG, MICHELLE MI20160913        1N10003827420160923SEA.FAKLLIGHTING                                                       O   
00025103   O31A212511300025113201608291143100025113MNZ155755/P84663             FOB0                              USD                                                                20161020                SCMM                                        00038274                                                     
00025103   O31E112511300025113201608291143100025113MNZ155755/P84663         0001LDAHV8LG4A1         LDAHV8LG4A1                             00015000  0000000021072400000010                                         ATP Auto Generate                                                                                
00025103   O31E112511300025113201608291143100025113MNZ155755/P84663         0002LDAHV8LG4BA         LDAHV8LG4BA                             00015000  0000000021072400000010                                         ATP Auto Generate                                                                                
00025103   O31E112511300025113201608291143100025113MNZ155755/P84663         0003LDAHV10DG4A1        LDAHV10DG4A1                            00025000  0000000024714400000010                                         ATP Auto Generate                                                                                
00025103   O31E112511300025113201608291143100025113MNZ155755/P84663         0004LDAHV10DG4BA        LDAHV10DG4BA                            00025000  0000000024714400000010                                         ATP Auto Generate                                                                                
00025103   O31E112511300025113201608291143100025113MNZ155755/P84663         0005LDAHV10LG4A1        LDAHV10LG4A1                            00025000  0000000024714400000010                                         ATP Auto Generate                                                                                
00025103   O31E112511300025113201608291143100025113MNZ155755/P84663         0006LDAHV10LG4BA        LDAHV10LG4BA                            00025000  0000000024714400000010                                         ATP Auto Generate                                                                                
00025103   O31E112511300025113201608291143100025113MNZ155755/P84663         0007LDAHV7DG4A1         LDAHV7DG4A1                             00017500  0000000001717300000010                                         ATP Auto Generate                                                                                
00025103   O31E112511300025113201608291143100025113MNZ155755/P84663         0008LDAHV7DG4BA         LDAHV7DG4BA                             00017500  0000000001717300000010                                         ATP Auto Generate                                                                                
00025103   O31E112511300025113201608291143100025113MNZ155755/P84663         0009LDAHV7LG4A1         LDAHV7LG4A1                             00017500  0000000001717300000010                                         ATP Auto Generate                                                                                
00025103   O31E112511300025113201608291143100025113MNZ155755/P84663         0010LDAHV7LG4BA         LDAHV7LG4BA                             00017500  0000000001717300000010                                         ATP Auto Generate                                                                                
00025103   O31E112511300025113201608291143100025113MNZ155755/P84663         0011LDAHV8DG4A1         LDAHV8DG4A1                             00010000  0000000021072400000010                                         ATP Auto Generate                                                                                
00025103   O31E112511300025113201608291143100025113MNZ155755/P84663         0012LDAHV8DG4BA         LDAHV8DG4BA                             00015000  0000000021072400000010                                         ATP Auto Generate                                                                                
00025103   O31A112511300025113201608291143100025113MNZ155761/P84664             A  0002510300029671                                 S31790ERASMUSJ                      NCKE, MS. CHUI HONG, MICHELLE MI20160913        1N10003827420160923SEA.FAKLLIGHTING                                                       O   
00025103   O31A212511300025113201608291143100025113MNZ155761/P84664             FOB0                              USD                                                                20161020                SCMM                                        00038274                                                     
00025103   O31E112511300025113201608291143100025113MNZ155761/P84664         0001EFDHV15D65BE        EFDHV15D65BE                            00024000  0000000012239400000010                                         ATP Auto Generate                                                                                
00025103   O31E112511300025113201608291143100025113MNZ155761/P84664         0002EFDHV15D65E         EFDHV15D65E                             00011520  0000000012239400000010                                         ATP Auto Generate                                                                                
00025103   O31E112511300025113201608291143100025113MNZ155761/P84664         0003EFDHV15L27BE        EFDHV15L27BE                            00024000  0000000012239400000010                                         ATP Auto Generate                                                                                
00025103   O31E112511300025113201608291143100025113MNZ155761/P84664         0004EFDHV15L27E         EFDHV15L27E                             00011520  0000000012239400000010                                         ATP Auto Generate                                                                                
00025103   O31E112511300025113201608291143100025113MNZ155761/P84664         0005EFDHV23D65BE        EFDHV23D65BE                            00035520  0000000000152200000010                                         ATP Auto Generate                                                                                
00025103   O31E112511300025113201608291143100025113MNZ155761/P84664         0006EFDHV23D65E         EFDHV23D65E                             00011520  0000000000152200000010                                         ATP Auto Generate                                                                                
00025103   O31E112511300025113201608291143100025113MNZ155761/P84664         0007EFDHV23L27BE        EFDHV23L27BE                            00035520  0000000000152200000010                                         ATP Auto Generate                                                                                
00025103   O31E112511300025113201608291143100025113MNZ155761/P84664         0008EFDHV23L27E         EFDHV23L27E                             00024000  0000000000152200000010                                         ATP Auto Generate                                                                                
