12000I     O31A112510800025108201906142205100025108MST7901009950/7931006770       10002510300039130                                 L31790                              YNR01-SG                        20190724         N 0003827420190706SEA.FLKGLIGHTING                                                       O   
12000I     O31A212510800025108201906142205100025108MST7901009950/7931006770     FOB0                              USD                                                        00025103201907240002510300025103                                            00038274                                                     
12000I     O31A812510800025108201906142205100025108MST7901009950/7931006770     FOB                                                                                                                                                                                                                                   
12000I     O31E112510800025108201906142205100025108MST7901009950/7931006770 0010EFDHV25D65T                                                 00540480  000000000014820000001020190724SEA.FLKGMST7901009950/7931006770                                                                                                  
12000I     O31E912510800025108201906142205 00025108MST7901009950/7931006770 0010                        00025103                                                                                                                                                                                                      
