12000I     O31A112510700025107201905201840100025107MPH7901009055/7961007498       10002510300029474                                 L31790                              YNR01-SG                        20190605         N 00038274        SEA.FMNLLIGHTING                                                       O   
12000I     O31A212510700025107201905201840100025107MPH7901009055/7961007498     FOB0                              USD                                                        00025103201906050002510300025103                                            00038274                                                     
12000I     O31A812510700025107201905201840100025107MPH7901009055/7961007498     FOB                                                                                                                                                                                                                                   
12000I     O31E112510700025107201905201840100025107MPH7901009055/7961007498 0010EFDHV15D65A                                                 00000960  000000000000120000001020190605SEA.FMNLMPH7901009055/7961007498                                                                                                  
12000I     O31E912510700025107201905201840 00025107MPH7901009055/7961007498 0010                        00025103                                                                                                                                                                                                      
