00025103   O31A112511100025111201606280642100025111MSP154255/DD5555-235351      A  0002510300029073                                 S31790                              NCKE, MS. CHUI HONG, MICHELLE MI20160713        1N10003827420160724SEA.FSINLIGHTING                                                       O   
00025103   O31A212511100025111201606280642100025111MSP154255/DD5555-235351      FOB0                              USD                                                                20160810                SCMM                                        00038274                                                     
00025103   O31E112511100025111201606280642100025111MSP154255/DD5555-235351  0001EFDHV11D65A         EFDHV11D65A                             00008640  0000000012239400000010                DD5555-235351                                                                                                             
00025103   O31E112511100025111201606280642100025111MSP154255/DD5555-235351  0002EFDHV15D65A         EFDHV15D65A                             00013440  0000000012239400000010                DD5555-235351                                                                                                             
00025103   O31E112511100025111201606280642100025111MSP154255/DD5555-235351  0003EFDHV15L27A         EFDHV15L27A                             00004800  0000000012239400000010                DD5555-235351                                                                                                             
00025103   O31E112511100025111201606280642100025111MSP154255/DD5555-235351  0004EFDHV20D65A         EFDHV20D65A                             00009600  0000000000152200000010                DD5555-235351                                                                                                             
00025103   O31E112511100025111201606280642100025111MSP154255/DD5555-235351  0005EFDHV23D65A         EFDHV23D65A                             00003840  0000000000152200000010                DD5555-235351                                                                                                             
00025103   O31E112511100025111201606280642100025111MSP154255/DD5555-235351  0006EFDHV25D65A         EFDHV25D65A                             00006720  0000000000152200000010                DD5555-235351                                                                                                             
00025103   O31E112511100025111201606280642100025111MSP154255/DD5555-235351  0007EFDHV5D65A          EFDHV5D65A                              00001920  0000000010363400000010                DD5555-235351                                                                                                             
00025103   O31E112511100025111201606280642100025111MSP154255/DD5555-235351  0008EFDHV8D65A          EFDHV8D65A                              00004800  0000000010363400000010                DD5555-235351                                                                                                             
00025103   O31A112511100025111201606280642100025111MSP154304/DD5555-235350      A  0002510300029073                                 L31790                              NCKE, MS. CHUI HONG, MICHELLE MI20160713        1N10003827420160724SEA.FSINLIGHTING                                                       O   
00025103   O31A212511100025111201606280642100025111MSP154304/DD5555-235350      FOB0                              USD                                                                20160810                SCMM                                        00038274                                                     
00025103   O31E112511100025111201606280642100025111MSP154304/DD5555-235350  0001EFU11E272V          EFU11E272V                              00003000  0000000011863400000010                DD5555-235350                                                                                                             
00025103   O31E112511100025111201606280642100025111MSP154304/DD5555-235350  0002EFU11E652V          EFU11E652V                              00003000  0000000011863400000010                DD5555-235350                                                                                                             
00025103   O31E112511100025111201606280642100025111MSP154304/DD5555-235350  0003EFU18E652V          EFU18E652V                              00003000  0000000013553400000010                DD5555-235350                                                                                                             
00025103   O31E112511100025111201606280642100025111MSP154304/DD5555-235350  0004EFU8E652V           EFU8E652V                               00002000  0000000011608400000010                DD5555-235350                                                                                                             
