00025103   O31A112510700025107201703091246100025107MPH161374/7961001318         A  0002510300029474                                 L31790                              YCKE, MS. CHUI HONG, MICHELLE MI20170314        1N10003827420170320SEA.FMNLLIGHTING                                                       O   
00025103   O31A212510700025107201703091246100025107MPH161374/7961001318         FOB0                              USD                                                        00029474201704210002947400029474                                            00038274                                                     
00025103   O31E112510700025107201703091246100025107MPH161374/7961001318     0001LDAHV3DH6A                                                  00110000  0000000000000000000010        SEA.FMNL7961001318                                                                                                                
00025103   O31E912510700025107201703091246 00025107MPH161374/7961001318     0001                        00029474                                                                                                                                                                                                      
00025103   O31E112510700025107201703091246100025107MPH161374/7961001318     0002LDAHV5DH6A                                                  00110000  0000000000000000000010        SEA.FMNL7961001318                                                                                                                
00025103   O31E912510700025107201703091246 00025107MPH161374/7961001318     0002                        00029474                                                                                                                                                                                                      
00025103   O31E112510700025107201703091246100025107MPH161374/7961001318     0003LDAHV7DH6A                                                  00110000  0000000000000000000010        SEA.FMNL7961001318                                                                                                                
00025103   O31E912510700025107201703091246 00025107MPH161374/7961001318     0003                        00029474                                                                                                                                                                                                      
00025103   O31E112510700025107201703091246100025107MPH161374/7961001318     0004LDAHV9DH6A                                                  00110000  0000000000000000000010        SEA.FMNL7961001318                                                                                                                
00025103   O31E912510700025107201703091246 00025107MPH161374/7961001318     0004                        00029474                                                                                                                                                                                                      
