00025103   O31A112510800025108201803141237100025108MST172891/7931004155         A  0002510300039130                                 L31790                              YCKE, MS. CHUI HONG, MICHELLE MI20180319        1N10003827420180321SEA.FLKGUA                                                             O   
00025103   O31A212510800025108201803141237100025108MST172891/7931004155         FOB0                              USD                                                        00039130201804080003913000039130                                            00038274                                                     
00025103   O31E112510800025108201803141237100025108MST172891/7931004155     0001LDAHV12DH5T                                                 00220000  000000001327140000001020180401SEA.FLKG7931004155                                                                                                                
00025103   O31E912510800025108201803141237 00025108MST172891/7931004155     0001                        00039130                                                                                                                                                                                                      
00025103   O31E112510800025108201803141237100025108MST172891/7931004155     0002LDAHV12LH5T                                                 00045000  000000001327140000001020180401SEA.FLKG7931004155                                                                                                                
00025103   O31E912510800025108201803141237 00025108MST172891/7931004155     0002                        00039130                                                                                                                                                                                                      
00025103   O31E112510800025108201803141237100025108MST172891/7931004155     0003LDAHV15DH5T                                                 00200000  000000001775940000001020180401SEA.FLKG7931004155                                                                                                                
00025103   O31E912510800025108201803141237 00025108MST172891/7931004155     0003                        00039130                                                                                                                                                                                                      
00025103   O31E112510800025108201803141237100025108MST172891/7931004155     0004LDAHV15LH5T                                                 00040000  000000001775940000001020180401SEA.FLKG7931004155                                                                                                                
00025103   O31E912510800025108201803141237 00025108MST172891/7931004155     0004                        00039130                                                                                                                                                                                                      
