00025103   O31A112511300025113201804301050100025113MNZ174154/P89559             A  0002510300029671                                 S31790ERASMUSJ                      NCKE, MS. CHUI HONG, MICHELLE MI20180515        1N10003827420180525SEA.FAKLLIGHTING                                                       O   
00025103   O31A212511300025113201804301050100025113MNZ174154/P89559             FOB0                              USD                                                                20180620                SCMM                                        00038274                                                     
00025103   O31E112511300025113201804301050100025113MNZ174154/P89559         0001LDAHV7LG4A1         LDAHV7LG4A1                             00005000  0000000001717300000010                                         ATP Auto Generate                                                                                
00025103   O31E112511300025113201804301050100025113MNZ174154/P89559         0002LDAHV8LG4A1         LDAHV8LG4A1                             00002500  0000000021072400000010                                         ATP Auto Generate                                                                                
00025103   O31E112511300025113201804301050100025113MNZ174154/P89559         0003LDAHV10DG4A1        LDAHV10DG4A1                            00002500  0000000024714400000010                                         ATP Auto Generate                                                                                
00025103   O31E112511300025113201804301050100025113MNZ174154/P89559         0004LDAHV10DG4BA        LDAHV10DG4BA                            00005000  0000000024714400000010                                         ATP Auto Generate                                                                                
00025103   O31E112511300025113201804301050100025113MNZ174154/P89559         0005LDAHV10LG4A1        LDAHV10LG4A1                            00005000  0000000024714400000010                                         ATP Auto Generate                                                                                
00025103   O31E112511300025113201804301050100025113MNZ174154/P89559         0006LDAHV10LG4BA        LDAHV10LG4BA                            00005000  0000000024714400000010                                         ATP Auto Generate                                                                                
00025103   O31E112511300025113201804301050100025113MNZ174154/P89559         0007LDAHV7DG4A1         LDAHV7DG4A1                             00002500  0000000001717300000010                                         ATP Auto Generate                                                                                
00025103   O31E112511300025113201804301050100025113MNZ174154/P89559         0008LDAHV7DG4BA         LDAHV7DG4BA                             00005000  0000000001717300000010                                         ATP Auto Generate                                                                                
00025103   O31A112511000025110201804301149100025110MMQ174212/7921003556         A  0002510300039140                                 S31790                              NCKE, MS. CHUI HONG, MICHELLE MI20180515        1N10003827420180525SEA.FPKLLIGHTING                                                       O   
00025103   O31A212511000025110201804301149100025110MMQ174212/7921003556         FOB0                              USD                                                        00039140201806100003914000039140SCMM                                        00038274                                                     
00025103   O31E112511000025110201804301149100025110MMQ174212/7921003556     0001EFDHV25D65T1                                                00268800  0000000014381400000010        SEA.FPKL7921003556                                                                                                                
00025103   O31E912511000025110201804301149 00025110MMQ174212/7921003556     0001                        00039140                                                                                                                                                                                                      
00025103   O31E112511000025110201804301149100025110MMQ174212/7921003556     0002EFUHV18D65A3                                                00250000  0000000010408400000010        SEA.FPKL7921003556                                                                                                                
00025103   O31E912511000025110201804301149 00025110MMQ174212/7921003556     0002                        00039140                                                                                                                                                                                                      
