00025103   O31A112511000025110201804041242100025110MMQ173622/7921003342         A  0002510300039140                                 S31790                              YCKE, MS. CHUI HONG, MICHELLE MI20180409        1N10003827420180513SEA.FPKLLIGHTING                                                       O   
00025103   O31A212511000025110201804041242100025110MMQ173622/7921003342         FOB0                              USD                                                        00039140201806050003914000039140                                            00038274                                                     
00025103   O31E112511000025110201804041242100025110MMQ173622/7921003342     0001EFDHV25D65T1                                                00230400  0000000000000000000010        SEA.FPKL7921003342                                                                                                                
00025103   O31E912511000025110201804041242 00025110MMQ173622/7921003342     0001                        00039140                                                                                                                                                                                                      
00025103   O31E112511000025110201804041242100025110MMQ173622/7921003342     0002EFUHV18D65A3                                                00450000  0000000000000000000010        SEA.FPKL7921003342                                                                                                                
00025103   O31E912511000025110201804041242 00025110MMQ173622/7921003342     0002                        00039140                                                                                                                                                                                                      
