00025103   O31A112510700025107201712081236100025107MPH170171/7961003511         A  0002510300029474                                 L31790                              YCKE, MS. CHUI HONG, MICHELLE MI20171213        1N10003827420171222SEA.FMNLLIGHTING                                                       O   
00025103   O31A212510700025107201712081236100025107MPH170171/7961003511         FOB0                              USD                                                        00029474201801230002947400029474                                            00038274                                                     
00025103   O31E112510700025107201712081236100025107MPH170171/7961003511     0001LDAHV3DH6A                                                  00030000  0000000000759300000010        SEA.FMNL7961003511                                                                                                                
00025103   O31E912510700025107201712081236 00025107MPH170171/7961003511     0001                        00029474                                                                                                                                                                                                      
00025103   O31E112510700025107201712081236100025107MPH170171/7961003511     0002LDAHV5DH6A                                                  00120000  0000000000983300000010        SEA.FMNL7961003511                                                                                                                
00025103   O31E912510700025107201712081236 00025107MPH170171/7961003511     0002                        00029474                                                                                                                                                                                                      
00025103   O31A112510700025107201712081236100025107MPH170172/7961003512         A  0002510300029474                                 L31790                              YCKE, MS. CHUI HONG, MICHELLE MI20171213        1N10003827420171222SEA.FMNLLIGHTING                                                       O   
00025103   O31A212510700025107201712081236100025107MPH170172/7961003512         FOB0                              USD                                                        00029474201801230002947400029474                                            00038274                                                     
00025103   O31E112510700025107201712081236100025107MPH170172/7961003512     0001EFDHV25D65A                                                 00096000  0000000001562300000010        SEA.FMNL7961003512                                                                                                                
00025103   O31E912510700025107201712081236 00025107MPH170172/7961003512     0001                        00029474                                                                                                                                                                                                      
00025103   O31E112510700025107201712081236100025107MPH170172/7961003512     0002EFUHV18D65A3                                                00080000  0000000001346300000010        SEA.FMNL7961003512                                                                                                                
00025103   O31E912510700025107201712081236 00025107MPH170172/7961003512     0002                        00029474                                                                                                                                                                                                      
