00025103   O31A112510800025108201707271241100025108MST165682/7931002733         A  0002510300039130                                 S31790                              YCKE, MS. CHUI HONG, MICHELLE MI20170801        1N10003827420170729SEA.FLKGLIGHTING                                                       O   
00025103   O31A212510800025108201707271241100025108MST165682/7931002733         FOB0                              USD                                                        00039130201708160003913000039130                                            00038274                                                     
00025103   O31E112510800025108201707271241100025108MST165682/7931002733     0001EFDHV11D65T                                                 00010560  000000001223940000001020170809SEA.FLKG7931002733                                                                                                                
00025103   O31E912510800025108201707271241 00025108MST165682/7931002733     0001                        00039130                                                                                                                                                                                                      
00025103   O31A112510800025108201707271241100025108MST165685/7931002732         A  0002510300039130                                 L31790                              YCKE, MS. CHUI HONG, MICHELLE MI20170801        1N10003827420170729SEA.FLKGUA                                                             O   
00025103   O31A212510800025108201707271241100025108MST165685/7931002732         FOB0                              USD                                                        00039130201708160003913000039130                                            00038274                                                     
00025103   O31E112510800025108201707271241100025108MST165685/7931002732     0001LDAHV12DH5T                                                 00050000  000000001327140000001020170809SEA.FLKG7931002732                                                                                                                
00025103   O31E912510800025108201707271241 00025108MST165685/7931002732     0001                        00039130                                                                                                                                                                                                      
00025103   O31E112510800025108201707271241100025108MST165685/7931002732     0002LDAHV15DH5T                                                 00040000  000000001775940000001020170809SEA.FLKG7931002732                                                                                                                
00025103   O31E912510800025108201707271241 00025108MST165685/7931002732     0002                        00039130                                                                                                                                                                                                      
00025103   O31A112510800025108201707271241100025108MST165686/7931002734         A  0002510300039130                                 L31790                              YCKE, MS. CHUI HONG, MICHELLE MI20170801        1N10003827420170730SEA.FLKGLIGHTING                                                       O   
00025103   O31A212510800025108201707271241100025108MST165686/7931002734         FOB0                              USD                                                        00039130201708170003913000039130                                            00038274                                                     
00025103   O31E112510800025108201707271241100025108MST165686/7931002734     0001LDAHV3LH6A                                                  00045000  000000000630340000001020170810SEA.FLKG7931002734                                                                                                                
00025103   O31E912510800025108201707271241 00025108MST165686/7931002734     0001                        00039130                                                                                                                                                                                                      
00025103   O31A112510800025108201707271241100025108MST165691/7931002735         A  0002510300039130                                 S31790                              YCKE, MS. CHUI HONG, MICHELLE MI20170801        1N10003827420170730SEA.FLKGLIGHTING                                                       O   
00025103   O31A212510800025108201707271241100025108MST165691/7931002735         FOB0                              USD                                                        00039130201708170003913000039130                                            00038274                                                     
00025103   O31E112510800025108201707271241100025108MST165691/7931002735     0001EFDHV11D65T                                                 00019920  000000001223940000001020170810SEA.FLKG7931002735                                                                                                                
00025103   O31E912510800025108201707271241 00025108MST165691/7931002735     0001                        00039130                                                                                                                                                                                                      
00025103   O31E112510800025108201707271241100025108MST165691/7931002735     0002EFDHV25D65T                                                 00200640  000000000015220000001020170810SEA.FLKG7931002735                                                                                                                
00025103   O31E912510800025108201707271241 00025108MST165691/7931002735     0002                        00039130                                                                                                                                                                                                      
