00025103   O31A112511000025110201609090136100025110MMQ156307/ES1609006          A  0002510300039140                                 S31790                               CKE, MS. CHUI HONG, MICHELLE MI20160914        1N10003827420161026SEA.FPKLLIGHTING                                                       O   
00025103   O31A212511000025110201609090136100025110MMQ156307/ES1609006          FOB0                              USD                                                                20161118                                                            00038274                                                     
00025103   O31E112511000025110201609090136100025110MMQ156307/ES1609006      0001EFUHV18D65A3                                                00450000  0000000010806400000010                                                                                                                                          
00025103   O31E112511000025110201609090136100025110MMQ156307/ES1609006      0002LDAHV7DG4M                                                  00010000  0000000013772400000010                                                                                                                                          
00025103   O31E112511000025110201609090136100025110MMQ156307/ES1609006      0003LDAHV8DG4M                                                  00030000  0000000015226400000010                                                                                                                                          
