00025103   O31A112511000025110201704281159100025110MMQ162710/7921000228         A  0002510300039140                                 S31790                              NCKE, MS. CHUI HONG, MICHELLE MI20170513        1N10003827420170525SEA.FPKLLIGHTING                                                       O   
00025103   O31A212511000025110201704281159100025110MMQ162710/7921000228         FOB0                              USD                                                        00039140201706100003914000039140SCMM                                        00038274                                                     
00025103   O31E112511000025110201704281159100025110MMQ162710/7921000228     0001EFUHV18D65A3                                                00250000  0000000010408400000010        SEA.FPKL7921000228                                                                                                                
00025103   O31E912511000025110201704281159 00025110MMQ162710/7921000228     0001                        00039140                                                                                                                                                                                                      
00025103   O31E112511000025110201704281159100025110MMQ162710/7921000228     0002EFUHV18L27A3                                                00020000  0000000010408400000010        SEA.FPKL7921000228                                                                                                                
00025103   O31E912511000025110201704281159 00025110MMQ162710/7921000228     0002                        00039140                                                                                                                                                                                                      
00025103   O31E112511000025110201704281159100025110MMQ162710/7921000228     0003LDAHV10LG4M                                                 00009000  0000000018455400000010        SEA.FPKL7921000228                                                                                                                
00025103   O31E912511000025110201704281159 00025110MMQ162710/7921000228     0003                        00039140                                                                                                                                                                                                      
00025103   O31E112511000025110201704281159100025110MMQ162710/7921000228     0004LDAHV12LG4M                                                 00009000  0000000025641400000010        SEA.FPKL7921000228                                                                                                                
00025103   O31E912511000025110201704281159 00025110MMQ162710/7921000228     0004                        00039140                                                                                                                                                                                                      
00025103   O31E112511000025110201704281159100025110MMQ162710/7921000228     0005LDAHV8LG4M                                                  00009000  0000000014665400000010        SEA.FPKL7921000228                                                                                                                
00025103   O31E912511000025110201704281159 00025110MMQ162710/7921000228     0005                        00039140                                                                                                                                                                                                      
