12000I     O31A112511000025110201903191426100025110MMQ7901007275/7921006401       10002510300039140                                 L31790                              YNR01-SG                        20190518         N 0003827420190425SEA.FPKLLIGHTING                                                       O   
12000I     O31A212511000025110201903191426100025110MMQ7901007275/7921006401     FOB0                              USD                                                        00025103201905180002510300025103                                            00038274                                                     
12000I     O31A812511000025110201903191426100025110MMQ7901007275/7921006401     FOB                                                                                                                                                                                                                                   
12000I     O31E112511000025110201903191426100025110MMQ7901007275/7921006401 0010EFUHV18L27A3                                                00022000  000000000000120000001020190518SEA.FPKLMMQ7901007275/7921006401                                                                                                  
12000I     O31E912511000025110201903191426 00025110MMQ7901007275/7921006401 0010                        00025103                                                                                                                                                                                                      
