12000I     O31A112511000025110201810011727100025110MMQ7901002435/7921004872       10002510300039140                                 L31790                              NNR01-SG                        20181110         N 0003827420181025SEA.FPKLLIGHTING                                                       O   
12000I     O31A212511000025110201810011727100025110MMQ7901002435/7921004872     FOB0                              USD                                                        00025103201811100002510300025103SCMM                                        00038274                                                     
12000I     O31A812511000025110201810011727100025110MMQ7901002435/7921004872     FOB                                                                                                                                                                                                                                   
12000I     O31E112511000025110201810011727100025110MMQ7901002435/7921004872 0010EFUHV18D65A3                                                00150000  000000000000120000001020181110SEA.FPKLMMQ7901002435/7921004872                                                                                                  
12000I     O31E912511000025110201810011727 00025110MMQ7901002435/7921004872 0010                        00025103                                                                                                                                                                                                      
12000I     O31E112511000025110201810011727100025110MMQ7901002435/7921004872 0020LDAHV13LH7A                                                 00020000  000000000000120000001020181110SEA.FPKLMMQ7901002435/7921004872                                                                                                  
12000I     O31E912511000025110201810011727 00025110MMQ7901002435/7921004872 0020                        00025103                                                                                                                                                                                                      
12000I     O31E112511000025110201810011727100025110MMQ7901002435/7921004872 0030LDAHV15LH7A                                                 00020000  000000000000120000001020181110SEA.FPKLMMQ7901002435/7921004872                                                                                                  
12000I     O31E912511000025110201810011727 00025110MMQ7901002435/7921004872 0030                        00025103                                                                                                                                                                                                      
