00025103   O31A112510800025108201610310939100025108MST157567/7931000927         A  0002510300039130                                 L31790                              NCKE, MS. CHUI HONG, MICHELLE MI20161115        1N10003827420161125SEA.FLKGLIGHTING                                                       O   
00025103   O31A212510800025108201610310939100025108MST157567/7931000927         FOB0                              USD                                                        00039130201612100003913000039130SCMM                                        00038274                                                     
00025103   O31E112510800025108201610310939100025108MST157567/7931000927     0001LDAHV3DH6A                                                  00090000  0000000007164400000010        SEA.FLKG7931000927                                                                                                                
00025103   O31E912510800025108201610310939 00025108MST157567/7931000927     0001                        00039130                                                                                                                                                                                                      
00025103   O31E112510800025108201610310939100025108MST157567/7931000927     0002LDAHV7DH6A                                                  00260000  0000000001006300000010        SEA.FLKG7931000927                                                                                                                
00025103   O31E912510800025108201610310939 00025108MST157567/7931000927     0002                        00039130                                                                                                                                                                                                      
00025103   O31E112510800025108201610310939100025108MST157567/7931000927     0003LDAHV9DH6A                                                  00120000  0000000001475300000010        SEA.FLKG7931000927                                                                                                                
00025103   O31E912510800025108201610310939 00025108MST157567/7931000927     0003                        00039130                                                                                                                                                                                                      
00025103   O31E112510800025108201610310939100025108MST157567/7931000927     0004LDS300D2N                                                   00005000  0000000223169400000010        SEA.FLKG7931000927                                                                                                                
00025103   O31E912510800025108201610310939 00025108MST157567/7931000927     0004                        00039130                                                                                                                                                                                                      
00025103   O31A112510800025108201610310939100025108MST157568/7931000928         A  0002510300039130                                 S31790                              NCKE, MS. CHUI HONG, MICHELLE MI20161115        1N10003827420161125SEA.FLKGLIGHTING                                                       O   
00025103   O31A212510800025108201610310939100025108MST157568/7931000928         FOB0                              USD                                                        00039130201612100003913000039130SCMM                                        00038274                                                     
00025103   O31E112510800025108201610310939100025108MST157568/7931000928     0001EFDHV25D65T                                                 01074240  0000000000152200000010        SEA.FLKG7931000928                                                                                                                
00025103   O31E912510800025108201610310939 00025108MST157568/7931000928     0001                        00039130                                                                                                                                                                                                      
00025103   O31E112510800025108201610310939100025108MST157568/7931000928     0002EFDHV25L27T                                                 00019200  0000000000152200000010        SEA.FLKG7931000928                                                                                                                
00025103   O31E912510800025108201610310939 00025108MST157568/7931000928     0002                        00039130                                                                                                                                                                                                      
00025103   O31E112510800025108201610310939100025108MST157568/7931000928     0003EFDHV42D65A                                                 00030000  0000000030138400000010        SEA.FLKG7931000928                                                                                                                
00025103   O31E912510800025108201610310939 00025108MST157568/7931000928     0003                        00039130                                                                                                                                                                                                      
00025103   O31E112510800025108201610310939100025108MST157568/7931000928     0004EFU11E652V                                                  00030000  0000000012234400000010        SEA.FLKG7931000928                                                                                                                
00025103   O31E912510800025108201610310939 00025108MST157568/7931000928     0004                        00039130                                                                                                                                                                                                      
00025103   O31E112510800025108201610310939100025108MST157568/7931000928     0005LDAHV10DG4A                                                 00020000  0000000023537400000010        SEA.FLKG7931000928                                                                                                                
00025103   O31E912510800025108201610310939 00025108MST157568/7931000928     0005                        00039130                                                                                                                                                                                                      
00025103   O31E112510800025108201610310939100025108MST157568/7931000928     0006LDAHV10LG4A                                                 00010000  0000000023537400000010        SEA.FLKG7931000928                                                                                                                
00025103   O31E912510800025108201610310939 00025108MST157568/7931000928     0006                        00039130                                                                                                                                                                                                      
00025103   O31E112510800025108201610310939100025108MST157568/7931000928     0007LDAHV12DG4A                                                 00035000  0000000029136400000010        SEA.FLKG7931000928                                                                                                                
00025103   O31E912510800025108201610310939 00025108MST157568/7931000928     0007                        00039130                                                                                                                                                                                                      
00025103   O31E112510800025108201610310939100025108MST157568/7931000928     0008LDAHV12LG4A                                                 00007000  0000000029136400000010        SEA.FLKG7931000928                                                                                                                
00025103   O31E912510800025108201610310939 00025108MST157568/7931000928     0008                        00039130                                                                                                                                                                                                      
00025103   O31E112510800025108201610310939100025108MST157568/7931000928     0009LDAHV4DG4A                                                  00050000  0000000011021400000010        SEA.FLKG7931000928                                                                                                                
00025103   O31E912510800025108201610310939 00025108MST157568/7931000928     0009                        00039130                                                                                                                                                                                                      
00025103   O31E112510800025108201610310939100025108MST157568/7931000928     0010LDAHV7DG4A                                                  00180000  0000000013892400000010        SEA.FLKG7931000928                                                                                                                
00025103   O31E912510800025108201610310939 00025108MST157568/7931000928     0010                        00039130                                                                                                                                                                                                      
00025103   O31E112510800025108201610310939100025108MST157568/7931000928     0011LDAHV7LG4A                                                  00030000  0000000013892400000010        SEA.FLKG7931000928                                                                                                                
00025103   O31E912510800025108201610310939 00025108MST157568/7931000928     0011                        00039130                                                                                                                                                                                                      
00025103   O31E112510800025108201610310939100025108MST157568/7931000928     0012LDR400N                                                     00005000  0000000003535200000010        SEA.FLKG7931000928                                                                                                                
00025103   O31E912510800025108201610310939 00025108MST157568/7931000928     0012                        00039130                                                                                                                                                                                                      
