12000I     O31A112510800025108201909162205100025108MST7901012679/7931007330       10002510300039130                                 L31790                              YNR01-SG                        20191010         N 0003827420190922SEA.FLKGLIGHTING                                                       O   
12000I     O31A212510800025108201909162205100025108MST7901012679/7931007330     FOB0                              USD                                                        00025103201910100002510300025103                                            00038274                                                     
12000I     O31A812510800025108201909162205100025108MST7901012679/7931007330     FOB                                                                                                                                                                                                                                   
12000I     O31E112510800025108201909162205100025108MST7901012679/7931007330 0010EFDHV20L27T1                                                00002880  000000000000120000001020191010SEA.FLKGMST7901012679/7931007330                                                                                                  
12000I     O31E912510800025108201909162205 00025108MST7901012679/7931007330 0010                        00025103                                                                                                                                                                                                      
