12000I     O31A112511000025110201905271404100025110MMQ7901009298/7921007182       10002510300039140                                 L31790                              NNR01-SG                        20190710         N 0003827420190623SEA.FPKLLIGHTING                                                       O   
12000I     O31A212511000025110201905271404100025110MMQ7901009298/7921007182     FOB0                              USD                                                        00025103201907100002510300025103SCMM                                        00038274                                                     
12000I     O31A812511000025110201905271404100025110MMQ7901009298/7921007182     FOB                                                                                                                                                                                                                                   
12000I     O31E112511000025110201905271404100025110MMQ7901009298/7921007182 0010EFUHV18D65A3                                                00500000  000000000000120000001020190710SEA.FPKLMMQ7901009298/7921007182                                                                                                  
12000I     O31E912511000025110201905271404 00025110MMQ7901009298/7921007182 0010                        00025103                                                                                                                                                                                                      
12000I     O31E112511000025110201905271404100025110MMQ7901009298/7921007182 0020EFUHV23D65A3                                                00010000  000000000000120000001020190710SEA.FPKLMMQ7901009298/7921007182                                                                                                  
12000I     O31E912511000025110201905271404 00025110MMQ7901009298/7921007182 0020                        00025103                                                                                                                                                                                                      
12000I     O31E112511000025110201905271404100025110MMQ7901009298/7921007182 0030LDAHV13DH7A                                                 00020000  000000000000120000001020190710SEA.FPKLMMQ7901009298/7921007182                                                                                                  
12000I     O31E912511000025110201905271404 00025110MMQ7901009298/7921007182 0030                        00025103                                                                                                                                                                                                      
