00025103   O31A112511000025110201802260449100025110MMQ172436/7921002960         A  0002510300039140                                 S31790                              NCKE, MS. CHUI HONG, MICHELLE MI20180313        1N10003827420180325SEA.FPKLLIGHTING                                                       O   
00025103   O31A212511000025110201802260449100025110MMQ172436/7921002960         FOB0                              USD                                                        00039140201804100003914000039140SCMM                                        00038274                                                     
00025103   O31E112511000025110201802260449100025110MMQ172436/7921002960     0001EFDHV15D65T1                                                00009600  0000000000000000000010        SEA.FPKL7921002960                                                                                                                
00025103   O31E912511000025110201802260449 00025110MMQ172436/7921002960     0001                        00039140                                                                                                                                                                                                      
00025103   O31E112511000025110201802260449100025110MMQ172436/7921002960     0002EFDHV20D65T1                                                00017280  0000000000000000000010        SEA.FPKL7921002960                                                                                                                
00025103   O31E912511000025110201802260449 00025110MMQ172436/7921002960     0002                        00039140                                                                                                                                                                                                      
00025103   O31E112511000025110201802260449100025110MMQ172436/7921002960     0003EFDHV23D65T1                                                00017280  0000000000000000000010        SEA.FPKL7921002960                                                                                                                
00025103   O31E912511000025110201802260449 00025110MMQ172436/7921002960     0003                        00039140                                                                                                                                                                                                      
00025103   O31E112511000025110201802260449100025110MMQ172436/7921002960     0004EFDHV25D65T1                                                00360000  0000000000000000000010        SEA.FPKL7921002960                                                                                                                
00025103   O31E912511000025110201802260449 00025110MMQ172436/7921002960     0004                        00039140                                                                                                                                                                                                      
00025103   O31E112511000025110201802260449100025110MMQ172436/7921002960     0005EFUHV18D65A3                                                00300000  0000000000000000000010        SEA.FPKL7921002960                                                                                                                
00025103   O31E912511000025110201802260449 00025110MMQ172436/7921002960     0005                        00039140                                                                                                                                                                                                      
00025103   O31E112511000025110201802260449100025110MMQ172436/7921002960     0006EFUHV23D65A3                                                00010000  0000000000000000000010        SEA.FPKL7921002960                                                                                                                
00025103   O31E912511000025110201802260449 00025110MMQ172436/7921002960     0006                        00039140                                                                                                                                                                                                      
00025103   O31A112510700025107201802260820100025107MPH172486/7961004185         A  0002510300029474                                 L31790                              YCKE, MS. CHUI HONG, MICHELLE MI20180303        1N10003827420180309SEA.FMNLLIGHTING                                                       O   
00025103   O31A212510700025107201802260820100025107MPH172486/7961004185         FOB0                              USD                                                        00029474201804100002947400029474                                            00038274                                                     
00025103   O31E112510700025107201802260820100025107MPH172486/7961004185     0001LDAHV3DH6A                                                  00110000  0000000000000000000010        SEA.FMNL7961004185                                                                                                                
00025103   O31E912510700025107201802260820 00025107MPH172486/7961004185     0001                        00029474                                                                                                                                                                                                      
00025103   O31E112510700025107201802260820100025107MPH172486/7961004185     0002LDAHV5DH6A                                                  00110000  0000000000000000000010        SEA.FMNL7961004185                                                                                                                
00025103   O31E912510700025107201802260820 00025107MPH172486/7961004185     0002                        00029474                                                                                                                                                                                                      
00025103   O31E112510700025107201802260820100025107MPH172486/7961004185     0003LDAHV7DH6A                                                  00063000  0000000000000000000010        SEA.FMNL7961004185                                                                                                                
00025103   O31E912510700025107201802260820 00025107MPH172486/7961004185     0003                        00029474                                                                                                                                                                                                      
00025103   O31E112510700025107201802260820100025107MPH172486/7961004185     0004LDAHV9DH6A                                                  00062000  0000000000000000000010        SEA.FMNL7961004185                                                                                                                
00025103   O31E912510700025107201802260820 00025107MPH172486/7961004185     0004                        00029474                                                                                                                                                                                                      
00025103   O31A112510700025107201802260820100025107MPH172494/7961004184         A  0002510300029474                                 L31790                              YCKE, MS. CHUI HONG, MICHELLE MI20180303        1N10003827420180309SEA.FMNLUA                                                             O   
00025103   O31A212510700025107201802260820100025107MPH172494/7961004184         FOB0                              USD                                                        00029474201804100002947400029474                                            00038274                                                     
00025103   O31E112510700025107201802260820100025107MPH172494/7961004184     0001LDAHV12DH5T                                                 00011120  0000000000000000000010        SEA.FMNL7961004184                                                                                                                
00025103   O31E912510700025107201802260820 00025107MPH172494/7961004184     0001                        00029474                                                                                                                                                                                                      
00025103   O31E112510700025107201802260820100025107MPH172494/7961004184     0002LDAHV15DH5T                                                 00011120  0000000000000000000010        SEA.FMNL7961004184                                                                                                                
00025103   O31E912510700025107201802260820 00025107MPH172494/7961004184     0002                        00029474                                                                                                                                                                                                      
00025103   O31A112510700025107201802260820100025107MPH172502/7961004183         A  0002510300029474                                 L31790                              YCKE, MS. CHUI HONG, MICHELLE MI20180303        1N10003827420180406SEA.FMNLLIGHTING                                                       O   
00025103   O31A212510700025107201802260820100025107MPH172502/7961004183         FOB0                              USD                                                        00029474201805080002947400029474                                            00038274                                                     
00025103   O31E112510700025107201802260820100025107MPH172502/7961004183     0001LDAHV3LH6A                                                  00050000  0000000000000000000010        SEA.FMNL7961004183                                                                                                                
00025103   O31E912510700025107201802260820 00025107MPH172502/7961004183     0001                        00029474                                                                                                                                                                                                      
00025103   O31E112510700025107201802260820100025107MPH172502/7961004183     0002LDAHV5LH6A                                                  00050000  0000000000000000000010        SEA.FMNL7961004183                                                                                                                
00025103   O31E912510700025107201802260820 00025107MPH172502/7961004183     0002                        00029474                                                                                                                                                                                                      
00025103   O31E112510700025107201802260820100025107MPH172502/7961004183     0003LDAHV7LH6A                                                  00050000  0000000000000000000010        SEA.FMNL7961004183                                                                                                                
00025103   O31E912510700025107201802260820 00025107MPH172502/7961004183     0003                        00029474                                                                                                                                                                                                      
00025103   O31E112510700025107201802260820100025107MPH172502/7961004183     0004LDAHV9LH6A                                                  00050000  0000000000000000000010        SEA.FMNL7961004183                                                                                                                
00025103   O31E912510700025107201802260820 00025107MPH172502/7961004183     0004                        00029474                                                                                                                                                                                                      
