12000I     O31A112510700025107201807091940100025107MPH7901000111/7961005345       10002510300029474                                 L31790                              YNR01-SG                        20180822         N 0003827420180721SEA.FMNLLIGHTING                                                       O   
12000I     O31A212510700025107201807091940100025107MPH7901000111/7961005345     FOB                               USD                                                        00025103201808220002510300025103                                            00038274                                                     
12000I     O31A812510700025107201807091940100025107MPH7901000111/7961005345     FOB                                                                                                                                                                                                                                   
12000I     O31E112510700025107201807091940100025107MPH7901000111/7961005345 0010LDAHV3DH6A                                                  00070000PC000000000000120000001020180822SEA.FMNLMPH7901000111/7961005345                                                                                                  
12000I     O31E912510700025107201807091940 00025107MPH7901000111/7961005345 0010                        00025103                                                                                                                                                                                                      
12000I     O31E112510700025107201807091940100025107MPH7901000111/7961005345 0020LDAHV5DH6A                                                  00070000PC000000000000120000001020180822SEA.FMNLMPH7901000111/7961005345                                                                                                  
12000I     O31E912510700025107201807091940 00025107MPH7901000111/7961005345 0020                        00025103                                                                                                                                                                                                      
12000I     O31E112510700025107201807091940100025107MPH7901000111/7961005345 0030LDAHV7DH6A                                                  00070000PC000000000000120000001020180822SEA.FMNLMPH7901000111/7961005345                                                                                                  
12000I     O31E912510700025107201807091940 00025107MPH7901000111/7961005345 0030                        00025103                                                                                                                                                                                                      
12000I     O31E112510700025107201807091940100025107MPH7901000111/7961005345 0040LDAHV9DH6A                                                  00070000PC000000000000120000001020180822SEA.FMNLMPH7901000111/7961005345                                                                                                  
12000I     O31E912510700025107201807091940 00025107MPH7901000111/7961005345 0040                        00025103                                                                                                                                                                                                      
12000I     O31A112510700025107201807091940100025107MPH7901000115/7961005349       10002510300029474                                 L31790                              YNR01-SG                        20180907         N 0003827420180806SEA.FMNLLIGHTING                                                       O   
12000I     O31A212510700025107201807091940100025107MPH7901000115/7961005349     FOB                               USD                                                        00025103201809070002510300025103                                            00038274                                                     
12000I     O31A812510700025107201807091940100025107MPH7901000115/7961005349     FOB                                                                                                                                                                                                                                   
12000I     O31E112510700025107201807091940100025107MPH7901000115/7961005349 0010LDAHV3DH6A                                                  00050000PC000000000000120000001020180907SEA.FMNLMPH7901000115/7961005349                                                                                                  
12000I     O31E912510700025107201807091940 00025107MPH7901000115/7961005349 0010                        00025103                                                                                                                                                                                                      
12000I     O31E112510700025107201807091940100025107MPH7901000115/7961005349 0020LDAHV5DH6A                                                  00050000PC000000000000120000001020180907SEA.FMNLMPH7901000115/7961005349                                                                                                  
12000I     O31E912510700025107201807091940 00025107MPH7901000115/7961005349 0020                        00025103                                                                                                                                                                                                      
12000I     O31E112510700025107201807091940100025107MPH7901000115/7961005349 0030LDAHV7DH6A                                                  00050000PC000000000000120000001020180907SEA.FMNLMPH7901000115/7961005349                                                                                                  
12000I     O31E912510700025107201807091940 00025107MPH7901000115/7961005349 0030                        00025103                                                                                                                                                                                                      
12000I     O31E112510700025107201807091940100025107MPH7901000115/7961005349 0040LDAHV9DH6A                                                  00060000PC000000000000120000001020180907SEA.FMNLMPH7901000115/7961005349                                                                                                  
12000I     O31E912510700025107201807091940 00025107MPH7901000115/7961005349 0040                        00025103                                                                                                                                                                                                      
