12000I     O31A112510700025107201904111440100025107MPH7901008125/7961007221       10002510300029474                                 L31790                              YNR01-SG                        20190426         N 00038274        SEA.FMNLLIGHTING                                                       O   
12000I     O31A212510700025107201904111440100025107MPH7901008125/7961007221     FOB0                              USD                                                        00025103201904260002510300025103                                            00038274                                                     
12000I     O31A812510700025107201904111440100025107MPH7901008125/7961007221     FOB                                                                                                                                                                                                                                   
12000I     O31E112510700025107201904111440100025107MPH7901008125/7961007221 0010EFUHV14D65A                                                 00060000  000000000000120000001020190426SEA.FMNLMPH7901008125/7961007221                                                                                                  
12000I     O31E912510700025107201904111440 00025107MPH7901008125/7961007221 0010                        00025103                                                                                                                                                                                                      
