12000I     O31A112510800025108201908072205100025108MST7901011704/7931007079       10002510300039130                                 L31790                              YNR01-SG                        20190908         N 0003827420190821SEA.FLKGLIGHTING                                                       O   
12000I     O31A212510800025108201908072205100025108MST7901011704/7931007079     FOB0                              USD                                                        00025103201909080002510300025103                                            00038274                                                     
12000I     O31A812510800025108201908072205100025108MST7901011704/7931007079     FOB                                                                                                                                                                                                                                   
12000I     O31E112510800025108201908072205100025108MST7901011704/7931007079 0010EFU14E652V1                                                 00047000  000000000000120000001020190908SEA.FLKGMST7901011704/7931007079                                                                                                  
12000I     O31E912510800025108201908072205 00025108MST7901011704/7931007079 0010                        00025103                                                                                                                                                                                                      
12000I     O31A112510800025108201908072205100025108MST7901011705/7931007078       10002510300039130                                 L31790                              YNR01-SG                        20190908         N 0003827420190821SEA.FLKGLIGHTING                                                       O   
12000I     O31A212510800025108201908072205100025108MST7901011705/7931007078     FOB0                              USD                                                        00025103201909080002510300025103                                            00038274                                                     
12000I     O31A812510800025108201908072205100025108MST7901011705/7931007078     FOB                                                                                                                                                                                                                                   
12000I     O31E112510800025108201908072205100025108MST7901011705/7931007078 0010LDAHV20DH5T                                                 00005500  000000000000120000001020190908SEA.FLKGMST7901011705/7931007078                                                                                                  
12000I     O31E912510800025108201908072205 00025108MST7901011705/7931007078 0010                        00025103                                                                                                                                                                                                      
12000I     O31E112510800025108201908072205100025108MST7901011705/7931007078 0020LDAHV23DH5T                                                 00010000  000000000000120000001020190908SEA.FLKGMST7901011705/7931007078                                                                                                  
12000I     O31E912510800025108201908072205 00025108MST7901011705/7931007078 0020                        00025103                                                                                                                                                                                                      
12000I     O31E112510800025108201908072205100025108MST7901011705/7931007078 0030LDTHV11D65GA1                                               00020000  000000000000120000001020190908SEA.FLKGMST7901011705/7931007078                                                                                                  
12000I     O31E912510800025108201908072205 00025108MST7901011705/7931007078 0030                        00025103                                                                                                                                                                                                      
12000I     O31E112510800025108201908072205100025108MST7901011705/7931007078 0040LDTHV11L30GA1                                               00010000  000000000000120000001020190908SEA.FLKGMST7901011705/7931007078                                                                                                  
12000I     O31E912510800025108201908072205 00025108MST7901011705/7931007078 0040                        00025103                                                                                                                                                                                                      
12000I     O31E112510800025108201908072205100025108MST7901011705/7931007078 0050LDTHV7D65GA1                                                00020000  000000000000120000001020190908SEA.FLKGMST7901011705/7931007078                                                                                                  
12000I     O31E912510800025108201908072205 00025108MST7901011705/7931007078 0050                        00025103                                                                                                                                                                                                      
