00025103   O31A112510800025108201710061038100025108MST168358/7931003194         A  0002510300039130                                 S31790                              YCKE, MS. CHUI HONG, MICHELLE MI20171011        1N10003827420171007SEA.FLKGLIGHTING                                                       O   
00025103   O31A212510800025108201710061038100025108MST168358/7931003194         FOB0                              USD                                                        00039130201710250003913000039130                                            00038274                                                     
00025103   O31E112510800025108201710061038100025108MST168358/7931003194     0001EFDHV11D65T                                                 00010000  000000001223940000001020171018SEA.FLKG7931003194                                                                                                                
00025103   O31E912510800025108201710061038 00025108MST168358/7931003194     0001                        00039130                                                                                                                                                                                                      
00025103   O31E112510800025108201710061038100025108MST168358/7931003194     0002EFDHV15L27T1                                                00055000  000000001112740000001020171018SEA.FLKG7931003194                                                                                                                
00025103   O31E912510800025108201710061038 00025108MST168358/7931003194     0002                        00039130                                                                                                                                                                                                      
00025103   O31E112510800025108201710061038100025108MST168358/7931003194     0003EFDHV20D65T1                                                00020000  000000001381940000001020171018SEA.FLKG7931003194                                                                                                                
00025103   O31E912510800025108201710061038 00025108MST168358/7931003194     0003                        00039130                                                                                                                                                                                                      
00025103   O31E112510800025108201710061038100025108MST168358/7931003194     0004EFDHV23D65T1                                                00020000  000000001381940000001020171018SEA.FLKG7931003194                                                                                                                
00025103   O31E912510800025108201710061038 00025108MST168358/7931003194     0004                        00039130                                                                                                                                                                                                      
00025103   O31E112510800025108201710061038100025108MST168358/7931003194     0005EFDHV25D65T                                                 00300000  000000000015220000001020171018SEA.FLKG7931003194                                                                                                                
00025103   O31E912510800025108201710061038 00025108MST168358/7931003194     0005                        00039130                                                                                                                                                                                                      
00025103   O31E112510800025108201710061038100025108MST168358/7931003194     0006EFU8E652V1                                                  00050000  000000001088340000001020171018SEA.FLKG7931003194                                                                                                                
00025103   O31E912510800025108201710061038 00025108MST168358/7931003194     0006                        00039130                                                                                                                                                                                                      
00025103   O31A112510800025108201710061038100025108MST168359/7931003191         A  0002510300039130                                 L31790                              YCKE, MS. CHUI HONG, MICHELLE MI20171011        1N10003827420171025SEA.FLKGLIGHTING                                                       O   
00025103   O31A212510800025108201710061038100025108MST168359/7931003191         FOB0                              USD                                                        00039130201711120003913000039130                                            00038274                                                     
00025103   O31E112510800025108201710061038100025108MST168359/7931003191     0001LDAHV12DH5T                                                 00110000  000000001327140000001020171105SEA.FLKG7931003191                                                                                                                
00025103   O31E912510800025108201710061038 00025108MST168359/7931003191     0001                        00039130                                                                                                                                                                                                      
00025103   O31E112510800025108201710061038100025108MST168359/7931003191     0002LDAHV12LH5T                                                 00035000  000000001327140000001020171105SEA.FLKG7931003191                                                                                                                
00025103   O31E912510800025108201710061038 00025108MST168359/7931003191     0002                        00039130                                                                                                                                                                                                      
00025103   O31E112510800025108201710061038100025108MST168359/7931003191     0003LDAHV15DH5T                                                 00080000  000000001775940000001020171105SEA.FLKG7931003191                                                                                                                
00025103   O31E912510800025108201710061038 00025108MST168359/7931003191     0003                        00039130                                                                                                                                                                                                      
00025103   O31E112510800025108201710061038100025108MST168359/7931003191     0004LDAHV15LH5T                                                 00025000  000000001775940000001020171105SEA.FLKG7931003191                                                                                                                
00025103   O31E912510800025108201710061038 00025108MST168359/7931003191     0004                        00039130                                                                                                                                                                                                      
00025103   O31E112510800025108201710061038100025108MST168359/7931003191     0005LDAHV5LH6A                                                  00065000  000000000630340000001020171105SEA.FLKG7931003191                                                                                                                
00025103   O31E912510800025108201710061038 00025108MST168359/7931003191     0005                        00039130                                                                                                                                                                                                      
00025103   O31E112510800025108201710061038100025108MST168359/7931003191     0006LDAHV7LH6A                                                  00130000  000000000779240000001020171105SEA.FLKG7931003191                                                                                                                
00025103   O31E912510800025108201710061038 00025108MST168359/7931003191     0006                        00039130                                                                                                                                                                                                      
00025103   O31E112510800025108201710061038100025108MST168359/7931003191     0007LDAHV9DH6A                                                  00160000  000000001121440000001020171105SEA.FLKG7931003191                                                                                                                
00025103   O31E912510800025108201710061038 00025108MST168359/7931003191     0007                        00039130                                                                                                                                                                                                      
00025103   O31E112510800025108201710061038100025108MST168359/7931003191     0008LDAHV9LH6A                                                  00070000  000000001121440000001020171105SEA.FLKG7931003191                                                                                                                
00025103   O31E912510800025108201710061038 00025108MST168359/7931003191     0008                        00039130                                                                                                                                                                                                      
00025103   O31A112510800025108201710061038100025108MST168360/7931003193         A  0002510300039130                                 L31790                              YCKE, MS. CHUI HONG, MICHELLE MI20171011        1N10003827420171007SEA.FLKGLIGHTING                                                       O   
00025103   O31A212510800025108201710061038100025108MST168360/7931003193         FOB0                              USD                                                        00039130201710250003913000039130                                            00038274                                                     
00025103   O31E112510800025108201710061038100025108MST168360/7931003193     0001LDAHV3DH6A                                                  00015000  000000000630340000001020171018SEA.FLKG7931003193                                                                                                                
00025103   O31E912510800025108201710061038 00025108MST168360/7931003193     0001                        00039130                                                                                                                                                                                                      
00025103   O31E112510800025108201710061038100025108MST168360/7931003193     0002LDAHV3LH6A                                                  00050000  000000000630340000001020171018SEA.FLKG7931003193                                                                                                                
00025103   O31E912510800025108201710061038 00025108MST168360/7931003193     0002                        00039130                                                                                                                                                                                                      
00025103   O31E112510800025108201710061038100025108MST168360/7931003193     0003LDAHV5DH6A                                                  00150000  000000000630340000001020171018SEA.FLKG7931003193                                                                                                                
00025103   O31E912510800025108201710061038 00025108MST168360/7931003193     0003                        00039130                                                                                                                                                                                                      
00025103   O31E112510800025108201710061038100025108MST168360/7931003193     0004LDAHV9DH6A                                                  00200000  000000001121440000001020171018SEA.FLKG7931003193                                                                                                                
00025103   O31E912510800025108201710061038 00025108MST168360/7931003193     0004                        00039130                                                                                                                                                                                                      
00025103   O31A112510800025108201710061038100025108MST168361/7931003192         A  0002510300039130                                 S31790                              YCKE, MS. CHUI HONG, MICHELLE MI20171011        1N10003827420171025SEA.FLKGLIGHTING                                                       O   
00025103   O31A212510800025108201710061038100025108MST168361/7931003192         FOB0                              USD                                                        00039130201711120003913000039130                                            00038274                                                     
00025103   O31E112510800025108201710061038100025108MST168361/7931003192     0001EFDHV11D65T                                                 00019200  000000001223940000001020171105SEA.FLKG7931003192                                                                                                                
00025103   O31E912510800025108201710061038 00025108MST168361/7931003192     0001                        00039130                                                                                                                                                                                                      
00025103   O31E112510800025108201710061038100025108MST168361/7931003192     0002EFDHV15D65T1                                                00203520  000000001112740000001020171105SEA.FLKG7931003192                                                                                                                
00025103   O31E912510800025108201710061038 00025108MST168361/7931003192     0002                        00039130                                                                                                                                                                                                      
00025103   O31E112510800025108201710061038100025108MST168361/7931003192     0003EFDHV20D65T1                                                00029760  000000001381940000001020171105SEA.FLKG7931003192                                                                                                                
00025103   O31E912510800025108201710061038 00025108MST168361/7931003192     0003                        00039130                                                                                                                                                                                                      
00025103   O31E112510800025108201710061038100025108MST168361/7931003192     0004EFDHV23D65T1                                                00009600  000000001381940000001020171105SEA.FLKG7931003192                                                                                                                
00025103   O31E912510800025108201710061038 00025108MST168361/7931003192     0004                        00039130                                                                                                                                                                                                      
00025103   O31E112510800025108201710061038100025108MST168361/7931003192     0005EFDHV25D65T                                                 01799040  000000000015220000001020171105SEA.FLKG7931003192                                                                                                                
00025103   O31E912510800025108201710061038 00025108MST168361/7931003192     0005                        00039130                                                                                                                                                                                                      
00025103   O31E112510800025108201710061038100025108MST168361/7931003192     0006EFDHV25L27T                                                 00019200  000000000015220000001020171105SEA.FLKG7931003192                                                                                                                
00025103   O31E912510800025108201710061038 00025108MST168361/7931003192     0006                        00039130                                                                                                                                                                                                      
00025103   O31E112510800025108201710061038100025108MST168361/7931003192     0007EFDHV32D65A                                                 00012960  000000002722140000001020171105SEA.FLKG7931003192                                                                                                                
00025103   O31E912510800025108201710061038 00025108MST168361/7931003192     0007                        00039130                                                                                                                                                                                                      
00025103   O31E112510800025108201710061038100025108MST168361/7931003192     0008EFDHV42D65A                                                 00060480  000000003013840000001020171105SEA.FLKG7931003192                                                                                                                
00025103   O31E912510800025108201710061038 00025108MST168361/7931003192     0008                        00039130                                                                                                                                                                                                      
00025103   O31E112510800025108201710061038100025108MST168361/7931003192     0009EFU11E652V                                                  00040000  000000001223440000001020171105SEA.FLKG7931003192                                                                                                                
00025103   O31E912510800025108201710061038 00025108MST168361/7931003192     0009                        00039130                                                                                                                                                                                                      
00025103   O31E112510800025108201710061038100025108MST168361/7931003192     0010EFU14E272V1                                                 00090000  000000001189640000001020171105SEA.FLKG7931003192                                                                                                                
00025103   O31E912510800025108201710061038 00025108MST168361/7931003192     0010                        00039130                                                                                                                                                                                                      
00025103   O31E112510800025108201710061038100025108MST168361/7931003192     0011EFU14E652V1                                                 00445000  000000001189640000001020171105SEA.FLKG7931003192                                                                                                                
00025103   O31E912510800025108201710061038 00025108MST168361/7931003192     0011                        00039130                                                                                                                                                                                                      
00025103   O31E112510800025108201710061038100025108MST168361/7931003192     0012EFU8E652V1                                                  00110000  000000001088340000001020171105SEA.FLKG7931003192                                                                                                                
00025103   O31E912510800025108201710061038 00025108MST168361/7931003192     0012                        00039130                                                                                                                                                                                                      
00025103   O31E112510800025108201710061038100025108MST168361/7931003192     0013EFUHV23D65A                                                 00050000  000000001411440000001020171105SEA.FLKG7931003192                                                                                                                
00025103   O31E912510800025108201710061038 00025108MST168361/7931003192     0013                        00039130                                                                                                                                                                                                      
