00025103   O31A112510700025107201606270234100025107MPH153954/SS100172           A  000251030002947400029474                         L31790PT Panasonic Gobel Eco SolutioNCKE, MS. CHUI HONG, MICHELLE MI20160712        1N10003827420160709SEA.FMNLLIGHTING                                                       O   
00025103   O31A212510700025107201606270234100025107MPH153954/SS100172           FOB0                              USD                                                                20160810                                                            00038274                                                     
00025103   O31E112510700025107201606270234100025107MPH153954/SS100172       0001EFU11E652V          EFU11E652V                    00038274  00050000  0000000012042400000010                **********                                                                                                                
00025103   O31E112510700025107201606270234100025107MPH153954/SS100172       0002EFUHV11D65A         EFUHV11D65A                   00038274  00120000  0000000009574400000010                **********                                                                                                                
00025103   O31E112510700025107201606270234100025107MPH153954/SS100172       0003EFUHV14D65A         EFUHV14D65A                   00038274  00120000  0000000010363400000010                **********                                                                                                                
00025103   O31E112510700025107201606270234100025107MPH153954/SS100172       0004EFUHV8D65A          EFUHV8D65A                    00038274  00120000  0000000009574400000010                **********                                                                                                                
00025103   O31E112510700025107201606270234100025107MPH153954/SS100172       0005EFU14E652V          EFU14E652V                    00038274  00050000  0000000012832400000010                **********                                                                                                                
00025103   O31E112510700025107201606270234100025107MPH153954/SS100172       0006EFUHV18D65A3        EFUHV18D65A3                  00038274  00050000  0000000014213400000010                **********                                                                                                                
