00025103   O31A112510800025108201601150251100025108MST144806/LIGH-138828        A  0002510300039130                                 L31790                              YCKE, MS. CHUI HONG, MICHELLE MI20160120        1N100038274        SEA.FLKGLIGHTING                                                       O   
00025103   O31A212510800025108201601150251100025108MST144806/LIGH-138828        FOB0                              USD                                                                20160122                                                            00038274                                                     
00025103   O31E112510800025108201601150251100025108MST144806/LIGH-138828    0001EFDHV15D65T         EFDHV15D65T                             00000960  0000000001235300000010                LIGH-138828                                                                                                               
00025103   O31E112510800025108201601150251100025108MST144806/LIGH-138828    0002EFDHV23D65T         EFDHV23D65T                             00000960  0000000015338400000010                LIGH-138828                                                                                                               
00025103   O31E112510800025108201601150251100025108MST144806/LIGH-138828    0003EFDHV32D65A         EFDHV32D65A                             00000240  0000000002747300000010                LIGH-138828                                                                                                               
