12000I     O31A112510800025108201812032206100025108MST7901004652/7931005697       10002510300039130                                 L31790                              YNR01-SG                        20181222         N 0003827420181204SEA.FLKGLIGHTING                                                       O   
12000I     O31A212510800025108201812032206100025108MST7901004652/7931005697     FOB0                              USD                                                        00025103201812220002510300025103                                            00038274                                                     
12000I     O31A812510800025108201812032206100025108MST7901004652/7931005697     FOB                                                                                                                                                                                                                                   
12000I     O31E112510800025108201812032206100025108MST7901004652/7931005697 0010LDS300D2N                                                   00002000  000000000177720000001020181222SEA.FLKGMST7901004652/7931005697                                                                                                  
12000I     O31E912510800025108201812032206 00025108MST7901004652/7931005697 0010                        00025103                                                                                                                                                                                                      
12000I     O31A112510800025108201812032206100025108MST7901004653/7931005699       10002510300039130                                 L31790                              YNR01-SG                        20190110         N 0003827420181223SEA.FLKGLIGHTING                                                       O   
12000I     O31A212510800025108201812032206100025108MST7901004653/7931005699     FOB0                              USD                                                        00025103201901100002510300025103                                            00038274                                                     
12000I     O31A812510800025108201812032206100025108MST7901004653/7931005699     FOB                                                                                                                                                                                                                                   
12000I     O31E112510800025108201812032206100025108MST7901004653/7931005699 0010EFUHV18D65A                                                 00001000  000000000000120000001020190110SEA.FLKGMST7901004653/7931005699                                                                                                  
12000I     O31E912510800025108201812032206 00025108MST7901004653/7931005699 0010                        00025103                                                                                                                                                                                                      
12000I     O31A112510800025108201812032206100025108MST7901004654/7931005698       10002510300039130                                 L31790                              YNR01-SG                        20190110         N 0003827420181223SEA.FLKGLIGHTING                                                       O   
12000I     O31A212510800025108201812032206100025108MST7901004654/7931005698     FOB0                              USD                                                        00025103201901100002510300025103                                            00038274                                                     
12000I     O31A812510800025108201812032206100025108MST7901004654/7931005698     FOB                                                                                                                                                                                                                                   
12000I     O31E112510800025108201812032206100025108MST7901004654/7931005698 0010LDAHV23DH5T                                                 00036000  000000000031620000001020190110SEA.FLKGMST7901004654/7931005698                                                                                                  
12000I     O31E912510800025108201812032206 00025108MST7901004654/7931005698 0010                        00025103                                                                                                                                                                                                      
12000I     O31E112510800025108201812032206100025108MST7901004654/7931005698 0020LDMHV3L30MG5T                                               00019800  000000000010320000001020190110SEA.FLKGMST7901004654/7931005698                                                                                                  
12000I     O31E912510800025108201812032206 00025108MST7901004654/7931005698 0020                        00025103                                                                                                                                                                                                      
12000I     O31E112510800025108201812032206100025108MST7901004654/7931005698 0030LDMHV4L30MG5T                                               00017400  000000000012220000001020190110SEA.FLKGMST7901004654/7931005698                                                                                                  
12000I     O31E912510800025108201812032206 00025108MST7901004654/7931005698 0030                        00025103                                                                                                                                                                                                      
