00025103   O31A112510800025108201608020333100025108MST155313/7931000383         A  0002510300039130                                 L31790                              YCKE, MS. CHUI HONG, MICHELLE MI20160807        1N10003827420160814SEA.FLKGLIGHTING                                                       O   
00025103   O31A212510800025108201608020333100025108MST155313/7931000383         FOB0                              USD                                                        00039130201609010003913000039130                                            00038274                                                     
00025103   O31E112510800025108201608020333100025108MST155313/7931000383     0001LDAHV3DH6A                                                  00130000  0000000007882400000010        SEA.FLKG7931000383                                                                                                                
00025103   O31E912510800025108201608020333 00025108MST155313/7931000383     0001                        00039130                                                                                                                                                                                                      
00025103   O31E112510800025108201608020333100025108MST155313/7931000383     0002LDAHV3LH6A                                                  00060300  0000000007882400000010        SEA.FLKG7931000383                                                                                                                
00025103   O31E912510800025108201608020333 00025108MST155313/7931000383     0002                        00039130                                                                                                                                                                                                      
00025103   O31E112510800025108201608020333100025108MST155313/7931000383     0003LDAHV5DH6A                                                  00450000  0000000009474400000010        SEA.FLKG7931000383                                                                                                                
00025103   O31E912510800025108201608020333 00025108MST155313/7931000383     0003                        00039130                                                                                                                                                                                                      
00025103   O31E112510800025108201608020333100025108MST155313/7931000383     0004LDAHV5LH6A                                                  00094000  0000000009474400000010        SEA.FLKG7931000383                                                                                                                
00025103   O31E912510800025108201608020333 00025108MST155313/7931000383     0004                        00039130                                                                                                                                                                                                      
00025103   O31E112510800025108201608020333100025108MST155313/7931000383     0005LDAHV7DH6A                                                  00324000  0000000012113400000010        SEA.FLKG7931000383                                                                                                                
00025103   O31E912510800025108201608020333 00025108MST155313/7931000383     0005                        00039130                                                                                                                                                                                                      
00025103   O31E112510800025108201608020333100025108MST155313/7931000383     0006LDAHV7LH6A                                                  00098000  0000000012113400000010        SEA.FLKG7931000383                                                                                                                
00025103   O31E912510800025108201608020333 00025108MST155313/7931000383     0006                        00039130                                                                                                                                                                                                      
00025103   O31E112510800025108201608020333100025108MST155313/7931000383     0007LDAHV9DH6A                                                  00380000  0000000015844400000010        SEA.FLKG7931000383                                                                                                                
00025103   O31E912510800025108201608020333 00025108MST155313/7931000383     0007                        00039130                                                                                                                                                                                                      
00025103   O31E112510800025108201608020333100025108MST155313/7931000383     0008LDAHV9LH6A                                                  00117000  0000000015844400000010        SEA.FLKG7931000383                                                                                                                
00025103   O31E912510800025108201608020333 00025108MST155313/7931000383     0008                        00039130                                                                                                                                                                                                      
00025103   O31A112510800025108201608020333100025108MST155314/7931000382         A  0002510300039130                                 L31790                              YCKE, MS. CHUI HONG, MICHELLE MI20160807        1N100038274        SEA.FLKGLIGHTING                                                       O   
00025103   O31A212510800025108201608020333100025108MST155314/7931000382         FOB0                              USD                                                        00039130201608160003913000039130                                            00038274                                                     
00025103   O31E112510800025108201608020333100025108MST155314/7931000382     0001LDAHV3DH6A                                                  00050000  0000000007882400000010        SEA.FLKG7931000382                                                                                                                
00025103   O31E912510800025108201608020333 00025108MST155314/7931000382     0001                        00039130                                                                                                                                                                                                      
00025103   O31E112510800025108201608020333100025108MST155314/7931000382     0002LDAHV3LH6A                                                  00010000  0000000007882400000010        SEA.FLKG7931000382                                                                                                                
00025103   O31E912510800025108201608020333 00025108MST155314/7931000382     0002                        00039130                                                                                                                                                                                                      
00025103   O31E112510800025108201608020333100025108MST155314/7931000382     0003LDAHV5DH6A                                                  00135000  0000000009474400000010        SEA.FLKG7931000382                                                                                                                
00025103   O31E912510800025108201608020333 00025108MST155314/7931000382     0003                        00039130                                                                                                                                                                                                      
00025103   O31E112510800025108201608020333100025108MST155314/7931000382     0004LDAHV5LH6A                                                  00030000  0000000009474400000010        SEA.FLKG7931000382                                                                                                                
00025103   O31E912510800025108201608020333 00025108MST155314/7931000382     0004                        00039130                                                                                                                                                                                                      
00025103   O31E112510800025108201608020333100025108MST155314/7931000382     0005LDAHV7DH6A                                                  00120000  0000000012113400000010        SEA.FLKG7931000382                                                                                                                
00025103   O31E912510800025108201608020333 00025108MST155314/7931000382     0005                        00039130                                                                                                                                                                                                      
00025103   O31E112510800025108201608020333100025108MST155314/7931000382     0006LDAHV7LH6A                                                  00015000  0000000012113400000010        SEA.FLKG7931000382                                                                                                                
00025103   O31E912510800025108201608020333 00025108MST155314/7931000382     0006                        00039130                                                                                                                                                                                                      
00025103   O31E112510800025108201608020333100025108MST155314/7931000382     0007LDAHV9DH6A                                                  00150000  0000000015844400000010        SEA.FLKG7931000382                                                                                                                
00025103   O31E912510800025108201608020333 00025108MST155314/7931000382     0007                        00039130                                                                                                                                                                                                      
00025103   O31E112510800025108201608020333100025108MST155314/7931000382     0008LDAHV9LH6A                                                  00030000  0000000015844400000010        SEA.FLKG7931000382                                                                                                                
00025103   O31E912510800025108201608020333 00025108MST155314/7931000382     0008                        00039130                                                                                                                                                                                                      
