00025103   O31A112510800025108201701310339100025108MST160368/7931001590         A  0002510300039130                                 S31790                              NCKE, MS. CHUI HONG, MICHELLE MI20170215        1N10003827420170224SEA.FLKGLIGHTING                                                       O   
00025103   O31A212510800025108201701310339100025108MST160368/7931001590         FOB0                              USD                                                        00039130201703100003913000039130SCMM                                        00038274                                                     
00025103   O31E112510800025108201701310339100025108MST160368/7931001590     0001EFDHV20D65T1                                                00048000  0000000013819400000010        SEA.FLKG7931001590                                                                                                                
00025103   O31E912510800025108201701310339 00025108MST160368/7931001590     0001                        00039130                                                                                                                                                                                                      
00025103   O31E112510800025108201701310339100025108MST160368/7931001590     0002EFDHV23D65T1                                                00015000  0000000013819400000010        SEA.FLKG7931001590                                                                                                                
00025103   O31E912510800025108201701310339 00025108MST160368/7931001590     0002                        00039130                                                                                                                                                                                                      
00025103   O31E112510800025108201701310339100025108MST160368/7931001590     0003EFDHV25D65T                                                 01545600  0000000000152200000010        SEA.FLKG7931001590                                                                                                                
00025103   O31E912510800025108201701310339 00025108MST160368/7931001590     0003                        00039130                                                                                                                                                                                                      
00025103   O31E112510800025108201701310339100025108MST160368/7931001590     0004EFDHV25L27T                                                 00033600  0000000000152200000010        SEA.FLKG7931001590                                                                                                                
00025103   O31E912510800025108201701310339 00025108MST160368/7931001590     0004                        00039130                                                                                                                                                                                                      
00025103   O31E112510800025108201701310339100025108MST160368/7931001590     0005EFDHV42D65A                                                 00037440  0000000030138400000010        SEA.FLKG7931001590                                                                                                                
00025103   O31E912510800025108201701310339 00025108MST160368/7931001590     0005                        00039130                                                                                                                                                                                                      
00025103   O31E112510800025108201701310339100025108MST160368/7931001590     0006EFUHV18D65A                                                 00140000  0000000013423400000010        SEA.FLKG7931001590                                                                                                                
00025103   O31E912510800025108201701310339 00025108MST160368/7931001590     0006                        00039130                                                                                                                                                                                                      
00025103   O31E112510800025108201701310339100025108MST160368/7931001590     0007LDAHV10LG4A                                                 00010800  0000000023537400000010        SEA.FLKG7931001590                                                                                                                
00025103   O31E912510800025108201701310339 00025108MST160368/7931001590     0007                        00039130                                                                                                                                                                                                      
00025103   O31E112510800025108201701310339100025108MST160368/7931001590     0008LDAHV7LG4A                                                  00028000  0000000013892400000010        SEA.FLKG7931001590                                                                                                                
00025103   O31E912510800025108201701310339 00025108MST160368/7931001590     0008                        00039130                                                                                                                                                                                                      
00025103   O31E112510800025108201701310339100025108MST160368/7931001590     0009LDR400N                                                     00009900  0000000003535200000010        SEA.FLKG7931001590                                                                                                                
00025103   O31E912510800025108201701310339 00025108MST160368/7931001590     0009                        00039130                                                                                                                                                                                                      
00025103   O31A112510800025108201701310339100025108MST160369/7931001592         A  0002510300039130                                 S31790                              NCKE, MS. CHUI HONG, MICHELLE MI20170215        1N10003827420170313SEA.FLKGLIGHTING                                                       O   
00025103   O31A212510800025108201701310339100025108MST160369/7931001592         FOB0                              USD                                                        00039130201703310003913000039130SCMM                                        00038274                                                     
00025103   O31E112510800025108201701310339100025108MST160369/7931001592     0001EFDHV25D65T                                                 00448320  0000000000152200000010        SEA.FLKG7931001592                                                                                                                
00025103   O31E912510800025108201701310339 00025108MST160369/7931001592     0001                        00039130                                                                                                                                                                                                      
00025103   O31A112510800025108201701310339100025108MST160373/7931001591         A  0002510300039130                                 L31790                              NCKE, MS. CHUI HONG, MICHELLE MI20170215        1N10003827420170313SEA.FLKGLIGHTING                                                       O   
00025103   O31A212510800025108201701310339100025108MST160373/7931001591         FOB0                              USD                                                        00039130201703310003913000039130SCMM                                        00038274                                                     
00025103   O31E112510800025108201701310339100025108MST160373/7931001591     0001LDAHV7DH6A                                                  00368000  0000000001006300000010        SEA.FLKG7931001591                                                                                                                
00025103   O31E912510800025108201701310339 00025108MST160373/7931001591     0001                        00039130                                                                                                                                                                                                      
00025103   O31A112510800025108201701310339100025108MST160374/7931001589         A  0002510300039130                                 L31790                              NCKE, MS. CHUI HONG, MICHELLE MI20170215        1N10003827420170224SEA.FLKGLIGHTING                                                       O   
00025103   O31A212510800025108201701310339100025108MST160374/7931001589         FOB0                              USD                                                        00039130201703100003913000039130SCMM                                        00038274                                                     
00025103   O31E112510800025108201701310339100025108MST160374/7931001589     0001LDAHV5DH6A                                                  00198000  0000000008539400000010        SEA.FLKG7931001589                                                                                                                
00025103   O31E912510800025108201701310339 00025108MST160374/7931001589     0001                        00039130                                                                                                                                                                                                      
00025103   O31E112510800025108201701310339100025108MST160374/7931001589     0002LDAHV7DH6A                                                  00517000  0000000001006300000010        SEA.FLKG7931001589                                                                                                                
00025103   O31E912510800025108201701310339 00025108MST160374/7931001589     0002                        00039130                                                                                                                                                                                                      
00025103   O31E112510800025108201701310339100025108MST160374/7931001589     0003LDAHV7LH6A                                                  00025200  0000000001006300000010        SEA.FLKG7931001589                                                                                                                
00025103   O31E912510800025108201701310339 00025108MST160374/7931001589     0003                        00039130                                                                                                                                                                                                      
00025103   O31E112510800025108201701310339100025108MST160374/7931001589     0004LDAHV9DH6A                                                  00279000  0000000001475300000010        SEA.FLKG7931001589                                                                                                                
00025103   O31E912510800025108201701310339 00025108MST160374/7931001589     0004                        00039130                                                                                                                                                                                                      
00025103   O31E112510800025108201701310339100025108MST160374/7931001589     0005LDS300D2N                                                   00002700  0000000223169400000010        SEA.FLKG7931001589                                                                                                                
00025103   O31E912510800025108201701310339 00025108MST160374/7931001589     0005                        00039130                                                                                                                                                                                                      
