12000I     O31A112510800025108201810082205100025108MST7901002905/7931005397       10002510300039130                                 L31790                              YNR01-SG                        20181109         N 0003827420181022SEA.FLKGLIGHTING                                                       O   
12000I     O31A212510800025108201810082205100025108MST7901002905/7931005397     FOB0                              USD                                                        00025103201811090002510300025103                                            00038274                                                     
12000I     O31A812510800025108201810082205100025108MST7901002905/7931005397     FOB                                                                                                                                                                                                                                   
12000I     O31E112510800025108201810082205100025108MST7901002905/7931005397 0010LDAHV20DH5T                                                 00050000  000000000002710000001020181109SEA.FLKGMST7901002905/7931005397                                                                                                  
12000I     O31E912510800025108201810082205 00025108MST7901002905/7931005397 0010                        00025103                                                                                                                                                                                                      
12000I     O31E112510800025108201810082205100025108MST7901002905/7931005397 0020LDAHV23DH5T                                                 00050000  000000000003110000001020181109SEA.FLKGMST7901002905/7931005397                                                                                                  
12000I     O31E912510800025108201810082205 00025108MST7901002905/7931005397 0020                        00025103                                                                                                                                                                                                      
12000I     O31E112510800025108201810082205100025108MST7901002905/7931005397 0030LDAHV30DH5T                                                 00050000  000000000004210000001020181109SEA.FLKGMST7901002905/7931005397                                                                                                  
12000I     O31E912510800025108201810082205 00025108MST7901002905/7931005397 0030                        00025103                                                                                                                                                                                                      
12000I     O31E112510800025108201810082205100025108MST7901002905/7931005397 0040LDMHV3L30MG5T                                               00045000  000000000000120000001020181109SEA.FLKGMST7901002905/7931005397                                                                                                  
12000I     O31E912510800025108201810082205 00025108MST7901002905/7931005397 0040                        00025103                                                                                                                                                                                                      
12000I     O31E112510800025108201810082205100025108MST7901002905/7931005397 0050LDMHV4L30MG5T                                               00045000  000000000000120000001020181109SEA.FLKGMST7901002905/7931005397                                                                                                  
12000I     O31E912510800025108201810082205 00025108MST7901002905/7931005397 0050                        00025103                                                                                                                                                                                                      
