00025103   O31A112510800025108201608230634100025108MST155545/7931000486         A  0002510300039130                                 S31790                              YCKE, MS. CHUI HONG, MICHELLE MI20160828        1N100038274        SEA.FLKGLIGHTING                                                       O   
00025103   O31A212510800025108201608230634100025108MST155545/7931000486         FOB0                              USD                                                        00039130201609070003913000039130                                            00038274                                                     
00025103   O31E112510800025108201608230634100025108MST155545/7931000486     0001EFDHV15D65T1                                                00048000  0000000011127400000010        SEA.FLKG7931000486                                                                                                                
00025103   O31E912510800025108201608230634 00025108MST155545/7931000486     0001                        00039130                                                                                                                                                                                                      
00025103   O31E112510800025108201608230634100025108MST155545/7931000486     0002EFDHV15L27T1                                                00000960  0000000011127400000010        SEA.FLKG7931000486                                                                                                                
00025103   O31E912510800025108201608230634 00025108MST155545/7931000486     0002                        00039130                                                                                                                                                                                                      
00025103   O31E112510800025108201608230634100025108MST155545/7931000486     0003EFDHV20D65T1                                                00029760  0000000013819400000010        SEA.FLKG7931000486                                                                                                                
00025103   O31E912510800025108201608230634 00025108MST155545/7931000486     0003                        00039130                                                                                                                                                                                                      
00025103   O31E112510800025108201608230634100025108MST155545/7931000486     0004EFDHV23D65T1                                                00009600  0000000013819400000010        SEA.FLKG7931000486                                                                                                                
00025103   O31E912510800025108201608230634 00025108MST155545/7931000486     0004                        00039130                                                                                                                                                                                                      
00025103   O31E112510800025108201608230634100025108MST155545/7931000486     0005EFU14E272V1                                                 00008000  0000000011896400000010        SEA.FLKG7931000486                                                                                                                
00025103   O31E912510800025108201608230634 00025108MST155545/7931000486     0005                        00039130                                                                                                                                                                                                      
00025103   O31E112510800025108201608230634100025108MST155545/7931000486     0006EFU14E652V1                                                 00020000  0000000011896400000010        SEA.FLKG7931000486                                                                                                                
00025103   O31E912510800025108201608230634 00025108MST155545/7931000486     0006                        00039130                                                                                                                                                                                                      
00025103   O31A112510800025108201608230634100025108MST155546/7931000487         A  0002510300039130                                 S31790                              YCKE, MS. CHUI HONG, MICHELLE MI20160828        1N100038274        SEA.FLKGLIGHTING                                                       O   
00025103   O31A212510800025108201608230634100025108MST155546/7931000487         FOB0                              USD                                                        00039130201609070003913000039130                                            00038274                                                     
00025103   O31E112510800025108201608230634100025108MST155546/7931000487     0001LDAHV10LG4A                                                 00020000  0000000023537400000010        SEA.FLKG7931000487                                                                                                                
00025103   O31E912510800025108201608230634 00025108MST155546/7931000487     0001                        00039130                                                                                                                                                                                                      
