00025103   O31A112510700025107201705191146100025107MPH163569/7961001804         A  0002510300029474                                 L31790                              YCKE, MS. CHUI HONG, MICHELLE MI20170524        1N100038274        SEA.FMNLLIGHTING                                                       O   
00025103   O31A212510700025107201705191146100025107MPH163569/7961001804         FOB0                              USD                                                        00029474201706090002947400029474                                            00038274                                                     
00025103   O31E112510700025107201705191146100025107MPH163569/7961001804     0001LDAHV3DH6A                                                  00100000  0000000007994400000010        SEA.FMNL7961001804                                                                                                                
00025103   O31E912510700025107201705191146 00025107MPH163569/7961001804     0001                        00029474                                                                                                                                                                                                      
00025103   O31E112510700025107201705191146100025107MPH163569/7961001804     0002LDAHV3LH6A                                                  00010000  0000000007994400000010        SEA.FMNL7961001804                                                                                                                
00025103   O31E912510700025107201705191146 00025107MPH163569/7961001804     0002                        00029474                                                                                                                                                                                                      
00025103   O31E112510700025107201705191146100025107MPH163569/7961001804     0003LDAHV5DH6A                                                  00100000  0000000001035300000010        SEA.FMNL7961001804                                                                                                                
00025103   O31E912510700025107201705191146 00025107MPH163569/7961001804     0003                        00029474                                                                                                                                                                                                      
00025103   O31E112510700025107201705191146100025107MPH163569/7961001804     0004LDAHV5LH6A                                                  00010000  0000000001035300000010        SEA.FMNL7961001804                                                                                                                
00025103   O31E912510700025107201705191146 00025107MPH163569/7961001804     0004                        00029474                                                                                                                                                                                                      
00025103   O31E112510700025107201705191146100025107MPH163569/7961001804     0005LDAHV7LH6A                                                  00010000  0000000000012100000010        SEA.FMNL7961001804                                                                                                                
00025103   O31E912510700025107201705191146 00025107MPH163569/7961001804     0005                        00029474                                                                                                                                                                                                      
00025103   O31E112510700025107201705191146100025107MPH163569/7961001804     0006LDAHV9LH6A                                                  00010000  0000000000132200000010        SEA.FMNL7961001804                                                                                                                
00025103   O31E912510700025107201705191146 00025107MPH163569/7961001804     0006                        00029474                                                                                                                                                                                                      
