12000I     O31A112510800025108201909111305100025108MST7901012630/7931007289       10002510300039130                                 L31790                              YNR01-SG                        20191010         N 0003827420190922SEA.FLKGLIGHTING                                                       O   
12000I     O31A212510800025108201909111305100025108MST7901012630/7931007289     FOB0                              USD                                                        00025103201910100002510300025103                                            00038274                                                     
12000I     O31A812510800025108201909111305100025108MST7901012630/7931007289     FOB                                                                                                                                                                                                                                   
12000I     O31E112510800025108201909111305100025108MST7901012630/7931007289 0010LDAHV23DH5T                                                 00038000  000000000000120000001020191010SEA.FLKGMST7901012630/7931007289                                                                                                  
12000I     O31E912510800025108201909111305 00025108MST7901012630/7931007289 0010                        00025103                                                                                                                                                                                                      
12000I     O31A112510800025108201909111305100025108MST7901012631/7931007290       10002510300039130                                 L31790                              YNR01-SG                        20191010         N 0003827420190922SEA.FLKGLIGHTING                                                       O   
12000I     O31A212510800025108201909111305100025108MST7901012631/7931007290     FOB0                              USD                                                        00025103201910100002510300025103                                            00038274                                                     
12000I     O31A812510800025108201909111305100025108MST7901012631/7931007290     FOB                                                                                                                                                                                                                                   
12000I     O31E112510800025108201909111305100025108MST7901012631/7931007290 0010EFDHV20L27T1                                                00002400  000000000000120000001020191010SEA.FLKGMST7901012631/7931007290                                                                                                  
12000I     O31E912510800025108201909111305 00025108MST7901012631/7931007290 0010                        00025103                                                                                                                                                                                                      
