00025103   O31A112510800025108201805111040100025108MST174740/7931004520         A  0002510300039130                                 L31790                              YCKE, MS. CHUI HONG, MICHELLE MI20180516        1N10003827420180523SEA.FLKGUA                                                             O   
00025103   O31A212510800025108201805111040100025108MST174740/7931004520         FOB0                              USD                                                        00039130201806100003913000039130                                            00038274                                                     
00025103   O31E112510800025108201805111040100025108MST174740/7931004520     0001LDAHV12DH5T                                                 00080000  000000001327140000001020180603SEA.FLKG7931004520                                                                                                                
00025103   O31E912510800025108201805111040 00025108MST174740/7931004520     0001                        00039130                                                                                                                                                                                                      
00025103   O31E112510800025108201805111040100025108MST174740/7931004520     0002LDAHV12LH5T                                                 00025000  000000001327140000001020180603SEA.FLKG7931004520                                                                                                                
00025103   O31E912510800025108201805111040 00025108MST174740/7931004520     0002                        00039130                                                                                                                                                                                                      
00025103   O31E112510800025108201805111040100025108MST174740/7931004520     0003LDAHV15DH5T                                                 00050000  000000001775940000001020180603SEA.FLKG7931004520                                                                                                                
00025103   O31E912510800025108201805111040 00025108MST174740/7931004520     0003                        00039130                                                                                                                                                                                                      
00025103   O31E112510800025108201805111040100025108MST174740/7931004520     0004LDAHV15LH5T                                                 00040000  000000001775940000001020180603SEA.FLKG7931004520                                                                                                                
00025103   O31E912510800025108201805111040 00025108MST174740/7931004520     0004                        00039130                                                                                                                                                                                                      
00025103   O31A112510800025108201805111040100025108MST174741/7931004519         A  0002510300039130                                 L31790                              YCKE, MS. CHUI HONG, MICHELLE MI20180516        1N10003827420180519SEA.FLKGUA                                                             O   
00025103   O31A212510800025108201805111040100025108MST174741/7931004519         FOB0                              USD                                                        00039130201806060003913000039130                                            00038274                                                     
00025103   O31E112510800025108201805111040100025108MST174741/7931004519     0001LDAHV12DH5T                                                 00060000  000000001327140000001020180530SEA.FLKG7931004519                                                                                                                
00025103   O31E912510800025108201805111040 00025108MST174741/7931004519     0001                        00039130                                                                                                                                                                                                      
00025103   O31E112510800025108201805111040100025108MST174741/7931004519     0002LDAHV15DH5T                                                 00050000  000000001775940000001020180530SEA.FLKG7931004519                                                                                                                
00025103   O31E912510800025108201805111040 00025108MST174741/7931004519     0002                        00039130                                                                                                                                                                                                      
