00025103   O31A112511000025110201703270553100025110MMQ161699/ES1703006          A  0002510300039140                                 S31790                               CKE, MS. CHUI HONG, MICHELLE MI20170401        1N10003827420170423SEA.FPKLLIGHTING                                                       O   
00025103   O31A212511000025110201703270553100025110MMQ161699/ES1703006          FOB0                              USD                                                                20170510                SCMM                                        00038274                                                     
00025103   O31E112511000025110201703270553100025110MMQ161699/ES1703006      0001EFDHV23D65A                                                 00028800  0000000000154200000010                                                                                                                                          
00025103   O31E112511000025110201703270553100025110MMQ161699/ES1703006      0002EFDHV25L27A                                                 00048000  0000000000154200000010                                                                                                                                          
00025103   O31E112511000025110201703270553100025110MMQ161699/ES1703006      0003EFUHV23D65A3                                                00015000  0000000000143200000010                                                                                                                                          
00025103   O31A112510700025107201703281243100025107MPH161827/7961001407         A  0002510300029474                                 L31790                              YCKE, MS. CHUI HONG, MICHELLE MI20170402        1N10003827420170410SEA.FMNLLIGHTING                                                       O   
00025103   O31A212510700025107201703281243100025107MPH161827/7961001407         FOB0                              USD                                                        00029474201705120002947400029474                                            00038274                                                     
00025103   O31E112510700025107201703281243100025107MPH161827/7961001407     0001LDAHV3DH6A                                                  00110000  0000000000000000000010        SEA.FMNL7961001407                                                                                                                
00025103   O31E912510700025107201703281243 00025107MPH161827/7961001407     0001                        00029474                                                                                                                                                                                                      
00025103   O31E112510700025107201703281243100025107MPH161827/7961001407     0002LDAHV5DH6A                                                  00110000  0000000000000000000010        SEA.FMNL7961001407                                                                                                                
00025103   O31E912510700025107201703281243 00025107MPH161827/7961001407     0002                        00029474                                                                                                                                                                                                      
00025103   O31E112510700025107201703281243100025107MPH161827/7961001407     0003LDAHV7DH6A                                                  00110000  0000000000000000000010        SEA.FMNL7961001407                                                                                                                
00025103   O31E912510700025107201703281243 00025107MPH161827/7961001407     0003                        00029474                                                                                                                                                                                                      
00025103   O31E112510700025107201703281243100025107MPH161827/7961001407     0004LDAHV9DH6A                                                  00110000  0000000000000000000010        SEA.FMNL7961001407                                                                                                                
00025103   O31E912510700025107201703281243 00025107MPH161827/7961001407     0004                        00029474                                                                                                                                                                                                      
00025103   O31A112511300025113201703280936100025113MNZ161835/P86783             A  0002510300029671                                 S31790ERASMUSJ                      NCKE, MS. CHUI HONG, MICHELLE MI20170412        1N10003827420170423SEA.FAKLLIGHTING                                                       O   
00025103   O31A212511300025113201703280936100025113MNZ161835/P86783             FOB0                              USD                                                                20170520                SCMM                                        00038274                                                     
00025103   O31E112511300025113201703280936100025113MNZ161835/P86783         0001LDAHV7DG4A1         LDAHV7DG4A1                             00002500  0000000000000000000010                                         ATP Auto Generate                                                                                
00025103   O31E112511300025113201703280936100025113MNZ161835/P86783         0002LDAHV7DG4BA         LDAHV7DG4BA                             00002500  0000000000000000000010                                         ATP Auto Generate                                                                                
00025103   O31E112511300025113201703280936100025113MNZ161835/P86783         0003LDAHV7LG4A1         LDAHV7LG4A1                             00002500  0000000000000000000010                                         ATP Auto Generate                                                                                
00025103   O31E112511300025113201703280936100025113MNZ161835/P86783         0004LDAHV8DG4BA         LDAHV8DG4BA                             00002500  0000000000000000000010                                         ATP Auto Generate                                                                                
00025103   O31E112511300025113201703280936100025113MNZ161835/P86783         0005LDAHV8LG4A1         LDAHV8LG4A1                             00002500  0000000000000000000010                                         ATP Auto Generate                                                                                
