00025103   O31A112511000025110201705050345100025110MMQ163321/7921000292         A  0002510300039140                                 S31790                              YCKE, MS. CHUI HONG, MICHELLE MI20170510        1N100038274        AIR.FPKLLIGHTING                                                       O   
00025103   O31A212511000025110201705050345100025110MMQ163321/7921000292         FOB0                              USD                                                        00039140201705160003914000039140                                            00038274                                                     
00025103   O31E112511000025110201705050345100025110MMQ163321/7921000292     0001EFUHV18D65A3                                                00600000  0000000010408400000010        AIR.FPKL7921000292                                                                                                                
00025103   O31E912511000025110201705050345 00025110MMQ163321/7921000292     0001                        00039140                                                                                                                                                                                                      
00025103   O31E112511000025110201705050345100025110MMQ163321/7921000292     0002EFUHV18L27A3                                                00100000  0000000010408400000010        AIR.FPKL7921000292                                                                                                                
00025103   O31E912511000025110201705050345 00025110MMQ163321/7921000292     0002                        00039140                                                                                                                                                                                                      
