00025103   O31A112510800025108201611081134100025108MST158118/7931001008         A  0002510300039130                                 S31790                              YCKE, MS. CHUI HONG, MICHELLE MI20161113        1N10003827420161113SEA.FLKGLIGHTING                                                       O   
00025103   O31A212510800025108201611081134100025108MST158118/7931001008         FOB0                              USD                                                        00039130201612010003913000039130                                            00038274                                                     
00025103   O31E112510800025108201611081134100025108MST158118/7931001008     0001EFDHV15D65T1                                                00140160  0000000011127400000010        SEA.FLKG7931001008                                                                                                                
00025103   O31E912510800025108201611081134 00025108MST158118/7931001008     0001                        00039130                                                                                                                                                                                                      
00025103   O31E112510800025108201611081134100025108MST158118/7931001008     0002EFDHV15L27T1                                                00079680  0000000011127400000010        SEA.FLKG7931001008                                                                                                                
00025103   O31E912510800025108201611081134 00025108MST158118/7931001008     0002                        00039130                                                                                                                                                                                                      
00025103   O31E112510800025108201611081134100025108MST158118/7931001008     0003EFDHV20D65T1                                                00070080  0000000013819400000010        SEA.FLKG7931001008                                                                                                                
00025103   O31E912510800025108201611081134 00025108MST158118/7931001008     0003                        00039130                                                                                                                                                                                                      
00025103   O31E112510800025108201611081134100025108MST158118/7931001008     0004EFDHV23D65T1                                                00039360  0000000013819400000010        SEA.FLKG7931001008                                                                                                                
00025103   O31E912510800025108201611081134 00025108MST158118/7931001008     0004                        00039130                                                                                                                                                                                                      
00025103   O31E112510800025108201611081134100025108MST158118/7931001008     0005EFDHV25D65T                                                 00699840  0000000000152200000010        SEA.FLKG7931001008                                                                                                                
00025103   O31E912510800025108201611081134 00025108MST158118/7931001008     0005                        00039130                                                                                                                                                                                                      
00025103   O31E112510800025108201611081134100025108MST158118/7931001008     0006EFU14E272V1                                                 00110000  0000000011896400000010        SEA.FLKG7931001008                                                                                                                
00025103   O31E912510800025108201611081134 00025108MST158118/7931001008     0006                        00039130                                                                                                                                                                                                      
00025103   O31E112510800025108201611081134100025108MST158118/7931001008     0007EFU14E652V1                                                 00180000  0000000011896400000010        SEA.FLKG7931001008                                                                                                                
00025103   O31E912510800025108201611081134 00025108MST158118/7931001008     0007                        00039130                                                                                                                                                                                                      
00025103   O31E112510800025108201611081134100025108MST158118/7931001008     0008EFU8E652V1                                                  00100000  0000000010883400000010        SEA.FLKG7931001008                                                                                                                
00025103   O31E912510800025108201611081134 00025108MST158118/7931001008     0008                        00039130                                                                                                                                                                                                      
00025103   O31A112510800025108201611081134100025108MST158119/7931001005         A  0002510300039130                                 S31790                              YCKE, MS. CHUI HONG, MICHELLE MI20161113        1N10003827420161114SEA.FLKGLIGHTING                                                       O   
00025103   O31A212510800025108201611081134100025108MST158119/7931001005         FOB0                              USD                                                        00039130201612020003913000039130                                            00038274                                                     
00025103   O31E112510800025108201611081134100025108MST158119/7931001005     0001LDAHV7DG4A                                                  00270000  0000000013892400000010        SEA.FLKG7931001005                                                                                                                
00025103   O31E912510800025108201611081134 00025108MST158119/7931001005     0001                        00039130                                                                                                                                                                                                      
00025103   O31A112510800025108201611081134100025108MST158120/7931001006         A  0002510300039130                                 S31790                              YCKE, MS. CHUI HONG, MICHELLE MI20161113        1N10003827420161113SEA.FLKGLIGHTING                                                       O   
00025103   O31A212510800025108201611081134100025108MST158120/7931001006         FOB0                              USD                                                        00039130201612010003913000039130                                            00038274                                                     
00025103   O31E112510800025108201611081134100025108MST158120/7931001006     0001LDR400N                                                     00004500  0000000003535200000010        SEA.FLKG7931001006                                                                                                                
00025103   O31E912510800025108201611081134 00025108MST158120/7931001006     0001                        00039130                                                                                                                                                                                                      
00025103   O31A112510800025108201611081134100025108MST158121/7931001004         A  0002510300039130                                 L31790                              YCKE, MS. CHUI HONG, MICHELLE MI20161113        1N10003827420161114SEA.FLKGLIGHTING                                                       O   
00025103   O31A212510800025108201611081134100025108MST158121/7931001004         FOB0                              USD                                                        00039130201612020003913000039130                                            00038274                                                     
00025103   O31E112510800025108201611081134100025108MST158121/7931001004     0001LDAHV3DH6A                                                  00397000  0000000007164400000010        SEA.FLKG7931001004                                                                                                                
00025103   O31E912510800025108201611081134 00025108MST158121/7931001004     0001                        00039130                                                                                                                                                                                                      
00025103   O31E112510800025108201611081134100025108MST158121/7931001004     0002LDAHV3LH6A                                                  00135000  0000000007164400000010        SEA.FLKG7931001004                                                                                                                
00025103   O31E912510800025108201611081134 00025108MST158121/7931001004     0002                        00039130                                                                                                                                                                                                      
00025103   O31E112510800025108201611081134100025108MST158121/7931001004     0003LDAHV5DH6A                                                  00550000  0000000008539400000010        SEA.FLKG7931001004                                                                                                                
00025103   O31E912510800025108201611081134 00025108MST158121/7931001004     0003                        00039130                                                                                                                                                                                                      
00025103   O31E112510800025108201611081134100025108MST158121/7931001004     0004LDAHV5LH6A                                                  00129000  0000000008539400000010        SEA.FLKG7931001004                                                                                                                
00025103   O31E912510800025108201611081134 00025108MST158121/7931001004     0004                        00039130                                                                                                                                                                                                      
00025103   O31E112510800025108201611081134100025108MST158121/7931001004     0005LDAHV7DH6A                                                  00147000  0000000001006300000010        SEA.FLKG7931001004                                                                                                                
00025103   O31E912510800025108201611081134 00025108MST158121/7931001004     0005                        00039130                                                                                                                                                                                                      
00025103   O31E112510800025108201611081134100025108MST158121/7931001004     0006LDAHV9DH6A                                                  00140000  0000000001475300000010        SEA.FLKG7931001004                                                                                                                
00025103   O31E912510800025108201611081134 00025108MST158121/7931001004     0006                        00039130                                                                                                                                                                                                      
00025103   O31A112510800025108201611081134100025108MST158122/7931001007         A  0002510300039130                                 L31790                              YCKE, MS. CHUI HONG, MICHELLE MI20161113        1N10003827420161115SEA.FLKGLIGHTING                                                       O   
00025103   O31A212510800025108201611081134100025108MST158122/7931001007         FOB0                              USD                                                        00039130201612030003913000039130                                            00038274                                                     
00025103   O31E112510800025108201611081134100025108MST158122/7931001007     0001LDAHV7DH6A                                                  00500000  0000000001006300000010        SEA.FLKG7931001007                                                                                                                
00025103   O31E912510800025108201611081134 00025108MST158122/7931001007     0001                        00039130                                                                                                                                                                                                      
00025103   O31E112510800025108201611081134100025108MST158122/7931001007     0002LDAHV7LH6A                                                  00200000  0000000001006300000010        SEA.FLKG7931001007                                                                                                                
00025103   O31E912510800025108201611081134 00025108MST158122/7931001007     0002                        00039130                                                                                                                                                                                                      
00025103   O31E112510800025108201611081134100025108MST158122/7931001007     0003LDAHV9DH6A                                                  00443000  0000000001475300000010        SEA.FLKG7931001007                                                                                                                
00025103   O31E912510800025108201611081134 00025108MST158122/7931001007     0003                        00039130                                                                                                                                                                                                      
00025103   O31E112510800025108201611081134100025108MST158122/7931001007     0004LDAHV9LH6A                                                  00155000  0000000001475300000010        SEA.FLKG7931001007                                                                                                                
00025103   O31E912510800025108201611081134 00025108MST158122/7931001007     0004                        00039130                                                                                                                                                                                                      
