00025103   O31A112511300025113201711270748100025113MNZ169617/P88751             A  0002510300029671                                 S31790ERASMUSJ                      NCKE, MS. CHUI HONG, MICHELLE MI20171212        1N10003827420171224SEA.FAKLLIGHTING                                                       O   
00025103   O31A212511300025113201711270748100025113MNZ169617/P88751             FOB0                              USD                                                                20180120                SCMM                                        00038274                                                     
00025103   O31E112511300025113201711270748100025113MNZ169617/P88751         0001LDAHV10LG4A1        LDAHV10LG4A1                            00002500  0000000024714400000010                                         ATP Auto Generate                                                                                
00025103   O31E112511300025113201711270748100025113MNZ169617/P88751         0002LDAHV10LG4BA        LDAHV10LG4BA                            00002500  0000000024714400000010                                         ATP Auto Generate                                                                                
00025103   O31E112511300025113201711270748100025113MNZ169617/P88751         0003LDAHV7LG4A1         LDAHV7LG4A1                             00002500  0000000001717300000010                                         ATP Auto Generate                                                                                
