00025103   O31A112510700025107201701101143100025107MPH159801/7961000912         A  0002510300029474                                 L31790                              YCKE, MS. CHUI HONG, MICHELLE MI20170115        1N10003827420170209SEA.FMNLLIGHTING                                                       O   
00025103   O31A212510700025107201701101143100025107MPH159801/7961000912         FOB0                              USD                                                        00029474201703130002947400029474                                            00038274                                                     
00025103   O31E112510700025107201701101143100025107MPH159801/7961000912     0001EFDHV25D65A                                                 00120000  0000000016473400000010        SEA.FMNL7961000912                                                                                                                
00025103   O31E912510700025107201701101143 00025107MPH159801/7961000912     0001                        00029474                                                                                                                                                                                                      
00025103   O31E112510700025107201701101143100025107MPH159801/7961000912     0002EFUHV11D65A                                                 00080000  0000000009574400000010        SEA.FMNL7961000912                                                                                                                
00025103   O31E912510700025107201701101143 00025107MPH159801/7961000912     0002                        00029474                                                                                                                                                                                                      
00025103   O31E112510700025107201701101143100025107MPH159801/7961000912     0003EFUHV18D65A3                                                00120000  0000000014213400000010        SEA.FMNL7961000912                                                                                                                
00025103   O31E912510700025107201701101143 00025107MPH159801/7961000912     0003                        00029474                                                                                                                                                                                                      
00025103   O31E112510700025107201701101143100025107MPH159801/7961000912     0004EFUHV8D65A                                                  00080000  0000000009574400000010        SEA.FMNL7961000912                                                                                                                
00025103   O31E912510700025107201701101143 00025107MPH159801/7961000912     0004                        00029474                                                                                                                                                                                                      
00025103   O31E112510700025107201701101143100025107MPH159801/7961000912     0005EFUHV14D65A                                                 00100000  0000000010363400000010        SEA.FMNL7961000912                                                                                                                
00025103   O31E912510700025107201701101143 00025107MPH159801/7961000912     0005                        00029474                                                                                                                                                                                                      
