12000I     O31A112511300025113201902261051100025113MNZ7901006830/P91522           10002510300029671                                 S31790                              YNR01-SG                                         N 0003827420190309SEA.FAKLLIGHTING                                                       O   
12000I     O31A212511300025113201902261051100025113MNZ7901006830/P91522         FOB0                              USD                                                        00025103201904100002510300025103                                            00038274                                                     
12000I     O31A812511300025113201902261051100025113MNZ7901006830/P91522         FOB                                                                                                                                                                                                                                   
12000I     O31E112511300025113201902261051100025113MNZ7901006830/P91522     0010LDAHV10DG4A1                                                00002500  0000000000001200000010        SEA.FAKLMNZ7901006830/P91522                                                                                                      
12000I     O31E912511300025113201902261051 00025113MNZ7901006830/P91522     0010                        00025103                                                                                                                                                                                                      
12000I     O31E112511300025113201902261051100025113MNZ7901006830/P91522     0020LDAHV7DG4BA                                                 00002500  0000000000001200000010        SEA.FAKLMNZ7901006830/P91522                                                                                                      
12000I     O31E912511300025113201902261051 00025113MNZ7901006830/P91522     0020                        00025103                                                                                                                                                                                                      
12000I     O31E112511300025113201902261051100025113MNZ7901006830/P91522     0030LDAHV8LG4A1                                                 00002500  0000000000001200000010        SEA.FAKLMNZ7901006830/P91522                                                                                                      
12000I     O31E912511300025113201902261051 00025113MNZ7901006830/P91522     0030                        00025103                                                                                                                                                                                                      
