12000I     O31A112511000025110201907081448100025110MMQ7901010745/7921007604       10002510300039140                                 L31790                              YNR01-SG                        20190810         N 0003827420190718SEA.FPKLLIGHTING                                                       O   
12000I     O31A212511000025110201907081448100025110MMQ7901010745/7921007604     FOB0                              USD                                                        00025103201908100002510300025103                                            00038274                                                     
12000I     O31A812511000025110201907081448100025110MMQ7901010745/7921007604     FOB                                                                                                                                                                                                                                   
12000I     O31E112511000025110201907081448100025110MMQ7901010745/7921007604 0010EFDHV25D65T1                                                00076800  000000000001410000001020190810SEA.FPKLMMQ7901010745/7921007604                                                                                                  
12000I     O31E912511000025110201907081448 00025110MMQ7901010745/7921007604 0010                        00025103                                                                                                                                                                                                      
12000I     O31E112511000025110201907081448100025110MMQ7901010745/7921007604 0020EFUHV18D65A3                                                00500000  000000000010120000001020190810SEA.FPKLMMQ7901010745/7921007604                                                                                                  
12000I     O31E912511000025110201907081448 00025110MMQ7901010745/7921007604 0020                        00025103                                                                                                                                                                                                      
