00025103   O31A112510800025108201604150657100025108MST150944/7931000020         A  0002510300039130                                 S31790                              NCKE, MS. CHUI HONG, MICHELLE MI20160430        1N10003827420160523SEA.FLKGLIGHTING                                                       O   
00025103   O31A212510800025108201604150657100025108MST150944/7931000020         FOB0                              USD                                                        00039130201606100003913000039130SCMM                                        00038274                                                     
00025103   O31E112510800025108201604150657100025108MST150944/7931000020     0001EFDHV42D65A                                                 00048000  0000000030535400000010        SEA.FLKG7931000020                                                                                                                
00025103   O31E912510800025108201604150657 00025108MST150944/7931000020     0001                        00039130                                                                                                                                                                                                      
00025103   O31E112510800025108201604150657100025108MST150944/7931000020     0002EFU11E652V                                                  00027000  0000000012395400000010        SEA.FLKG7931000020                                                                                                                
00025103   O31E912510800025108201604150657 00025108MST150944/7931000020     0002                        00039130                                                                                                                                                                                                      
00025103   O31E112510800025108201604150657100025108MST150944/7931000020     0003EFU14E272V                                                  00100000  0000000013256400000010        SEA.FLKG7931000020                                                                                                                
00025103   O31E912510800025108201604150657 00025108MST150944/7931000020     0003                        00039130                                                                                                                                                                                                      
