12000I     O31A112510700025107201808171740100025107MPH7901001176/7961005691       10002510300029474                                 L31790                              YNR01-SG                        20180918         N 0003827420180817SEA.FMNLLIGHTING                                                       O   
12000I     O31A212510700025107201808171740100025107MPH7901001176/7961005691     FOB0                              USD                                                        00025103201809180002510300025103                                            00038274                                                     
12000I     O31A812510700025107201808171740100025107MPH7901001176/7961005691     FOB                                                                                                                                                                                                                                   
12000I     O31E112510700025107201808171740100025107MPH7901001176/7961005691 0010LDAHV3DH6A                                                  00018000  000000000000120000001020180918SEA.FMNLMPH7901001176/7961005691                                                                                                  
12000I     O31E912510700025107201808171740 00025107MPH7901001176/7961005691 0010                        00025103                                                                                                                                                                                                      
12000I     O31E112510700025107201808171740100025107MPH7901001176/7961005691 0020LDAHV5DH6A                                                  00018000  000000000000120000001020180918SEA.FMNLMPH7901001176/7961005691                                                                                                  
12000I     O31E912510700025107201808171740 00025107MPH7901001176/7961005691 0020                        00025103                                                                                                                                                                                                      
12000I     O31E112510700025107201808171740100025107MPH7901001176/7961005691 0030LDAHV7DH6A                                                  00018000  000000000000120000001020180918SEA.FMNLMPH7901001176/7961005691                                                                                                  
12000I     O31E912510700025107201808171740 00025107MPH7901001176/7961005691 0030                        00025103                                                                                                                                                                                                      
12000I     O31E112510700025107201808171740100025107MPH7901001176/7961005691 0040LDAHV9DH6A                                                  00018000  000000000000120000001020180918SEA.FMNLMPH7901001176/7961005691                                                                                                  
12000I     O31E912510700025107201808171740 00025107MPH7901001176/7961005691 0040                        00025103                                                                                                                                                                                                      
