12000I     O31A112510700025107201908011140100025107MPH7901011628/7961008115       10002510300029474                                 L31790                              YNR01-SG                        20190903         N 0003827420190802SEA.FMNLLIGHTING                                                       O   
12000I     O31A212510700025107201908011140100025107MPH7901011628/7961008115     FOB0                              USD                                                        00025103201909030002510300025103                                            00038274                                                     
12000I     O31A812510700025107201908011140100025107MPH7901011628/7961008115     FOB                                                                                                                                                                                                                                   
12000I     O31E112510700025107201908011140100025107MPH7901011628/7961008115 0010EFUHV14D65A                                                 00150000  000000000000120000001020190903SEA.FMNLMPH7901011628/7961008115                                                                                                  
12000I     O31E912510700025107201908011140 00025107MPH7901011628/7961008115 0010                        00025103                                                                                                                                                                                                      
