00025103   O31A112510800025108201708071038100025108MST166444/7931002838         A  0002510300039130                                 L31790                              YCKE, MS. CHUI HONG, MICHELLE MI20170812        1N10003827420170814SEA.FLKGLIGHTING                                                       O   
00025103   O31A212510800025108201708071038100025108MST166444/7931002838         FOB0                              USD                                                        00039130201709010003913000039130                                            00038274                                                     
00025103   O31E112510800025108201708071038100025108MST166444/7931002838     0001LDAHV12LH5T                                                 00055000  000000001327140000001020170825SEA.FLKG7931002838                                                                                                                
00025103   O31E912510800025108201708071038 00025108MST166444/7931002838     0001                        00039130                                                                                                                                                                                                      
00025103   O31E112510800025108201708071038100025108MST166444/7931002838     0002LDAHV15LH5T                                                 00030000  000000001775940000001020170825SEA.FLKG7931002838                                                                                                                
00025103   O31E912510800025108201708071038 00025108MST166444/7931002838     0002                        00039130                                                                                                                                                                                                      
00025103   O31E112510800025108201708071038100025108MST166444/7931002838     0003LDAHV5DH6A                                                  00130000  000000000630340000001020170825SEA.FLKG7931002838                                                                                                                
00025103   O31E912510800025108201708071038 00025108MST166444/7931002838     0003                        00039130                                                                                                                                                                                                      
00025103   O31E112510800025108201708071038100025108MST166444/7931002838     0004LDAHV9DH6A                                                  00040000  000000001121440000001020170825SEA.FLKG7931002838                                                                                                                
00025103   O31E912510800025108201708071038 00025108MST166444/7931002838     0004                        00039130                                                                                                                                                                                                      
00025103   O31E112510800025108201708071038100025108MST166444/7931002838     0005LDAHV9LH6A                                                  00010000  000000001121440000001020170825SEA.FLKG7931002838                                                                                                                
00025103   O31E912510800025108201708071038 00025108MST166444/7931002838     0005                        00039130                                                                                                                                                                                                      
00025103   O31A112510800025108201708071038100025108MST166445/7931002841         A  0002510300039130                                 S31790                              YCKE, MS. CHUI HONG, MICHELLE MI20170812        1N10003827420170819SEA.FLKGLIGHTING                                                       O   
00025103   O31A212510800025108201708071038100025108MST166445/7931002841         FOB0                              USD                                                        00039130201709060003913000039130                                            00038274                                                     
00025103   O31E112510800025108201708071038100025108MST166445/7931002841     0001EFDHV11D65T                                                 00010560  000000001223940000001020170830SEA.FLKG7931002841                                                                                                                
00025103   O31E912510800025108201708071038 00025108MST166445/7931002841     0001                        00039130                                                                                                                                                                                                      
00025103   O31E112510800025108201708071038100025108MST166445/7931002841     0002EFDHV20D65T1                                                00003840  000000001381940000001020170830SEA.FLKG7931002841                                                                                                                
00025103   O31E912510800025108201708071038 00025108MST166445/7931002841     0002                        00039130                                                                                                                                                                                                      
00025103   O31E112510800025108201708071038100025108MST166445/7931002841     0003EFDHV23D65T1                                                00059760  000000001381940000001020170830SEA.FLKG7931002841                                                                                                                
00025103   O31E912510800025108201708071038 00025108MST166445/7931002841     0003                        00039130                                                                                                                                                                                                      
00025103   O31E112510800025108201708071038100025108MST166445/7931002841     0004EFDHV25D65T                                                 00299520  000000000015220000001020170830SEA.FLKG7931002841                                                                                                                
00025103   O31E912510800025108201708071038 00025108MST166445/7931002841     0004                        00039130                                                                                                                                                                                                      
00025103   O31E112510800025108201708071038100025108MST166445/7931002841     0005EFDHV25L27T                                                 00069120  000000000015220000001020170830SEA.FLKG7931002841                                                                                                                
00025103   O31E912510800025108201708071038 00025108MST166445/7931002841     0005                        00039130                                                                                                                                                                                                      
00025103   O31E112510800025108201708071038100025108MST166445/7931002841     0006EFDHV42D65A                                                 00030000  000000003013840000001020170830SEA.FLKG7931002841                                                                                                                
00025103   O31E912510800025108201708071038 00025108MST166445/7931002841     0006                        00039130                                                                                                                                                                                                      
00025103   O31E112510800025108201708071038100025108MST166445/7931002841     0007EFU11E652V                                                  00060000  000000001223440000001020170830SEA.FLKG7931002841                                                                                                                
00025103   O31E912510800025108201708071038 00025108MST166445/7931002841     0007                        00039130                                                                                                                                                                                                      
00025103   O31E112510800025108201708071038100025108MST166445/7931002841     0008EFU8E652V1                                                  00130000  000000001088340000001020170830SEA.FLKG7931002841                                                                                                                
00025103   O31E912510800025108201708071038 00025108MST166445/7931002841     0008                        00039130                                                                                                                                                                                                      
00025103   O31E112510800025108201708071038100025108MST166445/7931002841     0009EFUHV18D65A                                                 00350000  000000001342340000001020170830SEA.FLKG7931002841                                                                                                                
00025103   O31E912510800025108201708071038 00025108MST166445/7931002841     0009                        00039130                                                                                                                                                                                                      
00025103   O31E112510800025108201708071038100025108MST166445/7931002841     0010EFUHV18L27A                                                 00008000  000000001342340000001020170830SEA.FLKG7931002841                                                                                                                
00025103   O31E912510800025108201708071038 00025108MST166445/7931002841     0010                        00039130                                                                                                                                                                                                      
00025103   O31E112510800025108201708071038100025108MST166445/7931002841     0011EFUHV23D65A                                                 00055000  000000001411440000001020170830SEA.FLKG7931002841                                                                                                                
00025103   O31E912510800025108201708071038 00025108MST166445/7931002841     0011                        00039130                                                                                                                                                                                                      
00025103   O31A112510800025108201708071038100025108MST166446/7931002840         A  0002510300039130                                 S31790                              YCKE, MS. CHUI HONG, MICHELLE MI20170812        1N100038274        AIR.FLKGLIGHTING                                                       O   
00025103   O31A212510800025108201708071038100025108MST166446/7931002840         FOB0                              USD                                                        00039130201709010003913000039130                                            00038274                                                     
00025103   O31E112510800025108201708071038100025108MST166446/7931002840     0001EFDHV15L27T1                                                00020160  0000000011127400000010        AIR.FLKG7931002840                                                                                                                
00025103   O31E912510800025108201708071038 00025108MST166446/7931002840     0001                        00039130                                                                                                                                                                                                      
00025103   O31E112510800025108201708071038100025108MST166446/7931002840     0002EFU14E652V1                                                 00175000  0000000011896400000010        AIR.FLKG7931002840                                                                                                                
00025103   O31E912510800025108201708071038 00025108MST166446/7931002840     0002                        00039130                                                                                                                                                                                                      
00025103   O31E112510800025108201708071038100025108MST166446/7931002840     0003EFUHV18D65A                                                 00020000  0000000013423400000010        AIR.FLKG7931002840                                                                                                                
00025103   O31E912510800025108201708071038 00025108MST166446/7931002840     0003                        00039130                                                                                                                                                                                                      
