00025103   O31A112510800025108201707130138100025108MST165522/7931002665         A  0002510300039130                                 S31790                              YCKE, MS. CHUI HONG, MICHELLE MI20170718        1N10003827420170715SEA.FLKGLIGHTING                                                       O   
00025103   O31A212510800025108201707130138100025108MST165522/7931002665         FOB0                              USD                                                        00039130201708020003913000039130                                            00038274                                                     
00025103   O31E112510800025108201707130138100025108MST165522/7931002665     0001EFDHV15D65T1                                                00150000  000000001112740000001020170726SEA.FLKG7931002665                                                                                                                
00025103   O31E912510800025108201707130138 00025108MST165522/7931002665     0001                        00039130                                                                                                                                                                                                      
00025103   O31E112510800025108201707130138100025108MST165522/7931002665     0002EFDHV20D65T1                                                00044160  000000001381940000001020170726SEA.FLKG7931002665                                                                                                                
00025103   O31E912510800025108201707130138 00025108MST165522/7931002665     0002                        00039130                                                                                                                                                                                                      
00025103   O31E112510800025108201707130138100025108MST165522/7931002665     0003EFDHV25D65T                                                 01999680  000000000015220000001020170726SEA.FLKG7931002665                                                                                                                
00025103   O31E912510800025108201707130138 00025108MST165522/7931002665     0003                        00039130                                                                                                                                                                                                      
00025103   O31E112510800025108201707130138100025108MST165522/7931002665     0004EFDHV25L27T                                                 00045120  000000000015220000001020170726SEA.FLKG7931002665                                                                                                                
00025103   O31E912510800025108201707130138 00025108MST165522/7931002665     0004                        00039130                                                                                                                                                                                                      
00025103   O31E112510800025108201707130138100025108MST165522/7931002665     0005EFDHV42D65A                                                 00005080  000000003013840000001020170726SEA.FLKG7931002665                                                                                                                
00025103   O31E912510800025108201707130138 00025108MST165522/7931002665     0005                        00039130                                                                                                                                                                                                      
00025103   O31E112510800025108201707130138100025108MST165522/7931002665     0006EFU11E652V                                                  00015000  000000001223440000001020170726SEA.FLKG7931002665                                                                                                                
00025103   O31E912510800025108201707130138 00025108MST165522/7931002665     0006                        00039130                                                                                                                                                                                                      
00025103   O31E112510800025108201707130138100025108MST165522/7931002665     0007EFU14E652V1                                                 00300000  000000001189640000001020170726SEA.FLKG7931002665                                                                                                                
00025103   O31E912510800025108201707130138 00025108MST165522/7931002665     0007                        00039130                                                                                                                                                                                                      
00025103   O31E112510800025108201707130138100025108MST165522/7931002665     0008EFU8E652V1                                                  00008000  000000001088340000001020170726SEA.FLKG7931002665                                                                                                                
00025103   O31E912510800025108201707130138 00025108MST165522/7931002665     0008                        00039130                                                                                                                                                                                                      
00025103   O31E112510800025108201707130138100025108MST165522/7931002665     0009EFUHV18D65A                                                 00280000  000000001342340000001020170726SEA.FLKG7931002665                                                                                                                
00025103   O31E912510800025108201707130138 00025108MST165522/7931002665     0009                        00039130                                                                                                                                                                                                      
00025103   O31E112510800025108201707130138100025108MST165522/7931002665     0010EFUHV18L27A                                                 00002000  000000001342340000001020170726SEA.FLKG7931002665                                                                                                                
00025103   O31E912510800025108201707130138 00025108MST165522/7931002665     0010                        00039130                                                                                                                                                                                                      
00025103   O31A112510800025108201707130138100025108MST165523/7931002667         A  0002510300039130                                 S31790                              YCKE, MS. CHUI HONG, MICHELLE MI20170718        1N10003827420170726SEA.FLKGLIGHTING                                                       O   
00025103   O31A212510800025108201707130138100025108MST165523/7931002667         FOB0                              USD                                                        00039130201708130003913000039130                                            00038274                                                     
00025103   O31E112510800025108201707130138100025108MST165523/7931002667     0001EFDHV11D65T                                                 00009600  000000001223940000001020170806SEA.FLKG7931002667                                                                                                                
00025103   O31E912510800025108201707130138 00025108MST165523/7931002667     0001                        00039130                                                                                                                                                                                                      
00025103   O31E112510800025108201707130138100025108MST165523/7931002667     0002EFDHV15L27T1                                                00036080  000000001112740000001020170806SEA.FLKG7931002667                                                                                                                
00025103   O31E912510800025108201707130138 00025108MST165523/7931002667     0002                        00039130                                                                                                                                                                                                      
00025103   O31E112510800025108201707130138100025108MST165523/7931002667     0003EFU14E272V1                                                 00070000  000000001189640000001020170806SEA.FLKG7931002667                                                                                                                
00025103   O31E912510800025108201707130138 00025108MST165523/7931002667     0003                        00039130                                                                                                                                                                                                      
00025103   O31A112510800025108201707130138100025108MST165524/7931002666         A  0002510300039130                                 L31790                              YCKE, MS. CHUI HONG, MICHELLE MI20170718        1N10003827420170715SEA.FLKGLIGHTING                                                       O   
00025103   O31A212510800025108201707130138100025108MST165524/7931002666         FOB0                              USD                                                        00039130201708020003913000039130                                            00038274                                                     
00025103   O31E112510800025108201707130138100025108MST165524/7931002666     0001LDAHV12DH5T                                                 00055000  000000001327140000001020170726SEA.FLKG7931002666                                                                                                                
00025103   O31E912510800025108201707130138 00025108MST165524/7931002666     0001                        00039130                                                                                                                                                                                                      
00025103   O31E112510800025108201707130138100025108MST165524/7931002666     0002LDAHV12LH5T                                                 00055000  000000001327140000001020170726SEA.FLKG7931002666                                                                                                                
00025103   O31E912510800025108201707130138 00025108MST165524/7931002666     0002                        00039130                                                                                                                                                                                                      
00025103   O31E112510800025108201707130138100025108MST165524/7931002666     0003LDAHV15LH5T                                                 00030000  000000001775940000001020170726SEA.FLKG7931002666                                                                                                                
00025103   O31E912510800025108201707130138 00025108MST165524/7931002666     0003                        00039130                                                                                                                                                                                                      
00025103   O31E112510800025108201707130138100025108MST165524/7931002666     0004LDAHV9DH6A                                                  00140000  000000001121440000001020170726SEA.FLKG7931002666                                                                                                                
00025103   O31E912510800025108201707130138 00025108MST165524/7931002666     0004                        00039130                                                                                                                                                                                                      
00025103   O31A112510800025108201707130138100025108MST165525/7931002668         A  0002510300039130                                 L31790                              YCKE, MS. CHUI HONG, MICHELLE MI20170718        1N10003827420170729SEA.FLKGLIGHTING                                                       O   
00025103   O31A212510800025108201707130138100025108MST165525/7931002668         FOB0                              USD                                                        00039130201708160003913000039130                                            00038274                                                     
00025103   O31E112510800025108201707130138100025108MST165525/7931002668     0001LDAHV12DH5T                                                 00060000  000000001327140000001020170809SEA.FLKG7931002668                                                                                                                
00025103   O31E912510800025108201707130138 00025108MST165525/7931002668     0001                        00039130                                                                                                                                                                                                      
00025103   O31E112510800025108201707130138100025108MST165525/7931002668     0002LDAHV15DH5T                                                 00050000  000000001775940000001020170809SEA.FLKG7931002668                                                                                                                
00025103   O31E912510800025108201707130138 00025108MST165525/7931002668     0002                        00039130                                                                                                                                                                                                      
00025103   O31E112510800025108201707130138100025108MST165525/7931002668     0003LDAHV5LH6A                                                  00035000  000000000630340000001020170809SEA.FLKG7931002668                                                                                                                
00025103   O31E912510800025108201707130138 00025108MST165525/7931002668     0003                        00039130                                                                                                                                                                                                      
00025103   O31E112510800025108201707130138100025108MST165525/7931002668     0004LDAHV7LH6A                                                  00008000  000000000779240000001020170809SEA.FLKG7931002668                                                                                                                
00025103   O31E912510800025108201707130138 00025108MST165525/7931002668     0004                        00039130                                                                                                                                                                                                      
00025103   O31A112510800025108201707130338100025108MST165528/7931002672         A  0002510300039130                                 S31790                              YCKE, MS. CHUI HONG, MICHELLE MI20170718        1N100038274        AIR.FLKGLIGHTING                                                       O   
00025103   O31A212510800025108201707130338100025108MST165528/7931002672         FOB0                              USD                                                        00039130201707220003913000039130                                            00038274                                                     
00025103   O31E112510800025108201707130338100025108MST165528/7931002672     0001EFDHV15L27T1                                                00029760  0000000011127400000010        AIR.FLKG7931002672                                                                                                                
00025103   O31E912510800025108201707130338 00025108MST165528/7931002672     0001                        00039130                                                                                                                                                                                                      
