00025103   O31A112510700025107201702091254100025107MPH160610/7961001089         A  0002510300029474                                 L31790                              YCKE, MS. CHUI HONG, MICHELLE MI20170214        1N10003827420170314SEA.FMNLLIGHTING                                                       O   
00025103   O31A212510700025107201702091254100025107MPH160610/7961001089         FOB0                              USD                                                        00029474201704150002947400029474                                            00038274                                                     
00025103   O31E112510700025107201702091254100025107MPH160610/7961001089     0001EFDHV25D65A                                                 00145920  0000000000000000000010        SEA.FMNL7961001089                                                                                                                
00025103   O31E912510700025107201702091254 00025107MPH160610/7961001089     0001                        00029474                                                                                                                                                                                                      
00025103   O31E112510700025107201702091254100025107MPH160610/7961001089     0002EFUHV11D65A                                                 00130000  0000000000000000000010        SEA.FMNL7961001089                                                                                                                
00025103   O31E912510700025107201702091254 00025107MPH160610/7961001089     0002                        00029474                                                                                                                                                                                                      
00025103   O31E112510700025107201702091254100025107MPH160610/7961001089     0003EFUHV18D65A3                                                00129000  0000000000000000000010        SEA.FMNL7961001089                                                                                                                
00025103   O31E912510700025107201702091254 00025107MPH160610/7961001089     0003                        00029474                                                                                                                                                                                                      
00025103   O31E112510700025107201702091254100025107MPH160610/7961001089     0004EFUHV8D65A                                                  00130000  0000000000000000000010        SEA.FMNL7961001089                                                                                                                
00025103   O31E912510700025107201702091254 00025107MPH160610/7961001089     0004                        00029474                                                                                                                                                                                                      
