12000I     O31A112510800025108201810011507100025108MST7901002376/7931005339       10002510300039130                                 L31790                              NNR01-SG                        20181130         N 0003827420181112SEA.FLKGLIGHTING                                                       O   
12000I     O31A212510800025108201810011507100025108MST7901002376/7931005339     FOB0                              USD                                                        00025103201811300002510300025103SCMM                                        00038274                                                     
12000I     O31A812510800025108201810011507100025108MST7901002376/7931005339     FOB                                                                                                                                                                                                                                   
12000I     O31E112510800025108201810011507100025108MST7901002376/7931005339 0010LDR400N                                                     00001300  000000000289520000001020181130SEA.FLKGMST7901002376/7931005339                                                                                                  
12000I     O31E912510800025108201810011507 00025108MST7901002376/7931005339 0010                        00025103                                                                                                                                                                                                      
12000I     O31A112510800025108201810011508100025108MST7901002377/7931005337       10002510300039130                                 L31790                              NNR01-SG                        20181110         N 0003827420181025SEA.FLKGLIGHTING                                                       O   
12000I     O31A212510800025108201810011508100025108MST7901002377/7931005337     FOB0                              USD                                                        00025103201811100002510300025103SCMM                                        00038274                                                     
12000I     O31A812510800025108201810011508100025108MST7901002377/7931005337     FOB                                                                                                                                                                                                                                   
12000I     O31E112510800025108201810011508100025108MST7901002377/7931005337 0010LDAHV12DH6T                                                 00180000  000000000000120000001020181110SEA.FLKGMST7901002377/7931005337                                                                                                  
12000I     O31E912510800025108201810011508 00025108MST7901002377/7931005337 0010                        00025103                                                                                                                                                                                                      
12000I     O31E112510800025108201810011508100025108MST7901002377/7931005337 0020LDAHV12LH6T                                                 00025000  000000000000120000001020181110SEA.FLKGMST7901002377/7931005337                                                                                                  
12000I     O31E912510800025108201810011508 00025108MST7901002377/7931005337 0020                        00025103                                                                                                                                                                                                      
12000I     O31E112510800025108201810011508100025108MST7901002377/7931005337 0030LDAHV15DH6T                                                 00130000  000000000000120000001020181110SEA.FLKGMST7901002377/7931005337                                                                                                  
12000I     O31E912510800025108201810011508 00025108MST7901002377/7931005337 0030                        00025103                                                                                                                                                                                                      
12000I     O31E112510800025108201810011508100025108MST7901002377/7931005337 0040LDAHV15LH6T                                                 00025000  000000000000120000001020181110SEA.FLKGMST7901002377/7931005337                                                                                                  
12000I     O31E912510800025108201810011508 00025108MST7901002377/7931005337 0040                        00025103                                                                                                                                                                                                      
12000I     O31E112510800025108201810011508100025108MST7901002377/7931005337 0050LDAHV3DH6T                                                  00055000  000000000000120000001020181110SEA.FLKGMST7901002377/7931005337                                                                                                  
12000I     O31E912510800025108201810011508 00025108MST7901002377/7931005337 0050                        00025103                                                                                                                                                                                                      
12000I     O31E112510800025108201810011508100025108MST7901002377/7931005337 0060LDAHV3LH6T                                                  00030000  000000000000120000001020181110SEA.FLKGMST7901002377/7931005337                                                                                                  
12000I     O31E912510800025108201810011508 00025108MST7901002377/7931005337 0060                        00025103                                                                                                                                                                                                      
12000I     O31E112510800025108201810011508100025108MST7901002377/7931005337 0070LDAHV5DH6T                                                  00150000  000000000000120000001020181110SEA.FLKGMST7901002377/7931005337                                                                                                  
12000I     O31E912510800025108201810011508 00025108MST7901002377/7931005337 0070                        00025103                                                                                                                                                                                                      
12000I     O31E112510800025108201810011508100025108MST7901002377/7931005337 0080LDAHV5LH6T                                                  00060000  000000000000120000001020181110SEA.FLKGMST7901002377/7931005337                                                                                                  
12000I     O31E912510800025108201810011508 00025108MST7901002377/7931005337 0080                        00025103                                                                                                                                                                                                      
12000I     O31E112510800025108201810011508100025108MST7901002377/7931005337 0090LDAHV7DH6T                                                  00300000  000000000000120000001020181110SEA.FLKGMST7901002377/7931005337                                                                                                  
12000I     O31E912510800025108201810011508 00025108MST7901002377/7931005337 0090                        00025103                                                                                                                                                                                                      
12000I     O31E112510800025108201810011508100025108MST7901002377/7931005337 0100LDAHV7LH6T                                                  00085000  000000000000120000001020181110SEA.FLKGMST7901002377/7931005337                                                                                                  
12000I     O31E912510800025108201810011508 00025108MST7901002377/7931005337 0100                        00025103                                                                                                                                                                                                      
12000I     O31E112510800025108201810011508100025108MST7901002377/7931005337 0110LDAHV9DH6T                                                  00250000  000000000000120000001020181110SEA.FLKGMST7901002377/7931005337                                                                                                  
12000I     O31E912510800025108201810011508 00025108MST7901002377/7931005337 0110                        00025103                                                                                                                                                                                                      
12000I     O31E112510800025108201810011508100025108MST7901002377/7931005337 0120LDAHV9LH6T                                                  00060000  000000000000120000001020181110SEA.FLKGMST7901002377/7931005337                                                                                                  
12000I     O31E912510800025108201810011508 00025108MST7901002377/7931005337 0120                        00025103                                                                                                                                                                                                      
12000I     O31E112510800025108201810011508100025108MST7901002377/7931005337 0130LDS300D2N                                                   00005000  000000000177720000001020181110SEA.FLKGMST7901002377/7931005337                                                                                                  
12000I     O31E912510800025108201810011508 00025108MST7901002377/7931005337 0130                        00025103                                                                                                                                                                                                      
12000I     O31A112510800025108201810011508100025108MST7901002378/7931005338       10002510300039130                                 L31790                              NNR01-SG                        20181110         N 0003827420181025SEA.FLKGLIGHTING                                                       O   
12000I     O31A212510800025108201810011508100025108MST7901002378/7931005338     FOB0                              USD                                                        00025103201811100002510300025103SCMM                                        00038274                                                     
12000I     O31A812510800025108201810011508100025108MST7901002378/7931005338     FOB                                                                                                                                                                                                                                   
12000I     O31E112510800025108201810011508100025108MST7901002378/7931005338 0010EFDHV11D65T                                                 00033600  000000000000120000001020181110SEA.FLKGMST7901002378/7931005338                                                                                                  
12000I     O31E912510800025108201810011508 00025108MST7901002378/7931005338 0010                        00025103                                                                                                                                                                                                      
12000I     O31E112510800025108201810011508100025108MST7901002378/7931005338 0020EFDHV15D65T1                                                00264000  000000000000120000001020181110SEA.FLKGMST7901002378/7931005338                                                                                                  
12000I     O31E912510800025108201810011508 00025108MST7901002378/7931005338 0020                        00025103                                                                                                                                                                                                      
12000I     O31E112510800025108201810011508100025108MST7901002378/7931005338 0030EFDHV15L27T1                                                00092400  000000000000120000001020181110SEA.FLKGMST7901002378/7931005338                                                                                                  
12000I     O31E912510800025108201810011508 00025108MST7901002378/7931005338 0030                        00025103                                                                                                                                                                                                      
12000I     O31E112510800025108201810011508100025108MST7901002378/7931005338 0040EFDHV20D65T1                                                00021480  000000000000120000001020181110SEA.FLKGMST7901002378/7931005338                                                                                                  
12000I     O31E912510800025108201810011508 00025108MST7901002378/7931005338 0040                        00025103                                                                                                                                                                                                      
12000I     O31E112510800025108201810011508100025108MST7901002378/7931005338 0050EFDHV23D65T1                                                00038400  000000000000120000001020181110SEA.FLKGMST7901002378/7931005338                                                                                                  
12000I     O31E912510800025108201810011508 00025108MST7901002378/7931005338 0050                        00025103                                                                                                                                                                                                      
12000I     O31E112510800025108201810011508100025108MST7901002378/7931005338 0060EFDHV25D65T                                                 02299200  000000000014820000001020181110SEA.FLKGMST7901002378/7931005338                                                                                                  
12000I     O31E912510800025108201810011508 00025108MST7901002378/7931005338 0060                        00025103                                                                                                                                                                                                      
12000I     O31E112510800025108201810011508100025108MST7901002378/7931005338 0070EFDHV25L27T                                                 00034560  000000000014820000001020181110SEA.FLKGMST7901002378/7931005338                                                                                                  
12000I     O31E912510800025108201810011508 00025108MST7901002378/7931005338 0070                        00025103                                                                                                                                                                                                      
12000I     O31E112510800025108201810011508100025108MST7901002378/7931005338 0080EFDHV32D65A                                                 00018000  000000000000120000001020181110SEA.FLKGMST7901002378/7931005338                                                                                                  
12000I     O31E912510800025108201810011508 00025108MST7901002378/7931005338 0080                        00025103                                                                                                                                                                                                      
12000I     O31E112510800025108201810011508100025108MST7901002378/7931005338 0090EFDHV42D65A                                                 00034800  000000000000120000001020181110SEA.FLKGMST7901002378/7931005338                                                                                                  
12000I     O31E912510800025108201810011508 00025108MST7901002378/7931005338 0090                        00025103                                                                                                                                                                                                      
12000I     O31E112510800025108201810011508100025108MST7901002378/7931005338 0100EFU11E652V                                                  00050000  000000000000120000001020181110SEA.FLKGMST7901002378/7931005338                                                                                                  
12000I     O31E912510800025108201810011508 00025108MST7901002378/7931005338 0100                        00025103                                                                                                                                                                                                      
12000I     O31E112510800025108201810011508100025108MST7901002378/7931005338 0110EFU14E272V1                                                 00120000  000000000000120000001020181110SEA.FLKGMST7901002378/7931005338                                                                                                  
12000I     O31E912510800025108201810011508 00025108MST7901002378/7931005338 0110                        00025103                                                                                                                                                                                                      
12000I     O31E112510800025108201810011508100025108MST7901002378/7931005338 0120EFU14E652V1                                                 00540000  000000000000120000001020181110SEA.FLKGMST7901002378/7931005338                                                                                                  
12000I     O31E912510800025108201810011508 00025108MST7901002378/7931005338 0120                        00025103                                                                                                                                                                                                      
12000I     O31E112510800025108201810011508100025108MST7901002378/7931005338 0130EFU8E652V1                                                  00120000  000000000000120000001020181110SEA.FLKGMST7901002378/7931005338                                                                                                  
12000I     O31E912510800025108201810011508 00025108MST7901002378/7931005338 0130                        00025103                                                                                                                                                                                                      
12000I     O31E112510800025108201810011508100025108MST7901002378/7931005338 0140EFUHV18D65A                                                 00180000  000000000000120000001020181110SEA.FLKGMST7901002378/7931005338                                                                                                  
12000I     O31E912510800025108201810011508 00025108MST7901002378/7931005338 0140                        00025103                                                                                                                                                                                                      
12000I     O31E112510800025108201810011508100025108MST7901002378/7931005338 0150EFUHV18L27A                                                 00010800  000000000000120000001020181110SEA.FLKGMST7901002378/7931005338                                                                                                  
12000I     O31E912510800025108201810011508 00025108MST7901002378/7931005338 0150                        00025103                                                                                                                                                                                                      
12000I     O31E112510800025108201810011508100025108MST7901002378/7931005338 0160EFUHV23D65A                                                 00080000  000000000000120000001020181110SEA.FLKGMST7901002378/7931005338                                                                                                  
12000I     O31E912510800025108201810011508 00025108MST7901002378/7931005338 0160                        00025103                                                                                                                                                                                                      
12000I     O31E112510800025108201810011508100025108MST7901002378/7931005338 0170LDR400N                                                     00013000  000000000289520000001020181110SEA.FLKGMST7901002378/7931005338                                                                                                  
12000I     O31E912510800025108201810011508 00025108MST7901002378/7931005338 0170                        00025103                                                                                                                                                                                                      
