00025103   O31A112510700025107201803071044100025107MPH172809/7961004303         A  0002510300029474                                 L31790                              YCKE, MS. CHUI HONG, MICHELLE MI20180312        1N10003827420180403SEA.FMNLUA                                                             O   
00025103   O31A212510700025107201803071044100025107MPH172809/7961004303         FOB0                              USD                                                        00029474201805050002947400029474                                            00038274                                                     
00025103   O31E112510700025107201803071044100025107MPH172809/7961004303     0001LDAHV12DH5T                                                 00049000  0000000000000000000010        SEA.FMNL7961004303                                                                                                                
00025103   O31E912510700025107201803071044 00025107MPH172809/7961004303     0001                        00029474                                                                                                                                                                                                      
00025103   O31E112510700025107201803071044100025107MPH172809/7961004303     0002LDAHV15DH5T                                                 00049000  0000000000000000000010        SEA.FMNL7961004303                                                                                                                
00025103   O31E912510700025107201803071044 00025107MPH172809/7961004303     0002                        00029474                                                                                                                                                                                                      
