00025103   O31A112511000025110201607261036100025110MMQ154892/ES1607007          A  0002510300039140                                 S31790                               CKE, MS. CHUI HONG, MICHELLE MI20160731        1N10003827420160825SEA.FPKLLIGHTING                                                       O   
00025103   O31A212511000025110201607261036100025110MMQ154892/ES1607007          FOB0                              USD                                                                20160910                SCMM                                        00038274                                                     
00025103   O31E112511000025110201607261036100025110MMQ154892/ES1607007      0001EFDHV15D65A                                                 00039360  0000000012239400000010                                                                                                                                          
00025103   O31E112511000025110201607261036100025110MMQ154892/ES1607007      0002EFDHV20D65A                                                 00049920  0000000000152200000010                                                                                                                                          
00025103   O31E112511000025110201607261036100025110MMQ154892/ES1607007      0003EFDHV23D65A                                                 00038400  0000000000152200000010                                                                                                                                          
00025103   O31E112511000025110201607261036100025110MMQ154892/ES1607007      0004EFDHV25D65A                                                 00480000  0000000000152200000010                                                                                                                                          
