12000I     O31A112511000025110201807301024100025110MMQ7901000795/7921004317       10002510300039140                                 L31790                              NNR01-SG                        20180910         N 0003827420180824SEA.FPKLLIGHTING                                                       O   
12000I     O31A212511000025110201807301024100025110MMQ7901000795/7921004317     FOB0                              USD                                                        00025103201809100002510300025103SCMM                                        00038274                                                     
12000I     O31A812511000025110201807301024100025110MMQ7901000795/7921004317     FOB                                                                                                                                                                                                                                   
12000I     O31E112511000025110201807301024100025110MMQ7901000795/7921004317 0010LDAHV13DH7A                                                 00060000PC000000000000120000001020180910SEA.FPKLMMQ7901000795/7921004317                                                                                                  
12000I     O31E912511000025110201807301024 00025110MMQ7901000795/7921004317 0010                        00025103                                                                                                                                                                                                      
12000I     O31E112511000025110201807301024100025110MMQ7901000795/7921004317 0020LDAHV15DH7A                                                 00060000PC000000000000120000001020180910SEA.FPKLMMQ7901000795/7921004317                                                                                                  
12000I     O31E912511000025110201807301024 00025110MMQ7901000795/7921004317 0020                        00025103                                                                                                                                                                                                      
12000I     O31A112511300025113201807301138100025113MNZ7901000809/P90150           10002510300029671                                 S31790                              NNR01-SG                                         N 0003827420180824SEA.FAKLLIGHTING                                                       O   
12000I     O31A212511300025113201807301138100025113MNZ7901000809/P90150         FOB0                              USD                                                        00025103201809200002510300025103SCMM                                        00038274                                                     
12000I     O31A812511300025113201807301138100025113MNZ7901000809/P90150         FOB                                                                                                                                                                                                                                   
12000I     O31E112511300025113201807301138100025113MNZ7901000809/P90150     0010LDAHV10DG4A1                                                00002500PC0000000000001200000010        SEA.FAKLMNZ7901000809/P90150                                                                                                      
12000I     O31E912511300025113201807301138 00025113MNZ7901000809/P90150     0010                        00025103                                                                                                                                                                                                      
12000I     O31E112511300025113201807301138100025113MNZ7901000809/P90150     0020LDAHV7LG4BA                                                 00002500PC0000000000001200000010        SEA.FAKLMNZ7901000809/P90150                                                                                                      
12000I     O31E912511300025113201807301138 00025113MNZ7901000809/P90150     0020                        00025103                                                                                                                                                                                                      
