00025103   O31A112510800025108201803301041100025108MST173556/7931004286         A  0002510300039130                                 L31790                              YCKE, MS. CHUI HONG, MICHELLE MI20180404        1N10003827420180406SEA.FLKGLIGHTING                                                       O   
00025103   O31A212510800025108201803301041100025108MST173556/7931004286         FOB0                              USD                                                        00039130201804240003913000039130                                            00038274                                                     
00025103   O31E112510800025108201803301041100025108MST173556/7931004286     0001LDAHV15LH5T                                                 00005000  000000000000000000001020180417SEA.FLKG7931004286                                                                                                                
00025103   O31E912510800025108201803301041 00025108MST173556/7931004286     0001                        00039130                                                                                                                                                                                                      
00025103   O31E112510800025108201803301041100025108MST173556/7931004286     0002LDAHV5DH6A                                                  00050000  000000000000000000001020180417SEA.FLKG7931004286                                                                                                                
00025103   O31E912510800025108201803301041 00025108MST173556/7931004286     0002                        00039130                                                                                                                                                                                                      
00025103   O31E112510800025108201803301041100025108MST173556/7931004286     0003LDAHV5LH6A                                                  00020000  000000000000000000001020180417SEA.FLKG7931004286                                                                                                                
00025103   O31E912510800025108201803301041 00025108MST173556/7931004286     0003                        00039130                                                                                                                                                                                                      
00025103   O31E112510800025108201803301041100025108MST173556/7931004286     0004LDAHV9DH6A                                                  00080000  000000000000000000001020180417SEA.FLKG7931004286                                                                                                                
00025103   O31E912510800025108201803301041 00025108MST173556/7931004286     0004                        00039130                                                                                                                                                                                                      
00025103   O31A112510800025108201803301041100025108MST173557/7931004287         A  0002510300039130                                 S31790                              YCKE, MS. CHUI HONG, MICHELLE MI20180404        1N10003827420180407SEA.FLKGLIGHTING                                                       O   
00025103   O31A212510800025108201803301041100025108MST173557/7931004287         FOB0                              USD                                                        00039130201804250003913000039130                                            00038274                                                     
00025103   O31E112510800025108201803301041100025108MST173557/7931004287     0001EFDHV11D65T                                                 00015000  000000001223940000001020180418SEA.FLKG7931004287                                                                                                                
00025103   O31E912510800025108201803301041 00025108MST173557/7931004287     0001                        00039130                                                                                                                                                                                                      
00025103   O31E112510800025108201803301041100025108MST173557/7931004287     0002EFDHV15L27T1                                                00062000  000000000000000000001020180418SEA.FLKG7931004287                                                                                                                
00025103   O31E912510800025108201803301041 00025108MST173557/7931004287     0002                        00039130                                                                                                                                                                                                      
00025103   O31E112510800025108201803301041100025108MST173557/7931004287     0003EFU11E652V                                                  00050000  000000001223440000001020180418SEA.FLKG7931004287                                                                                                                
00025103   O31E912510800025108201803301041 00025108MST173557/7931004287     0003                        00039130                                                                                                                                                                                                      
00025103   O31A112510800025108201803301041100025108MST173558/7931004281         A  0002510300039130                                 L31790                              YCKE, MS. CHUI HONG, MICHELLE MI20180404        1N10003827420180407SEA.FLKGLIGHTING                                                       O   
00025103   O31A212510800025108201803301041100025108MST173558/7931004281         FOB0                              USD                                                        00039130201804250003913000039130                                            00038274                                                     
00025103   O31E112510800025108201803301041100025108MST173558/7931004281     0001LDAHV5LH6A                                                  00020000  000000000000000000001020180418SEA.FLKG7931004281                                                                                                                
00025103   O31E912510800025108201803301041 00025108MST173558/7931004281     0001                        00039130                                                                                                                                                                                                      
