00025103   O31A112511000025110201703100348100025110MMQ161403/ES1703002          A  0002510300039140                                 S31790                               CKE, MS. CHUI HONG, MICHELLE MI20170315        1N10003827420170411SEA.FPKLLIGHTING                                                       O   
00025103   O31A212511000025110201703100348100025110MMQ161403/ES1703002          FOB0                              USD                                                                20170504                                                            00038274                                                     
00025103   O31E112511000025110201703100348100025110MMQ161403/ES1703002      0001EFUHV18D65A3                                                00100000  0000000000000000000010                                                                                                                                          
00025103   O31A112510800025108201703110939100025108MST161411/7931001864         A  0002510300039130                                 S31790                              YCKE, MS. CHUI HONG, MICHELLE MI20170316        1N10003827420170401SEA.FLKGLIGHTING                                                       O   
00025103   O31A212510800025108201703110939100025108MST161411/7931001864         FOB0                              USD                                                        00039130201704190003913000039130                                            00038274                                                     
00025103   O31E112510800025108201703110939100025108MST161411/7931001864     0001EFDHV15D65T1                                                00339840  000000000000000000001020170412SEA.FLKG7931001864                                                                                                                
00025103   O31E912510800025108201703110939 00025108MST161411/7931001864     0001                        00039130                                                                                                                                                                                                      
00025103   O31E112510800025108201703110939100025108MST161411/7931001864     0002EFDHV25D65T                                                 00799680  000000000000000000001020170412SEA.FLKG7931001864                                                                                                                
00025103   O31E912510800025108201703110939 00025108MST161411/7931001864     0002                        00039130                                                                                                                                                                                                      
00025103   O31E112510800025108201703110939100025108MST161411/7931001864     0003EFDHV25L27T                                                 00024960  000000000000000000001020170412SEA.FLKG7931001864                                                                                                                
00025103   O31E912510800025108201703110939 00025108MST161411/7931001864     0003                        00039130                                                                                                                                                                                                      
00025103   O31E112510800025108201703110939100025108MST161411/7931001864     0004EFDHV42D65A                                                 00044880  000000000000000000001020170412SEA.FLKG7931001864                                                                                                                
00025103   O31E912510800025108201703110939 00025108MST161411/7931001864     0004                        00039130                                                                                                                                                                                                      
00025103   O31E112510800025108201703110939100025108MST161411/7931001864     0005EFU11E652V                                                  00015000  000000000000000000001020170412SEA.FLKG7931001864                                                                                                                
00025103   O31E912510800025108201703110939 00025108MST161411/7931001864     0005                        00039130                                                                                                                                                                                                      
00025103   O31E112510800025108201703110939100025108MST161411/7931001864     0006EFU8E652V1                                                  00030000  000000000000000000001020170412SEA.FLKG7931001864                                                                                                                
00025103   O31E912510800025108201703110939 00025108MST161411/7931001864     0006                        00039130                                                                                                                                                                                                      
00025103   O31E112510800025108201703110939100025108MST161411/7931001864     0007EFUHV18D65A                                                 00330000  000000000000000000001020170412SEA.FLKG7931001864                                                                                                                
00025103   O31E912510800025108201703110939 00025108MST161411/7931001864     0007                        00039130                                                                                                                                                                                                      
00025103   O31E112510800025108201703110939100025108MST161411/7931001864     0008EFUHV18L27A                                                 00015000  000000000000000000001020170412SEA.FLKG7931001864                                                                                                                
00025103   O31E912510800025108201703110939 00025108MST161411/7931001864     0008                        00039130                                                                                                                                                                                                      
00025103   O31E112510800025108201703110939100025108MST161411/7931001864     0009EFUHV23D65A                                                 00015000  000000000000000000001020170412SEA.FLKG7931001864                                                                                                                
00025103   O31E912510800025108201703110939 00025108MST161411/7931001864     0009                        00039130                                                                                                                                                                                                      
