12000I     O31A112510800025108201906072205100025108MST7901009883/7931006738       10002510300039130                                 L31790                              YNR01-SG                        20190720         N 00038274        AIR.FBKKLIGHTING                                                       O   
12000I     O31A212510800025108201906072205100025108MST7901009883/7931006738     FOB0                              USD                                                        00025103201907200002510300025103                                            00038274                                                     
12000I     O31A812510800025108201906072205100025108MST7901009883/7931006738     FOB                                                                                                                                                                                                                                   
12000I     O31E112510800025108201906072205100025108MST7901009883/7931006738 0010EFDHV25D65T                                                 00600000  000000000014820000001020190720AIR.FBKKMST7901009883/7931006738                                                                                                  
12000I     O31E912510800025108201906072205 00025108MST7901009883/7931006738 0010                        00025103                                                                                                                                                                                                      
