00025103   O31A112511000025110201611210539100025110MMQ158261/ES1611008          A  0002510300039140                                 S31790                               CKE, MS. CHUI HONG, MICHELLE MI20161126        1N100038274        SEA.FPKLLIGHTING                                                       O   
00025103   O31A212511000025110201611210539100025110MMQ158261/ES1611008          FOB0                              USD                                                                20161202                                                            00038274                                                     
00025103   O31E112511000025110201611210539100025110MMQ158261/ES1611008      0001LDAHV10DG4M                                                 00040000  0000000018566400000010                                                                                                                                          
00025103   O31E112511000025110201611210539100025110MMQ158261/ES1611008      0002LDAHV12DG4M                                                 00040000  0000000026621400000010                                                                                                                                          
00025103   O31A112510800025108201611211034100025108MST158262/7931001073         A  0002510300039130                                 S31790                              YCKE, MS. CHUI HONG, MICHELLE MI20161126        1N100038274        SEA.FLKGLIGHTING                                                       O   
00025103   O31A212510800025108201611211034100025108MST158262/7931001073         FOB0                              USD                                                        00039130201612060003913000039130                                            00038274                                                     
00025103   O31E112510800025108201611211034100025108MST158262/7931001073     0001EFDHV25D65T                                                 00296640  0000000000152200000010        SEA.FLKG7931001073                                                                                                                
00025103   O31E912510800025108201611211034 00025108MST158262/7931001073     0001                        00039130                                                                                                                                                                                                      
00025103   O31A112510800025108201611211034100025108MST158263/7931001072         A  0002510300039130                                 S31790                              YCKE, MS. CHUI HONG, MICHELLE MI20161126        1N100038274        SEA.FLKGLIGHTING                                                       O   
00025103   O31A212510800025108201611211034100025108MST158263/7931001072         FOB0                              USD                                                        00039130201612060003913000039130                                            00038274                                                     
00025103   O31E112510800025108201611211034100025108MST158263/7931001072     0001EFDHV15D65T1                                                00140160  0000000011127400000010        SEA.FLKG7931001072                                                                                                                
00025103   O31E912510800025108201611211034 00025108MST158263/7931001072     0001                        00039130                                                                                                                                                                                                      
00025103   O31E112510800025108201611211034100025108MST158263/7931001072     0002EFDHV15L27T1                                                00079680  0000000011127400000010        SEA.FLKG7931001072                                                                                                                
00025103   O31E912510800025108201611211034 00025108MST158263/7931001072     0002                        00039130                                                                                                                                                                                                      
00025103   O31E112510800025108201611211034100025108MST158263/7931001072     0003EFDHV20D65T1                                                00070080  0000000013819400000010        SEA.FLKG7931001072                                                                                                                
00025103   O31E912510800025108201611211034 00025108MST158263/7931001072     0003                        00039130                                                                                                                                                                                                      
00025103   O31E112510800025108201611211034100025108MST158263/7931001072     0004EFDHV23D65T1                                                00039360  0000000013819400000010        SEA.FLKG7931001072                                                                                                                
00025103   O31E912510800025108201611211034 00025108MST158263/7931001072     0004                        00039130                                                                                                                                                                                                      
00025103   O31E112510800025108201611211034100025108MST158263/7931001072     0005EFU14E272V1                                                 00110000  0000000011896400000010        SEA.FLKG7931001072                                                                                                                
00025103   O31E912510800025108201611211034 00025108MST158263/7931001072     0005                        00039130                                                                                                                                                                                                      
00025103   O31E112510800025108201611211034100025108MST158263/7931001072     0006EFU14E652V1                                                 00180000  0000000011896400000010        SEA.FLKG7931001072                                                                                                                
00025103   O31E912510800025108201611211034 00025108MST158263/7931001072     0006                        00039130                                                                                                                                                                                                      
00025103   O31E112510800025108201611211034100025108MST158263/7931001072     0007EFU8E652V1                                                  00100000  0000000010883400000010        SEA.FLKG7931001072                                                                                                                
00025103   O31E912510800025108201611211034 00025108MST158263/7931001072     0007                        00039130                                                                                                                                                                                                      
