12000I     O31A11390510002512120170501181810002512191706179                        0002514700039051000390515000035932               L31771                              NNT21/ATP                                        N 0003827420170525SEA.FMEX                                                               O   
12000I     O31A21390510002512120170501181810002512191706179                     FOB                               USD                                                                201707050003905100039051SCMM               5000035932               00038274                                                     
12000I     O31E11390510002512120170501181810002512191706179                 0010EFDLV15L27L                                                 00000600PC0000000000000000000000        SEA.FMEX                                                                                                                          
12000I     O31E11390510002512120170501181810002512191706179                 0020EFDLV23D65L                                                 00008760PC0000000000000000000000        SEA.FMEX                                                                                                                          
12000I     O31E11390510002512120170501181810002512191706179                 0030EFDLV25D65L                                                 00001200PC0000000000000000000000        SEA.FMEX                                                                                                                          
12000I     O31E11390510002512120170501181810002512191706179                 0040EFDLV20D65L                                                 00004800PC0000000000000000000000        SEA.FMEX                                                                                                                          
