12000I     O31A11390510002512120170801123610002512191709237                        0002514700039051000390515000036492               L31771                              NNT21/ATP                                        N 0003827420170825SEA.FMEX                                                               O   
12000I     O31A21390510002512120170801123610002512191709237                     FOB                               USD                                                                201710050003905100039051SCMM               5000036492               00038274                                                     
12000I     O31E11390510002512120170801123610002512191709237                 0010EFDLV15D65L                                                 00007920PC0000000000000000000000        SEA.FMEX                                                                                                                          
12000I     O31E11390510002512120170801123610002512191709237                 0020EFDLV20D65L                                                 00007920PC0000000000000000000000        SEA.FMEX                                                                                                                          
12000I     O31E11390510002512120170801123610002512191709237                 0030EFDLV23D65L                                                 00007920PC0000000000000000000000        SEA.FMEX                                                                                                                          
