12000I     O31A11390580002512320160527123310002512391608069                     A  0002514700039058        1608-36051-13-LIMA       L31771JDEDGARA                      NNJDEDGARA                      20160527        1N10003827420160625SEA.FCLL             C                                                     
12000I     O31A21390580002512320160527123310002512391608069                     FOB0                              USDFOB                                                             2016080500039058        SCMM       000390581608-36051-13-LIMA       00038274                                                     
12000I     O31E11390580002512320160527123310002512391608069                 0001EFDHV11D65L                                       00038274CB00039960  000000000000000000001020160805SEA.FCLL1608-36051-13-LIMA01.00                                                                                                   
12000I     O31E11390580002512320160527123310002512391608069                 0002EFDHV11L27L                                       00038274CB00039840  000000000000000000001020160805SEA.FCLL1608-36051-13-LIMA02.00                                                                                                   
12000I     O31E11390580002512320160527123310002512391608069                 0003EFDHV15D65L                                       00038274CB00045000  000000000000000000001020160805SEA.FCLL1608-36051-13-LIMA03.00                                                                                                   
12000I     O31E11390580002512320160527123310002512391608069                 0004EFDHV15L27L                                       00038274CB00039960  000000000000000000001020160805SEA.FCLL1608-36051-13-LIMA04.00                                                                                                   
12000I     O31E11390580002512320160527123310002512391608069                 0005EFDHV20D65L                                       00038274CB00049920  000000000000000000001020160805SEA.FCLL1608-36051-13-LIMA05.00                                                                                                   
12000I     O31E11390580002512320160527123310002512391608069                 0006EFDHV20L27L                                       00038274CB00024960  000000000000000000001020160805SEA.FCLL1608-36051-13-LIMA06.00                                                                                                   
12000I     O31E11390580002512320160527123310002512391608069                 0007EFDHV23D65L                                       00038274CB00019920  000000000000000000001020160805SEA.FCLL1608-36051-13-LIMA07.00                                                                                                   
12000I     O31E11390580002512320160527123310002512391608069                 0008EFDHV25D65L                                       00038274CB00019920  000000000000000000001020160805SEA.FCLL1608-36051-13-LIMA08.00                                                                                                   
12000I     O31E11390580002512320160527123310002512391608069                 0009EFDHV25L27L                                       00038274CB00015000  000000000000000000001020160805SEA.FCLL1608-36051-13-LIMA09.00                                                                                                   
12000I     O31E11390580002512320160527123310002512391608069                 0010EFDHV32D65A                                       00038274CB00004980  000000000000000000001020160805SEA.FCLL1608-36051-13-LIMA10.00                                                                                                   
12000I     O31E11390580002512320160527123310002512391608069                 0011EFDHV42D65A                                       00038274CB00006000  000000000000000000001020160805SEA.FCLL1608-36051-13-LIMA11.00                                                                                                   
12000I     O31E11390580002512320160527123310002512391608069                 0012EFDHV8D65L                                        00038274CB00039960  000000000000000000001020160805SEA.FCLL1608-36051-13-LIMA12.00                                                                                                   
12000I     O31E11390580002512320160527123310002512391608069                 0013EFDHV8L27L                                        00038274CB00039840  000000000000000000001020160805SEA.FCLL1608-36051-13-LIMA13.00                                                                                                   
12000I     O31E11390580002512320160527123310002512391608069                 0014EFUHV11L27L                                       00038274CB00002000  000000000000000000001020160805SEA.FCLL1608-36051-13-LIMA14.00                                                                                                   
12000I     O31E11390580002512320160527123310002512391608069                 0015EFUHV14L27L                                       00038274CB00002000  000000000000000000001020160805SEA.FCLL1608-36051-13-LIMA15.00                                                                                                   
12000I     O31E11390580002512320160527123310002512391608069                 0016EFUHV8D65L                                        00038274CB00005000  000000000000000000001020160805SEA.FCLL1608-36051-13-LIMA16.00                                                                                                   
12000I     O31E11390580002512320160527123310002512391608069                 0017EFUHV8L27L                                        00038274CB00001000  000000000000000000001020160805SEA.FCLL1608-36051-13-LIMA17.00                                                                                                                                                                                                     
