12000I     O31A11390510002512120160831160810002512191609379                        0002514700039051000390515000034188               L31771                              NNT21/ATP                                        N 00038274        SEA.FMEX                                                               O   
12000I     O31A21390510002512120160831160810002512191609379                     FOB                               USD                                                                201610050003905100039051                   5000034188               00038274                                                     
12000I     O31E11390510002512120160831160810002512191609379                 0010EFDLV20D65L                                                 00018000PC0000000000000000000000        SEA.FMEX                                                                                                                          
