12000I     O31A11390510002512120170131121710002512191703172                        0002514700039051000390515000035251               L31771                              NNT21/ATP                                        N 0003827420170225SEA.FMEX                                                               O   
12000I     O31A21390510002512120170131121710002512191703172                     FOB                               USD                                                                201704050003905100039051SCMM               5000035251               00038274                                                     
12000I     O31E11390510002512120170131121710002512191703172                 0010EFDLV20D65L                                                 00018000PC0000000000000000000000        SEA.FMEX                                                                                                                          
12000I     O31E11390510002512120170131121710002512191703172                 0020EFDLV23D65L                                                 00008760PC0000000000000000000000        SEA.FMEX                                                                                                                          
12000I     O31E11390510002512120170131121710002512191703172                 0030EFDLV15L27L                                                 00001200PC0000000000000000000000        SEA.FMEX                                                                                                                          
12000I     O31E11390510002512120170131121710002512191703172                 0040EFDLV15D65L                                                 00014160PC0000000000000000000000        SEA.FMEX                                                                                                                          
