12000I     O31A11390510002512120171128131410002512191801193                        0002514700039051000390515000037129               L31771                              NNT21/ATP                                       1N10003827420171225SEA.FMEX                                                               O   
12000I     O31A21390510002512120171128131410002512191801193                     FOB                               USD                                                                201802050003905100039051SCMM               5000037129               00038274                                                     
12000I     O31E11390510002512120171128131410002512191801193                 0010EFDLV15D65L                                                 00007920PC0000000000000000000000        SEA.FMEX                                                                                                                          
12000I     O31E11390510002512120171128131410002512191801193                 0020EFDLV20D65L                                                 00007920PC0000000000000000000000        SEA.FMEX                                                                                                                          
12000I     O31E11390510002512120171128131410002512191801193                 0030EFDLV23D65L                                                 00007920PC0000000000000000000000        SEA.FMEX                                                                                                                          
