12000I     O31A11390580002512320170127110010002512391704037                     A  0002514700039058        1704-37011-13-LIMA       L31771JDEDGARA                      NNJDEDGARA                      20170127        1N10003827420170224SEA.FCLL             C                                                     
12000I     O31A21390580002512320170127110010002512391704037                     FOB0                              USDFOB                                                             2017040500039058        SCMM       000390581704-37011-13-LIMA       00038274                                                     
12000I     O31E11390580002512320170127110010002512391704037                 0001EFDHV11D65L                                       00038274CB00030000  000000000000000000001020170405SEA.FCLL1704-37011-13-LIMA01.00                                                                                                   
12000I     O31E11390580002512320170127110010002512391704037                 0002EFDHV20L27L                                       00038274CB00039960  000000000000000000001020170405SEA.FCLL1704-37011-13-LIMA02.00                                                                                                   
12000I     O31E11390580002512320170127110010002512391704037                 0003EFDHV23D65L                                       00038274CB00059760  000000000000000000001020170405SEA.FCLL1704-37011-13-LIMA03.00                                                                                                   
12000I     O31E11390580002512320170127110010002512391704037                 0004EFDHV23L27L                                       00038274CB00019920  000000000000000000001020170405SEA.FCLL1704-37011-13-LIMA04.00                                                                                                   
12000I     O31E11390580002512320170127110010002512391704037                 0005EFDHV25D65L                                       00038274CB00075000  000000000000000000001020170405SEA.FCLL1704-37011-13-LIMA05.00                                                                                                   
12000I     O31E11390580002512320170127110010002512391704037                 0006EFDHV25L27L                                       00038274CB00030000  000000000000000000001020170405SEA.FCLL1704-37011-13-LIMA06.00                                                                                                   
12000I     O31E11390580002512320170127110010002512391704037                 0007EFDHV32D65A                                       00038274CB00024000  000000000000000000001020170405SEA.FCLL1704-37011-13-LIMA07.00                                                                                                   
12000I     O31E11390580002512320170127110010002512391704037                 0008EFDHV42D65A                                       00038274CB00010000  000000000000000000001020170405SEA.FCLL1704-37011-13-LIMA08.00                                                                                                   
12000I     O31E11390580002512320170127110010002512391704037                 0009EFDHV8D65L                                        00038274CB00049920  000000000000000000001020170405SEA.FCLL1704-37011-13-LIMA09.00                                                                                                   
12000I     O31E11390580002512320170127110010002512391704037                 0010EFDHV8L27L                                        00038274CB00049920  000000000000000000001020170405SEA.FCLL1704-37011-13-LIMA10.00                                                                                                   
12000I     O31E11390580002512320170127110010002512391704037                 0011EFUHV18D65L                                       00038274CB00100000  000000000000000000001020170405SEA.FCLL1704-37011-13-LIMA11.00                                                                                                   
12000I     O31E11390580002512320170127110010002512391704037                 0012EFUHV18L27L                                       00038274CB00020000  000000000000000000001020170405SEA.FCLL1704-37011-13-LIMA12.00                                                                                                   
12000I     O31E11390580002512320170127110010002512391704037                 0013LDAHV11DH3A                                       00038274CB00010000  000000000000000000001020170405SEA.FCLL1704-37011-13-LIMA13.00                                                                                                   
12000I     O31E11390580002512320170127110010002512391704037                 0014LDAHV11LH3A                                       00038274CB00010000  000000000000000000001020170405SEA.FCLL1704-37011-13-LIMA14.00                                                                                                   
12000I     O31E11390580002512320170127110010002512391704037                 0015LDAHV9DH3A                                        00038274CB00010000  000000000000000000001020170405SEA.FCLL1704-37011-13-LIMA15.00                                                                                                   
12000I     O31E11390580002512320170127110010002512391704037                 0016LDAHV9LH3A                                        00038274CB00010000  000000000000000000001020170405SEA.FCLL1704-37011-13-LIMA16.00                                                                                                   
