12000I     O31A11251470002512220160530113110002512241607628                        0002514700039415        41607628                 L31771MS                            NNMR. MICK      /                               1N10003827420160705SEA.FZLC                                                                   
12000I     O31A21251470002512220160530113110002512241607628                     FOB0                              USD                                                                20160805                SCMM       0002512241607628                 00038274                                                     
12000I     O31E11251470002512220160530113110002512241607628                 0001EFDLV11D65L                                                 00011280  0000000000000000000000                                                                                                                                          
12000I     O31E11251470002512220160530113110002512241607628                 0002EFDLV15D65L                                                 00021120  0000000000000000000000                                                                                                                                          
12000I     O31E11251470002512220160530113110002512241607628                 0003EFDLV15L27L                                                 00036360  0000000000000000000000                                                                                                                                          
12000I     O31E11251470002512220160530113110002512241607628                 0004EFDLV8D65L                                                  00013560  0000000000000000000000                                                                                                                                          
12000I     O31E11251470002512220160530113110002512241607628                 0005EFDLV8L27L                                                  00018480  0000000000000000000000                                                                                                                                          
12000I     O31A11251470002512220160530113110002512251607604-PANAC                  0002514700029471        51607604-PANAC           L31771 MS                           NNMR. MICK      /                               1N10003827420160705SEA.FSJO                                                                   
12000I     O31A21251470002512220160530113110002512251607604-PANAC               FOB0                              USD                                                                20160805                SCMM       0002512251607604-PANAC           00038274                                                     
12000I     O31E11251470002512220160530113110002512251607604-PANAC           0001EFDLV11D65L                                                 00023280  0000000000000000000000                                                                                                                                          
12000I     O31E11251470002512220160530113110002512251607604-PANAC           0002EFDLV15D65L                                                 00048720  0000000000000000000000                                                                                                                                          
12000I     O31E11251470002512220160530113110002512251607604-PANAC           0003EFDLV20D65L                                                 00095400  0000000000000000000000                                                                                                                                          
12000I     O31E11251470002512220160530113110002512251607604-PANAC           0004EFDLV8D65L                                                  00009240  0000000000000000000000                                                                                                                                          
