12000I     O31A11251470002512220160329134010002512241605627                        0002514700039415        41605627                 L31771MS                            NNMR. MICK      /                               1N10003827420160505SEA.FZLC                                                                   
12000I     O31A21251470002512220160329134010002512241605627                     FOB0                              USD                                                                20160605                SCMM       0002512241605627                 00038274                                                     
12000I     O31E11251470002512220160329134010002512241605627                 0001EFDLV11D65L                                                 00012000  0000000000000000000000                                                                                                                                          
12000I     O31E11251470002512220160329134010002512241605627                 0002EFDLV11L27L                                                 00006000  0000000000000000000000                                                                                                                                          
12000I     O31E11251470002512220160329134010002512241605627                 0003EFDLV15D65L                                                 00015600  0000000000000000000000                                                                                                                                          
12000I     O31E11251470002512220160329134010002512241605627                 0004EFDLV15L27L                                                 00015000  0000000000000000000000                                                                                                                                          
12000I     O31E11251470002512220160329134010002512241605627                 0005EFDLV20D65L                                                 00012000  0000000000000000000000                                                                                                                                          
12000I     O31E11251470002512220160329134010002512241605627                 0006EFDLV20L27L                                                 00015000  0000000000000000000000                                                                                                                                          
12000I     O31E11251470002512220160329134010002512241605627                 0007EFDLV8D65L                                                  00012000  0000000000000000000000                                                                                                                                          
12000I     O31E11251470002512220160329134010002512241605627                 0008EFDLV8L27L                                                  00016320  0000000000000000000000                                                                                                                                          
