12000I     O31A11390510002512120160531131510002512191607283                        0002514700039051000390515000033796               L31771                              NNT21/ATP                                        N 0003827420160629SEA.FMEX                                                               O   
12000I     O31A21390510002512120160531131510002512191607283                     FOB                               USD                                                                201608050003905100039051                   5000033796               00038274                                                     
12000I     O31E11390510002512120160531131510002512191607283                 0010EFDLV25D65L                                                 00011640PC0000000000000000000000        SEA.FMEX                                                                                                                          
12000I     O31E11390510002512120160531131510002512191607283                 0020EFDLV15L27L                                                 00002400PC0000000000000000000000        SEA.FMEX                                                                                                                          
12000I     O31E11390510002512120160531131510002512191607283                 0030EFDLV15D65L                                                 00012000PC0000000000000000000000        SEA.FMEX                                                                                                                          
12000I     O31E11390510002512120160531131510002512191607283                 0040EFDLV11L27L                                                 00002400PC0000000000000000000000        SEA.FMEX                                                                                                                          
12000I     O31E11390510002512120160531131510002512191607283                 0050EFDLV11D65L                                                 00001200PC0000000000000000000000        SEA.FMEX                                                                                                                          
