12000I     O31A11390510002512120161128170210002512191701161                        0002514700039051000390515000034954               L31771                              NNT21/ATP                                        N 0003827420161225SEA.FMEX                                                               O   
12000I     O31A21390510002512120161128170210002512191701161                     FOB                               USD                                                                201702050003905100039051SCMM               5000034954               00038274                                                     
12000I     O31E11390510002512120161128170210002512191701161                 0010EFDLV15D65L                                                 00002520PC0000000000000000000000        SEA.FMEX                                                                                                                          
12000I     O31E11390510002512120161128170210002512191701161                 0020EFDLV11D65L                                                 00001440PC0000000000000000000000        SEA.FMEX                                                                                                                          
12000I     O31E11390510002512120161128170210002512191701161                 0030EFDLV23D65L                                                 00008760PC0000000000000000000000        SEA.FMEX                                                                                                                          
