12000I     O31A11390510002512120180129184410002512191803176                        0002514700039051000390515000037409               L31771                              NNT21/ATP                                       1N10003827420180225SEA.FMEX                                                               O   
12000I     O31A21390510002512120180129184410002512191803176                     FOB                               USD                                                                201804050003905100039051SCMM               5000037409               00038274                                                     
12000I     O31E11390510002512120180129184410002512191803176                 0010EFDLV20D65L                                                 00007920PC0000000000000000000000        SEA.FMEX                                                                                                                          
12000I     O31E11390510002512120180129184410002512191803176                 0020EFDLV23D65L                                                 00007920PC0000000000000000000000        SEA.FMEX                                                                                                                          
12000I     O31E11390510002512120180129184410002512191803176                 0030EFDLV15D65L                                                 00005760PC0000000000000000000000        SEA.FMEX                                                                                                                          
