12000I     O31A11390510002512120171030203510002512191712183                        0002514700039051000390515000036958               L31771                              NNT21/ATP                                       1N10003827420171125SEA.FMEX                                                               O   
12000I     O31A21390510002512120171030203510002512191712183                     FOB                               USD                                                                201801050003905100039051SCMM               5000036958               00038274                                                     
12000I     O31E11390510002512120171030203510002512191712183                 0010EFDLV23D65L                                                 00007920PC0000000000000000000000        SEA.FMEX                                                                                                                          
12000I     O31E11390510002512120171030203510002512191712183                 0020EFDLV20D65L                                                 00007920PC0000000000000000000000        SEA.FMEX                                                                                                                          
