12000I     O31A11251470002512220160830114110002512241610627                        0002514700039415        41610627                 L31771MS                            NNMR. MICK      /                               1N10003827420161005SEA.FZLC                                                                   
12000I     O31A21251470002512220160830114110002512241610627                     FOB0                              USD                                                                20161105                SCMM       0002512241610627                 00038274                                                     
12000I     O31E11251470002512220160830114110002512241610627                 0001EFDLV11D65L                                                 00020880  0000000000000000000000                                                                                                                                          
12000I     O31E11251470002512220160830114110002512241610627                 0002EFDLV11L27L                                                 00004800  0000000000000000000000                                                                                                                                          
12000I     O31E11251470002512220160830114110002512241610627                 0003EFDLV15D65L                                                 00029280  0000000000000000000000                                                                                                                                          
12000I     O31E11251470002512220160830114110002512241610627                 0004EFDLV15L27L                                                 00013320  0000000000000000000000                                                                                                                                          
12000I     O31E11251470002512220160830114110002512241610627                 0005EFDLV20D65L                                                 00015360  0000000000000000000000                                                                                                                                          
12000I     O31E11251470002512220160830114110002512241610627                 0006EFDLV20L27L                                                 00007800  0000000000000000000000                                                                                                                                          
12000I     O31E11251470002512220160830114110002512241610627                 0007EFDLV25L27L                                                 00002520  0000000000000000000000                                                                                                                                          
12000I     O31E11251470002512220160830114110002512241610627                 0008EFDLV8D65L                                                  00010800  0000000000000000000000                                                                                                                                          
12000I     O31E11251470002512220160830114110002512241610627                 0009EFDLV8L27L                                                  00011880  0000000000000000000000                                                                                                                                          
