12000I     O31A11390510002512120170328115510002512191705214                        0002514700039051000390515000035616               L31771                              NNT21/ATP                                        N 0003827420170425SEA.FMEX                                                               O   
12000I     O31A21390510002512120170328115510002512191705214                     FOB                               USD                                                                201706050003905100039051SCMM               5000035616               00038274                                                     
12000I     O31E11390510002512120170328115510002512191705214                 0010EFDLV11D65L                                                 00001080PC0000000000000000000000        SEA.FMEX                                                                                                                          
12000I     O31E11390510002512120170328115510002512191705214                 0020EFDLV15D65L                                                 00003000PC0000000000000000000000        SEA.FMEX                                                                                                                          
12000I     O31E11390510002512120170328115510002512191705214                 0030EFDLV20D65L                                                 00004800PC0000000000000000000000        SEA.FMEX                                                                                                                          
12000I     O31E11390510002512120170328115510002512191705214                 0040EFDLV23D65L                                                 00008760PC0000000000000000000000        SEA.FMEX                                                                                                                          
12000I     O31E11390510002512120170328115510002512191705214                 0050EFDLV25D65L                                                 00001200PC0000000000000000000000        SEA.FMEX                                                                                                                          
