12000I     O31A11390580002512320160620154610002512391608155                     A  0002514700039058        1608-8107 -01-LIMA       L31771JDEDGARA                      NNJDEDGARA                      20160620        1N10003827420160708SEA.FCLL             C                                                     
12000I     O31A21390580002512320160620154610002512391608155                     FOB0                              USDFOB                                                             2016082500039058                   000390581608-8107 -01-LIMA       00038274                                                     
12000I     O31E11390580002512320160620154610002512391608155                 0001LDAHV9DH3A                                        00038274CB00003000  000000000000000000001020160825SEA.FCLL1608-8107 -01-LIMA01.00                                                                                                   
12000I     O31E11390580002512320160620154610002512391608155                 0002LDAHV9LH3A                                        00038274CB00001000  000000000000000000001020160825SEA.FCLL1608-8107 -01-LIMA02.00                                                                                                   
12000I     O31E11390580002512320160620154610002512391608155                 0003LDAHV11DH3A                                       00038274CB00001000  000000000000000000001020160825SEA.FCLL1608-8107 -01-LIMA03.00                                                                                                   
12000I     O31E11390580002512320160620154610002512391608155                 0004LDAHV11LH3A                                       00038274CB00001000  000000000000000000001020160825SEA.FCLL1608-8107 -01-LIMA04.00                                                                                                   
