12000I     O31A11390510002512120170522104010002512191706257                        0002514700039051000390515000036046               L31771                              NNGABRIELA SILVA                                 N 0003827420170530SEA.FMEX                                                               O   
12000I     O31A21390510002512120170522104010002512191706257                     FOB                               USD                                                                201707060003905100039051                   5000036046               00038274                                                     
12000I     O31E11390510002512120170522104010002512191706257                 0010EFDLV15D65L                                                 00006000PC0000000000000000000000        SEA.FMEX                                                                                                                          
