12000I     O31A11390510002512120161227121410002512191702146                        0002514700039051000390515000035088               L31771                              NNT21/ATP                                        N 0003827420170125SEA.FMEX                                                               O   
12000I     O31A21390510002512120161227121410002512191702146                     FOB                               USD                                                                201703050003905100039051SCMM               5000035088               00038274                                                     
12000I     O31E11390510002512120161227121410002512191702146                 0010EFDLV15D65L                                                 00006000PC0000000000000000000000        SEA.FMEX                                                                                                                          
12000I     O31E11390510002512120161227121410002512191702146                 0020EFDLV11D65L                                                 00001080PC0000000000000000000000        SEA.FMEX                                                                                                                          
12000I     O31E11390510002512120161227121410002512191702146                 0030EFDLV15L27L                                                 00001200PC0000000000000000000000        SEA.FMEX                                                                                                                          
12000I     O31E11390510002512120161227121410002512191702146                 0040EFDLV23D65L                                                 00008760PC0000000000000000000000        SEA.FMEX                                                                                                                          
12000I     O31E11390510002512120161227121410002512191702146                 0050EFDLV20D65L                                                 00004800PC0000000000000000000000        SEA.FMEX                                                                                                                          
