12000I     O31A11390580002512320160329190310002512391606169                     A  0002514700039058        1606-36031-14-LIMA       L31771JDANAM                        NNJDANAM                        20160329        1N100038274        SEA.FCLL             C                                                     
12000I     O31A21390580002512320160329190310002512391606169                     FOB0                              USDFOB                                                             2016060500039058                   000390581606-36031-14-LIMA       00038274                                                     
12000I     O31E11390580002512320160329190310002512391606169                 0001EFDHV11L27L                                       00038274CB00019920  000000000000000000001020160605SEA.FCLL1606-36031-14-LIMA01.00                                                                                                   
12000I     O31E11390580002512320160329190310002512391606169                 0002EFDHV15D65L                                       00038274CB00045000  000000000000000000001020160605SEA.FCLL1606-36031-14-LIMA02.00                                                                                                   
12000I     O31E11390580002512320160329190310002512391606169                 0003EFDHV20D65L                                       00038274CB00049920  000000000000000000001020160605SEA.FCLL1606-36031-14-LIMA03.00                                                                                                   
12000I     O31E11390580002512320160329190310002512391606169                 0004EFDHV20L27L                                       00038274CB00024960  000000000000000000001020160605SEA.FCLL1606-36031-14-LIMA04.00                                                                                                   
12000I     O31E11390580002512320160329190310002512391606169                 0005EFDHV23D65L                                       00038274CB00019920  000000000000000000001020160605SEA.FCLL1606-36031-14-LIMA05.00                                                                                                   
12000I     O31E11390580002512320160329190310002512391606169                 0006EFDHV23L27L                                       00038274CB00015000  000000000000000000001020160605SEA.FCLL1606-36031-14-LIMA06.00                                                                                                   
12000I     O31E11390580002512320160329190310002512391606169                 0007EFDHV25D65L                                       00038274CB00019920  000000000000000000001020160605SEA.FCLL1606-36031-14-LIMA07.00                                                                                                   
12000I     O31E11390580002512320160329190310002512391606169                 0008EFDHV25L27L                                       00038274CB00015000  000000000000000000001020160605SEA.FCLL1606-36031-14-LIMA08.00                                                                                                   
12000I     O31E11390580002512320160329190310002512391606169                 0009EFDHV42D65A                                       00038274CB00006000  000000000000000000001020160605SEA.FCLL1606-36031-14-LIMA09.00                                                                                                   
12000I     O31E11390580002512320160329190310002512391606169                 0010EFDHV8L27L                                        00038274CB00019920  000000000000000000001020160605SEA.FCLL1606-36031-14-LIMA10.00                                                                                                   
