12000I     O31A11390510002512120160517105110002512191606327                        0002514700039051000390515000033680               L31771                              NNGABRIELA SILVA                                 N 0003827420160525SEA.FMEX                                                               O   
12000I     O31A21390510002512120160517105110002512191606327                     FOB                               USD                                                                201607010003905100039051                   5000033680               00038274                                                     
12000I     O31E11390510002512120160517105110002512191606327                 0010EFDLV11L27L                                                 00001320PC0000000000000000000000        SEA.FMEX                                                                                                                          
12000I     O31E11390510002512120160517105110002512191606327                 0020EFDLV15D65L                                                 00007800PC0000000000000000000000        SEA.FMEX                                                                                                                          
12000I     O31E11390510002512120160517105110002512191606327                 0030EFDLV20L27L                                                 00003960PC0000000000000000000000        SEA.FMEX                                                                                                                          
12000I     O31E11390510002512120160517105110002512191606327                 0040EFDLV23L27L                                                 00003480PC0000000000000000000000        SEA.FMEX                                                                                                                          
12000I     O31E11390510002512120160517105110002512191606327                 0050EFDLV25D65L                                                 00017760PC0000000000000000000000        SEA.FMEX                                                                                                                          
12000I     O31E11390510002512120160517105110002512191606327                 0060EFDLV25L27L                                                 00001920PC0000000000000000000000        SEA.FMEX                                                                                                                          
