12000I     O31A11390510002512120170530101610002512191707190                        0002514700039051000390515000036105               L31771                              NNT21/ATP                                        N 0003827420170625SEA.FMEX                                                               O   
12000I     O31A21390510002512120170530101610002512191707190                     FOB                               USD                                                                201708050003905100039051SCMM               5000036105               00038274                                                     
12000I     O31E11390510002512120170530101610002512191707190                 0010EFDLV25D65L                                                 00001200PC0000000000000000000000        SEA.FMEX                                                                                                                          
12000I     O31E11390510002512120170530101610002512191707190                 0020EFDLV20D65L                                                 00007920PC0000000000000000000000        SEA.FMEX                                                                                                                          
12000I     O31E11390510002512120170530101610002512191707190                 0030EFDLV15D65L                                                 00006000PC0000000000000000000000        SEA.FMEX                                                                                                                          
