12000I     O31A11251470002512220160328112010002512251604003-PANAC                  0002514700029471        51604003-PANAC           L31771MR.                           YNMR.MICK/HELEN                                 1N10003827420160424SEA.FZLC                                                                   
12000I     O31A21251470002512220160328112010002512251604003-PANAC               FOB0                              USD                                                                20160525                           0002512251604003-PANAC           00038274                                                     
12000I     O31E11251470002512220160328112010002512251604003-PANAC           0001EFDLV8D65L                                                  00009600  0000000000000000000000                                                                                                                                          
12000I     O31E11251470002512220160328112010002512251604003-PANAC           0002EFDLV11D65L                                                 00006000  0000000000000000000000                                                                                                                                          
12000I     O31E11251470002512220160328112010002512251604003-PANAC           0003EFDLV15D65L                                                 00034800  0000000000000000000000                                                                                                                                          
12000I     O31E11251470002512220160328112010002512251604003-PANAC           0004EFDLV20L27L                                                 00003000  0000000000000000000000                                                                                                                                          
12000I     O31E11251470002512220160328112010002512251604003-PANAC           0005EFDLV20D65L                                                 00109200  0000000000000000000000                                                                                                                                          
