12000I     O31A11390510002512120161031171010002512191612141                        0002514700039051000390515000034764               L31771                              NNT21/ATP                                        N 0003827420161125SEA.FMEX                                                               O   
12000I     O31A21390510002512120161031171010002512191612141                     FOB                               USD                                                                201701050003905100039051SCMM               5000034764               00038274                                                     
12000I     O31E11390510002512120161031171010002512191612141                 0010EFDLV15D65L                                                 00003000PC0000000000000000000000        SEA.FMEX                                                                                                                          
