12000I     O31A11390580002512320160829162410002512391611073                     A  0002514700039058        1611-36081-21-LIMA       L31771JDEDGARA                      NNJDEDGARA                      20160829        1N10003827420160923SEA.FCLL             C                                                     
12000I     O31A21390580002512320160829162410002512391611073                     FOB0                              USDFOB                                                             2016110500039058        SCMM       000390581611-36081-21-LIMA       00038274                                                     
12000I     O31E11390580002512320160829162410002512391611073                 0001EFDHV11D65L                                       00038274CB00012000  000000000000000000001020161105SEA.FCLL1611-36081-21-LIMA01.00                                                                                                   
12000I     O31E11390580002512320160829162410002512391611073                 0002EFDHV15D65L                                       00038274CB00027960  000000000000000000001020161105SEA.FCLL1611-36081-21-LIMA02.00                                                                                                   
12000I     O31E11390580002512320160829162410002512391611073                 0003EFDHV20D65L                                       00038274CB00099840  000000000000000000001020161105SEA.FCLL1611-36081-21-LIMA03.00                                                                                                   
12000I     O31E11390580002512320160829162410002512391611073                 0004EFDHV23D65L                                       00038274CB00089880  000000000000000000001020161105SEA.FCLL1611-36081-21-LIMA04.00                                                                                                   
12000I     O31E11390580002512320160829162410002512391611073                 0005EFDHV23L27L                                       00038274CB00009960  000000000000000000001020161105SEA.FCLL1611-36081-21-LIMA05.00                                                                                                   
12000I     O31E11390580002512320160829162410002512391611073                 0006EFDHV25D65L                                       00038274CB00079680  000000000000000000001020161105SEA.FCLL1611-36081-21-LIMA06.00                                                                                                   
12000I     O31E11390580002512320160829162410002512391611073                 0007EFDHV32D65A                                       00038274CB00004920  000000000000000000001020161105SEA.FCLL1611-36081-21-LIMA07.00                                                                                                   
12000I     O31E11390580002512320160829162410002512391611073                 0008EFDHV8D65L                                        00038274CB00021960  000000000000000000001020161105SEA.FCLL1611-36081-21-LIMA08.00                                                                                                   
12000I     O31E11390580002512320160829162410002512391611073                 0009EFUHV11D65L                                       00038274CB00009000  000000000000000000001020161105SEA.FCLL1611-36081-21-LIMA09.00                                                                                                   
12000I     O31E11390580002512320160829162410002512391611073                 0010EFUHV14D65L                                       00038274CB00015000  000000000000000000001020161105SEA.FCLL1611-36081-21-LIMA10.00                                                                                                   
12000I     O31E11390580002512320160829162410002512391611073                 0011EFUHV14L27L                                       00038274CB00007000  000000000000000000001020161105SEA.FCLL1611-36081-21-LIMA11.00                                                                                                   
12000I     O31E11390580002512320160829162410002512391611073                 0012EFUHV18D65L                                       00038274CB00140000  000000000000000000001020161105SEA.FCLL1611-36081-21-LIMA12.00                                                                                                   
12000I     O31E11390580002512320160829162410002512391611073                 0013EFUHV8D65L                                        00038274CB00008000  000000000000000000001020161105SEA.FCLL1611-36081-21-LIMA13.00                                                                                                   
