12000I     O31A11390510002512120170228120210002512191704223                        0002514700039051000390515000035398               L31771                              NNT21/ATP                                        N 0003827420170325SEA.FMEX                                                               O   
12000I     O31A21390510002512120170228120210002512191704223                     FOB                               USD                                                                201705050003905100039051SCMM               5000035398               00038274                                                     
12000I     O31E11390510002512120170228120210002512191704223                 0010EFDLV23D65L                                                 00008760PC0000000000000000000000        SEA.FMEX                                                                                                                          
12000I     O31E11390510002512120170228120210002512191704223                 0020EFDLV15D65L                                                 00006000PC0000000000000000000000        SEA.FMEX                                                                                                                          
12000I     O31E11390510002512120170228120210002512191704223                 0030EFDLV11D65L                                                 00001080PC0000000000000000000000        SEA.FMEX                                                                                                                          
