12000I     O31A11251470002512220151223134610002512290000079                        0002514700039058        90000079                 S31771MS. SAORI                     NNMR. ORTEGA                                    1N100038274        SEA.FZLC                                                                   
12000I     O31A21251470002512220151223134610002512290000079                     FOB0                              USD                                                                20150125                           0002512290000079                 00038274                                                     
12000I     O31E11251470002512220151223134610002512290000079                 0001EFDHV15D65L                                                 00010000  0000000000000000000000                                                                                                                                          
12000I     O31A11251470002512220151223134610002512290000080                        0002514700039058        90000080                 S31771MS. SAORI                     NNMR. ORTEGA                                    1N100038274        SEA.FZLC                                                                   
12000I     O31A21251470002512220151223134610002512290000080                     FOB0                              USD                                                                20150125                           0002512290000080                 00038274                                                     
12000I     O31E11251470002512220151223134610002512290000080                 0001EFDHV20D65L                                                 00010000  0000000000000000000000                                                                                                                                          
12000I     O31E11251470002512220151223134610002512290000080                 0002EFDHV25D65L                                                 00030000  0000000000000000000000                                                                                                                                          
12000I     O31A11251470002512220151223134610002512290000081                        0002514700039058        90000081                 S31771MS. SAORI                     NNMR. ORTEGA                                    1N100038274        SEA.FZLC                                                                   
12000I     O31A21251470002512220151223134610002512290000081                     FOB0                              USD                                                                20150125                           0002512290000081                 00038274                                                     
12000I     O31E11251470002512220151223134610002512290000081                 0001EFDHV15D65L                                                 00010000  0000000000000000000000                                                                                                                                          
12000I     O31E11251470002512220151223134610002512290000081                 0002EFDHV20D65L                                                 00020000  0000000000000000000000                                                                                                                                          
12000I     O31E11251470002512220151223134610002512290000081                 0003EFDHV25D65L                                                 00030000  0000000000000000000000                                                                                                                                          
12000I     O31A11251470002512220151223134610002512290000082                        0002514700039058        90000082                 S31771MS. SAORI                     NNMR. ORTEGA                                    1N100038274        SEA.FZLC                                                                   
12000I     O31A21251470002512220151223134610002512290000082                     FOB0                              USD                                                                20150125                           0002512290000082                 00038274                                                     
12000I     O31E11251470002512220151223134610002512290000082                 0001EFDHV15D65L                                                 00005000  0000000000000000000000                                                                                                                                          
12000I     O31A11251470002512220151223134610002512290000083                        0002514700039058        90000083                 S31771MS. SAORI                     NNMR. ORTEGA                                    1N100038274        SEA.FZLC                                                                   
12000I     O31A21251470002512220151223134610002512290000083                     FOB0                              USD                                                                20150125                           0002512290000083                 00038274                                                     
12000I     O31E11251470002512220151223134610002512290000083                 0001EFDHV15D65L                                                 00010000  0000000000000000000000                                                                                                                                          
12000I     O31A11251470002512220151223134610002512290000084                        0002514700039058        90000084                 S31771MS. SAORI                     NNMR. ORTEGA                                    1N100038274        SEA.FZLC                                                                   
12000I     O31A21251470002512220151223134610002512290000084                     FOB0                              USD                                                                20150125                           0002512290000084                 00038274                                                     
12000I     O31E11251470002512220151223134610002512290000084                 0001EFDHV20D65L                                                 00010000  0000000000000000000000                                                                                                                                          
12000I     O31E11251470002512220151223134610002512290000084                 0002EFDHV25D65L                                                 00030000  0000000000000000000000                                                                                                                                          
12000I     O31A11251470002512220151223134610002512290000085                        0002514700039058        90000085                 S31771MS. SAORI                     NNMR. ORTEGA                                    1N100038274        SEA.FZLC                                                                   
12000I     O31A21251470002512220151223134610002512290000085                     FOB0                              USD                                                                20150125                           0002512290000085                 00038274                                                     
12000I     O31E11251470002512220151223134610002512290000085                 0001EFDHV15D65L                                                 00010000  0000000000000000000000                                                                                                                                          
12000I     O31E11251470002512220151223134610002512290000085                 0002EFDHV20D65L                                                 00020000  0000000000000000000000                                                                                                                                          
12000I     O31E11251470002512220151223134610002512290000085                 0003EFDHV25D65L                                                 00030000  0000000000000000000000                                                                                                                                          
12000I     O31A11251470002512220151223134610002512290000086                        0002514700039058        90000086                 S31771MS. SAORI                     NNMR. ORTEGA                                    1N100038274        SEA.FZLC                                                                   
12000I     O31A21251470002512220151223134610002512290000086                     FOB0                              USD                                                                20150125                           0002512290000086                 00038274                                                     
12000I     O31E11251470002512220151223134610002512290000086                 0001EFDHV15D65L                                                 00005000  0000000000000000000000                                                                                                                                          
