12000I     O31A11390580002512320160627110010002512391608181                     A  0002514700039058        1608-8115 -01-LIMA       L31771JDEDGARA                      NNJDEDGARA                      20160627        1N10003827420160713SEA.FCLL             C                                                     
12000I     O31A21390580002512320160627110010002512391608181                     FOB0                              USDFOB                                                             2016083000039058                   000390581608-8115 -01-LIMA       00038274                                                     
12000I     O31E11390580002512320160627110010002512391608181                 0001EFUHV8L27L                                        00038274CB00001000  000000000000000000001020160830SEA.FCLL1608-8115 -01-LIMA01.00                                                                                                   
12000I     O31A11390510002512120160628111310002512191608215                        0002514700039051000390515000033944               L31771                              NNT21/ATP                                        N 0003827420160725SEA.FMEX                                                               O   
12000I     O31A21390510002512120160628111310002512191608215                     FOB                               USD                                                                201609050003905100039051SCMM               5000033944               00038274                                                     
12000I     O31E11390510002512120160628111310002512191608215                 0010EFDLV15L27L                                                 00003000PC0000000000000000000000        SEA.FMEX                                                                                                                          
12000I     O31E11390510002512120160628111310002512191608215                 0020EFDLV11D65L                                                 00004920PC0000000000000000000000        SEA.FMEX                                                                                                                          
