12000I     O31A11296160002512020160704161310002512091608263                        0002514700027247        ACO7000003721            L31771                                RKLOBERTANZ                                    N 0003827420160711SEA.FBUE                                                               O   
12000I     O31A21296160002512020160704161310002512091608263                     FOB0                                 FOB                                                             20160905                           00027247ACO7000003721            00038274                                                     
12000I     O31E11296160002512020160704161310002512091608263                 0001EFDHV11D65L         EFDHV11D65L                             00036000  000000000000000000000020160722                                                                                                                                  
12000I     O31E11296160002512020160704161310002512091608263                 0002EFDHV11L27L         EFDHV11L27L                             00024000  000000000000000000000020160722                                                                                                                                  
12000I     O31E11296160002512020160704161310002512091608263                 0003EFDHV15D65L         EFDHV15D65L                             00048000  000000000000000000000020160722                                                                                                                                  
12000I     O31E11296160002512020160704161310002512091608263                 0004EFDHV15L27L         EFDHV15L27L                             00032040  000000000000000000000020160722                                                                                                                                  
12000I     O31E11296160002512020160704161310002512091608263                 0005EFDHV20D65L         EFDHV20D65L                             00063000  000000000000000000000020160722                                                                                                                                  
12000I     O31E11296160002512020160704161310002512091608263                 0006EFDHV20L27L         EFDHV20L27L                             00027000  000000000000000000000020160722                                                                                                                                  
12000I     O31E11296160002512020160704161310002512091608263                 0007EFDHV23D65L         EFDHV23D65L                             00042000  000000000000000000000020160722                                                                                                                                  
12000I     O31E11296160002512020160704161310002512091608263                 0008EFDHV23L27L         EFDHV23L27L                             00018000  000000000000000000000020160722                                                                                                                                  
12000I     O31E11296160002512020160704161310002512091608263                 0009EFDHV25D65L         EFDHV25D65L                             00084000  000000000000000000000020160722                                                                                                                                  
12000I     O31E11296160002512020160704161310002512091608263                 0010EFDHV25L27L         EFDHV25L27L                             00036000  000000000000000000000020160722                                                                                                                                  
12000I     O31E11296160002512020160704161310002512091608263                 0011EFDHV8D65L          EFDHV8D65L                              00024000  000000000000000000000020160722                                                                                                                                  
12000I     O31E11296160002512020160704161310002512091608263                 0012EFDHV8L27L          EFDHV8L27L                              00015960  000000000000000000000020160722                                                                                                                                  
