12000I     O31A11296160002512020160808182210002512091609270                        0002514700027247        ACO7000003801            L31771                                SCORTES                                        N 0003827420160810SEA.FBUE                                                               O   
12000I     O31A21296160002512020160808182210002512091609270                     FOB0                                 FOB                                                             20161005                           00027247ACO7000003801            00038274                                                     
12000I     O31E11296160002512020160808182210002512091609270                 0001EFDHV11D65L         EFDHV11D65L                             00024000  000000000000000000000020160821                                                                                                                                  
12000I     O31E11296160002512020160808182210002512091609270                 0002EFDHV11L27L         EFDHV11L27L                             00009600  000000000000000000000020160821                                                                                                                                  
12000I     O31E11296160002512020160808182210002512091609270                 0003EFDHV15D65L         EFDHV15D65L                             00026400  000000000000000000000020160821                                                                                                                                  
12000I     O31E11296160002512020160808182210002512091609270                 0004EFDHV15L27L         EFDHV15L27L                             00009600  000000000000000000000020160821                                                                                                                                  
12000I     O31E11296160002512020160808182210002512091609270                 0005EFDHV20D65L         EFDHV20D65L                             00018160  000000000000000000000020160821                                                                                                                                  
12000I     O31E11296160002512020160808182210002512091609270                 0006EFDHV20L27L         EFDHV20L27L                             00009600  000000000000000000000020160821                                                                                                                                  
12000I     O31E11296160002512020160808182210002512091609270                 0007EFDHV23D65L         EFDHV23D65L                             00038400  000000000000000000000020160821                                                                                                                                  
12000I     O31E11296160002512020160808182210002512091609270                 0008EFDHV23L27L         EFDHV23L27L                             00012000  000000000000000000000020160821                                                                                                                                  
12000I     O31E11296160002512020160808182210002512091609270                 0009EFDHV25D65L         EFDHV25D65L                             00038400  000000000000000000000020160821                                                                                                                                  
12000I     O31E11296160002512020160808182210002512091609270                 0010EFDHV25L27L         EFDHV25L27L                             00012000  000000000000000000000020160821                                                                                                                                  
12000I     O31E11296160002512020160808182210002512091609270                 0011EFDHV8D65L          EFDHV8D65L                              00012000  000000000000000000000020160821                                                                                                                                  
12000I     O31E11296160002512020160808182210002512091609270                 0012EFDHV8L27L          EFDHV8L27L                              00012000  000000000000000000000020160821                                                                                                                                  
