12000I     O31A11390510002512120160426105510002512191605329                        0002514700039051000390515000033546               L31771                              NNGABRIELA SILVA                                 N 0003827420160430SEA.FMEX                                                               O   
12000I     O31A21390510002512120160426105510002512191605329                     FOB                               USD                                                                201606060003905100039051                   5000033546               00038274                                                     
12000I     O31E11390510002512120160426105510002512191605329                 0010EFDLV11L27L                                                 00002160PC0000000000000000000000        SEA.FMEX                                                                                                                          
12000I     O31E11390510002512120160426105510002512191605329                 0020EFDLV15D65L                                                 00011880PC0000000000000000000000        SEA.FMEX                                                                                                                          
12000I     O31E11390510002512120160426105510002512191605329                 0030EFDLV15L27L                                                 00001920PC0000000000000000000000        SEA.FMEX                                                                                                                          
12000I     O31E11390510002512120160426105510002512191605329                 0040EFDLV20L27L                                                 00003960PC0000000000000000000000        SEA.FMEX                                                                                                                          
12000I     O31E11390510002512120160426105510002512191605329                 0050EFDLV23L27L                                                 00003600PC0000000000000000000000        SEA.FMEX                                                                                                                          
12000I     O31A11390580002512320160422143810002512391607049                     A  0002514700039058        1607-36041-15-LIMA       L31771JDEDGARA                      NNJDEDGARA                      20160422        1N10003827420160522SEA.FCLL             C                                                     
12000I     O31A21390580002512320160422143810002512391607049                     FOB0                              USDFOB                                                             2016070500039058        SCMM       000390581607-36041-15-LIMA       00038274                                                     
12000I     O31E11390580002512320160422143810002512391607049                 0001EFDHV11D65L                                       00038274CB00039960  000000000000000000001020160705SEA.FCLL1607-36041-15-LIMA01.00                                                                                                   
12000I     O31E11390580002512320160422143810002512391607049                 0002EFUHV18L27L                                       00038274CB00044000  000000000000000000001020160705SEA.FCLL1607-36041-15-LIMA02.00                                                                                                   
