129576     O31A113914600029576201503040900100025006LS-QEN4                       110002500620614702        31504606-PANALAT BOGOTA  FT    Ugi / Mr Joko                 N F/GDS - TRI(LATIN AMERICA  )  20150304        1N10002957620150408SEA.FCTG                                                               O   
129576     O31A213914600029576201503040900100025006LS-QEN4                      EXW                               USD                                                                20150505                SCMM                                        00029576                   20614702  P!LAT(CARTAGENA         
129576     O31A613914600029576201503040900100025006LS-QEN4                      T/T BY 10TH OF NEXT MONTH                         BY T/T REMITTANCE ON THE 10TH OF THE NEXT MONTH                                                                                                                                     
129576     O31E113914600029576201503040900100025006LS-QEN4                  0001EFDLV11D65L                                       00025347CB00003000PC000000000011520000001020150408SEA.FCTG31504606-PANALAT BOGOTA                                                                                                   
129576     O31E313914600029576201503040900100025006LS-QEN4                  0001                20150505                                                                                                                                                                                                              
129576     O31E113914600029576201503040900100025006LS-QEN4                  0002EFDLV15L27LC                                      00025347CB00002760PC000000000011620000001020150408SEA.FCTG31504606-PANALAT BOGOTA                                                                                                   
129576     O31E313914600029576201503040900100025006LS-QEN4                  0002                20150505                                                                                                                                                                                                              
129576     O31A113914600029576201503040900100025006LS-QEPS                       110002500600039415        41504622                 FT    Ugi / Mr Joko                 N F/GDS - TRI(LATIN AMERICA  )  20150304        1N10002957620150408SEA.FZLC                                                               O   
129576     O31A213914600029576201503040900100025006LS-QEPS                      EXW                               USD                                                                20150505                SCMM                                        00029576                   00039415  PLAT-COLON              
129576     O31A613914600029576201503040900100025006LS-QEPS                      T/T BY 10TH OF NEXT MONTH                         BY T/T REMITTANCE ON THE 10TH OF THE NEXT MONTH                                                                                                                                     
129576     O31E113914600029576201503040900100025006LS-QEPS                  0001EFDLV11D65L                                       00025347CB00005760PC000000000011520000001020150408SEA.FZLC41504622                                                                                                                  
129576     O31E313914600029576201503040900100025006LS-QEPS                  0001                20150505                                                                                                                                                                                                              
129576     O31E113914600029576201503040900100025006LS-QEPS                  0002EFDLV8L27L                                        00025347CB00009600PC000000000011920000001020150408SEA.FZLC41504622                                                                                                                  
129576     O31E313914600029576201503040900100025006LS-QEPS                  0002                20150505                                                                                                                                                                                                              
