129576     O31A113914600029576201503070900100025006LS-QRY5                       110002500600039415        41504026                 FT    Ugi / Mr Joko                 N F/GDS - TRI(LATIN AMERICA  )  20150307        1N10002957620150408SEA.FZLC                                                               O   
129576     O31A213914600029576201503070900100025006LS-QRY5                      EXW                               USD                                                                20150505                                                            00029576                   00039415  PLAT-COLON              
129576     O31A613914600029576201503070900100025006LS-QRY5                      T/T BY 10TH OF NEXT MONTH                         BY T/T REMITTANCE ON THE 10TH OF THE NEXT MONTH                                                                                                                                     
129576     O31E113914600029576201503070900100025006LS-QRY5                  0001EFDLV25D65L                                       00025347CB00006000PC000000000016720000001020150408SEA.FZLC41504026                                                                                                                  
129576     O31E313914600029576201503070900100025006LS-QRY5                  0001                20150505                                                                                                                                                                                                              
129576     O31A113914600029576201503070900100025006LS-QRXZ                       110002500600039415        41504025                 FT    Ugi / Mr Joko                 N F/GDS - TRI(LATIN AMERICA  )  20150307        1N10002957620150428SEA.FZLC                                                               O   
129576     O31A213914600029576201503070900100025006LS-QRXZ                      EXW                               USD                                                                20150525                                                            00029576                   00039415  PLAT-COLON              
129576     O31A613914600029576201503070900100025006LS-QRXZ                      T/T BY 10TH OF NEXT MONTH                         BY T/T REMITTANCE ON THE 10TH OF THE NEXT MONTH                                                                                                                                     
129576     O31E113914600029576201503070900100025006LS-QRXZ                  0001EFDLV8L27L                                        00025347CB00013560PC000000000011920000001020150428SEA.FZLC41504025                                                                                                                  
129576     O31E313914600029576201503070900100025006LS-QRXZ                  0001                20150525                                                                                                                                                                                                              
129576     O31E113914600029576201503070900100025006LS-QRXZ                  0002EFDLV11L27L                                       00025347CB00017640PC000000000011520000001020150428SEA.FZLC41504025                                                                                                                  
129576     O31E313914600029576201503070900100025006LS-QRXZ                  0002                20150525                                                                                                                                                                                                              
129576     O31E113914600029576201503070900100025006LS-QRXZ                  0003EFDLV11D65L                                       00025347CB00091800PC000000000011520000001020150428SEA.FZLC41504025                                                                                                                  
129576     O31E313914600029576201503070900100025006LS-QRXZ                  0003                20150525                                                                                                                                                                                                              
129576     O31E113914600029576201503070900100025006LS-QRXZ                  0004EFDLV15L27L                                       00025347CB00031080PC000000000011620000001020150428SEA.FZLC41504025                                                                                                                  
129576     O31E313914600029576201503070900100025006LS-QRXZ                  0004                20150525                                                                                                                                                                                                              
129576     O31E113914600029576201503070900100025006LS-QRXZ                  0005EFDLV15D65L                                       00025347CB00070440PC000000000011620000001020150428SEA.FZLC41504025                                                                                                                  
129576     O31E313914600029576201503070900100025006LS-QRXZ                  0005                20150525                                                                                                                                                                                                              
129576     O31E113914600029576201503070900100025006LS-QRXZ                  0006EFDLV20D65L                                       00025347CB00018000PC000000000001410000001020150428SEA.FZLC41504025                                                                                                                  
129576     O31E313914600029576201503070900100025006LS-QRXZ                  0006                20150525                                                                                                                                                                                                              
129576     O31E113914600029576201503070900100025006LS-QRXZ                  0007EFDLV23L27L                                       00025347CB00004320PC000000000015720000001020150428SEA.FZLC41504025                                                                                                                  
129576     O31E313914600029576201503070900100025006LS-QRXZ                  0007                20150525                                                                                                                                                                                                              
129576     O31E113914600029576201503070900100025006LS-QRXZ                  0008EFDLV23D65L                                       00025347CB00072000PC000000000015720000001020150428SEA.FZLC41504025                                                                                                                  
129576     O31E313914600029576201503070900100025006LS-QRXZ                  0008                20150525                                                                                                                                                                                                              
129576     O31E113914600029576201503070900100025006LS-QRXZ                  0009EFDLV25L27L                                       00025347CB00036000PC000000000016720000001020150428SEA.FZLC41504025                                                                                                                  
129576     O31E313914600029576201503070900100025006LS-QRXZ                  0009                20150525                                                                                                                                                                                                              
129576     O31E113914600029576201503070900100025006LS-QRXZ                  0010EFDLV25D65L                                       00025347CB00090000PC000000000016720000001020150428SEA.FZLC41504025                                                                                                                  
129576     O31E313914600029576201503070900100025006LS-QRXZ                  0010                20150525                                                                                                                                                                                                              
129576     O31E113914600029576201503070900100025006LS-QRXZ                  0011EFDLV8D65L                                        00025347CB00069000PC000000000011920000001020150428SEA.FZLC41504025                                                                                                                  
129576     O31E313914600029576201503070900100025006LS-QRXZ                  0011                20150525                                                                                                                                                                                                              
