129576     O31A113914600029576201504010301100025006LS-SGB5                       210002500620614702        31505609-PANALAT BOGOTA  FT    Ugi / Mr Joko                 N F/GDS - TRI(LATIN AMERICA  )  20150401        1N10002957620150507SEA.FCTG                                                               O401
129576     O31A213914600029576201504010301100025006LS-SGB5                      FOB                               USD                                                                20150605                SCMM                                        00029576                   20614702  P!LAT(CARTAGENA20150507 
129576     O31A613914600029576201504010301100025006LS-SGB5                      T/T BY 10TH OF NEXT MONTH                         BY T/T REMITTANCE ON THE 10TH OF THE NEXT MONTH                                                                                                                                     
129576     O31B113914600029576201504010301100025006LS-SGB5                      31505609-PANALAT BOGOTA                                                                                                                                                                                                               
129576     O31E113914600029576201504010301100025006LS-SGB5                  0001EFDLV11D65L                                       00025347CB00004920PC000000000011520000001020150507SEA.FCTG31505609-PANALAT BOGOTA                                                                                                   
129576     O31E913914600029576201504010301100025006LS-SGB5                  0001                20150605                                                                                                                                                                                                              
129576     O31E113914600029576201504010301100025006LS-SGB5                  0002EFDLV15L27LC                                      00025347CB00001920PC000000000011620000001020150507SEA.FCTG31505609-PANALAT BOGOTA                                                                                                   
129576     O31E913914600029576201504010301100025006LS-SGB5                  0002                20150605                                                                                                                                                                                                              
129576     O31E113914600029576201504010301100025006LS-SGB5                  0003EFDLV23D65LC                                      00025347CB00001800PC000000000015720000001020150507SEA.FCTG31505609-PANALAT BOGOTA                                                                                                   
129576     O31E913914600029576201504010301100025006LS-SGB5                  0003                20150605                                                                                                                                                                                                              
129576     O31E113914600029576201504010301100025006LS-SGB5                  0004EFDLV25D65L                                       00025347CB00019440PC000000000016720000001020150507SEA.FCTG31505609-PANALAT BOGOTA                                                                                                   
129576     O31E913914600029576201504010301100025006LS-SGB5                  0004                20150605                                                                                                                                                                                                              
129576     O31A113914600029576201504010301100025006LS-SGCA                       210002500600039415        41505626                 FT    Ugi / Mr Joko                 N F/GDS - TRI(LATIN AMERICA  )  20150401        1N10002957620150507SEA.FZLC                                                               O312
129576     O31A213914600029576201504010301100025006LS-SGCA                      FOB                               USD                                                                20150605                SCMM                                        00029576                   00039415  PLAT-COLON     20150507 
129576     O31A613914600029576201504010301100025006LS-SGCA                      T/T BY 10TH OF NEXT MONTH                         BY T/T REMITTANCE ON THE 10TH OF THE NEXT MONTH                                                                                                                                     
129576     O31B113914600029576201504010301100025006LS-SGCA                      PLAT-COLON                    41505626                      LS-SGCA                       C/NO.                                                                                                                                       
129576     O31E113914600029576201504010301100025006LS-SGCA                  0001EFDLV11D65L                                       00025347CB00011160PC000000000011520000001020150507SEA.FZLC41505626                                                                                                                  
129576     O31E913914600029576201504010301100025006LS-SGCA                  0001                20150605                                                                                                                                                                                                              
129576     O31E113914600029576201504010301100025006LS-SGCA                  0002EFDLV15D65L                                       00025347CB00004920PC000000000011620000001020150507SEA.FZLC41505626                                                                                                                  
129576     O31E913914600029576201504010301100025006LS-SGCA                  0002                20150605                                                                                                                                                                                                              
129576     O31E113914600029576201504010301100025006LS-SGCA                  0003EFDLV15L27L                                       00025347CB00006000PC000000000011620000001020150507SEA.FZLC41505626                                                                                                                  
129576     O31E913914600029576201504010301100025006LS-SGCA                  0003                20150605                                                                                                                                                                                                              
129576     O31E113914600029576201504010301100025006LS-SGCA                  0004EFDLV20D65L                                       00025347CB00007080PC000000000001410000001020150507SEA.FZLC41505626                                                                                                                  
129576     O31E913914600029576201504010301100025006LS-SGCA                  0004                20150605                                                                                                                                                                                                              
129576     O31E113914600029576201504010301100025006LS-SGCA                  0005EFDLV23L27L                                       00025347CB00004080PC000000000015720000001020150507SEA.FZLC41505626                                                                                                                  
129576     O31E913914600029576201504010301100025006LS-SGCA                  0005                20150605                                                                                                                                                                                                              
129576     O31E113914600029576201504010301100025006LS-SGCA                  0006EFDLV25D65L                                       00025347CB00013920PC000000000016720000001020150507SEA.FZLC41505626                                                                                                                  
129576     O31E913914600029576201504010301100025006LS-SGCA                  0006                20150605                                                                                                                                                                                                              
129576     O31E113914600029576201504010301100025006LS-SGCA                  0007EFDLV8L27L                                        00025347CB00012360PC000000000011920000001020150507SEA.FZLC41505626                                                                                                                  
129576     O31E913914600029576201504010301100025006LS-SGCA                  0007                20150605                                                                                                                                                                                                              
129576     O31A113914600029576201504010301100025006KY-SG89                       210002500600039130                                 FT    Ugi / Mr Joko                 N F/GDS - TRI(ASIA           )  20150331        1N10002957620150425SEA.FLKG                                                               O111
129576     O31A213914600029576201504010301100025006KY-SG89                      FOB                               USD                                                                20150510                SCMM                                        00029576                   00039130  PST            20150425 
129576     O31A613914600029576201504010301100025006KY-SG89                      T/T BY 10TH OF NEXT MONTH                         BY T/T REMITTANCE ON THE 10TH OF THE NEXT MONTH                                                                                                                                     
129576     O31B113914600029576201504010301100025006KY-SG89                      PST                           MST140432/LIGH-137036         KY-SG89                       LAT KRABANG                   C/NO.                                                                                                         
129576     O31E113914600029576201504010301100025006KY-SG89                  0001EFDHV11L27T         EFDHV11L27T                   00025347CB00014400PC000000000123510000100020150425SEA.FLKGMST140432/LIGH-137036                                                                                                     
129576     O31E913914600029576201504010301100025006KY-SG89                  0001                20150510                                                                                                                                                                                                              
129576     O31E113914600029576201504010301100025006KY-SG89                  0002EFDHV15D65T         EFDHV15D65T                   00025347CB00600000PC000000000123510000100020150425SEA.FLKGMST140432/LIGH-137036                                                                                                     
129576     O31E913914600029576201504010301100025006KY-SG89                  0002                20150510                                                                                                                                                                                                              
129576     O31E113914600029576201504010301100025006KY-SG89                  0003EFDHV15D65TD        EFDHV15D65TD                  00025347CB00240000PC000000000123510000100020150425SEA.FLKGMST140432/LIGH-137036                                                                                                     
129576     O31E913914600029576201504010301100025006KY-SG89                  0003                20150510                                                                                                                                                                                                              
129576     O31E113914600029576201504010301100025006KY-SG89                  0004EFDHV15L27T         EFDHV15L27T                   00025347CB00115200PC000000000123510000100020150425SEA.FLKGMST140432/LIGH-137036                                                                                                     
129576     O31E913914600029576201504010301100025006KY-SG89                  0004                20150510                                                                                                                                                                                                              
129576     O31E113914600029576201504010301100025006KY-SG89                  0005EFDHV20D65T         EFDHV20D65T                   00025347CB00240000PC000000001533820000100020150425SEA.FLKGMST140432/LIGH-137036                                                                                                     
129576     O31E913914600029576201504010301100025006KY-SG89                  0005                20150510                                                                                                                                                                                                              
129576     O31E113914600029576201504010301100025006KY-SG89                  0006EFDHV23D65T         EFDHV23D65T                   00025347CB00179520PC000000001533820000100020150425SEA.FLKGMST140432/LIGH-137036                                                                                                     
129576     O31E913914600029576201504010301100025006KY-SG89                  0006                20150510                                                                                                                                                                                                              
129576     O31E113914600029576201504010301100025006KY-SG89                  0007EFDHV23L27T         EFDHV23L27T                   00025347CB00036480PC000000001533820000100020150425SEA.FLKGMST140432/LIGH-137036                                                                                                     
129576     O31E913914600029576201504010301100025006KY-SG89                  0007                20150510                                                                                                                                                                                                              
129576     O31E113914600029576201504010301100025006KY-SG89                  0008EFDHV25D65T         EFDHV25D65T                   00025347CB01920000PC000000001533820000100020150425SEA.FLKGMST140432/LIGH-137036                                                                                                     
129576     O31E913914600029576201504010301100025006KY-SG89                  0008                20150510                                                                                                                                                                                                              
129576     O31E113914600029576201504010301100025006KY-SG89                  0009EFDHV25D65TD        EFDHV25D65TD                  00025347CB00960000PC000000001533820000100020150425SEA.FLKGMST140432/LIGH-137036                                                                                                     
129576     O31E913914600029576201504010301100025006KY-SG89                  0009                20150510                                                                                                                                                                                                              
129576     O31E113914600029576201504010301100025006KY-SG89                  0010EFDHV25L27T         EFDHV25L27T                   00025347CB00096000PC000000001533820000100020150425SEA.FLKGMST140432/LIGH-137036                                                                                                     
129576     O31E913914600029576201504010301100025006KY-SG89                  0010                20150510                                                                                                                                                                                                              
129576     O31E113914600029576201504010301100025006KY-SG89                  0011EFDHV5D65T          EFDHV5D65T                    00025347CB00067200PC000000001045820000100020150425SEA.FLKGMST140432/LIGH-137036                                                                                                     
129576     O31E913914600029576201504010301100025006KY-SG89                  0011                20150510                                                                                                                                                                                                              
129576     O31E113914600029576201504010301100025006KY-SG89                  0012EFDHV8D65T          EFDHV8D65T                    00025347CB00096000PC000000001045820000100020150425SEA.FLKGMST140432/LIGH-137036                                                                                                     
129576     O31E913914600029576201504010301100025006KY-SG89                  0012                20150510                                                                                                                                                                                                              
129576     O31E113914600029576201504010301100025006KY-SG89                  0013EFU11E272V          EFU11E272V                    00025347CB00100000PC000000001234520000100020150425SEA.FLKGMST140432/LIGH-137036                                                                                                     
129576     O31E913914600029576201504010301100025006KY-SG89                  0013                20150510                                                                                                                                                                                                              
129576     O31E113914600029576201504010301100025006KY-SG89                  0014EFU11E652V          EFU11E652V                    00025347CB00400000PC000000001234520000100020150425SEA.FLKGMST140432/LIGH-137036                                                                                                     
129576     O31E913914600029576201504010301100025006KY-SG89                  0014                20150510                                                                                                                                                                                                              
129576     O31E113914600029576201504010301100025006KY-SG89                  0015EFU14E272V          EFU14E272V                    00025347CB00240000PC000000001320320000100020150425SEA.FLKGMST140432/LIGH-137036                                                                                                     
129576     O31E913914600029576201504010301100025006KY-SG89                  0015                20150510                                                                                                                                                                                                              
129576     O31E113914600029576201504010301100025006KY-SG89                  0016EFU14E652V          EFU14E652V                    00025347CB02000000PC000000001320320000100020150425SEA.FLKGMST140432/LIGH-137036                                                                                                     
129576     O31E913914600029576201504010301100025006KY-SG89                  0016                20150510                                                                                                                                                                                                              
129576     O31E113914600029576201504010301100025006KY-SG89                  0017EFU18E272V          EFU18E272V                    00025347CB00060000PC000000001491920000100020150425SEA.FLKGMST140432/LIGH-137036                                                                                                     
129576     O31E913914600029576201504010301100025006KY-SG89                  0017                20150510                                                                                                                                                                                                              
129576     O31E113914600029576201504010301100025006KY-SG89                  0018EFU18E652V          EFU18E652V                    00025347CB00800000PC000000001491920000100020150425SEA.FLKGMST140432/LIGH-137036                                                                                                     
129576     O31E913914600029576201504010301100025006KY-SG89                  0018                20150510                                                                                                                                                                                                              
129576     O31E113914600029576201504010301100025006KY-SG89                  0019EFU5E282V           EFU5E282V                     00025347CB00100000PC000000001149720000100020150425SEA.FLKGMST140432/LIGH-137036                                                                                                     
129576     O31E913914600029576201504010301100025006KY-SG89                  0019                20150510                                                                                                                                                                                                              
129576     O31E113914600029576201504010301100025006KY-SG89                  0020EFU5E672V           EFU5E672V                     00025347CB00150000PC000000001149720000100020150425SEA.FLKGMST140432/LIGH-137036                                                                                                     
129576     O31E913914600029576201504010301100025006KY-SG89                  0020                20150510                                                                                                                                                                                                              
129576     O31E113914600029576201504010301100025006KY-SG89                  0021EFU8E272V           EFU8E272V                     00025347CB00150000PC000000001207920000100020150425SEA.FLKGMST140432/LIGH-137036                                                                                                     
129576     O31E913914600029576201504010301100025006KY-SG89                  0021                20150510                                                                                                                                                                                                              
129576     O31E113914600029576201504010301100025006KY-SG89                  0022EFU8E652V           EFU8E652V                     00025347CB00600000PC000000001207920000100020150425SEA.FLKGMST140432/LIGH-137036                                                                                                     
129576     O31E913914600029576201504010301100025006KY-SG89                  0022                20150510                                                                                                                                                                                                              
129576     O31E113914600029576201504010301100025006KY-SG89                  0023EFUHV14D65A         EFUHV14D65A                   00025347CB00720000PC000000001045820000100020150425SEA.FLKGMST140432/LIGH-137036                                                                                                     
129576     O31E913914600029576201504010301100025006KY-SG89                  0023                20150510                                                                                                                                                                                                              
129576     O31A113914600029576201504010301100025006KY-SFDE                       210002500600029073                                 FT    Ugi / Mr Joko                 N F/GDS - TRI(ASIA           )  20150331        1N10002957620150425SEA.FSIN                                                               O112
129576     O31A213914600029576201504010301100025006KY-SFDE                      FOB                               USD                                                                20150510                SCMM                                        00029576                   00029073  PSP-DD         20150425 
129576     O31A613914600029576201504010301100025006KY-SFDE                      T/T BY 10TH OF NEXT MONTH                         BY T/T REMITTANCE ON THE 10TH OF THE NEXT MONTH                                                                                                                                     
129576     O31B113914600029576201504010301100025006KY-SFDE                      PSP-DD                        MSP140322/DD5555-232515       KY-SFDE                       C/NO.                                                                                                                                       
129576     O31E113914600029576201504010301100025006KY-SFDE                  0001EFU11E652V          EFU11E652V                    00025347CB00002000PC000000001197120000100020150425SEA.FSINMSP140322/DD5555-232515                                                                                                   
129576     O31E913914600029576201504010301100025006KY-SFDE                  0001                20150510                                                                                                                                                                                                              
129576     O31E113914600029576201504010301100025006KY-SFDE                  0002EFU14E652V          EFU14E652V                    00025347CB00001000PC000000001257320000100020150425SEA.FSINMSP140322/DD5555-232515                                                                                                   
129576     O31E913914600029576201504010301100025006KY-SFDE                  0002                20150510                                                                                                                                                                                                              
129576     O31A113914600029576201504010301100025006KY-SFAH                       210002500600029073                                 FT    Ugi / Mr Joko                 N F/GDS - TRI(ASIA           )  20150331        1N10002957620150425SEA.FSIN                                                               O112
129576     O31A213914600029576201504010301100025006KY-SFAH                      FOB                               USD                                                                20150510                SCMM                                        00029576                   00029073  PSP-DD         20150425 
129576     O31A613914600029576201504010301100025006KY-SFAH                      T/T BY 10TH OF NEXT MONTH                         BY T/T REMITTANCE ON THE 10TH OF THE NEXT MONTH                                                                                                                                     
129576     O31B113914600029576201504010301100025006KY-SFAH                      PSP-DD                        MSP140359/DD5555-232516       KY-SFAH                       C/NO.                                                                                                                                       
129576     O31E113914600029576201504010301100025006KY-SFAH                  0001EFDHV11D65A         EFDHV11D65A                   00025347CB00009600PC000000000123510000100020150425SEA.FSINMSP140359/DD5555-232516                                                                                                   
129576     O31E913914600029576201504010301100025006KY-SFAH                  0001                20150510                                                                                                                                                                                                              
129576     O31E113914600029576201504010301100025006KY-SFAH                  0002EFDHV15D65A         EFDHV15D65A                   00025347CB00004800PC000000000123510000100020150425SEA.FSINMSP140359/DD5555-232516                                                                                                   
129576     O31E913914600029576201504010301100025006KY-SFAH                  0002                20150510                                                                                                                                                                                                              
129576     O31E113914600029576201504010301100025006KY-SFAH                  0003EFDHV20D65A         EFDHV20D65A                   00025347CB00017280PC000000001533820000100020150425SEA.FSINMSP140359/DD5555-232516                                                                                                   
129576     O31E913914600029576201504010301100025006KY-SFAH                  0003                20150510                                                                                                                                                                                                              
129576     O31E113914600029576201504010301100025006KY-SFAH                  0004EFDHV23D65A         EFDHV23D65A                   00025347CB00017280PC000000001533820000100020150425SEA.FSINMSP140359/DD5555-232516                                                                                                   
129576     O31E913914600029576201504010301100025006KY-SFAH                  0004                20150510                                                                                                                                                                                                              
129576     O31E113914600029576201504010301100025006KY-SFAH                  0005EFDHV25D65A         EFDHV25D65A                   00025347CB00013440PC000000001533820000100020150425SEA.FSINMSP140359/DD5555-232516                                                                                                   
129576     O31E913914600029576201504010301100025006KY-SFAH                  0005                20150510                                                                                                                                                                                                              
129576     O31E113914600029576201504010301100025006KY-SFAH                  0006EFDHV5D65A          EFDHV5D65A                    00025347CB00000960PC000000001045820000100020150425SEA.FSINMSP140359/DD5555-232516                                                                                                   
129576     O31E913914600029576201504010301100025006KY-SFAH                  0006                20150510                                                                                                                                                                                                              
129576     O31E113914600029576201504010301100025006KY-SFAH                  0007EFDHV8D65A          EFDHV8D65A                    00025347CB00003840PC000000001045820000100020150425SEA.FSINMSP140359/DD5555-232516                                                                                                   
129576     O31E913914600029576201504010301100025006KY-SFAH                  0007                20150510                                                                                                                                                                                                              
129576     O31A113914600029576201504010710100021573KY-SG84                       210002157300039130                                 BD                                  N F/GDS- NEW DC(ASIA           )20150331        CN10002957620150425SEA.FLKG                                                               O111
129576     O31A213914600029576201504010710100021573KY-SG84                      FOB FOB SURABAYA                  USD                                                                20150510                SCMM       00025108                         00029576                                            20150425 
129576     O31A813914600029576201504010710100021573KY-SG84                      BR REMITTANCE(CMS) 10TH OF NEXT MONTH AFTER SHIPMENT                                                                                                                                                                                  
129576     O31B113914600029576201504010710100021573KY-SG84                      PST                           MST140443/LIGH-137035         KY-SG84                       LAT KRABANG                   C/NO.                                                                                                         
129576     O31E113914600029576201504010710100021573KY-SG84                  0001LDAHV10D65H2AP      LDAHV10D65H2AP                00021573CB00010000PC000000000041920000001020150425SEA.FLKGMST140443/LIGH-137035                                                                                                     
129576     O31E913914600029576201504010710100021573KY-SG84                  0001                20150510                                                                                                                                                                                                              
129576     O31E113914600029576201504010710100021573KY-SG84                  0002LDAHV10L27H2AP      LDAHV10L27H2AP                00021573CB00005000PC000000000043120000001020150425SEA.FLKGMST140443/LIGH-137035                                                                                                     
129576     O31E913914600029576201504010710100021573KY-SG84                  0002                20150510                                                                                                                                                                                                              
129576     O31E113914600029576201504010710100021573KY-SG84                  0003LDAHV5D65H2AP       LDAHV5D65H2AP                 00021573CB00120000PC000000000029820000001020150425SEA.FLKGMST140443/LIGH-137035                                                                                                     
129576     O31E913914600029576201504010710100021573KY-SG84                  0003                20150510                                                                                                                                                                                                              
129576     O31E113914600029576201504010710100021573KY-SG84                  0004LDAHV5L27H2AP       LDAHV5L27H2AP                 00021573CB00020000PC000000000030920000001020150425SEA.FLKGMST140443/LIGH-137035                                                                                                     
129576     O31E913914600029576201504010710100021573KY-SG84                  0004                20150510                                                                                                                                                                                                              
129576     O31E113914600029576201504010710100021573KY-SG84                  0005LDAHV8D65H2AP       LDAHV8D65H2AP                 00021573CB00050000PC000000000003510000001020150425SEA.FLKGMST140443/LIGH-137035                                                                                                     
129576     O31E913914600029576201504010710100021573KY-SG84                  0005                20150510                                                                                                                                                                                                              
129576     O31E113914600029576201504010710100021573KY-SG84                  0006LDAHV8L27H2AP       LDAHV8L27H2AP                 00021573CB00025000PC000000000035320000001020150425SEA.FLKGMST140443/LIGH-137035                                                                                                     
129576     O31E913914600029576201504010710100021573KY-SG84                  0006                20150510                                                                                                                                                                                                              
