129576     O31A113914600029576201503240300200025006LS-QEN4                       110002500600039415        31504606-PANALAT BOGOTA  FT                                  N F/GDS - TRI(LATIN AMERICA  )  20150304        1N10002957620150408SEA.FZLC                                                               O   
129576     O31A213914600029576201503240300200025006LS-QEN4                      FOB                               USD                                                                20150505                SCMM                                        00029576                   00039415  PLAT-COLON              
129576     O31A613914600029576201503240300200025006LS-QEN4                      Consignee,F.Dest,F.Dest Country                                                                                                                                                                                                       
129576     O31E113914600029576201503240300 00025006LS-QEN4                  0001EFDLV11D65L                                       00025347CB00003000PC000000000011520000001020150408SEA.FZLC31504606-PANALAT BOGOTA                                                                                                   
129576     O31E313914600029576201503240300 00025006LS-QEN4                  0001                20150505                                                                                                                                                                                                              
129576     O31E113914600029576201503240300 00025006LS-QEN4                  0002EFDLV15L27LC                                      00025347CB00002760PC000000000011620000001020150408SEA.FZLC31504606-PANALAT BOGOTA                                                                                                   
129576     O31E313914600029576201503240300 00025006LS-QEN4                  0002                20150505                                                                                                                                                                                                              
