129576     O31A113914600029576201510280301100025006KY-7KA4                       210002500600029073                                 FT    Ugi / Mr Joko                 N F/GDS - TRI(ASIA           )  20151027        1N10002957620151204SEA.FSIN                                                               O112
129576     O31A213914600029576201510280301100025006KY-7KA4                      FOB                               USD                                                                20151210                SCMM                                        00029576                   00029073  PSP-DD         20151204 
129576     O31A613914600029576201510280301100025006KY-7KA4                      T/T BY 10TH OF NEXT MONTH                         BY T/T REMITTANCE ON THE 10TH OF THE NEXT MONTH                                                                                                                                     
129576     O31B113914600029576201510280301100025006KY-7KA4                      NO MARK                                                                                                                                                                                                                               
129576     O31E113914600029576201510280301100025006KY-7KA4                  0001FL20SS.D/18G        FL20SS.D/18                   00025345CB00060000PC000000000403320000100020151204SEA.FSINMSP147533/DD5555-233877                                                                                                   
129576     O31E913914600029576201510280301100025006KY-7KA4                  0001                20151210                                                                                                                                                                                                              
129576     O31E113914600029576201510280301100025006KY-7KA4                  0002FL40SS.D/36G        FL40SS.D/36                   00025345CB00100000PC000000000461420000100020151204SEA.FSINMSP147533/DD5555-233877                                                                                                   
129576     O31E913914600029576201510280301100025006KY-7KA4                  0002                20151210 