129576     O31A113914600029576201508201300100025006KY-2J48                       410002500620619678                                 FT    Ugi / Mr Joko                 N F/GDS - TRI(ASIA           )  20150820        1N10002957620150824AIR.FSGN                                                               O110
129576     O31A213914600029576201508201300100025006KY-2J48                      FOB                               USD                                                                20150903                                                            00029576                   20619678  PV-PSV HCM     20150824 
129576     O31A613914600029576201508201300100025006KY-2J48                      T/T BY 10TH OF NEXT MONTH                         BY T/T REMITTANCE ON THE 10TH OF THE NEXT MONTH                                                                                                                                     
129576     O31B113914600029576201508201300100025006KY-2J48                      PV-PSV                        MSV144881/I207-113342         C/NO.                                                                                                                                                                     
129576     O31E113914600029576201508201300100025006KY-2J48                  0001EFDHV23D65A         EFDHV23D65A                   00025347CB00011520PC000000001451220000100020150824AIR.FSGNMSV144881/I207-113342                                                                                                     
129576     O31E913914600029576201508201300100025006KY-2J48                  0001                20150903                                                                                                                                                                                                              
129576     O31E113914600029576201508201300100025006KY-2J48                  0002EFDHV23L27A         EFDHV23L27A                   00025347CB00002880PC000000001451220000100020150824AIR.FSGNMSV144881/I207-113342                                                                                                     
129576     O31E913914600029576201508201300100025006KY-2J48                  0002                20150903                                                                                                                                                                                                              
129576     O31E113914600029576201508201300100025006KY-2J48                  0003EFDHV25D65A         EFDHV25D65A                   00025347CB00020160PC000000001451220000100020150824AIR.FSGNMSV144881/I207-113342                                                                                                     
129576     O31E913914600029576201508201300100025006KY-2J48                  0003                20150903                                                                                                                                                                                                              
129576     O31E113914600029576201508201300100025006KY-2J48                  0004EFDHV8D65A          EFDHV8D65A                    00025347CB00299520PC000000000992420000100020150824AIR.FSGNMSV144881/I207-113342                                                                                                     
129576     O31E913914600029576201508201300100025006KY-2J48                  0004                20150903                                                                                                                                                                                                              
129576     O31A113914600029576201508201300100025006KY-2J46                       410002500620619678                                 FT    Ugi / Mr Joko                 N F/GDS - TRI(ASIA           )  20150820        1N10002957620150824AIR.FSGN                                                               O110
129576     O31A213914600029576201508201300100025006KY-2J46                      FOB                               USD                                                                20150901                                                            00029576                   20619678  PV-PSV HCM     20150824 
129576     O31A613914600029576201508201300100025006KY-2J46                      T/T BY 10TH OF NEXT MONTH                         BY T/T REMITTANCE ON THE 10TH OF THE NEXT MONTH                                                                                                                                     
129576     O31B113914600029576201508201300100025006KY-2J46                      PV-PSV                        MSV144880/I207-113343         C/NO.                                                                                                                                                                     
129576     O31E113914600029576201508201300100025006KY-2J46                  0001EFDHV5D65A          EFDHV5D65A                    00025347CB00006720PC000000000992420000100020150824AIR.FSGNMSV144880/I207-113343                                                                                                     
129576     O31E913914600029576201508201300100025006KY-2J46                  0001                20150901                                                                                                                                                                                                              
