129576     O31A113914600029576201505260300100025006KY-W8V6                       210002500600039130                                 FT    Ugi / Mr Joko                 N F/GDS - TRI(ASIA           )  20150525        1N10002957620150625SEA.FLKG                                                               O111
129576     O31A213914600029576201505260300100025006KY-W8V6                      FOB                               USD                                                                20150710                SCMM                                        00029576                   00039130  PST            20150625 
129576     O31A613914600029576201505260300100025006KY-W8V6                      T/T BY 10TH OF NEXT MONTH                         BY T/T REMITTANCE ON THE 10TH OF THE NEXT MONTH                                                                                                                                     
129576     O31B113914600029576201505260300100025006KY-W8V6                      PST                           MST142200/LIGH-137651         KY-W8V6                       LAT KRABANG                   C/NO.                                                                                                         
129576     O31E113914600029576201505260300100025006KY-W8V6                  0001EFDHV11D65T         EFDHV11D65T                   00025347CB00153600PC000000000123510000100020150625SEA.FLKGMST142200/LIGH-137651                                                                                                     
129576     O31E913914600029576201505260300100025006KY-W8V6                  0001                20150710                                                                                                                                                                                                              
129576     O31E113914600029576201505260300100025006KY-W8V6                  0002EFDHV11L27T         EFDHV11L27T                   00025347CB00067200PC000000000123510000100020150625SEA.FLKGMST142200/LIGH-137651                                                                                                     
129576     O31E913914600029576201505260300100025006KY-W8V6                  0002                20150710                                                                                                                                                                                                              
129576     O31E113914600029576201505260300100025006KY-W8V6                  0003EFDHV15D65T         EFDHV15D65T                   00025347CB00539520PC000000000123510000100020150625SEA.FLKGMST142200/LIGH-137651                                                                                                     
129576     O31E913914600029576201505260300100025006KY-W8V6                  0003                20150710                                                                                                                                                                                                              
129576     O31E113914600029576201505260300100025006KY-W8V6                  0004EFDHV15L27T         EFDHV15L27T                   00025347CB00115200PC000000000123510000100020150625SEA.FLKGMST142200/LIGH-137651                                                                                                     
129576     O31E913914600029576201505260300100025006KY-W8V6                  0004                20150710                                                                                                                                                                                                              
129576     O31E113914600029576201505260300100025006KY-W8V6                  0005EFDHV20D65T         EFDHV20D65T                   00025347CB00240000PC000000001533820000100020150625SEA.FLKGMST142200/LIGH-137651                                                                                                     
129576     O31E913914600029576201505260300100025006KY-W8V6                  0005                20150710                                                                                                                                                                                                              
129576     O31E113914600029576201505260300100025006KY-W8V6                  0006EFDHV20L27T         EFDHV20L27T                   00025347CB00043200PC000000001533820000100020150625SEA.FLKGMST142200/LIGH-137651                                                                                                     
129576     O31E913914600029576201505260300100025006KY-W8V6                  0006                20150710                                                                                                                                                                                                              
129576     O31E113914600029576201505260300100025006KY-W8V6                  0007EFDHV23D65T         EFDHV23D65T                   00025347CB00179520PC000000001533820000100020150625SEA.FLKGMST142200/LIGH-137651                                                                                                     
129576     O31E913914600029576201505260300100025006KY-W8V6                  0007                20150710                                                                                                                                                                                                              
129576     O31E113914600029576201505260300100025006KY-W8V6                  0008EFDHV23L27T         EFDHV23L27T                   00025347CB00024000PC000000001533820000100020150625SEA.FLKGMST142200/LIGH-137651                                                                                                     
129576     O31E913914600029576201505260300100025006KY-W8V6                  0008                20150710                                                                                                                                                                                                              
129576     O31E113914600029576201505260300100025006KY-W8V6                  0009EFDHV25D65T         EFDHV25D65T                   00025347CB03120000PC000000001533820000100020150625SEA.FLKGMST142200/LIGH-137651                                                                                                     
129576     O31E913914600029576201505260300100025006KY-W8V6                  0009                20150710                                                                                                                                                                                                              
129576     O31E113914600029576201505260300100025006KY-W8V6                  0010EFDHV25L27T         EFDHV25L27T                   00025347CB00144000PC000000001533820000100020150625SEA.FLKGMST142200/LIGH-137651                                                                                                     
129576     O31E913914600029576201505260300100025006KY-W8V6                  0010                20150710                                                                                                                                                                                                              
129576     O31E113914600029576201505260300100025006KY-W8V6                  0011EFDHV5D65T          EFDHV5D65T                    00025347CB00072000PC000000001045820000100020150625SEA.FLKGMST142200/LIGH-137651                                                                                                     
129576     O31E913914600029576201505260300100025006KY-W8V6                  0011                20150710                                                                                                                                                                                                              
129576     O31E113914600029576201505260300100025006KY-W8V6                  0012EFDHV5L27T          EFDHV5L27T                    00025347CB00024000PC000000001045820000100020150625SEA.FLKGMST142200/LIGH-137651                                                                                                     
129576     O31E913914600029576201505260300100025006KY-W8V6                  0012                20150710                                                                                                                                                                                                              
129576     O31E113914600029576201505260300100025006KY-W8V6                  0013EFDHV8D65T          EFDHV8D65T                    00025347CB00120000PC000000001045820000100020150625SEA.FLKGMST142200/LIGH-137651                                                                                                     
129576     O31E913914600029576201505260300100025006KY-W8V6                  0013                20150710                                                                                                                                                                                                              
129576     O31E113914600029576201505260300100025006KY-W8V6                  0014EFU11E272V          EFU11E272V                    00025347CB00150000PC000000001234520000100020150625SEA.FLKGMST142200/LIGH-137651                                                                                                     
129576     O31E913914600029576201505260300100025006KY-W8V6                  0014                20150710                                                                                                                                                                                                              
129576     O31E113914600029576201505260300100025006KY-W8V6                  0015EFU11E652V          EFU11E652V                    00025347CB00440000PC000000001234520000100020150625SEA.FLKGMST142200/LIGH-137651                                                                                                     
129576     O31E913914600029576201505260300100025006KY-W8V6                  0015                20150710                                                                                                                                                                                                              
129576     O31E113914600029576201505260300100025006KY-W8V6                  0016EFU14E272V          EFU14E272V                    00025347CB00240000PC000000001320320000100020150625SEA.FLKGMST142200/LIGH-137651                                                                                                     
129576     O31E913914600029576201505260300100025006KY-W8V6                  0016                20150710                                                                                                                                                                                                              
129576     O31E113914600029576201505260300100025006KY-W8V6                  0017EFU14E652V          EFU14E652V                    00025347CB02200000PC000000001320320000100020150625SEA.FLKGMST142200/LIGH-137651                                                                                                     
129576     O31E913914600029576201505260300100025006KY-W8V6                  0017                20150710                                                                                                                                                                                                              
129576     O31E113914600029576201505260300100025006KY-W8V6                  0018EFU18E272V          EFU18E272V                    00025347CB00063000PC000000001491920000100020150625SEA.FLKGMST142200/LIGH-137651                                                                                                     
129576     O31E913914600029576201505260300100025006KY-W8V6                  0018                20150710                                                                                                                                                                                                              
129576     O31E113914600029576201505260300100025006KY-W8V6                  0019EFU18E652V          EFU18E652V                    00025347CB00700000PC000000001491920000100020150625SEA.FLKGMST142200/LIGH-137651                                                                                                     
129576     O31E913914600029576201505260300100025006KY-W8V6                  0019                20150710                                                                                                                                                                                                              
129576     O31E113914600029576201505260300100025006KY-W8V6                  0020EFU5E282V           EFU5E282V                     00025347CB00100000PC000000001149720000100020150625SEA.FLKGMST142200/LIGH-137651                                                                                                     
129576     O31E913914600029576201505260300100025006KY-W8V6                  0020                20150710                                                                                                                                                                                                              
129576     O31E113914600029576201505260300100025006KY-W8V6                  0021EFU5E672V           EFU5E672V                     00025347CB00150000PC000000001149720000100020150625SEA.FLKGMST142200/LIGH-137651                                                                                                     
129576     O31E913914600029576201505260300100025006KY-W8V6                  0021                20150710                                                                                                                                                                                                              
129576     O31E113914600029576201505260300100025006KY-W8V6                  0022EFU8E272V           EFU8E272V                     00025347CB00150000PC000000001207920000100020150625SEA.FLKGMST142200/LIGH-137651                                                                                                     
129576     O31E913914600029576201505260300100025006KY-W8V6                  0022                20150710                                                                                                                                                                                                              
129576     O31E113914600029576201505260300100025006KY-W8V6                  0023EFU8E652V           EFU8E652V                     00025347CB00600000PC000000001207920000100020150625SEA.FLKGMST142200/LIGH-137651                                                                                                     
129576     O31E913914600029576201505260300100025006KY-W8V6                  0023                20150710                                                                                                                                                                                                              
129576     O31E113914600029576201505260300100025006KY-W8V6                  0024EFUHV11D65A         EFUHV11D65A                   00025347CB00240000PC000000000966120000100020150625SEA.FLKGMST142200/LIGH-137651                                                                                                     
129576     O31E913914600029576201505260300100025006KY-W8V6                  0024                20150710                                                                                                                                                                                                              
129576     O31E113914600029576201505260300100025006KY-W8V6                  0025EFUHV11L27A         EFUHV11L27A                   00025347CB00024000PC000000000966120000100020150625SEA.FLKGMST142200/LIGH-137651                                                                                                     
129576     O31E913914600029576201505260300100025006KY-W8V6                  0025                20150710                                                                                                                                                                                                              
129576     O31E113914600029576201505260300100025006KY-W8V6                  0026EFUHV14D65A         EFUHV14D65A                   00025347CB00650000PC000000001045820000100020150625SEA.FLKGMST142200/LIGH-137651                                                                                                     
129576     O31E913914600029576201505260300100025006KY-W8V6                  0026                20150710                                                                                                                                                                                                              
129576     O31E113914600029576201505260300100025006KY-W8V6                  0027EFUHV8L27A          EFUHV8L27A                    00025347CB00040000PC000000000966120000100020150625SEA.FLKGMST142200/LIGH-137651                                                                                                     
129576     O31E913914600029576201505260300100025006KY-W8V6                  0027                20150710                                                                                                                                                                                                              
129576     O31A113914600029576201505260300100025006KY-W8V4                       210002500620619678                                 FT    Ugi / Mr Joko                 N F/GDS - TRI(ASIA           )  20150525        1N10002957620150614SEA.FSGN                                                               O110
129576     O31A213914600029576201505260300100025006KY-W8V4                      FOB                               USD                                                                20150710                                                            00029576                   20619678  PV-PSV HCM     20150614 
129576     O31A613914600029576201505260300100025006KY-W8V4                      T/T BY 10TH OF NEXT MONTH                         BY T/T REMITTANCE ON THE 10TH OF THE NEXT MONTH                                                                                                                                     
129576     O31B113914600029576201505260300100025006KY-W8V4                      PV-PSV HCM                    MSV142199/I207-112927         KY-W8V4                       C/NO.                                                                                                                                       
129576     O31E113914600029576201505260300100025006KY-W8V4                  0001EFD11E27HD3A2       EFD11E27HD3A2                 00390770CB00050400PC000000001145420000100020150614SEA.FSGNMSV142199/I207-112927                                                                                                     
129576     O31E913914600029576201505260300100025006KY-W8V4                  0001                20150710                                                                                                                                                                                                              
129576     O31E113914600029576201505260300100025006KY-W8V4                  0002EFD11E65HD3A2       EFD11E65HD3A2                 00390770CB00060000PC000000001145420000100020150614SEA.FSGNMSV142199/I207-112927                                                                                                     
129576     O31E913914600029576201505260300100025006KY-W8V4                  0002                20150710                                                                                                                                                                                                              
129576     O31E113914600029576201505260300100025006KY-W8V4                  0003EFD14E27HD3A2       EFD14E27HD3A2                 00390770CB00025200PC000000001145420000100020150614SEA.FSGNMSV142199/I207-112927                                                                                                     
129576     O31E913914600029576201505260300100025006KY-W8V4                  0003                20150710                                                                                                                                                                                                              
129576     O31E113914600029576201505260300100025006KY-W8V4                  0004EFD14E65HD3A2       EFD14E65HD3A2                 00390770CB00079200PC000000001145420000100020150614SEA.FSGNMSV142199/I207-112927                                                                                                     
129576     O31E913914600029576201505260300100025006KY-W8V4                  0004                20150710                                                                                                                                                                                                              
129576     O31E113914600029576201505260300100025006KY-W8V4                  0005EFD22E27HD3A        EFD22E27HD3A                  00390770CB00002400PC000000001420320000100020150614SEA.FSGNMSV142199/I207-112927                                                                                                     
129576     O31E913914600029576201505260300100025006KY-W8V4                  0005                20150710                                                                                                                                                                                                              
129576     O31E113914600029576201505260300100025006KY-W8V4                  0006EFD22E65HD3A2       EFD22E65HD3A2                 00390770CB00006000PC000000001420320000100020150614SEA.FSGNMSV142199/I207-112927                                                                                                     
129576     O31E913914600029576201505260300100025006KY-W8V4                  0006                20150710                                                                                                                                                                                                              
129576     O31E113914600029576201505260300100025006KY-W8V4                  0007EFD25E27HD3A        EFD25E27HD3A                  00390770CB00013200PC000000001420320000100020150614SEA.FSGNMSV142199/I207-112927                                                                                                     
129576     O31E913914600029576201505260300100025006KY-W8V4                  0007                20150710                                                                                                                                                                                                              
129576     O31E113914600029576201505260300100025006KY-W8V4                  0008EFD25E65HD3A2       EFD25E65HD3A2                 00390770CB00009600PC000000001420320000100020150614SEA.FSGNMSV142199/I207-112927                                                                                                     
129576     O31E913914600029576201505260300100025006KY-W8V4                  0008                20150710                                                                                                                                                                                                              
129576     O31E113914600029576201505260300100025006KY-W8V4                  0009EFD5E27HD3A2        EFD5E27HD3A2                  00390770CB00009600PC000000000971320000100020150614SEA.FSGNMSV142199/I207-112927                                                                                                     
129576     O31E913914600029576201505260300100025006KY-W8V4                  0009                20150710                                                                                                                                                                                                              
129576     O31E113914600029576201505260300100025006KY-W8V4                  0010EFD8E27HD3A2        EFD8E27HD3A2                  00390770CB00050400PC000000000971320000100020150614SEA.FSGNMSV142199/I207-112927                                                                                                     
129576     O31E913914600029576201505260300100025006KY-W8V4                  0010                20150710                                                                                                                                                                                                              
129576     O31E113914600029576201505260300100025006KY-W8V4                  0011EFD8E65HD3A2        EFD8E65HD3A2                  00390770CB00030000PC000000000971320000100020150614SEA.FSGNMSV142199/I207-112927                                                                                                     
129576     O31E913914600029576201505260300100025006KY-W8V4                  0011                20150710                                                                                                                                                                                                              
