129576     O31A113914600029576201508050900100025006LS-1J6N                       210002500600039058        1511-7745 -01-LIMA       FT    Ugi / Mr Joko                 N F/GDS - TRI(LATIN AMERICA  )  20150805        1N10002957620150923SEA.FCLL                                                               O407
129576     O31A213914600029576201508050900100025006LS-1J6N                      FOB                               USD                                                                2015110500039058                                                    00029576                   00039058  PANAPERU       20150923 
129576     O31A613914600029576201508050900100025006LS-1J6N                      T/T BY 10TH OF NEXT MONTH                         BY T/T REMITTANCE ON THE 10TH OF THE NEXT MONTH                                                                                                                                     
129576     O31B113914600029576201508050900100025006LS-1J6N                      PANAPERU                      91511007                      LS-1J6N                       C/NO.                                                                                                                                       
129576     O31E113914600029576201508050900100025006LS-1J6N                  0001EFUHV18D65L                                       00025347CB00065000PC000000001374520000100020150923SEA.FCLL91511007                                                                                                                  
129576     O31E913914600029576201508050900100025006LS-1J6N                  0001                2015110500039058                                                                                                                                                                                                      
129576     O31E113914600029576201508050900100025006LS-1J6N                  0002EFUHV18L27L                                       00025347CB00021000PC000000001374520000100020150923SEA.FCLL91511007                                                                                                                  
129576     O31E913914600029576201508050900100025006LS-1J6N                  0002                2015110500039058                                                                                                                                                                                                      
