129576     O31A113914600029576201504180900100025006LS-TRVJ                       210002500600039051000390515000030933               FT    Ugi / Mr Joko                 N F/GDS - TRI(LATIN AMERICA  )  20150418        1N10002957620150430SEA.FMEX                                                               O305
129576     O31A213914600029576201504180900100025006LS-TRVJ                      FOB                               USD                                 PANAMEX                        201506010003905100039051                                            00029576                   00039051  PANAMEX        20150430 
129576     O31A613914600029576201504180900100025006LS-TRVJ                      T/T BY 10TH OF NEXT MONTH                         BY T/T REMITTANCE ON THE 10TH OF THE NEXT MONTH                                                                                                                                     
129576     O31B113914600029576201504180900100025006LS-TRVJ                      PANAMEX                       91505311                      LS-TRVJ                       C/NO.                                                                                                                                       
129576     O31E113914600029576201504180900100025006LS-TRVJ                  0001EFD11E65L3L                                       00025347CB00005160PC000000000011120000001020150430SEA.FMEX91505311                                                                                                                  
129576     O31E913914600029576201504180900100025006LS-TRVJ                  0001                2015060100039051                                                                                                                                                                                                      
129576     O31E113914600029576201504180900100025006LS-TRVJ                  0002EFD14E27L3L                                       00025347CB00003480PC000000000011120000001020150430SEA.FMEX91505311                                                                                                                  
129576     O31E913914600029576201504180900100025006LS-TRVJ                  0002                2015060100039051                                                                                                                                                                                                      
129576     O31E113914600029576201504180900100025006LS-TRVJ                  0003EFD19E27L3L                                       00025347CB00006120PC000000000012620000001020150430SEA.FMEX91505311                                                                                                                  
129576     O31E913914600029576201504180900100025006LS-TRVJ                  0003                2015060100039051                                                                                                                                                                                                      
129576     O31E113914600029576201504180900100025006LS-TRVJ                  0004EFD22E65L3L                                       00025347CB00015240PC000000000015820000001020150430SEA.FMEX91505311                                                                                                                  
129576     O31E913914600029576201504180900100025006LS-TRVJ                  0004                2015060100039051                                                                                                                                                                                                      
129576     O31E113914600029576201504180900100025006LS-TRVJ                  0005EFD25E65L3L                                       00025347CB00015960PC000000000015820000001020150430SEA.FMEX91505311                                                                                                                  
129576     O31E913914600029576201504180900100025006LS-TRVJ                  0005                2015060100039051                                                                                                                                                                                                      
