129576     O31A113914600029576201504210300100025006KY-TUHT                       21000250062062061620620616                         FT    Ugi / Mr Joko                 N F/GDS - TRI(ASIA           )  20150420        1N10002957620150623SEA.FSIN                                                               O112
129576     O31A213914600029576201504210300100025006KY-TUHT                      FOB                               USD                                 BLS                            20150710                                                            00029576                   20620616  BLS            20150623 
129576     O31A613914600029576201504210300100025006KY-TUHT                      T/T BY 10TH OF NEXT MONTH                         BY T/T REMITTANCE ON THE 10TH OF THE NEXT MONTH                                                                                                                                     
129576     O31B113914600029576201504210300100025006KY-TUHT                      BLS                           C/NO.                                                                                                                                                                                                   
129576     O31E113914600029576201504210300100025006KY-TUHT                  0001EFDHV11D65BA        EFDHV11D65BA                  00025347CB00024000PC000000000125510000100020150623SEA.FSINMGM140822/660-403251                                                                                                      
129576     O31E913914600029576201504210300100025006KY-TUHT                  0001                20150710                                                                                                                                                                                                              
129576     O31E113914600029576201504210300100025006KY-TUHT                  0002EFDHV11L27BA        EFDHV11L27BA                  00025347CB00002400PC000000000125510000100020150623SEA.FSINMGM140822/660-403251                                                                                                      
129576     O31E913914600029576201504210300100025006KY-TUHT                  0002                20150710                                                                                                                                                                                                              
129576     O31E113914600029576201504210300100025006KY-TUHT                  0003EFDHV15D65BA        EFDHV15D65BA                  00025347CB00072000PC000000000125510000100020150623SEA.FSINMGM140822/660-403251                                                                                                      
129576     O31E913914600029576201504210300100025006KY-TUHT                  0003                20150710                                                                                                                                                                                                              
129576     O31E113914600029576201504210300100025006KY-TUHT                  0004EFDHV23D65BA        EFDHV23D65BA                  00025347CB00035520PC000000001553820000100020150623SEA.FSINMGM140822/660-403251                                                                                                      
129576     O31E913914600029576201504210300100025006KY-TUHT                  0004                20150710                                                                                                                                                                                                              
129576     O31E113914600029576201504210300100025006KY-TUHT                  0005EFDHV25D65BA        EFDHV25D65BA                  00025347CB00048000PC000000001553820000100020150623SEA.FSINMGM140822/660-403251                                                                                                      
129576     O31E913914600029576201504210300100025006KY-TUHT                  0005                20150710                                                                                                                                                                                                              
129576     O31E113914600029576201504210300100025006KY-TUHT                  0006EFDHV5D65BA         EFDHV5D65BA                   00025347CB00096000PC000000001075720000100020150623SEA.FSINMGM140822/660-403251                                                                                                      
129576     O31E913914600029576201504210300100025006KY-TUHT                  0006                20150710                                                                                                                                                                                                              
129576     O31E113914600029576201504210300100025006KY-TUHT                  0007EFDHV8D65BA         EFDHV8D65BA                   00025347CB00024000PC000000001075720000100020150623SEA.FSINMGM140822/660-403251                                                                                                      
129576     O31E913914600029576201504210300100025006KY-TUHT                  0007                20150710                                                                                                                                                                                                              
129576     O31E113914600029576201504210300100025006KY-TUHT                  0008EFDHV20D65BA        EFDHV20D65BA                  00025347CB00059520PC000000001553820000100020150623SEA.FSINMGM140822/660-403251                                                                                                      
129576     O31E913914600029576201504210300100025006KY-TUHT                  0008                20150710                                                                                                                                                                                                              
