129576     O31A113914600029576201507140300100025006KY-ZV6Y                       210002500600039130                                 FT    Ugi / Mr Joko                 N F/GDS - TRI(ASIA           )  20150713        1N10002957620150720SEA.FLKG                                                               O111
129576     O31A213914600029576201507140300100025006KY-ZV6Y                      FOB                               USD                                                                20150804                                                            00029576                   00039130  PST            20150720 
129576     O31A613914600029576201507140300100025006KY-ZV6Y                      T/T BY 10TH OF NEXT MONTH                         BY T/T REMITTANCE ON THE 10TH OF THE NEXT MONTH                                                                                                                                     
129576     O31B113914600029576201507140300100025006KY-ZV6Y                      PST                           MST143747/LIGH-138246         KY-ZV6Y                       LAT KRABANG                   C/NO.                                                                                                         
129576     O31E113914600029576201507140300100025006KY-ZV6Y                  0001EFDHV15L27T         EFDHV15L27T                   00025347CB00240000PC000000000123510000100020150720SEA.FLKGMST143747/LIGH-138246                                                                                                     
129576     O31E913914600029576201507140300100025006KY-ZV6Y                  0001                20150804                                                                                                                                                                                                              
