129576     O31A113914600029576201509290900100025006LS-5EJL                       210002500600029471        51511602-PANAC           FT    Ugi / Mr Joko                 N F/GDS - TRI(LATIN AMERICA  )  20150929        1N10002957620151106SEA.FSJO                                                               O311
129576     O31A213914600029576201509290900100025006LS-5EJL                      FOB                               USD                                                                20151205                SCMM                                        00029576                   00029471  PCA            20151106 
129576     O31A613914600029576201509290900100025006LS-5EJL                      T/T BY 10TH OF NEXT MONTH                         BY T/T REMITTANCE ON THE 10TH OF THE NEXT MONTH                                                                                                                                     
129576     O31B113914600029576201509290900100025006LS-5EJL                      LS-5EJL                                                                                                                                                                                                                               
129576     O31E113914600029576201509290900100025006LS-5EJL                  0001EFDLV20D65L                                       00025347CB00019320PC000000001404420000100020151106SEA.FSJO51511602-PANAC                                                                                                            
129576     O31E913914600029576201509290900100025006LS-5EJL                  0001                20151205                                                                                                                                                                                                              
