129576     O31A113914600029576201508060300100025006DJ-1NM8                       21000250062001259020012590                         FT    Ugi / Mr Joko                 N F/GDS - TRI(MIDDLE-EAST    )  20150805        1N10002957620150813SEA.FRUH                                                               O137
129576     O31A213914600029576201508060300100025006DJ-1NM8                      FOB                               USD                                 AL-SAEED                       20150910                                                            00029576                   20012590  AL-SAEED       20150813 
129576     O31A613914600029576201508060300100025006DJ-1NM8                      T/T BY 10TH OF NEXT MONTH                         BY T/T REMITTANCE ON THE 10TH OF THE NEXT MONTH                                                                                                                                     
129576     O31B113914600029576201508060300100025006DJ-1NM8                      AL-SAEED                      4500100493                    DJ-1NM8                       C/NO.                                                                                                                                       
129576     O31E113914600029576201508060300100025006DJ-1NM8                  0001EFDHV15L27M         EFDHV15L27M                   00025347CB00043680PC000000000124510000100020150813SEA.FRUH4500100493                                                                                                                
129576     O31E913914600029576201508060300100025006DJ-1NM8                  0001                20150910                                                                                                                                                                                                              
129576     O31E113914600029576201508060300100025006DJ-1NM8                  0002EFDHV15D65M         EFDHV15D65M                   00025347CB00087360PC000000000124510000100020150813SEA.FRUH4500100493                                                                                                                
129576     O31E913914600029576201508060300100025006DJ-1NM8                  0002                20150910                                                                                                                                                                                                              
129576     O31E113914600029576201508060300100025006DJ-1NM8                  0003EFDHV23L27M         EFDHV23L27M                   00025347CB00026520PC000000001553820000100020150813SEA.FRUH4500100493                                                                                                                
129576     O31E913914600029576201508060300100025006DJ-1NM8                  0003                20150910                                                                                                                                                                                                              
129576     O31E113914600029576201508060300100025006DJ-1NM8                  0004EFDHV23D65M         EFDHV23D65M                   00025347CB00026520PC000000001553820000100020150813SEA.FRUH4500100493                                                                                                                
129576     O31E913914600029576201508060300100025006DJ-1NM8                  0004                20150910                                                                                                                                                                                                              
129576     O31E113914600029576201508060300100025006DJ-1NM8                  0005EFDHV25L27M         EFDHV25L27M                   00025347CB00024480PC000000001553820000100020150813SEA.FRUH4500100493                                                                                                                
129576     O31E913914600029576201508060300100025006DJ-1NM8                  0005                20150910                                                                                                                                                                                                              
129576     O31E113914600029576201508060300100025006DJ-1NM8                  0006EFDHV25D65M         EFDHV25D65M                   00025347CB00048960PC000000001553820000100020150813SEA.FRUH4500100493                                                                                                                
129576     O31E913914600029576201508060300100025006DJ-1NM8                  0006                20150910                                                                                                                                                                                                              
