129576     O31A113914600029576201507110900100025006LS-ZS0S                       210002500600039415        41508027                 FT    Ugi / Mr Joko                 N F/GDS - TRI(LATIN AMERICA  )  20150711        1N10002957620150827SEA.FZLC                                                               O312
129576     O31A213914600029576201507110900100025006LS-ZS0S                      FOB                               USD                                                                20150925                                                            00029576                   00039415  PLAT-COLON     20150827 
129576     O31A613914600029576201507110900100025006LS-ZS0S                      T/T BY 10TH OF NEXT MONTH                         BY T/T REMITTANCE ON THE 10TH OF THE NEXT MONTH                                                                                                                                     
129576     O31B113914600029576201507110900100025006LS-ZS0S                      PLAT-COLON                    41508027                      LS-ZS0S                       C/NO.                                                                                                                                       
129576     O31E113914600029576201507110900100025006LS-ZS0S                  0001EFDLV8D65L                                        00025347CB00014400PC000000001195220000100020150827SEA.FZLC41508027                                                                                                                  
129576     O31E913914600029576201507110900100025006LS-ZS0S                  0001                20150925                                                                                                                                                                                                              
129576     O31E113914600029576201507110900100025006LS-ZS0S                  0002EFDLV11L27L                                       00025347CB00025920PC000000001155420000100020150827SEA.FZLC41508027                                                                                                                  
129576     O31E913914600029576201507110900100025006LS-ZS0S                  0002                20150925                                                                                                                                                                                                              
129576     O31E113914600029576201507110900100025006LS-ZS0S                  0003EFDLV11D65L                                       00025347CB00043200PC000000001155420000100020150827SEA.FZLC41508027                                                                                                                  
129576     O31E913914600029576201507110900100025006LS-ZS0S                  0003                20150925                                                                                                                                                                                                              
129576     O31E113914600029576201507110900100025006LS-ZS0S                  0004EFDLV15L27L                                       00025347CB00012360PC000000001165320000100020150827SEA.FZLC41508027                                                                                                                  
129576     O31E913914600029576201507110900100025006LS-ZS0S                  0004                20150925                                                                                                                                                                                                              
129576     O31E113914600029576201507110900100025006LS-ZS0S                  0005EFDLV15D65L                                       00025347CB00053760PC000000001165320000100020150827SEA.FZLC41508027                                                                                                                  
129576     O31E913914600029576201507110900100025006LS-ZS0S                  0005                20150925                                                                                                                                                                                                              
129576     O31E113914600029576201507110900100025006LS-ZS0S                  0006EFDLV20D65L                                       00025347CB00033120PC000000001404420000100020150827SEA.FZLC41508027                                                                                                                  
129576     O31E913914600029576201507110900100025006LS-ZS0S                  0006                20150925                                                                                                                                                                                                              
129576     O31E113914600029576201507110900100025006LS-ZS0S                  0007EFDLV23L27L                                       00025347CB00012600PC000000001573720000100020150827SEA.FZLC41508027                                                                                                                  
129576     O31E913914600029576201507110900100025006LS-ZS0S                  0007                20150925                                                                                                                                                                                                              
129576     O31E113914600029576201507110900100025006LS-ZS0S                  0008EFDLV23D65L                                       00025347CB00013440PC000000001573720000100020150827SEA.FZLC41508027                                                                                                                  
129576     O31E913914600029576201507110900100025006LS-ZS0S                  0008                20150925                                                                                                                                                                                                              
129576     O31E113914600029576201507110900100025006LS-ZS0S                  0009EFDLV25L27L                                       00025347CB00027840PC000000001673320000100020150827SEA.FZLC41508027                                                                                                                  
129576     O31E913914600029576201507110900100025006LS-ZS0S                  0009                20150925                                                                                                                                                                                                              
129576     O31E113914600029576201507110900100025006LS-ZS0S                  0010EFDLV25D65L                                       00025347CB00043200PC000000001673320000100020150827SEA.FZLC41508027                                                                                                                  
129576     O31E913914600029576201507110900100025006LS-ZS0S                  0010                20150925                                                                                                                                                                                                              
