129576     O31A113914600029576201508180900100025006DJ-27LF                       21000250062001625520016255                         FT    Ugi / Mr Joko                 N F/GDS - TRI(AFRICA)           20150818        1N10002957620150912SEA.FCOO                                                               O519
129576     O31A213914600029576201508180900100025006DJ-27LF                      FOB                               USD                                 KUMESH                         20151010                                                            00029576                   20016255  KUMESH         20150912 
129576     O31A613914600029576201508180900100025006DJ-27LF                      T/T BY 10TH OF NEXT MONTH                         BY T/T REMITTANCE ON THE 10TH OF THE NEXT MONTH                                                                                                                                     
129576     O31B113914600029576201508180900100025006DJ-27LF                      DJ-27LF                       C/NO.                                                                                                                                                                                                   
129576     O31E113914600029576201508180900100025006DJ-27LF                  0001EFDHV5D65M          EFDHV5D65M                    00025347CB00036540PC000000001205220000100020150912SEA.FCOO4500101327                                                                                                                
129576     O31E913914600029576201508180900100025006DJ-27LF                  0001                20151010                                                                                                                                                                                                              
129576     O31E113914600029576201508180900100025006DJ-27LF                  0002EFDHV8D65M          EFDHV8D65M                    00025347CB00034200PC000000001205220000100020150912SEA.FCOO4500101327                                                                                                                
129576     O31E913914600029576201508180900100025006DJ-27LF                  0002                20151010                                                                                                                                                                                                              
129576     O31E113914600029576201508180900100025006DJ-27LF                  0003EFDHV11D65M         EFDHV11D65M                   00025347CB00078240PC000000000124510000100020150912SEA.FCOO4500101327                                                                                                                
129576     O31E913914600029576201508180900100025006DJ-27LF                  0003                20151010                                                                                                                                                                                                              
129576     O31E113914600029576201508180900100025006DJ-27LF                  0004EFDHV15D65M         EFDHV15D65M                   00025347CB00061080PC000000000124510000100020150912SEA.FCOO4500101327                                                                                                                
129576     O31E913914600029576201508180900100025006DJ-27LF                  0004                20151010                                                                                                                                                                                                              
129576     O31E113914600029576201508180900100025006DJ-27LF                  0005EFDHV20D65M         EFDHV20D65M                   00025347CB00046440PC000000001553820000100020150912SEA.FCOO4500101327                                                                                                                
129576     O31E913914600029576201508180900100025006DJ-27LF                  0005                20151010                                                                                                                                                                                                              
129576     O31E113914600029576201508180900100025006DJ-27LF                  0006EFDHV23D65M         EFDHV23D65M                   00025347CB00053040PC000000001553820000100020150912SEA.FCOO4500101327                                                                                                                
129576     O31E913914600029576201508180900100025006DJ-27LF                  0006                20151010                                                                                                                                                                                                              
129576     O31E113914600029576201508180900100025006DJ-27LF                  0007EFDHV25D65M         EFDHV25D65M                   00025347CB00073440PC000000001553820000100020150912SEA.FCOO4500101327                                                                                                                
129576     O31E913914600029576201508180900100025006DJ-27LF                  0007                20151010                                                                                                                                                                                                              
129576     O31E113914600029576201508180900100025006DJ-27LF                  0008EFDHV32D65A         EFDHV32D65M                   00025347CB00033600PC000000002559720000100020150912SEA.FCOO4500101327                                                                                                                
129576     O31E913914600029576201508180900100025006DJ-27LF                  0008                20151010                                                                                                                                                                                                              
129576     O31E113914600029576201508180900100025006DJ-27LF                  0009EFDHV42D65A         EFDHV42D65M                   00025347CB00024840PC000000002898420000100020150912SEA.FCOO4500101327                                                                                                                
129576     O31E913914600029576201508180900100025006DJ-27LF                  0009                20151010                                                                                                                                                                                                              
129576     O31E113914600029576201508180900100025006DJ-27LF                  0010EFDHV5D65BM         EFDHV5D65BM                   00025347CB00015660PC000000001205220000100020150912SEA.FCOO4500101327                                                                                                                
129576     O31E913914600029576201508180900100025006DJ-27LF                  0010                20151010                                                                                                                                                                                                              
129576     O31E113914600029576201508180900100025006DJ-27LF                  0011EFDHV8D65BM         EFDHV8D65BM                   00025347CB00014520PC000000001205220000100020150912SEA.FCOO4500101327                                                                                                                
129576     O31E913914600029576201508180900100025006DJ-27LF                  0011                20151010                                                                                                                                                                                                              
129576     O31E113914600029576201508180900100025006DJ-27LF                  0012EFDHV11D65BM        EFDHV11D65BM                  00025347CB00026160PC000000000124510000100020150912SEA.FCOO4500101327                                                                                                                
129576     O31E913914600029576201508180900100025006DJ-27LF                  0012                20151010                                                                                                                                                                                                              
129576     O31E113914600029576201508180900100025006DJ-27LF                  0013EFDHV15D65BM        EFDHV15D65BM                  00025347CB00026280PC000000000124510000100020150912SEA.FCOO4500101327                                                                                                                
129576     O31E913914600029576201508180900100025006DJ-27LF                  0013                20151010                                                                                                                                                                                                              
129576     O31E113914600029576201508180900100025006DJ-27LF                  0014EFDHV20D65BM        EFDHV20D65BM                  00025347CB00022200PC000000001553820000100020150912SEA.FCOO4500101327                                                                                                                
129576     O31E913914600029576201508180900100025006DJ-27LF                  0014                20151010                                                                                                                                                                                                              
129576     O31E113914600029576201508180900100025006DJ-27LF                  0015EFDHV23D65BM        EFDHV23D65BM                  00025347CB00026520PC000000001553820000100020150912SEA.FCOO4500101327                                                                                                                
129576     O31E913914600029576201508180900100025006DJ-27LF                  0015                20151010                                                                                                                                                                                                              
129576     O31E113914600029576201508180900100025006DJ-27LF                  0016EFDHV25D65BM        EFDHV25D65BM                  00025347CB00024480PC000000001553820000100020150912SEA.FCOO4500101327                                                                                                                
129576     O31E913914600029576201508180900100025006DJ-27LF                  0016                20151010                                                                                                                                                                                                              
129576     O31A113914600029576201508180900100025006DJ-27LE                       21000250062001625520016255                         FT    Ugi / Mr Joko                 N F/GDS - TRI(AFRICA)           20150818        1N10002957620150912SEA.FTMA                                                               O517
129576     O31A213914600029576201508180900100025006DJ-27LE                      FOB                               USD                                 KUMESH                         20151010                                                            00029576                   20016255  KUMESH         20150912 
129576     O31A613914600029576201508180900100025006DJ-27LE                      T/T BY 10TH OF NEXT MONTH                         BY T/T REMITTANCE ON THE 10TH OF THE NEXT MONTH                                                                                                                                     
129576     O31B113914600029576201508180900100025006DJ-27LE                      DJ-27LE                       C/NO.                                                                                                                                                                                                   
129576     O31E113914600029576201508180900100025006DJ-27LE                  0001EFDHV11D65M         EFDHV11D65M                   00025347CB00015720PC000000000124510000100020150912SEA.FTMA4500101328                                                                                                                
129576     O31E913914600029576201508180900100025006DJ-27LE                  0001                20151010                                                                                                                                                                                                              
129576     O31E113914600029576201508180900100025006DJ-27LE                  0002EFDHV15D65M         EFDHV15D65M                   00025347CB00017400PC000000000124510000100020150912SEA.FTMA4500101328                                                                                                                
129576     O31E913914600029576201508180900100025006DJ-27LE                  0002                20151010                                                                                                                                                                                                              
129576     O31E113914600029576201508180900100025006DJ-27LE                  0003EFDHV20D65M         EFDHV20D65M                   00025347CB00013800PC000000001553820000100020150912SEA.FTMA4500101328                                                                                                                
129576     O31E913914600029576201508180900100025006DJ-27LE                  0003                20151010                                                                                                                                                                                                              
129576     O31E113914600029576201508180900100025006DJ-27LE                  0004EFDHV23D65M         EFDHV23D65M                   00025347CB00021360PC000000001553820000100020150912SEA.FTMA4500101328                                                                                                                
129576     O31E913914600029576201508180900100025006DJ-27LE                  0004                20151010                                                                                                                                                                                                              
129576     O31E113914600029576201508180900100025006DJ-27LE                  0005EFDHV25D65M         EFDHV25D65M                   00025347CB00024480PC000000001553820000100020150912SEA.FTMA4500101328                                                                                                                
129576     O31E913914600029576201508180900100025006DJ-27LE                  0005                20151010                                                                                                                                                                                                              
129576     O31E113914600029576201508180900100025006DJ-27LE                  0006EFDHV32D65A         EFDHV32D65M                   00025347CB00016800PC000000002559720000100020150912SEA.FTMA4500101328                                                                                                                
129576     O31E913914600029576201508180900100025006DJ-27LE                  0006                20151010                                                                                                                                                                                                              
129576     O31E113914600029576201508180900100025006DJ-27LE                  0007EFDHV42D65A         EFDHV42D65M                   00025347CB00012420PC000000002898420000100020150912SEA.FTMA4500101328                                                                                                                
129576     O31E913914600029576201508180900100025006DJ-27LE                  0007                20151010                                                                                                                                                                                                              
129576     O31E113914600029576201508180900100025006DJ-27LE                  0008EFDHV11D65BM        EFDHV11D65BM                  00025347CB00036480PC000000000124510000100020150912SEA.FTMA4500101328                                                                                                                
129576     O31E913914600029576201508180900100025006DJ-27LE                  0008                20151010                                                                                                                                                                                                              
129576     O31E113914600029576201508180900100025006DJ-27LE                  0009EFDHV15D65BM        EFDHV15D65BM                  00025347CB00026280PC000000000124510000100020150912SEA.FTMA4500101328                                                                                                                
129576     O31E913914600029576201508180900100025006DJ-27LE                  0009                20151010                                                                                                                                                                                                              
129576     O31E113914600029576201508180900100025006DJ-27LE                  0010EFDHV20D65BM        EFDHV20D65BM                  00025347CB00020520PC000000001553820000100020150912SEA.FTMA4500101328                                                                                                                
129576     O31E913914600029576201508180900100025006DJ-27LE                  0010                20151010                                                                                                                                                                                                              
129576     O31E113914600029576201508180900100025006DJ-27LE                  0011EFDHV23D65BM        EFDHV23D65BM                  00025347CB00031680PC000000001553820000100020150912SEA.FTMA4500101328                                                                                                                
129576     O31E913914600029576201508180900100025006DJ-27LE                  0011                20151010                                                                                                                                                                                                              
129576     O31E113914600029576201508180900100025006DJ-27LE                  0012EFDHV25D65BM        EFDHV25D65BM                  00025347CB00024480PC000000001553820000100020150912SEA.FTMA4500101328                                                                                                                
129576     O31E913914600029576201508180900100025006DJ-27LE                  0012                20151010                                                                                                                                                                                                              
