129576     O31A113914600029576201512010900100025006LS-A1PX                       210002500620606063        31601603-COLOMBIA        FT    Ugi / Mr Joko                 N F/GDS - TRI(LATIN AMERICA  )  20151201        1N10002957620160107SEA.FBUN                                                               O401
129576     O31A213914600029576201512010900100025006LS-A1PX                      FOB                               USD                                                                20160205                SCMM                                        00029576                   20606063  PLAT BUENAVENT 20160107 
129576     O31A613914600029576201512010900100025006LS-A1PX                      T/T BY 10TH OF NEXT MONTH                         BY T/T REMITTANCE ON THE 10TH OF THE NEXT MONTH                                                                                                                                     
129576     O31B113914600029576201512010900100025006LS-A1PX                      NO MARK                                                                                                                                                                                                                               
129576     O31E113914600029576201512010900100025006LS-A1PX                  0001EFDLV23L27LC                                      00025347CB00001200PC000000001573720000100020160107SEA.FBUN31601603-COLOMBIA                                                                                                         
129576     O31E913914600029576201512010900100025006LS-A1PX                  0001                20160205                                                                                                                                                                                                              
129576     O31A113914600029576201512010900100025006LS-A1QM                       210002500600029471        51601601-PANAC           FT    Ugi / Mr Joko                 N F/GDS - TRI(LATIN AMERICA  )  20151201        1N10002957620160107SEA.FSJO                                                               O311
129576     O31A213914600029576201512010900100025006LS-A1QM                      FOB                               USD                                                                20160205                SCMM                                        00029576                   00029471  PCA            20160107 
129576     O31A613914600029576201512010900100025006LS-A1QM                      T/T BY 10TH OF NEXT MONTH                         BY T/T REMITTANCE ON THE 10TH OF THE NEXT MONTH                                                                                                                                     
129576     O31B113914600029576201512010900100025006LS-A1QM                      LS-A1QM                                                                                                                                                                                                                               
129576     O31E113914600029576201512010900100025006LS-A1QM                  0001EFDLV11D65L                                       00025347CB00010440PC000000001155420000100020160107SEA.FSJO51601601-PANAC                                                                                                            
129576     O31E913914600029576201512010900100025006LS-A1QM                  0001                20160205                                                                                                                                                                                                              
129576     O31A113914600029576201512010900100025006LS-A1ZH                       210002500600039051000390515000032561               FT    Ugi / Mr Joko                 N F/GDS - TRI(LATIN AMERICA  )  20151201        1N10002957620160104SEA.FMEX                                                               O305
129576     O31A213914600029576201512010900100025006LS-A1ZH                      FOB                               USD                                 PANAMEX                        201602050003905100039051SCMM                                        00029576                   00039051  PANAMEX        20160104 
129576     O31A613914600029576201512010900100025006LS-A1ZH                      T/T BY 10TH OF NEXT MONTH                         BY T/T REMITTANCE ON THE 10TH OF THE NEXT MONTH                                                                                                                                     
129576     O31B113914600029576201512010900100025006LS-A1ZH                      PANAMEX                       91601164                      LS-A1ZH                       C/NO.                                                                                                                                       
129576     O31E113914600029576201512010900100025006LS-A1ZH                  0001EFDLV15D65L                                       00025347CB00016920PC000000001115520000100020160104SEA.FMEX91601164                                                                                                                  
129576     O31E913914600029576201512010900100025006LS-A1ZH                  0001                2016020500039051                                                                                                                                                                                                      
129576     O31E113914600029576201512010900100025006LS-A1ZH                  0002EFDLV15L27L                                       00025347CB00001560PC000000001115520000100020160104SEA.FMEX91601164                                                                                                                  
129576     O31E913914600029576201512010900100025006LS-A1ZH                  0002                2016020500039051                                                                                                                                                                                                      
129576     O31E113914600029576201512010900100025006LS-A1ZH                  0003EFDLV20D65L                                       00025347CB00036000PC000000001264920000100020160104SEA.FMEX91601164                                                                                                                  
129576     O31E913914600029576201512010900100025006LS-A1ZH                  0003                2016020500039051                                                                                                                                                                                                      
129576     O31E113914600029576201512010900100025006LS-A1ZH                  0004EFDLV23D65L                                       00025347CB00030360PC000000001563720000100020160104SEA.FMEX91601164                                                                                                                  
129576     O31E913914600029576201512010900100025006LS-A1ZH                  0004                2016020500039051                                                                                                                                                                                                      
129576     O31E113914600029576201512010900100025006LS-A1ZH                  0005EFDLV25D65L                                       00025347CB00008640PC000000001563720000100020160104SEA.FMEX91601164                                                                                                                  
129576     O31E913914600029576201512010900100025006LS-A1ZH                  0005                2016020500039051                                                                                                                                                                                                      
