129576     O31A113914600029576201505270301100025006KY-WCMY                       210002500600039130                                 FT    Ugi / Mr Joko                 N F/GDS - TRI(ASIA           )  20150526        1N10002957620150630SEA.FLKG                                                               O111
129576     O31A213914600029576201505270301100025006KY-WCMY                      FOB                               USD                                                                20150715                                                            00029576                   00039130  PST            20150630 
129576     O31A613914600029576201505270301100025006KY-WCMY                      T/T BY 10TH OF NEXT MONTH                         BY T/T REMITTANCE ON THE 10TH OF THE NEXT MONTH                                                                                                                                     
129576     O31B113914600029576201505270301100025006KY-WCMY                      PST                           MST142483/LIGH-137724         KY-WCMY                       LAT KRABANG                   C/NO.                                                                                                         
129576     O31E113914600029576201505270301100025006KY-WCMY                  0001EFDHV42D65A         EFDHV42D65A                   00025347CB00120000PC000000003041320000100020150630SEA.FLKGMST142483/LIGH-137724                                                                                                     
129576     O31E913914600029576201505270301100025006KY-WCMY                  0001                20150715                                                                                                                                                                                                              
129576     O31A113914600029576201505270301100025006KY-WCMK                       210002500600039130                                 FT    Ugi / Mr Joko                 N F/GDS - TRI(ASIA           )  20150526        1N10002957620150630SEA.FLKG                                                               O111
129576     O31A213914600029576201505270301100025006KY-WCMK                      FOB                               USD                                                                20150715                                                            00029576                   00039130  PST            20150630 
129576     O31A613914600029576201505270301100025006KY-WCMK                      T/T BY 10TH OF NEXT MONTH                         BY T/T REMITTANCE ON THE 10TH OF THE NEXT MONTH                                                                                                                                     
129576     O31B113914600029576201505270301100025006KY-WCMK                      PST                           MST142485/LIGH-137716         KY-WCMK                       LAT KRABANG                   C/NO.                                                                                                         
129576     O31E113914600029576201505270301100025006KY-WCMK                  0001EFDHV32D65A         EFDHV32D65A                   00025347CB00100000PC000000000274710000100020150630SEA.FLKGMST142485/LIGH-137716                                                                                                     
129576     O31E913914600029576201505270301100025006KY-WCMK                  0001                20150715                                                                                                                                                                                                              
129576     O31E113914600029576201505270301100025006KY-WCMK                  0002EFUHV18L27A         EFUHV18L27A                   00025347CB00080000PC000000001354620000100020150630SEA.FLKGMST142485/LIGH-137716                                                                                                     
129576     O31E913914600029576201505270301100025006KY-WCMK                  0002                20150715                                                                                                                                                                                                              
129576     O31E113914600029576201505270301100025006KY-WCMK                  0003EFUHV23D65A         EFUHV23D65A                   00025347CB00800000PC000000001424320000100020150630SEA.FLKGMST142485/LIGH-137716                                                                                                     
129576     O31E913914600029576201505270301100025006KY-WCMK                  0003                20150715                                                                                                                                                                                                              
129576     O31E113914600029576201505270301100025006KY-WCMK                  0004EFUHV23L27A         EFUHV23L27A                   00025347CB00080000PC000000001424320000100020150630SEA.FLKGMST142485/LIGH-137716                                                                                                     
129576     O31E913914600029576201505270301100025006KY-WCMK                  0004                20150715                                                                                                                                                                                                              
129576     O31A113914600029576201505270301100025006KY-WBMT                       210002500600029073                                 FT    Ugi / Mr Joko                 N F/GDS - TRI(ASIA           )  20150526        1N10002957620150624SEA.FSIN                                                               O112
129576     O31A213914600029576201505270301100025006KY-WBMT                      FOB                               USD                                                                20150710                SCMM                                        00029576                   00029073  PSP-DD         20150624 
129576     O31A613914600029576201505270301100025006KY-WBMT                      T/T BY 10TH OF NEXT MONTH                         BY T/T REMITTANCE ON THE 10TH OF THE NEXT MONTH                                                                                                                                     
129576     O31B113914600029576201505270301100025006KY-WBMT                      PSP-DD                        MSP142380/DD5555-232879       KY-WBMT                       C/NO.                                                                                                                                       
129576     O31E113914600029576201505270301100025006KY-WBMT                  0001EFU18E652V          EFU18E652V                    00025347CB00003000PC000000001367620000100020150624SEA.FSINMSP142380/DD5555-232879                                                                                                   
129576     O31E913914600029576201505270301100025006KY-WBMT                  0001                20150710                                                                                                                                                                                                              
129576     O31E113914600029576201505270301100025006KY-WBMT                  0002EFU8E652V           EFU8E652V                     00025347CB00003000PC000000001171420000100020150624SEA.FSINMSP142380/DD5555-232879                                                                                                   
129576     O31E913914600029576201505270301100025006KY-WBMT                  0002                20150710                                                                                                                                                                                                              
129576     O31A113914600029576201505270301100025006KY-WCMJ                       210002500600039130                                 FT    Ugi / Mr Joko                 N F/GDS - TRI(ASIA           )  20150526        1N10002957620150629SEA.FLKG                                                               O111
129576     O31A213914600029576201505270301100025006KY-WCMJ                      FOB                               USD                                                                20150714                                                            00029576                   00039130  PST            20150629 
129576     O31A613914600029576201505270301100025006KY-WCMJ                      T/T BY 10TH OF NEXT MONTH                         BY T/T REMITTANCE ON THE 10TH OF THE NEXT MONTH                                                                                                                                     
129576     O31B113914600029576201505270301100025006KY-WCMJ                      PST                           MST142479/LIGH-137730         KY-WCMJ                       LAT KRABANG                   C/NO.                                                                                                         
129576     O31E113914600029576201505270301100025006KY-WCMJ                  0001EFUHV18D65A         EFUHV18D65A                   00025347CB00800000PC000000001354620000100020150629SEA.FLKGMST142479/LIGH-137730                                                                                                     
129576     O31E913914600029576201505270301100025006KY-WCMJ                  0001                20150714                                                                                                                                                                                                              
129576     O31A113914600029576201505270301100025006KY-WBLK                       210002500600029073                                 FT    Ugi / Mr Joko                 N F/GDS - TRI(ASIA           )  20150526        1N10002957620150624SEA.FSIN                                                               O112
129576     O31A213914600029576201505270301100025006KY-WBLK                      FOB                               USD                                                                20150710                SCMM                                        00029576                   00029073  PSP-DD         20150624 
129576     O31A613914600029576201505270301100025006KY-WBLK                      T/T BY 10TH OF NEXT MONTH                         BY T/T REMITTANCE ON THE 10TH OF THE NEXT MONTH                                                                                                                                     
129576     O31B113914600029576201505270301100025006KY-WBLK                      PSP-DD                        MSP142429/DD5555-232869       KY-WBLK                       C/NO.                                                                                                                                       
129576     O31E113914600029576201505270301100025006KY-WBLK                  0001EFDHV15L27A         EFDHV15L27A                   00025347CB00003840PC000000000123510000100020150624SEA.FSINMSP142429/DD5555-232869                                                                                                   
129576     O31E913914600029576201505270301100025006KY-WBLK                  0001                20150710                                                                                                                                                                                                              
                                                                                                                                                                                                             
