129576     O31A113914600029576201509040300100025006KY-3MWW                       21000250062062061620620616                         FT    Ugi / Mr Joko                 N F/GDS - TRI(ASIA           )  20150903        1N10002957620150913SEA.FSIN                                                               O112
129576     O31A213914600029576201509040300100025006KY-3MWW                      FOB                               USD                                 BLS                            20151011                                                            00029576                   20620616  BLS            20150913 
129576     O31A613914600029576201509040300100025006KY-3MWW                      T/T BY 10TH OF NEXT MONTH                         BY T/T REMITTANCE ON THE 10TH OF THE NEXT MONTH                                                                                                                                     
129576     O31B113914600029576201509040300100025006KY-3MWW                      BLS                           C/NO.                                                                                                                                                                                                   
129576     O31E113914600029576201509040300100025006KY-3MWW                  0001EFD19E65HD3A        EFD19E65HD3A                  00390770CB00024000PC000000001336220000100020150913SEA.FSINMGM145644/660-403721                                                                                                      
129576     O31E913914600029576201509040300100025006KY-3MWW                  0001                20151011                                                                                                                                                                                                              
129576     O31E113914600029576201509040300100025006KY-3MWW                  0002EFD11E65HD3A2       EFD11E65HD3A2                 00390770CB00024000PC000000001120520000100020150913SEA.FSINMGM145644/660-403721                                                                                                      
129576     O31E913914600029576201509040300100025006KY-3MWW                  0002                20151011                                                                                                                                                                                                              
129576     O31E113914600029576201509040300100025006KY-3MWW                  0003EFD25E65HD3A2       EFD25E65HD3A2                 00390770CB00048000PC000000001398420000100020150913SEA.FSINMGM145644/660-403721                                                                                                      
129576     O31E913914600029576201509040300100025006KY-3MWW                  0003                20151011                                                                                                                                                                                                              
129576     O31E113914600029576201509040300100025006KY-3MWW                  0004EFD5E65HD3A2        EFD5E65HD3A2                  00390770CB00040800PC000000000991120000100020150913SEA.FSINMGM145644/660-403721                                                                                                      
129576     O31E913914600029576201509040300100025006KY-3MWW                  0004                20151011                                                                                                                                                                                                              
129576     O31E113914600029576201509040300100025006KY-3MWW                  0005EFD8E65HD3A2        EFD8E65HD3A2                  00390770CB00024000PC000000000991120000100020150913SEA.FSINMGM145644/660-403721                                                                                                      
129576     O31E913914600029576201509040300100025006KY-3MWW                  0005                20151011                                                                                                                                                                                                              
129576     O31A113914600029576201509040300100025006KY-3MWV                       21000250062062061620620616                         FT    Ugi / Mr Joko                 N F/GDS - TRI(ASIA           )  20150903        1N10002957620151014SEA.FSIN                                                               O112
129576     O31A213914600029576201509040300100025006KY-3MWV                      FOB                               USD                                 BLS                            20151111                                                            00029576                   20620616  BLS            20151014 
129576     O31A613914600029576201509040300100025006KY-3MWV                      T/T BY 10TH OF NEXT MONTH                         BY T/T REMITTANCE ON THE 10TH OF THE NEXT MONTH                                                                                                                                     
129576     O31B113914600029576201509040300100025006KY-3MWV                      BLS                           C/NO.                                                                                                                                                                                                   
129576     O31E113914600029576201509040300100025006KY-3MWV                  0001EFD19E65HD3A        EFD19E65HD3A                  00390770CB00024000PC000000001336220000100020151014SEA.FSINMGM145647/660-403720                                                                                                      
129576     O31E913914600029576201509040300100025006KY-3MWV                  0001                20151111                                                                                                                                                                                                              
129576     O31E113914600029576201509040300100025006KY-3MWV                  0002EFD11E65HD3A2       EFD11E65HD3A2                 00390770CB00024000PC000000001120520000100020151014SEA.FSINMGM145647/660-403720                                                                                                      
129576     O31E913914600029576201509040300100025006KY-3MWV                  0002                20151111                                                                                                                                                                                                              
129576     O31E113914600029576201509040300100025006KY-3MWV                  0003EFD14E65HD3A2       EFD14E65HD3A2                 00390770CB00024000PC000000001095620000100020151014SEA.FSINMGM145647/660-403720                                                                                                      
129576     O31E913914600029576201509040300100025006KY-3MWV                  0003                20151111                                                                                                                                                                                                              
129576     O31E113914600029576201509040300100025006KY-3MWV                  0004EFD22E65HD3A2       EFD22E65HD3A2                 00390770CB00054000PC000000001398420000100020151014SEA.FSINMGM145647/660-403720                                                                                                      
129576     O31E913914600029576201509040300100025006KY-3MWV                  0004                20151111                                                                                                                                                                                                              
129576     O31E113914600029576201509040300100025006KY-3MWV                  0005EFD25E65HD3A2       EFD25E65HD3A2                 00390770CB00048000PC000000001398420000100020151014SEA.FSINMGM145647/660-403720                                                                                                      
129576     O31E913914600029576201509040300100025006KY-3MWV                  0005                20151111                                                                                                                                                                                                              
129576     O31E113914600029576201509040300100025006KY-3MWV                  0006EFD8E65HD3A2        EFD8E65HD3A2                  00390770CB00024000PC000000000991120000100020151014SEA.FSINMGM145647/660-403720                                                                                                      
129576     O31E913914600029576201509040300100025006KY-3MWV                  0006                20151111                                                                                                                                                                                                              
