129576     O31A113914600029576201512010900100025006LS-A1PX                       210002500620606063        31601603-COLOMBIA        FT    Ugi / Mr Joko                 N F/GDS - TRI(LATIN AMERICA  )  20151201        1N10002957620160107SEA.FBUN                                                               O401
129576     O31A213914600029576201512010900100025006LS-A1PX                      FOB                               USD                                                                20160205                SCMM                                        00029576                   20606063  PLAT BUENAVENT 20160107 
129576     O31A613914600029576201512010900100025006LS-A1PX                      T/T BY 10TH OF NEXT MONTH                         BY T/T REMITTANCE ON THE 10TH OF THE NEXT MONTH                                                                                                                                     
129576     O31B113914600029576201512010900100025006LS-A1PX                      NO MARK                                                                                                                                                                                                                               
129576     O31E113914600029576201512010900100025006LS-A1PX                  0001EFDLV23L27LC                                      00025347CB00001200PC000000001573720000100020160107SEA.FBUN31601603-COLOMBIA                                                                                                         
129576     O31E913914600029576201512010900100025006LS-A1PX                  0001                20160205                                                                                                                                                                                                              
                                                                                                                                                                                                  
