129576     O31A113914600029576201510261300100025006KY-7DWW                       210002500600039140                                 FT    Ugi / Mr Joko                 N F/GDS - TRI(ASIA           )  20151026        1N10002957620151125SEA.FPKL                                                               O113
129576     O31A213914600029576201510261300100025006KY-7DWW                      FOB                               USD                                                                20151210                SCMM                                        00029576                   00039140  PM             20151125 
129576     O31A613914600029576201510261300100025006KY-7DWW                      T/T BY 10TH OF NEXT MONTH                         BY T/T REMITTANCE ON THE 10TH OF THE NEXT MONTH                                                                                                                                     
129576     O31B113914600029576201510261300100025006KY-7DWW                      PM                            MMQ147080/EL1510002           KY-7DWW                       C/NO.                                                                                                                                       
129576     O31E113914600029576201510261300100025006KY-7DWW                  0001EFDHV11D65A                                       00025347CB00032640PC000000000123510000100020151125SEA.FPKLMMQ147080/EL1510002                                                                                                       
129576     O31E913914600029576201510261300100025006KY-7DWW                  0001                20151210                                                                                                                                                                                                              
129576     O31E113914600029576201510261300100025006KY-7DWW                  0002EFDHV15D65A                                       00025347CB00042240PC000000000123510000100020151125SEA.FPKLMMQ147080/EL1510002                                                                                                       
129576     O31E913914600029576201510261300100025006KY-7DWW                  0002                20151210                                                                                                                                                                                                              
129576     O31E113914600029576201510261300100025006KY-7DWW                  0003EFDHV20D65A                                       00025347CB00082560PC000000001533820000100020151125SEA.FPKLMMQ147080/EL1510002                                                                                                       
129576     O31E913914600029576201510261300100025006KY-7DWW                  0003                20151210                                                                                                                                                                                                              
129576     O31E113914600029576201510261300100025006KY-7DWW                  0004EFDHV23D65A                                       00025347CB00096000PC000000001533820000100020151125SEA.FPKLMMQ147080/EL1510002                                                                                                       
129576     O31E913914600029576201510261300100025006KY-7DWW                  0004                20151210                                                                                                                                                                                                              
129576     O31E113914600029576201510261300100025006KY-7DWW                  0005EFDHV25D65A                                       00025347CB00540480PC000000001533820000100020151125SEA.FPKLMMQ147080/EL1510002                                                                                                       
129576     O31E913914600029576201510261300100025006KY-7DWW                  0005                20151210                                                                                                                                                                                                              
129576     O31E113914600029576201510261300100025006KY-7DWW                  0006EFDHV25L27A                                       00025347CB00048000PC000000001533820000100020151125SEA.FPKLMMQ147080/EL1510002                                                                                                       
129576     O31E913914600029576201510261300100025006KY-7DWW                  0006                20151210                                                                                                                                                                                                              
129576     O31E113914600029576201510261300100025006KY-7DWW                  0007EFDHV5D65A                                        00025347CB00016320PC000000001045820000100020151125SEA.FPKLMMQ147080/EL1510002                                                                                                       
129576     O31E913914600029576201510261300100025006KY-7DWW                  0007                20151210                                                                                                                                                                                                              
129576     O31E113914600029576201510261300100025006KY-7DWW                  0008EFDHV8D65A                                        00025347CB00014400PC000000001045820000100020151125SEA.FPKLMMQ147080/EL1510002                                                                                                       
129576     O31E913914600029576201510261300100025006KY-7DWW                  0008                20151210                                                                                                                                                                                                              
129576     O31E113914600029576201510261300100025006KY-7DWW                  0009EFU18E652V                                        00025347CB00650000PC000000001355920000100020151125SEA.FPKLMMQ147080/EL1510002                                                                                                       
129576     O31E913914600029576201510261300100025006KY-7DWW                  0009                20151210                                                                                                                                                                                                              
