129576     O31A113914600029576201505131300100025006LS-VA0T                       210002500600039051000390515000031325               FT    Ugi / Mr Joko                 N F/GDS - TRI(LATIN AMERICA  )  20150513        1N10002957620150525SEA.FMEX                                                               O305
129576     O31A213914600029576201505131300100025006LS-VA0T                      FOB                               USD                                 PANAMEX                        201506260003905100039051                                            00029576                   00039051  PANAMEX        20150525 
129576     O31A613914600029576201505131300100025006LS-VA0T                      T/T BY 10TH OF NEXT MONTH                         BY T/T REMITTANCE ON THE 10TH OF THE NEXT MONTH                                                                                                                                     
129576     O31B113914600029576201505131300100025006LS-VA0T                      PANAMEX                       91505376                      LS-VA0T                       C/NO.                                                                                                                                       
129576     O31E113914600029576201505131300100025006LS-VA0T                  0001EFDLV11D65L                                       00025347CB00003000PC000000001115520000100020150525SEA.FMEX91505376                                                                                                                  
129576     O31E913914600029576201505131300100025006LS-VA0T                  0001                2015062600039051                                                                                                                                                                                                      
129576     O31E113914600029576201505131300100025006LS-VA0T                  0002EFDLV15D65L                                       00025347CB00026880PC000000001115520000100020150525SEA.FMEX91505376                                                                                                                  
129576     O31E913914600029576201505131300100025006LS-VA0T                  0002                2015062600039051                                                                                                                                                                                                      
129576     O31E113914600029576201505131300100025006LS-VA0T                  0003EFDLV15L27L                                       00025347CB00002040PC000000001115520000100020150525SEA.FMEX91505376                                                                                                                  
129576     O31E913914600029576201505131300100025006LS-VA0T                  0003                2015062600039051                                                                                                                                                                                                      
129576     O31E113914600029576201505131300100025006LS-VA0T                  0004EFDLV20D65L                                       00025347CB00030720PC000000001264920000100020150525SEA.FMEX91505376                                                                                                                  
129576     O31E913914600029576201505131300100025006LS-VA0T                  0004                2015062600039051                                                                                                                                                                                                      
129576     O31E113914600029576201505131300100025006LS-VA0T                  0005EFDLV20L27L                                       00025347CB00004080PC000000001264920000100020150525SEA.FMEX91505376                                                                                                                  
129576     O31E913914600029576201505131300100025006LS-VA0T                  0005                2015062600039051                                                                                                                                                                                                      
129576     O31E113914600029576201505131300100025006LS-VA0T                  0006EFDLV23D65L                                       00025347CB00030600PC000000001563720000100020150525SEA.FMEX91505376                                                                                                                  
129576     O31E913914600029576201505131300100025006LS-VA0T                  0006                2015062600039051                                                                                                                                                                                                      
129576     O31E113914600029576201505131300100025006LS-VA0T                  0007EFDLV23L27L                                       00025347CB00004080PC000000001563720000100020150525SEA.FMEX91505376                                                                                                                  
129576     O31E913914600029576201505131300100025006LS-VA0T                  0007                2015062600039051                                                                                                                                                                                                      
129576     O31E113914600029576201505131300100025006LS-VA0T                  0008EFDLV25D65L                                       00025347CB00010800PC000000001563720000100020150525SEA.FMEX91505376                                                                                                                  
129576     O31E913914600029576201505131300100025006LS-VA0T                  0008                2015062600039051                                                                                                                                                                                                      
