129576     O31A113914600029576201509281300100025006KY-5BKL                       210002500600029671                                 FT    Ugi / Mr Joko                 N F/GDS - TRI(OCEANIA        )  20150928        1N10002957620151025SEA.FAKL                                                               O606
129576     O31A213914600029576201509281300100025006KY-5BKL                      FOB                               USD                                                                20151120                SCMM                                        00029576                   00029671  PNZ            20151025 
129576     O31A613914600029576201509281300100025006KY-5BKL                      T/T BY 10TH OF NEXT MONTH                         BY T/T REMITTANCE ON THE 10TH OF THE NEXT MONTH                                                                                                                                     
129576     O31B113914600029576201509281300100025006KY-5BKL                      PNZ                           KY-5BKL                       AUCKLAND                      C/NO.                                                                                                                                       
129576     O31E113914600029576201509281300100025006KY-5BKL                  0001EFDHV23D65BE        EFDHV23D65BE                  00025347CB00011520PC000000001533820000100020151025SEA.FAKLMNZ146000/P81439                                                                                                          
129576     O31E913914600029576201509281300100025006KY-5BKL                  0001                20151120                                                                                                                                                                                                              
129576     O31E113914600029576201509281300100025006KY-5BKL                  0002EFDHV23L27E         EFDHV23L27E                   00025347CB00011520PC000000001533820000100020151025SEA.FAKLMNZ146000/P81439                                                                                                          
129576     O31E913914600029576201509281300100025006KY-5BKL                  0002                20151120                                                                                                                                                                                                              
129576     O31A113914600029576201509281300100025006KY-5C3L                       210002500600039140                                 FT    Ugi / Mr Joko                 N F/GDS - TRI(ASIA           )  20150928        1N10002957620151025SEA.FPKL                                                               O113
129576     O31A213914600029576201509281300100025006KY-5C3L                      FOB                               USD                                                                20151110                SCMM                                        00029576                   00039140  PM             20151025 
129576     O31A613914600029576201509281300100025006KY-5C3L                      T/T BY 10TH OF NEXT MONTH                         BY T/T REMITTANCE ON THE 10TH OF THE NEXT MONTH                                                                                                                                     
129576     O31B113914600029576201509281300100025006KY-5C3L                      PM                            MMQ146054/EL1509002           KY-5C3L                       C/NO.                                                                                                                                       
129576     O31E113914600029576201509281300100025006KY-5C3L                  0001EFDHV11D65A                                       00025347CB00030720PC000000000123510000100020151025SEA.FPKLMMQ146054/EL1509002                                                                                                       
129576     O31E913914600029576201509281300100025006KY-5C3L                  0001                20151110                                                                                                                                                                                                              
129576     O31E113914600029576201509281300100025006KY-5C3L                  0002EFDHV15D65A                                       00025347CB00033600PC000000000123510000100020151025SEA.FPKLMMQ146054/EL1509002                                                                                                       
129576     O31E913914600029576201509281300100025006KY-5C3L                  0002                20151110                                                                                                                                                                                                              
129576     O31E113914600029576201509281300100025006KY-5C3L                  0003EFDHV20D65A                                       00025347CB00072000PC000000001533820000100020151025SEA.FPKLMMQ146054/EL1509002                                                                                                       
129576     O31E913914600029576201509281300100025006KY-5C3L                  0003                20151110                                                                                                                                                                                                              
129576     O31E113914600029576201509281300100025006KY-5C3L                  0004EFDHV23D65A                                       00025347CB00076800PC000000001533820000100020151025SEA.FPKLMMQ146054/EL1509002                                                                                                       
129576     O31E913914600029576201509281300100025006KY-5C3L                  0004                20151110                                                                                                                                                                                                              
129576     O31E113914600029576201509281300100025006KY-5C3L                  0005EFDHV25D65A                                       00025347CB00617280PC000000001533820000100020151025SEA.FPKLMMQ146054/EL1509002                                                                                                       
129576     O31E913914600029576201509281300100025006KY-5C3L                  0005                20151110                                                                                                                                                                                                              
129576     O31E113914600029576201509281300100025006KY-5C3L                  0006EFDHV25L27A                                       00025347CB00038400PC000000001533820000100020151025SEA.FPKLMMQ146054/EL1509002                                                                                                       
129576     O31E913914600029576201509281300100025006KY-5C3L                  0006                20151110                                                                                                                                                                                                              
129576     O31E113914600029576201509281300100025006KY-5C3L                  0007EFDHV5D65A                                        00025347CB00008640PC000000001045820000100020151025SEA.FPKLMMQ146054/EL1509002                                                                                                       
129576     O31E913914600029576201509281300100025006KY-5C3L                  0007                20151110                                                                                                                                                                                                              
129576     O31E113914600029576201509281300100025006KY-5C3L                  0008EFDHV8D65A                                        00025347CB00032640PC000000001045820000100020151025SEA.FPKLMMQ146054/EL1509002                                                                                                       
129576     O31E913914600029576201509281300100025006KY-5C3L                  0008                20151110                                                                                                                                                                                                              
129576     O31E113914600029576201509281300100025006KY-5C3L                  0009EFU18E272V                                        00025347CB00063000PC000000001355920000100020151025SEA.FPKLMMQ146054/EL1509002                                                                                                       
129576     O31E913914600029576201509281300100025006KY-5C3L                  0009                20151110                                                                                                                                                                                                              
129576     O31E113914600029576201509281300100025006KY-5C3L                  0010EFU18E652V                                        00025347CB00550000PC000000001355920000100020151025SEA.FPKLMMQ146054/EL1509002                                                                                                       
129576     O31E913914600029576201509281300100025006KY-5C3L                  0010                20151110                                                                                                                                                                                                              
