129576     O31A113914600029576201511050300100025006KY-85QQ                       21000250062001182520011825                         FT    Ugi / Mr Joko                 N F/GDS - TRI(ASIA           )  20151104        1N10002957620151113SEA.FCMB                                                               O125
129576     O31A213914600029576201511050300100025006KY-85QQ                      FOB                               USD                                 SOFTLOGIC                      20151211                                                            00029576                   20011825  SOFTLOGIC      20151113 
129576     O31A613914600029576201511050300100025006KY-85QQ                      T/T BY 10TH OF NEXT MONTH                         BY T/T REMITTANCE ON THE 10TH OF THE NEXT MONTH                                                                                                                                     
129576     O31B113914600029576201511050300100025006KY-85QQ                      SOFTLOGIC                     C/NO.                                                                                                                                                                                                   
129576     O31E113914600029576201511050300100025006KY-85QQ                  0001EFD14E27HD3A        EFD14E27HD3A                  00390770CB00069600PC000000000934320000100020151113SEA.FCMBMGM147716/660-403927                                                                                                      
129576     O31E913914600029576201511050300100025006KY-85QQ                  0001                20151211                                                                                                                                                                                                              
129576     O31E113914600029576201511050300100025006KY-85QQ                  0002EFD14E65HD3A        EFD14E65HD3A                  00390770CB00010800PC000000000934320000100020151113SEA.FCMBMGM147716/660-403927                                                                                                      
129576     O31E913914600029576201511050300100025006KY-85QQ                  0002                20151211                                                                                                                                                                                                              
129576     O31E113914600029576201511050300100025006KY-85QQ                  0003EFD19E65HD3A        EFD19E65HD3A                  00390770CB00079200PC000000001164320000100020151113SEA.FCMBMGM147716/660-403927                                                                                                      
129576     O31E913914600029576201511050300100025006KY-85QQ                  0003                20151211                                                                                                                                                                                                              
129576     O31E113914600029576201511050300100025006KY-85QQ                  0004EFD22E27HD3A        EFD22E27HD3A                  00390770CB00049200PC000000001164320000100020151113SEA.FCMBMGM147716/660-403927                                                                                                      
129576     O31E913914600029576201511050300100025006KY-85QQ                  0004                20151211                                                                                                                                                                                                              
129576     O31E113914600029576201511050300100025006KY-85QQ                  0005EFD22E65HD3A        EFD22E65HD3A                  00390770CB00030000PC000000001164320000100020151113SEA.FCMBMGM147716/660-403927                                                                                                      
129576     O31E913914600029576201511050300100025006KY-85QQ                  0005                20151211                                                                                                                                                                                                              
129576     O31E113914600029576201511050300100025006KY-85QQ                  0006EFD5E27HD3A         EFD5E27HD3A                   00390770CB00030000PC000000000801820000100020151113SEA.FCMBMGM147716/660-403927                                                                                                      
129576     O31E913914600029576201511050300100025006KY-85QQ                  0006                20151211                                                                                                                                                                                                              
129576     O31E113914600029576201511050300100025006KY-85QQ                  0007EFD5E65HD3A         EFD5E65HD3A                   00390770CB00079200PC000000000801820000100020151113SEA.FCMBMGM147716/660-403927                                                                                                      
129576     O31E913914600029576201511050300100025006KY-85QQ                  0007                20151211                                                                                                                                                                                                              
129576     O31E113914600029576201511050300100025006KY-85QQ                  0008EFD8E27HD3A         EFD8E27HD3A                   00390770CB00049200PC000000000801820000100020151113SEA.FCMBMGM147716/660-403927                                                                                                      
129576     O31E913914600029576201511050300100025006KY-85QQ                  0008                20151211                                                                                                                                                                                                              
129576     O31E113914600029576201511050300100025006KY-85QQ                  0009EFD8E65HD3A         EFD8E65HD3A                   00390770CB00060000PC000000000801820000100020151113SEA.FCMBMGM147716/660-403927                                                                                                      
129576     O31E913914600029576201511050300100025006KY-85QQ                  0009                20151211                                                                                                                                                                                                              
129576     O31E113914600029576201511050300100025006KY-85QQ                  0010EFD19E27HD3B22A2    EFD19E27HD3B22A2              00390770CB00030000PC000000001164320000100020151113SEA.FCMBMGM147716/660-403927                                                                                                      
129576     O31E913914600029576201511050300100025006KY-85QQ                  0010                20151211                                                                                                                                                                                                              
129576     O31E113914600029576201511050300100025006KY-85QQ                  0011EFD22E27HD3B22A2    EFD22E27HD3B22A2              00390770CB00050000PC000000001164320000100020151113SEA.FCMBMGM147716/660-403927                                                                                                      
129576     O31E913914600029576201511050300100025006KY-85QQ                  0011                20151211                                                                                                                                                                                                              
129576     O31E113914600029576201511050300100025006KY-85QQ                  0012EFD14E27HD3B22A2    EFD14E27HD3B22A2              00390770CB00040000PC000000000934320000100020151113SEA.FCMBMGM147716/660-403927                                                                                                      
129576     O31E913914600029576201511050300100025006KY-85QQ                  0012                20151211                                                                                                                                                                                                              
129576     O31E113914600029576201511050300100025006KY-85QQ                  0013EFD5E27HD3B22A2     EFD5E27HD3B22A2               00390770CB00061000PC000000000801820000100020151113SEA.FCMBMGM147716/660-403927                                                                                                      
129576     O31E913914600029576201511050300100025006KY-85QQ                  0013                20151211                                                                                                                                                                                                              
129576     O31E113914600029576201511050300100025006KY-85QQ                  0014EFD5E65HD3B22A2     EFD5E65HD3B22A2               00390770CB00042000PC000000000801820000100020151113SEA.FCMBMGM147716/660-403927                                                                                                      
129576     O31E913914600029576201511050300100025006KY-85QQ                  0014                20151211                                                                                                                                                                                                              
129576     O31E113914600029576201511050300100025006KY-85QQ                  0015EFD8E27HD3B22A2     EFD8E27HD3B22A2               00390770CB00080000PC000000000801820000100020151113SEA.FCMBMGM147716/660-403927                                                                                                      
129576     O31E913914600029576201511050300100025006KY-85QQ                  0015                20151211                                                                                                                                                                                                              
129576     O31E113914600029576201511050300100025006KY-85QQ                  0016EFD8E65HD3B22A2     EFD8E65HD3B22A2               00390770CB00040000PC000000000801820000100020151113SEA.FCMBMGM147716/660-403927                                                                                                      
129576     O31E913914600029576201511050300100025006KY-85QQ                  0016                20151211                                                                                                                                                                                                              
