129576     O31A113914600029576201511190300100025006KY-99Q3                       21000250062062061620620616                         FT    Ugi / Mr Joko                 N F/GDS - TRI(ASIA           )  20151118        1N10002957620160124SEA.FSIN                                                               O112
129576     O31A213914600029576201511190300100025006KY-99Q3                      FOB                               USD                                 BLS                            20160210                                                            00029576                   20620616  BLS            20160124 
129576     O31A613914600029576201511190300100025006KY-99Q3                      T/T BY 10TH OF NEXT MONTH                         BY T/T REMITTANCE ON THE 10TH OF THE NEXT MONTH                                                                                                                                     
129576     O31B113914600029576201511190300100025006KY-99Q3                      BLS                           C/NO.                                                                                                                                                                                                   
129576     O31E113914600029576201511190300100025006KY-99Q3                  0001EFDHV11D65A         EFDHV11D65A                   00025347CB00024000PC000000000125510000100020160124SEA.FSINMGM147879/660-403973                                                                                                      
129576     O31E913914600029576201511190300100025006KY-99Q3                  0001                20160210                                                                                                                                                                                                              
129576     O31E113914600029576201511190300100025006KY-99Q3                  0002EFDHV11L27A         EFDHV11L27A                   00025347CB00011520PC000000000125510000100020160124SEA.FSINMGM147879/660-403973                                                                                                      
129576     O31E913914600029576201511190300100025006KY-99Q3                  0002                20160210                                                                                                                                                                                                              
129576     O31E113914600029576201511190300100025006KY-99Q3                  0003EFDHV25D65A         EFDHV25D65A                   00025347CB00096000PC000000001553820000100020160124SEA.FSINMGM147879/660-403973                                                                                                      
129576     O31E913914600029576201511190300100025006KY-99Q3                  0003                20160210                                                                                                                                                                                                              
129576     O31E113914600029576201511190300100025006KY-99Q3                  0004EFDHV15L27A         EFDHV15L27A                   00025347CB00009600PC000000000125510000100020160124SEA.FSINMGM147879/660-403973                                                                                                      
129576     O31E913914600029576201511190300100025006KY-99Q3                  0004                20160210                                                                                                                                                                                                              
129576     O31E113914600029576201511190300100025006KY-99Q3                  0005EFDHV20D65A         EFDHV20D65A                   00025347CB00024000PC000000001553820000100020160124SEA.FSINMGM147879/660-403973                                                                                                      
129576     O31E913914600029576201511190300100025006KY-99Q3                  0005                20160210                                                                                                                                                                                                              
129576     O31E113914600029576201511190300100025006KY-99Q3                  0006EFDHV5D65A          EFDHV5D65A                    00025347CB00035520PC000000001075720000100020160124SEA.FSINMGM147879/660-403973                                                                                                      
129576     O31E913914600029576201511190300100025006KY-99Q3                  0006                20160210                                                                                                                                                                                                              
129576     O31E113914600029576201511190300100025006KY-99Q3                  0007EFDHV5L27A          EFDHV5L27A                    00025347CB00024000PC000000001075720000100020160124SEA.FSINMGM147879/660-403973                                                                                                      
129576     O31E913914600029576201511190300100025006KY-99Q3                  0007                20160210                                                                                                                                                                                                              
129576     O31E113914600029576201511190300100025006KY-99Q3                  0008EFDHV8D65A          EFDHV8D65A                    00025347CB00024000PC000000001075720000100020160124SEA.FSINMGM147879/660-403973                                                                                                      
129576     O31E913914600029576201511190300100025006KY-99Q3                  0008                20160210                                                                                                                                                                                                              
129576     O31A113914600029576201511190300100025006KY-99Q4                       21000250062062061620620616                         FT    Ugi / Mr Joko                 N F/GDS - TRI(ASIA           )  20151118        1N10002957620160124SEA.FSIN                                                               O112
129576     O31A213914600029576201511190300100025006KY-99Q4                      FOB                               USD                                 BLS                            20160210                                                            00029576                   20620616  BLS            20160124 
129576     O31A613914600029576201511190300100025006KY-99Q4                      T/T BY 10TH OF NEXT MONTH                         BY T/T REMITTANCE ON THE 10TH OF THE NEXT MONTH                                                                                                                                     
129576     O31B113914600029576201511190300100025006KY-99Q4                      BLS                           C/NO.                                                                                                                                                                                                   
129576     O31E113914600029576201511190300100025006KY-99Q4                  0001EFDHV11D65BA        EFDHV11D65BA                  00025347CB00024000PC000000000125510000100020160124SEA.FSINMGM147878/660-403974                                                                                                      
129576     O31E913914600029576201511190300100025006KY-99Q4                  0001                20160210                                                                                                                                                                                                              
129576     O31E113914600029576201511190300100025006KY-99Q4                  0002EFDHV23D65BA        EFDHV23D65BA                  00025347CB00035520PC000000001553820000100020160124SEA.FSINMGM147878/660-403974                                                                                                      
129576     O31E913914600029576201511190300100025006KY-99Q4                  0002                20160210                                                                                                                                                                                                              
129576     O31E113914600029576201511190300100025006KY-99Q4                  0003EFDHV25D65BA        EFDHV25D65BA                  00025347CB00192000PC000000001553820000100020160124SEA.FSINMGM147878/660-403974                                                                                                      
129576     O31E913914600029576201511190300100025006KY-99Q4                  0003                20160210                                                                                                                                                                                                              
129576     O31E113914600029576201511190300100025006KY-99Q4                  0004EFDHV20D65BA        EFDHV20D65BA                  00025347CB00083520PC000000001553820000100020160124SEA.FSINMGM147878/660-403974                                                                                                      
129576     O31E913914600029576201511190300100025006KY-99Q4                  0004                20160210                                                                                                                                                                                                              
129576     O31A113914600029576201511190300100025006KY-99PZ                       21000250062062061620620616                         FT    Ugi / Mr Joko                 N F/GDS - TRI(ASIA           )  20151118        1N10002957620160113SEA.FSIN                                                               O112
129576     O31A213914600029576201511190300100025006KY-99PZ                      FOB                               USD                                 BLS                            20160210                                                            00029576                   20620616  BLS            20160113 
129576     O31A613914600029576201511190300100025006KY-99PZ                      T/T BY 10TH OF NEXT MONTH                         BY T/T REMITTANCE ON THE 10TH OF THE NEXT MONTH                                                                                                                                     
129576     O31B113914600029576201511190300100025006KY-99PZ                      BLS                           C/NO.                                                                                                                                                                                                   
129576     O31E113914600029576201511190300100025006KY-99PZ                  0001EFD19E65HD3A        EFD19E65HD3A                  00390770CB00024000PC000000001336220000100020160113SEA.FSINMGM147882/660-403975                                                                                                      
129576     O31E913914600029576201511190300100025006KY-99PZ                  0001                20160210                                                                                                                                                                                                              
129576     O31E113914600029576201511190300100025006KY-99PZ                  0002EFD11E65HD3A2       EFD11E65HD3A2                 00390770CB00024000PC000000001120520000100020160113SEA.FSINMGM147882/660-403975                                                                                                      
129576     O31E913914600029576201511190300100025006KY-99PZ                  0002                20160210                                                                                                                                                                                                              
129576     O31E113914600029576201511190300100025006KY-99PZ                  0003EFD14E65HD3A2       EFD14E65HD3A2                 00390770CB00024000PC000000001095620000100020160113SEA.FSINMGM147882/660-403975                                                                                                      
129576     O31E913914600029576201511190300100025006KY-99PZ                  0003                20160210                                                                                                                                                                                                              
129576     O31E113914600029576201511190300100025006KY-99PZ                  0004EFD8E65HD3A2        EFD8E65HD3A2                  00390770CB00024000PC000000000991120000100020160113SEA.FSINMGM147882/660-403975                                                                                                      
129576     O31E913914600029576201511190300100025006KY-99PZ                  0004                20160210                                                                                                                                                                                                              
