129576     O31A113914600029576201507080300100025006KY-ZEUS                       210002500600029073                                 FT    Ugi / Mr Joko                 N F/GDS - TRI(ASIA           )  20150707        1N10002957620150804SEA.FSIN                                                               O112
129576     O31A213914600029576201507080300100025006KY-ZEUS                      FOB                               USD                                                                20150810                                                            00029576                   00029073  PSP-DD         20150804 
129576     O31A613914600029576201507080300100025006KY-ZEUS                      T/T BY 10TH OF NEXT MONTH                         BY T/T REMITTANCE ON THE 10TH OF THE NEXT MONTH                                                                                                                                     
129576     O31B113914600029576201507080300100025006KY-ZEUS                      NO MARK                                                                                                                                                                                                                               
129576     O31E113914600029576201507080300100025006KY-ZEUS                  0001FCL32EX-D/30        FCL32EX-D/30                  00025346CB00020000PC000000002302820000100020150804SEA.FSINMSP143641/DD5555-233098                                                                                                   
129576     O31E913914600029576201507080300100025006KY-ZEUS                  0001                20150810                                                                                                                                                                                                              
129576     O31A113914600029576201507080300100025006KY-ZEV9                       210002500600029073                                 FT    Ugi / Mr Joko                 N F/GDS - TRI(ASIA           )  20150707        1N10002957620150804SEA.FSIN                                                               O112
129576     O31A213914600029576201507080300100025006KY-ZEV9                      FOB                               USD                                                                20150810                                                            00029576                   00029073  PSP-DD         20150804 
129576     O31A613914600029576201507080300100025006KY-ZEV9                      T/T BY 10TH OF NEXT MONTH                         BY T/T REMITTANCE ON THE 10TH OF THE NEXT MONTH                                                                                                                                     
129576     O31B113914600029576201507080300100025006KY-ZEV9                      NO MARK                                                                                                                                                                                                                               
129576     O31E113914600029576201507080300100025006KY-ZEV9                  0001FCL22D+FCL32D       FCL22D+FCL32D                 00025346CB00040000PA000000002004920000100020150804SEA.FSINMSP143638/DD5555-233100                                                                                                   
129576     O31E913914600029576201507080300100025006KY-ZEV9                  0001                20150810                                                                                                                                                                                                              
129576     O31E113914600029576201507080300100025006KY-ZEV9                  0002FCL22EXD            FCL22EXD                      00025346CB00020000PC000000002038820000100020150804SEA.FSINMSP143638/DD5555-233100                                                                                                   
129576     O31E913914600029576201507080300100025006KY-ZEV9                  0002                20150810                                                                                                                                                                                                              
129576     O31E113914600029576201507080300100025006KY-ZEV9                  0003FCL40EX-D(I)        FCL40EX-D(I)                  00025346CB00013200PC000000003563720000100020150804SEA.FSINMSP143638/DD5555-233100                                                                                                   
129576     O31E913914600029576201507080300100025006KY-ZEV9                  0003                20150810                                                                                                                                                                                                              
