129576     O31A113914600029576201509011600100025006KY-3DP7                       210002500600039140                                 FT    Ugi / Mr Joko                 N F/GDS - TRI(ASIA           )  20150901        1N10002957620150925SEA.FPKL                                                               O113
129576     O31A213914600029576201509011600100025006KY-3DP7                      FOB                               USD                                                                20151010                SCMM                                        00029576                   00039140  PM             20150925 
129576     O31A613914600029576201509011600100025006KY-3DP7                      T/T BY 10TH OF NEXT MONTH                         BY T/T REMITTANCE ON THE 10TH OF THE NEXT MONTH                                                                                                                                     
129576     O31B113914600029576201509011600100025006KY-3DP7                      PM                            MMQ145469/EL1508005           KY-3DP7                       C/NO.                                                                                                                                       
129576     O31E113914600029576201509011600100025006KY-3DP7                  0001EFDHV11D65A                                       00025347CB00030720PC000000000123510000100020150925SEA.FPKLMMQ145469/EL1508005                                                                                                       
129576     O31E913914600029576201509011600100025006KY-3DP7                  0001                20151010                                                                                                                                                                                                              
129576     O31E113914600029576201509011600100025006KY-3DP7                  0002EFDHV11L27A                                       00025347CB00006720PC000000000123510000100020150925SEA.FPKLMMQ145469/EL1508005                                                                                                       
129576     O31E913914600029576201509011600100025006KY-3DP7                  0002                20151010                                                                                                                                                                                                              
129576     O31E113914600029576201509011600100025006KY-3DP7                  0003EFDHV15D65A                                       00025347CB00020160PC000000000123510000100020150925SEA.FPKLMMQ145469/EL1508005                                                                                                       
129576     O31E913914600029576201509011600100025006KY-3DP7                  0003                20151010                                                                                                                                                                                                              
129576     O31E113914600029576201509011600100025006KY-3DP7                  0004EFDHV20D65A                                       00025347CB00045120PC000000001533820000100020150925SEA.FPKLMMQ145469/EL1508005                                                                                                       
129576     O31E913914600029576201509011600100025006KY-3DP7                  0004                20151010                                                                                                                                                                                                              
129576     O31E113914600029576201509011600100025006KY-3DP7                  0005EFDHV23D65A                                       00025347CB00076800PC000000001533820000100020150925SEA.FPKLMMQ145469/EL1508005                                                                                                       
129576     O31E913914600029576201509011600100025006KY-3DP7                  0005                20151010                                                                                                                                                                                                              
129576     O31E113914600029576201509011600100025006KY-3DP7                  0006EFDHV25D65A                                       00025347CB00400320PC000000001533820000100020150925SEA.FPKLMMQ145469/EL1508005                                                                                                       
129576     O31E913914600029576201509011600100025006KY-3DP7                  0006                20151010                                                                                                                                                                                                              
129576     O31E113914600029576201509011600100025006KY-3DP7                  0007EFDHV25L27A                                       00025347CB00048000PC000000001533820000100020150925SEA.FPKLMMQ145469/EL1508005                                                                                                       
129576     O31E913914600029576201509011600100025006KY-3DP7                  0007                20151010                                                                                                                                                                                                              
129576     O31E113914600029576201509011600100025006KY-3DP7                  0008EFDHV5D65A                                        00025347CB00005760PC000000001045820000100020150925SEA.FPKLMMQ145469/EL1508005                                                                                                       
129576     O31E913914600029576201509011600100025006KY-3DP7                  0008                20151010                                                                                                                                                                                                              
129576     O31E113914600029576201509011600100025006KY-3DP7                  0009EFDHV8D65A                                        00025347CB00025920PC000000001045820000100020150925SEA.FPKLMMQ145469/EL1508005                                                                                                       
129576     O31E913914600029576201509011600100025006KY-3DP7                  0009                20151010                                                                                                                                                                                                              
129576     O31E113914600029576201509011600100025006KY-3DP7                  0010EFDHV8L27A                                        00025347CB00002880PC000000001045820000100020150925SEA.FPKLMMQ145469/EL1508005                                                                                                       
129576     O31E913914600029576201509011600100025006KY-3DP7                  0010                20151010                                                                                                                                                                                                              
129576     O31E113914600029576201509011600100025006KY-3DP7                  0011EFU18E272V                                        00025347CB00080000PC000000001355920000100020150925SEA.FPKLMMQ145469/EL1508005                                                                                                       
129576     O31E913914600029576201509011600100025006KY-3DP7                  0011                20151010                                                                                                                                                                                                              
129576     O31E113914600029576201509011600100025006KY-3DP7                  0012EFU18E652V                                        00025347CB00380000PC000000001355920000100020150925SEA.FPKLMMQ145469/EL1508005                                                                                                       
129576     O31E913914600029576201509011600100025006KY-3DP7                  0012                20151010                                                                                                                                                                                                              
