129576     O31A113914600029576201510271100100025006KY-7HQA                       210002500600029671                                 FT    Ugi / Mr Joko                 N F/GDS - TRI(OCEANIA        )  20151027        1N10002957620151122SEA.FAKL                                                               O606
129576     O31A213914600029576201510271100100025006KY-7HQA                      FOB                               USD                                                                20151220                SCMM                                        00029576                   00029671  PNZ            20151122 
129576     O31A613914600029576201510271100100025006KY-7HQA                      T/T BY 10TH OF NEXT MONTH                         BY T/T REMITTANCE ON THE 10TH OF THE NEXT MONTH                                                                                                                                     
129576     O31B113914600029576201510271100100025006KY-7HQA                      PNZ                           KY-7HQA                       AUCKLAND                      C/NO.                                                                                                                                       
129576     O31E113914600029576201510271100100025006KY-7HQA                  0001EFDHV23D65BE        EFDHV23D65BE                  00025347CB00011520PC000000001533820000100020151122SEA.FAKLMNZ147304/P81737                                                                                                          
129576     O31E913914600029576201510271100100025006KY-7HQA                  0001                20151220                                                                                                                                                                                                              
129576     O31E113914600029576201510271100100025006KY-7HQA                  0002EFDHV23L27E         EFDHV23L27E                   00025347CB00011520PC000000001533820000100020151122SEA.FAKLMNZ147304/P81737                                                                                                          
129576     O31E913914600029576201510271100100025006KY-7HQA                  0002                20151220                                                                                                                                                                                                              
