129576     O31A113914600029576201505261300100025006KY-W9WM                       210002500600039140                                 FT    Ugi / Mr Joko                 N F/GDS - TRI(ASIA           )  20150526        1N10002957620150625SEA.FPKL                                                               O113
129576     O31A213914600029576201505261300100025006KY-W9WM                      FOB                               USD                                                                20150710                SCMM                                        00029576                   00039140  PM             20150625 
129576     O31A613914600029576201505261300100025006KY-W9WM                      T/T BY 10TH OF NEXT MONTH                         BY T/T REMITTANCE ON THE 10TH OF THE NEXT MONTH                                                                                                                                     
129576     O31B113914600029576201505261300100025006KY-W9WM                      PM                            MMQ142296/EL1505007           KY-W9WM                       C/NO.                                                                                                                                       
129576     O31E113914600029576201505261300100025006KY-W9WM                  0001EFDHV5L27A                                        00025347CB00010560PC000000001045820000100020150625SEA.FPKLMMQ142296/EL1505007                                                                                                       
129576     O31E913914600029576201505261300100025006KY-W9WM                  0001                20150710                                                                                                                                                                                                              
129576     O31E113914600029576201505261300100025006KY-W9WM                  0002EFDHV8D65A                                        00025347CB00012480PC000000001045820000100020150625SEA.FPKLMMQ142296/EL1505007                                                                                                       
129576     O31E913914600029576201505261300100025006KY-W9WM                  0002                20150710                                                                                                                                                                                                              
129576     O31E113914600029576201505261300100025006KY-W9WM                  0003EFDHV8L27A                                        00025347CB00005760PC000000001045820000100020150625SEA.FPKLMMQ142296/EL1505007                                                                                                       
129576     O31E913914600029576201505261300100025006KY-W9WM                  0003                20150710                                                                                                                                                                                                              
129576     O31E113914600029576201505261300100025006KY-W9WM                  0004EFU18E272V                                        00025347CB00165000PC000000001355920000100020150625SEA.FPKLMMQ142296/EL1505007                                                                                                       
129576     O31E913914600029576201505261300100025006KY-W9WM                  0004                20150710                                                                                                                                                                                                              
129576     O31E113914600029576201505261300100025006KY-W9WM                  0005EFU18E652V                                        00025347CB00450000PC000000001355920000100020150625SEA.FPKLMMQ142296/EL1505007                                                                                                       
129576     O31E913914600029576201505261300100025006KY-W9WM                  0005                20150710                                                                                                                                                                                                              
129576     O31E113914600029576201505261300100025006KY-W9WM                  0006EFDHV11D65A                                       00025347CB00020160PC000000000123510000100020150625SEA.FPKLMMQ142296/EL1505007                                                                                                       
129576     O31E913914600029576201505261300100025006KY-W9WM                  0006                20150710                                                                                                                                                                                                              
129576     O31E113914600029576201505261300100025006KY-W9WM                  0007EFDHV11L27A                                       00025347CB00001920PC000000000123510000100020150625SEA.FPKLMMQ142296/EL1505007                                                                                                       
129576     O31E913914600029576201505261300100025006KY-W9WM                  0007                20150710                                                                                                                                                                                                              
129576     O31E113914600029576201505261300100025006KY-W9WM                  0008EFDHV15D65A                                       00025347CB00018240PC000000000123510000100020150625SEA.FPKLMMQ142296/EL1505007                                                                                                       
129576     O31E913914600029576201505261300100025006KY-W9WM                  0008                20150710                                                                                                                                                                                                              
129576     O31E113914600029576201505261300100025006KY-W9WM                  0009EFDHV15L27A                                       00025347CB00014400PC000000000123510000100020150625SEA.FPKLMMQ142296/EL1505007                                                                                                       
129576     O31E913914600029576201505261300100025006KY-W9WM                  0009                20150710                                                                                                                                                                                                              
129576     O31E113914600029576201505261300100025006KY-W9WM                  0010EFDHV20D65A                                       00025347CB00062400PC000000001533820000100020150625SEA.FPKLMMQ142296/EL1505007                                                                                                       
129576     O31E913914600029576201505261300100025006KY-W9WM                  0010                20150710                                                                                                                                                                                                              
129576     O31E113914600029576201505261300100025006KY-W9WM                  0011EFDHV20L27A                                       00025347CB00022080PC000000001533820000100020150625SEA.FPKLMMQ142296/EL1505007                                                                                                       
129576     O31E913914600029576201505261300100025006KY-W9WM                  0011                20150710                                                                                                                                                                                                              
129576     O31E113914600029576201505261300100025006KY-W9WM                  0012EFDHV23D65A                                       00025347CB00048000PC000000001533820000100020150625SEA.FPKLMMQ142296/EL1505007                                                                                                       
129576     O31E913914600029576201505261300100025006KY-W9WM                  0012                20150710                                                                                                                                                                                                              
129576     O31E113914600029576201505261300100025006KY-W9WM                  0013EFDHV25D65A                                       00025347CB00540480PC000000001533820000100020150625SEA.FPKLMMQ142296/EL1505007                                                                                                       
129576     O31E913914600029576201505261300100025006KY-W9WM                  0013                20150710                                                                                                                                                                                                              
129576     O31E113914600029576201505261300100025006KY-W9WM                  0014EFDHV25L27A                                       00025347CB00155520PC000000001533820000100020150625SEA.FPKLMMQ142296/EL1505007                                                                                                       
129576     O31E913914600029576201505261300100025006KY-W9WM                  0014                20150710                                                                                                                                                                                                              
129576     O31E113914600029576201505261300100025006KY-W9WM                  0015EFDHV5D65A                                        00025347CB00005760PC000000001045820000100020150625SEA.FPKLMMQ142296/EL1505007                                                                                                       
129576     O31E913914600029576201505261300100025006KY-W9WM                  0015                20150710                                                                                                                                                                                                              
