129576     O31A113914600029576201509290300100025006KY-5DYP                       210002500600039130                                 FT    Ugi / Mr Joko                 N F/GDS - TRI(ASIA           )  20150928        1N10002957620151025SEA.FLKG                                                               O111
129576     O31A213914600029576201509290300100025006KY-5DYP                      FOB                               USD                                                                20151110                SCMM                                        00029576                   00039130  PST            20151025 
129576     O31A613914600029576201509290300100025006KY-5DYP                      T/T BY 10TH OF NEXT MONTH                         BY T/T REMITTANCE ON THE 10TH OF THE NEXT MONTH                                                                                                                                     
129576     O31B113914600029576201509290300100025006KY-5DYP                      PST                           MST146218/LIGH-138994         KY-5DYP                       LAT KRABANG                   C/NO.                                                                                                         
129576     O31E113914600029576201509290300100025006KY-5DYP                  0001EFDHV15L27T         EFDHV15L27T                   00025347CB00150720PC000000000123510000100020151025SEA.FLKGMST146218/LIGH-138994                                                                                                     
129576     O31E913914600029576201509290300100025006KY-5DYP                  0001                20151110                                                                                                                                                                                                              
129576     O31E113914600029576201509290300100025006KY-5DYP                  0002EFDHV32D65A         EFDHV32D65A                   00025347CB00064800PC000000000274710000100020151025SEA.FLKGMST146218/LIGH-138994                                                                                                     
129576     O31E913914600029576201509290300100025006KY-5DYP                  0002                20151110                                                                                                                                                                                                              
129576     O31E113914600029576201509290300100025006KY-5DYP                  0003EFDHV42D65A         EFDHV42D65A                   00025347CB00066480PC000000003041320000100020151025SEA.FLKGMST146218/LIGH-138994                                                                                                     
129576     O31E913914600029576201509290300100025006KY-5DYP                  0003                20151110                                                                                                                                                                                                              
129576     O31E113914600029576201509290300100025006KY-5DYP                  0004EFU14E272V          EFU14E272V                    00025347CB00080000PC000000001320320000100020151025SEA.FLKGMST146218/LIGH-138994                                                                                                     
129576     O31E913914600029576201509290300100025006KY-5DYP                  0004                20151110                                                                                                                                                                                                              
129576     O31E113914600029576201509290300100025006KY-5DYP                  0005EFU8E652V           EFU8E652V                     00025347CB00090000PC000000001207920000100020151025SEA.FLKGMST146218/LIGH-138994                                                                                                     
129576     O31E913914600029576201509290300100025006KY-5DYP                  0005                20151110                                                                                                                                                                                                              
129576     O31A113914600029576201509290300100025006KY-5DMZ                       210002500620619678                                 FT    Ugi / Mr Joko                 N F/GDS - TRI(ASIA           )  20150928        1N10002957620151025SEA.FSGN                                                               O110
129576     O31A213914600029576201509290300100025006KY-5DMZ                      FOB                               USD                                                                20151110                SCMM                                        00029576                   20619678  PV-PSV HCM     20151025 
129576     O31A613914600029576201509290300100025006KY-5DMZ                      T/T BY 10TH OF NEXT MONTH                         BY T/T REMITTANCE ON THE 10TH OF THE NEXT MONTH                                                                                                                                     
129576     O31B113914600029576201509290300100025006KY-5DMZ                      PV-PSV                        MSV146101/I207-113569         C/NO.                                                                                                                                                                     
129576     O31E113914600029576201509290300100025006KY-5DMZ                  0001EFDHV15D65A         EFDHV15D65A                   00025347CB00072000PC000000001170320000100020151025SEA.FSGNMSV146101/I207-113569                                                                                                     
129576     O31E913914600029576201509290300100025006KY-5DMZ                  0001                20151110                                                                                                                                                                                                              
129576     O31E113914600029576201509290300100025006KY-5DMZ                  0002EFDHV15L27A         EFDHV15L27A                   00025347CB00019200PC000000001170320000100020151025SEA.FSGNMSV146101/I207-113569                                                                                                     
129576     O31E913914600029576201509290300100025006KY-5DMZ                  0002                20151110                                                                                                                                                                                                              
129576     O31E113914600029576201509290300100025006KY-5DMZ                  0003EFDHV20D65A         EFDHV20D65A                   00025347CB00017280PC000000001451220000100020151025SEA.FSGNMSV146101/I207-113569                                                                                                     
129576     O31E913914600029576201509290300100025006KY-5DMZ                  0003                20151110                                                                                                                                                                                                              
129576     O31E113914600029576201509290300100025006KY-5DMZ                  0004EFDHV25D65A         EFDHV25D65A                   00025347CB00004800PC000000001451220000100020151025SEA.FSGNMSV146101/I207-113569                                                                                                     
129576     O31E913914600029576201509290300100025006KY-5DMZ                  0004                20151110                                                                                                                                                                                                              
129576     O31E113914600029576201509290300100025006KY-5DMZ                  0005EFDHV25L27A         EFDHV25L27A                   00025347CB00000960PC000000001451220000100020151025SEA.FSGNMSV146101/I207-113569                                                                                                     
129576     O31E913914600029576201509290300100025006KY-5DMZ                  0005                20151110                                                                                                                                                                                                              
129576     O31E113914600029576201509290300100025006KY-5DMZ                  0006EFDHV8D65A          EFDHV8D65A                    00025347CB00035520PC000000000992420000100020151025SEA.FSGNMSV146101/I207-113569                                                                                                     
129576     O31E913914600029576201509290300100025006KY-5DMZ                  0006                20151110                                                                                                                                                                                                              
