129576     O31A113914600029576201511180300100025006KY-959M                       21000250060002947400029474                         FT    Ugi / Mr Joko                 N F/GDS - TRI(ASIA           )  20151117        1N10002957620151216SEA.FMNL                                                               O117
129576     O31A213914600029576201511180300100025006KY-959M                      FOB                               USD                                 PMPC                           20160104                                                            00029576                   00029474  PMPC           20151216 
129576     O31A613914600029576201511180300100025006KY-959M                      T/T BY 10TH OF NEXT MONTH                         BY T/T REMITTANCE ON THE 10TH OF THE NEXT MONTH                                                                                                                                     
129576     O31B113914600029576201511180300100025006KY-959M                      PMPC                          MPH147855/SS100102            KY-959M                       C/NO.                                                                                                                                       
129576     O31E113914600029576201511180300100025006KY-959M                  0001EFDHV11D65A         EFDHV11D65A                   00025347CB00010000PC000000000123510000100020151216SEA.FMNLMPH147855/SS100102                                                                                                        
129576     O31E913914600029576201511180300100025006KY-959M                  0001                20160104                                                                                                                                                                                                              
129576     O31E113914600029576201511180300100025006KY-959M                  0002EFDHV15D65A         EFDHV15D65A                   00025347CB00015000PC000000000123510000100020151216SEA.FMNLMPH147855/SS100102                                                                                                        
129576     O31E913914600029576201511180300100025006KY-959M                  0002                20160104                                                                                                                                                                                                              
129576     O31E113914600029576201511180300100025006KY-959M                  0003EFDHV20D65A         EFDHV20D65A                   00025347CB00030000PC000000001533820000100020151216SEA.FMNLMPH147855/SS100102                                                                                                        
129576     O31E913914600029576201511180300100025006KY-959M                  0003                20160104                                                                                                                                                                                                              
129576     O31E113914600029576201511180300100025006KY-959M                  0004EFDHV25D65A         EFDHV25D65A                   00025347CB00030000PC000000001533820000100020151216SEA.FMNLMPH147855/SS100102                                                                                                        
129576     O31E913914600029576201511180300100025006KY-959M                  0004                20160104                                                                                                                                                                                                              
129576     O31E113914600029576201511180300100025006KY-959M                  0005EFUHV18D65A3        EFUHV18D65A3                  00025347CB00015000PC000000001434220000100020151216SEA.FMNLMPH147855/SS100102                                                                                                        
129576     O31E913914600029576201511180300100025006KY-959M                  0005                20160104                                                                                                                                                                                                              
129576     O31A113914600029576201511180300100025006KY-959L                       21000250060002947400029474                         FT    Ugi / Mr Joko                 N F/GDS - TRI(ASIA           )  20151117        1N10002957620151124SEA.FMNL                                                               O117
129576     O31A213914600029576201511180300100025006KY-959L                      FOB                               USD                                 PMPC                           20151215                                                            00029576                   00029474  PMPC           20151124 
129576     O31A613914600029576201511180300100025006KY-959L                      T/T BY 10TH OF NEXT MONTH                         BY T/T REMITTANCE ON THE 10TH OF THE NEXT MONTH                                                                                                                                     
129576     O31B113914600029576201511180300100025006KY-959L                      PMPC                          MPH147854/SS100103            KY-959L                       C/NO.                                                                                                                                       
129576     O31E113914600029576201511180300100025006KY-959L                  0001FL20SS.D/18G        FL20SS.D/18G                  00025345CB00050000PC000000000492620000100020151124SEA.FMNLMPH147854/SS100103                                                                                                        
129576     O31E913914600029576201511180300100025006KY-959L                  0001                20151215                                                                                                                                                                                                              
129576     O31E113914600029576201511180300100025006KY-959L                  0002FL40SS.D/36G        FL40SS.D/36G                  00025345CB00520000PC000000000591720000100020151124SEA.FMNLMPH147854/SS100103                                                                                                        
129576     O31E913914600029576201511180300100025006KY-959L                  0002                20151215                                                                                                                                                                                                              
