129576     O31A113914600029576201507070300100025006LS-ZBMV                       210002500600039058        1510-7689 -01-LIMA       FT    Ugi / Mr Joko                 N F/GDS - TRI(LATIN AMERICA  )  20150707        1N10002957620150823SEA.FCLL                                                               O407
129576     O31A213914600029576201507070300100025006LS-ZBMV                      FOB                               USD                                                                2015100500039058                                                    00029576                   00039058  PANAPERU       20150823 
129576     O31A613914600029576201507070300100025006LS-ZBMV                      T/T BY 10TH OF NEXT MONTH                         BY T/T REMITTANCE ON THE 10TH OF THE NEXT MONTH                                                                                                                                     
129576     O31B113914600029576201507070300100025006LS-ZBMV                      PANAPERU                      91510003                      LS-ZBMV                       C/NO.                                                                                                                                       
129576     O31E113914600029576201507070300100025006LS-ZBMV                  0001EFDHV8D65L                                        00025347CB00036000PC000000001125520000100020150823SEA.FCLL91510003                                                                                                                  
129576     O31E913914600029576201507070300100025006LS-ZBMV                  0001                2015100500039058                                                                                                                                                                                                      
129576     O31E113914600029576201507070300100025006LS-ZBMV                  0002EFDHV8L27L                                        00025347CB00036000PC000000001125520000100020150823SEA.FCLL91510003                                                                                                                  
129576     O31E913914600029576201507070300100025006LS-ZBMV                  0002                2015100500039058                                                                                                                                                                                                      
129576     O31A113914600029576201507070300100025006LS-ZBN1                       210002500600039058        1509-7690 -01-LIMA       FT    Ugi / Mr Joko                 N F/GDS - TRI(LATIN AMERICA  )  20150707        1N10002957620150724SEA.FCLL                                                               O407
129576     O31A213914600029576201507070300100025006LS-ZBN1                      FOB                               USD                                                                2015090500039058                                                    00029576                   00039058  PANAPERU       20150724 
129576     O31A613914600029576201507070300100025006LS-ZBN1                      T/T BY 10TH OF NEXT MONTH                         BY T/T REMITTANCE ON THE 10TH OF THE NEXT MONTH                                                                                                                                     
129576     O31B113914600029576201507070300100025006LS-ZBN1                      PANAPERU                      91509131                      LS-ZBN1                       C/NO.                                                                                                                                       
129576     O31E113914600029576201507070300100025006LS-ZBN1                  0001EFUHV18L27L                                       00025347CB00020000PC000000001374520000100020150724SEA.FCLL91509131                                                                                                                  
129576     O31E913914600029576201507070300100025006LS-ZBN1                  0001                2015090500039058                                                                                                                                                                                                      
129576     O31E113914600029576201507070300100025006LS-ZBN1                  0002EFUHV18D65L                                       00025347CB00070000PC000000001374520000100020150724SEA.FCLL91509131                                                                                                                  
129576     O31E913914600029576201507070300100025006LS-ZBN1                  0002                2015090500039058                                                                                                                                                                                                      
