129576     O31A113914600029576201507280300100025006KY-0TZS                       210002500600039130                                 FT    Ugi / Mr Joko                 N F/GDS - TRI(ASIA           )  20150727        1N10002957620150825SEA.FLKG                                                               O111
129576     O31A213914600029576201507280300100025006KY-0TZS                      FOB                               USD                                                                20150910                SCMM                                        00029576                   00039130  PST            20150825 
129576     O31A613914600029576201507280300100025006KY-0TZS                      T/T BY 10TH OF NEXT MONTH                         BY T/T REMITTANCE ON THE 10TH OF THE NEXT MONTH                                                                                                                                     
129576     O31B113914600029576201507280300100025006KY-0TZS                      PST                           MST144176/LIGH-138370         KY-0TZS                       LAT KRABANG                   C/NO.                                                                                                         
129576     O31E113914600029576201507280300100025006KY-0TZS                  0001EFDHV25L27T         EFDHV25L27T                   00025347CB00096000PC000000001533820000100020150825SEA.FLKGMST144176/LIGH-138370                                                                                                     
129576     O31E913914600029576201507280300100025006KY-0TZS                  0001                20150910                                                                                                                                                                                                              
129576     O31E113914600029576201507280300100025006KY-0TZS                  0002EFDHV32D65A         EFDHV32D65A                   00025347CB00045840PC000000000274710000100020150825SEA.FLKGMST144176/LIGH-138370                                                                                                     
129576     O31E913914600029576201507280300100025006KY-0TZS                  0002                20150910                                                                                                                                                                                                              
129576     O31E113914600029576201507280300100025006KY-0TZS                  0003EFDHV42D65A         EFDHV42D65A                   00025347CB00036000PC000000003041320000100020150825SEA.FLKGMST144176/LIGH-138370                                                                                                     
129576     O31E913914600029576201507280300100025006KY-0TZS                  0003                20150910                                                                                                                                                                                                              
129576     O31E113914600029576201507280300100025006KY-0TZS                  0004EFDHV5L27T          EFDHV5L27T                    00025347CB00024000PC000000001045820000100020150825SEA.FLKGMST144176/LIGH-138370                                                                                                     
129576     O31E913914600029576201507280300100025006KY-0TZS                  0004                20150910                                                                                                                                                                                                              
129576     O31E113914600029576201507280300100025006KY-0TZS                  0005EFU11E272V          EFU11E272V                    00025347CB00120000PC000000001234520000100020150825SEA.FLKGMST144176/LIGH-138370                                                                                                     
129576     O31E913914600029576201507280300100025006KY-0TZS                  0005                20150910                                                                                                                                                                                                              
129576     O31E113914600029576201507280300100025006KY-0TZS                  0006EFU14E272V          EFU14E272V                    00025347CB00100000PC000000001320320000100020150825SEA.FLKGMST144176/LIGH-138370                                                                                                     
129576     O31E913914600029576201507280300100025006KY-0TZS                  0006                20150910                                                                                                                                                                                                              
129576     O31E113914600029576201507280300100025006KY-0TZS                  0007EFU8E272V           EFU8E272V                     00025347CB00100000PC000000001207920000100020150825SEA.FLKGMST144176/LIGH-138370                                                                                                     
129576     O31E913914600029576201507280300100025006KY-0TZS                  0007                20150910                                                                                                                                                                                                              
129576     O31E113914600029576201507280300100025006KY-0TZS                  0008EFU8E652V           EFU8E652V                     00025347CB00100000PC000000001207920000100020150825SEA.FLKGMST144176/LIGH-138370                                                                                                     
129576     O31E913914600029576201507280300100025006KY-0TZS                  0008                20150910                                                                                                                                                                                                              
129576     O31E113914600029576201507280300100025006KY-0TZS                  0009EFUHV18L27A         EFUHV18L27A                   00025347CB00010000PC000000001354620000100020150825SEA.FLKGMST144176/LIGH-138370                                                                                                     
129576     O31E913914600029576201507280300100025006KY-0TZS                  0009                20150910                                                                                                                                                                                                              
129576     O31E113914600029576201507280300100025006KY-0TZS                  0010EFUHV23L27A         EFUHV23L27A                   00025347CB00020000PC000000001424320000100020150825SEA.FLKGMST144176/LIGH-138370                                                                                                     
129576     O31E913914600029576201507280300100025006KY-0TZS                  0010                20150910                                                                                                                                                                                                              
