129576     O31A113914600029576201506170900100025006KY-XYSR                       210002500600039140                                 FT    Ugi / Mr Joko                 N F/GDS - TRI(ASIA           )  20150617        1N10002957620150720SEA.FPKL                                                               O113
129576     O31A213914600029576201506170900100025006KY-XYSR                      FOB                               USD                                                                20150807                                                            00029576                   00039140  PM             20150720 
129576     O31A613914600029576201506170900100025006KY-XYSR                      T/T BY 10TH OF NEXT MONTH                         BY T/T REMITTANCE ON THE 10TH OF THE NEXT MONTH                                                                                                                                     
129576     O31B113914600029576201506170900100025006KY-XYSR                      PM                            MMQ142784/EL1506001           KY-XYSR                       C/NO.                                                                                                                                       
129576     O31E113914600029576201506170900100025006KY-XYSR                  0001EFDHV11D65A                                       00025347CB00006720PC000000000123510000100020150720SEA.FPKLMMQ142784/EL1506001                                                                                                       
129576     O31E913914600029576201506170900100025006KY-XYSR                  0001                20150807                                                                                                                                                                                                              
