129576     O31A113914600029576201508200300100025006DJ-2GF7                       21000250062001259020012590                         FT    Ugi / Mr Joko                 N F/GDS - TRI(MIDDLE-EAST    )  20150819        1N10002957620150912SEA.FRUH                                                               O137
129576     O31A213914600029576201508200300100025006DJ-2GF7                      FOB                               USD                                 AL-SAEED                       20151010                                                            00029576                   20012590  AL-SAEED       20150912 
129576     O31A613914600029576201508200300100025006DJ-2GF7                      T/T BY 10TH OF NEXT MONTH                         BY T/T REMITTANCE ON THE 10TH OF THE NEXT MONTH                                                                                                                                     
129576     O31B113914600029576201508200300100025006DJ-2GF7                      AL-SAEED                      4500101384                    DJ-2GF7                       C/NO.                                                                                                                                       
129576     O31E113914600029576201508200300100025006DJ-2GF7                  0001EFDHV11D65M         EFDHV11D65M                   00025347CB00052200PC000000000124510000100020150912SEA.FRUH4500101384                                                                                                                
129576     O31E913914600029576201508200300100025006DJ-2GF7                  0001                20151010                                                                                                                                                                                                              
129576     O31E113914600029576201508200300100025006DJ-2GF7                  0002EFDHV15D65M         EFDHV15D65M                   00025347CB00043680PC000000000124510000100020150912SEA.FRUH4500101384                                                                                                                
129576     O31E913914600029576201508200300100025006DJ-2GF7                  0002                20151010                                                                                                                                                                                                              
129576     O31E113914600029576201508200300100025006DJ-2GF7                  0003EFDHV20L27M         EFDHV20L27M                   00025347CB00034320PC000000001553820000100020150912SEA.FRUH4500101384                                                                                                                
129576     O31E913914600029576201508200300100025006DJ-2GF7                  0003                20151010                                                                                                                                                                                                              
129576     O31E113914600029576201508200300100025006DJ-2GF7                  0004EFDHV23L27M         EFDHV23L27M                   00025347CB00026520PC000000001553820000100020150912SEA.FRUH4500101384                                                                                                                
129576     O31E913914600029576201508200300100025006DJ-2GF7                  0004                20151010                                                                                                                                                                                                              
129576     O31E113914600029576201508200300100025006DJ-2GF7                  0005EFDHV23D65M         EFDHV23D65M                   00025347CB00026520PC000000001553820000100020150912SEA.FRUH4500101384                                                                                                                
129576     O31E913914600029576201508200300100025006DJ-2GF7                  0005                20151010                                                                                                                                                                                                              
129576     O31E113914600029576201508200300100025006DJ-2GF7                  0006EFDHV25L27M         EFDHV25L27M                   00025347CB00024480PC000000001553820000100020150912SEA.FRUH4500101384                                                                                                                
129576     O31E913914600029576201508200300100025006DJ-2GF7                  0006                20151010                                                                                                                                                                                                              
129576     O31E113914600029576201508200300100025006DJ-2GF7                  0007EFDHV25D65M         EFDHV25D65M                   00025347CB00024480PC000000001553820000100020150912SEA.FRUH4500101384                                                                                                                
129576     O31E913914600029576201508200300100025006DJ-2GF7                  0007                20151010                                                                                                                                                                                                              
129576     O31E113914600029576201508200300100025006DJ-2GF7                  0008EFDHV32D65A         EFDHV32D65A                   00025347CB00016800PC000000002559720000100020150912SEA.FRUH4500101384                                                                                                                
129576     O31E913914600029576201508200300100025006DJ-2GF7                  0008                20151010                                                                                                                                                                                                              
129576     O31E113914600029576201508200300100025006DJ-2GF7                  0009EFDHV42D65A         EFDHV42D65A                   00025347CB00012420PC000000002898420000100020150912SEA.FRUH4500101384                                                                                                                
129576     O31E913914600029576201508200300100025006DJ-2GF7                  0009                20151010                                                                                                                                                                                                              
