129576     O31A113914600029576201504280300100025006KY-UDKT                       21000250062062061620620616                         FT    Ugi / Mr Joko                 N F/GDS - TRI(ASIA           )  20150427        1N10002957620150623SEA.FSIN                                                               O112
129576     O31A213914600029576201504280300100025006KY-UDKT                      FOB                               USD                                 BLS                            20150710                                                            00029576                   20620616  BLS            20150623 
129576     O31A613914600029576201504280300100025006KY-UDKT                      T/T BY 10TH OF NEXT MONTH                         BY T/T REMITTANCE ON THE 10TH OF THE NEXT MONTH                                                                                                                                     
129576     O31B113914600029576201504280300100025006KY-UDKT                      BLS                           C/NO.                                                                                                                                                                                                   
129576     O31E113914600029576201504280300100025006KY-UDKT                  0001EFDHV11D65A         EFDHV11D65A                   00025347CB00096000PC000000000125510000100020150623SEA.FSINMGM141184/660-403252                                                                                                      
129576     O31E913914600029576201504280300100025006KY-UDKT                  0001                20150710                                                                                                                                                                                                              
129576     O31E113914600029576201504280300100025006KY-UDKT                  0002EFDHV11L27A         EFDHV11L27A                   00025347CB00011520PC000000000125510000100020150623SEA.FSINMGM141184/660-403252                                                                                                      
129576     O31E913914600029576201504280300100025006KY-UDKT                  0002                20150710                                                                                                                                                                                                              
129576     O31E113914600029576201504280300100025006KY-UDKT                  0003EFDHV20L27A         EFDHV20L27A                   00025347CB00004800PC000000001553820000100020150623SEA.FSINMGM141184/660-403252                                                                                                      
129576     O31E913914600029576201504280300100025006KY-UDKT                  0003                20150710                                                                                                                                                                                                              
129576     O31E113914600029576201504280300100025006KY-UDKT                  0004EFDHV23D65A         EFDHV23D65A                   00025347CB00038400PC000000001553820000100020150623SEA.FSINMGM141184/660-403252                                                                                                      
129576     O31E913914600029576201504280300100025006KY-UDKT                  0004                20150710                                                                                                                                                                                                              
129576     O31E113914600029576201504280300100025006KY-UDKT                  0005EFDHV25D65A         EFDHV25D65A                   00025347CB00096000PC000000001553820000100020150623SEA.FSINMGM141184/660-403252                                                                                                      
129576     O31E913914600029576201504280300100025006KY-UDKT                  0005                20150710                                                                                                                                                                                                              
129576     O31E113914600029576201504280300100025006KY-UDKT                  0006EFDHV15D65A         EFDHV15D65A                   00025347CB00059520PC000000000125510000100020150623SEA.FSINMGM141184/660-403252                                                                                                      
129576     O31E913914600029576201504280300100025006KY-UDKT                  0006                20150710                                                                                                                                                                                                              
129576     O31E113914600029576201504280300100025006KY-UDKT                  0007EFDHV15L27A         EFDHV15L27A                   00025347CB00009600PC000000000125510000100020150623SEA.FSINMGM141184/660-403252                                                                                                      
129576     O31E913914600029576201504280300100025006KY-UDKT                  0007                20150710                                                                                                                                                                                                              
129576     O31E113914600029576201504280300100025006KY-UDKT                  0008EFDHV20D65A         EFDHV20D65A                   00025347CB00038400PC000000001553820000100020150623SEA.FSINMGM141184/660-403252                                                                                                      
129576     O31E913914600029576201504280300100025006KY-UDKT                  0008                20150710                                                                                                                                                                                                              
129576     O31E113914600029576201504280300100025006KY-UDKT                  0009EFDHV5D65A          EFDHV5D65A                    00025347CB00048000PC000000001075720000100020150623SEA.FSINMGM141184/660-403252                                                                                                      
129576     O31E913914600029576201504280300100025006KY-UDKT                  0009                20150710                                                                                                                                                                                                              
129576     O31E113914600029576201504280300100025006KY-UDKT                  0010EFDHV8D65A          EFDHV8D65A                    00025347CB00024000PC000000001075720000100020150623SEA.FSINMGM141184/660-403252                                                                                                      
129576     O31E913914600029576201504280300100025006KY-UDKT                  0010                20150710                                                                                                                                                                                                              
129576     O31A113914600029576201504280300100025006KY-UCRX                       210002500620619678                                 FT    Ugi / Mr Joko                 N F/GDS - TRI(ASIA           )  20150427        1N10002957620150524SEA.FSGN                                                               O110
129576     O31A213914600029576201504280300100025006KY-UCRX                      FOB                               USD                                                                20150610                SCMM                                        00029576                   20619678  PV-PSV HCM     20150524 
129576     O31A613914600029576201504280300100025006KY-UCRX                      T/T BY 10TH OF NEXT MONTH                         BY T/T REMITTANCE ON THE 10TH OF THE NEXT MONTH                                                                                                                                     
129576     O31B113914600029576201504280300100025006KY-UCRX                      PV-PSV HCM                    MSV141152/I207-112731         KY-UCRX                       C/NO.                                                                                                                                       
129576     O31E113914600029576201504280300100025006KY-UCRX                  0001EFD11E65HD3A2       EFD11E65HD3A2                 00390770CB00022800PC000000000124510000100020150524SEA.FSGNMSV141152/I207-112731                                                                                                     
129576     O31E913914600029576201504280300100025006KY-UCRX                  0001                20150610                                                                                                                                                                                                              
129576     O31E113914600029576201504280300100025006KY-UCRX                  0002EFD14E27HD3A2       EFD14E27HD3A2                 00390770CB00039600PC000000000124510000100020150524SEA.FSGNMSV141152/I207-112731                                                                                                     
129576     O31E913914600029576201504280300100025006KY-UCRX                  0002                20150610                                                                                                                                                                                                              
129576     O31E113914600029576201504280300100025006KY-UCRX                  0003EFD14E65HD3A2       EFD14E65HD3A2                 00390770CB00060000PC000000000124510000100020150524SEA.FSGNMSV141152/I207-112731                                                                                                     
129576     O31E913914600029576201504280300100025006KY-UCRX                  0003                20150610                                                                                                                                                                                                              
129576     O31E113914600029576201504280300100025006KY-UCRX                  0004EFD19E65HD3A        EFD19E65HD3A                  00390770CB00012000PC000000001543820000100020150524SEA.FSGNMSV141152/I207-112731                                                                                                     
129576     O31E913914600029576201504280300100025006KY-UCRX                  0004                20150610                                                                                                                                                                                                              
129576     O31E113914600029576201504280300100025006KY-UCRX                  0005EFD5E65HD3A2        EFD5E65HD3A2                  00390770CB00004800PC000000001055820000100020150524SEA.FSGNMSV141152/I207-112731                                                                                                     
129576     O31E913914600029576201504280300100025006KY-UCRX                  0005                20150610                                                                                                                                                                                                              
