129576     O31A113914600029576201507160300100025006KY-02LD                       210002500600029073                                 FT    Ugi / Mr Joko                 N F/GDS - TRI(ASIA           )  20150715        1N10002957620150725SEA.FSIN                                                               O112
129576     O31A213914600029576201507160300100025006KY-02LD                      FOB                               USD                                                                20150810                                                            00029576                   00029073  PSP-DD         20150725 
129576     O31A613914600029576201507160300100025006KY-02LD                      T/T BY 10TH OF NEXT MONTH                         BY T/T REMITTANCE ON THE 10TH OF THE NEXT MONTH                                                                                                                                     
129576     O31B113914600029576201507160300100025006KY-02LD                      PSP-DD                        MSP143776/DD5555-233122       KY-02LD                       C/NO.                                                                                                                                       
129576     O31E113914600029576201507160300100025006KY-02LD                  0001EFU18E652V          EFU18E652V                    00025347CB00003000PC000000001367620000100020150725SEA.FSINMSP143776/DD5555-233122                                                                                                   
129576     O31E913914600029576201507160300100025006KY-02LD                  0001                20150810                                                                                                                                                                                                              
129576     O31E113914600029576201507160300100025006KY-02LD                  0002EFU8E652V           EFU8E652V                     00025347CB00003000PC000000001171420000100020150725SEA.FSINMSP143776/DD5555-233122                                                                                                   
129576     O31E913914600029576201507160300100025006KY-02LD                  0002                20150810                                                                                                                                                                                                              
129576     O31A113914600029576201507160300100025006KY-02L4                       210002500600029073                                 FT    Ugi / Mr Joko                 N F/GDS - TRI(ASIA           )  20150715        1N10002957620150804SEA.FSIN                                                               O112
129576     O31A213914600029576201507160300100025006KY-02L4                      FOB                               USD                                                                20150810                                                            00029576                   00029073  PSP-DD         20150804 
129576     O31A613914600029576201507160300100025006KY-02L4                      T/T BY 10TH OF NEXT MONTH                         BY T/T REMITTANCE ON THE 10TH OF THE NEXT MONTH                                                                                                                                     
129576     O31B113914600029576201507160300100025006KY-02L4                      NO MARK                                                                                                                                                                                                                               
129576     O31E113914600029576201507160300100025006KY-02L4                  0001FL20SS.D/18G        FL20SS.D/18                   00025345CB00060000PC000000000403320000100020150804SEA.FSINMSP143779/DD5555-233119                                                                                                   
129576     O31E913914600029576201507160300100025006KY-02L4                  0001                20150810                                                                                                                                                                                                              
129576     O31E113914600029576201507160300100025006KY-02L4                  0002FL40SS.D/36G        FL40SS.D/36                   00025345CB00080000PC000000000461420000100020150804SEA.FSINMSP143779/DD5555-233119                                                                                                   
129576     O31E913914600029576201507160300100025006KY-02L4                  0002                20150810                                                                                                                                                                                                              
129576     O31A113914600029576201507160300100025006KY-02LL                       210002500600029073                                 FT    Ugi / Mr Joko                 N F/GDS - TRI(ASIA           )  20150715        1N10002957620150725SEA.FSIN                                                               O112
129576     O31A213914600029576201507160300100025006KY-02LL                      FOB                               USD                                                                20150810                                                            00029576                   00029073  PSP-DD         20150725 
129576     O31A613914600029576201507160300100025006KY-02LL                      T/T BY 10TH OF NEXT MONTH                         BY T/T REMITTANCE ON THE 10TH OF THE NEXT MONTH                                                                                                                                     
129576     O31B113914600029576201507160300100025006KY-02LL                      PSP-DD                        MSP143780/DD5555-233121       KY-02LL                       C/NO.                                                                                                                                       
129576     O31E113914600029576201507160300100025006KY-02LL                  0001EFDHV15L27A         EFDHV15L27A                   00025347CB00008640PC000000000123510000100020150725SEA.FSINMSP143780/DD5555-233121                                                                                                   
129576     O31E913914600029576201507160300100025006KY-02LL                  0001                20150810                                                                                                                                                                                                              
