129576     O31A113914600029576201510280900100025006LS-7M3R                       210002500600039058        1601-35101-10-LIMA       FT    Ugi / Mr Joko                 N F/GDS - TRI(LATIN AMERICA  )  20151028        1N10002957620151123SEA.FCLL                                                               O407
129576     O31A213914600029576201510280900100025006LS-7M3R                      FOB                               USD                                                                2016010500039058        SCMM                                        00029576                   00039058  PANAPERU       20151123 
129576     O31A613914600029576201510280900100025006LS-7M3R                      T/T BY 10TH OF NEXT MONTH                         BY T/T REMITTANCE ON THE 10TH OF THE NEXT MONTH                                                                                                                                     
129576     O31B113914600029576201510280900100025006LS-7M3R                      PANAPERU                      91601056                      LS-7M3R                       C/NO.                                                                                                                                       
129576     O31E113914600029576201510280900100025006LS-7M3R                  0001EFDHV11D65L                                       00025347CB00015000PC000000001185220000100020151123SEA.FCLL91601056                                                                                                                  
129576     O31E913914600029576201510280900100025006LS-7M3R                  0001                2016010500039058                                                                                                                                                                                                      
129576     O31E113914600029576201510280900100025006LS-7M3R                  0002EFDHV11L27L                                       00025347CB00017520PC000000001185220000100020151123SEA.FCLL91601056                                                                                                                  
129576     O31E913914600029576201510280900100025006LS-7M3R                  0002                2016010500039058                                                                                                                                                                                                      
129576     O31A113914600029576201510280900100025006LS-7M7Z                       210002500600039051000390515000032356               FT    Ugi / Mr Joko                 N F/GDS - TRI(LATIN AMERICA  )  20151028        1N10002957620151204SEA.FMEX                                                               O305
129576     O31A213914600029576201510280900100025006LS-7M7Z                      FOB                               USD                                 PANAMEX                        201601050003905100039051SCMM                                        00029576                   00039051  PANAMEX        20151204 
129576     O31A613914600029576201510280900100025006LS-7M7Z                      T/T BY 10TH OF NEXT MONTH                         BY T/T REMITTANCE ON THE 10TH OF THE NEXT MONTH                                                                                                                                     
129576     O31B113914600029576201510280900100025006LS-7M7Z                      PANAMEX                       91512152                      LS-7M7Z                       C/NO.                                                                                                                                       
129576     O31E113914600029576201510280900100025006LS-7M7Z                  0001EFDLV25D65L                                       00025347CB00004800PC000000001563720000100020151204SEA.FMEX91512152                                                                                                                  
129576     O31E913914600029576201510280900100025006LS-7M7Z                  0001                2016010500039051                                                                                                                                                                                                      
129576     O31E113914600029576201510280900100025006LS-7M7Z                  0002EFDLV11L27L                                       00025347CB00002400PC000000001115520000100020151204SEA.FMEX91512152                                                                                                                  
129576     O31E913914600029576201510280900100025006LS-7M7Z                  0002                2016010500039051                                                                                                                                                                                                      
129576     O31E113914600029576201510280900100025006LS-7M7Z                  0003EFDLV11D65L                                       00025347CB00003000PC000000001115520000100020151204SEA.FMEX91512152                                                                                                                  
129576     O31E913914600029576201510280900100025006LS-7M7Z                  0003                2016010500039051                                                                                                                                                                                                      
129576     O31E113914600029576201510280900100025006LS-7M7Z                  0004EFDLV15L27L                                       00025347CB00002040PC000000001115520000100020151204SEA.FMEX91512152                                                                                                                  
129576     O31E913914600029576201510280900100025006LS-7M7Z                  0004                2016010500039051                                                                                                                                                                                                      
129576     O31A113914600029576201510280900100025006LS-7M03                       210002500600029471        51512602-PANAC           FT    Ugi / Mr Joko                 N F/GDS - TRI(LATIN AMERICA  )  20151028        1N10002957620151207SEA.FSJO                                                               O311
129576     O31A213914600029576201510280900100025006LS-7M03                      FOB                               USD                                                                20160105                SCMM                                        00029576                   00029471  PCA            20151207 
129576     O31A613914600029576201510280900100025006LS-7M03                      T/T BY 10TH OF NEXT MONTH                         BY T/T REMITTANCE ON THE 10TH OF THE NEXT MONTH                                                                                                                                     
129576     O31B113914600029576201510280900100025006LS-7M03                      LS-7M03                                                                                                                                                                                                                               
129576     O31E113914600029576201510280900100025006LS-7M03                  0001EFDLV15D65L                                       00025347CB00011280PC000000001165320000100020151207SEA.FSJO51512602-PANAC                                                                                                            
129576     O31E913914600029576201510280900100025006LS-7M03                  0001                20160105                                                                                                                                                                                                              
129576     O31E113914600029576201510280900100025006LS-7M03                  0002EFDLV15L27L                                       00025347CB00002160PC000000001165320000100020151207SEA.FSJO51512602-PANAC                                                                                                            
129576     O31E913914600029576201510280900100025006LS-7M03                  0002                20160105                                                                                                                                                                                                              
129576     O31E113914600029576201510280900100025006LS-7M03                  0003EFDLV20D65L                                       00025347CB00032760PC000000001404420000100020151207SEA.FSJO51512602-PANAC                                                                                                            
129576     O31E913914600029576201510280900100025006LS-7M03                  0003                20160105                                                                                                                                                                                                              
