129576     O31A113914600029576201511231600100025006KY-9HAD                       21000250060002947400029474                         FT    Ugi / Mr Joko                 N F/GDS - TRI(ASIA           )  20151123        1N10002957620151220SEA.FMNL                                                               O117
129576     O31A213914600029576201511231600100025006KY-9HAD                      FOB                               USD                                 PMPC                           20160108                                                            00029576                   00029474  PMPC           20151220 
129576     O31A613914600029576201511231600100025006KY-9HAD                      T/T BY 10TH OF NEXT MONTH                         BY T/T REMITTANCE ON THE 10TH OF THE NEXT MONTH                                                                                                                                     
129576     O31B113914600029576201511231600100025006KY-9HAD                      PMPC                          MPH147930/SS100105            KY-9HAD                       C/NO.                                                                                                                                       
129576     O31E113914600029576201511231600100025006KY-9HAD                  0001EFDHV11D65A         EFDHV11D65A                   00025347CB00010560PC000000000123510000100020151220SEA.FMNLMPH147930/SS100105                                                                                                        
129576     O31E913914600029576201511231600100025006KY-9HAD                  0001                20160108                                                                                                                                                                                                              
129576     O31E113914600029576201511231600100025006KY-9HAD                  0002EFDHV15D65A         EFDHV15D65A                   00025347CB00015360PC000000000123510000100020151220SEA.FMNLMPH147930/SS100105                                                                                                        
129576     O31E913914600029576201511231600100025006KY-9HAD                  0002                20160108                                                                                                                                                                                                              
129576     O31E113914600029576201511231600100025006KY-9HAD                  0003EFDHV20D65A         EFDHV20D65A                   00025347CB00030720PC000000001533820000100020151220SEA.FMNLMPH147930/SS100105                                                                                                        
129576     O31E913914600029576201511231600100025006KY-9HAD                  0003                20160108                                                                                                                                                                                                              
129576     O31E113914600029576201511231600100025006KY-9HAD                  0004EFDHV25D65A         EFDHV25D65A                   00025347CB00030720PC000000001533820000100020151220SEA.FMNLMPH147930/SS100105                                                                                                        
129576     O31E913914600029576201511231600100025006KY-9HAD                  0004                20160108                                                                                                                                                                                                              
129576     O31E113914600029576201511231600100025006KY-9HAD                  0005EFUHV18D65A3        EFUHV18D65A3                  00025347CB00015000PC000000001434220000100020151220SEA.FMNLMPH147930/SS100105                                                                                                        
129576     O31E913914600029576201511231600100025006KY-9HAD                  0005                20160108                                                                                                                                                                                                              
129576     O31A113914600029576201511231600100025006KY-9HAG                       21000250060002947400029474                         FT    Ugi / Mr Joko                 N F/GDS - TRI(ASIA           )  20151123        1N10002957620151218SEA.FMNL                                                               O117
129576     O31A213914600029576201511231600100025006KY-9HAG                      FOB                               USD                                 PMPC                           20160108                                                            00029576                   00029474  PMPC           20151218 
129576     O31A613914600029576201511231600100025006KY-9HAG                      T/T BY 10TH OF NEXT MONTH                         BY T/T REMITTANCE ON THE 10TH OF THE NEXT MONTH                                                                                                                                     
129576     O31B113914600029576201511231600100025006KY-9HAG                      PMPC                          MPH147933/SS100106            KY-9HAG                       C/NO.                                                                                                                                       
129576     O31E113914600029576201511231600100025006KY-9HAG                  0001FL20SS.D/18G        FL20SS.D/18G                  00025345CB00050000PC000000000492620000100020151218SEA.FMNLMPH147933/SS100106                                                                                                        
129576     O31E913914600029576201511231600100025006KY-9HAG                  0001                20160108                                                                                                                                                                                                              
129576     O31E113914600029576201511231600100025006KY-9HAG                  0002FL40SS.D/36G        FL40SS.D/36G                  00025345CB00520000PC000000000591720000100020151218SEA.FMNLMPH147933/SS100106                                                                                                        
129576     O31E913914600029576201511231600100025006KY-9HAG                  0002                20160108                                                                                                                                                                                                              
