129576     O31A113914600029576201510210900100025006KY-72BC                       210002500620619678                                 FT    Ugi / Mr Joko                 N F/GDS - TRI(ASIA           )  20151021        1N10002957620151030SEA.FSGN                                                               O110
129576     O31A213914600029576201510210900100025006KY-72BC                      FOB                               USD                                                                20151104                                                            00029576                   20619678  PV-PSV HCM     20151030 
129576     O31A613914600029576201510210900100025006KY-72BC                      T/T BY 10TH OF NEXT MONTH                         BY T/T REMITTANCE ON THE 10TH OF THE NEXT MONTH                                                                                                                                     
129576     O31B113914600029576201510210900100025006KY-72BC                      PV-PSV                        MSV146973/I207-113717         C/NO.                                                                                                                                                                     
129576     O31E113914600029576201510210900100025006KY-72BC                  0001EFDHV8L27A          EFDHV8L27A                    00025347CB00015360PC000000000992420000100020151030SEA.FSGNMSV146973/I207-113717                                                                                                     
129576     O31E913914600029576201510210900100025006KY-72BC                  0001                20151104                                                                                                                                                                                                              
