129576     O31A113914600029576201507300300100025006KY-139F                       21000250062062061620620616                         FT    Ugi / Mr Joko                 N F/GDS - TRI(ASIA           )  20150729        1N10002957620150923SEA.FSIN                                                               O112
129576     O31A213914600029576201507300300100025006KY-139F                      FOB                               USD                                 BLS                            20151010                                                            00029576                   20620616  BLS            20150923 
129576     O31A613914600029576201507300300100025006KY-139F                      T/T BY 10TH OF NEXT MONTH                         BY T/T REMITTANCE ON THE 10TH OF THE NEXT MONTH                                                                                                                                     
129576     O31B113914600029576201507300300100025006KY-139F                      BLS                           C/NO.                                                                                                                                                                                                   
129576     O31E113914600029576201507300300100025006KY-139F                  0001EFDHV32D65A         EFDHV32D65A                   00025347CB00096000PC000000000274710000100020150923SEA.FSINMGM144485/660-403612                                                                                                      
129576     O31E913914600029576201507300300100025006KY-139F                  0001                20151010                                                                                                                                                                                                              
129576     O31E113914600029576201507300300100025006KY-139F                  0002EFDHV42D65A         EFDHV42D65A                   00025347CB00096000PC000000003041320000100020150923SEA.FSINMGM144485/660-403612                                                                                                      
129576     O31E913914600029576201507300300100025006KY-139F                  0002                20151010                                                                                                                                                                                                              
129576     O31A113914600029576201507300300100025006KY-139P                       21000250062062061620620616                         FT    Ugi / Mr Joko                 N F/GDS - TRI(ASIA           )  20150729        1N10002957620151024SEA.FSIN                                                               O112
129576     O31A213914600029576201507300300100025006KY-139P                      FOB                               USD                                 BLS                            20151110                                                            00029576                   20620616  BLS            20151024 
129576     O31A613914600029576201507300300100025006KY-139P                      T/T BY 10TH OF NEXT MONTH                         BY T/T REMITTANCE ON THE 10TH OF THE NEXT MONTH                                                                                                                                     
129576     O31B113914600029576201507300300100025006KY-139P                      BLS                           C/NO.                                                                                                                                                                                                   
129576     O31E113914600029576201507300300100025006KY-139P                  0001EFU11E272V          EFU11E272V                    00025347CB00012000PC000000001398520000100020151024SEA.FSINMGM144484/660-403608                                                                                                      
129576     O31E913914600029576201507300300100025006KY-139P                  0001                20151110                                                                                                                                                                                                              
129576     O31E113914600029576201507300300100025006KY-139P                  0002EFU14E272V          EFU14E272V                    00025347CB00012000PC000000001398520000100020151024SEA.FSINMGM144484/660-403608                                                                                                      
129576     O31E913914600029576201507300300100025006KY-139P                  0002                20151110                                                                                                                                                                                                              
129576     O31E113914600029576201507300300100025006KY-139P                  0003EFU14E652V          EFU14E652V                    00025347CB00006000PC000000001398520000100020151024SEA.FSINMGM144484/660-403608                                                                                                      
129576     O31E913914600029576201507300300100025006KY-139P                  0003                20151110                                                                                                                                                                                                              
129576     O31E113914600029576201507300300100025006KY-139P                  0004EFU18E652V          EFU18E652V                    00025347CB00024000PC000000001599120000100020151024SEA.FSINMGM144484/660-403608                                                                                                      
129576     O31E913914600029576201507300300100025006KY-139P                  0004                20151110                                                                                                                                                                                                              
129576     O31E113914600029576201507300300100025006KY-139P                  0005EFU5E282V           EFU5E282V                     00025347CB00012000PC000000001261320000100020151024SEA.FSINMGM144484/660-403608                                                                                                      
129576     O31E913914600029576201507300300100025006KY-139P                  0005                20151110                                                                                                                                                                                                              
129576     O31E113914600029576201507300300100025006KY-139P                  0006EFU8E272V           EFU8E272V                     00025347CB00006000PC000000001370120000100020151024SEA.FSINMGM144484/660-403608                                                                                                      
129576     O31E913914600029576201507300300100025006KY-139P                  0006                20151110                                                                                                                                                                                                              
129576     O31A113914600029576201507300300100025006KY-138Q                       21000250062062061620620616                         FT    Ugi / Mr Joko                 N F/GDS - TRI(ASIA           )  20150729        1N10002957620151024SEA.FSIN                                                               O112
129576     O31A213914600029576201507300300100025006KY-138Q                      FOB                               USD                                 BLS                            20151110                                                            00029576                   20620616  BLS            20151024 
129576     O31A613914600029576201507300300100025006KY-138Q                      T/T BY 10TH OF NEXT MONTH                         BY T/T REMITTANCE ON THE 10TH OF THE NEXT MONTH                                                                                                                                     
129576     O31B113914600029576201507300300100025006KY-138Q                      BLS                           C/NO.                                                                                                                                                                                                   
129576     O31E113914600029576201507300300100025006KY-138Q                  0001EFDHV32D65A         EFDHV32D65A                   00025347CB00048000PC000000000274710000100020151024SEA.FSINMGM144486/660-403609                                                                                                      
129576     O31E913914600029576201507300300100025006KY-138Q                  0001                20151110                                                                                                                                                                                                              
129576     O31E113914600029576201507300300100025006KY-138Q                  0002EFDHV42D65A         EFDHV42D65A                   00025347CB00048000PC000000003041320000100020151024SEA.FSINMGM144486/660-403609                                                                                                      
129576     O31E913914600029576201507300300100025006KY-138Q                  0002                20151110                                                                                                                                                                                                              
129576     O31A113914600029576201507300300100025006KY-139G                       21000250062062061620620616                         FT    Ugi / Mr Joko                 N F/GDS - TRI(ASIA           )  20150729        1N10002957620150923SEA.FSIN                                                               O112
129576     O31A213914600029576201507300300100025006KY-139G                      FOB                               USD                                 BLS                            20151010                                                            00029576                   20620616  BLS            20150923 
129576     O31A613914600029576201507300300100025006KY-139G                      T/T BY 10TH OF NEXT MONTH                         BY T/T REMITTANCE ON THE 10TH OF THE NEXT MONTH                                                                                                                                     
129576     O31B113914600029576201507300300100025006KY-139G                      BLS                           C/NO.                                                                                                                                                                                                   
129576     O31E113914600029576201507300300100025006KY-139G                  0001EFDHV11D65BA        EFDHV11D65BA                  00025347CB00048000PC000000000125510000100020150923SEA.FSINMGM144488/660-403611                                                                                                      
129576     O31E913914600029576201507300300100025006KY-139G                  0001                20151010                                                                                                                                                                                                              
129576     O31E113914600029576201507300300100025006KY-139G                  0002EFDHV15D65BA        EFDHV15D65BA                  00025347CB00048000PC000000000125510000100020150923SEA.FSINMGM144488/660-403611                                                                                                      
129576     O31E913914600029576201507300300100025006KY-139G                  0002                20151010                                                                                                                                                                                                              
129576     O31E113914600029576201507300300100025006KY-139G                  0003EFDHV23D65BA        EFDHV23D65BA                  00025347CB00035520PC000000001553820000100020150923SEA.FSINMGM144488/660-403611                                                                                                      
129576     O31E913914600029576201507300300100025006KY-139G                  0003                20151010                                                                                                                                                                                                              
129576     O31E113914600029576201507300300100025006KY-139G                  0004EFDHV25D65BA        EFDHV25D65BA                  00025347CB00096000PC000000001553820000100020150923SEA.FSINMGM144488/660-403611                                                                                                      
129576     O31E913914600029576201507300300100025006KY-139G                  0004                20151010                                                                                                                                                                                                              
129576     O31E113914600029576201507300300100025006KY-139G                  0005EFDHV5D65BA         EFDHV5D65BA                   00025347CB00035520PC000000001075720000100020150923SEA.FSINMGM144488/660-403611                                                                                                      
129576     O31E913914600029576201507300300100025006KY-139G                  0005                20151010                                                                                                                                                                                                              
129576     O31E113914600029576201507300300100025006KY-139G                  0006EFDHV8D65BA         EFDHV8D65BA                   00025347CB00035520PC000000001075720000100020150923SEA.FSINMGM144488/660-403611                                                                                                      
129576     O31E913914600029576201507300300100025006KY-139G                  0006                20151010                                                                                                                                                                                                              
129576     O31E113914600029576201507300300100025006KY-139G                  0007EFDHV20D65BA        EFDHV20D65BA                  00025347CB00059520PC000000001553820000100020150923SEA.FSINMGM144488/660-403611                                                                                                      
129576     O31E913914600029576201507300300100025006KY-139G                  0007                20151010                                                                                                                                                                                                              
129576     O31A113914600029576201507300300100025006KY-139B                       21000250062062061620620616                         FT    Ugi / Mr Joko                 N F/GDS - TRI(ASIA           )  20150729        1N10002957620151024SEA.FSIN                                                               O112
129576     O31A213914600029576201507300300100025006KY-139B                      FOB                               USD                                 BLS                            20151110                                                            00029576                   20620616  BLS            20151024 
129576     O31A613914600029576201507300300100025006KY-139B                      T/T BY 10TH OF NEXT MONTH                         BY T/T REMITTANCE ON THE 10TH OF THE NEXT MONTH                                                                                                                                     
129576     O31B113914600029576201507300300100025006KY-139B                      BLS                           C/NO.                                                                                                                                                                                                   
129576     O31E113914600029576201507300300100025006KY-139B                  0001EFDHV11D65BA        EFDHV11D65BA                  00025347CB00048000PC000000000125510000100020151024SEA.FSINMGM144477/660-403610                                                                                                      
129576     O31E913914600029576201507300300100025006KY-139B                  0001                20151110                                                                                                                                                                                                              
129576     O31E113914600029576201507300300100025006KY-139B                  0002EFDHV15D65BA        EFDHV15D65BA                  00025347CB00048000PC000000000125510000100020151024SEA.FSINMGM144477/660-403610                                                                                                      
129576     O31E913914600029576201507300300100025006KY-139B                  0002                20151110                                                                                                                                                                                                              
129576     O31E113914600029576201507300300100025006KY-139B                  0003EFDHV23D65BA        EFDHV23D65BA                  00025347CB00035520PC000000001553820000100020151024SEA.FSINMGM144477/660-403610                                                                                                      
129576     O31E913914600029576201507300300100025006KY-139B                  0003                20151110                                                                                                                                                                                                              
129576     O31E113914600029576201507300300100025006KY-139B                  0004EFDHV25D65BA        EFDHV25D65BA                  00025347CB00096000PC000000001553820000100020151024SEA.FSINMGM144477/660-403610                                                                                                      
129576     O31E913914600029576201507300300100025006KY-139B                  0004                20151110                                                                                                                                                                                                              
129576     O31E113914600029576201507300300100025006KY-139B                  0005EFDHV20D65BA        EFDHV20D65BA                  00025347CB00059520PC000000001553820000100020151024SEA.FSINMGM144477/660-403610                                                                                                      
129576     O31E913914600029576201507300300100025006KY-139B                  0005                20151110                                                                                                                                                                                                              
