129576     O31A113914600029576201506170300100025006KY-XX9T                       210002500600039140                                 FT    Ugi / Mr Joko                 N F/GDS - TRI(ASIA           )  20150616        1N10002957620150725SEA.FPKL                                                               O113
129576     O31A213914600029576201506170300100025006KY-XX9T                      FOB                               USD                                                                20150807                                                            00029576                   00039140  PM             20150725 
129576     O31A613914600029576201506170300100025006KY-XX9T                      T/T BY 10TH OF NEXT MONTH                         BY T/T REMITTANCE ON THE 10TH OF THE NEXT MONTH                                                                                                                                     
129576     O31B113914600029576201506170300100025006KY-XX9T                      PM                            MMQ142783/EL1506002           KY-XX9T                       C/NO.                                                                                                                                       
129576     O31E113914600029576201506170300100025006KY-XX9T                  0001EFDHV15D65A                                       00025347CB00016320PC000000000123510000100020150725SEA.FPKLMMQ142783/EL1506002                                                                                                       
129576     O31E913914600029576201506170300100025006KY-XX9T                  0001                20150807                                                                                                                                                                                                              
129576     O31E113914600029576201506170300100025006KY-XX9T                  0002EFDHV20D65A                                       00025347CB00016320PC000000001533820000100020150725SEA.FPKLMMQ142783/EL1506002                                                                                                       
129576     O31E913914600029576201506170300100025006KY-XX9T                  0002                20150807                                                                                                                                                                                                              
129576     O31E113914600029576201506170300100025006KY-XX9T                  0003EFDHV23D65A                                       00025347CB00030720PC000000001533820000100020150725SEA.FPKLMMQ142783/EL1506002                                                                                                       
129576     O31E913914600029576201506170300100025006KY-XX9T                  0003                20150807                                                                                                                                                                                                              
129576     O31E113914600029576201506170300100025006KY-XX9T                  0004EFDHV25D65A                                       00025347CB00060480PC000000001533820000100020150725SEA.FPKLMMQ142783/EL1506002                                                                                                       
129576     O31E913914600029576201506170300100025006KY-XX9T                  0004                20150807                                                                                                                                                                                                              
129576     O31E113914600029576201506170300100025006KY-XX9T                  0005EFDHV5D65A                                        00025347CB00012480PC000000001045820000100020150725SEA.FPKLMMQ142783/EL1506002                                                                                                       
129576     O31E913914600029576201506170300100025006KY-XX9T                  0005                20150807                                                                                                                                                                                                              
129576     O31E113914600029576201506170300100025006KY-XX9T                  0006EFDHV8D65A                                        00025347CB00004800PC000000001045820000100020150725SEA.FPKLMMQ142783/EL1506002                                                                                                       
129576     O31E913914600029576201506170300100025006KY-XX9T                  0006                20150807                                                                                                                                                                                                              
129576     O31E113914600029576201506170300100025006KY-XX9T                  0007EFU18E652V                                        00025347CB00620000PC000000001355920000100020150725SEA.FPKLMMQ142783/EL1506002                                                                                                       
129576     O31E913914600029576201506170300100025006KY-XX9T                  0007                20150807                                                                                                                                                                                                              
