129576     O31A113914600029576201509031300100025006KY-3LHB                       21000250062062061620620616                         FT    Ugi / Mr Joko                 N F/GDS - TRI(ASIA           )  20150903        1N10002957620150923SEA.FSIN                                                               O112
129576     O31A213914600029576201509031300100025006KY-3LHB                      FOB                               USD                                 BLS                            20151010                                                            00029576                   20620616  BLS            20150923 
129576     O31A613914600029576201509031300100025006KY-3LHB                      T/T BY 10TH OF NEXT MONTH                         BY T/T REMITTANCE ON THE 10TH OF THE NEXT MONTH                                                                                                                                     
129576     O31B113914600029576201509031300100025006KY-3LHB                      BLS                           C/NO.                                                                                                                                                                                                   
129576     O31E113914600029576201509031300100025006KY-3LHB                  0001EFDHV23D65A         EFDHV23D65A                   00025347CB00038400PC000000001553820000100020150923SEA.FSINMGM145628/660-403630                                                                                                      
129576     O31E913914600029576201509031300100025006KY-3LHB                  0001                20151010                                                                                                                                                                                                              
129576     O31E113914600029576201509031300100025006KY-3LHB                  0002EFDHV25D65A         EFDHV25D65A                   00025347CB00048000PC000000001553820000100020150923SEA.FSINMGM145628/660-403630                                                                                                      
129576     O31E913914600029576201509031300100025006KY-3LHB                  0002                20151010                                                                                                                                                                                                              
129576     O31E113914600029576201509031300100025006KY-3LHB                  0003EFDHV15D65A         EFDHV15D65A                   00025347CB00096000PC000000000125510000100020150923SEA.FSINMGM145628/660-403630                                                                                                      
129576     O31E913914600029576201509031300100025006KY-3LHB                  0003                20151010                                                                                                                                                                                                              
129576     O31E113914600029576201509031300100025006KY-3LHB                  0004EFDHV20D65A         EFDHV20D65A                   00025347CB00024000PC000000001553820000100020150923SEA.FSINMGM145628/660-403630                                                                                                      
129576     O31E913914600029576201509031300100025006KY-3LHB                  0004                20151010                                                                                                                                                                                                              
129576     O31A113914600029576201509031300100025006KY-3LHC                       21000250062062061620620616                         FT    Ugi / Mr Joko                 N F/GDS - TRI(ASIA           )  20150903        1N10002957620151024SEA.FSIN                                                               O112
129576     O31A213914600029576201509031300100025006KY-3LHC                      FOB                               USD                                 BLS                            20151110                                                            00029576                   20620616  BLS            20151024 
129576     O31A613914600029576201509031300100025006KY-3LHC                      T/T BY 10TH OF NEXT MONTH                         BY T/T REMITTANCE ON THE 10TH OF THE NEXT MONTH                                                                                                                                     
129576     O31B113914600029576201509031300100025006KY-3LHC                      BLS                           C/NO.                                                                                                                                                                                                   
129576     O31E113914600029576201509031300100025006KY-3LHC                  0001EFDHV11D65A         EFDHV11D65A                   00025347CB00048000PC000000000125510000100020151024SEA.FSINMGM145627/660-403631                                                                                                      
129576     O31E913914600029576201509031300100025006KY-3LHC                  0001                20151110                                                                                                                                                                                                              
129576     O31E113914600029576201509031300100025006KY-3LHC                  0002EFDHV11L27A         EFDHV11L27A                   00025347CB00011520PC000000000125510000100020151024SEA.FSINMGM145627/660-403631                                                                                                      
129576     O31E913914600029576201509031300100025006KY-3LHC                  0002                20151110                                                                                                                                                                                                              
129576     O31E113914600029576201509031300100025006KY-3LHC                  0003EFDHV25D65A         EFDHV25D65A                   00025347CB00048000PC000000001553820000100020151024SEA.FSINMGM145627/660-403631                                                                                                      
129576     O31E913914600029576201509031300100025006KY-3LHC                  0003                20151110                                                                                                                                                                                                              
129576     O31E113914600029576201509031300100025006KY-3LHC                  0004EFDHV15D65A         EFDHV15D65A                   00025347CB00059520PC000000000125510000100020151024SEA.FSINMGM145627/660-403631                                                                                                      
129576     O31E913914600029576201509031300100025006KY-3LHC                  0004                20151110                                                                                                                                                                                                              
129576     O31E113914600029576201509031300100025006KY-3LHC                  0005EFDHV20D65A         EFDHV20D65A                   00025347CB00024000PC000000001553820000100020151024SEA.FSINMGM145627/660-403631                                                                                                      
129576     O31E913914600029576201509031300100025006KY-3LHC                  0005                20151110                                                                                                                                                                                                              
129576     O31E113914600029576201509031300100025006KY-3LHC                  0006EFDHV5D65A          EFDHV5D65A                    00025347CB00035520PC000000001075720000100020151024SEA.FSINMGM145627/660-403631                                                                                                      
129576     O31E913914600029576201509031300100025006KY-3LHC                  0006                20151110                                                                                                                                                                                                              
129576     O31E113914600029576201509031300100025006KY-3LHC                  0007EFDHV8D65A          EFDHV8D65A                    00025347CB00024000PC000000001075720000100020151024SEA.FSINMGM145627/660-403631                                                                                                      
129576     O31E913914600029576201509031300100025006KY-3LHC                  0007                20151110                                                                                                                                                                                                              
129576     O31E113914600029576201509031300100025006KY-3LHC                  0008EFDHV8L27A          EFDHV8L27A                    00025347CB00011520PC000000001075720000100020151024SEA.FSINMGM145627/660-403631                                                                                                      
129576     O31E913914600029576201509031300100025006KY-3LHC                  0008                20151110                                                                                                                                                                                                              
