129576     O31A113914600029576201504131300100025006DJ-T8XL                       21000250062001259020012590                         FT    Ugi / Mr Joko                 N F/GDS - TRI(MIDDLE-EAST    )  20150413        1N10002957620150424SEA.FRUH                                                               O137
129576     O31A213914600029576201504131300100025006DJ-T8XL                      FOB                               USD                                 AL-SAEED                       20150510                                                            00029576                   20012590  AL-SAEED       20150424 
129576     O31A613914600029576201504131300100025006DJ-T8XL                      T/T BY 10TH OF NEXT MONTH                         BY T/T REMITTANCE ON THE 10TH OF THE NEXT MONTH                                                                                                                                     
129576     O31B113914600029576201504131300100025006DJ-T8XL                      AL-SAEED                      4500097511                    DJ-T8XL                       C/NO.                                                                                                                                       
129576     O31E113914600029576201504131300100025006DJ-T8XL                  0001EFUHV14L27M         EFUHV14L27M                   00025347CB00060000PC000000001055820000100020150424SEA.FRUH4500097511                                                                                                                
129576     O31E913914600029576201504131300100025006DJ-T8XL                  0001                20150510                                                                                                                                                                                                              
129576     O31E113914600029576201504131300100025006DJ-T8XL                  0002EFUHV18L27M         EFUHV18L27M                   00025347CB00100000PC000000001344620000100020150424SEA.FRUH4500097511                                                                                                                
129576     O31E913914600029576201504131300100025006DJ-T8XL                  0002                20150510                                                                                                                                                                                                              
129576     O31E113914600029576201504131300100025006DJ-T8XL                  0003EFUHV18D65M         EFUHV18D65M                   00025347CB00200000PC000000001344620000100020150424SEA.FRUH4500097511                                                                                                                
129576     O31E913914600029576201504131300100025006DJ-T8XL                  0003                20150510                                                                                                                                                                                                              
129576     O31E113914600029576201504131300100025006DJ-T8XL                  0004EFUHV23L27M         EFUHV23L27M                   00025347CB00100000PC000000001424320000100020150424SEA.FRUH4500097511                                                                                                                
129576     O31E913914600029576201504131300100025006DJ-T8XL                  0004                20150510                                                                                                                                                                                                              
129576     O31E113914600029576201504131300100025006DJ-T8XL                  0005EFUHV23D65M         EFUHV23D65M                   00025347CB00200000PC000000001424320000100020150424SEA.FRUH4500097511                                                                                                                
129576     O31E913914600029576201504131300100025006DJ-T8XL                  0005                20150510                                                                                                                                                                                                              
129576     O31E113914600029576201504131300100025006DJ-T8XL                  0006EFDHV11L27M         EFDHV11L27M                   00025347CB00052200PC000000000124510000100020150424SEA.FRUH4500097511                                                                                                                
129576     O31E913914600029576201504131300100025006DJ-T8XL                  0006                20150510                                                                                                                                                                                                              
129576     O31E113914600029576201504131300100025006DJ-T8XL                  0007EFDHV11D65M         EFDHV11D65M                   00025347CB00052200PC000000000124510000100020150424SEA.FRUH4500097511                                                                                                                
129576     O31E913914600029576201504131300100025006DJ-T8XL                  0007                20150510                                                                                                                                                                                                              
129576     O31E113914600029576201504131300100025006DJ-T8XL                  0008EFDHV23L27M         EFDHV23L27M                   00025347CB00079560PC000000001553820000100020150424SEA.FRUH4500097511                                                                                                                
129576     O31E913914600029576201504131300100025006DJ-T8XL                  0008                20150510                                                                                                                                                                                                              
129576     O31E113914600029576201504131300100025006DJ-T8XL                  0009EFDHV23D65M         EFDHV23D65M                   00025347CB00079560PC000000001553820000100020150424SEA.FRUH4500097511                                                                                                                
129576     O31E913914600029576201504131300100025006DJ-T8XL                  0009                20150510                                                                                                                                                                                                              
129576     O31E113914600029576201504131300100025006DJ-T8XL                  0010EFDHV25L27M         EFDHV25L27M                   00025347CB00073440PC000000001553820000100020150424SEA.FRUH4500097511                                                                                                                
129576     O31E913914600029576201504131300100025006DJ-T8XL                  0010                20150510                                                                                                                                                                                                              
129576     O31E113914600029576201504131300100025006DJ-T8XL                  0011EFDHV25D65M         EFDHV25D65M                   00025347CB00073440PC000000001553820000100020150424SEA.FRUH4500097511                                                                                                                
129576     O31E913914600029576201504131300100025006DJ-T8XL                  0011                20150510                                                                                                                                                                                                              
