129576     O31A113914600029576201506150900100025006DJ-XQXZ                       21000250060002995600029956                         FT    Ugi / Mr Joko                 N F/GDS - TRI(MIDDLE-EAST    )  20150615        1N10002957620150625SEA.FJEB                                                               O147
129576     O31A213914600029576201506150900100025006DJ-XQXZ                      FOB                               USD                                 PMMAF                          20150710                                                            00029576                   00029956  PMMAF          20150625 
129576     O31A613914600029576201506150900100025006DJ-XQXZ                      T/T BY 10TH OF NEXT MONTH                         BY T/T REMITTANCE ON THE 10TH OF THE NEXT MONTH                                                                                                                                     
129576     O31B113914600029576201506150900100025006DJ-XQXZ                      PMMAF                         4500099263                                                                                                                                                                                              
129576     O31E113914600029576201506150900100025006DJ-XQXZ                  0001EFDHV8D65E14M       EFDHV8D65E14M                 00025347CB00014640PC000000001205220000100020150625SEA.FJEB4500099263                                                                                                                
129576     O31E913914600029576201506150900100025006DJ-XQXZ                  0001                20150710                                                                                                                                                                                                              
129576     O31E113914600029576201506150900100025006DJ-XQXZ                  0002EFUHV18L27M         EFUHV18L27M                   00025347CB00030000PC000000001344620000100020150625SEA.FJEB4500099263                                                                                                                
129576     O31E913914600029576201506150900100025006DJ-XQXZ                  0002                20150710                                                                                                                                                                                                              
129576     O31E113914600029576201506150900100025006DJ-XQXZ                  0003EFUHV18D65M         EFUHV18D65M                   00025347CB00060000PC000000001344620000100020150625SEA.FJEB4500099263                                                                                                                
129576     O31E913914600029576201506150900100025006DJ-XQXZ                  0003                20150710                                                                                                                                                                                                              
129576     O31E113914600029576201506150900100025006DJ-XQXZ                  0004EFUHV23L27M         EFUHV23L27M                   00025347CB00030000PC000000001424320000100020150625SEA.FJEB4500099263                                                                                                                
129576     O31E913914600029576201506150900100025006DJ-XQXZ                  0004                20150710                                                                                                                                                                                                              
129576     O31E113914600029576201506150900100025006DJ-XQXZ                  0005EFUHV23D65M         EFUHV23D65M                   00025347CB00060000PC000000001424320000100020150625SEA.FJEB4500099263                                                                                                                
129576     O31E913914600029576201506150900100025006DJ-XQXZ                  0005                20150710                                                                                                                                                                                                              
129576     O31E113914600029576201506150900100025006DJ-XQXZ                  0006EFUHV11D65M         EFUHV11D65M                   00025347CB00010000PC000000000976120000100020150625SEA.FJEB4500099263                                                                                                                
129576     O31E913914600029576201506150900100025006DJ-XQXZ                  0006                20150710                                                                                                                                                                                                              
129576     O31E113914600029576201506150900100025006DJ-XQXZ                  0007EFUHV11L27M         EFUHV11L27M                   00025347CB00005000PC000000000976120000100020150625SEA.FJEB4500099263                                                                                                                
129576     O31E913914600029576201506150900100025006DJ-XQXZ                  0007                20150710                                                                                                                                                                                                              
129576     O31E113914600029576201506150900100025006DJ-XQXZ                  0008EFUHV8D65M          EFUHV8D65M                    00025347CB00010000PC000000000976120000100020150625SEA.FJEB4500099263                                                                                                                
129576     O31E913914600029576201506150900100025006DJ-XQXZ                  0008                20150710                                                                                                                                                                                                              
129576     O31E113914600029576201506150900100025006DJ-XQXZ                  0009EFUHV8L27M          EFUHV8L27M                    00025347CB00005000PC000000000976120000100020150625SEA.FJEB4500099263                                                                                                                
129576     O31E913914600029576201506150900100025006DJ-XQXZ                  0009                20150710                                                                                                                                                                                                              
129576     O31E113914600029576201506150900100025006DJ-XQXZ                  0010EFUHV14D65M         EFUHV14D65M                   00025347CB00010000PC000000001055820000100020150625SEA.FJEB4500099263                                                                                                                
129576     O31E913914600029576201506150900100025006DJ-XQXZ                  0010                20150710                                                                                                                                                                                                              
129576     O31E113914600029576201506150900100025006DJ-XQXZ                  0011EFUHV14L27M         EFUHV14L27M                   00025347CB00005000PC000000001055820000100020150625SEA.FJEB4500099263                                                                                                                
129576     O31E913914600029576201506150900100025006DJ-XQXZ                  0011                20150710                                                                                                                                                                                                              
129576     O31E113914600029576201506150900100025006DJ-XQXZ                  0012EFDHV11D65M         EFDHV11D65M                   00025347CB00031200PC000000000124510000100020150625SEA.FJEB4500099263                                                                                                                
129576     O31E913914600029576201506150900100025006DJ-XQXZ                  0012                20150710                                                                                                                                                                                                              
129576     O31E113914600029576201506150900100025006DJ-XQXZ                  0013EFDHV15L27M         EFDHV15L27M                   00025347CB00012000PC000000000124510000100020150625SEA.FJEB4500099263                                                                                                                
129576     O31E913914600029576201506150900100025006DJ-XQXZ                  0013                20150710                                                                                                                                                                                                              
129576     O31E113914600029576201506150900100025006DJ-XQXZ                  0014EFDHV15D65M         EFDHV15D65M                   00025347CB00031680PC000000000124510000100020150625SEA.FJEB4500099263                                                                                                                
129576     O31E913914600029576201506150900100025006DJ-XQXZ                  0014                20150710                                                                                                                                                                                                              
129576     O31E113914600029576201506150900100025006DJ-XQXZ                  0015EFDHV20L27M         EFDHV20L27M                   00025347CB00010320PC000000001553820000100020150625SEA.FJEB4500099263                                                                                                                
129576     O31E913914600029576201506150900100025006DJ-XQXZ                  0015                20150710                                                                                                                                                                                                              
129576     O31E113914600029576201506150900100025006DJ-XQXZ                  0016EFDHV20D65M         EFDHV20D65M                   00025347CB00024000PC000000001553820000100020150625SEA.FJEB4500099263                                                                                                                
129576     O31E913914600029576201506150900100025006DJ-XQXZ                  0016                20150710                                                                                                                                                                                                              
129576     O31E113914600029576201506150900100025006DJ-XQXZ                  0017EFDHV23L27M         EFDHV23L27M                   00025347CB00012000PC000000001553820000100020150625SEA.FJEB4500099263                                                                                                                
129576     O31E913914600029576201506150900100025006DJ-XQXZ                  0017                20150710                                                                                                                                                                                                              
129576     O31E113914600029576201506150900100025006DJ-XQXZ                  0018EFDHV23D65M         EFDHV23D65M                   00025347CB00014520PC000000001553820000100020150625SEA.FJEB4500099263                                                                                                                
129576     O31E913914600029576201506150900100025006DJ-XQXZ                  0018                20150710                                                                                                                                                                                                              
129576     O31E113914600029576201506150900100025006DJ-XQXZ                  0019EFDHV25L27M         EFDHV25L27M                   00025347CB00024480PC000000001553820000100020150625SEA.FJEB4500099263                                                                                                                
129576     O31E913914600029576201506150900100025006DJ-XQXZ                  0019                20150710                                                                                                                                                                                                              
129576     O31E113914600029576201506150900100025006DJ-XQXZ                  0020EFDHV25D65M         EFDHV25D65M                   00025347CB00073440PC000000001553820000100020150625SEA.FJEB4500099263                                                                                                                
129576     O31E913914600029576201506150900100025006DJ-XQXZ                  0020                20150710                                                                                                                                                                                                              
129576     O31E113914600029576201506150900100025006DJ-XQXZ                  0021EFDHV11L27M         EFDHV11L27M                   00025347CB00015600PC000000000124510000100020150625SEA.FJEB4500099263                                                                                                                
129576     O31E913914600029576201506150900100025006DJ-XQXZ                  0021                20150710                                                                                                                                                                                                              
129576     O31E113914600029576201506150900100025006DJ-XQXZ                  0022EFDHV8D65M          EFDHV8D65M                    00025347CB00014640PC000000001205220000100020150625SEA.FJEB4500099263                                                                                                                
129576     O31E913914600029576201506150900100025006DJ-XQXZ                  0022                20150710                                                                                                                                                                                                              
129576     O31E113914600029576201506150900100025006DJ-XQXZ                  0023EFDHV8L27M          EFDHV8L27M                    00025347CB00007320PC000000001205220000100020150625SEA.FJEB4500099263                                                                                                                
129576     O31E913914600029576201506150900100025006DJ-XQXZ                  0023                20150710                                                                                                                                                                                                              
129576     O31E113914600029576201506150900100025006DJ-XQXZ                  0024EFDHV32D65A         EFDHV32D65A                   00025347CB00016800PC000000002559720000100020150625SEA.FJEB4500099263                                                                                                                
129576     O31E913914600029576201506150900100025006DJ-XQXZ                  0024                20150710                                                                                                                                                                                                              
129576     O31E113914600029576201506150900100025006DJ-XQXZ                  0025EFDHV42D65A         EFDHV42D65A                   00025347CB00012420PC000000002898420000100020150625SEA.FJEB4500099263                                                                                                                
129576     O31E913914600029576201506150900100025006DJ-XQXZ                  0025                20150710                                                                                                                                                                                                              
129576     O31E113914600029576201506150900100025006DJ-XQXZ                  0026EFDHV5D65M          EFDHV5D65M                    00025347CB00015600PC000000001205220000100020150625SEA.FJEB4500099263                                                                                                                
129576     O31E913914600029576201506150900100025006DJ-XQXZ                  0026                20150710                                                                                                                                                                                                              
129576     O31E113914600029576201506150900100025006DJ-XQXZ                  0027EFDHV5L27M          EFDHV5L27M                    00025347CB00007800PC000000001205220000100020150625SEA.FJEB4500099263                                                                                                                
129576     O31E913914600029576201506150900100025006DJ-XQXZ                  0027                20150710                                                                                                                                                                                                              
129576     O31E113914600029576201506150900100025006DJ-XQXZ                  0028EFDHV5D65E14M       EFDHV5D65E14M                 00025347CB00015600PC000000001205220000100020150625SEA.FJEB4500099263                                                                                                                
129576     O31E913914600029576201506150900100025006DJ-XQXZ                  0028                20150710                                                                                                                                                                                                              
129576     O31E113914600029576201506150900100025006DJ-XQXZ                  0029EFDHV5L27E14M       EFDHV5L27E14M                 00025347CB00007800PC000000001205220000100020150625SEA.FJEB4500099263                                                                                                                
129576     O31E913914600029576201506150900100025006DJ-XQXZ                  0029                20150710                                                                                                                                                                                                              
129576     O31E113914600029576201506150900100025006DJ-XQXZ                  0030EFDHV8L27E14M       EFDHV8L27E14M                 00025347CB00007320PC000000001205220000100020150625SEA.FJEB4500099263                                                                                                                
129576     O31E913914600029576201506150900100025006DJ-XQXZ                  0030                20150710                                                                                                                                                                                                              
