129576     O31A113914600029576201510071600100025006KY-6140                       21000250062062061620620616                         FT    Ugi / Mr Joko                 N F/GDS - TRI(ASIA           )  20151007        1N10002957620151123SEA.FSIN                                                               O112
129576     O31A213914600029576201510071600100025006KY-6140                      FOB                               USD                                 BLS                            20151210                                                            00029576                   20620616  BLS            20151123 
129576     O31A613914600029576201510071600100025006KY-6140                      T/T BY 10TH OF NEXT MONTH                         BY T/T REMITTANCE ON THE 10TH OF THE NEXT MONTH                                                                                                                                     
129576     O31B113914600029576201510071600100025006KY-6140                      BLS                           C/NO.                                                                                                                                                                                                   
129576     O31E113914600029576201510071600100025006KY-6140                  0001EFDHV11D65BA        EFDHV11D65BA                  00025347CB00024000PC000000000125510000100020151123SEA.FSINMGM146654/660-403840                                                                                                      
129576     O31E913914600029576201510071600100025006KY-6140                  0001                20151210                                                                                                                                                                                                              
129576     O31E113914600029576201510071600100025006KY-6140                  0002EFDHV15D65BA        EFDHV15D65BA                  00025347CB00083520PC000000000125510000100020151123SEA.FSINMGM146654/660-403840                                                                                                      
129576     O31E913914600029576201510071600100025006KY-6140                  0002                20151210                                                                                                                                                                                                              
129576     O31E113914600029576201510071600100025006KY-6140                  0003EFDHV23D65BA        EFDHV23D65BA                  00025347CB00048000PC000000001553820000100020151123SEA.FSINMGM146654/660-403840                                                                                                      
129576     O31E913914600029576201510071600100025006KY-6140                  0003                20151210                                                                                                                                                                                                              
129576     O31E113914600029576201510071600100025006KY-6140                  0004EFDHV25D65BA        EFDHV25D65BA                  00025347CB00120000PC000000001553820000100020151123SEA.FSINMGM146654/660-403840                                                                                                      
129576     O31E913914600029576201510071600100025006KY-6140                  0004                20151210                                                                                                                                                                                                              
129576     O31E113914600029576201510071600100025006KY-6140                  0005EFDHV20D65BA        EFDHV20D65BA                  00025347CB00083520PC000000001553820000100020151123SEA.FSINMGM146654/660-403840                                                                                                      
129576     O31E913914600029576201510071600100025006KY-6140                  0005                20151210                                                                                                                                                                                                              
129576     O31A113914600029576201510071600100025006KY-6141                       21000250062062061620620616                         FT    Ugi / Mr Joko                 N F/GDS - TRI(ASIA           )  20151007        1N10002957620151123SEA.FSIN                                                               O112
129576     O31A213914600029576201510071600100025006KY-6141                      FOB                               USD                                 BLS                            20151210                                                            00029576                   20620616  BLS            20151123 
129576     O31A613914600029576201510071600100025006KY-6141                      T/T BY 10TH OF NEXT MONTH                         BY T/T REMITTANCE ON THE 10TH OF THE NEXT MONTH                                                                                                                                     
129576     O31B113914600029576201510071600100025006KY-6141                      BLS                           C/NO.                                                                                                                                                                                                   
129576     O31E113914600029576201510071600100025006KY-6141                  0001EFU11E272V          EFU11E272V                    00025347CB00012000PC000000001398520000100020151123SEA.FSINMGM146653/660-403837                                                                                                      
129576     O31E913914600029576201510071600100025006KY-6141                  0001                20151210                                                                                                                                                                                                              
129576     O31E113914600029576201510071600100025006KY-6141                  0002EFU11E652V          EFU11E652V                    00025347CB00012000PC000000001398520000100020151123SEA.FSINMGM146653/660-403837                                                                                                      
129576     O31E913914600029576201510071600100025006KY-6141                  0002                20151210                                                                                                                                                                                                              
129576     O31E113914600029576201510071600100025006KY-6141                  0003EFU8E272V           EFU8E272V                     00025347CB00006000PC000000001370120000100020151123SEA.FSINMGM146653/660-403837                                                                                                      
129576     O31E913914600029576201510071600100025006KY-6141                  0003                20151210                                                                                                                                                                                                              
129576     O31A113914600029576201510071600100025006KY-6143                       21000250062062061620620616                         FT    Ugi / Mr Joko                 N F/GDS - TRI(ASIA           )  20151007        1N10002957620151123SEA.FSIN                                                               O112
129576     O31A213914600029576201510071600100025006KY-6143                      FOB                               USD                                 BLS                            20151210                                                            00029576                   20620616  BLS            20151123 
129576     O31A613914600029576201510071600100025006KY-6143                      T/T BY 10TH OF NEXT MONTH                         BY T/T REMITTANCE ON THE 10TH OF THE NEXT MONTH                                                                                                                                     
129576     O31B113914600029576201510071600100025006KY-6143                      BLS                           C/NO.                                                                                                                                                                                                   
129576     O31E113914600029576201510071600100025006KY-6143                  0001EFDHV8D65A          EFDHV8D65A                    00025347CB00024000PC000000001075720000100020151123SEA.FSINMGM146655/660-403836                                                                                                      
129576     O31E913914600029576201510071600100025006KY-6143                  0001                20151210                                                                                                                                                                                                              
129576     O31E113914600029576201510071600100025006KY-6143                  0002EFDHV8L27A          EFDHV8L27A                    00025347CB00011520PC000000001075720000100020151123SEA.FSINMGM146655/660-403836                                                                                                      
129576     O31E913914600029576201510071600100025006KY-6143                  0002                20151210                                                                                                                                                                                                              
129576     O31E113914600029576201510071600100025006KY-6143                  0003EFDHV25D65A         EFDHV25D65A                   00025347CB00096000PC000000001553820000100020151123SEA.FSINMGM146655/660-403836                                                                                                      
129576     O31E913914600029576201510071600100025006KY-6143                  0003                20151210                                                                                                                                                                                                              
129576     O31E113914600029576201510071600100025006KY-6143                  0004EFDHV15D65A         EFDHV15D65A                   00025347CB00048000PC000000000125510000100020151123SEA.FSINMGM146655/660-403836                                                                                                      
129576     O31E913914600029576201510071600100025006KY-6143                  0004                20151210                                                                                                                                                                                                              
129576     O31E113914600029576201510071600100025006KY-6143                  0005EFDHV15L27A         EFDHV15L27A                   00025347CB00009600PC000000000125510000100020151123SEA.FSINMGM146655/660-403836                                                                                                      
129576     O31E913914600029576201510071600100025006KY-6143                  0005                20151210                                                                                                                                                                                                              
129576     O31E113914600029576201510071600100025006KY-6143                  0006EFDHV20D65A         EFDHV20D65A                   00025347CB00024000PC000000001553820000100020151123SEA.FSINMGM146655/660-403836                                                                                                      
129576     O31E913914600029576201510071600100025006KY-6143                  0006                20151210                                                                                                                                                                                                              
129576     O31E113914600029576201510071600100025006KY-6143                  0007EFDHV25L27A         EFDHV25L27A                   00025347CB00009600PC000000001553820000100020151123SEA.FSINMGM146655/660-403836                                                                                                      
129576     O31E913914600029576201510071600100025006KY-6143                  0007                20151210                                                                                                                                                                                                              
129576     O31E113914600029576201510071600100025006KY-6143                  0008EFDHV5D65A          EFDHV5D65A                    00025347CB00035520PC000000001075720000100020151123SEA.FSINMGM146655/660-403836                                                                                                      
129576     O31E913914600029576201510071600100025006KY-6143                  0008                20151210                                                                                                                                                                                                              
129576     O31E113914600029576201510071600100025006KY-6143                  0009EFDHV5L27A          EFDHV5L27A                    00025347CB00011520PC000000001075720000100020151123SEA.FSINMGM146655/660-403836                                                                                                      
129576     O31E913914600029576201510071600100025006KY-6143                  0009                20151210                                                                                                                                                                                                              
129576     O31A113914600029576201510071600100025006KY-6144                       21000250062062061620620616                         FT    Ugi / Mr Joko                 N F/GDS - TRI(ASIA           )  20151007        1N10002957620151123SEA.FSIN                                                               O112
129576     O31A213914600029576201510071600100025006KY-6144                      FOB                               USD                                 BLS                            20151210                                                            00029576                   20620616  BLS            20151123 
129576     O31A613914600029576201510071600100025006KY-6144                      T/T BY 10TH OF NEXT MONTH                         BY T/T REMITTANCE ON THE 10TH OF THE NEXT MONTH                                                                                                                                     
129576     O31B113914600029576201510071600100025006KY-6144                      BLS                           C/NO.                                                                                                                                                                                                   
129576     O31E113914600029576201510071600100025006KY-6144                  0001EFDHV42D65A         EFDHV42D65A                   00025347CB00096000PC000000003041320000100020151123SEA.FSINMGM146658/660-403838                                                                                                      
129576     O31E913914600029576201510071600100025006KY-6144                  0001                20151210                                                                                                                                                                                                              
129576     O31A113914600029576201510071600100025006KY-6145                       21000250062062061620620616                         FT    Ugi / Mr Joko                 N F/GDS - TRI(ASIA           )  20151007        1N10002957620151112SEA.FSIN                                                               O112
129576     O31A213914600029576201510071600100025006KY-6145                      FOB                               USD                                 BLS                            20151210                                                            00029576                   20620616  BLS            20151112 
129576     O31A613914600029576201510071600100025006KY-6145                      T/T BY 10TH OF NEXT MONTH                         BY T/T REMITTANCE ON THE 10TH OF THE NEXT MONTH                                                                                                                                     
129576     O31B113914600029576201510071600100025006KY-6145                      BLS                           C/NO.                                                                                                                                                                                                   
129576     O31E113914600029576201510071600100025006KY-6145                  0001EFD19E65HD3A        EFD19E65HD3A                  00390770CB00024000PC000000001336220000100020151112SEA.FSINMGM146657/660-403839                                                                                                      
129576     O31E913914600029576201510071600100025006KY-6145                  0001                20151210                                                                                                                                                                                                              
129576     O31E113914600029576201510071600100025006KY-6145                  0002EFD11E65HD3A2       EFD11E65HD3A2                 00390770CB00024000PC000000001120520000100020151112SEA.FSINMGM146657/660-403839                                                                                                      
129576     O31E913914600029576201510071600100025006KY-6145                  0002                20151210                                                                                                                                                                                                              
129576     O31E113914600029576201510071600100025006KY-6145                  0003EFD14E65HD3A2       EFD14E65HD3A2                 00390770CB00024000PC000000001095620000100020151112SEA.FSINMGM146657/660-403839                                                                                                      
129576     O31E913914600029576201510071600100025006KY-6145                  0003                20151210                                                                                                                                                                                                              
129576     O31E113914600029576201510071600100025006KY-6145                  0004EFD25E65HD3A2       EFD25E65HD3A2                 00390770CB00048000PC000000001398420000100020151112SEA.FSINMGM146657/660-403839                                                                                                      
129576     O31E913914600029576201510071600100025006KY-6145                  0004                20151210                                                                                                                                                                                                              
129576     O31E113914600029576201510071600100025006KY-6145                  0005EFD8E65HD3A2        EFD8E65HD3A2                  00390770CB00048000PC000000000991120000100020151112SEA.FSINMGM146657/660-403839                                                                                                      
129576     O31E913914600029576201510071600100025006KY-6145                  0005                20151210                                                                                                                                                                                                              
