129576     O31A113914600029576201504271600100025006KY-UC2Z                       210002500600039140                                 FT    Ugi / Mr Joko                 N F/GDS - TRI(ASIA           )  20150427        1N10002957620150525SEA.FPKL                                                               O113
129576     O31A213914600029576201504271600100025006KY-UC2Z                      FOB                               USD                                                                20150610                SCMM                                        00029576                   00039140  PM             20150525 
129576     O31A613914600029576201504271600100025006KY-UC2Z                      T/T BY 10TH OF NEXT MONTH                         BY T/T REMITTANCE ON THE 10TH OF THE NEXT MONTH                                                                                                                                     
129576     O31B113914600029576201504271600100025006KY-UC2Z                      PM                            MMQ141096/EL1504008           KY-UC2Z                       C/NO.                                                                                                                                       
129576     O31E113914600029576201504271600100025006KY-UC2Z                  0001EFDHV11D65A                                       00025347CB00021120PC000000000123510000100020150525SEA.FPKLMMQ141096/EL1504008                                                                                                       
129576     O31E913914600029576201504271600100025006KY-UC2Z                  0001                20150610                                                                                                                                                                                                              
129576     O31E113914600029576201504271600100025006KY-UC2Z                  0002EFDHV11L27A                                       00025347CB00013440PC000000000123510000100020150525SEA.FPKLMMQ141096/EL1504008                                                                                                       
129576     O31E913914600029576201504271600100025006KY-UC2Z                  0002                20150610                                                                                                                                                                                                              
129576     O31E113914600029576201504271600100025006KY-UC2Z                  0003EFDHV15D65A                                       00025347CB00030720PC000000000123510000100020150525SEA.FPKLMMQ141096/EL1504008                                                                                                       
129576     O31E913914600029576201504271600100025006KY-UC2Z                  0003                20150610                                                                                                                                                                                                              
129576     O31E113914600029576201504271600100025006KY-UC2Z                  0004EFDHV15L27A                                       00025347CB00013440PC000000000123510000100020150525SEA.FPKLMMQ141096/EL1504008                                                                                                       
129576     O31E913914600029576201504271600100025006KY-UC2Z                  0004                20150610                                                                                                                                                                                                              
129576     O31E113914600029576201504271600100025006KY-UC2Z                  0005EFDHV20D65A                                       00025347CB00030720PC000000001533820000100020150525SEA.FPKLMMQ141096/EL1504008                                                                                                       
129576     O31E913914600029576201504271600100025006KY-UC2Z                  0005                20150610                                                                                                                                                                                                              
129576     O31E113914600029576201504271600100025006KY-UC2Z                  0006EFDHV20L27A                                       00025347CB00019200PC000000001533820000100020150525SEA.FPKLMMQ141096/EL1504008                                                                                                       
129576     O31E913914600029576201504271600100025006KY-UC2Z                  0006                20150610                                                                                                                                                                                                              
129576     O31E113914600029576201504271600100025006KY-UC2Z                  0007EFDHV23D65A                                       00025347CB00048000PC000000001533820000100020150525SEA.FPKLMMQ141096/EL1504008                                                                                                       
129576     O31E913914600029576201504271600100025006KY-UC2Z                  0007                20150610                                                                                                                                                                                                              
129576     O31E113914600029576201504271600100025006KY-UC2Z                  0008EFDHV23L27A                                       00025347CB00018240PC000000001533820000100020150525SEA.FPKLMMQ141096/EL1504008                                                                                                       
129576     O31E913914600029576201504271600100025006KY-UC2Z                  0008                20150610                                                                                                                                                                                                              
129576     O31E113914600029576201504271600100025006KY-UC2Z                  0009EFDHV25D65A                                       00025347CB00380160PC000000001533820000100020150525SEA.FPKLMMQ141096/EL1504008                                                                                                       
129576     O31E913914600029576201504271600100025006KY-UC2Z                  0009                20150610                                                                                                                                                                                                              
129576     O31E113914600029576201504271600100025006KY-UC2Z                  0010EFDHV25L27A                                       00025347CB00025920PC000000001533820000100020150525SEA.FPKLMMQ141096/EL1504008                                                                                                       
129576     O31E913914600029576201504271600100025006KY-UC2Z                  0010                20150610                                                                                                                                                                                                              
129576     O31E113914600029576201504271600100025006KY-UC2Z                  0011EFDHV5D65A                                        00025347CB00005760PC000000001045820000100020150525SEA.FPKLMMQ141096/EL1504008                                                                                                       
129576     O31E913914600029576201504271600100025006KY-UC2Z                  0011                20150610                                                                                                                                                                                                              
129576     O31E113914600029576201504271600100025006KY-UC2Z                  0012EFDHV5L27A                                        00025347CB00006720PC000000001045820000100020150525SEA.FPKLMMQ141096/EL1504008                                                                                                       
129576     O31E913914600029576201504271600100025006KY-UC2Z                  0012                20150610                                                                                                                                                                                                              
129576     O31E113914600029576201504271600100025006KY-UC2Z                  0013EFDHV8D65A                                        00025347CB00006720PC000000001045820000100020150525SEA.FPKLMMQ141096/EL1504008                                                                                                       
129576     O31E913914600029576201504271600100025006KY-UC2Z                  0013                20150610                                                                                                                                                                                                              
129576     O31E113914600029576201504271600100025006KY-UC2Z                  0014EFDHV8L27A                                        00025347CB00006720PC000000001045820000100020150525SEA.FPKLMMQ141096/EL1504008                                                                                                       
129576     O31E913914600029576201504271600100025006KY-UC2Z                  0014                20150610                                                                                                                                                                                                              
129576     O31E113914600029576201504271600100025006KY-UC2Z                  0015EFU11E272V                                        00025347CB00009000PC000000000120510000100020150525SEA.FPKLMMQ141096/EL1504008                                                                                                       
129576     O31E913914600029576201504271600100025006KY-UC2Z                  0015                20150610                                                                                                                                                                                                              
129576     O31E113914600029576201504271600100025006KY-UC2Z                  0016EFU11E652V                                        00025347CB00012000PC000000000120510000100020150525SEA.FPKLMMQ141096/EL1504008                                                                                                       
129576     O31E913914600029576201504271600100025006KY-UC2Z                  0016                20150610                                                                                                                                                                                                              
129576     O31E113914600029576201504271600100025006KY-UC2Z                  0017EFU14E272V                                        00025347CB00012000PC000000001267120000100020150525SEA.FPKLMMQ141096/EL1504008                                                                                                       
129576     O31E913914600029576201504271600100025006KY-UC2Z                  0017                20150610                                                                                                                                                                                                              
129576     O31E113914600029576201504271600100025006KY-UC2Z                  0018EFU14E652V                                        00025347CB00032000PC000000001267120000100020150525SEA.FPKLMMQ141096/EL1504008                                                                                                       
129576     O31E913914600029576201504271600100025006KY-UC2Z                  0018                20150610                                                                                                                                                                                                              
129576     O31E113914600029576201504271600100025006KY-UC2Z                  0019EFU18E272V                                        00025347CB00034000PC000000001355920000100020150525SEA.FPKLMMQ141096/EL1504008                                                                                                       
129576     O31E913914600029576201504271600100025006KY-UC2Z                  0019                20150610                                                                                                                                                                                                              
129576     O31E113914600029576201504271600100025006KY-UC2Z                  0020EFU18E652V                                        00025347CB00647000PC000000001355920000100020150525SEA.FPKLMMQ141096/EL1504008                                                                                                       
129576     O31E913914600029576201504271600100025006KY-UC2Z                  0020                20150610                                                                                                                                                                                                              
129576     O31E113914600029576201504271600100025006KY-UC2Z                  0021EFU5E282V                                         00025347CB00009000PC000000001035320000100020150525SEA.FPKLMMQ141096/EL1504008                                                                                                       
129576     O31E913914600029576201504271600100025006KY-UC2Z                  0021                20150610                                                                                                                                                                                                              
129576     O31E113914600029576201504271600100025006KY-UC2Z                  0022EFU5E672V                                         00025347CB00005000PC000000001035320000100020150525SEA.FPKLMMQ141096/EL1504008                                                                                                       
129576     O31E913914600029576201504271600100025006KY-UC2Z                  0022                20150610                                                                                                                                                                                                              
129576     O31E113914600029576201504271600100025006KY-UC2Z                  0023EFU8E272V                                         00025347CB00007000PC000000001180320000100020150525SEA.FPKLMMQ141096/EL1504008                                                                                                       
129576     O31E913914600029576201504271600100025006KY-UC2Z                  0023                20150610                                                                                                                                                                                                              
129576     O31E113914600029576201504271600100025006KY-UC2Z                  0024EFU8E652V                                         00025347CB00008000PC000000001180320000100020150525SEA.FPKLMMQ141096/EL1504008                                                                                                       
129576     O31E913914600029576201504271600100025006KY-UC2Z                  0024                20150610                                                                                                                                                                                                              
129576     O31A113914600029576201504271600100025006KY-UC42                       210002500600039130                                 FT    Ugi / Mr Joko                 N F/GDS - TRI(ASIA           )  20150427        1N10002957620150525SEA.FLKG                                                               O111
129576     O31A213914600029576201504271600100025006KY-UC42                      FOB                               USD                                                                20150610                SCMM                                        00029576                   00039130  PST            20150525 
129576     O31A613914600029576201504271600100025006KY-UC42                      T/T BY 10TH OF NEXT MONTH                         BY T/T REMITTANCE ON THE 10TH OF THE NEXT MONTH                                                                                                                                     
129576     O31B113914600029576201504271600100025006KY-UC42                      PST                           MST141064/LIGH-137289         KY-UC42                       LAT KRABANG                   C/NO.                                                                                                         
129576     O31E113914600029576201504271600100025006KY-UC42                  0001EFDHV11L27T         EFDHV11L27T                   00025347CB00084480PC000000000123510000100020150525SEA.FLKGMST141064/LIGH-137289                                                                                                     
129576     O31E913914600029576201504271600100025006KY-UC42                  0001                20150610                                                                                                                                                                                                              
129576     O31E113914600029576201504271600100025006KY-UC42                  0002EFDHV15D65T         EFDHV15D65T                   00025347CB00659520PC000000000123510000100020150525SEA.FLKGMST141064/LIGH-137289                                                                                                     
129576     O31E913914600029576201504271600100025006KY-UC42                  0002                20150610                                                                                                                                                                                                              
129576     O31E113914600029576201504271600100025006KY-UC42                  0003EFDHV15D65TD        EFDHV15D65TD                  00025347CB00240000PC000000000123510000100020150525SEA.FLKGMST141064/LIGH-137289                                                                                                     
129576     O31E913914600029576201504271600100025006KY-UC42                  0003                20150610                                                                                                                                                                                                              
129576     O31E113914600029576201504271600100025006KY-UC42                  0004EFDHV15L27T         EFDHV15L27T                   00025347CB00153600PC000000000123510000100020150525SEA.FLKGMST141064/LIGH-137289                                                                                                     
129576     O31E913914600029576201504271600100025006KY-UC42                  0004                20150610                                                                                                                                                                                                              
129576     O31E113914600029576201504271600100025006KY-UC42                  0005EFDHV20D65T         EFDHV20D65T                   00025347CB00288000PC000000001533820000100020150525SEA.FLKGMST141064/LIGH-137289                                                                                                     
129576     O31E913914600029576201504271600100025006KY-UC42                  0005                20150610                                                                                                                                                                                                              
129576     O31E113914600029576201504271600100025006KY-UC42                  0006EFDHV23D65T         EFDHV23D65T                   00025347CB00120000PC000000001533820000100020150525SEA.FLKGMST141064/LIGH-137289                                                                                                     
129576     O31E913914600029576201504271600100025006KY-UC42                  0006                20150610                                                                                                                                                                                                              
129576     O31E113914600029576201504271600100025006KY-UC42                  0007EFDHV23L27T         EFDHV23L27T                   00025347CB00036480PC000000001533820000100020150525SEA.FLKGMST141064/LIGH-137289                                                                                                     
129576     O31E913914600029576201504271600100025006KY-UC42                  0007                20150610                                                                                                                                                                                                              
129576     O31E113914600029576201504271600100025006KY-UC42                  0008EFDHV25D65T         EFDHV25D65T                   00025347CB02400000PC000000001533820000100020150525SEA.FLKGMST141064/LIGH-137289                                                                                                     
129576     O31E913914600029576201504271600100025006KY-UC42                  0008                20150610                                                                                                                                                                                                              
129576     O31E113914600029576201504271600100025006KY-UC42                  0009EFDHV25D65TD        EFDHV25D65TD                  00025347CB00960000PC000000001533820000100020150525SEA.FLKGMST141064/LIGH-137289                                                                                                     
129576     O31E913914600029576201504271600100025006KY-UC42                  0009                20150610                                                                                                                                                                                                              
129576     O31E113914600029576201504271600100025006KY-UC42                  0010EFDHV25L27T         EFDHV25L27T                   00025347CB00131520PC000000001533820000100020150525SEA.FLKGMST141064/LIGH-137289                                                                                                     
129576     O31E913914600029576201504271600100025006KY-UC42                  0010                20150610                                                                                                                                                                                                              
129576     O31E113914600029576201504271600100025006KY-UC42                  0011EFDHV5D65T          EFDHV5D65T                    00025347CB00067200PC000000001045820000100020150525SEA.FLKGMST141064/LIGH-137289                                                                                                     
129576     O31E913914600029576201504271600100025006KY-UC42                  0011                20150610                                                                                                                                                                                                              
129576     O31E113914600029576201504271600100025006KY-UC42                  0012EFDHV5L27T          EFDHV5L27T                    00025347CB00045120PC000000001045820000100020150525SEA.FLKGMST141064/LIGH-137289                                                                                                     
129576     O31E913914600029576201504271600100025006KY-UC42                  0012                20150610                                                                                                                                                                                                              
129576     O31E113914600029576201504271600100025006KY-UC42                  0013EFDHV8D65T          EFDHV8D65T                    00025347CB00120000PC000000001045820000100020150525SEA.FLKGMST141064/LIGH-137289                                                                                                     
129576     O31E913914600029576201504271600100025006KY-UC42                  0013                20150610                                                                                                                                                                                                              
129576     O31E113914600029576201504271600100025006KY-UC42                  0014EFU11E272V          EFU11E272V                    00025347CB00121000PC000000001234520000100020150525SEA.FLKGMST141064/LIGH-137289                                                                                                     
129576     O31E913914600029576201504271600100025006KY-UC42                  0014                20150610                                                                                                                                                                                                              
129576     O31E113914600029576201504271600100025006KY-UC42                  0015EFU11E652V          EFU11E652V                    00025347CB00440000PC000000001234520000100020150525SEA.FLKGMST141064/LIGH-137289                                                                                                     
129576     O31E913914600029576201504271600100025006KY-UC42                  0015                20150610                                                                                                                                                                                                              
129576     O31E113914600029576201504271600100025006KY-UC42                  0016EFU14E272V          EFU14E272V                    00025347CB00240000PC000000001320320000100020150525SEA.FLKGMST141064/LIGH-137289                                                                                                     
129576     O31E913914600029576201504271600100025006KY-UC42                  0016                20150610                                                                                                                                                                                                              
129576     O31E113914600029576201504271600100025006KY-UC42                  0017EFU14E652V          EFU14E652V                    00025347CB02640000PC000000001320320000100020150525SEA.FLKGMST141064/LIGH-137289                                                                                                     
129576     O31E913914600029576201504271600100025006KY-UC42                  0017                20150610                                                                                                                                                                                                              
129576     O31E113914600029576201504271600100025006KY-UC42                  0018EFU18E272V          EFU18E272V                    00025347CB00080000PC000000001491920000100020150525SEA.FLKGMST141064/LIGH-137289                                                                                                     
129576     O31E913914600029576201504271600100025006KY-UC42                  0018                20150610                                                                                                                                                                                                              
129576     O31E113914600029576201504271600100025006KY-UC42                  0019EFU18E652V          EFU18E652V                    00025347CB00880000PC000000001491920000100020150525SEA.FLKGMST141064/LIGH-137289                                                                                                     
129576     O31E913914600029576201504271600100025006KY-UC42                  0019                20150610                                                                                                                                                                                                              
129576     O31E113914600029576201504271600100025006KY-UC42                  0020EFU5E282V           EFU5E282V                     00025347CB00120000PC000000001149720000100020150525SEA.FLKGMST141064/LIGH-137289                                                                                                     
129576     O31E913914600029576201504271600100025006KY-UC42                  0020                20150610                                                                                                                                                                                                              
129576     O31E113914600029576201504271600100025006KY-UC42                  0021EFU5E672V           EFU5E672V                     00025347CB00132000PC000000001149720000100020150525SEA.FLKGMST141064/LIGH-137289                                                                                                     
129576     O31E913914600029576201504271600100025006KY-UC42                  0021                20150610                                                                                                                                                                                                              
129576     O31E113914600029576201504271600100025006KY-UC42                  0022EFU8E272V           EFU8E272V                     00025347CB00150000PC000000001207920000100020150525SEA.FLKGMST141064/LIGH-137289                                                                                                     
129576     O31E913914600029576201504271600100025006KY-UC42                  0022                20150610                                                                                                                                                                                                              
129576     O31E113914600029576201504271600100025006KY-UC42                  0023EFU8E652V           EFU8E652V                     00025347CB00495000PC000000001207920000100020150525SEA.FLKGMST141064/LIGH-137289                                                                                                     
129576     O31E913914600029576201504271600100025006KY-UC42                  0023                20150610                                                                                                                                                                                                              
129576     O31E113914600029576201504271600100025006KY-UC42                  0024EFUHV11L27A         EFUHV11L27A                   00025347CB00024000PC000000000966120000100020150525SEA.FLKGMST141064/LIGH-137289                                                                                                     
129576     O31E913914600029576201504271600100025006KY-UC42                  0024                20150610                                                                                                                                                                                                              
129576     O31E113914600029576201504271600100025006KY-UC42                  0025EFUHV14D65A         EFUHV14D65A                   00025347CB00800000PC000000001045820000100020150525SEA.FLKGMST141064/LIGH-137289                                                                                                     
129576     O31E913914600029576201504271600100025006KY-UC42                  0025                20150610                                                                                                                                                                                                              
129576     O31E113914600029576201504271600100025006KY-UC42                  0026EFUHV8L27A          EFUHV8L27A                    00025347CB00020000PC000000000966120000100020150525SEA.FLKGMST141064/LIGH-137289                                                                                                     
129576     O31E913914600029576201504271600100025006KY-UC42                  0026                20150610                                                                                                                                                                                                              
