129576     O31A113914600029576201504290301100025006LS-UJH1                       210002500600039415        41506626                 FT    Ugi / Mr Joko                 N F/GDS - TRI(LATIN AMERICA  )  20150428        1N10002957620150606SEA.FZLC                                                               O312
129576     O31A213914600029576201504290301100025006LS-UJH1                      FOB                               USD                                                                20150705                SCMM                                        00029576                   00039415  PLAT-COLON     20150606 
129576     O31A613914600029576201504290301100025006LS-UJH1                      T/T BY 10TH OF NEXT MONTH                         BY T/T REMITTANCE ON THE 10TH OF THE NEXT MONTH                                                                                                                                     
129576     O31B113914600029576201504290301100025006LS-UJH1                      PLAT-COLON                    41506626                      LS-UJH1                       C/NO.                                                                                                                                       
129576     O31E113914600029576201504290301100025006LS-UJH1                  0001EFDLV11D65L                                       00025347CB00009120PC000000001155420000100020150606SEA.FZLC41506626                                                                                                                  
129576     O31E913914600029576201504290301100025006LS-UJH1                  0001                20150705                                                                                                                                                                                                              
129576     O31E113914600029576201504290301100025006LS-UJH1                  0002EFDLV11L27L                                       00025347CB00015000PC000000001155420000100020150606SEA.FZLC41506626                                                                                                                  
129576     O31E913914600029576201504290301100025006LS-UJH1                  0002                20150705                                                                                                                                                                                                              
129576     O31E113914600029576201504290301100025006LS-UJH1                  0003EFDLV15D65L                                       00025347CB00012960PC000000001165320000100020150606SEA.FZLC41506626                                                                                                                  
129576     O31E913914600029576201504290301100025006LS-UJH1                  0003                20150705                                                                                                                                                                                                              
129576     O31E113914600029576201504290301100025006LS-UJH1                  0004EFDLV15L27L                                       00025347CB00006000PC000000001165320000100020150606SEA.FZLC41506626                                                                                                                  
129576     O31E913914600029576201504290301100025006LS-UJH1                  0004                20150705                                                                                                                                                                                                              
129576     O31E113914600029576201504290301100025006LS-UJH1                  0005EFDLV20L27L                                       00025347CB00007080PC000000001404420000100020150606SEA.FZLC41506626                                                                                                                  
129576     O31E913914600029576201504290301100025006LS-UJH1                  0005                20150705                                                                                                                                                                                                              
129576     O31E113914600029576201504290301100025006LS-UJH1                  0006EFDLV23D65L                                       00025347CB00003720PC000000001573720000100020150606SEA.FZLC41506626                                                                                                                  
129576     O31E913914600029576201504290301100025006LS-UJH1                  0006                20150705                                                                                                                                                                                                              
129576     O31E113914600029576201504290301100025006LS-UJH1                  0007EFDLV25D65L                                       00025347CB00004200PC000000001673320000100020150606SEA.FZLC41506626                                                                                                                  
129576     O31E913914600029576201504290301100025006LS-UJH1                  0007                20150705                                                                                                                                                                                                              
129576     O31E113914600029576201504290301100025006LS-UJH1                  0008EFDLV25L27L                                       00025347CB00004920PC000000001673320000100020150606SEA.FZLC41506626                                                                                                                  
129576     O31E913914600029576201504290301100025006LS-UJH1                  0008                20150705                                                                                                                                                                                                              
129576     O31E113914600029576201504290301100025006LS-UJH1                  0009EFDLV8D65L                                        00025347CB00037080PC000000001195220000100020150606SEA.FZLC41506626                                                                                                                  
129576     O31E913914600029576201504290301100025006LS-UJH1                  0009                20150705                                                                                                                                                                                                              
129576     O31E113914600029576201504290301100025006LS-UJH1                  0010EFDLV8L27L                                        00025347CB00012360PC000000001195220000100020150606SEA.FZLC41506626                                                                                                                  
129576     O31E913914600029576201504290301100025006LS-UJH1                  0010                20150705                                                                                                                                                                                                              
129576     O31A113914600029576201504290301100025006LS-UJGJ                       210002500620614702        31506606-PANALAT BOGOTA  FT    Ugi / Mr Joko                 N F/GDS - TRI(LATIN AMERICA  )  20150428        1N10002957620150606SEA.FCTG                                                               O401
129576     O31A213914600029576201504290301100025006LS-UJGJ                      FOB                               USD                                                                20150705                SCMM                                        00029576                   20614702  P!LAT(CARTAGENA20150606 
129576     O31A613914600029576201504290301100025006LS-UJGJ                      T/T BY 10TH OF NEXT MONTH                         BY T/T REMITTANCE ON THE 10TH OF THE NEXT MONTH                                                                                                                                     
129576     O31B113914600029576201504290301100025006LS-UJGJ                      31506606-PANALAT BOGOTA                                                                                                                                                                                                               
129576     O31E113914600029576201504290301100025006LS-UJGJ                  0001EFDLV11D65L                                       00025347CB00004920PC000000001155420000100020150606SEA.FCTG31506606-PANALAT BOGOTA                                                                                                   
129576     O31E913914600029576201504290301100025006LS-UJGJ                  0001                20150705                                                                                                                                                                                                              
129576     O31E113914600029576201504290301100025006LS-UJGJ                  0002EFDLV15L27LC                                      00025347CB00004920PC000000001165320000100020150606SEA.FCTG31506606-PANALAT BOGOTA                                                                                                   
129576     O31E913914600029576201504290301100025006LS-UJGJ                  0002                20150705                                                                                                                                                                                                              
129576     O31E113914600029576201504290301100025006LS-UJGJ                  0003EFDLV25D65L                                       00025347CB00006360PC000000001673320000100020150606SEA.FCTG31506606-PANALAT BOGOTA                                                                                                   
129576     O31E913914600029576201504290301100025006LS-UJGJ                  0003                20150705                                                                                                                                                                                                              
129576     O31A113914600029576201504290301100025006KY-UHDK                       210002500600029073                                 FT    Ugi / Mr Joko                 N F/GDS - TRI(ASIA           )  20150428        1N10002957620150525SEA.FSIN                                                               O112
129576     O31A213914600029576201504290301100025006KY-UHDK                      FOB                               USD                                                                20150610                SCMM                                        00029576                   00029073  PSP-DD         20150525 
129576     O31A613914600029576201504290301100025006KY-UHDK                      T/T BY 10TH OF NEXT MONTH                         BY T/T REMITTANCE ON THE 10TH OF THE NEXT MONTH                                                                                                                                     
129576     O31B113914600029576201504290301100025006KY-UHDK                      PSP-DD                        MSP141366/DD5555-232672       KY-UHDK                       C/NO.                                                                                                                                       
129576     O31E113914600029576201504290301100025006KY-UHDK                  0001EFU18E652V          EFU18E652V                    00025347CB00003000PC000000001367620000100020150525SEA.FSINMSP141366/DD5555-232672                                                                                                   
129576     O31E913914600029576201504290301100025006KY-UHDK                  0001                20150610                                                                                                                                                                                                              
129576     O31A113914600029576201504290301100025006KY-UHFP                       210002500600029073                                 FT    Ugi / Mr Joko                 N F/GDS - TRI(ASIA           )  20150428        1N10002957620150525SEA.FSIN                                                               O112
129576     O31A213914600029576201504290301100025006KY-UHFP                      FOB                               USD                                                                20150610                SCMM                                        00029576                   00029073  PSP-DD         20150525 
129576     O31A613914600029576201504290301100025006KY-UHFP                      T/T BY 10TH OF NEXT MONTH                         BY T/T REMITTANCE ON THE 10TH OF THE NEXT MONTH                                                                                                                                     
129576     O31B113914600029576201504290301100025006KY-UHFP                      PSP-DD                        MSP141385/DD5555-232673       KY-UHFP                       C/NO.                                                                                                                                       
129576     O31E113914600029576201504290301100025006KY-UHFP                  0001EFDHV25D65A         EFDHV25D65A                   00025347CB00001920PC000000001533820000100020150525SEA.FSINMSP141385/DD5555-232673                                                                                                   
129576     O31E913914600029576201504290301100025006KY-UHFP                  0001                20150610                                                                                                                                                                                                              
