129576     O31A113914600029576201505050900100025006LS-UQQS                       210002500600039058        1507-7618 -01-LIMA       FT    Ugi / Mr Joko                 N F/GDS - TRI(LATIN AMERICA  )  20150505        1N10002957620150523SEA.FCLL                                                               O407
129576     O31A213914600029576201505050900100025006LS-UQQS                      FOB                               USD                                                                2015070500039058                                                    00029576                   00039058  PANAPERU       20150523 
129576     O31A613914600029576201505050900100025006LS-UQQS                      T/T BY 10TH OF NEXT MONTH                         BY T/T REMITTANCE ON THE 10TH OF THE NEXT MONTH                                                                                                                                     
129576     O31B113914600029576201505050900100025006LS-UQQS                      PANAPERU                      91507121                      LS-UQQS                       C/NO.                                                                                                                                       
129576     O31E113914600029576201505050900100025006LS-UQQS                  0001EFDHV25D65L                                       00025347CB00009000PC000000001892420000100020150523SEA.FCLL91507121                                                                                                                  
129576     O31E913914600029576201505050900100025006LS-UQQS                  0001                2015070500039058                                                                                                                                                                                                      
