129576     O31A113914600029576201508171600100025006KY-24VR                       410002500620619678                                 FT    Ugi / Mr Joko                 N F/GDS - TRI(ASIA           )  20150817        1N10002957620150825AIR.FSGN                                                               O110
129576     O31A213914600029576201508171600100025006KY-24VR                      FOB                               USD                                                                20150827                                                            00029576                   20619678  PV-PSV HCM     20150825 
129576     O31A613914600029576201508171600100025006KY-24VR                      T/T BY 10TH OF NEXT MONTH                         BY T/T REMITTANCE ON THE 10TH OF THE NEXT MONTH                                                                                                                                     
129576     O31B113914600029576201508171600100025006KY-24VR                      PV-PSV                        MSV144801/I207-113330         C/NO.                                                                                                                                                                     
129576     O31E113914600029576201508171600100025006KY-24VR                  0001EFDHV5D65A          EFDHV5D65A                    00025347CB00006720PC000000000992420000100020150825AIR.FSGNMSV144801/I207-113330                                                                                                     
129576     O31E913914600029576201508171600100025006KY-24VR                  0001                20150827                                                                                                                                                                                                              
129576     O31E113914600029576201508171600100025006KY-24VR                  0002EFDHV8D65A          EFDHV8D65A                    00025347CB00299520PC000000000992420000100020150825AIR.FSGNMSV144801/I207-113330                                                                                                     
129576     O31E913914600029576201508171600100025006KY-24VR                  0002                20150827                                                                                                                                                                                                              
129576     O31E113914600029576201508171600100025006KY-24VR                  0003EFDHV23D65A         EFDHV23D65A                   00025347CB00011520PC000000001451220000100020150825AIR.FSGNMSV144801/I207-113330                                                                                                     
129576     O31E913914600029576201508171600100025006KY-24VR                  0003                20150827                                                                                                                                                                                                              
129576     O31E113914600029576201508171600100025006KY-24VR                  0004EFDHV23L27A         EFDHV23L27A                   00025347CB00002880PC000000001451220000100020150825AIR.FSGNMSV144801/I207-113330                                                                                                     
129576     O31E913914600029576201508171600100025006KY-24VR                  0004                20150827                                                                                                                                                                                                              
129576     O31E113914600029576201508171600100025006KY-24VR                  0005EFDHV25D65A         EFDHV25D65A                   00025347CB00020160PC000000001451220000100020150825AIR.FSGNMSV144801/I207-113330                                                                                                     
129576     O31E913914600029576201508171600100025006KY-24VR                  0005                20150827                                                                                                                                                                                                              
