129576     O31A113914600029576201507291100100025006KY-0ZXW                       210002500600039140                                 FT    Ugi / Mr Joko                 N F/GDS - TRI(ASIA           )  20150729        1N10002957620150902SEA.FPKL                                                               O113
129576     O31A213914600029576201507291100100025006KY-0ZXW                      FOB                               USD                                                                20150920                                                            00029576                   00039140  PM             20150902 
129576     O31A613914600029576201507291100100025006KY-0ZXW                      T/T BY 10TH OF NEXT MONTH                         BY T/T REMITTANCE ON THE 10TH OF THE NEXT MONTH                                                                                                                                     
129576     O31B113914600029576201507291100100025006KY-0ZXW                      PM                            MMQ144286/EL1507004           KY-0ZXW                       C/NO.                                                                                                                                       
129576     O31E113914600029576201507291100100025006KY-0ZXW                  0001EFDHV25L27A                                       00025347CB00040320PC000000001533820000100020150902SEA.FPKLMMQ144286/EL1507004                                                                                                       
129576     O31E913914600029576201507291100100025006KY-0ZXW                  0001                20150920                                                                                                                                                                                                              
