129576     O31A113914600029576201510170300100025006LS-6UWV                       210002500600039058        1601-7831 -01-LIMA       FT    Ugi / Mr Joko                 N F/GDS - TRI(LATIN AMERICA  )  20151017        1N10002957620151123SEA.FCLL                                                               O407
129576     O31A213914600029576201510170300100025006LS-6UWV                      FOB                               USD                                                                2016010500039058                                                    00029576                   00039058  PANAPERU       20151123 
129576     O31A613914600029576201510170300100025006LS-6UWV                      T/T BY 10TH OF NEXT MONTH                         BY T/T REMITTANCE ON THE 10TH OF THE NEXT MONTH                                                                                                                                     
129576     O31B113914600029576201510170300100025006LS-6UWV                      PANAPERU                      91601015                      LS-6UWV                       C/NO.                                                                                                                                       
129576     O31E113914600029576201510170300100025006LS-6UWV                  0001EFUHV18D65L                                       00025347CB00065000PC000000001374520000100020151123SEA.FCLL91601015                                                                                                                  
129576     O31E913914600029576201510170300100025006LS-6UWV                  0001                2016010500039058                                                                                                                                                                                                      
129576     O31E113914600029576201510170300100025006LS-6UWV                  0002EFUHV18L27L                                       00025347CB00012000PC000000001374520000100020151123SEA.FCLL91601015                                                                                                                  
129576     O31E913914600029576201510170300100025006LS-6UWV                  0002                2016010500039058                                                                                                                                                                                                      
