129576     O31A113914600029576201509020301100025006KY-3EWW                       210002500600029073                                 FT    Ugi / Mr Joko                 N F/GDS - TRI(ASIA           )  20150901        1N10002957620150925SEA.FSIN                                                               O112
129576     O31A213914600029576201509020301100025006KY-3EWW                      FOB                               USD                                                                20151010                SCMM                                        00029576                   00029073  PSP-DD         20150925 
129576     O31A613914600029576201509020301100025006KY-3EWW                      T/T BY 10TH OF NEXT MONTH                         BY T/T REMITTANCE ON THE 10TH OF THE NEXT MONTH                                                                                                                                     
129576     O31B113914600029576201509020301100025006KY-3EWW                      PSP-DD                        MSP145565/DD5555-233448       KY-3EWW                       C/NO.                                                                                                                                       
129576     O31E113914600029576201509020301100025006KY-3EWW                  0001EFU18E652V          EFU18E652V                    00025347CB00002000PC000000001367620000100020150925SEA.FSINMSP145565/DD5555-233448                                                                                                   
129576     O31E913914600029576201509020301100025006KY-3EWW                  0001                20151010                                                                                                                                                                                                              
129576     O31A113914600029576201509020301100025006KY-3EWZ                       210002500600029073                                 FT    Ugi / Mr Joko                 N F/GDS - TRI(ASIA           )  20150901        1N10002957620150925SEA.FSIN                                                               O112
129576     O31A213914600029576201509020301100025006KY-3EWZ                      FOB                               USD                                                                20151010                SCMM                                        00029576                   00029073  PSP-DD         20150925 
129576     O31A613914600029576201509020301100025006KY-3EWZ                      T/T BY 10TH OF NEXT MONTH                         BY T/T REMITTANCE ON THE 10TH OF THE NEXT MONTH                                                                                                                                     
129576     O31B113914600029576201509020301100025006KY-3EWZ                      PSP-DD                        MSP145566/DD5555-233449       KY-3EWZ                       C/NO.                                                                                                                                       
129576     O31E113914600029576201509020301100025006KY-3EWZ                  0001EFDHV15L27A         EFDHV15L27A                   00025347CB00002880PC000000000123510000100020150925SEA.FSINMSP145566/DD5555-233449                                                                                                   
129576     O31E913914600029576201509020301100025006KY-3EWZ                  0001                20151010                                                                                                                                                                                                              
129576     O31A113914600029576201509020301100025006KY-3EXZ                       210002500600029073                                 FT    Ugi / Mr Joko                 N F/GDS - TRI(ASIA           )  20150901        1N10002957620151004SEA.FSIN                                                               O112
129576     O31A213914600029576201509020301100025006KY-3EXZ                      FOB                               USD                                                                20151010                SCMM                                        00029576                   00029073  PSP-DD         20151004 
129576     O31A613914600029576201509020301100025006KY-3EXZ                      T/T BY 10TH OF NEXT MONTH                         BY T/T REMITTANCE ON THE 10TH OF THE NEXT MONTH                                                                                                                                     
129576     O31B113914600029576201509020301100025006KY-3EXZ                      NO MARK                                                                                                                                                                                                                               
129576     O31E113914600029576201509020301100025006KY-3EXZ                  0001FCL22D+FCL32D       FCL22D+FCL32D                 00025346CB00040000PA000000002004920000100020151004SEA.FSINMSP145509/DD5555-233442                                                                                                   
129576     O31E913914600029576201509020301100025006KY-3EXZ                  0001                20151010                                                                                                                                                                                                              
129576     O31E113914600029576201509020301100025006KY-3EXZ                  0002FCL22EXD            FCL22EXD                      00025346CB00010000PC000000002038820000100020151004SEA.FSINMSP145509/DD5555-233442                                                                                                   
129576     O31E913914600029576201509020301100025006KY-3EXZ                  0002                20151010                                                                                                                                                                                                              
129576     O31E113914600029576201509020301100025006KY-3EXZ                  0003FCL40EX-D(I)        FCL40EX-D(I)                  00025346CB00012000PC000000003563720000100020151004SEA.FSINMSP145509/DD5555-233442                                                                                                   
129576     O31E913914600029576201509020301100025006KY-3EXZ                  0003                20151010                                                                                                                                                                                                              
129576     O31A113914600029576201509020301100025006LS-3FLF                       210002500600039051000390515000031882               FT    Ugi / Mr Joko                 N F/GDS - TRI(LATIN AMERICA  )  20150902        1N10002957620151004SEA.FMEX                                                               O305
129576     O31A213914600029576201509020301100025006LS-3FLF                      FOB                               USD                                 PANAMEX                        201511050003905100039051SCMM                                        00029576                   00039051  PANAMEX        20151004 
129576     O31A613914600029576201509020301100025006LS-3FLF                      T/T BY 10TH OF NEXT MONTH                         BY T/T REMITTANCE ON THE 10TH OF THE NEXT MONTH                                                                                                                                     
129576     O31B113914600029576201509020301100025006LS-3FLF                      PANAMEX                       91510241                      LS-3FLF                       C/NO.                                                                                                                                       
129576     O31E113914600029576201509020301100025006LS-3FLF                  0001EFDLV25L27L                                       00025347CB00004200PC000000001563720000100020151004SEA.FMEX91510241                                                                                                                  
129576     O31E913914600029576201509020301100025006LS-3FLF                  0001                2015110500039051                                                                                                                                                                                                      
129576     O31E113914600029576201509020301100025006LS-3FLF                  0002EFDLV25D65L                                       00025347CB00023160PC000000001563720000100020151004SEA.FMEX91510241                                                                                                                  
129576     O31E913914600029576201509020301100025006LS-3FLF                  0002                2015110500039051                                                                                                                                                                                                      
129576     O31E113914600029576201509020301100025006LS-3FLF                  0003EFDLV23L27L                                       00025347CB00004440PC000000001563720000100020151004SEA.FMEX91510241                                                                                                                  
129576     O31E913914600029576201509020301100025006LS-3FLF                  0003                2015110500039051                                                                                                                                                                                                      
129576     O31E113914600029576201509020301100025006LS-3FLF                  0004EFDLV15L27L                                       00025347CB00003960PC000000001115520000100020151004SEA.FMEX91510241                                                                                                                  
129576     O31E913914600029576201509020301100025006LS-3FLF                  0004                2015110500039051                                                                                                                                                                                                      
129576     O31E113914600029576201509020301100025006LS-3FLF                  0005EFDLV11D65L                                       00025347CB00005040PC000000001115520000100020151004SEA.FMEX91510241                                                                                                                  
129576     O31E913914600029576201509020301100025006LS-3FLF                  0005                2015110500039051                                                                                                                                                                                                      
129576     O31A113914600029576201509020301100025006KY-3EWA                       210002500600029073                                 FT    Ugi / Mr Joko                 N F/GDS - TRI(ASIA           )  20150901        1N10002957620151004SEA.FSIN                                                               O112
129576     O31A213914600029576201509020301100025006KY-3EWA                      FOB                               USD                                                                20151010                SCMM                                        00029576                   00029073  PSP-DD         20151004 
129576     O31A613914600029576201509020301100025006KY-3EWA                      T/T BY 10TH OF NEXT MONTH                         BY T/T REMITTANCE ON THE 10TH OF THE NEXT MONTH                                                                                                                                     
129576     O31B113914600029576201509020301100025006KY-3EWA                      NO MARK                                                                                                                                                                                                                               
129576     O31E113914600029576201509020301100025006KY-3EWA                  0001FL20SS.D/18G        FL20SS.D/18                   00025345CB00050000PC000000000403320000100020151004SEA.FSINMSP145508/DD5555-233441                                                                                                   
129576     O31E913914600029576201509020301100025006KY-3EWA                  0001                20151010                                                                                                                                                                                                              
129576     O31E113914600029576201509020301100025006KY-3EWA                  0002FL40SS.D/36G        FL40SS.D/36                   00025345CB00100000PC000000000461420000100020151004SEA.FSINMSP145508/DD5555-233441                                                                                                   
129576     O31E913914600029576201509020301100025006KY-3EWA                  0002                20151010                                                                                                                                                                                                              
129576     O31A113914600029576201509020301100025006KY-3FL4                       210002500600039130                                 FT    Ugi / Mr Joko                 N F/GDS - TRI(ASIA           )  20150901        1N10002957620150925SEA.FLKG                                                               O111
129576     O31A213914600029576201509020301100025006KY-3FL4                      FOB                               USD                                                                20151010                SCMM                                        00029576                   00039130  PST            20150925 
129576     O31A613914600029576201509020301100025006KY-3FL4                      T/T BY 10TH OF NEXT MONTH                         BY T/T REMITTANCE ON THE 10TH OF THE NEXT MONTH                                                                                                                                     
129576     O31B113914600029576201509020301100025006KY-3FL4                      PST                           MST145615/LIGH-138726         KY-3FL4                       LAT KRABANG                   C/NO.                                                                                                         
129576     O31E113914600029576201509020301100025006KY-3FL4                  0001EFDHV15D65T         EFDHV15D65T                   00025347CB00068160PC000000000123510000100020150925SEA.FLKGMST145615/LIGH-138726                                                                                                     
129576     O31E913914600029576201509020301100025006KY-3FL4                  0001                20151010                                                                                                                                                                                                              
129576     O31E113914600029576201509020301100025006KY-3FL4                  0002EFDHV25L27T         EFDHV25L27T                   00025347CB00096000PC000000001533820000100020150925SEA.FLKGMST145615/LIGH-138726                                                                                                     
129576     O31E913914600029576201509020301100025006KY-3FL4                  0002                20151010                                                                                                                                                                                                              
129576     O31E113914600029576201509020301100025006KY-3FL4                  0003EFDHV32D65A         EFDHV32D65A                   00025347CB00048000PC000000000274710000100020150925SEA.FLKGMST145615/LIGH-138726                                                                                                     
129576     O31E913914600029576201509020301100025006KY-3FL4                  0003                20151010                                                                                                                                                                                                              
129576     O31E113914600029576201509020301100025006KY-3FL4                  0004EFDHV42D65A         EFDHV42D65A                   00025347CB00060000PC000000003041320000100020150925SEA.FLKGMST145615/LIGH-138726                                                                                                     
129576     O31E913914600029576201509020301100025006KY-3FL4                  0004                20151010                                                                                                                                                                                                              
129576     O31E113914600029576201509020301100025006KY-3FL4                  0005EFU11E272V          EFU11E272V                    00025347CB00080000PC000000001234520000100020150925SEA.FLKGMST145615/LIGH-138726                                                                                                     
129576     O31E913914600029576201509020301100025006KY-3FL4                  0005                20151010                                                                                                                                                                                                              
129576     O31E113914600029576201509020301100025006KY-3FL4                  0006EFU14E272V          EFU14E272V                    00025347CB00115000PC000000001320320000100020150925SEA.FLKGMST145615/LIGH-138726                                                                                                     
129576     O31E913914600029576201509020301100025006KY-3FL4                  0006                20151010                                                                                                                                                                                                              
129576     O31E113914600029576201509020301100025006KY-3FL4                  0007EFU5E672V           EFU5E672V                     00025347CB00012000PC000000001149720000100020150925SEA.FLKGMST145615/LIGH-138726                                                                                                     
129576     O31E913914600029576201509020301100025006KY-3FL4                  0007                20151010                                                                                                                                                                                                              
129576     O31E113914600029576201509020301100025006KY-3FL4                  0008EFU8E652V           EFU8E652V                     00025347CB00150000PC000000001207920000100020150925SEA.FLKGMST145615/LIGH-138726                                                                                                     
129576     O31E913914600029576201509020301100025006KY-3FL4                  0008                20151010                                                                                                                                                                                                              
129576     O31E113914600029576201509020301100025006KY-3FL4                  0009EFUHV18D65A         EFUHV18D65A                   00025347CB00315000PC000000001354620000100020150925SEA.FLKGMST145615/LIGH-138726                                                                                                     
129576     O31E913914600029576201509020301100025006KY-3FL4                  0009                20151010                                                                                                                                                                                                              
129576     O31E113914600029576201509020301100025006KY-3FL4                  0010EFUHV18L27A         EFUHV18L27A                   00025347CB00036000PC000000001354620000100020150925SEA.FLKGMST145615/LIGH-138726                                                                                                     
129576     O31E913914600029576201509020301100025006KY-3FL4                  0010                20151010                                                                                                                                                                                                              
129576     O31E113914600029576201509020301100025006KY-3FL4                  0011EFUHV23D65A         EFUHV23D65A                   00025347CB00360000PC000000001424320000100020150925SEA.FLKGMST145615/LIGH-138726                                                                                                     
129576     O31E913914600029576201509020301100025006KY-3FL4                  0011                20151010                                                                                                                                                                                                              
129576     O31E113914600029576201509020301100025006KY-3FL4                  0012EFUHV23L27A         EFUHV23L27A                   00025347CB00036000PC000000001424320000100020150925SEA.FLKGMST145615/LIGH-138726                                                                                                     
129576     O31E913914600029576201509020301100025006KY-3FL4                  0012                20151010                                                                                                                                                                                                              
129576     O31A113914600029576201509020301100025006LS-3FN7                       210002500600039058        1511-35081-16-LIMA       FT    Ugi / Mr Joko                 N F/GDS - TRI(LATIN AMERICA  )  20150902        1N10002957620150925SEA.FCLL                                                               O407
129576     O31A213914600029576201509020301100025006LS-3FN7                      FOB                               USD                                                                2015110500039058        SCMM                                        00029576                   00039058  PANAPERU       20150925 
129576     O31A613914600029576201509020301100025006LS-3FN7                      T/T BY 10TH OF NEXT MONTH                         BY T/T REMITTANCE ON THE 10TH OF THE NEXT MONTH                                                                                                                                     
129576     O31B113914600029576201509020301100025006LS-3FN7                      PANAPERU                      91511068                      LS-3FN7                       C/NO.                                                                                                                                       
129576     O31E113914600029576201509020301100025006LS-3FN7                  0001EFDHV11D65L                                       00025347CB00040080PC000000001185220000100020150925SEA.FCLL91511068                                                                                                                  
129576     O31E913914600029576201509020301100025006LS-3FN7                  0001                2015110500039058                                                                                                                                                                                                      
129576     O31E113914600029576201509020301100025006LS-3FN7                  0002EFDHV11L27L                                       00025347CB00021960PC000000001185220000100020150925SEA.FCLL91511068                                                                                                                  
129576     O31E913914600029576201509020301100025006LS-3FN7                  0002                2015110500039058                                                                                                                                                                                                      
129576     O31E113914600029576201509020301100025006LS-3FN7                  0003EFDHV15D65L                                       00025347CB00010080PC000000001185220000100020150925SEA.FCLL91511068                                                                                                                  
129576     O31E913914600029576201509020301100025006LS-3FN7                  0003                2015110500039058                                                                                                                                                                                                      
129576     O31E113914600029576201509020301100025006LS-3FN7                  0004EFDHV20L27L                                       00025347CB00030000PC000000001464120000100020150925SEA.FCLL91511068                                                                                                                  
129576     O31E913914600029576201509020301100025006LS-3FN7                  0004                2015110500039058                                                                                                                                                                                                      
129576     O31E113914600029576201509020301100025006LS-3FN7                  0005EFDHV23L27L                                       00025347CB00010080PC000000001464120000100020150925SEA.FCLL91511068                                                                                                                  
129576     O31E913914600029576201509020301100025006LS-3FN7                  0005                2015110500039058                                                                                                                                                                                                      
129576     O31E113914600029576201509020301100025006LS-3FN7                  0006EFDHV25D65L                                       00025347CB00019920PC000000001892420000100020150925SEA.FCLL91511068                                                                                                                  
129576     O31E913914600029576201509020301100025006LS-3FN7                  0006                2015110500039058                                                                                                                                                                                                      
129576     O31E113914600029576201509020301100025006LS-3FN7                  0007EFDHV25L27L                                       00025347CB00009960PC000000001892420000100020150925SEA.FCLL91511068                                                                                                                  
129576     O31E913914600029576201509020301100025006LS-3FN7                  0007                2015110500039058                                                                                                                                                                                                      
129576     O31E113914600029576201509020301100025006LS-3FN7                  0008EFDHV8D65L                                        00025347CB00030000PC000000001125520000100020150925SEA.FCLL91511068                                                                                                                  
129576     O31E913914600029576201509020301100025006LS-3FN7                  0008                2015110500039058                                                                                                                                                                                                      
129576     O31E113914600029576201509020301100025006LS-3FN7                  0009EFDHV8L27L                                        00025347CB00019920PC000000001125520000100020150925SEA.FCLL91511068                                                                                                                  
129576     O31E913914600029576201509020301100025006LS-3FN7                  0009                2015110500039058                                                                                                                                                                                                      
129576     O31E113914600029576201509020301100025006LS-3FN7                  0010EFUHV11D65L                                       00025347CB00010000PC000000000976120000100020150925SEA.FCLL91511068                                                                                                                  
129576     O31E913914600029576201509020301100025006LS-3FN7                  0010                2015110500039058                                                                                                                                                                                                      
129576     O31E113914600029576201509020301100025006LS-3FN7                  0011EFUHV14D65L                                       00025347CB00010000PC000000001055820000100020150925SEA.FCLL91511068                                                                                                                  
129576     O31E913914600029576201509020301100025006LS-3FN7                  0011                2015110500039058                                                                                                                                                                                                      
129576     O31E113914600029576201509020301100025006LS-3FN7                  0012EFUHV14L27L                                       00025347CB00005000PC000000001055820000100020150925SEA.FCLL91511068                                                                                                                  
129576     O31E913914600029576201509020301100025006LS-3FN7                  0012                2015110500039058                                                                                                                                                                                                      
129576     O31E113914600029576201509020301100025006LS-3FN7                  0013EFUHV8D65L                                        00025347CB00012000PC000000000976120000100020150925SEA.FCLL91511068                                                                                                                  
129576     O31E913914600029576201509020301100025006LS-3FN7                  0013                2015110500039058                                                                                                                                                                                                      
