129576     O31A113914600029576201506300300100025006KY-YUP0                       210002500600039130                                 FT    Ugi / Mr Joko                 N F/GDS - TRI(ASIA           )  20150629        1N10002957620150725SEA.FLKG                                                               O111
129576     O31A213914600029576201506300300100025006KY-YUP0                      FOB                               USD                                                                20150810                SCMM                                        00029576                   00039130  PST            20150725 
129576     O31A613914600029576201506300300100025006KY-YUP0                      T/T BY 10TH OF NEXT MONTH                         BY T/T REMITTANCE ON THE 10TH OF THE NEXT MONTH                                                                                                                                     
129576     O31B113914600029576201506300300100025006KY-YUP0                      PST                           MST143162/LIGH-138050         KY-YUP0                       LAT KRABANG                   C/NO.                                                                                                         
129576     O31E113914600029576201506300300100025006KY-YUP0                  0001EFDHV11D65T         EFDHV11D65T                   00025347CB00081600PC000000000123510000100020150725SEA.FLKGMST143162/LIGH-138050                                                                                                     
129576     O31E913914600029576201506300300100025006KY-YUP0                  0001                20150810                                                                                                                                                                                                              
129576     O31E113914600029576201506300300100025006KY-YUP0                  0002EFDHV11L27T         EFDHV11L27T                   00025347CB00052800PC000000000123510000100020150725SEA.FLKGMST143162/LIGH-138050                                                                                                     
129576     O31E913914600029576201506300300100025006KY-YUP0                  0002                20150810                                                                                                                                                                                                              
129576     O31E113914600029576201506300300100025006KY-YUP0                  0003EFDHV15D65T         EFDHV15D65T                   00025347CB00796800PC000000000123510000100020150725SEA.FLKGMST143162/LIGH-138050                                                                                                     
129576     O31E913914600029576201506300300100025006KY-YUP0                  0003                20150810                                                                                                                                                                                                              
129576     O31E113914600029576201506300300100025006KY-YUP0                  0004EFDHV15L27T         EFDHV15L27T                   00025347CB00081600PC000000000123510000100020150725SEA.FLKGMST143162/LIGH-138050                                                                                                     
129576     O31E913914600029576201506300300100025006KY-YUP0                  0004                20150810                                                                                                                                                                                                              
129576     O31E113914600029576201506300300100025006KY-YUP0                  0005EFDHV20D65T         EFDHV20D65T                   00025347CB00172800PC000000001533820000100020150725SEA.FLKGMST143162/LIGH-138050                                                                                                     
129576     O31E913914600029576201506300300100025006KY-YUP0                  0005                20150810                                                                                                                                                                                                              
129576     O31E113914600029576201506300300100025006KY-YUP0                  0006EFDHV20L27T         EFDHV20L27T                   00025347CB00051840PC000000001533820000100020150725SEA.FLKGMST143162/LIGH-138050                                                                                                     
129576     O31E913914600029576201506300300100025006KY-YUP0                  0006                20150810                                                                                                                                                                                                              
129576     O31E113914600029576201506300300100025006KY-YUP0                  0007EFDHV23D65T         EFDHV23D65T                   00025347CB00120000PC000000001533820000100020150725SEA.FLKGMST143162/LIGH-138050                                                                                                     
129576     O31E913914600029576201506300300100025006KY-YUP0                  0007                20150810                                                                                                                                                                                                              
129576     O31E113914600029576201506300300100025006KY-YUP0                  0008EFDHV23L27T         EFDHV23L27T                   00025347CB00036480PC000000001533820000100020150725SEA.FLKGMST143162/LIGH-138050                                                                                                     
129576     O31E913914600029576201506300300100025006KY-YUP0                  0008                20150810                                                                                                                                                                                                              
129576     O31E113914600029576201506300300100025006KY-YUP0                  0009EFDHV25D65T         EFDHV25D65T                   00025347CB03059520PC000000001533820000100020150725SEA.FLKGMST143162/LIGH-138050                                                                                                     
129576     O31E913914600029576201506300300100025006KY-YUP0                  0009                20150810                                                                                                                                                                                                              
129576     O31E113914600029576201506300300100025006KY-YUP0                  0010EFDHV25L27T         EFDHV25L27T                   00025347CB00129600PC000000001533820000100020150725SEA.FLKGMST143162/LIGH-138050                                                                                                     
129576     O31E913914600029576201506300300100025006KY-YUP0                  0010                20150810                                                                                                                                                                                                              
129576     O31E113914600029576201506300300100025006KY-YUP0                  0011EFDHV32D65A         EFDHV32D65A                   00025347CB00099840PC000000000274710000100020150725SEA.FLKGMST143162/LIGH-138050                                                                                                     
129576     O31E913914600029576201506300300100025006KY-YUP0                  0011                20150810                                                                                                                                                                                                              
129576     O31E113914600029576201506300300100025006KY-YUP0                  0012EFDHV42D65A         EFDHV42D65A                   00025347CB00120000PC000000003041320000100020150725SEA.FLKGMST143162/LIGH-138050                                                                                                     
129576     O31E913914600029576201506300300100025006KY-YUP0                  0012                20150810                                                                                                                                                                                                              
129576     O31E113914600029576201506300300100025006KY-YUP0                  0013EFDHV5D65T          EFDHV5D65T                    00025347CB00067200PC000000001045820000100020150725SEA.FLKGMST143162/LIGH-138050                                                                                                     
129576     O31E913914600029576201506300300100025006KY-YUP0                  0013                20150810                                                                                                                                                                                                              
129576     O31E113914600029576201506300300100025006KY-YUP0                  0014EFDHV5L27T          EFDHV5L27T                    00025347CB00024000PC000000001045820000100020150725SEA.FLKGMST143162/LIGH-138050                                                                                                     
129576     O31E913914600029576201506300300100025006KY-YUP0                  0014                20150810                                                                                                                                                                                                              
129576     O31E113914600029576201506300300100025006KY-YUP0                  0015EFDHV8D65T          EFDHV8D65T                    00025347CB00107520PC000000001045820000100020150725SEA.FLKGMST143162/LIGH-138050                                                                                                     
129576     O31E913914600029576201506300300100025006KY-YUP0                  0015                20150810                                                                                                                                                                                                              
129576     O31E113914600029576201506300300100025006KY-YUP0                  0016EFU11E272V          EFU11E272V                    00025347CB00120000PC000000001234520000100020150725SEA.FLKGMST143162/LIGH-138050                                                                                                     
129576     O31E913914600029576201506300300100025006KY-YUP0                  0016                20150810                                                                                                                                                                                                              
129576     O31E113914600029576201506300300100025006KY-YUP0                  0017EFU11E652V          EFU11E652V                    00025347CB00400000PC000000001234520000100020150725SEA.FLKGMST143162/LIGH-138050                                                                                                     
129576     O31E913914600029576201506300300100025006KY-YUP0                  0017                20150810                                                                                                                                                                                                              
129576     O31E113914600029576201506300300100025006KY-YUP0                  0018EFU14E272V          EFU14E272V                    00025347CB00250000PC000000001320320000100020150725SEA.FLKGMST143162/LIGH-138050                                                                                                     
129576     O31E913914600029576201506300300100025006KY-YUP0                  0018                20150810                                                                                                                                                                                                              
129576     O31E113914600029576201506300300100025006KY-YUP0                  0019EFU14E652V          EFU14E652V                    00025347CB01620000PC000000001320320000100020150725SEA.FLKGMST143162/LIGH-138050                                                                                                     
129576     O31E913914600029576201506300300100025006KY-YUP0                  0019                20150810                                                                                                                                                                                                              
129576     O31E113914600029576201506300300100025006KY-YUP0                  0020EFU18E272V          EFU18E272V                    00025347CB00030000PC000000001491920000100020150725SEA.FLKGMST143162/LIGH-138050                                                                                                     
129576     O31E913914600029576201506300300100025006KY-YUP0                  0020                20150810                                                                                                                                                                                                              
129576     O31E113914600029576201506300300100025006KY-YUP0                  0021EFU18E652V          EFU18E652V                    00025347CB00200000PC000000001491920000100020150725SEA.FLKGMST143162/LIGH-138050                                                                                                     
129576     O31E913914600029576201506300300100025006KY-YUP0                  0021                20150810                                                                                                                                                                                                              
129576     O31E113914600029576201506300300100025006KY-YUP0                  0022EFU5E282V           EFU5E282V                     00025347CB00080000PC000000001149720000100020150725SEA.FLKGMST143162/LIGH-138050                                                                                                     
129576     O31E913914600029576201506300300100025006KY-YUP0                  0022                20150810                                                                                                                                                                                                              
129576     O31E113914600029576201506300300100025006KY-YUP0                  0023EFU5E672V           EFU5E672V                     00025347CB00100000PC000000001149720000100020150725SEA.FLKGMST143162/LIGH-138050                                                                                                     
129576     O31E913914600029576201506300300100025006KY-YUP0                  0023                20150810                                                                                                                                                                                                              
129576     O31E113914600029576201506300300100025006KY-YUP0                  0024EFU8E272V           EFU8E272V                     00025347CB00135000PC000000001207920000100020150725SEA.FLKGMST143162/LIGH-138050                                                                                                     
129576     O31E913914600029576201506300300100025006KY-YUP0                  0024                20150810                                                                                                                                                                                                              
129576     O31E113914600029576201506300300100025006KY-YUP0                  0025EFU8E652V           EFU8E652V                     00025347CB00540000PC000000001207920000100020150725SEA.FLKGMST143162/LIGH-138050                                                                                                     
129576     O31E913914600029576201506300300100025006KY-YUP0                  0025                20150810                                                                                                                                                                                                              
129576     O31E113914600029576201506300300100025006KY-YUP0                  0026EFUHV11L27A         EFUHV11L27A                   00025347CB00024000PC000000000966120000100020150725SEA.FLKGMST143162/LIGH-138050                                                                                                     
129576     O31E913914600029576201506300300100025006KY-YUP0                  0026                20150810                                                                                                                                                                                                              
129576     O31E113914600029576201506300300100025006KY-YUP0                  0027EFUHV18D65A         EFUHV18D65A                   00025347CB00800000PC000000001354620000100020150725SEA.FLKGMST143162/LIGH-138050                                                                                                     
129576     O31E913914600029576201506300300100025006KY-YUP0                  0027                20150810                                                                                                                                                                                                              
129576     O31E113914600029576201506300300100025006KY-YUP0                  0028EFUHV18L27A         EFUHV18L27A                   00025347CB00060000PC000000001354620000100020150725SEA.FLKGMST143162/LIGH-138050                                                                                                     
129576     O31E913914600029576201506300300100025006KY-YUP0                  0028                20150810                                                                                                                                                                                                              
129576     O31E113914600029576201506300300100025006KY-YUP0                  0029EFUHV23D65A         EFUHV23D65A                   00025347CB00600000PC000000001424320000100020150725SEA.FLKGMST143162/LIGH-138050                                                                                                     
129576     O31E913914600029576201506300300100025006KY-YUP0                  0029                20150810                                                                                                                                                                                                              
129576     O31E113914600029576201506300300100025006KY-YUP0                  0030EFUHV23L27A         EFUHV23L27A                   00025347CB00060000PC000000001424320000100020150725SEA.FLKGMST143162/LIGH-138050                                                                                                     
129576     O31E913914600029576201506300300100025006KY-YUP0                  0030                20150810                                                                                                                                                                                                              
129576     O31E113914600029576201506300300100025006KY-YUP0                  0031EFUHV8D65A          EFUHV8D65A                    00025347CB00045000PC000000000966120000100020150725SEA.FLKGMST143162/LIGH-138050                                                                                                     
129576     O31E913914600029576201506300300100025006KY-YUP0                  0031                20150810                                                                                                                                                                                                              
129576     O31E113914600029576201506300300100025006KY-YUP0                  0032EFUHV8L27A          EFUHV8L27A                    00025347CB00030000PC000000000966120000100020150725SEA.FLKGMST143162/LIGH-138050                                                                                                     
129576     O31E913914600029576201506300300100025006KY-YUP0                  0032                20150810                                                                                                                                                                                                              
