129576     O31A113914600029576201509290900100025006LS-5EKA                       210002500600039058        1512-35091-07-LIMA       FT    Ugi / Mr Joko                 N F/GDS - TRI(LATIN AMERICA  )  20150929        1N10002957620151025SEA.FCLL                                                               O407
129576     O31A213914600029576201509290900100025006LS-5EKA                      FOB                               USD                                                                2015120500039058        SCMM                                        00029576                   00039058  PANAPERU       20151025 
129576     O31A613914600029576201509290900100025006LS-5EKA                      T/T BY 10TH OF NEXT MONTH                         BY T/T REMITTANCE ON THE 10TH OF THE NEXT MONTH                                                                                                                                     
129576     O31B113914600029576201509290900100025006LS-5EKA                      PANAPERU                      91512042                      LS-5EKA                       C/NO.                                                                                                                                       
129576     O31E113914600029576201509290900100025006LS-5EKA                  0001EFDHV15L27L                                       00025347CB00050040PC000000001185220000100020151025SEA.FCLL91512042                                                                                                                  
129576     O31E913914600029576201509290900100025006LS-5EKA                  0001                2015120500039058                                                                                                                                                                                                      
129576     O31E113914600029576201509290900100025006LS-5EKA                  0002EFDHV20L27L                                       00025347CB00031920PC000000001464120000100020151025SEA.FCLL91512042                                                                                                                  
129576     O31E913914600029576201509290900100025006LS-5EKA                  0002                2015120500039058                                                                                                                                                                                                      
129576     O31E113914600029576201509290900100025006LS-5EKA                  0003EFDHV25D65L                                       00025347CB00054000PC000000001892420000100020151025SEA.FCLL91512042                                                                                                                  
129576     O31E913914600029576201509290900100025006LS-5EKA                  0003                2015120500039058                                                                                                                                                                                                      
129576     O31E113914600029576201509290900100025006LS-5EKA                  0004EFDHV8D65L                                        00025347CB00048000PC000000001125520000100020151025SEA.FCLL91512042                                                                                                                  
129576     O31E913914600029576201509290900100025006LS-5EKA                  0004                2015120500039058                                                                                                                                                                                                      
129576     O31E113914600029576201509290900100025006LS-5EKA                  0005EFDHV8L27L                                        00025347CB00024000PC000000001125520000100020151025SEA.FCLL91512042                                                                                                                  
129576     O31E913914600029576201509290900100025006LS-5EKA                  0005                2015120500039058                                                                                                                                                                                                      
129576     O31A113914600029576201509290900100025006LS-5EJ9                       210002500600039415        41511617                 FT    Ugi / Mr Joko                 N F/GDS - TRI(LATIN AMERICA  )  20150929        1N10002957620151106SEA.FZLC                                                               O312
129576     O31A213914600029576201509290900100025006LS-5EJ9                      FOB                               USD                                                                20151205                SCMM                                        00029576                   00039415  PLAT-COLON     20151106 
129576     O31A613914600029576201509290900100025006LS-5EJ9                      T/T BY 10TH OF NEXT MONTH                         BY T/T REMITTANCE ON THE 10TH OF THE NEXT MONTH                                                                                                                                     
129576     O31B113914600029576201509290900100025006LS-5EJ9                      PLAT-COLON                    41511617                      LS-5EJ9                       C/NO.                                                                                                                                       
129576     O31E113914600029576201509290900100025006LS-5EJ9                  0001EFDLV15D65LC                                      00025347CB00016080PC000000001165320000100020151106SEA.FZLC41511617                                                                                                                  
129576     O31E913914600029576201509290900100025006LS-5EJ9                  0001                20151205                                                                                                                                                                                                              
129576     O31E113914600029576201509290900100025006LS-5EJ9                  0002EFDLV15L27LC                                      00025347CB00008040PC000000001165320000100020151106SEA.FZLC41511617                                                                                                                  
129576     O31E913914600029576201509290900100025006LS-5EJ9                  0002                20151205                                                                                                                                                                                                              
129576     O31E113914600029576201509290900100025006LS-5EJ9                  0003EFDLV20L27LC                                      00025347CB00016440PC000000001404420000100020151106SEA.FZLC41511617                                                                                                                  
129576     O31E913914600029576201509290900100025006LS-5EJ9                  0003                20151205                                                                                                                                                                                                              
