129576     O31A113914600029576201506291300100025006KY-YSGJ                       210002500600029671                                 FT    Ugi / Mr Joko                 N F/GDS - TRI(OCEANIA        )  20150629        1N10002957620150725SEA.FAKL                                                               O606
129576     O31A213914600029576201506291300100025006KY-YSGJ                      FOB                               USD                                                                20150820                SCMM                                        00029576                   00029671  PNZ            20150725 
129576     O31A613914600029576201506291300100025006KY-YSGJ                      T/T BY 10TH OF NEXT MONTH                         BY T/T REMITTANCE ON THE 10TH OF THE NEXT MONTH                                                                                                                                     
129576     O31B113914600029576201506291300100025006KY-YSGJ                      PNZ                           KY-YSGJ                       AUCKLAND                      C/NO.                                                                                                                                       
129576     O31E113914600029576201506291300100025006KY-YSGJ                  0001EFDHV15D65BE        EFDHV15D65BE                  00025347CB00035520PC000000000123510000100020150725SEA.FAKLMNZ143107/P80411                                                                                                          
129576     O31E913914600029576201506291300100025006KY-YSGJ                  0001                20150820                                                                                                                                                                                                              
129576     O31E113914600029576201506291300100025006KY-YSGJ                  0002EFDHV15D65E         EFDHV15D65E                   00025347CB00011520PC000000000123510000100020150725SEA.FAKLMNZ143107/P80411                                                                                                          
129576     O31E913914600029576201506291300100025006KY-YSGJ                  0002                20150820                                                                                                                                                                                                              
129576     O31E113914600029576201506291300100025006KY-YSGJ                  0003EFDHV15L27BE        EFDHV15L27BE                  00025347CB00035520PC000000000123510000100020150725SEA.FAKLMNZ143107/P80411                                                                                                          
129576     O31E913914600029576201506291300100025006KY-YSGJ                  0003                20150820                                                                                                                                                                                                              
129576     O31E113914600029576201506291300100025006KY-YSGJ                  0004EFDHV15L27E         EFDHV15L27E                   00025347CB00024000PC000000000123510000100020150725SEA.FAKLMNZ143107/P80411                                                                                                          
129576     O31E913914600029576201506291300100025006KY-YSGJ                  0004                20150820                                                                                                                                                                                                              
129576     O31E113914600029576201506291300100025006KY-YSGJ                  0005EFDHV23D65BE        EFDHV23D65BE                  00025347CB00011520PC000000001533820000100020150725SEA.FAKLMNZ143107/P80411                                                                                                          
129576     O31E913914600029576201506291300100025006KY-YSGJ                  0005                20150820                                                                                                                                                                                                              
129576     O31E113914600029576201506291300100025006KY-YSGJ                  0006EFDHV23D65E         EFDHV23D65E                   00025347CB00035520PC000000001533820000100020150725SEA.FAKLMNZ143107/P80411                                                                                                          
129576     O31E913914600029576201506291300100025006KY-YSGJ                  0006                20150820                                                                                                                                                                                                              
129576     O31E113914600029576201506291300100025006KY-YSGJ                  0007EFDHV23L27BE        EFDHV23L27BE                  00025347CB00035520PC000000001533820000100020150725SEA.FAKLMNZ143107/P80411                                                                                                          
129576     O31E913914600029576201506291300100025006KY-YSGJ                  0007                20150820                                                                                                                                                                                                              
129576     O31E113914600029576201506291300100025006KY-YSGJ                  0008EFDHV23L27E         EFDHV23L27E                   00025347CB00011520PC000000001533820000100020150725SEA.FAKLMNZ143107/P80411                                                                                                          
129576     O31E913914600029576201506291300100025006KY-YSGJ                  0008                20150820                                                                                                                                                                                                              
