129576     O31A113914600029576201506270300100025006KY-YR3M                       210002500600029073                                 FT    Ugi / Mr Joko                 N F/GDS - TRI(ASIA           )  20150626        1N10002957620150705SEA.FSIN                                                               O112
129576     O31A213914600029576201506270300100025006KY-YR3M                      FOB                               USD                                                                20150711                                                            00029576                   00029073  PSP-DD         20150705 
129576     O31A613914600029576201506270300100025006KY-YR3M                      T/T BY 10TH OF NEXT MONTH                         BY T/T REMITTANCE ON THE 10TH OF THE NEXT MONTH                                                                                                                                     
129576     O31B113914600029576201506270300100025006KY-YR3M                      NO MARK                                                                                                                                                                                                                               
129576     O31E113914600029576201506270300100025006KY-YR3M                  0001FCL32EX-D/30        FCL32EX-D/30                  00025346CB00030000PC000000002302820000100020150705SEA.FSINMSP142996/DD5555-232976                                                                                                   
129576     O31E913914600029576201506270300100025006KY-YR3M                  0001                20150711                                                                                                                                                                                                              
129576     O31A113914600029576201506270300100025006KY-YR3N                       210002500600029073                                 FT    Ugi / Mr Joko                 N F/GDS - TRI(ASIA           )  20150626        1N10002957620150706SEA.FSIN                                                               O112
129576     O31A213914600029576201506270300100025006KY-YR3N                      FOB                               USD                                                                20150712                                                            00029576                   00029073  PSP-DD         20150706 
129576     O31A613914600029576201506270300100025006KY-YR3N                      T/T BY 10TH OF NEXT MONTH                         BY T/T REMITTANCE ON THE 10TH OF THE NEXT MONTH                                                                                                                                     
129576     O31B113914600029576201506270300100025006KY-YR3N                      NO MARK                                                                                                                                                                                                                               
129576     O31E113914600029576201506270300100025006KY-YR3N                  0001FCL22D+FCL32D       FCL22D+FCL32D                 00025346CB00110000PA000000002004920000100020150706SEA.FSINMSP142995/DD5555-232979                                                                                                   
129576     O31E913914600029576201506270300100025006KY-YR3N                  0001                20150712                                                                                                                                                                                                              
129576     O31E113914600029576201506270300100025006KY-YR3N                  0002FCL22EXD            FCL22EXD                      00025346CB00035000PC000000002038820000100020150706SEA.FSINMSP142995/DD5555-232979                                                                                                   
129576     O31E913914600029576201506270300100025006KY-YR3N                  0002                20150712                                                                                                                                                                                                              
129576     O31E113914600029576201506270300100025006KY-YR3N                  0003FCL40EX-D(I)        FCL40EX-D(I)                  00025346CB00019200PC000000003563720000100020150706SEA.FSINMSP142995/DD5555-232979                                                                                                   
129576     O31E913914600029576201506270300100025006KY-YR3N                  0003                20150712                                                                                                                                                                                                              
129576     O31A113914600029576201506270900100025006LS-YRE0                       210002500600039058        1509-35061-15-LIMA       FT    Ugi / Mr Joko                 N F/GDS - TRI(LATIN AMERICA  )  20150627        1N10002957620150725SEA.FCLL                                                               O407
129576     O31A213914600029576201506270900100025006LS-YRE0                      FOB                               USD                                                                2015090500039058        SCMM                                        00029576                   00039058  PANAPERU       20150725 
129576     O31A613914600029576201506270900100025006LS-YRE0                      T/T BY 10TH OF NEXT MONTH                         BY T/T REMITTANCE ON THE 10TH OF THE NEXT MONTH                                                                                                                                     
129576     O31B113914600029576201506270900100025006LS-YRE0                      PANAPERU                      91509035                      LS-YRE0                       C/NO.                                                                                                                                       
129576     O31E113914600029576201506270900100025006LS-YRE0                  0001EFDHV11D65L                                       00025347CB00037920PC000000001185220000100020150725SEA.FCLL91509035                                                                                                                  
129576     O31E913914600029576201506270900100025006LS-YRE0                  0001                2015090500039058                                                                                                                                                                                                      
129576     O31E113914600029576201506270900100025006LS-YRE0                  0002EFDHV11L27L                                       00025347CB00019920PC000000001185220000100020150725SEA.FCLL91509035                                                                                                                  
129576     O31E913914600029576201506270900100025006LS-YRE0                  0002                2015090500039058                                                                                                                                                                                                      
129576     O31E113914600029576201506270900100025006LS-YRE0                  0003EFDHV15D65L                                       00025347CB00034920PC000000001185220000100020150725SEA.FCLL91509035                                                                                                                  
129576     O31E913914600029576201506270900100025006LS-YRE0                  0003                2015090500039058                                                                                                                                                                                                      
129576     O31E113914600029576201506270900100025006LS-YRE0                  0004EFDHV15L27L                                       00025347CB00024960PC000000001185220000100020150725SEA.FCLL91509035                                                                                                                  
129576     O31E913914600029576201506270900100025006LS-YRE0                  0004                2015090500039058                                                                                                                                                                                                      
129576     O31E113914600029576201506270900100025006LS-YRE0                  0005EFDHV20D65L                                       00025347CB00085920PC000000001464120000100020150725SEA.FCLL91509035                                                                                                                  
129576     O31E913914600029576201506270900100025006LS-YRE0                  0005                2015090500039058                                                                                                                                                                                                      
129576     O31E113914600029576201506270900100025006LS-YRE0                  0006EFDHV20L27L                                       00025347CB00036000PC000000001464120000100020150725SEA.FCLL91509035                                                                                                                  
129576     O31E913914600029576201506270900100025006LS-YRE0                  0006                2015090500039058                                                                                                                                                                                                      
129576     O31E113914600029576201506270900100025006LS-YRE0                  0007EFDHV23D65L                                       00025347CB00090000PC000000001464120000100020150725SEA.FCLL91509035                                                                                                                  
129576     O31E913914600029576201506270900100025006LS-YRE0                  0007                2015090500039058                                                                                                                                                                                                      
129576     O31E113914600029576201506270900100025006LS-YRE0                  0008EFDHV23L27L                                       00025347CB00018000PC000000001464120000100020150725SEA.FCLL91509035                                                                                                                  
129576     O31E913914600029576201506270900100025006LS-YRE0                  0008                2015090500039058                                                                                                                                                                                                      
129576     O31E113914600029576201506270900100025006LS-YRE0                  0009EFDHV25D65L                                       00025347CB00060000PC000000001892420000100020150725SEA.FCLL91509035                                                                                                                  
129576     O31E913914600029576201506270900100025006LS-YRE0                  0009                2015090500039058                                                                                                                                                                                                      
129576     O31E113914600029576201506270900100025006LS-YRE0                  0010EFDHV25L27L                                       00025347CB00018960PC000000001892420000100020150725SEA.FCLL91509035                                                                                                                  
129576     O31E913914600029576201506270900100025006LS-YRE0                  0010                2015090500039058                                                                                                                                                                                                      
129576     O31E113914600029576201506270900100025006LS-YRE0                  0011EFDHV8D65L                                        00025347CB00019920PC000000001125520000100020150725SEA.FCLL91509035                                                                                                                  
129576     O31E913914600029576201506270900100025006LS-YRE0                  0011                2015090500039058                                                                                                                                                                                                      
129576     O31E113914600029576201506270900100025006LS-YRE0                  0012EFDHV8L27L                                        00025347CB00021000PC000000001125520000100020150725SEA.FCLL91509035                                                                                                                  
129576     O31E913914600029576201506270900100025006LS-YRE0                  0012                2015090500039058                                                                                                                                                                                                      
129576     O31E113914600029576201506270900100025006LS-YRE0                  0013EFUHV14L27L                                       00025347CB00006000PC000000001055820000100020150725SEA.FCLL91509035                                                                                                                  
129576     O31E913914600029576201506270900100025006LS-YRE0                  0013                2015090500039058                                                                                                                                                                                                      
129576     O31E113914600029576201506270900100025006LS-YRE0                  0014EFUHV8L27L                                        00025347CB00003000PC000000000976120000100020150725SEA.FCLL91509035                                                                                                                  
129576     O31E913914600029576201506270900100025006LS-YRE0                  0014                2015090500039058                                                                                                                                                                                                      
