129576     O31A113914600029576201505141600100025006KY-VEYP                       21000250062001182520011825                         FT    Ugi / Mr Joko                 N F/GDS - TRI(ASIA           )  20150514        1N10002957620150525SEA.FCMB                                                               O125
129576     O31A213914600029576201505141600100025006KY-VEYP                      FOB                               USD                                 SOFTLOGIC                      20150611                                                            00029576                   20011825  SOFTLOGIC      20150525 
129576     O31A613914600029576201505141600100025006KY-VEYP                      T/T BY 10TH OF NEXT MONTH                         BY T/T REMITTANCE ON THE 10TH OF THE NEXT MONTH                                                                                                                                     
129576     O31B113914600029576201505141600100025006KY-VEYP                      SOFTLOGIC                     C/NO.                                                                                                                                                                                                   
129576     O31E113914600029576201505141600100025006KY-VEYP                  0001EFUHV11D65A         EFUHV11D65A                   00025347CB00100000PC000000000966120000100020150525SEA.FCMBMGM140835/660-403264                                                                                                      
129576     O31E913914600029576201505141600100025006KY-VEYP                  0001                20150611                                                                                                                                                                                                              
129576     O31E113914600029576201505141600100025006KY-VEYP                  0002EFUHV11D65BA        EFUHV11D65BA                  00025347CB00200000PC000000000966120000100020150525SEA.FCMBMGM140835/660-403264                                                                                                      
129576     O31E913914600029576201505141600100025006KY-VEYP                  0002                20150611                                                                                                                                                                                                              
129576     O31E113914600029576201505141600100025006KY-VEYP                  0003EFUHV11L27A         EFUHV11L27A                   00025347CB00050000PC000000000966120000100020150525SEA.FCMBMGM140835/660-403264                                                                                                      
129576     O31E913914600029576201505141600100025006KY-VEYP                  0003                20150611                                                                                                                                                                                                              
129576     O31E113914600029576201505141600100025006KY-VEYP                  0004EFUHV11L27BA        EFUHV11L27BA                  00025347CB00050000PC000000000966120000100020150525SEA.FCMBMGM140835/660-403264                                                                                                      
129576     O31E913914600029576201505141600100025006KY-VEYP                  0004                20150611                                                                                                                                                                                                              
129576     O31E113914600029576201505141600100025006KY-VEYP                  0005EFUHV14D65A         EFUHV14D65A                   00025347CB00100000PC000000001045820000100020150525SEA.FCMBMGM140835/660-403264                                                                                                      
129576     O31E913914600029576201505141600100025006KY-VEYP                  0005                20150611                                                                                                                                                                                                              
129576     O31E113914600029576201505141600100025006KY-VEYP                  0006EFUHV14D65BA        EFUHV14D65BA                  00025347CB00200000PC000000001045820000100020150525SEA.FCMBMGM140835/660-403264                                                                                                      
129576     O31E913914600029576201505141600100025006KY-VEYP                  0006                20150611                                                                                                                                                                                                              
129576     O31E113914600029576201505141600100025006KY-VEYP                  0007EFUHV14L27A         EFUHV14L27A                   00025347CB00050000PC000000001045820000100020150525SEA.FCMBMGM140835/660-403264                                                                                                      
129576     O31E913914600029576201505141600100025006KY-VEYP                  0007                20150611                                                                                                                                                                                                              
129576     O31E113914600029576201505141600100025006KY-VEYP                  0008EFUHV14L27BA        EFUHV14L27BA                  00025347CB00050000PC000000001045820000100020150525SEA.FCMBMGM140835/660-403264                                                                                                      
129576     O31E913914600029576201505141600100025006KY-VEYP                  0008                20150611                                                                                                                                                                                                              
129576     O31E113914600029576201505141600100025006KY-VEYP                  0009EFUHV8D65A          EFUHV8D65A                    00025347CB00100000PC000000000966120000100020150525SEA.FCMBMGM140835/660-403264                                                                                                      
129576     O31E913914600029576201505141600100025006KY-VEYP                  0009                20150611                                                                                                                                                                                                              
129576     O31E113914600029576201505141600100025006KY-VEYP                  0010EFUHV8D65BA         EFUHV8D65BA                   00025347CB00150000PC000000000966120000100020150525SEA.FCMBMGM140835/660-403264                                                                                                      
129576     O31E913914600029576201505141600100025006KY-VEYP                  0010                20150611                                                                                                                                                                                                              
129576     O31E113914600029576201505141600100025006KY-VEYP                  0011EFUHV8L27A          EFUHV8L27A                    00025347CB00050000PC000000000966120000100020150525SEA.FCMBMGM140835/660-403264                                                                                                      
129576     O31E913914600029576201505141600100025006KY-VEYP                  0011                20150611                                                                                                                                                                                                              
129576     O31E113914600029576201505141600100025006KY-VEYP                  0012EFUHV8L27BA         EFUHV8L27BA                   00025347CB00050000PC000000000966120000100020150525SEA.FCMBMGM140835/660-403264                                                                                                      
129576     O31E913914600029576201505141600100025006KY-VEYP                  0012                20150611                                                                                                                                                                                                              
