129576     O31A113914600029576201505270301100025006KY-WBLL                       210002500600029073                                 FT    Ugi / Mr Joko                 N F/GDS - TRI(ASIA           )  20150526        1N10002957620150704SEA.FSIN                                                               O112
129576     O31A213914600029576201505270301100025006KY-WBLL                      FOB                               USD                                                                20150710                SCMM                                        00029576                   00029073  PSP-DD         20150704 
129576     O31A613914600029576201505270301100025006KY-WBLL                      T/T BY 10TH OF NEXT MONTH                         BY T/T REMITTANCE ON THE 10TH OF THE NEXT MONTH                                                                                                                                     
129576     O31B113914600029576201505270301100025006KY-WBLL                      NO MARK                                                                                                                                                                                                                               
129576     O31E113914600029576201505270301100025006KY-WBLL                  0001FL20SS.D/18G        FL20SS.D/18                   00025345CB00050000PC000000000403320000100020150704SEA.FSINMSP142423/DD5555-232878                                                                                                   
129576     O31E913914600029576201505270301100025006KY-WBLL                  0001                20150710                                                                                                                                                                                                              
129576     O31E113914600029576201505270301100025006KY-WBLL                  0002FL40SS.D/36G        FL40SS.D/36                   00025345CB00060000PC000000000461420000100020150704SEA.FSINMSP142423/DD5555-232878                                                                                                   
129576     O31E913914600029576201505270301100025006KY-WBLL                  0002                20150710                                                                                                                                                                                                              
