129576     O31A113914600029576201504211100100025006KY-TVD1                       210002500600039130                                 FT    Ugi / Mr Joko                 N F/GDS - TRI(ASIA           )  20150421        1N10002957620150518SEA.FLKG                                                               O111
129576     O31A213914600029576201504211100100025006KY-TVD1                      FOB                               USD                                                                20150602                                                            00029576                   00039130  PST            20150518 
129576     O31A613914600029576201504211100100025006KY-TVD1                      T/T BY 10TH OF NEXT MONTH                         BY T/T REMITTANCE ON THE 10TH OF THE NEXT MONTH                                                                                                                                     
129576     O31B113914600029576201504211100100025006KY-TVD1                      PST                           MST140827/LIGH-137220         KY-TVD1                       LAT KRABANG                   C/NO.                                                                                                         
129576     O31E113914600029576201504211100100025006KY-TVD1                  0001EFDHV20L27T         EFDHV20L27T                   00025347CB00043200PC000000001533820000100020150518SEA.FLKGMST140827/LIGH-137220                                                                                                     
129576     O31E913914600029576201504211100100025006KY-TVD1                  0001                20150602                                                                                                                                                                                                              
129576     O31E113914600029576201504211100100025006KY-TVD1                  0002EFDHV11D65T         EFDHV11D65T                   00025347CB00153600PC000000000123510000100020150518SEA.FLKGMST140827/LIGH-137220                                                                                                     
129576     O31E913914600029576201504211100100025006KY-TVD1                  0002                20150602                                                                                                                                                                                                              
129576     O31E113914600029576201504211100100025006KY-TVD1                  0003EFDHV15L27T         EFDHV15L27T                   00025347CB00048000PC000000000123510000100020150518SEA.FLKGMST140827/LIGH-137220                                                                                                     
129576     O31E913914600029576201504211100100025006KY-TVD1                  0003                20150602                                                                                                                                                                                                              
129576     O31E113914600029576201504211100100025006KY-TVD1                  0004EFDHV25D65T         EFDHV25D65T                   00025347CB00960000PC000000001533820000100020150518SEA.FLKGMST140827/LIGH-137220                                                                                                     
129576     O31E913914600029576201504211100100025006KY-TVD1                  0004                20150602                                                                                                                                                                                                              
129576     O31E113914600029576201504211100100025006KY-TVD1                  0005EFDHV5D65T          EFDHV5D65T                    00025347CB00043200PC000000001045820000100020150518SEA.FLKGMST140827/LIGH-137220                                                                                                     
129576     O31E913914600029576201504211100100025006KY-TVD1                  0005                20150602                                                                                                                                                                                                              
129576     O31A113914600029576201504211100100025006KY-TVEU                       210002500600039130                                 FT    Ugi / Mr Joko                 N F/GDS - TRI(ASIA           )  20150421        1N10002957620150519SEA.FLKG                                                               O111
129576     O31A213914600029576201504211100100025006KY-TVEU                      FOB                               USD                                                                20150603                                                            00029576                   00039130  PST            20150519 
129576     O31A613914600029576201504211100100025006KY-TVEU                      T/T BY 10TH OF NEXT MONTH                         BY T/T REMITTANCE ON THE 10TH OF THE NEXT MONTH                                                                                                                                     
129576     O31B113914600029576201504211100100025006KY-TVEU                      PST                           MST140828/LIGH-137219         KY-TVEU                       LAT KRABANG                   C/NO.                                                                                                         
129576     O31E113914600029576201504211100100025006KY-TVEU                  0001EFDHV11D65T         EFDHV11D65T                   00025347CB00153600PC000000000123510000100020150519SEA.FLKGMST140828/LIGH-137219                                                                                                     
129576     O31E913914600029576201504211100100025006KY-TVEU                  0001                20150603                                                                                                                                                                                                              
