129576     O31A113914600029576201506270300100025006KY-YR3N                       210002500600029073                                 FT    Ugi / Mr Joko                 N F/GDS - TRI(ASIA           )  20150626        1N10002957620150706SEA.FSIN                                                               O112
129576     O31A213914600029576201506270300100025006KY-YR3N                      FOB                               USD                                                                20150712                                                            00029576                   00029073  PSP-DD         20150706 
129576     O31A613914600029576201506270300100025006KY-YR3N                      T/T BY 10TH OF NEXT MONTH                         BY T/T REMITTANCE ON THE 10TH OF THE NEXT MONTH                                                                                                                                     
129576     O31B113914600029576201506270300100025006KY-YR3N                      NO MARK                                                                                                                                                                                                                               
129576     O31E113914600029576201506270300100025006KY-YR3N                  0001FCL22D+FCL32D       FCL22D+FCL32D                 00025346CB00110000PA000000002004920000100020150706SEA.FSINMSP142995/DD5555-232979                                                                                                   
129576     O31E913914600029576201506270300100025006KY-YR3N                  0001                20150712                                                                                                                                                                                                              
129576     O31E113914600029576201506270300100025006KY-YR3N                  0002FCL22EXD            FCL22EXD                      00025346CB00035000PC000000002038820000100020150706SEA.FSINMSP142995/DD5555-232979                                                                                                   
129576     O31E913914600029576201506270300100025006KY-YR3N                  0002                20150712                                                                                                                                                                                                              
129576     O31E113914600029576201506270300100025006KY-YR3N                  0003FCL40EX-D(I)        FCL40EX-D(I)                  00025346CB00019200PC000000003563720000100020150706SEA.FSINMSP142995/DD5555-232979                                                                                                   
129576     O31E913914600029576201506270300100025006KY-YR3N                  0003                20150712                                                                                                                                                                                                              
