129576     O31A113914600029576201507271600100025006KY-0SVR                       210002500600029671                                 FT    Ugi / Mr Joko                 N F/GDS - TRI(OCEANIA        )  20150727        1N10002957620150823SEA.FAKL                                                               O606
129576     O31A213914600029576201507271600100025006KY-0SVR                      FOB                               USD                                                                20150920                SCMM                                        00029576                   00029671  PNZ            20150823 
129576     O31A613914600029576201507271600100025006KY-0SVR                      T/T BY 10TH OF NEXT MONTH                         BY T/T REMITTANCE ON THE 10TH OF THE NEXT MONTH                                                                                                                                     
129576     O31B113914600029576201507271600100025006KY-0SVR                      PNZ                           KY-0SVR                       AUCKLAND                      C/NO.                                                                                                                                       
129576     O31E113914600029576201507271600100025006KY-0SVR                  0001EFDHV15D65BE        EFDHV15D65BE                  00025347CB00011520PC000000000123510000100020150823SEA.FAKLMNZ143988/P80738                                                                                                          
129576     O31E913914600029576201507271600100025006KY-0SVR                  0001                20150920                                                                                                                                                                                                              
129576     O31E113914600029576201507271600100025006KY-0SVR                  0002EFDHV15D65E         EFDHV15D65E                   00025347CB00011520PC000000000123510000100020150823SEA.FAKLMNZ143988/P80738                                                                                                          
129576     O31E913914600029576201507271600100025006KY-0SVR                  0002                20150920                                                                                                                                                                                                              
129576     O31E113914600029576201507271600100025006KY-0SVR                  0003EFDHV15L27BE        EFDHV15L27BE                  00025347CB00035520PC000000000123510000100020150823SEA.FAKLMNZ143988/P80738                                                                                                          
129576     O31E913914600029576201507271600100025006KY-0SVR                  0003                20150920                                                                                                                                                                                                              
129576     O31E113914600029576201507271600100025006KY-0SVR                  0004EFDHV15L27E         EFDHV15L27E                   00025347CB00024000PC000000000123510000100020150823SEA.FAKLMNZ143988/P80738                                                                                                          
129576     O31E913914600029576201507271600100025006KY-0SVR                  0004                20150920                                                                                                                                                                                                              
129576     O31E113914600029576201507271600100025006KY-0SVR                  0005EFDHV23D65BE        EFDHV23D65BE                  00025347CB00011520PC000000001533820000100020150823SEA.FAKLMNZ143988/P80738                                                                                                          
129576     O31E913914600029576201507271600100025006KY-0SVR                  0005                20150920                                                                                                                                                                                                              
129576     O31E113914600029576201507271600100025006KY-0SVR                  0006EFDHV23D65E         EFDHV23D65E                   00025347CB00024000PC000000001533820000100020150823SEA.FAKLMNZ143988/P80738                                                                                                          
129576     O31E913914600029576201507271600100025006KY-0SVR                  0006                20150920                                                                                                                                                                                                              
129576     O31E113914600029576201507271600100025006KY-0SVR                  0007EFDHV23L27BE        EFDHV23L27BE                  00025347CB00035520PC000000001533820000100020150823SEA.FAKLMNZ143988/P80738                                                                                                          
129576     O31E913914600029576201507271600100025006KY-0SVR                  0007                20150920                                                                                                                                                                                                              
129576     O31E113914600029576201507271600100025006KY-0SVR                  0008EFDHV23L27E         EFDHV23L27E                   00025347CB00024000PC000000001533820000100020150823SEA.FAKLMNZ143988/P80738                                                                                                          
129576     O31E913914600029576201507271600100025006KY-0SVR                  0008                20150920                                                                                                                                                                                                              
