129576     O31A113914600029576201505090300100025006LS-V1P7                       210002500600039051000390515000031314               FT    Ugi / Mr Joko                 N F/GDS - TRI(LATIN AMERICA  )  20150509        1N10002957620150521SEA.FMEX                                                               O305
129576     O31A213914600029576201505090300100025006LS-V1P7                      FOB                               USD                                 PANAMEX                        201506220003905100039051                                            00029576                   00039051  PANAMEX        20150521 
129576     O31A613914600029576201505090300100025006LS-V1P7                      T/T BY 10TH OF NEXT MONTH                         BY T/T REMITTANCE ON THE 10TH OF THE NEXT MONTH                                                                                                                                     
129576     O31B113914600029576201505090300100025006LS-V1P7                      PANAMEX                       91505363                      LS-V1P7                       C/NO.                                                                                                                                       
129576     O31E113914600029576201505090300100025006LS-V1P7                  0001EFDLV11D65L                                       00025347CB00003000PC000000001115520000100020150521SEA.FMEX91505363                                                                                                                  
129576     O31E913914600029576201505090300100025006LS-V1P7                  0001                2015062200039051                                                                                                                                                                                                      
129576     O31E113914600029576201505090300100025006LS-V1P7                  0002EFDLV15D65L                                       00025347CB00006720PC000000001115520000100020150521SEA.FMEX91505363                                                                                                                  
129576     O31E913914600029576201505090300100025006LS-V1P7                  0002                2015062200039051                                                                                                                                                                                                      
129576     O31E113914600029576201505090300100025006LS-V1P7                  0003EFDLV15L27L                                       00025347CB00001920PC000000001115520000100020150521SEA.FMEX91505363                                                                                                                  
129576     O31E913914600029576201505090300100025006LS-V1P7                  0003                2015062200039051                                                                                                                                                                                                      
129576     O31E113914600029576201505090300100025006LS-V1P7                  0004EFDLV20L27L                                       00025347CB00004680PC000000001264920000100020150521SEA.FMEX91505363                                                                                                                  
129576     O31E913914600029576201505090300100025006LS-V1P7                  0004                2015062200039051                                                                                                                                                                                                      
129576     O31E113914600029576201505090300100025006LS-V1P7                  0005EFDLV23D65L                                       00025347CB00019440PC000000001563720000100020150521SEA.FMEX91505363                                                                                                                  
129576     O31E913914600029576201505090300100025006LS-V1P7                  0005                2015062200039051                                                                                                                                                                                                      
129576     O31E113914600029576201505090300100025006LS-V1P7                  0006EFDLV23L27L                                       00025347CB00003360PC000000001563720000100020150521SEA.FMEX91505363                                                                                                                  
129576     O31E913914600029576201505090300100025006LS-V1P7                  0006                2015062200039051                                                                                                                                                                                                      
129576     O31E113914600029576201505090300100025006LS-V1P7                  0007EFDLV25D65L                                       00025347CB00019200PC000000001563720000100020150521SEA.FMEX91505363                                                                                                                  
129576     O31E913914600029576201505090300100025006LS-V1P7                  0007                2015062200039051                                                                                                                                                                                                      
