129576     O31A113914600029576201510270301100025006KY-7GB4                       210002500600039130                                 FT    Ugi / Mr Joko                 N F/GDS - TRI(ASIA           )  20151026        1N10002957620151125SEA.FLKG                                                               O111
129576     O31A213914600029576201510270301100025006KY-7GB4                      FOB                               USD                                                                20151210                SCMM                                        00029576                   00039130  PST            20151125 
129576     O31A613914600029576201510270301100025006KY-7GB4                      T/T BY 10TH OF NEXT MONTH                         BY T/T REMITTANCE ON THE 10TH OF THE NEXT MONTH                                                                                                                                     
129576     O31B113914600029576201510270301100025006KY-7GB4                      PST                           MST147214/LIGH-139295         KY-7GB4                       LAT KRABANG                   C/NO.                                                                                                         
129576     O31E113914600029576201510270301100025006KY-7GB4                  0001EFDHV23D65T         EFDHV23D65T                   00025347CB00036480PC000000001533820000100020151125SEA.FLKGMST147214/LIGH-139295                                                                                                     
129576     O31E913914600029576201510270301100025006KY-7GB4                  0001                20151210                                                                                                                                                                                                              
129576     O31E113914600029576201510270301100025006KY-7GB4                  0002EFDHV32D65A         EFDHV32D65A                   00025347CB00027360PC000000000274710000100020151125SEA.FLKGMST147214/LIGH-139295                                                                                                     
129576     O31E913914600029576201510270301100025006KY-7GB4                  0002                20151210                                                                                                                                                                                                              
129576     O31E113914600029576201510270301100025006KY-7GB4                  0003EFDHV42D65A         EFDHV42D65A                   00025347CB00116640PC000000003041320000100020151125SEA.FLKGMST147214/LIGH-139295                                                                                                     
129576     O31E913914600029576201510270301100025006KY-7GB4                  0003                20151210                                                                                                                                                                                                              
129576     O31E113914600029576201510270301100025006KY-7GB4                  0004EFU14E272V          EFU14E272V                    00025347CB00050000PC000000001320320000100020151125SEA.FLKGMST147214/LIGH-139295                                                                                                     
129576     O31E913914600029576201510270301100025006KY-7GB4                  0004                20151210                                                                                                                                                                                                              
129576     O31E113914600029576201510270301100025006KY-7GB4                  0005EFU8E652V           EFU8E652V                     00025347CB00100000PC000000001207920000100020151125SEA.FLKGMST147214/LIGH-139295                                                                                                     
129576     O31E913914600029576201510270301100025006KY-7GB4                  0005                20151210                                                                                                                                                                                                              
129576     O31E113914600029576201510270301100025006KY-7GB4                  0006EFUHV23L27A         EFUHV23L27A                   00025347CB00060000PC000000001424320000100020151125SEA.FLKGMST147214/LIGH-139295                                                                                                     
129576     O31E913914600029576201510270301100025006KY-7GB4                  0006                20151210                                                                                                                                                                                                              
