129576     O31A113914600029576201507281300100025006KY-0WCJ                       210002500600039140                                 FT    Ugi / Mr Joko                 N F/GDS - TRI(ASIA           )  20150728        1N10002957620150825SEA.FPKL                                                               O113
129576     O31A213914600029576201507281300100025006KY-0WCJ                      FOB                               USD                                                                20150910                SCMM                                        00029576                   00039140  PM             20150825 
129576     O31A613914600029576201507281300100025006KY-0WCJ                      T/T BY 10TH OF NEXT MONTH                         BY T/T REMITTANCE ON THE 10TH OF THE NEXT MONTH                                                                                                                                     
129576     O31B113914600029576201507281300100025006KY-0WCJ                      PM                            MMQ144275/EL1507001           KY-0WCJ                       C/NO.                                                                                                                                       
129576     O31E113914600029576201507281300100025006KY-0WCJ                  0001EFDHV11D65A                                       00025347CB00038400PC000000000123510000100020150825SEA.FPKLMMQ144275/EL1507001                                                                                                       
129576     O31E913914600029576201507281300100025006KY-0WCJ                  0001                20150910                                                                                                                                                                                                              
129576     O31E113914600029576201507281300100025006KY-0WCJ                  0002EFDHV11L27A                                       00025347CB00008640PC000000000123510000100020150825SEA.FPKLMMQ144275/EL1507001                                                                                                       
129576     O31E913914600029576201507281300100025006KY-0WCJ                  0002                20150910                                                                                                                                                                                                              
129576     O31E113914600029576201507281300100025006KY-0WCJ                  0003EFDHV15D65A                                       00025347CB00042240PC000000000123510000100020150825SEA.FPKLMMQ144275/EL1507001                                                                                                       
129576     O31E913914600029576201507281300100025006KY-0WCJ                  0003                20150910                                                                                                                                                                                                              
129576     O31E113914600029576201507281300100025006KY-0WCJ                  0004EFDHV20D65A                                       00025347CB00082560PC000000001533820000100020150825SEA.FPKLMMQ144275/EL1507001                                                                                                       
129576     O31E913914600029576201507281300100025006KY-0WCJ                  0004                20150910                                                                                                                                                                                                              
129576     O31E113914600029576201507281300100025006KY-0WCJ                  0005EFDHV20L27A                                       00025347CB00004800PC000000001533820000100020150825SEA.FPKLMMQ144275/EL1507001                                                                                                       
129576     O31E913914600029576201507281300100025006KY-0WCJ                  0005                20150910                                                                                                                                                                                                              
129576     O31E113914600029576201507281300100025006KY-0WCJ                  0006EFDHV23D65A                                       00025347CB00045120PC000000001533820000100020150825SEA.FPKLMMQ144275/EL1507001                                                                                                       
129576     O31E913914600029576201507281300100025006KY-0WCJ                  0006                20150910                                                                                                                                                                                                              
129576     O31E113914600029576201507281300100025006KY-0WCJ                  0007EFDHV25D65A                                       00025347CB00550080PC000000001533820000100020150825SEA.FPKLMMQ144275/EL1507001                                                                                                       
129576     O31E913914600029576201507281300100025006KY-0WCJ                  0007                20150910                                                                                                                                                                                                              
129576     O31E113914600029576201507281300100025006KY-0WCJ                  0008EFDHV25L27A                                       00025347CB00047040PC000000001533820000100020150825SEA.FPKLMMQ144275/EL1507001                                                                                                       
129576     O31E913914600029576201507281300100025006KY-0WCJ                  0008                20150910                                                                                                                                                                                                              
129576     O31E113914600029576201507281300100025006KY-0WCJ                  0009EFDHV5D65A                                        00025347CB00003840PC000000001045820000100020150825SEA.FPKLMMQ144275/EL1507001                                                                                                       
129576     O31E913914600029576201507281300100025006KY-0WCJ                  0009                20150910                                                                                                                                                                                                              
129576     O31E113914600029576201507281300100025006KY-0WCJ                  0010EFDHV5L27A                                        00025347CB00004800PC000000001045820000100020150825SEA.FPKLMMQ144275/EL1507001                                                                                                       
129576     O31E913914600029576201507281300100025006KY-0WCJ                  0010                20150910                                                                                                                                                                                                              
129576     O31E113914600029576201507281300100025006KY-0WCJ                  0011EFDHV8D65A                                        00025347CB00036480PC000000001045820000100020150825SEA.FPKLMMQ144275/EL1507001                                                                                                       
129576     O31E913914600029576201507281300100025006KY-0WCJ                  0011                20150910                                                                                                                                                                                                              
129576     O31E113914600029576201507281300100025006KY-0WCJ                  0012EFU18E272V                                        00025347CB00050000PC000000001355920000100020150825SEA.FPKLMMQ144275/EL1507001                                                                                                       
129576     O31E913914600029576201507281300100025006KY-0WCJ                  0012                20150910                                                                                                                                                                                                              
129576     O31E113914600029576201507281300100025006KY-0WCJ                  0013EFU18E652V                                        00025347CB00600000PC000000001355920000100020150825SEA.FPKLMMQ144275/EL1507001                                                                                                       
129576     O31E913914600029576201507281300100025006KY-0WCJ                  0013                20150910                                                                                                                                                                                                              
