129576     O31A113914600029576201512020300100025006KY-A4BJ                       210002500600029073                                 FT    Ugi / Mr Joko                 N F/GDS - TRI(ASIA           )  20151201        1N10002957620151225SEA.FSIN                                                               O112
129576     O31A213914600029576201512020300100025006KY-A4BJ                      FOB                               USD                                                                20160110                SCMM                                        00029576                   00029073  PSP-DD         20151225 
129576     O31A613914600029576201512020300100025006KY-A4BJ                      T/T BY 10TH OF NEXT MONTH                         BY T/T REMITTANCE ON THE 10TH OF THE NEXT MONTH                                                                                                                                     
129576     O31B113914600029576201512020300100025006KY-A4BJ                      PSP-DD                        MSP148468/DD5555-234054       KY-A4BJ                       C/NO.                                                                                                                                       
129576     O31E113914600029576201512020300100025006KY-A4BJ                  0001EFDHV15D65A         EFDHV15D65A                   00025347CB00006720PC000000000123510000100020151225SEA.FSINMSP148468/DD5555-234054                                                                                                   
129576     O31E913914600029576201512020300100025006KY-A4BJ                  0001                20160110                                                                                                                                                                                                              
129576     O31E113914600029576201512020300100025006KY-A4BJ                  0002EFDHV25D65A         EFDHV25D65A                   00025347CB00000960PC000000001533820000100020151225SEA.FSINMSP148468/DD5555-234054                                                                                                   
129576     O31E913914600029576201512020300100025006KY-A4BJ                  0002                20160110                                                                                                                                                                                                              
129576     O31A113914600029576201512020300100025006KY-A4D5                       210002500600029073                                 FT    Ugi / Mr Joko                 N F/GDS - TRI(ASIA           )  20151201        1N10002957620160104SEA.FSIN                                                               O112
129576     O31A213914600029576201512020300100025006KY-A4D5                      FOB                               USD                                                                20160110                SCMM                                        00029576                   00029073  PSP-DD         20160104 
129576     O31A613914600029576201512020300100025006KY-A4D5                      T/T BY 10TH OF NEXT MONTH                         BY T/T REMITTANCE ON THE 10TH OF THE NEXT MONTH                                                                                                                                     
129576     O31B113914600029576201512020300100025006KY-A4D5                      NO MARK                                                                                                                                                                                                                               
129576     O31E113914600029576201512020300100025006KY-A4D5                  0001FCL32EX-D/30        FCL32EX-D/30                  00025346CB00075000PC000000002302820000100020160104SEA.FSINMSP148488/DD5555-234053                                                                                                   
129576     O31E913914600029576201512020300100025006KY-A4D5                  0001                20160110                                                                                                                                                                                                              
