129576     O31A113914600029576201510280301100025006KY-7KB2                       210002500600029073                                 FT    Ugi / Mr Joko                 N F/GDS - TRI(ASIA           )  20151027        1N10002957620151204SEA.FSIN                                                               O112
129576     O31A213914600029576201510280301100025006KY-7KB2                      FOB                               USD                                                                20151210                SCMM                                        00029576                   00029073  PSP-DD         20151204 
129576     O31A613914600029576201510280301100025006KY-7KB2                      T/T BY 10TH OF NEXT MONTH                         BY T/T REMITTANCE ON THE 10TH OF THE NEXT MONTH                                                                                                                                     
129576     O31B113914600029576201510280301100025006KY-7KB2                      NO MARK                                                                                                                                                                                                                               
129576     O31E113914600029576201510280301100025006KY-7KB2                  0001FCL32EX-D/30        FCL32EX-D/30                  00025346CB00020000PC000000002302820000100020151204SEA.FSINMSP147489/DD5555-233878                                                                                                   
129576     O31E913914600029576201510280301100025006KY-7KB2                  0001                20151210                                                                                                                                                                                                              
129576     O31A113914600029576201510280301100025006KY-7K9J                       210002500600029073                                 FT    Ugi / Mr Joko                 N F/GDS - TRI(ASIA           )  20151027        1N10002957620151124SEA.FSIN                                                               O112
129576     O31A213914600029576201510280301100025006KY-7K9J                      FOB                               USD                                                                20151210                SCMM                                        00029576                   00029073  PSP-DD         20151124 
129576     O31A613914600029576201510280301100025006KY-7K9J                      T/T BY 10TH OF NEXT MONTH                         BY T/T REMITTANCE ON THE 10TH OF THE NEXT MONTH                                                                                                                                     
129576     O31B113914600029576201510280301100025006KY-7K9J                      PSP-DD                        MSP147458/DD5555-233863       KY-7K9J                       C/NO.                                                                                                                                       
129576     O31E113914600029576201510280301100025006KY-7K9J                  0001EFDHV11D65A         EFDHV11D65A                   00025347CB00003840PC000000000123510000100020151124SEA.FSINMSP147458/DD5555-233863                                                                                                   
129576     O31E913914600029576201510280301100025006KY-7K9J                  0001                20151210                                                                                                                                                                                                              
129576     O31E113914600029576201510280301100025006KY-7K9J                  0002EFDHV15D65A         EFDHV15D65A                   00025347CB00002880PC000000000123510000100020151124SEA.FSINMSP147458/DD5555-233863                                                                                                   
129576     O31E913914600029576201510280301100025006KY-7K9J                  0002                20151210                                                                                                                                                                                                              
129576     O31E113914600029576201510280301100025006KY-7K9J                  0003EFDHV25D65A         EFDHV25D65A                   00025347CB00010560PC000000001533820000100020151124SEA.FSINMSP147458/DD5555-233863                                                                                                   
129576     O31E913914600029576201510280301100025006KY-7K9J                  0003                20151210                                                                                                                                                                                                              
129576     O31A113914600029576201510280301100025006KY-7KA1                       210002500600029073                                 FT    Ugi / Mr Joko                 N F/GDS - TRI(ASIA           )  20151027        1N10002957620151204SEA.FSIN                                                               O112
129576     O31A213914600029576201510280301100025006KY-7KA1                      FOB                               USD                                                                20151210                SCMM                                        00029576                   00029073  PSP-DD         20151204 
129576     O31A613914600029576201510280301100025006KY-7KA1                      T/T BY 10TH OF NEXT MONTH                         BY T/T REMITTANCE ON THE 10TH OF THE NEXT MONTH                                                                                                                                     
129576     O31B113914600029576201510280301100025006KY-7KA1                      NO MARK                                                                                                                                                                                                                               
129576     O31E113914600029576201510280301100025006KY-7KA1                  0001FCL22D+FCL32D       FCL22D+FCL32D                 00025346CB00040000PA000000002004920000100020151204SEA.FSINMSP147522/DD5555-233879                                                                                                   
129576     O31E913914600029576201510280301100025006KY-7KA1                  0001                20151210                                                                                                                                                                                                              
129576     O31E113914600029576201510280301100025006KY-7KA1                  0002FCL22EXD            FCL22EXD                      00025346CB00012000PC000000002038820000100020151204SEA.FSINMSP147522/DD5555-233879                                                                                                   
129576     O31E913914600029576201510280301100025006KY-7KA1                  0002                20151210                                                                                                                                                                                                              
129576     O31E113914600029576201510280301100025006KY-7KA1                  0003FCL40EX-D(I)        FCL40EX-D(I)                  00025346CB00012000PC000000003563720000100020151204SEA.FSINMSP147522/DD5555-233879                                                                                                   
129576     O31E913914600029576201510280301100025006KY-7KA1                  0003                20151210                                                                                                                                                                                                              
129576     O31A113914600029576201510280301100025006KY-7KA4                       210002500600029073                                 FT    Ugi / Mr Joko                 N F/GDS - TRI(ASIA           )  20151027        1N10002957620151204SEA.FSIN                                                               O112
129576     O31A213914600029576201510280301100025006KY-7KA4                      FOB                               USD                                                                20151210                SCMM                                        00029576                   00029073  PSP-DD         20151204 
129576     O31A613914600029576201510280301100025006KY-7KA4                      T/T BY 10TH OF NEXT MONTH                         BY T/T REMITTANCE ON THE 10TH OF THE NEXT MONTH                                                                                                                                     
129576     O31B113914600029576201510280301100025006KY-7KA4                      NO MARK                                                                                                                                                                                                                               
129576     O31E113914600029576201510280301100025006KY-7KA4                  0001FL20SS.D/18G        FL20SS.D/18                   00025345CB00060000PC000000000403320000100020151204SEA.FSINMSP147533/DD5555-233877                                                                                                   
129576     O31E913914600029576201510280301100025006KY-7KA4                  0001                20151210                                                                                                                                                                                                              
129576     O31E113914600029576201510280301100025006KY-7KA4                  0002FL40SS.D/36G        FL40SS.D/36                   00025345CB00100000PC000000000461420000100020151204SEA.FSINMSP147533/DD5555-233877                                                                                                   
129576     O31E913914600029576201510280301100025006KY-7KA4                  0002                20151210                                                                                                                                                                                                              
129576     O31A113914600029576201510280301100025006KY-7KBR                       210002500600029073                                 FT    Ugi / Mr Joko                 N F/GDS - TRI(ASIA           )  20151027        1N10002957620151124SEA.FSIN                                                               O112
129576     O31A213914600029576201510280301100025006KY-7KBR                      FOB                               USD                                                                20151210                SCMM                                        00029576                   00029073  PSP-DD         20151124 
129576     O31A613914600029576201510280301100025006KY-7KBR                      T/T BY 10TH OF NEXT MONTH                         BY T/T REMITTANCE ON THE 10TH OF THE NEXT MONTH                                                                                                                                     
129576     O31B113914600029576201510280301100025006KY-7KBR                      PSP-DD                        MSP147457/DD5555-233862       KY-7KBR                       C/NO.                                                                                                                                       
129576     O31E113914600029576201510280301100025006KY-7KBR                  0001EFU18E652V          EFU18E652V                    00025347CB00002000PC000000001367620000100020151124SEA.FSINMSP147457/DD5555-233862                                                                                                   
129576     O31E913914600029576201510280301100025006KY-7KBR                  0001                20151210                                                                                                                                                                                                              
129576     O31E113914600029576201510280301100025006KY-7KBR                  0002EFU8E652V           EFU8E652V                     00025347CB00002000PC000000001171420000100020151124SEA.FSINMSP147457/DD5555-233862                                                                                                   
129576     O31E913914600029576201510280301100025006KY-7KBR                  0002                20151210                                                                                                                                                                                                              
