129576     O31A113914600029576201504280900100025006KY-UEFT                       210002500600029671                                 FT    Ugi / Mr Joko                 N F/GDS - TRI(OCEANIA        )  20150428        1N10002957620150524SEA.FAKL                                                               O606
129576     O31A213914600029576201504280900100025006KY-UEFT                      FOB                               USD                                                                20150620                SCMM                                        00029576                   00029671  PNZ            20150524 
129576     O31A613914600029576201504280900100025006KY-UEFT                      T/T BY 10TH OF NEXT MONTH                         BY T/T REMITTANCE ON THE 10TH OF THE NEXT MONTH                                                                                                                                     
129576     O31B113914600029576201504280900100025006KY-UEFT                      PNZ                           KY-UEFT                       AUCKLAND                      C/NO.                                                                                                                                       
129576     O31E113914600029576201504280900100025006KY-UEFT                  0001EFDHV15D65BE        EFDHV15D65BE                  00025347CB00024000PC000000000123510000100020150524SEA.FAKLMNZ141258/P79764                                                                                                          
129576     O31E913914600029576201504280900100025006KY-UEFT                  0001                20150620                                                                                                                                                                                                              
129576     O31E113914600029576201504280900100025006KY-UEFT                  0002EFDHV15D65E         EFDHV15D65E                   00025347CB00035520PC000000000123510000100020150524SEA.FAKLMNZ141258/P79764                                                                                                          
129576     O31E913914600029576201504280900100025006KY-UEFT                  0002                20150620                                                                                                                                                                                                              
129576     O31E113914600029576201504280900100025006KY-UEFT                  0003EFDHV15L27BE        EFDHV15L27BE                  00025347CB00024000PC000000000123510000100020150524SEA.FAKLMNZ141258/P79764                                                                                                          
129576     O31E913914600029576201504280900100025006KY-UEFT                  0003                20150620                                                                                                                                                                                                              
129576     O31E113914600029576201504280900100025006KY-UEFT                  0004EFDHV15L27E         EFDHV15L27E                   00025347CB00035520PC000000000123510000100020150524SEA.FAKLMNZ141258/P79764                                                                                                          
129576     O31E913914600029576201504280900100025006KY-UEFT                  0004                20150620                                                                                                                                                                                                              
129576     O31E113914600029576201504280900100025006KY-UEFT                  0005EFDHV23D65BE        EFDHV23D65BE                  00025347CB00059520PC000000001533820000100020150524SEA.FAKLMNZ141258/P79764                                                                                                          
129576     O31E913914600029576201504280900100025006KY-UEFT                  0005                20150620                                                                                                                                                                                                              
129576     O31E113914600029576201504280900100025006KY-UEFT                  0006EFDHV23D65E         EFDHV23D65E                   00025347CB00035520PC000000001533820000100020150524SEA.FAKLMNZ141258/P79764                                                                                                          
129576     O31E913914600029576201504280900100025006KY-UEFT                  0006                20150620                                                                                                                                                                                                              
129576     O31E113914600029576201504280900100025006KY-UEFT                  0007EFDHV23L27BE        EFDHV23L27BE                  00025347CB00035520PC000000001533820000100020150524SEA.FAKLMNZ141258/P79764                                                                                                          
129576     O31E913914600029576201504280900100025006KY-UEFT                  0007                20150620                                                                                                                                                                                                              
129576     O31E113914600029576201504280900100025006KY-UEFT                  0008EFDHV23L27E         EFDHV23L27E                   00025347CB00024000PC000000001533820000100020150524SEA.FAKLMNZ141258/P79764                                                                                                          
129576     O31E913914600029576201504280900100025006KY-UEFT                  0008                20150620                                                                                                                                                                                                              
