129576     O31A113914600029576201510071600100025006KY-6145                       21000250062062061620620616                         FT    Ugi / Mr Joko                 N F/GDS - TRI(ASIA           )  20151007        1N10002957620151112SEA.FSIN                                                               O112
129576     O31A213914600029576201510071600100025006KY-6145                      FOB                               USD                                 BLS                            20151210                                                            00029576                   20620616  BLS            20151112 
129576     O31A613914600029576201510071600100025006KY-6145                      T/T BY 10TH OF NEXT MONTH                         BY T/T REMITTANCE ON THE 10TH OF THE NEXT MONTH                                                                                                                                     
129576     O31B113914600029576201510071600100025006KY-6145                      BLS                           C/NO.                                                                                                                                                                                                   
129576     O31E113914600029576201510071600100025006KY-6145                  0001EFD19E65HD3A        EFD19E65HD3A                  00390770CB00024000PC000000001336220000100020151112SEA.FSINMGM146657/660-403839                                                                                                      
129576     O31E913914600029576201510071600100025006KY-6145                  0001                20151210                                                                                                                                                                                                              
129576     O31E113914600029576201510071600100025006KY-6145                  0002EFD11E65HD3A2       EFD11E65HD3A2                 00390770CB00024000PC000000001120520000100020151112SEA.FSINMGM146657/660-403839                                                                                                      
129576     O31E913914600029576201510071600100025006KY-6145                  0002                20151210                                                                                                                                                                                                              
129576     O31E113914600029576201510071600100025006KY-6145                  0003EFD14E65HD3A2       EFD14E65HD3A2                 00390770CB00024000PC000000001095620000100020151112SEA.FSINMGM146657/660-403839                                                                                                      
129576     O31E913914600029576201510071600100025006KY-6145                  0003                20151210                                                                                                                                                                                                              
129576     O31E113914600029576201510071600100025006KY-6145                  0004EFD25E65HD3A2       EFD25E65HD3A2                 00390770CB00048000PC000000001398420000100020151112SEA.FSINMGM146657/660-403839                                                                                                      
129576     O31E913914600029576201510071600100025006KY-6145                  0004                20151210                                                                                                                                                                                                              
129576     O31E113914600029576201510071600100025006KY-6145                  0005EFD8E65HD3A2        EFD8E65HD3A2                  00390770CB00048000PC000000000991120000100020151112SEA.FSINMGM146657/660-403839                                                                                                      
129576     O31E913914600029576201510071600100025006KY-6145                  0005                20151210                                                                                                                                                                                                              
