129576     O31A113914600029576201504101600100025006KY-T5PG                       21000250062062061620620616                         FT    Ugi / Mr Joko                 N F/GDS - TRI(ASIA           )  20150410        1N10002957620150524SEA.FSIN                                                               O112
129576     O31A213914600029576201504101600100025006KY-T5PG                      FOB                               USD                                 BLS                            20150610                                                            00029576                   20620616  BLS            20150524 
129576     O31A613914600029576201504101600100025006KY-T5PG                      T/T BY 10TH OF NEXT MONTH                         BY T/T REMITTANCE ON THE 10TH OF THE NEXT MONTH                                                                                                                                     
129576     O31B113914600029576201504101600100025006KY-T5PG                      BLS                           C/NO.                                                                                                                                                                                                   
129576     O31E113914600029576201504101600100025006KY-T5PG                  0001EFDHV25D65A         EFDHV25D65A                   00025347CB00059520PC000000001553820000100020150524SEA.FSINMGM140609/660-403214                                                                                                      
129576     O31E913914600029576201504101600100025006KY-T5PG                  0001                20150610                                                                                                                                                                                                              
129576     O31E113914600029576201504101600100025006KY-T5PG                  0002EFDHV15D65A         EFDHV15D65A                   00025347CB00072000PC000000000125510000100020150524SEA.FSINMGM140609/660-403214                                                                                                      
129576     O31E913914600029576201504101600100025006KY-T5PG                  0002                20150610                                                                                                                                                                                                              
129576     O31E113914600029576201504101600100025006KY-T5PG                  0003EFDHV20D65A         EFDHV20D65A                   00025347CB00038400PC000000001553820000100020150524SEA.FSINMGM140609/660-403214                                                                                                      
129576     O31E913914600029576201504101600100025006KY-T5PG                  0003                20150610                                                                                                                                                                                                              
129576     O31E113914600029576201504101600100025006KY-T5PG                  0004EFDHV5D65A          EFDHV5D65A                    00025347CB00024000PC000000001075720000100020150524SEA.FSINMGM140609/660-403214                                                                                                      
129576     O31E913914600029576201504101600100025006KY-T5PG                  0004                20150610                                                                                                                                                                                                              
129576     O31E113914600029576201504101600100025006KY-T5PG                  0005EFDHV5L27A          EFDHV5L27A                    00025347CB00024000PC000000001075720000100020150524SEA.FSINMGM140609/660-403214                                                                                                      
129576     O31E913914600029576201504101600100025006KY-T5PG                  0005                20150610                                                                                                                                                                                                              
129576     O31E113914600029576201504101600100025006KY-T5PG                  0006EFDHV8L27A          EFDHV8L27A                    00025347CB00012000PC000000001075720000100020150524SEA.FSINMGM140609/660-403214                                                                                                      
129576     O31E913914600029576201504101600100025006KY-T5PG                  0006                20150610                                                                                                                                                                                                              
129576     O31A113914600029576201504101600100025006KY-T5P9                       21000250062062061620620616                         FT    Ugi / Mr Joko                 N F/GDS - TRI(ASIA           )  20150410        1N10002957620150423SEA.FSIN                                                               O112
129576     O31A213914600029576201504101600100025006KY-T5P9                      FOB                               USD                                 BLS                            20150510                                                            00029576                   20620616  BLS            20150423 
129576     O31A613914600029576201504101600100025006KY-T5P9                      T/T BY 10TH OF NEXT MONTH                         BY T/T REMITTANCE ON THE 10TH OF THE NEXT MONTH                                                                                                                                     
129576     O31B113914600029576201504101600100025006KY-T5P9                      BLS                           C/NO.                                                                                                                                                                                                   
129576     O31E113914600029576201504101600100025006KY-T5P9                  0001EFDHV25D65BA        EFDHV25D65BA                  00025347CB00096000PC000000001553820000100020150423SEA.FSINMGM140611/660-403213                                                                                                      
129576     O31E913914600029576201504101600100025006KY-T5P9                  0001                20150510                                                                                                                                                                                                              
129576     O31E113914600029576201504101600100025006KY-T5P9                  0002EFDHV5D65BA         EFDHV5D65BA                   00025347CB00059520PC000000001075720000100020150423SEA.FSINMGM140611/660-403213                                                                                                      
129576     O31E913914600029576201504101600100025006KY-T5P9                  0002                20150510                                                                                                                                                                                                              
129576     O31E113914600029576201504101600100025006KY-T5P9                  0003EFDHV8D65BA         EFDHV8D65BA                   00025347CB00024000PC000000001075720000100020150423SEA.FSINMGM140611/660-403213                                                                                                      
129576     O31E913914600029576201504101600100025006KY-T5P9                  0003                20150510                                                                                                                                                                                                              
129576     O31E113914600029576201504101600100025006KY-T5P9                  0004EFDHV20D65BA        EFDHV20D65BA                  00025347CB00072000PC000000001553820000100020150423SEA.FSINMGM140611/660-403213                                                                                                      
129576     O31E913914600029576201504101600100025006KY-T5P9                  0004                20150510                                                                                                                                                                                                              
129576     O31E113914600029576201504101600100025006KY-T5P9                  0005EFDHV11D65BA        EFDHV11D65BA                  00025347CB00048000PC000000000125510000100020150423SEA.FSINMGM140611/660-403213                                                                                                      
129576     O31E913914600029576201504101600100025006KY-T5P9                  0005                20150510                                                                                                                                                                                                              
129576     O31E113914600029576201504101600100025006KY-T5P9                  0006EFDHV15D65BA        EFDHV15D65BA                  00025347CB00059520PC000000000125510000100020150423SEA.FSINMGM140611/660-403213                                                                                                      
129576     O31E913914600029576201504101600100025006KY-T5P9                  0006                20150510                                                                                                                                                                                                              
129576     O31E113914600029576201504101600100025006KY-T5P9                  0007EFDHV23D65BA        EFDHV23D65BA                  00025347CB00048000PC000000001553820000100020150423SEA.FSINMGM140611/660-403213                                                                                                      
129576     O31E913914600029576201504101600100025006KY-T5P9                  0007                20150510                                                                                                                                                                                                              
129576     O31A113914600029576201504101600100025006KY-T5PH                       21000250062062061620620616                         FT    Ugi / Mr Joko                 N F/GDS - TRI(ASIA           )  20150410        1N10002957620150524SEA.FSIN                                                               O112
129576     O31A213914600029576201504101600100025006KY-T5PH                      FOB                               USD                                 BLS                            20150610                                                            00029576                   20620616  BLS            20150524 
129576     O31A613914600029576201504101600100025006KY-T5PH                      T/T BY 10TH OF NEXT MONTH                         BY T/T REMITTANCE ON THE 10TH OF THE NEXT MONTH                                                                                                                                     
129576     O31B113914600029576201504101600100025006KY-T5PH                      BLS                           C/NO.                                                                                                                                                                                                   
129576     O31E113914600029576201504101600100025006KY-T5PH                  0001EFDHV11D65BA        EFDHV11D65BA                  00025347CB00048000PC000000000125510000100020150524SEA.FSINMGM140608/660-403212                                                                                                      
129576     O31E913914600029576201504101600100025006KY-T5PH                  0001                20150610                                                                                                                                                                                                              
129576     O31E113914600029576201504101600100025006KY-T5PH                  0002EFDHV15D65BA        EFDHV15D65BA                  00025347CB00072000PC000000000125510000100020150524SEA.FSINMGM140608/660-403212                                                                                                      
129576     O31E913914600029576201504101600100025006KY-T5PH                  0002                20150610                                                                                                                                                                                                              
129576     O31E113914600029576201504101600100025006KY-T5PH                  0003EFDHV23D65BA        EFDHV23D65BA                  00025347CB00035520PC000000001553820000100020150524SEA.FSINMGM140608/660-403212                                                                                                      
129576     O31E913914600029576201504101600100025006KY-T5PH                  0003                20150610                                                                                                                                                                                                              
129576     O31E113914600029576201504101600100025006KY-T5PH                  0004EFDHV25D65BA        EFDHV25D65BA                  00025347CB00096000PC000000001553820000100020150524SEA.FSINMGM140608/660-403212                                                                                                      
129576     O31E913914600029576201504101600100025006KY-T5PH                  0004                20150610                                                                                                                                                                                                              
129576     O31E113914600029576201504101600100025006KY-T5PH                  0005EFDHV8D65BA         EFDHV8D65BA                   00025347CB00059520PC000000001075720000100020150524SEA.FSINMGM140608/660-403212                                                                                                      
129576     O31E913914600029576201504101600100025006KY-T5PH                  0005                20150610                                                                                                                                                                                                              
129576     O31E113914600029576201504101600100025006KY-T5PH                  0006EFDHV5L27BA         EFDHV5L27BA                   00025347CB00011520PC000000001075720000100020150524SEA.FSINMGM140608/660-403212                                                                                                      
129576     O31E913914600029576201504101600100025006KY-T5PH                  0006                20150610                                                                                                                                                                                                              
129576     O31E113914600029576201504101600100025006KY-T5PH                  0007EFDHV20D65BA        EFDHV20D65BA                  00025347CB00048000PC000000001553820000100020150524SEA.FSINMGM140608/660-403212                                                                                                      
129576     O31E913914600029576201504101600100025006KY-T5PH                  0007                20150610                                                                                                                                                                                                              
129576     O31A113914600029576201504101600100025006KY-T5P4                       21000250062062061620620616                         FT    Ugi / Mr Joko                 N F/GDS - TRI(ASIA           )  20150410        1N10002957620150423SEA.FSIN                                                               O112
129576     O31A213914600029576201504101600100025006KY-T5P4                      FOB                               USD                                 BLS                            20150510                                                            00029576                   20620616  BLS            20150423 
129576     O31A613914600029576201504101600100025006KY-T5P4                      T/T BY 10TH OF NEXT MONTH                         BY T/T REMITTANCE ON THE 10TH OF THE NEXT MONTH                                                                                                                                     
129576     O31B113914600029576201504101600100025006KY-T5P4                      BLS                           C/NO.                                                                                                                                                                                                   
129576     O31E113914600029576201504101600100025006KY-T5P4                  0001EFDHV11D65A         EFDHV11D65A                   00025347CB00059520PC000000000125510000100020150423SEA.FSINMGM140610/660-403211                                                                                                      
129576     O31E913914600029576201504101600100025006KY-T5P4                  0001                20150510                                                                                                                                                                                                              
129576     O31E113914600029576201504101600100025006KY-T5P4                  0002EFDHV11L27A         EFDHV11L27A                   00025347CB00011520PC000000000125510000100020150423SEA.FSINMGM140610/660-403211                                                                                                      
129576     O31E913914600029576201504101600100025006KY-T5P4                  0002                20150510                                                                                                                                                                                                              
129576     O31E113914600029576201504101600100025006KY-T5P4                  0003EFDHV20L27A         EFDHV20L27A                   00025347CB00004800PC000000001553820000100020150423SEA.FSINMGM140610/660-403211                                                                                                      
129576     O31E913914600029576201504101600100025006KY-T5P4                  0003                20150510                                                                                                                                                                                                              
129576     O31E113914600029576201504101600100025006KY-T5P4                  0004EFDHV23D65A         EFDHV23D65A                   00025347CB00038400PC000000001553820000100020150423SEA.FSINMGM140610/660-403211                                                                                                      
129576     O31E913914600029576201504101600100025006KY-T5P4                  0004                20150510                                                                                                                                                                                                              
129576     O31E113914600029576201504101600100025006KY-T5P4                  0005EFDHV25D65A         EFDHV25D65A                   00025347CB00120000PC000000001553820000100020150423SEA.FSINMGM140610/660-403211                                                                                                      
129576     O31E913914600029576201504101600100025006KY-T5P4                  0005                20150510                                                                                                                                                                                                              
129576     O31E113914600029576201504101600100025006KY-T5P4                  0006EFDHV15D65A         EFDHV15D65A                   00025347CB00072000PC000000000125510000100020150423SEA.FSINMGM140610/660-403211                                                                                                      
129576     O31E913914600029576201504101600100025006KY-T5P4                  0006                20150510                                                                                                                                                                                                              
129576     O31E113914600029576201504101600100025006KY-T5P4                  0007EFDHV15L27A         EFDHV15L27A                   00025347CB00004800PC000000000125510000100020150423SEA.FSINMGM140610/660-403211                                                                                                      
129576     O31E913914600029576201504101600100025006KY-T5P4                  0007                20150510                                                                                                                                                                                                              
129576     O31E113914600029576201504101600100025006KY-T5P4                  0008EFDHV20D65A         EFDHV20D65A                   00025347CB00038400PC000000001553820000100020150423SEA.FSINMGM140610/660-403211                                                                                                      
129576     O31E913914600029576201504101600100025006KY-T5P4                  0008                20150510                                                                                                                                                                                                              
129576     O31E113914600029576201504101600100025006KY-T5P4                  0009EFDHV5D65A          EFDHV5D65A                    00025347CB00048000PC000000001075720000100020150423SEA.FSINMGM140610/660-403211                                                                                                      
129576     O31E913914600029576201504101600100025006KY-T5P4                  0009                20150510                                                                                                                                                                                                              
129576     O31E113914600029576201504101600100025006KY-T5P4                  0010EFDHV8D65A          EFDHV8D65A                    00025347CB00048000PC000000001075720000100020150423SEA.FSINMGM140610/660-403211                                                                                                      
129576     O31E913914600029576201504101600100025006KY-T5P4                  0010                20150510                                                                                                                                                                                                              
