129576     O31A113914600029576201507281600100025006KY-0WY4                       210002500600039140                                 FT    Ugi / Mr Joko                 N F/GDS - TRI(ASIA           )  20150728        1N10002957620150907SEA.FPKL                                                               O113
129576     O31A213914600029576201507281600100025006KY-0WY4                      FOB                               USD                                                                20150920                                                            00029576                   00039140  PM             20150907 
129576     O31A613914600029576201507281600100025006KY-0WY4                      T/T BY 10TH OF NEXT MONTH                         BY T/T REMITTANCE ON THE 10TH OF THE NEXT MONTH                                                                                                                                     
129576     O31B113914600029576201507281600100025006KY-0WY4                      PM                            MMQ144285/EL1507005           KY-0WY4                       C/NO.                                                                                                                                       
129576     O31E113914600029576201507281600100025006KY-0WY4                  0001EFDHV25D65A                                       00025347CB00159360PC000000001533820000100020150907SEA.FPKLMMQ144285/EL1507005                                                                                                       
129576     O31E913914600029576201507281600100025006KY-0WY4                  0001                20150920                                                                                                                                                                                                              
129576     O31E113914600029576201507281600100025006KY-0WY4                  0002EFU18E272V                                        00025347CB00050000PC000000001355920000100020150907SEA.FPKLMMQ144285/EL1507005                                                                                                       
129576     O31E913914600029576201507281600100025006KY-0WY4                  0002                20150920                                                                                                                                                                                                              
129576     O31E113914600029576201507281600100025006KY-0WY4                  0003EFU18E652V                                        00025347CB00250000PC000000001355920000100020150907SEA.FPKLMMQ144285/EL1507005                                                                                                       
129576     O31E913914600029576201507281600100025006KY-0WY4                  0003                20150920                                                                                                                                                                                                              
