129576     O31A113914600029576201510280301100025006KY-7KB2                       210002500600029073                                 FT    Ugi / Mr Joko                 N F/GDS - TRI(ASIA           )  20151027        1N10002957620151204SEA.FSIN                                                               O112
129576     O31A213914600029576201510280301100025006KY-7KB2                      FOB                               USD                                                                20151210                SCMM                                        00029576                   00029073  PSP-DD         20151204 
129576     O31A613914600029576201510280301100025006KY-7KB2                      T/T BY 10TH OF NEXT MONTH                         BY T/T REMITTANCE ON THE 10TH OF THE NEXT MONTH                                                                                                                                     
129576     O31B113914600029576201510280301100025006KY-7KB2                      NO MARK                                                                                                                                                                                                                               
129576     O31E113914600029576201510280301100025006KY-7KB2                  0001FCL32EX-D/30        FCL32EX-D/30                  00025346CB00020000PC000000002302820000100020151204SEA.FSINMSP147489/DD5555-233878                                                                                                   
129576     O31E913914600029576201510280301100025006KY-7KB2                  0001                20151210                                                                                                                                                                                                              
129576     O31A113914600029576201510280301100025006KY-7KA1                       210002500600029073                                 FT    Ugi / Mr Joko                 N F/GDS - TRI(ASIA           )  20151027        1N10002957620151204SEA.FSIN                                                               O112
129576     O31A213914600029576201510280301100025006KY-7KA1                      FOB                               USD                                                                20151210                SCMM                                        00029576                   00029073  PSP-DD         20151204 
129576     O31A613914600029576201510280301100025006KY-7KA1                      T/T BY 10TH OF NEXT MONTH                         BY T/T REMITTANCE ON THE 10TH OF THE NEXT MONTH                                                                                                                                     
129576     O31B113914600029576201510280301100025006KY-7KA1                      NO MARK                                                                                                                                                                                                                               
129576     O31E113914600029576201510280301100025006KY-7KA1                  0001FCL22D+FCL32D       FCL22D+FCL32D                 00025346CB00040000PA000000002004920000100020151204SEA.FSINMSP147522/DD5555-233879                                                                                                   
129576     O31E913914600029576201510280301100025006KY-7KA1                  0001                20151210                                                                                                                                                                                                              
129576     O31E113914600029576201510280301100025006KY-7KA1                  0002FCL22EXD            FCL22EXD                      00025346CB00012000PC000000002038820000100020151204SEA.FSINMSP147522/DD5555-233879                                                                                                   
129576     O31E913914600029576201510280301100025006KY-7KA1                  0002                20151210                                                                                                                                                                                                              
129576     O31E113914600029576201510280301100025006KY-7KA1                  0003FCL40EX-D(I)        FCL40EX-D(I)                  00025346CB00012000PC000000003563720000100020151204SEA.FSINMSP147522/DD5555-233879                                                                                                   
129576     O31E913914600029576201510280301100025006KY-7KA1                  0003                20151210                                                                                                                                                                                                              
                                                                                                                                                                                                                                                                                                                                                                                                                           
