129576     O31A113914600029576201507290900100025006LS-0Z4F                       210002500600039051000390515000031721               FT    Ugi / Mr Joko                 N F/GDS - TRI(LATIN AMERICA  )  20150729        1N10002957620150903SEA.FMEX                                                               O305
129576     O31A213914600029576201507290900100025006LS-0Z4F                      FOB                               USD                                 PANAMEX                        201510050003905100039051SCMM                                        00029576                   00039051  PANAMEX        20150903 
129576     O31A613914600029576201507290900100025006LS-0Z4F                      T/T BY 10TH OF NEXT MONTH                         BY T/T REMITTANCE ON THE 10TH OF THE NEXT MONTH                                                                                                                                     
129576     O31B113914600029576201507290900100025006LS-0Z4F                      PANAMEX                       91509214                      LS-0Z4F                       C/NO.                                                                                                                                       
129576     O31E113914600029576201507290900100025006LS-0Z4F                  0001EFDLV23L27L                                       00025347CB00003360PC000000001563720000100020150903SEA.FMEX91509214                                                                                                                  
129576     O31E913914600029576201507290900100025006LS-0Z4F                  0001                2015100500039051                                                                                                                                                                                                      
129576     O31E113914600029576201507290900100025006LS-0Z4F                  0002EFDLV25D65L                                       00025347CB00024960PC000000001563720000100020150903SEA.FMEX91509214                                                                                                                  
129576     O31E913914600029576201507290900100025006LS-0Z4F                  0002                2015100500039051                                                                                                                                                                                                      
129576     O31E113914600029576201507290900100025006LS-0Z4F                  0003EFDLV15L27L                                       00025347CB00003480PC000000001115520000100020150903SEA.FMEX91509214                                                                                                                  
129576     O31E913914600029576201507290900100025006LS-0Z4F                  0003                2015100500039051                                                                                                                                                                                                      
129576     O31E113914600029576201507290900100025006LS-0Z4F                  0004EFDLV20L27L                                       00025347CB00004080PC000000001264920000100020150903SEA.FMEX91509214                                                                                                                  
129576     O31E913914600029576201507290900100025006LS-0Z4F                  0004                2015100500039051                                                                                                                                                                                                      
129576     O31E113914600029576201507290900100025006LS-0Z4F                  0005EFDLV11D65L                                       00025347CB00005160PC000000001115520000100020150903SEA.FMEX91509214                                                                                                                  
129576     O31E913914600029576201507290900100025006LS-0Z4F                  0005                2015100500039051                                                                                                                                                                                                      
129576     O31A113914600029576201507290900100025006LS-0YZH                       210002500600039415        41509625                 FT    Ugi / Mr Joko                 N F/GDS - TRI(LATIN AMERICA  )  20150729        1N10002957620150906SEA.FZLC                                                               O312
129576     O31A213914600029576201507290900100025006LS-0YZH                      FOB                               USD                                                                20151005                SCMM                                        00029576                   00039415  PLAT-COLON     20150906 
129576     O31A613914600029576201507290900100025006LS-0YZH                      T/T BY 10TH OF NEXT MONTH                         BY T/T REMITTANCE ON THE 10TH OF THE NEXT MONTH                                                                                                                                     
129576     O31B113914600029576201507290900100025006LS-0YZH                      PLAT-COLON                    41509625                      LS-0YZH                       C/NO.                                                                                                                                       
129576     O31E113914600029576201507290900100025006LS-0YZH                  0001EFDLV20D65L                                       00025347CB00038880PC000000001404420000100020150906SEA.FZLC41509625                                                                                                                  
129576     O31E913914600029576201507290900100025006LS-0YZH                  0001                20151005                                                                                                                                                                                                              
