129576     O31A113914600029576201508210900100025006LS-2M1A                       210002500600039058        1512-7736 -01-LIMA       FT    Ugi / Mr Joko                 N F/GDS - TRI(LATIN AMERICA  )  20150821        1N10002957620151023SEA.FCLL                                                               O407
129576     O31A213914600029576201508210900100025006LS-2M1A                      FOB                               USD                                                                2015120500039058                                                    00029576                   00039058  PANAPERU       20151023 
129576     O31A613914600029576201508210900100025006LS-2M1A                      T/T BY 10TH OF NEXT MONTH                         BY T/T REMITTANCE ON THE 10TH OF THE NEXT MONTH                                                                                                                                     
129576     O31B113914600029576201508210900100025006LS-2M1A                      PANAPERU                      91512003                      LS-2M1A                       C/NO.                                                                                                                                       
129576     O31E113914600029576201508210900100025006LS-2M1A                  0001EFDHV42D65A                                       00025347CB00028000PC000000002968120000100020151023SEA.FCLL91512003                                                                                                                  
129576     O31E913914600029576201508210900100025006LS-2M1A                  0001                2015120500039058                                                                                                                                                                                                      
129576     O31E113914600029576201508210900100025006LS-2M1A                  0002EFDHV32D65A                                       00025347CB00012000PC000000002559720000100020151023SEA.FCLL91512003                                                                                                                  
129576     O31E913914600029576201508210900100025006LS-2M1A                  0002                2015120500039058                                                                                                                                                                                                      
129576     O31A113914600029576201508210900100025006LS-2M1C                       210002500600039415        41508097                 FT    Ugi / Mr Joko                 N F/GDS - TRI(LATIN AMERICA  )  20150821        1N10002957620150825SEA.FZLC                                                               O312
129576     O31A213914600029576201508210900100025006LS-2M1C                      FOB                               USD                                                                20150915                                                            00029576                   00039415  PLAT-COLON     20150825 
129576     O31A613914600029576201508210900100025006LS-2M1C                      T/T BY 10TH OF NEXT MONTH                         BY T/T REMITTANCE ON THE 10TH OF THE NEXT MONTH                                                                                                                                     
129576     O31B113914600029576201508210900100025006LS-2M1C                      PLAT-COLON                    41508097                      LS-2M1C                       C/NO.                                                                                                                                       
129576     O31E113914600029576201508210900100025006LS-2M1C                  0001EFD11E27HD3L                                      00025347CB00049920PC000000001155420000100020150825SEA.FZLC41508097                                                                                                                  
129576     O31E913914600029576201508210900100025006LS-2M1C                  0001                20150915                                                                                                                                                                                                              
