129576     O31A113914600029576201509100300100025006KY-3ZLM                       210002500600029073                                 FT    Ugi / Mr Joko                 N F/GDS - TRI(ASIA           )  20150909        1N10002957620150924SEA.FSIN                                                               O112
129576     O31A213914600029576201509100300100025006KY-3ZLM                      FOB                               USD                                                                20151010                                                            00029576                   00029073  PSP-DD         20150924 
129576     O31A613914600029576201509100300100025006KY-3ZLM                      T/T BY 10TH OF NEXT MONTH                         BY T/T REMITTANCE ON THE 10TH OF THE NEXT MONTH                                                                                                                                     
129576     O31B113914600029576201509100300100025006KY-3ZLM                      PSP-DD                        MSP145750/DD5555-233498       KY-3ZLM                       C/NO.                                                                                                                                       
129576     O31E113914600029576201509100300100025006KY-3ZLM                  0001EFDHV25D65A         EFDHV25D65A                   00025347CB00005760PC000000001533820000100020150924SEA.FSINMSP145750/DD5555-233498                                                                                                   
129576     O31E913914600029576201509100300100025006KY-3ZLM                  0001                20151010                                                                                                                                                                                                              
129576     O31A113914600029576201509100300100025006KY-3ZKQ                       210002500600029073                                 FT    Ugi / Mr Joko                 N F/GDS - TRI(ASIA           )  20150909        1N10002957620151004SEA.FSIN                                                               O112
129576     O31A213914600029576201509100300100025006KY-3ZKQ                      FOB                               USD                                                                20151010                                                            00029576                   00029073  PSP-DD         20151004 
129576     O31A613914600029576201509100300100025006KY-3ZKQ                      T/T BY 10TH OF NEXT MONTH                         BY T/T REMITTANCE ON THE 10TH OF THE NEXT MONTH                                                                                                                                     
129576     O31B113914600029576201509100300100025006KY-3ZKQ                      NO MARK                                                                                                                                                                                                                               
129576     O31E113914600029576201509100300100025006KY-3ZKQ                  0001FCL32EX-D/30        FCL32EX-D/30                  00025346CB00010000PC000000002302820000100020151004SEA.FSINMSP145749/DD5555-233499                                                                                                   
129576     O31E913914600029576201509100300100025006KY-3ZKQ                  0001                20151010                                                                                                                                                                                                              
