129576     O31A113914600029576201504290900100025006LS-UJL4                       210002500600039058        1507-35041-16-LIMA       FT    Ugi / Mr Joko                 N F/GDS - TRI(LATIN AMERICA  )  20150429        1N10002957620150524SEA.FCLL                                                               O407
129576     O31A213914600029576201504290900100025006LS-UJL4                      FOB                               USD                                                                2015070500039058        SCMM                                        00029576                   00039058  PANAPERU       20150524 
129576     O31A613914600029576201504290900100025006LS-UJL4                      T/T BY 10TH OF NEXT MONTH                         BY T/T REMITTANCE ON THE 10TH OF THE NEXT MONTH                                                                                                                                     
129576     O31B113914600029576201504290900100025006LS-UJL4                      PANAPERU                      91507052                      LS-UJL4                       C/NO.                                                                                                                                       
129576     O31E113914600029576201504290900100025006LS-UJL4                  0001EFDHV11D65L                                       00025347CB00020400PC000000001185220000100020150524SEA.FCLL91507052                                                                                                                  
129576     O31E913914600029576201504290900100025006LS-UJL4                  0001                2015070500039058                                                                                                                                                                                                      
129576     O31E113914600029576201504290900100025006LS-UJL4                  0002EFDHV11L27L                                       00025347CB00012000PC000000001185220000100020150524SEA.FCLL91507052                                                                                                                  
129576     O31E913914600029576201504290900100025006LS-UJL4                  0002                2015070500039058                                                                                                                                                                                                      
129576     O31E113914600029576201504290900100025006LS-UJL4                  0003EFDHV20L27L                                       00025347CB00021960PC000000001464120000100020150524SEA.FCLL91507052                                                                                                                  
129576     O31E913914600029576201504290900100025006LS-UJL4                  0003                2015070500039058                                                                                                                                                                                                      
129576     O31E113914600029576201504290900100025006LS-UJL4                  0004EFDHV23L27L                                       00025347CB00011400PC000000001464120000100020150524SEA.FCLL91507052                                                                                                                  
129576     O31E913914600029576201504290900100025006LS-UJL4                  0004                2015070500039058                                                                                                                                                                                                      
129576     O31E113914600029576201504290900100025006LS-UJL4                  0005EFDHV25L27L                                       00025347CB00012000PC000000001892420000100020150524SEA.FCLL91507052                                                                                                                  
129576     O31E913914600029576201504290900100025006LS-UJL4                  0005                2015070500039058                                                                                                                                                                                                      
129576     O31E113914600029576201504290900100025006LS-UJL4                  0006EFDHV8D65L                                        00025347CB00015000PC000000001125520000100020150524SEA.FCLL91507052                                                                                                                  
129576     O31E913914600029576201504290900100025006LS-UJL4                  0006                2015070500039058                                                                                                                                                                                                      
129576     O31E113914600029576201504290900100025006LS-UJL4                  0007EFDHV8L27L                                        00025347CB00015000PC000000001125520000100020150524SEA.FCLL91507052                                                                                                                  
129576     O31E913914600029576201504290900100025006LS-UJL4                  0007                2015070500039058                                                                                                                                                                                                      
129576     O31E113914600029576201504290900100025006LS-UJL4                  0008EFUHV14L27L                                       00025347CB00004000PC000000001055820000100020150524SEA.FCLL91507052                                                                                                                  
129576     O31E913914600029576201504290900100025006LS-UJL4                  0008                2015070500039058                                                                                                                                                                                                      
