129576     O31A113914600029576201504221100100025006KY-TYA8                       210002500600039140                                 FT    Ugi / Mr Joko                 N F/GDS - TRI(ASIA           )  20150422        1N10002957620150502SEA.FPKL                                                               O113
129576     O31A213914600029576201504221100100025006KY-TYA8                      FOB                               USD                                                                20150515                                                            00029576                   00039140  PM             20150502 
129576     O31A613914600029576201504221100100025006KY-TYA8                      T/T BY 10TH OF NEXT MONTH                         BY T/T REMITTANCE ON THE 10TH OF THE NEXT MONTH                                                                                                                                     
129576     O31B113914600029576201504221100100025006KY-TYA8                      PM                            MMQ140843/EL1504005           KY-TYA8                       C/NO.                                                                                                                                       
129576     O31E113914600029576201504221100100025006KY-TYA8                  0001EFDHV20D65A                                       00025347CB00014400PC000000001533820000100020150502SEA.FPKLMMQ140843/EL1504005                                                                                                       
129576     O31E913914600029576201504221100100025006KY-TYA8                  0001                20150515                                                                                                                                                                                                              
129576     O31E113914600029576201504221100100025006KY-TYA8                  0002EFDHV23D65A                                       00025347CB00011520PC000000001533820000100020150502SEA.FPKLMMQ140843/EL1504005                                                                                                       
129576     O31E913914600029576201504221100100025006KY-TYA8                  0002                20150515                                                                                                                                                                                                              
129576     O31E113914600029576201504221100100025006KY-TYA8                  0003EFDHV25D65A                                       00025347CB00200640PC000000001533820000100020150502SEA.FPKLMMQ140843/EL1504005                                                                                                       
129576     O31E913914600029576201504221100100025006KY-TYA8                  0003                20150515                                                                                                                                                                                                              
                                                                                                                                                                                                            
