129576     O31A113914600029576201504281600100025006LS-UG82                       210002500600039058        1507-7586 -01-LIMA       FT    Ugi / Mr Joko                 N F/GDS - TRI(LATIN AMERICA  )  20150428        1N10002957620150523SEA.FCLL                                                               O407
129576     O31A213914600029576201504281600100025006LS-UG82                      FOB                               USD                                                                2015070500039058                                                    00029576                   00039058  PANAPERU       20150523 
129576     O31A613914600029576201504281600100025006LS-UG82                      T/T BY 10TH OF NEXT MONTH                         BY T/T REMITTANCE ON THE 10TH OF THE NEXT MONTH                                                                                                                                     
129576     O31B113914600029576201504281600100025006LS-UG82                      PANAPERU                      91507013                      LS-UG82                       C/NO.                                                                                                                                       
129576     O31E113914600029576201504281600100025006LS-UG82                  0001EFDHV11D65L                                       00025347CB00024960PC000000001185220000100020150523SEA.FCLL91507013                                                                                                                  
129576     O31E913914600029576201504281600100025006LS-UG82                  0001                2015070500039058                                                                                                                                                                                                      
129576     O31E113914600029576201504281600100025006LS-UG82                  0002EFDHV11L27L                                       00025347CB00010920PC000000001185220000100020150523SEA.FCLL91507013                                                                                                                  
129576     O31E913914600029576201504281600100025006LS-UG82                  0002                2015070500039058                                                                                                                                                                                                      
129576     O31E113914600029576201504281600100025006LS-UG82                  0003EFDHV15D65L                                       00025347CB00034920PC000000001185220000100020150523SEA.FCLL91507013                                                                                                                  
129576     O31E913914600029576201504281600100025006LS-UG82                  0003                2015070500039058                                                                                                                                                                                                      
129576     O31E113914600029576201504281600100025006LS-UG82                  0004EFDHV15L27L                                       00025347CB00013920PC000000001185220000100020150523SEA.FCLL91507013                                                                                                                  
129576     O31E913914600029576201504281600100025006LS-UG82                  0004                2015070500039058                                                                                                                                                                                                      
129576     O31E113914600029576201504281600100025006LS-UG82                  0005EFDHV20L27L                                       00025347CB00010920PC000000001464120000100020150523SEA.FCLL91507013                                                                                                                  
129576     O31E913914600029576201504281600100025006LS-UG82                  0005                2015070500039058                                                                                                                                                                                                      
129576     O31E113914600029576201504281600100025006LS-UG82                  0006EFDHV25D65L                                       00025347CB00010920PC000000001892420000100020150523SEA.FCLL91507013                                                                                                                  
129576     O31E913914600029576201504281600100025006LS-UG82                  0006                2015070500039058                                                                                                                                                                                                      
129576     O31E113914600029576201504281600100025006LS-UG82                  0007EFDHV25L27L                                       00025347CB00003000PC000000001892420000100020150523SEA.FCLL91507013                                                                                                                  
129576     O31E913914600029576201504281600100025006LS-UG82                  0007                2015070500039058                                                                                                                                                                                                      
129576     O31E113914600029576201504281600100025006LS-UG82                  0008EFDHV8D65L                                        00025347CB00009960PC000000001125520000100020150523SEA.FCLL91507013                                                                                                                  
129576     O31E913914600029576201504281600100025006LS-UG82                  0008                2015070500039058                                                                                                                                                                                                      
129576     O31E113914600029576201504281600100025006LS-UG82                  0009EFDHV8L27L                                        00025347CB00009960PC000000001125520000100020150523SEA.FCLL91507013                                                                                                                  
129576     O31E913914600029576201504281600100025006LS-UG82                  0009                2015070500039058                                                                                                                                                                                                      
129576     O31E113914600029576201504281600100025006LS-UG82                  0010EFUHV14L27L                                       00025347CB00004000PC000000001055820000100020150523SEA.FCLL91507013                                                                                                                  
129576     O31E913914600029576201504281600100025006LS-UG82                  0010                2015070500039058                                                                                                                                                                                                      
129576     O31E113914600029576201504281600100025006LS-UG82                  0011EFUHV8L27L                                        00025347CB00003000PC000000000976120000100020150523SEA.FCLL91507013                                                                                                                  
129576     O31E913914600029576201504281600100025006LS-UG82                  0011                2015070500039058                                                                                                                                                                                                      
129576     O31E113914600029576201504281600100025006LS-UG82                  0012EFUHV18L27L                                       00025347CB00004000PC000000001374520000100020150523SEA.FCLL91507013                                                                                                                  
129576     O31E913914600029576201504281600100025006LS-UG82                  0012                2015070500039058                                                                                                                                                                                                      
