129576     O31A113914600029576201508250900100025006KY-2TGD                       210002500620619678                                 FT    Ugi / Mr Joko                 N F/GDS - TRI(ASIA           )  20150825        1N10002957620150830SEA.FSGN                                                               O110
129576     O31A213914600029576201508250900100025006KY-2TGD                      FOB                               USD                                                                20150916                                                            00029576                   20619678  PV-PSV HCM     20150830 
129576     O31A613914600029576201508250900100025006KY-2TGD                      T/T BY 10TH OF NEXT MONTH                         BY T/T REMITTANCE ON THE 10TH OF THE NEXT MONTH                                                                                                                                     
129576     O31B113914600029576201508250900100025006KY-2TGD                      PV-PSV                        MSV144947/I207-113365         C/NO.                                                                                                                                                                     
129576     O31E113914600029576201508250900100025006KY-2TGD                  0001EFDHV15D65A         EFDHV15D65A                   00025347CB00078800PC000000001170320000100020150830SEA.FSGNMSV144947/I207-113365                                                                                                     
129576     O31E913914600029576201508250900100025006KY-2TGD                  0001                20150916                                                                                                                                                                                                              
129576     O31E113914600029576201508250900100025006KY-2TGD                  0002EFDHV15L27A         EFDHV15L27A                   00025347CB00015600PC000000001170320000100020150830SEA.FSGNMSV144947/I207-113365                                                                                                     
129576     O31E913914600029576201508250900100025006KY-2TGD                  0002                20150916                                                                                                                                                                                                              
129576     O31E113914600029576201508250900100025006KY-2TGD                  0003EFDHV20D65A         EFDHV20D65A                   00025347CB00034800PC000000001451220000100020150830SEA.FSGNMSV144947/I207-113365                                                                                                     
129576     O31E913914600029576201508250900100025006KY-2TGD                  0003                20150916                                                                                                                                                                                                              
129576     O31E113914600029576201508250900100025006KY-2TGD                  0004EFDHV20L27A         EFDHV20L27A                   00025347CB00006000PC000000001451220000100020150830SEA.FSGNMSV144947/I207-113365                                                                                                     
129576     O31E913914600029576201508250900100025006KY-2TGD                  0004                20150916                                                                                                                                                                                                              
129576     O31E113914600029576201508250900100025006KY-2TGD                  0005EFDHV23D65A         EFDHV23D65A                   00025347CB00013200PC000000001451220000100020150830SEA.FSGNMSV144947/I207-113365                                                                                                     
129576     O31E913914600029576201508250900100025006KY-2TGD                  0005                20150916                                                                                                                                                                                                              
129576     O31E113914600029576201508250900100025006KY-2TGD                  0006EFDHV23L27A         EFDHV23L27A                   00025347CB00004800PC000000001451220000100020150830SEA.FSGNMSV144947/I207-113365                                                                                                     
129576     O31E913914600029576201508250900100025006KY-2TGD                  0006                20150916                                                                                                                                                                                                              
129576     O31E113914600029576201508250900100025006KY-2TGD                  0007EFDHV25D65A         EFDHV25D65A                   00025347CB00016800PC000000001451220000100020150830SEA.FSGNMSV144947/I207-113365                                                                                                     
129576     O31E913914600029576201508250900100025006KY-2TGD                  0007                20150916                                                                                                                                                                                                              
129576     O31E113914600029576201508250900100025006KY-2TGD                  0008EFDHV25L27A         EFDHV25L27A                   00025347CB00004800PC000000001451220000100020150830SEA.FSGNMSV144947/I207-113365                                                                                                     
129576     O31E913914600029576201508250900100025006KY-2TGD                  0008                20150916                                                                                                                                                                                                              
129576     O31E113914600029576201508250900100025006KY-2TGD                  0009EFDHV5D65A          EFDHV5D65A                    00025347CB00009600PC000000000992420000100020150830SEA.FSGNMSV144947/I207-113365                                                                                                     
129576     O31E913914600029576201508250900100025006KY-2TGD                  0009                20150916                                                                                                                                                                                                              
129576     O31E113914600029576201508250900100025006KY-2TGD                  0010EFDHV8D65A          EFDHV8D65A                    00025347CB00015600PC000000000992420000100020150830SEA.FSGNMSV144947/I207-113365                                                                                                     
129576     O31E913914600029576201508250900100025006KY-2TGD                  0010                20150916                                                                                                                                                                                                              
129576     O31A113914600029576201508250900100025006KY-2TGG                       210002500600027496                                 FT    Ugi / Mr Joko                 N F/GDS - TRI(ASIA           )  20150825        1N10002957620150830SEA.FHIF                                                               O110
129576     O31A213914600029576201508250900100025006KY-2TGG                      FOB                               USD                                                                20150916                                                            00029576                   00027496  PV-PSV         20150830 
129576     O31A613914600029576201508250900100025006KY-2TGG                      T/T BY 10TH OF NEXT MONTH                         BY T/T REMITTANCE ON THE 10TH OF THE NEXT MONTH                                                                                                                                     
129576     O31B113914600029576201508250900100025006KY-2TGG                      PV-PSV                        MSV144945/I207-113366         C/NO.                                                                                                                                                                     
129576     O31E113914600029576201508250900100025006KY-2TGG                  0001EFDHV15D65A         EFDHV15D65A                   00025347CB00064000PC000000001170320000100020150830SEA.FHIFMSV144945/I207-113366                                                                                                     
129576     O31E913914600029576201508250900100025006KY-2TGG                  0001                20150916                                                                                                                                                                                                              
129576     O31E113914600029576201508250900100025006KY-2TGG                  0002EFDHV15L27A         EFDHV15L27A                   00025347CB00030000PC000000001170320000100020150830SEA.FHIFMSV144945/I207-113366                                                                                                     
129576     O31E913914600029576201508250900100025006KY-2TGG                  0002                20150916                                                                                                                                                                                                              
129576     O31E113914600029576201508250900100025006KY-2TGG                  0003EFDHV8D65A          EFDHV8D65A                    00025347CB00024000PC000000000992420000100020150830SEA.FHIFMSV144945/I207-113366                                                                                                     
129576     O31E913914600029576201508250900100025006KY-2TGG                  0003                20150916                                                                                                                                                                                                              
129576     O31A113914600029576201508250900100025006KY-2TGT                       210002500600027497                                 FT    Ugi / Mr Joko                 N F/GDS - TRI(ASIA           )  20150825        1N10002957620150830SEA.FHIF                                                               O110
129576     O31A213914600029576201508250900100025006KY-2TGT                      FOB                               USD                                                                20150916                                                            00029576                   00027497  PV             20150830 
129576     O31A613914600029576201508250900100025006KY-2TGT                      T/T BY 10TH OF NEXT MONTH                         BY T/T REMITTANCE ON THE 10TH OF THE NEXT MONTH                                                                                                                                     
129576     O31B113914600029576201508250900100025006KY-2TGT                      NO MARK  .  .   .   .                 .                                                                                                                                                                                                    
129576     O31E113914600029576201508250900100025006KY-2TGT                  0001EFDHV20L27A         EFDHV20L27A                   00025347CB00002400PC000000001451220000100020150830SEA.FHIFMSV144946/I207-113367                                                                                                     
129576     O31E913914600029576201508250900100025006KY-2TGT                  0001                20150916                                                                                                                                                                                                              
