129576     O31A113914600029576201504040300100025006KY-SQ2H                       210002500600039140                                 FT    Ugi / Mr Joko                 N F/GDS - TRI(ASIA           )  20150403        1N10002957620150409SEA.FPKL                                                               O113
129576     O31A213914600029576201504040300100025006KY-SQ2H                      FOB                               USD                                                                20150422                                                            00029576                   00039140  PM             20150409 
129576     O31A613914600029576201504040300100025006KY-SQ2H                      T/T BY 10TH OF NEXT MONTH                         BY T/T REMITTANCE ON THE 10TH OF THE NEXT MONTH                                                                                                                                     
129576     O31B113914600029576201504040300100025006KY-SQ2H                      PM                            MMQ140477/EL1504001           KY-SQ2H                       C/NO.                                                                                                                                       
129576     O31E113914600029576201504040300100025006KY-SQ2H                  0001EFDHV11D65A                                       00025347CB00037440PC000000000123510000100020150409SEA.FPKLMMQ140477/EL1504001                                                                                                       
129576     O31E913914600029576201504040300100025006KY-SQ2H                  0001                20150422                                                                                                                                                                                                              
129576     O31E113914600029576201504040300100025006KY-SQ2H                  0002EFDHV15D65A                                       00025347CB00056640PC000000000123510000100020150409SEA.FPKLMMQ140477/EL1504001                                                                                                       
129576     O31E913914600029576201504040300100025006KY-SQ2H                  0002                20150422                                                                                                                                                                                                              
129576     O31E113914600029576201504040300100025006KY-SQ2H                  0003EFDHV15L27A                                       00025347CB00012480PC000000000123510000100020150409SEA.FPKLMMQ140477/EL1504001                                                                                                       
129576     O31E913914600029576201504040300100025006KY-SQ2H                  0003                20150422                                                                                                                                                                                                              
129576     O31E113914600029576201504040300100025006KY-SQ2H                  0004EFDHV23D65A                                       00025347CB00066240PC000000001533820000100020150409SEA.FPKLMMQ140477/EL1504001                                                                                                       
129576     O31E913914600029576201504040300100025006KY-SQ2H                  0004                20150422                                                                                                                                                                                                              
129576     O31E113914600029576201504040300100025006KY-SQ2H                  0005EFDHV23L27A                                       00025347CB00024000PC000000001533820000100020150409SEA.FPKLMMQ140477/EL1504001                                                                                                       
129576     O31E913914600029576201504040300100025006KY-SQ2H                  0005                20150422                                                                                                                                                                                                              
129576     O31E113914600029576201504040300100025006KY-SQ2H                  0006EFDHV25D65A                                       00025347CB00478080PC000000001533820000100020150409SEA.FPKLMMQ140477/EL1504001                                                                                                       
129576     O31E913914600029576201504040300100025006KY-SQ2H                  0006                20150422                                                                                                                                                                                                              
129576     O31E113914600029576201504040300100025006KY-SQ2H                  0007EFDHV25L27A                                       00025347CB00038400PC000000001533820000100020150409SEA.FPKLMMQ140477/EL1504001                                                                                                       
129576     O31E913914600029576201504040300100025006KY-SQ2H                  0007                20150422                                                                                                                                                                                                              
129576     O31E113914600029576201504040300100025006KY-SQ2H                  0008EFDHV5D65A                                        00025347CB00024000PC000000001045820000100020150409SEA.FPKLMMQ140477/EL1504001                                                                                                       
129576     O31E913914600029576201504040300100025006KY-SQ2H                  0008                20150422                                                                                                                                                                                                              
129576     O31E113914600029576201504040300100025006KY-SQ2H                  0009EFDHV5L27A                                        00025347CB00004800PC000000001045820000100020150409SEA.FPKLMMQ140477/EL1504001                                                                                                       
129576     O31E913914600029576201504040300100025006KY-SQ2H                  0009                20150422                                                                                                                                                                                                              
129576     O31A113914600029576201504040300100025006KY-SQ3A                       210002500600039140                                 FT    Ugi / Mr Joko                 N F/GDS - TRI(ASIA           )  20150403        1N10002957620150409SEA.FPKL                                                               O113
129576     O31A213914600029576201504040300100025006KY-SQ3A                      FOB                               USD                                                                20150422                                                            00029576                   00039140  PM             20150409 
129576     O31A613914600029576201504040300100025006KY-SQ3A                      T/T BY 10TH OF NEXT MONTH                         BY T/T REMITTANCE ON THE 10TH OF THE NEXT MONTH                                                                                                                                     
129576     O31B113914600029576201504040300100025006KY-SQ3A                      PM                            MMQ140478/EL1504002           KY-SQ3A                       C/NO.                                                                                                                                       
129576     O31E113914600029576201504040300100025006KY-SQ3A                  0001EFDHV20D65A                                       00025347CB00045120PC000000001533820000100020150409SEA.FPKLMMQ140478/EL1504002                                                                                                       
129576     O31E913914600029576201504040300100025006KY-SQ3A                  0001                20150422                                                                                                                                                                                                              
129576     O31E113914600029576201504040300100025006KY-SQ3A                  0002EFDHV20L27A                                       00025347CB00003840PC000000001533820000100020150409SEA.FPKLMMQ140478/EL1504002                                                                                                       
129576     O31E913914600029576201504040300100025006KY-SQ3A                  0002                20150422                                                                                                                                                                                                              
129576     O31E113914600029576201504040300100025006KY-SQ3A                  0003EFDHV8D65A                                        00025347CB00015360PC000000001045820000100020150409SEA.FPKLMMQ140478/EL1504002                                                                                                       
129576     O31E913914600029576201504040300100025006KY-SQ3A                  0003                20150422                                                                                                                                                                                                              
129576     O31E113914600029576201504040300100025006KY-SQ3A                  0004EFDHV8L27A                                        00025347CB00009600PC000000001045820000100020150409SEA.FPKLMMQ140478/EL1504002                                                                                                       
129576     O31E913914600029576201504040300100025006KY-SQ3A                  0004                20150422                                                                                                                                                                                                              
