129576     O31A113914600029576201504170300100025006KY-TLNH                       210002500600039140                                 FT    Ugi / Mr Joko                 N F/GDS - TRI(ASIA           )  20150416        1N10002957620150418SEA.FPKL                                                               O113
129576     O31A213914600029576201504170300100025006KY-TLNH                      FOB                               USD                                                                20150501                                                            00029576                   00039140  PM             20150418 
129576     O31A613914600029576201504170300100025006KY-TLNH                      T/T BY 10TH OF NEXT MONTH                         BY T/T REMITTANCE ON THE 10TH OF THE NEXT MONTH                                                                                                                                     
129576     O31B113914600029576201504170300100025006KY-TLNH                      PM                            MMQ140743/EL1504003           KY-TLNH                       C/NO.                                                                                                                                       
129576     O31E113914600029576201504170300100025006KY-TLNH                  0001EFDHV20D65A                                       00025347CB00009600PC000000001533820000100020150418SEA.FPKLMMQ140743/EL1504003                                                                                                       
129576     O31E913914600029576201504170300100025006KY-TLNH                  0001                20150501                                                                                                                                                                                                              
129576     O31E113914600029576201504170300100025006KY-TLNH                  0002EFDHV25D65A                                       00025347CB00120000PC000000001533820000100020150418SEA.FPKLMMQ140743/EL1504003                                                                                                       
129576     O31E913914600029576201504170300100025006KY-TLNH                  0002                20150501                                                                                                                                                                                                              
129576     O31A113914600029576201504170300100025006KY-TLP3                       210002500600039140                                 FT    Ugi / Mr Joko                 N F/GDS - TRI(ASIA           )  20150416        1N10002957620150418SEA.FPKL                                                               O113
129576     O31A213914600029576201504170300100025006KY-TLP3                      FOB                               USD                                                                20150501                                                            00029576                   00039140  PM             20150418 
129576     O31A613914600029576201504170300100025006KY-TLP3                      T/T BY 10TH OF NEXT MONTH                         BY T/T REMITTANCE ON THE 10TH OF THE NEXT MONTH                                                                                                                                     
129576     O31B113914600029576201504170300100025006KY-TLP3                      PM                            MMQ140744/EL1504004           KY-TLP3                       C/NO.                                                                                                                                       
129576     O31E113914600029576201504170300100025006KY-TLP3                  0001EFDHV20L27A                                       00025347CB00006720PC000000001533820000100020150418SEA.FPKLMMQ140744/EL1504004                                                                                                       
129576     O31E913914600029576201504170300100025006KY-TLP3                  0001                20150501                                                                                                                                                                                                              
129576     O31E113914600029576201504170300100025006KY-TLP3                  0002EFDHV8D65A                                        00025347CB00003840PC000000001045820000100020150418SEA.FPKLMMQ140744/EL1504004                                                                                                       
129576     O31E913914600029576201504170300100025006KY-TLP3                  0002                20150501                                                                                                                                                                                                              
129576     O31E113914600029576201504170300100025006KY-TLP3                  0003EFDHV8L27A                                        00025347CB00007680PC000000001045820000100020150418SEA.FPKLMMQ140744/EL1504004                                                                                                       
129576     O31E913914600029576201504170300100025006KY-TLP3                  0003                20150501                                                                                                                                                                                                              
