129576     O31A113914600029576201506110900100025006DJ-XH5J                       21000250062001259020012590                         FT    Ugi / Mr Joko                 N F/GDS - TRI(MIDDLE-EAST    )  20150611        1N10002957620150612SEA.FRUH                                                               O137
129576     O31A213914600029576201506110900100025006DJ-XH5J                      FOB                               USD                                 AL-SAEED                       20150710                                                            00029576                   20012590  AL-SAEED       20150612 
129576     O31A613914600029576201506110900100025006DJ-XH5J                      T/T BY 10TH OF NEXT MONTH                         BY T/T REMITTANCE ON THE 10TH OF THE NEXT MONTH                                                                                                                                     
129576     O31B113914600029576201506110900100025006DJ-XH5J                      AL-SAEED                      4500099195                    DJ-XH5J                       C/NO.                                                                                                                                       
129576     O31E113914600029576201506110900100025006DJ-XH5J                  0001EFUHV23L27M         EFUHV23L27M                   00025347CB00040000PC000000001424320000100020150612SEA.FRUH4500099195                                                                                                                
129576     O31E913914600029576201506110900100025006DJ-XH5J                  0001                20150710                                                                                                                                                                                                              
129576     O31E113914600029576201506110900100025006DJ-XH5J                  0002EFUHV23D65M         EFUHV23D65M                   00025347CB00060000PC000000001424320000100020150612SEA.FRUH4500099195                                                                                                                
129576     O31E913914600029576201506110900100025006DJ-XH5J                  0002                20150710                                                                                                                                                                                                              
129576     O31E113914600029576201506110900100025006DJ-XH5J                  0003EFDHV11D65M         EFDHV11D65M                   00025347CB00052200PC000000000124510000100020150612SEA.FRUH4500099195                                                                                                                
129576     O31E913914600029576201506110900100025006DJ-XH5J                  0003                20150710                                                                                                                                                                                                              
129576     O31E113914600029576201506110900100025006DJ-XH5J                  0004EFDHV15L27M         EFDHV15L27M                   00025347CB00087360PC000000000124510000100020150612SEA.FRUH4500099195                                                                                                                
129576     O31E913914600029576201506110900100025006DJ-XH5J                  0004                20150710                                                                                                                                                                                                              
129576     O31E113914600029576201506110900100025006DJ-XH5J                  0005EFDHV15D65M         EFDHV15D65M                   00025347CB00131040PC000000000124510000100020150612SEA.FRUH4500099195                                                                                                                
129576     O31E913914600029576201506110900100025006DJ-XH5J                  0005                20150710                                                                                                                                                                                                              
129576     O31E113914600029576201506110900100025006DJ-XH5J                  0006EFDHV20L27M         EFDHV20L27M                   00025347CB00034320PC000000001553820000100020150612SEA.FRUH4500099195                                                                                                                
129576     O31E913914600029576201506110900100025006DJ-XH5J                  0006                20150710                                                                                                                                                                                                              
129576     O31E113914600029576201506110900100025006DJ-XH5J                  0007EFDHV20D65M         EFDHV20D65M                   00025347CB00034320PC000000001553820000100020150612SEA.FRUH4500099195                                                                                                                
129576     O31E913914600029576201506110900100025006DJ-XH5J                  0007                20150710                                                                                                                                                                                                              
129576     O31E113914600029576201506110900100025006DJ-XH5J                  0008EFDHV23L27M         EFDHV23L27M                   00025347CB00026520PC000000001553820000100020150612SEA.FRUH4500099195                                                                                                                
129576     O31E913914600029576201506110900100025006DJ-XH5J                  0008                20150710                                                                                                                                                                                                              
129576     O31E113914600029576201506110900100025006DJ-XH5J                  0009EFDHV23D65M         EFDHV23D65M                   00025347CB00026520PC000000001553820000100020150612SEA.FRUH4500099195                                                                                                                
129576     O31E913914600029576201506110900100025006DJ-XH5J                  0009                20150710                                                                                                                                                                                                              
129576     O31E113914600029576201506110900100025006DJ-XH5J                  0010EFDHV25L27M         EFDHV25L27M                   00025347CB00024480PC000000001553820000100020150612SEA.FRUH4500099195                                                                                                                
129576     O31E913914600029576201506110900100025006DJ-XH5J                  0010                20150710                                                                                                                                                                                                              
129576     O31E113914600029576201506110900100025006DJ-XH5J                  0011EFDHV32D65A         EFDHV32D65M                   00025347CB00048960PC000000002559720000100020150612SEA.FRUH4500099195                                                                                                                
129576     O31E913914600029576201506110900100025006DJ-XH5J                  0011                20150710                                                                                                                                                                                                              
