129576     O31A113914600029576201508280900100025006KY-33H8                       210002500620619678                                 FT    Ugi / Mr Joko                 N F/GDS - TRI(ASIA           )  20150828        1N10002957620150830SEA.FSGN                                                               O110
129576     O31A213914600029576201508280900100025006KY-33H8                      FOB                               USD                                                                20150916                                                            00029576                   20619678  PV-PSV HCM     20150830 
129576     O31A613914600029576201508280900100025006KY-33H8                      T/T BY 10TH OF NEXT MONTH                         BY T/T REMITTANCE ON THE 10TH OF THE NEXT MONTH                                                                                                                                     
129576     O31B113914600029576201508280900100025006KY-33H8                      PV-PSV                        MSV144990/I207-113373         C/NO.                                                                                                                                                                     
129576     O31E113914600029576201508280900100025006KY-33H8                  0001EFDHV15D65A         EFDHV15D65A                   00025347CB00142080PC000000001170320000100020150830SEA.FSGNMSV144990/I207-113373                                                                                                     
129576     O31E913914600029576201508280900100025006KY-33H8                  0001                20150916                                                                                                                                                                                                              
129576     O31E113914600029576201508280900100025006KY-33H8                  0002EFDHV15L27A         EFDHV15L27A                   00025347CB00045120PC000000001170320000100020150830SEA.FSGNMSV144990/I207-113373                                                                                                     
129576     O31E913914600029576201508280900100025006KY-33H8                  0002                20150916                                                                                                                                                                                                              
129576     O31E113914600029576201508280900100025006KY-33H8                  0003EFDHV20D65A         EFDHV20D65A                   00025347CB00034560PC000000001451220000100020150830SEA.FSGNMSV144990/I207-113373                                                                                                     
129576     O31E913914600029576201508280900100025006KY-33H8                  0003                20150916                                                                                                                                                                                                              
129576     O31E113914600029576201508280900100025006KY-33H8                  0004EFDHV20L27A         EFDHV20L27A                   00025347CB00007680PC000000001451220000100020150830SEA.FSGNMSV144990/I207-113373                                                                                                     
129576     O31E913914600029576201508280900100025006KY-33H8                  0004                20150916                                                                                                                                                                                                              
129576     O31E113914600029576201508280900100025006KY-33H8                  0005EFDHV23D65A         EFDHV23D65A                   00025347CB00012480PC000000001451220000100020150830SEA.FSGNMSV144990/I207-113373                                                                                                     
129576     O31E913914600029576201508280900100025006KY-33H8                  0005                20150916                                                                                                                                                                                                              
129576     O31E113914600029576201508280900100025006KY-33H8                  0006EFDHV23L27A         EFDHV23L27A                   00025347CB00004800PC000000001451220000100020150830SEA.FSGNMSV144990/I207-113373                                                                                                     
129576     O31E913914600029576201508280900100025006KY-33H8                  0006                20150916                                                                                                                                                                                                              
129576     O31E113914600029576201508280900100025006KY-33H8                  0007EFDHV25D65A         EFDHV25D65A                   00025347CB00016320PC000000001451220000100020150830SEA.FSGNMSV144990/I207-113373                                                                                                     
129576     O31E913914600029576201508280900100025006KY-33H8                  0007                20150916                                                                                                                                                                                                              
129576     O31E113914600029576201508280900100025006KY-33H8                  0008EFDHV25L27A         EFDHV25L27A                   00025347CB00004800PC000000001451220000100020150830SEA.FSGNMSV144990/I207-113373                                                                                                     
129576     O31E913914600029576201508280900100025006KY-33H8                  0008                20150916                                                                                                                                                                                                              
129576     O31E113914600029576201508280900100025006KY-33H8                  0009EFDHV5D65A          EFDHV5D65A                    00025347CB00009600PC000000000992420000100020150830SEA.FSGNMSV144990/I207-113373                                                                                                     
129576     O31E913914600029576201508280900100025006KY-33H8                  0009                20150916                                                                                                                                                                                                              
129576     O31E113914600029576201508280900100025006KY-33H8                  0010EFDHV8D65A          EFDHV8D65A                    00025347CB00039360PC000000000992420000100020150830SEA.FSGNMSV144990/I207-113373                                                                                                     
129576     O31E913914600029576201508280900100025006KY-33H8                  0010                20150916                                                                                                                                                                                                              
