129576     O31A113914600029576201512010301100025006KY-A1AM                       210002500600039130                                 FT    Ugi / Mr Joko                 N F/GDS - TRI(ASIA           )  20151130        1N10002957620151225SEA.FLKG                                                               O111
129576     O31A213914600029576201512010301100025006KY-A1AM                      FOB                               USD                                                                20160110                SCMM                                        00029576                   00039130  PST            20151225 
129576     O31A613914600029576201512010301100025006KY-A1AM                      T/T BY 10TH OF NEXT MONTH                         BY T/T REMITTANCE ON THE 10TH OF THE NEXT MONTH                                                                                                                                     
129576     O31B113914600029576201512010301100025006KY-A1AM                      PST                           MST148249/LIGH-139643         KY-A1AM                       LAT KRABANG                   C/NO.                                                                                                         
129576     O31E113914600029576201512010301100025006KY-A1AM                  0001EFDHV15D65T         EFDHV15D65T                   00025347CB00288000PC000000000123510000100020151225SEA.FLKGMST148249/LIGH-139643                                                                                                     
129576     O31E913914600029576201512010301100025006KY-A1AM                  0001                20160110                                                                                                                                                                                                              
129576     O31E113914600029576201512010301100025006KY-A1AM                  0002EFDHV15L27T         EFDHV15L27T                   00025347CB00072000PC000000000123510000100020151225SEA.FLKGMST148249/LIGH-139643                                                                                                     
129576     O31E913914600029576201512010301100025006KY-A1AM                  0002                20160110                                                                                                                                                                                                              
129576     O31E113914600029576201512010301100025006KY-A1AM                  0003EFDHV23D65T         EFDHV23D65T                   00025347CB00082560PC000000001533820000100020151225SEA.FLKGMST148249/LIGH-139643                                                                                                     
129576     O31E913914600029576201512010301100025006KY-A1AM                  0003                20160110                                                                                                                                                                                                              
129576     O31E113914600029576201512010301100025006KY-A1AM                  0004EFDHV32D65A         EFDHV32D65A                   00025347CB00045600PC000000000274710000100020151225SEA.FLKGMST148249/LIGH-139643                                                                                                     
129576     O31E913914600029576201512010301100025006KY-A1AM                  0004                20160110                                                                                                                                                                                                              
129576     O31E113914600029576201512010301100025006KY-A1AM                  0005EFDHV42D65A         EFDHV42D65A                   00025347CB00064800PC000000003041320000100020151225SEA.FLKGMST148249/LIGH-139643                                                                                                     
129576     O31E913914600029576201512010301100025006KY-A1AM                  0005                20160110                                                                                                                                                                                                              
129576     O31E113914600029576201512010301100025006KY-A1AM                  0006EFU14E272V          EFU14E272V                    00025347CB00080000PC000000001320320000100020151225SEA.FLKGMST148249/LIGH-139643                                                                                                     
129576     O31E913914600029576201512010301100025006KY-A1AM                  0006                20160110                                                                                                                                                                                                              
129576     O31E113914600029576201512010301100025006KY-A1AM                  0007EFU8E652V           EFU8E652V                     00025347CB00090000PC000000001207920000100020151225SEA.FLKGMST148249/LIGH-139643                                                                                                     
129576     O31E913914600029576201512010301100025006KY-A1AM                  0007                20160110                                                                                                                                                                                                              
129576     O31E113914600029576201512010301100025006KY-A1AM                  0008EFUHV18D65A         EFUHV18D65A                   00025347CB00450000PC000000001354620000100020151225SEA.FLKGMST148249/LIGH-139643                                                                                                     
129576     O31E913914600029576201512010301100025006KY-A1AM                  0008                20160110                                                                                                                                                                                                              
129576     O31E113914600029576201512010301100025006KY-A1AM                  0009EFUHV23L27A         EFUHV23L27A                   00025347CB00051000PC000000001424320000100020151225SEA.FLKGMST148249/LIGH-139643                                                                                                     
129576     O31E913914600029576201512010301100025006KY-A1AM                  0009                20160110                                                                                                                                                                                                              
129576     O31A113914600029576201512010301100025006KY-A188                       210002500600039130                                 FT    Ugi / Mr Joko                 N F/GDS - TRI(ASIA           )  20151130        1N10002957620151226SEA.FLKG                                                               O111
129576     O31A213914600029576201512010301100025006KY-A188                      FOB                               USD                                                                20160110                                                            00029576                   00039130  PST            20151226 
129576     O31A613914600029576201512010301100025006KY-A188                      T/T BY 10TH OF NEXT MONTH                         BY T/T REMITTANCE ON THE 10TH OF THE NEXT MONTH                                                                                                                                     
129576     O31B113914600029576201512010301100025006KY-A188                      PST                           MST148251/LIGH-139726         KY-A188                       LAT KRABANG                   C/NO.                                                                                                         
129576     O31E113914600029576201512010301100025006KY-A188                  0001EFDHV15D65T         EFDHV15D65T                   00025347CB00182400PC000000000123510000100020151226SEA.FLKGMST148251/LIGH-139726                                                                                                     
129576     O31E913914600029576201512010301100025006KY-A188                  0001                20160110                                                                                                                                                                                                              
