129576     O31A113914600029576201508261100100025006KY-2WWY                       21000250060002947400029474                         FT    Ugi / Mr Joko                 N F/GDS - TRI(ASIA           )  20150826        1N10002957620150920SEA.FMNL                                                               O117
129576     O31A213914600029576201508261100100025006KY-2WWY                      FOB                               USD                                 PMPC                           20150910                                                            00029576                   00029474  PMPC           20150920 
129576     O31A613914600029576201508261100100025006KY-2WWY                      T/T BY 10TH OF NEXT MONTH                         BY T/T REMITTANCE ON THE 10TH OF THE NEXT MONTH                                                                                                                                     
129576     O31B113914600029576201508261100100025006KY-2WWY                      PMPC                          MPH144960/SS100087            KY-2WWY                       C/NO.                                                                                                                                       
129576     O31E113914600029576201508261100100025006KY-2WWY                  0001EFUHV18D65A3        EFUHV18D65A3                  00025347CB00016000PC000000001434220000100020150920SEA.FMNLMPH144960/SS100087                                                                                                        
129576     O31E913914600029576201508261100100025006KY-2WWY                  0001                20150910                                                                                                                                                                                                              
129576     O31E113914600029576201508261100100025006KY-2WWY                  0002EFDHV20D65A         EFDHV20D65A                   00025347CB00067000PC000000001533820000100020150920SEA.FMNLMPH144960/SS100087                                                                                                        
129576     O31E913914600029576201508261100100025006KY-2WWY                  0002                20150910                                                                                                                                                                                                              
