129576     O31A113914600029576201508251600100025006KY-2UYE                       210002500620619678                                 FT    Ugi / Mr Joko                 N F/GDS - TRI(ASIA           )  20150825        1N10002957620150830SEA.FSGN                                                               O110
129576     O31A213914600029576201508251600100025006KY-2UYE                      FOB                               USD                                                                20150916                                                            00029576                   20619678  PV-PSV HCM     20150830 
129576     O31A613914600029576201508251600100025006KY-2UYE                      T/T BY 10TH OF NEXT MONTH                         BY T/T REMITTANCE ON THE 10TH OF THE NEXT MONTH                                                                                                                                     
129576     O31B113914600029576201508251600100025006KY-2UYE                      PV-PSV                        MSV144954/I207-113370         C/NO.                                                                                                                                                                     
129576     O31E113914600029576201508251600100025006KY-2UYE                  0001EFDHV15D65A         EFDHV15D65A                   00025347CB00078720PC000000001170320000100020150830SEA.FSGNMSV144954/I207-113370                                                                                                     
129576     O31E913914600029576201508251600100025006KY-2UYE                  0001                20150916                                                                                                                                                                                                              
129576     O31E113914600029576201508251600100025006KY-2UYE                  0002EFDHV15L27A         EFDHV15L27A                   00025347CB00015360PC000000001170320000100020150830SEA.FSGNMSV144954/I207-113370                                                                                                     
129576     O31E913914600029576201508251600100025006KY-2UYE                  0002                20150916                                                                                                                                                                                                              
129576     O31E113914600029576201508251600100025006KY-2UYE                  0003EFDHV20D65A         EFDHV20D65A                   00025347CB00034560PC000000001451220000100020150830SEA.FSGNMSV144954/I207-113370                                                                                                     
129576     O31E913914600029576201508251600100025006KY-2UYE                  0003                20150916                                                                                                                                                                                                              
129576     O31E113914600029576201508251600100025006KY-2UYE                  0004EFDHV20L27A         EFDHV20L27A                   00025347CB00005760PC000000001451220000100020150830SEA.FSGNMSV144954/I207-113370                                                                                                     
129576     O31E913914600029576201508251600100025006KY-2UYE                  0004                20150916                                                                                                                                                                                                              
129576     O31E113914600029576201508251600100025006KY-2UYE                  0005EFDHV23D65A         EFDHV23D65A                   00025347CB00013440PC000000001451220000100020150830SEA.FSGNMSV144954/I207-113370                                                                                                     
129576     O31E913914600029576201508251600100025006KY-2UYE                  0005                20150916                                                                                                                                                                                                              
129576     O31E113914600029576201508251600100025006KY-2UYE                  0006EFDHV23L27A         EFDHV23L27A                   00025347CB00004800PC000000001451220000100020150830SEA.FSGNMSV144954/I207-113370                                                                                                     
129576     O31E913914600029576201508251600100025006KY-2UYE                  0006                20150916                                                                                                                                                                                                              
129576     O31E113914600029576201508251600100025006KY-2UYE                  0007EFDHV25D65A         EFDHV25D65A                   00025347CB00017280PC000000001451220000100020150830SEA.FSGNMSV144954/I207-113370                                                                                                     
129576     O31E913914600029576201508251600100025006KY-2UYE                  0007                20150916                                                                                                                                                                                                              
129576     O31E113914600029576201508251600100025006KY-2UYE                  0008EFDHV25L27A         EFDHV25L27A                   00025347CB00003840PC000000001451220000100020150830SEA.FSGNMSV144954/I207-113370                                                                                                     
129576     O31E913914600029576201508251600100025006KY-2UYE                  0008                20150916                                                                                                                                                                                                              
129576     O31E113914600029576201508251600100025006KY-2UYE                  0009EFDHV5D65A          EFDHV5D65A                    00025347CB00009600PC000000000992420000100020150830SEA.FSGNMSV144954/I207-113370                                                                                                     
129576     O31E913914600029576201508251600100025006KY-2UYE                  0009                20150916                                                                                                                                                                                                              
129576     O31E113914600029576201508251600100025006KY-2UYE                  0010EFDHV8D65A          EFDHV8D65A                    00025347CB00015360PC000000000992420000100020150830SEA.FSGNMSV144954/I207-113370                                                                                                     
129576     O31E913914600029576201508251600100025006KY-2UYE                  0010                20150916                                                                                                                                                                                                              
129576     O31A113914600029576201508251600100025006KY-2UZD                       210002500600027496                                 FT    Ugi / Mr Joko                 N F/GDS - TRI(ASIA           )  20150825        1N10002957620150830SEA.FHIF                                                               O110
129576     O31A213914600029576201508251600100025006KY-2UZD                      FOB                               USD                                                                20150916                                                            00029576                   00027496  PV-PSV         20150830 
129576     O31A613914600029576201508251600100025006KY-2UZD                      T/T BY 10TH OF NEXT MONTH                         BY T/T REMITTANCE ON THE 10TH OF THE NEXT MONTH                                                                                                                                     
129576     O31B113914600029576201508251600100025006KY-2UZD                      PV-PSV                        MSV144955/I207-113369         C/NO.                                                                                                                                                                     
129576     O31E113914600029576201508251600100025006KY-2UZD                  0001EFDHV15D65A         EFDHV15D65A                   00025347CB00064320PC000000001170320000100020150830SEA.FHIFMSV144955/I207-113369                                                                                                     
129576     O31E913914600029576201508251600100025006KY-2UZD                  0001                20150916                                                                                                                                                                                                              
129576     O31E113914600029576201508251600100025006KY-2UZD                  0002EFDHV15L27A         EFDHV15L27A                   00025347CB00030720PC000000001170320000100020150830SEA.FHIFMSV144955/I207-113369                                                                                                     
129576     O31E913914600029576201508251600100025006KY-2UZD                  0002                20150916                                                                                                                                                                                                              
129576     O31E113914600029576201508251600100025006KY-2UZD                  0003EFDHV20L27A         EFDHV20L27A                   00025347CB00002880PC000000001451220000100020150830SEA.FHIFMSV144955/I207-113369                                                                                                     
129576     O31E913914600029576201508251600100025006KY-2UZD                  0003                20150916                                                                                                                                                                                                              
129576     O31E113914600029576201508251600100025006KY-2UZD                  0004EFDHV25L27A         EFDHV25L27A                   00025347CB00000960PC000000001451220000100020150830SEA.FHIFMSV144955/I207-113369                                                                                                     
129576     O31E913914600029576201508251600100025006KY-2UZD                  0004                20150916                                                                                                                                                                                                              
129576     O31E113914600029576201508251600100025006KY-2UZD                  0005EFDHV8D65A          EFDHV8D65A                    00025347CB00024000PC000000000992420000100020150830SEA.FHIFMSV144955/I207-113369                                                                                                     
129576     O31E913914600029576201508251600100025006KY-2UZD                  0005                20150916                                                                                                                                                                                                              
