129576     O31A113914600029576201504230300100025006KY-U132                       21000250062062061620620616                         FT    Ugi / Mr Joko                 N F/GDS - TRI(ASIA           )  20150422        1N10002957620150623SEA.FSIN                                                               O112
129576     O31A213914600029576201504230300100025006KY-U132                      FOB                               USD                                 BLS                            20150710                                                            00029576                   20620616  BLS            20150623 
129576     O31A613914600029576201504230300100025006KY-U132                      T/T BY 10TH OF NEXT MONTH                         BY T/T REMITTANCE ON THE 10TH OF THE NEXT MONTH                                                                                                                                     
129576     O31B113914600029576201504230300100025006KY-U132                      BLS                           C/NO.                                                                                                                                                                                                   
129576     O31E113914600029576201504230300100025006KY-U132                  0001EFDHV32D65A         EFDHV32D65A                   00025347CB00048000PC000000000274710000100020150623SEA.FSINMGM140866/660-403267                                                                                                      
129576     O31E913914600029576201504230300100025006KY-U132                  0001                20150710                                                                                                                                                                                                              
129576     O31E113914600029576201504230300100025006KY-U132                  0002EFDHV42D65A         EFDHV42D65A                   00025347CB00048000PC000000003041320000100020150623SEA.FSINMGM140866/660-403267                                                                                                      
129576     O31E913914600029576201504230300100025006KY-U132                  0002                20150710                                                                                                                                                                                                              
129576     O31A113914600029576201504230300100025006DJ-U140                       21000250062001259020012590                         FT    Ugi / Mr Joko                 N F/GDS - TRI(MIDDLE-EAST    )  20150423        1N10002957620150513SEA.FRUH                                                               O137
129576     O31A213914600029576201504230300100025006DJ-U140                      FOB                               USD                                 AL-SAEED                       20150610                                                            00029576                   20012590  AL-SAEED       20150513 
129576     O31A613914600029576201504230300100025006DJ-U140                      T/T BY 10TH OF NEXT MONTH                         BY T/T REMITTANCE ON THE 10TH OF THE NEXT MONTH                                                                                                                                     
129576     O31B113914600029576201504230300100025006DJ-U140                      AL-SAEED                      4500097590                    DJ-U140                       C/NO.                                                                                                                                       
129576     O31E113914600029576201504230300100025006DJ-U140                  0001EFDHV15L27M         EFDHV15L27M                   00025347CB00087360PC000000000124510000100020150513SEA.FRUH4500097590                                                                                                                
129576     O31E913914600029576201504230300100025006DJ-U140                  0001                20150610                                                                                                                                                                                                              
129576     O31E113914600029576201504230300100025006DJ-U140                  0002EFDHV15D65M         EFDHV15D65M                   00025347CB00131040PC000000000124510000100020150513SEA.FRUH4500097590                                                                                                                
129576     O31E913914600029576201504230300100025006DJ-U140                  0002                20150610                                                                                                                                                                                                              
129576     O31E113914600029576201504230300100025006DJ-U140                  0003EFDHV20D65M         EFDHV20D65M                   00025347CB00034320PC000000001553820000100020150513SEA.FRUH4500097590                                                                                                                
129576     O31E913914600029576201504230300100025006DJ-U140                  0003                20150610                                                                                                                                                                                                              
129576     O31E113914600029576201504230300100025006DJ-U140                  0004EFDHV23L27M         EFDHV23L27M                   00025347CB00079560PC000000001553820000100020150513SEA.FRUH4500097590                                                                                                                
129576     O31E913914600029576201504230300100025006DJ-U140                  0004                20150610                                                                                                                                                                                                              
129576     O31E113914600029576201504230300100025006DJ-U140                  0005EFDHV23D65M         EFDHV23D65M                   00025347CB00079560PC000000001553820000100020150513SEA.FRUH4500097590                                                                                                                
129576     O31E913914600029576201504230300100025006DJ-U140                  0005                20150610                                                                                                                                                                                                              
129576     O31E113914600029576201504230300100025006DJ-U140                  0006EFDHV25L27M         EFDHV25L27M                   00025347CB00073440PC000000001553820000100020150513SEA.FRUH4500097590                                                                                                                
129576     O31E913914600029576201504230300100025006DJ-U140                  0006                20150610                                                                                                                                                                                                              
129576     O31E113914600029576201504230300100025006DJ-U140                  0007EFDHV25D65M         EFDHV25D65M                   00025347CB00073440PC000000001553820000100020150513SEA.FRUH4500097590                                                                                                                
129576     O31E913914600029576201504230300100025006DJ-U140                  0007                20150610                                                                                                                                                                                                              
