129576     O31A113914600029576201506301300100025006KY-YX2W                       210002500600039140                                 FT    Ugi / Mr Joko                 N F/GDS - TRI(ASIA           )  20150630        1N10002957620150725SEA.FPKL                                                               O113
129576     O31A213914600029576201506301300100025006KY-YX2W                      FOB                               USD                                                                20150810                SCMM                                        00029576                   00039140  PM             20150725 
129576     O31A613914600029576201506301300100025006KY-YX2W                      T/T BY 10TH OF NEXT MONTH                         BY T/T REMITTANCE ON THE 10TH OF THE NEXT MONTH                                                                                                                                     
129576     O31B113914600029576201506301300100025006KY-YX2W                      PM                            MMQ143312/EL1506005           KY-YX2W                       C/NO.                                                                                                                                       
129576     O31E113914600029576201506301300100025006KY-YX2W                  0001EFDHV11D65A                                       00025347CB00018240PC000000000123510000100020150725SEA.FPKLMMQ143312/EL1506005                                                                                                       
129576     O31E913914600029576201506301300100025006KY-YX2W                  0001                20150810                                                                                                                                                                                                              
129576     O31E113914600029576201506301300100025006KY-YX2W                  0002EFDHV11L27A                                       00025347CB00003840PC000000000123510000100020150725SEA.FPKLMMQ143312/EL1506005                                                                                                       
129576     O31E913914600029576201506301300100025006KY-YX2W                  0002                20150810                                                                                                                                                                                                              
129576     O31E113914600029576201506301300100025006KY-YX2W                  0003EFDHV15D65A                                       00025347CB00028800PC000000000123510000100020150725SEA.FPKLMMQ143312/EL1506005                                                                                                       
129576     O31E913914600029576201506301300100025006KY-YX2W                  0003                20150810                                                                                                                                                                                                              
129576     O31E113914600029576201506301300100025006KY-YX2W                  0004EFDHV15L27A                                       00025347CB00014400PC000000000123510000100020150725SEA.FPKLMMQ143312/EL1506005                                                                                                       
129576     O31E913914600029576201506301300100025006KY-YX2W                  0004                20150810                                                                                                                                                                                                              
129576     O31E113914600029576201506301300100025006KY-YX2W                  0005EFDHV20D65A                                       00025347CB00055680PC000000001533820000100020150725SEA.FPKLMMQ143312/EL1506005                                                                                                       
129576     O31E913914600029576201506301300100025006KY-YX2W                  0005                20150810                                                                                                                                                                                                              
129576     O31E113914600029576201506301300100025006KY-YX2W                  0006EFDHV20L27A                                       00025347CB00007680PC000000001533820000100020150725SEA.FPKLMMQ143312/EL1506005                                                                                                       
129576     O31E913914600029576201506301300100025006KY-YX2W                  0006                20150810                                                                                                                                                                                                              
129576     O31E113914600029576201506301300100025006KY-YX2W                  0007EFDHV25D65A                                       00025347CB00468480PC000000001533820000100020150725SEA.FPKLMMQ143312/EL1506005                                                                                                       
129576     O31E913914600029576201506301300100025006KY-YX2W                  0007                20150810                                                                                                                                                                                                              
129576     O31E113914600029576201506301300100025006KY-YX2W                  0008EFDHV25L27A                                       00025347CB00126720PC000000001533820000100020150725SEA.FPKLMMQ143312/EL1506005                                                                                                       
129576     O31E913914600029576201506301300100025006KY-YX2W                  0008                20150810                                                                                                                                                                                                              
129576     O31E113914600029576201506301300100025006KY-YX2W                  0009EFDHV8D65A                                        00025347CB00006720PC000000001045820000100020150725SEA.FPKLMMQ143312/EL1506005                                                                                                       
129576     O31E913914600029576201506301300100025006KY-YX2W                  0009                20150810                                                                                                                                                                                                              
129576     O31E113914600029576201506301300100025006KY-YX2W                  0010EFDHV8L27A                                        00025347CB00004800PC000000001045820000100020150725SEA.FPKLMMQ143312/EL1506005                                                                                                       
129576     O31E913914600029576201506301300100025006KY-YX2W                  0010                20150810                                                                                                                                                                                                              
129576     O31E113914600029576201506301300100025006KY-YX2W                  0011EFU18E272V                                        00025347CB00115000PC000000001355920000100020150725SEA.FPKLMMQ143312/EL1506005                                                                                                       
129576     O31E913914600029576201506301300100025006KY-YX2W                  0011                20150810                                                                                                                                                                                                              
