129576     O31A113914600029576201510151600100025006KY-6PPY                       210002500620619678                                 FT    Ugi / Mr Joko                 N F/GDS - TRI(ASIA           )  20151015        1N10002957620151025SEA.FSGN                                                               O110
129576     O31A213914600029576201510151600100025006KY-6PPY                      FOB                               USD                                                                20151101                                                            00029576                   20619678  PV-PSV HCM     20151025 
129576     O31A613914600029576201510151600100025006KY-6PPY                      T/T BY 10TH OF NEXT MONTH                         BY T/T REMITTANCE ON THE 10TH OF THE NEXT MONTH                                                                                                                                     
129576     O31B113914600029576201510151600100025006KY-6PPY                      PV-PSV                        MSV146871/I207-113702         C/NO.                                                                                                                                                                     
129576     O31E113914600029576201510151600100025006KY-6PPY                  0001EFDHV8L27A          EFDHV8L27A                    00025347CB00015360PC000000000992420000100020151025SEA.FSGNMSV146871/I207-113702                                                                                                     
129576     O31E913914600029576201510151600100025006KY-6PPY                  0001                20151101                                                                                                                                                                                                              
