129576     O31A113914600029576201512100300100025006KY-AP3G                       210002500600029073                                 FT    Ugi / Mr Joko                 N F/GDS - TRI(ASIA           )  20151209        1N10002957620151218SEA.FSIN                                                               O112
129576     O31A213914600029576201512100300100025006KY-AP3G                      FOB                               USD                                                                20160103                                                            00029576                   00029073  PSP-DD         20151218 
129576     O31A613914600029576201512100300100025006KY-AP3G                      T/T BY 10TH OF NEXT MONTH                         BY T/T REMITTANCE ON THE 10TH OF THE NEXT MONTH                                                                                                                                     
129576     O31B113914600029576201512100300100025006KY-AP3G                      PSP-DD                        MSP148632/DD5555-234143       KY-AP3G                       C/NO.                                                                                                                                       
129576     O31E113914600029576201512100300100025006KY-AP3G                  0001EFDHV23D65A         EFDHV23D65A                   00025347CB00002880PC000000001533820000100020151218SEA.FSINMSP148632/DD5555-234143                                                                                                   
129576     O31E913914600029576201512100300100025006KY-AP3G                  0001                20160103                                                                                                                                                                                                              
129576     O31A113914600029576201512100300100025006KY-AP3H                       210002500600029073                                 FT    Ugi / Mr Joko                 N F/GDS - TRI(ASIA           )  20151209        1N10002957620151218SEA.FSIN                                                               O112
129576     O31A213914600029576201512100300100025006KY-AP3H                      FOB                               USD                                                                20160103                                                            00029576                   00029073  PSP-DD         20151218 
129576     O31A613914600029576201512100300100025006KY-AP3H                      T/T BY 10TH OF NEXT MONTH                         BY T/T REMITTANCE ON THE 10TH OF THE NEXT MONTH                                                                                                                                     
129576     O31B113914600029576201512100300100025006KY-AP3H                      PSP-DD                        MSP148635/DD5555-234146       KY-AP3H                       C/NO.                                                                                                                                       
129576     O31E113914600029576201512100300100025006KY-AP3H                  0001EFU11E652V          EFU11E652V                    00025347CB00002000PC000000001197120000100020151218SEA.FSINMSP148635/DD5555-234146                                                                                                   
129576     O31E913914600029576201512100300100025006KY-AP3H                  0001                20160103                                                                                                                                                                                                              
129576     O31A113914600029576201512100300100025006KY-AP3K                       210002500600029073                                 FT    Ugi / Mr Joko                 N F/GDS - TRI(ASIA           )  20151209        1N10002957620151225SEA.FSIN                                                               O112
129576     O31A213914600029576201512100300100025006KY-AP3K                      FOB                               USD                                                                20160110                                                            00029576                   00029073  PSP-DD         20151225 
129576     O31A613914600029576201512100300100025006KY-AP3K                      T/T BY 10TH OF NEXT MONTH                         BY T/T REMITTANCE ON THE 10TH OF THE NEXT MONTH                                                                                                                                     
129576     O31B113914600029576201512100300100025006KY-AP3K                      PSP-DD                        MSP148637/DD5555-234145       KY-AP3K                       C/NO.                                                                                                                                       
129576     O31E113914600029576201512100300100025006KY-AP3K                  0001EFDHV25D65A         EFDHV25D65A                   00025347CB00000960PC000000001533820000100020151225SEA.FSINMSP148637/DD5555-234145                                                                                                   
129576     O31E913914600029576201512100300100025006KY-AP3K                  0001                20160110                                                                                                                                                                                                              
129576     O31A113914600029576201512100300100025006KY-AP3M                       210002500600029073                                 FT    Ugi / Mr Joko                 N F/GDS - TRI(ASIA           )  20151209        1N10002957620151225SEA.FSIN                                                               O112
129576     O31A213914600029576201512100300100025006KY-AP3M                      FOB                               USD                                                                20160110                                                            00029576                   00029073  PSP-DD         20151225 
129576     O31A613914600029576201512100300100025006KY-AP3M                      T/T BY 10TH OF NEXT MONTH                         BY T/T REMITTANCE ON THE 10TH OF THE NEXT MONTH                                                                                                                                     
129576     O31B113914600029576201512100300100025006KY-AP3M                      PSP-DD                        MSP148629/DD5555-234141       KY-AP3M                       C/NO.                                                                                                                                       
129576     O31E113914600029576201512100300100025006KY-AP3M                  0001EFDHV15D65A         EFDHV15D65A                   00025347CB00000960PC000000000123510000100020151225SEA.FSINMSP148629/DD5555-234141                                                                                                   
129576     O31E913914600029576201512100300100025006KY-AP3M                  0001                20160110                                                                                                                                                                                                              
