129576     O31A113914600029576201509040900100025006KY-3N1V                       210002500620619678                                 FT    Ugi / Mr Joko                 N F/GDS - TRI(ASIA           )  20150904        1N10002957620150920SEA.FSGN                                                               O110
129576     O31A213914600029576201509040900100025006KY-3N1V                      FOB                               USD                                                                20151001                                                            00029576                   20619678  PV-PSV HCM     20150920 
129576     O31A613914600029576201509040900100025006KY-3N1V                      T/T BY 10TH OF NEXT MONTH                         BY T/T REMITTANCE ON THE 10TH OF THE NEXT MONTH                                                                                                                                     
129576     O31B113914600029576201509040900100025006KY-3N1V                      PV-PSV                        MSV145652/I207-113484         C/NO.                                                                                                                                                                     
129576     O31E113914600029576201509040900100025006KY-3N1V                  0001EFDHV15D65A         EFDHV15D65A                   00025347CB00079680PC000000001170320000100020150920SEA.FSGNMSV145652/I207-113484                                                                                                     
129576     O31E913914600029576201509040900100025006KY-3N1V                  0001                20151001                                                                                                                                                                                                              
129576     O31E113914600029576201509040900100025006KY-3N1V                  0002EFDHV20D65A         EFDHV20D65A                   00025347CB00025920PC000000001451220000100020150920SEA.FSGNMSV145652/I207-113484                                                                                                     
129576     O31E913914600029576201509040900100025006KY-3N1V                  0002                20151001                                                                                                                                                                                                              
129576     O31E113914600029576201509040900100025006KY-3N1V                  0003EFDHV23L27A         EFDHV23L27A                   00025347CB00001920PC000000001451220000100020150920SEA.FSGNMSV145652/I207-113484                                                                                                     
129576     O31E913914600029576201509040900100025006KY-3N1V                  0003                20151001                                                                                                                                                                                                              
129576     O31E113914600029576201509040900100025006KY-3N1V                  0004EFDHV25D65A         EFDHV25D65A                   00025347CB00006720PC000000001451220000100020150920SEA.FSGNMSV145652/I207-113484                                                                                                     
129576     O31E913914600029576201509040900100025006KY-3N1V                  0004                20151001                                                                                                                                                                                                              
129576     O31E113914600029576201509040900100025006KY-3N1V                  0005EFDHV25L27A         EFDHV25L27A                   00025347CB00001920PC000000001451220000100020150920SEA.FSGNMSV145652/I207-113484                                                                                                     
129576     O31E913914600029576201509040900100025006KY-3N1V                  0005                20151001                                                                                                                                                                                                              
129576     O31E113914600029576201509040900100025006KY-3N1V                  0006EFDHV8D65A          EFDHV8D65A                    00025347CB00048000PC000000000992420000100020150920SEA.FSGNMSV145652/I207-113484                                                                                                     
129576     O31E913914600029576201509040900100025006KY-3N1V                  0006                20151001                                                                                                                                                                                                              
