129576     O31A113914600029576201504100900100025006KY-T2UC                       210002500600027496                                 FT    Ugi / Mr Joko                 N F/GDS - TRI(ASIA           )  20150410        1N10002957620150426SEA.FHIF                                                               O110
129576     O31A213914600029576201504100900100025006KY-T2UC                      FOB                               USD                                                                20150501                                                            00029576                   00027496  PV-PSV         20150426 
129576     O31A613914600029576201504100900100025006KY-T2UC                      T/T BY 10TH OF NEXT MONTH                         BY T/T REMITTANCE ON THE 10TH OF THE NEXT MONTH                                                                                                                                     
129576     O31B113914600029576201504100900100025006KY-T2UC                      PV-PSV                        MSV140601/I207-112645         KY-T2UC                       C/NO.                                                                                                                                       
129576     O31E113914600029576201504100900100025006KY-T2UC                  0001EFD11E65HD3A2       EFD11E65HD3A2                 00390770CB00004800PC000000000124510000100020150426SEA.FHIFMSV140601/I207-112645                                                                                                     
129576     O31E913914600029576201504100900100025006KY-T2UC                  0001                20150501                                                                                                                                                                                                              
129576     O31E113914600029576201504100900100025006KY-T2UC                  0002EFD14E27HD3A2       EFD14E27HD3A2                 00390770CB00019200PC000000000124510000100020150426SEA.FHIFMSV140601/I207-112645                                                                                                     
129576     O31E913914600029576201504100900100025006KY-T2UC                  0002                20150501                                                                                                                                                                                                              
129576     O31E113914600029576201504100900100025006KY-T2UC                  0003EFD14E65HD3A2       EFD14E65HD3A2                 00390770CB00036000PC000000000124510000100020150426SEA.FHIFMSV140601/I207-112645                                                                                                     
129576     O31E913914600029576201504100900100025006KY-T2UC                  0003                20150501                                                                                                                                                                                                              
129576     O31A113914600029576201504100900100025006KY-T2W6                       210002500620619678                                 FT    Ugi / Mr Joko                 N F/GDS - TRI(ASIA           )  20150410        1N10002957620150426SEA.FSGN                                                               O110
129576     O31A213914600029576201504100900100025006KY-T2W6                      FOB                               USD                                                                20150501                                                            00029576                   20619678  PV-PSV HCM     20150426 
129576     O31A613914600029576201504100900100025006KY-T2W6                      T/T BY 10TH OF NEXT MONTH                         BY T/T REMITTANCE ON THE 10TH OF THE NEXT MONTH                                                                                                                                     
129576     O31B113914600029576201504100900100025006KY-T2W6                      PV-PSV HCM                    MSV140603/I207-112646         KY-T2W6                       C/NO.                                                                                                                                       
129576     O31E113914600029576201504100900100025006KY-T2W6                  0001EFD11E27HD3A2       EFD11E27HD3A2                 00390770CB00030000PC000000000124510000100020150426SEA.FSGNMSV140603/I207-112646                                                                                                     
129576     O31E913914600029576201504100900100025006KY-T2W6                  0001                20150501                                                                                                                                                                                                              
129576     O31E113914600029576201504100900100025006KY-T2W6                  0002EFD11E65HD3A2       EFD11E65HD3A2                 00390770CB00049200PC000000000124510000100020150426SEA.FSGNMSV140603/I207-112646                                                                                                     
129576     O31E913914600029576201504100900100025006KY-T2W6                  0002                20150501                                                                                                                                                                                                              
129576     O31E113914600029576201504100900100025006KY-T2W6                  0003EFD14E27HD3A2       EFD14E27HD3A2                 00390770CB00030000PC000000000124510000100020150426SEA.FSGNMSV140603/I207-112646                                                                                                     
129576     O31E913914600029576201504100900100025006KY-T2W6                  0003                20150501                                                                                                                                                                                                              
129576     O31E113914600029576201504100900100025006KY-T2W6                  0004EFD14E65HD3A2       EFD14E65HD3A2                 00390770CB00054000PC000000000124510000100020150426SEA.FSGNMSV140603/I207-112646                                                                                                     
129576     O31E913914600029576201504100900100025006KY-T2W6                  0004                20150501                                                                                                                                                                                                              
129576     O31E113914600029576201504100900100025006KY-T2W6                  0005EFD19E65HD3A        EFD19E65HD3A                  00390770CB00010800PC000000001543820000100020150426SEA.FSGNMSV140603/I207-112646                                                                                                     
129576     O31E913914600029576201504100900100025006KY-T2W6                  0005                20150501                                                                                                                                                                                                              
129576     O31E113914600029576201504100900100025006KY-T2W6                  0006EFD25E27HD3A        EFD25E27HD3A                  00390770CB00001200PC000000001543820000100020150426SEA.FSGNMSV140603/I207-112646                                                                                                     
129576     O31E913914600029576201504100900100025006KY-T2W6                  0006                20150501                                                                                                                                                                                                              
129576     O31E113914600029576201504100900100025006KY-T2W6                  0007EFD25E65HD3A2       EFD25E65HD3A2                 00390770CB00003600PC000000001543820000100020150426SEA.FSGNMSV140603/I207-112646                                                                                                     
129576     O31E913914600029576201504100900100025006KY-T2W6                  0007                20150501                                                                                                                                                                                                              
129576     O31E113914600029576201504100900100025006KY-T2W6                  0008EFD5E27HD3A2        EFD5E27HD3A2                  00390770CB00002400PC000000001055820000100020150426SEA.FSGNMSV140603/I207-112646                                                                                                     
129576     O31E913914600029576201504100900100025006KY-T2W6                  0008                20150501                                                                                                                                                                                                              
129576     O31E113914600029576201504100900100025006KY-T2W6                  0009EFD5E65HD3A2        EFD5E65HD3A2                  00390770CB00009600PC000000001055820000100020150426SEA.FSGNMSV140603/I207-112646                                                                                                     
129576     O31E913914600029576201504100900100025006KY-T2W6                  0009                20150501                                                                                                                                                                                                              
129576     O31E113914600029576201504100900100025006KY-T2W6                  0010EFD8E27HD3A2        EFD8E27HD3A2                  00390770CB00016800PC000000001055820000100020150426SEA.FSGNMSV140603/I207-112646                                                                                                     
129576     O31E913914600029576201504100900100025006KY-T2W6                  0010                20150501                                                                                                                                                                                                              
129576     O31E113914600029576201504100900100025006KY-T2W6                  0011EFD8E65HD3A2        EFD8E65HD3A2                  00390770CB00060000PC000000001055820000100020150426SEA.FSGNMSV140603/I207-112646                                                                                                     
129576     O31E913914600029576201504100900100025006KY-T2W6                  0011                20150501                                                                                                                                                                                                              
