129576     O31A113914600029576201508080300100025006DJ-1V2M                       21000250062001259020012590                         FT    Ugi / Mr Joko                 N F/GDS - TRI(MIDDLE-EAST    )  20150807        1N10002957620150817SEA.FRUH                                                               O137
129576     O31A213914600029576201508080300100025006DJ-1V2M                      FOB                               USD                                 AL-SAEED                       20150910                                                            00029576                   20012590  AL-SAEED       20150817 
129576     O31A613914600029576201508080300100025006DJ-1V2M                      T/T BY 10TH OF NEXT MONTH                         BY T/T REMITTANCE ON THE 10TH OF THE NEXT MONTH                                                                                                                                     
129576     O31B113914600029576201508080300100025006DJ-1V2M                      AL-SAEED                      4500100669                    DJ-1V2M                       C/NO.                                                                                                                                       
129576     O31E113914600029576201508080300100025006DJ-1V2M                  0001EFDHV32D65A         EFDHV32D65A                   00025347CB00016800PC000000002559720000100020150817SEA.FRUH4500100669                                                                                                                
129576     O31E913914600029576201508080300100025006DJ-1V2M                  0001                20150910                                                                                                                                                                                                              
129576     O31E113914600029576201508080300100025006DJ-1V2M                  0002EFDHV42D65A         EFDHV42D65A                   00025347CB00012420PC000000002898420000100020150817SEA.FRUH4500100669                                                                                                                
129576     O31E913914600029576201508080300100025006DJ-1V2M                  0002                20150910                                                                                                                                                                                                              
129576     O31A113914600029576201508080300100025006DJ-1V2N                       21000250060002995600029956SASO                     FT    Ugi / Mr Joko                 N F/GDS - TRI(MIDDLE-EAST    )  20150807        1N10002957620150813SEA.FJEB                                                               O147
129576     O31A213914600029576201508080300100025006DJ-1V2N                      FOB                               USD                                 PMMAF                          20150910                                                            00029576                   00029956  PMMAF          20150813 
129576     O31A613914600029576201508080300100025006DJ-1V2N                      T/T BY 10TH OF NEXT MONTH                         BY T/T REMITTANCE ON THE 10TH OF THE NEXT MONTH                                                                                                                                     
129576     O31B113914600029576201508080300100025006DJ-1V2N                      PMMAF                         4500101069                                                                                                                                                                                              
129576     O31E113914600029576201508080300100025006DJ-1V2N                  0001EFUHV8L27M          EFUHV8L27M                    00025347CB00033000PC000000000976120000100020150813SEA.FJEB4500101069                                                                                                                
129576     O31E913914600029576201508080300100025006DJ-1V2N                  0001                20150910                                                                                                                                                                                                              
129576     O31E113914600029576201508080300100025006DJ-1V2N                  0002EFUHV8D65M          EFUHV8D65M                    00025347CB00033000PC000000000976120000100020150813SEA.FJEB4500101069                                                                                                                
129576     O31E913914600029576201508080300100025006DJ-1V2N                  0002                20150910                                                                                                                                                                                                              
129576     O31E113914600029576201508080300100025006DJ-1V2N                  0003EFUHV11L27M         EFUHV11L27M                   00025347CB00028600PC000000000976120000100020150813SEA.FJEB4500101069                                                                                                                
129576     O31E913914600029576201508080300100025006DJ-1V2N                  0003                20150910                                                                                                                                                                                                              
129576     O31E113914600029576201508080300100025006DJ-1V2N                  0004EFUHV11D65M         EFUHV11D65M                   00025347CB00028600PC000000000976120000100020150813SEA.FJEB4500101069                                                                                                                
129576     O31E913914600029576201508080300100025006DJ-1V2N                  0004                20150910                                                                                                                                                                                                              
129576     O31E113914600029576201508080300100025006DJ-1V2N                  0005EFUHV18L27M         EFUHV18L27M                   00025347CB00015000PC000000001344620000100020150813SEA.FJEB4500101069                                                                                                                
129576     O31E913914600029576201508080300100025006DJ-1V2N                  0005                20150910                                                                                                                                                                                                              
129576     O31E113914600029576201508080300100025006DJ-1V2N                  0006EFUHV18D65M         EFUHV18D65M                   00025347CB00015000PC000000001344620000100020150813SEA.FJEB4500101069                                                                                                                
129576     O31E913914600029576201508080300100025006DJ-1V2N                  0006                20150910                                                                                                                                                                                                              
129576     O31E113914600029576201508080300100025006DJ-1V2N                  0007EFUHV23L27M         EFUHV23L27M                   00025347CB00015000PC000000001424320000100020150813SEA.FJEB4500101069                                                                                                                
129576     O31E913914600029576201508080300100025006DJ-1V2N                  0007                20150910                                                                                                                                                                                                              
129576     O31E113914600029576201508080300100025006DJ-1V2N                  0008EFUHV23D65M         EFUHV23D65M                   00025347CB00015000PC000000001424320000100020150813SEA.FJEB4500101069                                                                                                                
129576     O31E913914600029576201508080300100025006DJ-1V2N                  0008                20150910                                                                                                                                                                                                              
129576     O31E113914600029576201508080300100025006DJ-1V2N                  0009EFDHV8L27M          EFDHV8L27M                    00025347CB00024360PC000000001205220000100020150813SEA.FJEB4500101069                                                                                                                
129576     O31E913914600029576201508080300100025006DJ-1V2N                  0009                20150910                                                                                                                                                                                                              
129576     O31E113914600029576201508080300100025006DJ-1V2N                  0010EFDHV8D65M          EFDHV8D65M                    00025347CB00024360PC000000001205220000100020150813SEA.FJEB4500101069                                                                                                                
129576     O31E913914600029576201508080300100025006DJ-1V2N                  0010                20150910                                                                                                                                                                                                              
129576     O31E113914600029576201508080300100025006DJ-1V2N                  0011EFDHV11L27M         EFDHV11L27M                   00025347CB00052200PC000000000124510000100020150813SEA.FJEB4500101069                                                                                                                
129576     O31E913914600029576201508080300100025006DJ-1V2N                  0011                20150910                                                                                                                                                                                                              
129576     O31E113914600029576201508080300100025006DJ-1V2N                  0012EFDHV11D65M         EFDHV11D65M                   00025347CB00104400PC000000000124510000100020150813SEA.FJEB4500101069                                                                                                                
129576     O31E913914600029576201508080300100025006DJ-1V2N                  0012                20150910                                                                                                                                                                                                              
129576     O31E113914600029576201508080300100025006DJ-1V2N                  0013EFDHV15L27M         EFDHV15L27M                   00025347CB00043680PC000000000124510000100020150813SEA.FJEB4500101069                                                                                                                
129576     O31E913914600029576201508080300100025006DJ-1V2N                  0013                20150910                                                                                                                                                                                                              
129576     O31E113914600029576201508080300100025006DJ-1V2N                  0014EFDHV15D65M         EFDHV15D65M                   00025347CB00131040PC000000000124510000100020150813SEA.FJEB4500101069                                                                                                                
129576     O31E913914600029576201508080300100025006DJ-1V2N                  0014                20150910                                                                                                                                                                                                              
129576     O31E113914600029576201508080300100025006DJ-1V2N                  0015EFDHV25L27M         EFDHV25L27M                   00025347CB00048960PC000000001553820000100020150813SEA.FJEB4500101069                                                                                                                
129576     O31E913914600029576201508080300100025006DJ-1V2N                  0015                20150910                                                                                                                                                                                                              
129576     O31E113914600029576201508080300100025006DJ-1V2N                  0016EFDHV25D65M         EFDHV25D65M                   00025347CB00073440PC000000001553820000100020150813SEA.FJEB4500101069                                                                                                                
129576     O31E913914600029576201508080300100025006DJ-1V2N                  0016                20150910                                                                                                                                                                                                              
129576     O31E113914600029576201508080300100025006DJ-1V2N                  0017EFDHV32D65A         EFDHV32D65M                   00025347CB00016800PC000000002559720000100020150813SEA.FJEB4500101069                                                                                                                
129576     O31E913914600029576201508080300100025006DJ-1V2N                  0017                20150910                                                                                                                                                                                                              
129576     O31E113914600029576201508080300100025006DJ-1V2N                  0018EFDHV42D65A         EFDHV42D65M                   00025347CB00024840PC000000002898420000100020150813SEA.FJEB4500101069                                                                                                                
129576     O31E913914600029576201508080300100025006DJ-1V2N                  0018                20150910                                                                                                                                                                                                              
