129576     O31A113914600029576201510301600100025006LS-7WQQ                       210002500600027247        ACO7000003292            FT    Ugi / Mr Joko                 N F/GDS - TRI(LATIN AMERICA  )  20151030        1N10002957620151031SEA.FBUE                                                               O413
129576     O31A213914600029576201510301600100025006LS-7WQQ                      FOB                               USD                                                                20151217                                                            00029576                   00027247  PANABRAS-ARGENT20151031 
129576     O31A613914600029576201510301600100025006LS-7WQQ                      T/T BY 10TH OF NEXT MONTH                         BY T/T REMITTANCE ON THE 10TH OF THE NEXT MONTH                                                                                                                                     
129576     O31B113914600029576201510301600100025006LS-7WQQ                      PANABRAS-AR                   91511251                      LS-7WQQ                       C/NO.                                                                                                                                       
129576     O31E113914600029576201510301600100025006LS-7WQQ                  0001EFDHV11D65L         EFDHV11D65L                   00025347CB00032400PC000000001185220000100020151031SEA.FBUE91511251                                                                                                                  
129576     O31E913914600029576201510301600100025006LS-7WQQ                  0001                20151217                                                                                                                                                                                                              
129576     O31E113914600029576201510301600100025006LS-7WQQ                  0002EFDHV11L27L         EFDHV11L27L                   00025347CB00017520PC000000001185220000100020151031SEA.FBUE91511251                                                                                                                  
129576     O31E913914600029576201510301600100025006LS-7WQQ                  0002                20151217                                                                                                                                                                                                              
129576     O31E113914600029576201510301600100025006LS-7WQQ                  0003EFDHV15D65L         EFDHV15D65L                   00025347CB00054000PC000000001185220000100020151031SEA.FBUE91511251                                                                                                                  
129576     O31E913914600029576201510301600100025006LS-7WQQ                  0003                20151217                                                                                                                                                                                                              
129576     O31E113914600029576201510301600100025006LS-7WQQ                  0004EFDHV15L27L         EFDHV15L27L                   00025347CB00029040PC000000001185220000100020151031SEA.FBUE91511251                                                                                                                  
129576     O31E913914600029576201510301600100025006LS-7WQQ                  0004                20151217                                                                                                                                                                                                              
129576     O31E113914600029576201510301600100025006LS-7WQQ                  0005EFDHV20D65L         EFDHV20D65L                   00025347CB00058920PC000000001464120000100020151031SEA.FBUE91511251                                                                                                                  
129576     O31E913914600029576201510301600100025006LS-7WQQ                  0005                20151217                                                                                                                                                                                                              
129576     O31E113914600029576201510301600100025006LS-7WQQ                  0006EFDHV20L27L         EFDHV20L27L                   00025347CB00031560PC000000001464120000100020151031SEA.FBUE91511251                                                                                                                  
129576     O31E913914600029576201510301600100025006LS-7WQQ                  0006                20151217                                                                                                                                                                                                              
129576     O31E113914600029576201510301600100025006LS-7WQQ                  0007EFDHV23D65L         EFDHV23D65L                   00025347CB00034080PC000000001464120000100020151031SEA.FBUE91511251                                                                                                                  
129576     O31E913914600029576201510301600100025006LS-7WQQ                  0007                20151217                                                                                                                                                                                                              
129576     O31E113914600029576201510301600100025006LS-7WQQ                  0008EFDHV23L27L         EFDHV23L27L                   00025347CB00018360PC000000001464120000100020151031SEA.FBUE91511251                                                                                                                  
129576     O31E913914600029576201510301600100025006LS-7WQQ                  0008                20151217                                                                                                                                                                                                              
129576     O31E113914600029576201510301600100025006LS-7WQQ                  0009EFDHV25D65L         EFDHV25D65L                   00025347CB00026280PC000000001892420000100020151031SEA.FBUE91511251                                                                                                                  
129576     O31E913914600029576201510301600100025006LS-7WQQ                  0009                20151217                                                                                                                                                                                                              
129576     O31E113914600029576201510301600100025006LS-7WQQ                  0010EFDHV25L27L         EFDHV25L27L                   00025347CB00014040PC000000001892420000100020151031SEA.FBUE91511251                                                                                                                  
129576     O31E913914600029576201510301600100025006LS-7WQQ                  0010                20151217                                                                                                                                                                                                              
129576     O31E113914600029576201510301600100025006LS-7WQQ                  0011EFDHV8D65L          EFDHV8D65L                    00025347CB00023640PC000000001125520000100020151031SEA.FBUE91511251                                                                                                                  
129576     O31E913914600029576201510301600100025006LS-7WQQ                  0011                20151217                                                                                                                                                                                                              
129576     O31E113914600029576201510301600100025006LS-7WQQ                  0012EFDHV8L27L          EFDHV8L27L                    00025347CB00011880PC000000001125520000100020151031SEA.FBUE91511251                                                                                                                  
129576     O31E913914600029576201510301600100025006LS-7WQQ                  0012                20151217                                                                                                                                                                                                              
