129576     O31A113914600029576201511301600100025006KY-A024                       210002500600039140                                 FT    Ugi / Mr Joko                 N F/GDS - TRI(ASIA           )  20151130        1N10002957620151225SEA.FPKL                                                               O113
129576     O31A213914600029576201511301600100025006KY-A024                      FOB                               USD                                                                20160110                SCMM                                        00029576                   00039140  PM             20151225 
129576     O31A613914600029576201511301600100025006KY-A024                      T/T BY 10TH OF NEXT MONTH                         BY T/T REMITTANCE ON THE 10TH OF THE NEXT MONTH                                                                                                                                     
129576     O31B113914600029576201511301600100025006KY-A024                      PM                            MMQ148150/EL1511005           KY-A024                       C/NO.                                                                                                                                       
129576     O31E113914600029576201511301600100025006KY-A024                  0001EFDHV15D65A                                       00025347CB00026880PC000000000123510000100020151225SEA.FPKLMMQ148150/EL1511005                                                                                                       
129576     O31E913914600029576201511301600100025006KY-A024                  0001                20160110                                                                                                                                                                                                              
129576     O31E113914600029576201511301600100025006KY-A024                  0002EFDHV20D65A                                       00025347CB00045120PC000000001533820000100020151225SEA.FPKLMMQ148150/EL1511005                                                                                                       
129576     O31E913914600029576201511301600100025006KY-A024                  0002                20160110                                                                                                                                                                                                              
129576     O31E113914600029576201511301600100025006KY-A024                  0003EFDHV23D65A                                       00025347CB00025920PC000000001533820000100020151225SEA.FPKLMMQ148150/EL1511005                                                                                                       
129576     O31E913914600029576201511301600100025006KY-A024                  0003                20160110                                                                                                                                                                                                              
129576     O31E113914600029576201511301600100025006KY-A024                  0004EFDHV25D65A                                       00025347CB00520320PC000000001533820000100020151225SEA.FPKLMMQ148150/EL1511005                                                                                                       
129576     O31E913914600029576201511301600100025006KY-A024                  0004                20160110                                                                                                                                                                                                              
129576     O31E113914600029576201511301600100025006KY-A024                  0005EFDHV8D65A                                        00025347CB00017280PC000000001045820000100020151225SEA.FPKLMMQ148150/EL1511005                                                                                                       
129576     O31E913914600029576201511301600100025006KY-A024                  0005                20160110                                                                                                                                                                                                              
129576     O31E113914600029576201511301600100025006KY-A024                  0006EFU11E652V                                        00025347CB00015000PC000000000120510000100020151225SEA.FPKLMMQ148150/EL1511005                                                                                                       
129576     O31E913914600029576201511301600100025006KY-A024                  0006                20160110                                                                                                                                                                                                              
129576     O31E113914600029576201511301600100025006KY-A024                  0007EFU14E272V                                        00025347CB00004000PC000000001267120000100020151225SEA.FPKLMMQ148150/EL1511005                                                                                                       
129576     O31E913914600029576201511301600100025006KY-A024                  0007                20160110                                                                                                                                                                                                              
129576     O31E113914600029576201511301600100025006KY-A024                  0008EFU14E652V                                        00025347CB00025000PC000000001267120000100020151225SEA.FPKLMMQ148150/EL1511005                                                                                                       
129576     O31E913914600029576201511301600100025006KY-A024                  0008                20160110                                                                                                                                                                                                              
