129576     O31A113914600029576201510230300100025006KY-78VY                       21000250062062061620620616                         FT    Ugi / Mr Joko                 N F/GDS - TRI(ASIA           )  20151022        1N10002957620151213SEA.FSIN                                                               O112
129576     O31A213914600029576201510230300100025006KY-78VY                      FOB                               USD                                 BLS                            20160110                                                            00029576                   20620616  BLS            20151213 
129576     O31A613914600029576201510230300100025006KY-78VY                      T/T BY 10TH OF NEXT MONTH                         BY T/T REMITTANCE ON THE 10TH OF THE NEXT MONTH                                                                                                                                     
129576     O31B113914600029576201510230300100025006KY-78VY                      BLS                           C/NO.                                                                                                                                                                                                   
129576     O31E113914600029576201510230300100025006KY-78VY                  0001EFD19E65HD3A        EFD19E65HD3A                  00390770CB00024000PC000000001336220000100020151213SEA.FSINMGM147004/660-403883                                                                                                      
129576     O31E913914600029576201510230300100025006KY-78VY                  0001                20160110                                                                                                                                                                                                              
129576     O31E113914600029576201510230300100025006KY-78VY                  0002EFD11E65HD3A2       EFD11E65HD3A2                 00390770CB00048000PC000000001120520000100020151213SEA.FSINMGM147004/660-403883                                                                                                      
129576     O31E913914600029576201510230300100025006KY-78VY                  0002                20160110                                                                                                                                                                                                              
129576     O31E113914600029576201510230300100025006KY-78VY                  0003EFD14E65HD3A2       EFD14E65HD3A2                 00390770CB00024000PC000000001095620000100020151213SEA.FSINMGM147004/660-403883                                                                                                      
129576     O31E913914600029576201510230300100025006KY-78VY                  0003                20160110                                                                                                                                                                                                              
129576     O31E113914600029576201510230300100025006KY-78VY                  0004EFD25E65HD3A2       EFD25E65HD3A2                 00390770CB00046500PC000000001398420000100020151213SEA.FSINMGM147004/660-403883                                                                                                      
129576     O31E913914600029576201510230300100025006KY-78VY                  0004                20160110                                                                                                                                                                                                              
129576     O31E113914600029576201510230300100025006KY-78VY                  0005EFD8E65HD3A2        EFD8E65HD3A2                  00390770CB00024000PC000000000991120000100020151213SEA.FSINMGM147004/660-403883                                                                                                      
129576     O31E913914600029576201510230300100025006KY-78VY                  0005                20160110                                                                                                                                                                                                              
129576     O31A113914600029576201510230300100025006KY-78VZ                       21000250062062061620620616                         FT    Ugi / Mr Joko                 N F/GDS - TRI(ASIA           )  20151022        1N10002957620151224SEA.FSIN                                                               O112
129576     O31A213914600029576201510230300100025006KY-78VZ                      FOB                               USD                                 BLS                            20160110                                                            00029576                   20620616  BLS            20151224 
129576     O31A613914600029576201510230300100025006KY-78VZ                      T/T BY 10TH OF NEXT MONTH                         BY T/T REMITTANCE ON THE 10TH OF THE NEXT MONTH                                                                                                                                     
129576     O31B113914600029576201510230300100025006KY-78VZ                      BLS                           C/NO.                                                                                                                                                                                                   
129576     O31E113914600029576201510230300100025006KY-78VZ                  0001EFDHV5D65A          EFDHV5D65A                    00025347CB00035520PC000000001075720000100020151224SEA.FSINMGM147006/660-403882                                                                                                      
129576     O31E913914600029576201510230300100025006KY-78VZ                  0001                20160110                                                                                                                                                                                                              
129576     O31E113914600029576201510230300100025006KY-78VZ                  0002EFDHV8D65A          EFDHV8D65A                    00025347CB00024000PC000000001075720000100020151224SEA.FSINMGM147006/660-403882                                                                                                      
129576     O31E913914600029576201510230300100025006KY-78VZ                  0002                20160110                                                                                                                                                                                                              
129576     O31A113914600029576201510230300100025006KY-78VT                       21000250062062061620620616                         FT    Ugi / Mr Joko                 N F/GDS - TRI(ASIA           )  20151022        1N10002957620151224SEA.FSIN                                                               O112
129576     O31A213914600029576201510230300100025006KY-78VT                      FOB                               USD                                 BLS                            20160110                                                            00029576                   20620616  BLS            20151224 
129576     O31A613914600029576201510230300100025006KY-78VT                      T/T BY 10TH OF NEXT MONTH                         BY T/T REMITTANCE ON THE 10TH OF THE NEXT MONTH                                                                                                                                     
129576     O31B113914600029576201510230300100025006KY-78VT                      BLS                           C/NO.                                                                                                                                                                                                   
129576     O31E113914600029576201510230300100025006KY-78VT                  0001EFDHV11D65BA        EFDHV11D65BA                  00025347CB00024000PC000000000125510000100020151224SEA.FSINMGM147003/660-403881                                                                                                      
129576     O31E913914600029576201510230300100025006KY-78VT                  0001                20160110                                                                                                                                                                                                              
129576     O31E113914600029576201510230300100025006KY-78VT                  0002EFDHV15D65BA        EFDHV15D65BA                  00025347CB00048000PC000000000125510000100020151224SEA.FSINMGM147003/660-403881                                                                                                      
129576     O31E913914600029576201510230300100025006KY-78VT                  0002                20160110                                                                                                                                                                                                              
129576     O31E113914600029576201510230300100025006KY-78VT                  0003EFDHV23D65BA        EFDHV23D65BA                  00025347CB00035520PC000000001553820000100020151224SEA.FSINMGM147003/660-403881                                                                                                      
129576     O31E913914600029576201510230300100025006KY-78VT                  0003                20160110                                                                                                                                                                                                              
129576     O31E113914600029576201510230300100025006KY-78VT                  0004EFDHV25D65BA        EFDHV25D65BA                  00025347CB00072000PC000000001553820000100020151224SEA.FSINMGM147003/660-403881                                                                                                      
129576     O31E913914600029576201510230300100025006KY-78VT                  0004                20160110                                                                                                                                                                                                              
129576     O31E113914600029576201510230300100025006KY-78VT                  0005EFDHV8D65BA         EFDHV8D65BA                   00025347CB00048000PC000000001075720000100020151224SEA.FSINMGM147003/660-403881                                                                                                      
129576     O31E913914600029576201510230300100025006KY-78VT                  0005                20160110                                                                                                                                                                                                              
129576     O31E113914600029576201510230300100025006KY-78VT                  0006EFDHV20D65BA        EFDHV20D65BA                  00025347CB00048000PC000000001553820000100020151224SEA.FSINMGM147003/660-403881                                                                                                      
129576     O31E913914600029576201510230300100025006KY-78VT                  0006                20160110                                                                                                                                                                                                              
