129576     O31A113914600029576201512171600100025006KY-B80C                       210002500600039140                                 FT    Ugi / Mr Joko                 N F/GDS - TRI(ASIA           )  20151217        1N10002957620151222SEA.FPKL                                                               O113
129576     O31A213914600029576201512171600100025006KY-B80C                      FOB                               USD                                                                20160104                                                            00029576                   00039140  PM             20151222 
129576     O31A613914600029576201512171600100025006KY-B80C                      T/T BY 10TH OF NEXT MONTH                         BY T/T REMITTANCE ON THE 10TH OF THE NEXT MONTH                                                                                                                                     
129576     O31B113914600029576201512171600100025006KY-B80C                      PM                            MMQ148721/EL1512008           KY-B80C                       C/NO.                                                                                                                                       
129576     O31E113914600029576201512171600100025006KY-B80C                  0001EFUHV18D65A3                                      00025347CB00450000PC000000000012000000100020151222SEA.FPKLMMQ148721/EL1512008                                                                                                       
129576     O31E913914600029576201512171600100025006KY-B80C                  0001                20160104                                                                                                                                                                                                              
129576     O31A113914600029576201512171600100025006KY-B80D                       210002500600039140                                 FT    Ugi / Mr Joko                 N F/GDS - TRI(ASIA           )  20151217        1N10002957620160126SEA.FPKL                                                               O113
129576     O31A213914600029576201512171600100025006KY-B80D                      FOB                               USD                                                                20160208                                                            00029576                   00039140  PM             20160126 
129576     O31A613914600029576201512171600100025006KY-B80D                      T/T BY 10TH OF NEXT MONTH                         BY T/T REMITTANCE ON THE 10TH OF THE NEXT MONTH                                                                                                                                     
129576     O31B113914600029576201512171600100025006KY-B80D                      PM                            MMQ148722/EL1512009           KY-B80D                       C/NO.                                                                                                                                       
129576     O31E113914600029576201512171600100025006KY-B80D                  0001EFUHV18D65A3                                      00025347CB00400000PC000000000012000000100020160126SEA.FPKLMMQ148722/EL1512009                                                                                                       
129576     O31E913914600029576201512171600100025006KY-B80D                  0001                20160208                                                                                                                                                                                                              
