129576     O31A113914600029576201509300301100025006KY-5HFT                       210002500600029073                                 FT    Ugi / Mr Joko                 N F/GDS - TRI(ASIA           )  20150929        1N10002957620151104SEA.FSIN                                                               O112
129576     O31A213914600029576201509300301100025006KY-5HFT                      FOB                               USD                                                                20151110                SCMM                                        00029576                   00029073  PSP-DD         20151104 
129576     O31A613914600029576201509300301100025006KY-5HFT                      T/T BY 10TH OF NEXT MONTH                         BY T/T REMITTANCE ON THE 10TH OF THE NEXT MONTH                                                                                                                                     
129576     O31B113914600029576201509300301100025006KY-5HFT                      NO MARK                                                                                                                                                                                                                               
129576     O31E113914600029576201509300301100025006KY-5HFT                  0001FCL32EX-D/30        FCL32EX-D/30                  00025346CB00050000PC000000002302820000100020151104SEA.FSINMSP146463/DD5555-233598                                                                                                   
129576     O31E913914600029576201509300301100025006KY-5HFT                  0001                20151110                                                                                                                                                                                                              
129576     O31A113914600029576201509300301100025006KY-5HFX                       210002500600029073                                 FT    Ugi / Mr Joko                 N F/GDS - TRI(ASIA           )  20150929        1N10002957620151104SEA.FSIN                                                               O112
129576     O31A213914600029576201509300301100025006KY-5HFX                      FOB                               USD                                                                20151110                SCMM                                        00029576                   00029073  PSP-DD         20151104 
129576     O31A613914600029576201509300301100025006KY-5HFX                      T/T BY 10TH OF NEXT MONTH                         BY T/T REMITTANCE ON THE 10TH OF THE NEXT MONTH                                                                                                                                     
129576     O31B113914600029576201509300301100025006KY-5HFX                      NO MARK                                                                                                                                                                                                                               
129576     O31E113914600029576201509300301100025006KY-5HFX                  0001FL20SS.D/18G        FL20SS.D/18                   00025345CB00060000PC000000000403320000100020151104SEA.FSINMSP146414/DD5555-233597                                                                                                   
129576     O31E913914600029576201509300301100025006KY-5HFX                  0001                20151110                                                                                                                                                                                                              
129576     O31E113914600029576201509300301100025006KY-5HFX                  0002FL40SS.D/36G        FL40SS.D/36                   00025345CB00100000PC000000000461420000100020151104SEA.FSINMSP146414/DD5555-233597                                                                                                   
129576     O31E913914600029576201509300301100025006KY-5HFX                  0002                20151110                                                                                                                                                                                                              
129576     O31A113914600029576201509300301100025006KY-5HGW                       210002500600029073                                 FT    Ugi / Mr Joko                 N F/GDS - TRI(ASIA           )  20150929        1N10002957620151104SEA.FSIN                                                               O112
129576     O31A213914600029576201509300301100025006KY-5HGW                      FOB                               USD                                                                20151110                SCMM                                        00029576                   00029073  PSP-DD         20151104 
129576     O31A613914600029576201509300301100025006KY-5HGW                      T/T BY 10TH OF NEXT MONTH                         BY T/T REMITTANCE ON THE 10TH OF THE NEXT MONTH                                                                                                                                     
129576     O31B113914600029576201509300301100025006KY-5HGW                      NO MARK                                                                                                                                                                                                                               
129576     O31E113914600029576201509300301100025006KY-5HGW                  0001FCL22D+FCL32D       FCL22D+FCL32D                 00025346CB00050000PA000000002004920000100020151104SEA.FSINMSP146406/DD5555-233599                                                                                                   
129576     O31E913914600029576201509300301100025006KY-5HGW                  0001                20151110                                                                                                                                                                                                              
129576     O31E113914600029576201509300301100025006KY-5HGW                  0002FCL22EXD            FCL22EXD                      00025346CB00020000PC000000002038820000100020151104SEA.FSINMSP146406/DD5555-233599                                                                                                   
129576     O31E913914600029576201509300301100025006KY-5HGW                  0002                20151110                                                                                                                                                                                                              
129576     O31E113914600029576201509300301100025006KY-5HGW                  0003FCL40EX-D(I)        FCL40EX-D(I)                  00025346CB00012000PC000000003563720000100020151104SEA.FSINMSP146406/DD5555-233599                                                                                                   
129576     O31E913914600029576201509300301100025006KY-5HGW                  0003                20151110                                                                                                                                                                                                              
129576     O31A113914600029576201509300301100025006KY-5HF2                       210002500600029073                                 FT    Ugi / Mr Joko                 N F/GDS - TRI(ASIA           )  20150929        1N10002957620151025SEA.FSIN                                                               O112
129576     O31A213914600029576201509300301100025006KY-5HF2                      FOB                               USD                                                                20151110                SCMM                                        00029576                   00029073  PSP-DD         20151025 
129576     O31A613914600029576201509300301100025006KY-5HF2                      T/T BY 10TH OF NEXT MONTH                         BY T/T REMITTANCE ON THE 10TH OF THE NEXT MONTH                                                                                                                                     
129576     O31B113914600029576201509300301100025006KY-5HF2                      PSP-DD                        MSP146482/DD5555-233600       KY-5HF2                       C/NO.                                                                                                                                       
129576     O31E113914600029576201509300301100025006KY-5HF2                  0001EFDHV15D65A         EFDHV15D65A                   00025347CB00004800PC000000000123510000100020151025SEA.FSINMSP146482/DD5555-233600                                                                                                   
129576     O31E913914600029576201509300301100025006KY-5HF2                  0001                20151110                                                                                                                                                                                                              
129576     O31E113914600029576201509300301100025006KY-5HF2                  0002EFDHV25D65A         EFDHV25D65A                   00025347CB00010560PC000000001533820000100020151025SEA.FSINMSP146482/DD5555-233600                                                                                                   
129576     O31E913914600029576201509300301100025006KY-5HF2                  0002                20151110                                                                                                                                                                                                              
129576     O31A113914600029576201509300301100025006LS-5K6N                       210002500600039051000390515000032107               FT    Ugi / Mr Joko                 N F/GDS - TRI(LATIN AMERICA  )  20150929        1N10002957620151103SEA.FMEX                                                               O305
129576     O31A213914600029576201509300301100025006LS-5K6N                      FOB                               USD                                 PANAMEX                        201512050003905100039051SCMM                                        00029576                   00039051  PANAMEX        20151103 
129576     O31A613914600029576201509300301100025006LS-5K6N                      T/T BY 10TH OF NEXT MONTH                         BY T/T REMITTANCE ON THE 10TH OF THE NEXT MONTH                                                                                                                                     
129576     O31B113914600029576201509300301100025006LS-5K6N                      PANAMEX                       91511177                      LS-5K6N                       C/NO.                                                                                                                                       
129576     O31E113914600029576201509300301100025006LS-5K6N                  0001EFDLV11D65L                                       00025347CB00004920PC000000001115520000100020151103SEA.FMEX91511177                                                                                                                  
129576     O31E913914600029576201509300301100025006LS-5K6N                  0001                2015120500039051                                                                                                                                                                                                      
129576     O31E113914600029576201509300301100025006LS-5K6N                  0002EFDLV23D65L                                       00025347CB00033240PC000000001563720000100020151103SEA.FMEX91511177                                                                                                                  
129576     O31E913914600029576201509300301100025006LS-5K6N                  0002                2015120500039051                                                                                                                                                                                                      
129576     O31E113914600029576201509300301100025006LS-5K6N                  0003EFDLV20L27L                                       00025347CB00004800PC000000001264920000100020151103SEA.FMEX91511177                                                                                                                  
129576     O31E913914600029576201509300301100025006LS-5K6N                  0003                2015120500039051                                                                                                                                                                                                      
129576     O31E113914600029576201509300301100025006LS-5K6N                  0004EFDLV20D65L                                       00025347CB00047760PC000000001264920000100020151103SEA.FMEX91511177                                                                                                                  
129576     O31E913914600029576201509300301100025006LS-5K6N                  0004                2015120500039051                                                                                                                                                                                                      
129576     O31E113914600029576201509300301100025006LS-5K6N                  0005EFDLV25D65L                                       00025347CB00022080PC000000001563720000100020151103SEA.FMEX91511177                                                                                                                  
129576     O31E913914600029576201509300301100025006LS-5K6N                  0005                2015120500039051                                                                                                                                                                                                      
129576     O31E113914600029576201509300301100025006LS-5K6N                  0006EFDLV23L27L                                       00025347CB00005160PC000000001563720000100020151103SEA.FMEX91511177                                                                                                                  
129576     O31E913914600029576201509300301100025006LS-5K6N                  0006                2015120500039051                                                                                                                                                                                                      
129576     O31E113914600029576201509300301100025006LS-5K6N                  0007EFDLV15L27L                                       00025347CB00003960PC000000001115520000100020151103SEA.FMEX91511177                                                                                                                  
129576     O31E913914600029576201509300301100025006LS-5K6N                  0007                2015120500039051                                                                                                                                                                                                      
129576     O31E113914600029576201509300301100025006LS-5K6N                  0008EFDLV25L27L                                       00025347CB00000720PC000000001563720000100020151103SEA.FMEX91511177                                                                                                                  
129576     O31E913914600029576201509300301100025006LS-5K6N                  0008                2015120500039051                                                                                                                                                                                                      
129576     O31E113914600029576201509300301100025006LS-5K6N                  0009EFDLV15D65L                                       00025347CB00025800PC000000001115520000100020151103SEA.FMEX91511177                                                                                                                  
129576     O31E913914600029576201509300301100025006LS-5K6N                  0009                2015120500039051                                                                                                                                                                                                      
