129576     O31A113914600029576201509010900100025006LS-3BW9                       210002500620618011        31510606-NALPI OCCIDENTALFT    Ugi / Mr Joko                 N F/GDS - TRI(LATIN AMERICA  )  20150901        1N10002957620151007SEA.FBUN                                                               O401
129576     O31A213914600029576201509010900100025006LS-3BW9                      FOB                               USD                                                                20151105                SCMM                                        00029576                   20618011  NALPI OCCIDENT 20151007 
129576     O31A613914600029576201509010900100025006LS-3BW9                      T/T BY 10TH OF NEXT MONTH                         BY T/T REMITTANCE ON THE 10TH OF THE NEXT MONTH                                                                                                                                     
129576     O31B113914600029576201509010900100025006LS-3BW9                      31510606-NALPI OCCIDENTAL                                                                                                                                                                                                             
129576     O31E113914600029576201509010900100025006LS-3BW9                  0001EFDLV15D65LC                                      00025347CB00540000PC000000001165320000100020151007SEA.FBUN31510606-NALPI OCCIDENTAL                                                                                                 
129576     O31E913914600029576201509010900100025006LS-3BW9                  0001                20151105                                                                                                                                                                                                              
129576     O31E113914600029576201509010900100025006LS-3BW9                  0002EFDLV20D65LC                                      00025347CB00450000PC000000001404420000100020151007SEA.FBUN31510606-NALPI OCCIDENTAL                                                                                                 
129576     O31E913914600029576201509010900100025006LS-3BW9                  0002                20151105                                                                                                                                                                                                              
