129576     O31A113914600029576201507010301100025006KY-YYCS                       210002500600029073                                 FT    Ugi / Mr Joko                 N F/GDS - TRI(ASIA           )  20150630        1N10002957620150725SEA.FSIN                                                               O112
129576     O31A213914600029576201507010301100025006KY-YYCS                      FOB                               USD                                                                20150810                SCMM                                        00029576                   00029073  PSP-DD         20150725 
129576     O31A613914600029576201507010301100025006KY-YYCS                      T/T BY 10TH OF NEXT MONTH                         BY T/T REMITTANCE ON THE 10TH OF THE NEXT MONTH                                                                                                                                     
129576     O31B113914600029576201507010301100025006KY-YYCS                      PSP-DD                        MSP143489/DD5555-233075       KY-YYCS                       C/NO.                                                                                                                                       
129576     O31E113914600029576201507010301100025006KY-YYCS                  0001EFDHV23D65A         EFDHV23D65A                   00025347CB00001920PC000000001533820000100020150725SEA.FSINMSP143489/DD5555-233075                                                                                                   
129576     O31E913914600029576201507010301100025006KY-YYCS                  0001                20150810                                                                                                                                                                                                              
