129576     O31A113914600029576201504150900100025006DJ-TEMU                       21000250060002995620605309                         FT    Ugi / Mr Joko                 N F/GDS - TRI(MIDDLE-EAST    )  20150415        1N10002957620150425SEA.FJEB                                                               O147
129576     O31A213914600029576201504150900100025006DJ-TEMU                      FOB                               USD                                 PMMAF(J.ALI)                   20150510                                                            00029576                   20605309  PMMAF(J.ALI)   20150425 
129576     O31A613914600029576201504150900100025006DJ-TEMU                      T/T BY 10TH OF NEXT MONTH                         BY T/T REMITTANCE ON THE 10TH OF THE NEXT MONTH                                                                                                                                     
129576     O31B113914600029576201504150900100025006DJ-TEMU                      PMMAF                         4500097535                                                                                                                                                                                              
129576     O31E113914600029576201504150900100025006DJ-TEMU                  0001EFUHV18L27M         EFUHV18L27M                   00025347CB00000200PC000000001344620000100020150425SEA.FJEB4500097535                                                                                                                
129576     O31E913914600029576201504150900100025006DJ-TEMU                  0001                20150510                                                                                                                                                                                                              
129576     O31E113914600029576201504150900100025006DJ-TEMU                  0002EFUHV18D65M         EFUHV18D65M                   00025347CB00000200PC000000001344620000100020150425SEA.FJEB4500097535                                                                                                                
129576     O31E913914600029576201504150900100025006DJ-TEMU                  0002                20150510                                                                                                                                                                                                              
129576     O31E113914600029576201504150900100025006DJ-TEMU                  0003EFUHV23L27M         EFUHV23L27M                   00025347CB00000200PC000000001424320000100020150425SEA.FJEB4500097535                                                                                                                
129576     O31E913914600029576201504150900100025006DJ-TEMU                  0003                20150510                                                                                                                                                                                                              
129576     O31E113914600029576201504150900100025006DJ-TEMU                  0004EFUHV23D65M         EFUHV23D65M                   00025347CB00000200PC000000001424320000100020150425SEA.FJEB4500097535                                                                                                                
129576     O31E913914600029576201504150900100025006DJ-TEMU                  0004                20150510                                                                                                                                                                                                              
129576     O31E113914600029576201504150900100025006DJ-TEMU                  0005EFDHV32D65A         EFDHV32D65A                   00025347CB00000180PC000000002559720000100020150425SEA.FJEB4500097535                                                                                                                
129576     O31E913914600029576201504150900100025006DJ-TEMU                  0005                20150510                                                                                                                                                                                                              
129576     O31E113914600029576201504150900100025006DJ-TEMU                  0006EFDHV42D65A         EFDHV42D65A                   00025347CB00000180PC000000002898420000100020150425SEA.FJEB4500097535                                                                                                                
129576     O31E913914600029576201504150900100025006DJ-TEMU                  0006                20150510                                                                                                                                                                                                              
