129576     O31A113914600029576201508211600100025006KY-2NH3                       210002500600029073                                 FT    Ugi / Mr Joko                 N F/GDS - TRI(ASIA           )  20150821        1N10002957620150825SEA.FSIN                                                               O112
129576     O31A213914600029576201508211600100025006KY-2NH3                      FOB                               USD                                                                20150910                SCMM                                        00029576                   00029073  PSP-DD         20150825 
129576     O31A613914600029576201508211600100025006KY-2NH3                      T/T BY 10TH OF NEXT MONTH                         BY T/T REMITTANCE ON THE 10TH OF THE NEXT MONTH                                                                                                                                     
129576     O31B113914600029576201508211600100025006KY-2NH3                      PSP-DD                        MSP144409/DD5555-233236       KY-2NH3                       C/NO.                                                                                                                                       
129576     O31E113914600029576201508211600100025006KY-2NH3                  0001EFU14E652V          EFU14E652V                    00025347CB00002000PC000000001257320000100020150825SEA.FSINMSP144409/DD5555-233236                                                                                                   
129576     O31E913914600029576201508211600100025006KY-2NH3                  0001                20150910                                                                                                                                                                                                              
129576     O31E113914600029576201508211600100025006KY-2NH3                  0002EFU8E652V           EFU8E652V                     00025347CB00002000PC000000001171420000100020150825SEA.FSINMSP144409/DD5555-233236                                                                                                   
129576     O31E913914600029576201508211600100025006KY-2NH3                  0002                20150910                                                                                                                                                                                                              
