129576     O31A113914600029576201505270900100025006LS-WCSS                       210002500600039415        41507631                 FT    Ugi / Mr Joko                 N F/GDS - TRI(LATIN AMERICA  )  20150527        1N10002957620150707SEA.FZLC                                                               O312
129576     O31A213914600029576201505270900100025006LS-WCSS                      FOB                               USD                                                                20150805                SCMM                                        00029576                   00039415  PLAT-COLON     20150707 
129576     O31A613914600029576201505270900100025006LS-WCSS                      T/T BY 10TH OF NEXT MONTH                         BY T/T REMITTANCE ON THE 10TH OF THE NEXT MONTH                                                                                                                                     
129576     O31B113914600029576201505270900100025006LS-WCSS                      PLAT-COLON                    41507631                      LS-WCSS                       C/NO.                                                                                                                                       
129576     O31E113914600029576201505270900100025006LS-WCSS                  0001EFDLV11D65L                                       00025347CB00025800PC000000001155420000100020150707SEA.FZLC41507631                                                                                                                  
129576     O31E913914600029576201505270900100025006LS-WCSS                  0001                20150805                                                                                                                                                                                                              
129576     O31E113914600029576201505270900100025006LS-WCSS                  0002EFDLV15L27LC                                      00025347CB00004920PC000000001165320000100020150707SEA.FZLC41507631                                                                                                                  
129576     O31E913914600029576201505270900100025006LS-WCSS                  0002                20150805                                                                                                                                                                                                              
129576     O31E113914600029576201505270900100025006LS-WCSS                  0003EFDLV20D65L                                       00025347CB00025080PC000000001404420000100020150707SEA.FZLC41507631                                                                                                                  
129576     O31E913914600029576201505270900100025006LS-WCSS                  0003                20150805                                                                                                                                                                                                              
129576     O31E113914600029576201505270900100025006LS-WCSS                  0004EFDLV20L27L                                       00025347CB00006240PC000000001404420000100020150707SEA.FZLC41507631                                                                                                                  
129576     O31E913914600029576201505270900100025006LS-WCSS                  0004                20150805                                                                                                                                                                                                              
129576     O31E113914600029576201505270900100025006LS-WCSS                  0005EFDLV23D65L                                       00025347CB00003720PC000000001573720000100020150707SEA.FZLC41507631                                                                                                                  
129576     O31E913914600029576201505270900100025006LS-WCSS                  0005                20150805                                                                                                                                                                                                              
129576     O31E113914600029576201505270900100025006LS-WCSS                  0006EFDLV23D65LC                                      00025347CB00015960PC000000001573720000100020150707SEA.FZLC41507631                                                                                                                  
129576     O31E913914600029576201505270900100025006LS-WCSS                  0006                20150805                                                                                                                                                                                                              
129576     O31E113914600029576201505270900100025006LS-WCSS                  0007EFDLV25L27L                                       00025347CB00004920PC000000001673320000100020150707SEA.FZLC41507631                                                                                                                  
129576     O31E913914600029576201505270900100025006LS-WCSS                  0007                20150805                                                                                                                                                                                                              
129576     O31E113914600029576201505270900100025006LS-WCSS                  0008EFDLV8D65L                                        00025347CB00027000PC000000001195220000100020150707SEA.FZLC41507631                                                                                                                  
129576     O31E913914600029576201505270900100025006LS-WCSS                  0008                20150805                                                                                                                                                                                                              
129576     O31E113914600029576201505270900100025006LS-WCSS                  0009EFDLV8L27L                                        00025347CB00012360PC000000001195220000100020150707SEA.FZLC41507631                                                                                                                  
129576     O31E913914600029576201505270900100025006LS-WCSS                  0009                20150805                                                                                                                                                                                                              
