129576     O31A113914600029576201512031300100025006KY-AB2S                       210002500600039140                                 FT    Ugi / Mr Joko                 N F/GDS - TRI(ASIA           )  20151203        1N10002957620160126SEA.FPKL                                                               O113
129576     O31A213914600029576201512031300100025006KY-AB2S                      FOB                               USD                                                                20160208                                                            00029576                   00039140  PM             20160126 
129576     O31A613914600029576201512031300100025006KY-AB2S                      T/T BY 10TH OF NEXT MONTH                         BY T/T REMITTANCE ON THE 10TH OF THE NEXT MONTH                                                                                                                                     
129576     O31B113914600029576201512031300100025006KY-AB2S                      PM                            MMQ148557/EL1512002           KY-AB2S                       C/NO.                                                                                                                                       
129576     O31E113914600029576201512031300100025006KY-AB2S                  0001EFUHV18D65A                                       00025347CB00400000PC000000000012000000100020160126SEA.FPKLMMQ148557/EL1512002                                                                                                       
129576     O31E913914600029576201512031300100025006KY-AB2S                  0001                20160208                                                                                                                                                                                                              
129576     O31A113914600029576201512031300100025006KY-AB2T                       210002500600039140                                 FT    Ugi / Mr Joko                 N F/GDS - TRI(ASIA           )  20151203        1N10002957620160223SEA.FPKL                                                               O113
129576     O31A213914600029576201512031300100025006KY-AB2T                      FOB                               USD                                                                20160307                                                            00029576                   00039140  PM             20160223 
129576     O31A613914600029576201512031300100025006KY-AB2T                      T/T BY 10TH OF NEXT MONTH                         BY T/T REMITTANCE ON THE 10TH OF THE NEXT MONTH                                                                                                                                     
129576     O31B113914600029576201512031300100025006KY-AB2T                      PM                            MMQ148559/EL1512003           KY-AB2T                       C/NO.                                                                                                                                       
129576     O31E113914600029576201512031300100025006KY-AB2T                  0001EFUHV18D65A                                       00025347CB00550000PC000000000012000000100020160223SEA.FPKLMMQ148559/EL1512003                                                                                                       
129576     O31E913914600029576201512031300100025006KY-AB2T                  0001                20160307                                                                                                                                                                                                              
129576     O31A113914600029576201512031300100025006KY-AB2U                       210002500600039140                                 FT    Ugi / Mr Joko                 N F/GDS - TRI(ASIA           )  20151203        1N10002957620151223SEA.FPKL                                                               O113
129576     O31A213914600029576201512031300100025006KY-AB2U                      FOB                               USD                                                                20160105                                                            00029576                   00039140  PM             20151223 
129576     O31A613914600029576201512031300100025006KY-AB2U                      T/T BY 10TH OF NEXT MONTH                         BY T/T REMITTANCE ON THE 10TH OF THE NEXT MONTH                                                                                                                                     
129576     O31B113914600029576201512031300100025006KY-AB2U                      PM                            MMQ148558/EL1512001           KY-AB2U                       C/NO.                                                                                                                                       
129576     O31E113914600029576201512031300100025006KY-AB2U                  0001EFUHV18D65A                                       00025347CB00450000PC000000000012000000100020151223SEA.FPKLMMQ148558/EL1512001                                                                                                       
129576     O31E913914600029576201512031300100025006KY-AB2U                  0001                20160105                                                                                                                                                                                                              
