129576     O31A113914600029576201505181600100025006KY-VN68                       21000250062062061620620616                         FT    Ugi / Mr Joko                 N F/GDS - TRI(ASIA           )  20150518        1N10002957620150724SEA.FSIN                                                               O112
129576     O31A213914600029576201505181600100025006KY-VN68                      FOB                               USD                                 BLS                            20150810                                                            00029576                   20620616  BLS            20150724 
129576     O31A613914600029576201505181600100025006KY-VN68                      T/T BY 10TH OF NEXT MONTH                         BY T/T REMITTANCE ON THE 10TH OF THE NEXT MONTH                                                                                                                                     
129576     O31B113914600029576201505181600100025006KY-VN68                      BLS                           C/NO.                                                                                                                                                                                                   
129576     O31E113914600029576201505181600100025006KY-VN68                  0001EFDHV11D65A         EFDHV11D65A                   00025347CB00024000PC000000000125510000100020150724SEA.FSINMGM141827/660-403340                                                                                                      
129576     O31E913914600029576201505181600100025006KY-VN68                  0001                20150810                                                                                                                                                                                                              
129576     O31E113914600029576201505181600100025006KY-VN68                  0002EFDHV23D65A         EFDHV23D65A                   00025347CB00038400PC000000001553820000100020150724SEA.FSINMGM141827/660-403340                                                                                                      
129576     O31E913914600029576201505181600100025006KY-VN68                  0002                20150810                                                                                                                                                                                                              
129576     O31E113914600029576201505181600100025006KY-VN68                  0003EFDHV23L27A         EFDHV23L27A                   00025347CB00004800PC000000001553820000100020150724SEA.FSINMGM141827/660-403340                                                                                                      
129576     O31E913914600029576201505181600100025006KY-VN68                  0003                20150810                                                                                                                                                                                                              
129576     O31E113914600029576201505181600100025006KY-VN68                  0004EFDHV15L27A         EFDHV15L27A                   00025347CB00009600PC000000000125510000100020150724SEA.FSINMGM141827/660-403340                                                                                                      
129576     O31E913914600029576201505181600100025006KY-VN68                  0004                20150810                                                                                                                                                                                                              
129576     O31E113914600029576201505181600100025006KY-VN68                  0005EFDHV20D65A         EFDHV20D65A                   00025347CB00038400PC000000001553820000100020150724SEA.FSINMGM141827/660-403340                                                                                                      
129576     O31E913914600029576201505181600100025006KY-VN68                  0005                20150810                                                                                                                                                                                                              
129576     O31E113914600029576201505181600100025006KY-VN68                  0006EFDHV5D65A          EFDHV5D65A                    00025347CB00024000PC000000001075720000100020150724SEA.FSINMGM141827/660-403340                                                                                                      
129576     O31E913914600029576201505181600100025006KY-VN68                  0006                20150810                                                                                                                                                                                                              
129576     O31A113914600029576201505181600100025006KY-VN70                       21000250062062061620620616                         FT    Ugi / Mr Joko                 N F/GDS - TRI(ASIA           )  20150518        1N10002957620150824SEA.FSIN                                                               O112
129576     O31A213914600029576201505181600100025006KY-VN70                      FOB                               USD                                 BLS                            20150910                                                            00029576                   20620616  BLS            20150824 
129576     O31A613914600029576201505181600100025006KY-VN70                      T/T BY 10TH OF NEXT MONTH                         BY T/T REMITTANCE ON THE 10TH OF THE NEXT MONTH                                                                                                                                     
129576     O31B113914600029576201505181600100025006KY-VN70                      BLS                           C/NO.                                                                                                                                                                                                   
129576     O31E113914600029576201505181600100025006KY-VN70                  0001EFDHV11L27A         EFDHV11L27A                   00025347CB00011520PC000000000125510000100020150824SEA.FSINMGM141831/660-403335                                                                                                      
129576     O31E913914600029576201505181600100025006KY-VN70                  0001                20150910                                                                                                                                                                                                              
129576     O31E113914600029576201505181600100025006KY-VN70                  0002EFDHV20L27A         EFDHV20L27A                   00025347CB00004800PC000000001553820000100020150824SEA.FSINMGM141831/660-403335                                                                                                      
129576     O31E913914600029576201505181600100025006KY-VN70                  0002                20150910                                                                                                                                                                                                              
129576     O31E113914600029576201505181600100025006KY-VN70                  0003EFDHV23D65A         EFDHV23D65A                   00025347CB00038400PC000000001553820000100020150824SEA.FSINMGM141831/660-403335                                                                                                      
129576     O31E913914600029576201505181600100025006KY-VN70                  0003                20150910                                                                                                                                                                                                              
129576     O31E113914600029576201505181600100025006KY-VN70                  0004EFDHV20D65A         EFDHV20D65A                   00025347CB00059520PC000000001553820000100020150824SEA.FSINMGM141831/660-403335                                                                                                      
129576     O31E913914600029576201505181600100025006KY-VN70                  0004                20150910                                                                                                                                                                                                              
129576     O31E113914600029576201505181600100025006KY-VN70                  0005EFDHV25L27A         EFDHV25L27A                   00025347CB00004800PC000000001553820000100020150824SEA.FSINMGM141831/660-403335                                                                                                      
129576     O31E913914600029576201505181600100025006KY-VN70                  0005                20150910                                                                                                                                                                                                              
129576     O31E113914600029576201505181600100025006KY-VN70                  0006EFDHV8D65A          EFDHV8D65A                    00025347CB00024000PC000000001075720000100020150824SEA.FSINMGM141831/660-403335                                                                                                      
129576     O31E913914600029576201505181600100025006KY-VN70                  0006                20150910                                                                                                                                                                                                              
129576     O31A113914600029576201505181600100025006KY-VN5G                       21000250062062061620620616                         FT    Ugi / Mr Joko                 N F/GDS - TRI(ASIA           )  20150518        1N10002957620150724SEA.FSIN                                                               O112
129576     O31A213914600029576201505181600100025006KY-VN5G                      FOB                               USD                                 BLS                            20150810                                                            00029576                   20620616  BLS            20150724 
129576     O31A613914600029576201505181600100025006KY-VN5G                      T/T BY 10TH OF NEXT MONTH                         BY T/T REMITTANCE ON THE 10TH OF THE NEXT MONTH                                                                                                                                     
129576     O31B113914600029576201505181600100025006KY-VN5G                      BLS                           C/NO.                                                                                                                                                                                                   
129576     O31E113914600029576201505181600100025006KY-VN5G                  0001EFDHV11D65BA        EFDHV11D65BA                  00025347CB00024000PC000000000125510000100020150724SEA.FSINMGM141834/660-403341                                                                                                      
129576     O31E913914600029576201505181600100025006KY-VN5G                  0001                20150810                                                                                                                                                                                                              
129576     O31E113914600029576201505181600100025006KY-VN5G                  0002EFDHV15D65BA        EFDHV15D65BA                  00025347CB00072000PC000000000125510000100020150724SEA.FSINMGM141834/660-403341                                                                                                      
129576     O31E913914600029576201505181600100025006KY-VN5G                  0002                20150810                                                                                                                                                                                                              
129576     O31E113914600029576201505181600100025006KY-VN5G                  0003EFDHV23D65BA        EFDHV23D65BA                  00025347CB00035520PC000000001553820000100020150724SEA.FSINMGM141834/660-403341                                                                                                      
129576     O31E913914600029576201505181600100025006KY-VN5G                  0003                20150810                                                                                                                                                                                                              
129576     O31E113914600029576201505181600100025006KY-VN5G                  0004EFDHV25D65BA        EFDHV25D65BA                  00025347CB00048000PC000000001553820000100020150724SEA.FSINMGM141834/660-403341                                                                                                      
129576     O31E913914600029576201505181600100025006KY-VN5G                  0004                20150810                                                                                                                                                                                                              
129576     O31E113914600029576201505181600100025006KY-VN5G                  0005EFDHV5D65BA         EFDHV5D65BA                   00025347CB00096000PC000000001075720000100020150724SEA.FSINMGM141834/660-403341                                                                                                      
129576     O31E913914600029576201505181600100025006KY-VN5G                  0005                20150810                                                                                                                                                                                                              
129576     O31E113914600029576201505181600100025006KY-VN5G                  0006EFDHV8D65BA         EFDHV8D65BA                   00025347CB00024000PC000000001075720000100020150724SEA.FSINMGM141834/660-403341                                                                                                      
129576     O31E913914600029576201505181600100025006KY-VN5G                  0006                20150810                                                                                                                                                                                                              
129576     O31E113914600029576201505181600100025006KY-VN5G                  0007EFDHV5L27BA         EFDHV5L27BA                   00025347CB00011520PC000000001075720000100020150724SEA.FSINMGM141834/660-403341                                                                                                      
129576     O31E913914600029576201505181600100025006KY-VN5G                  0007                20150810                                                                                                                                                                                                              
129576     O31E113914600029576201505181600100025006KY-VN5G                  0008EFDHV15L27BA        EFDHV15L27BA                  00025347CB00009600PC000000000125510000100020150724SEA.FSINMGM141834/660-403341                                                                                                      
129576     O31E913914600029576201505181600100025006KY-VN5G                  0008                20150810                                                                                                                                                                                                              
129576     O31E113914600029576201505181600100025006KY-VN5G                  0009EFDHV20D65BA        EFDHV20D65BA                  00025347CB00059520PC000000001553820000100020150724SEA.FSINMGM141834/660-403341                                                                                                      
129576     O31E913914600029576201505181600100025006KY-VN5G                  0009                20150810                                                                                                                                                                                                              
129576     O31E113914600029576201505181600100025006KY-VN5G                  0010EFDHV20L27BA        EFDHV20L27BA                  00025347CB00000960PC000000001553820000100020150724SEA.FSINMGM141834/660-403341                                                                                                      
129576     O31E913914600029576201505181600100025006KY-VN5G                  0010                20150810                                                                                                                                                                                                              
129576     O31A113914600029576201505181600100025006KY-VN6G                       21000250062062061620620616                         FT    Ugi / Mr Joko                 N F/GDS - TRI(ASIA           )  20150518        1N10002957620150824SEA.FSIN                                                               O112
129576     O31A213914600029576201505181600100025006KY-VN6G                      FOB                               USD                                 BLS                            20150910                                                            00029576                   20620616  BLS            20150824 
129576     O31A613914600029576201505181600100025006KY-VN6G                      T/T BY 10TH OF NEXT MONTH                         BY T/T REMITTANCE ON THE 10TH OF THE NEXT MONTH                                                                                                                                     
129576     O31B113914600029576201505181600100025006KY-VN6G                      BLS                           C/NO.                                                                                                                                                                                                   
129576     O31E113914600029576201505181600100025006KY-VN6G                  0001EFU14E652V          EFU14E652V                    00025347CB00012000PC000000001398520000100020150824SEA.FSINMGM141826/660-403337                                                                                                      
129576     O31E913914600029576201505181600100025006KY-VN6G                  0001                20150910                                                                                                                                                                                                              
129576     O31E113914600029576201505181600100025006KY-VN6G                  0002EFU5E282V           EFU5E282V                     00025347CB00012000PC000000001261320000100020150824SEA.FSINMGM141826/660-403337                                                                                                      
129576     O31E913914600029576201505181600100025006KY-VN6G                  0002                20150910                                                                                                                                                                                                              
129576     O31E113914600029576201505181600100025006KY-VN6G                  0003EFU5E672V           EFU5E672V                     00025347CB00060000PC000000001261320000100020150824SEA.FSINMGM141826/660-403337                                                                                                      
129576     O31E913914600029576201505181600100025006KY-VN6G                  0003                20150910                                                                                                                                                                                                              
129576     O31E113914600029576201505181600100025006KY-VN6G                  0004EFU8E272V           EFU8E272V                     00025347CB00006000PC000000001370120000100020150824SEA.FSINMGM141826/660-403337                                                                                                      
129576     O31E913914600029576201505181600100025006KY-VN6G                  0004                20150910                                                                                                                                                                                                              
129576     O31E113914600029576201505181600100025006KY-VN6G                  0005EFU8E652V           EFU8E652V                     00025347CB00012000PC000000001370120000100020150824SEA.FSINMGM141826/660-403337                                                                                                      
129576     O31E913914600029576201505181600100025006KY-VN6G                  0005                20150910                                                                                                                                                                                                              
129576     O31A113914600029576201505181600100025006KY-VN5H                       21000250062062061620620616                         FT    Ugi / Mr Joko                 N F/GDS - TRI(ASIA           )  20150518        1N10002957620150724SEA.FSIN                                                               O112
129576     O31A213914600029576201505181600100025006KY-VN5H                      FOB                               USD                                 BLS                            20150810                                                            00029576                   20620616  BLS            20150724 
129576     O31A613914600029576201505181600100025006KY-VN5H                      T/T BY 10TH OF NEXT MONTH                         BY T/T REMITTANCE ON THE 10TH OF THE NEXT MONTH                                                                                                                                     
129576     O31B113914600029576201505181600100025006KY-VN5H                      BLS                           C/NO.                                                                                                                                                                                                   
129576     O31E113914600029576201505181600100025006KY-VN5H                  0001EFU11E272V          EFU11E272V                    00025347CB00012000PC000000001398520000100020150724SEA.FSINMGM141828/660-403339                                                                                                      
129576     O31E913914600029576201505181600100025006KY-VN5H                  0001                20150810                                                                                                                                                                                                              
129576     O31E113914600029576201505181600100025006KY-VN5H                  0002EFU11E652V          EFU11E652V                    00025347CB00012000PC000000001398520000100020150724SEA.FSINMGM141828/660-403339                                                                                                      
129576     O31E913914600029576201505181600100025006KY-VN5H                  0002                20150810                                                                                                                                                                                                              
129576     O31E113914600029576201505181600100025006KY-VN5H                  0003EFU14E272V          EFU14E272V                    00025347CB00012000PC000000001398520000100020150724SEA.FSINMGM141828/660-403339                                                                                                      
129576     O31E913914600029576201505181600100025006KY-VN5H                  0003                20150810                                                                                                                                                                                                              
129576     O31E113914600029576201505181600100025006KY-VN5H                  0004EFU14E652V          EFU14E652V                    00025347CB00006000PC000000001398520000100020150724SEA.FSINMGM141828/660-403339                                                                                                      
129576     O31E913914600029576201505181600100025006KY-VN5H                  0004                20150810                                                                                                                                                                                                              
129576     O31E113914600029576201505181600100025006KY-VN5H                  0005EFU18E652V          EFU18E652V                    00025347CB00012000PC000000001599120000100020150724SEA.FSINMGM141828/660-403339                                                                                                      
129576     O31E913914600029576201505181600100025006KY-VN5H                  0005                20150810                                                                                                                                                                                                              
129576     O31E113914600029576201505181600100025006KY-VN5H                  0006EFU5E282V           EFU5E282V                     00025347CB00012000PC000000001261320000100020150724SEA.FSINMGM141828/660-403339                                                                                                      
129576     O31E913914600029576201505181600100025006KY-VN5H                  0006                20150810                                                                                                                                                                                                              
129576     O31E113914600029576201505181600100025006KY-VN5H                  0007EFU8E272V           EFU8E272V                     00025347CB00006000PC000000001370120000100020150724SEA.FSINMGM141828/660-403339                                                                                                      
129576     O31E913914600029576201505181600100025006KY-VN5H                  0007                20150810                                                                                                                                                                                                              
129576     O31E113914600029576201505181600100025006KY-VN5H                  0008EFU8E652V           EFU8E652V                     00025347CB00012000PC000000001370120000100020150724SEA.FSINMGM141828/660-403339                                                                                                      
129576     O31E913914600029576201505181600100025006KY-VN5H                  0008                20150810                                                                                                                                                                                                              
129576     O31A113914600029576201505181600100025006KY-VN63                       21000250062062061620620616                         FT    Ugi / Mr Joko                 N F/GDS - TRI(ASIA           )  20150518        1N10002957620150824SEA.FSIN                                                               O112
129576     O31A213914600029576201505181600100025006KY-VN63                      FOB                               USD                                 BLS                            20150910                                                            00029576                   20620616  BLS            20150824 
129576     O31A613914600029576201505181600100025006KY-VN63                      T/T BY 10TH OF NEXT MONTH                         BY T/T REMITTANCE ON THE 10TH OF THE NEXT MONTH                                                                                                                                     
129576     O31B113914600029576201505181600100025006KY-VN63                      BLS                           C/NO.                                                                                                                                                                                                   
129576     O31E113914600029576201505181600100025006KY-VN63                  0001EFDHV32D65A         EFDHV32D65A                   00025347CB00096000PC000000000274710000100020150824SEA.FSINMGM141830/660-403338                                                                                                      
129576     O31E913914600029576201505181600100025006KY-VN63                  0001                20150910                                                                                                                                                                                                              
129576     O31E113914600029576201505181600100025006KY-VN63                  0002EFDHV42D65A         EFDHV42D65A                   00025347CB00096000PC000000003041320000100020150824SEA.FSINMGM141830/660-403338                                                                                                      
129576     O31E913914600029576201505181600100025006KY-VN63                  0002                20150910                                                                                                                                                                                                              
129576     O31A113914600029576201505181600100025006KY-VN6Q                       21000250062062061620620616                         FT    Ugi / Mr Joko                 N F/GDS - TRI(ASIA           )  20150518        1N10002957620150824SEA.FSIN                                                               O112
129576     O31A213914600029576201505181600100025006KY-VN6Q                      FOB                               USD                                 BLS                            20150910                                                            00029576                   20620616  BLS            20150824 
129576     O31A613914600029576201505181600100025006KY-VN6Q                      T/T BY 10TH OF NEXT MONTH                         BY T/T REMITTANCE ON THE 10TH OF THE NEXT MONTH                                                                                                                                     
129576     O31B113914600029576201505181600100025006KY-VN6Q                      BLS                           C/NO.                                                                                                                                                                                                   
129576     O31E113914600029576201505181600100025006KY-VN6Q                  0001EFDHV11D65BA        EFDHV11D65BA                  00025347CB00048000PC000000000125510000100020150824SEA.FSINMGM141833/660-403336                                                                                                      
129576     O31E913914600029576201505181600100025006KY-VN6Q                  0001                20150910                                                                                                                                                                                                              
129576     O31E113914600029576201505181600100025006KY-VN6Q                  0002EFDHV11L27BA        EFDHV11L27BA                  00025347CB00002400PC000000000125510000100020150824SEA.FSINMGM141833/660-403336                                                                                                      
129576     O31E913914600029576201505181600100025006KY-VN6Q                  0002                20150910                                                                                                                                                                                                              
129576     O31E113914600029576201505181600100025006KY-VN6Q                  0003EFDHV15D65BA        EFDHV15D65BA                  00025347CB00048000PC000000000125510000100020150824SEA.FSINMGM141833/660-403336                                                                                                      
129576     O31E913914600029576201505181600100025006KY-VN6Q                  0003                20150910                                                                                                                                                                                                              
129576     O31E113914600029576201505181600100025006KY-VN6Q                  0004EFDHV25D65BA        EFDHV25D65BA                  00025347CB00024000PC000000001553820000100020150824SEA.FSINMGM141833/660-403336                                                                                                      
129576     O31E913914600029576201505181600100025006KY-VN6Q                  0004                20150910                                                                                                                                                                                                              
129576     O31E113914600029576201505181600100025006KY-VN6Q                  0005EFDHV5D65BA         EFDHV5D65BA                   00025347CB00096000PC000000001075720000100020150824SEA.FSINMGM141833/660-403336                                                                                                      
129576     O31E913914600029576201505181600100025006KY-VN6Q                  0005                20150910                                                                                                                                                                                                              
129576     O31E113914600029576201505181600100025006KY-VN6Q                  0006EFDHV8D65BA         EFDHV8D65BA                   00025347CB00048000PC000000001075720000100020150824SEA.FSINMGM141833/660-403336                                                                                                      
129576     O31E913914600029576201505181600100025006KY-VN6Q                  0006                20150910                                                                                                                                                                                                              
129576     O31E113914600029576201505181600100025006KY-VN6Q                  0007EFDHV20D65BA        EFDHV20D65BA                  00025347CB00048000PC000000001553820000100020150824SEA.FSINMGM141833/660-403336                                                                                                      
129576     O31E913914600029576201505181600100025006KY-VN6Q                  0007                20150910                                                                                                                                                                                                              
