129576     O31A113914600029576201504201600100025006KY-TTG7                       21000250062062061620620616                         FT    Ugi / Mr Joko                 N F/GDS - TRI(ASIA           )  20150420        1N10002957620150623SEA.FSIN                                                               O112
129576     O31A213914600029576201504201600100025006KY-TTG7                      FOB                               USD                                 BLS                            20150710                                                            00029576                   20620616  BLS            20150623 
129576     O31A613914600029576201504201600100025006KY-TTG7                      T/T BY 10TH OF NEXT MONTH                         BY T/T REMITTANCE ON THE 10TH OF THE NEXT MONTH                                                                                                                                     
129576     O31B113914600029576201504201600100025006KY-TTG7                      BLS                           C/NO.                                                                                                                                                                                                   
129576     O31E113914600029576201504201600100025006KY-TTG7                  0001EFU5E672V           EFU5E672V                     00025347CB00030000PC000000001261320000100020150623SEA.FSINMGM140811/660-403244                                                                                                      
129576     O31E913914600029576201504201600100025006KY-TTG7                  0001                20150710                                                                                                                                                                                                              
129576     O31E113914600029576201504201600100025006KY-TTG7                  0002EFU8E272V           EFU8E272V                     00025347CB00012000PC000000001370120000100020150623SEA.FSINMGM140811/660-403244                                                                                                      
129576     O31E913914600029576201504201600100025006KY-TTG7                  0002                20150710                                                                                                                                                                                                              
129576     O31E113914600029576201504201600100025006KY-TTG7                  0003EFU8E652V           EFU8E652V                     00025347CB00012000PC000000001370120000100020150623SEA.FSINMGM140811/660-403244                                                                                                      
129576     O31E913914600029576201504201600100025006KY-TTG7                  0003                20150710                                                                                                                                                                                                              
129576     O31E113914600029576201504201600100025006KY-TTG7                  0004EFU14E652V          EFU14E652V                    00025347CB00012000PC000000001398520000100020150623SEA.FSINMGM140811/660-403244                                                                                                      
129576     O31E913914600029576201504201600100025006KY-TTG7                  0004                20150710                                                                                                                                                                                                              
129576     O31E113914600029576201504201600100025006KY-TTG7                  0005EFU5E282V           EFU5E282V                     00025347CB00012000PC000000001261320000100020150623SEA.FSINMGM140811/660-403244                                                                                                      
129576     O31E913914600029576201504201600100025006KY-TTG7                  0005                20150710                                                                                                                                                                                                              
