129576     O31A113914600029576201507290301100025006KY-0XRG                       210002500600029073                                 FT    Ugi / Mr Joko                 N F/GDS - TRI(ASIA           )  20150728        1N10002957620150904SEA.FSIN                                                               O112
129576     O31A213914600029576201507290301100025006KY-0XRG                      FOB                               USD                                                                20150910                SCMM                                        00029576                   00029073  PSP-DD         20150904 
129576     O31A613914600029576201507290301100025006KY-0XRG                      T/T BY 10TH OF NEXT MONTH                         BY T/T REMITTANCE ON THE 10TH OF THE NEXT MONTH                                                                                                                                     
129576     O31B113914600029576201507290301100025006KY-0XRG                      NO MARK                                                                                                                                                                                                                               
129576     O31E113914600029576201507290301100025006KY-0XRG                  0001FCL22EXD            FCL22EXD                      00025346CB00005000PC000000002038820000100020150904SEA.FSINMSP144435/DD5555-233235                                                                                                   
129576     O31E913914600029576201507290301100025006KY-0XRG                  0001                20150910                                                                                                                                                                                                              
129576     O31E113914600029576201507290301100025006KY-0XRG                  0002FCL40EX-D(I)        FCL40EX-D(I)                  00025346CB00024000PC000000003563720000100020150904SEA.FSINMSP144435/DD5555-233235                                                                                                   
129576     O31E913914600029576201507290301100025006KY-0XRG                  0002                20150910                                                                                                                                                                                                              
129576     O31A113914600029576201507290301100025006KY-0XQP                       210002500600029073                                 FT    Ugi / Mr Joko                 N F/GDS - TRI(ASIA           )  20150728        1N10002957620150825SEA.FSIN                                                               O112
129576     O31A213914600029576201507290301100025006KY-0XQP                      FOB                               USD                                                                20150910                SCMM                                        00029576                   00029073  PSP-DD         20150825 
129576     O31A613914600029576201507290301100025006KY-0XQP                      T/T BY 10TH OF NEXT MONTH                         BY T/T REMITTANCE ON THE 10TH OF THE NEXT MONTH                                                                                                                                     
129576     O31B113914600029576201507290301100025006KY-0XQP                      PSP-DD                        MSP144409/DD5555-233236       KY-0XQP                       C/NO.                                                                                                                                       
129576     O31E113914600029576201507290301100025006KY-0XQP                  0001EFU14E652V          EFU14E652V                    00025347CB00001800PC000000001257320000100020150825SEA.FSINMSP144409/DD5555-233236                                                                                                   
129576     O31E913914600029576201507290301100025006KY-0XQP                  0001                20150910                                                                                                                                                                                                              
129576     O31E113914600029576201507290301100025006KY-0XQP                  0002EFU8E652V           EFU8E652V                     00025347CB00002000PC000000001171420000100020150825SEA.FSINMSP144409/DD5555-233236                                                                                                   
129576     O31E913914600029576201507290301100025006KY-0XQP                  0002                20150910                                                                                                                                                                                                              
129576     O31A113914600029576201507290301100025006KY-0XQ6                       210002500600029073                                 FT    Ugi / Mr Joko                 N F/GDS - TRI(ASIA           )  20150728        1N10002957620150904SEA.FSIN                                                               O112
129576     O31A213914600029576201507290301100025006KY-0XQ6                      FOB                               USD                                                                20150910                SCMM                                        00029576                   00029073  PSP-DD         20150904 
129576     O31A613914600029576201507290301100025006KY-0XQ6                      T/T BY 10TH OF NEXT MONTH                         BY T/T REMITTANCE ON THE 10TH OF THE NEXT MONTH                                                                                                                                     
129576     O31B113914600029576201507290301100025006KY-0XQ6                      NO MARK                                                                                                                                                                                                                               
129576     O31E113914600029576201507290301100025006KY-0XQ6                  0001FL20SS.D/18G        FL20SS.D/18                   00025345CB00060000PC000000000403320000100020150904SEA.FSINMSP144408/DD5555-233234                                                                                                   
129576     O31E913914600029576201507290301100025006KY-0XQ6                  0001                20150910                                                                                                                                                                                                              
129576     O31E113914600029576201507290301100025006KY-0XQ6                  0002FL40SS.D/36G        FL40SS.D/36                   00025345CB00080000PC000000000461420000100020150904SEA.FSINMSP144408/DD5555-233234                                                                                                   
129576     O31E913914600029576201507290301100025006KY-0XQ6                  0002                20150910                                                                                                                                                                                                              
