129576     O31A113914600029576201504221100100025006KY-TYA8                       210002500600039140                                 FT    Ugi / Mr Joko                 N F/GDS - TRI(ASIA           )  20150422        1N10002957620150502SEA.FPKL                                                               O113
129576     O31A213914600029576201504221100100025006KY-TYA8                      FOB                               USD                                                                20150515                                                            00029576                   00039140  PM             20150502 
129576     O31A613914600029576201504221100100025006KY-TYA8                      T/T BY 10TH OF NEXT MONTH                         BY T/T REMITTANCE ON THE 10TH OF THE NEXT MONTH                                                                                                                                     
129576     O31B113914600029576201504221100100025006KY-TYA8                      PM                            MMQ140843/EL1504005           KY-TYA8                       C/NO.                                                                                                                                       
129576     O31E113914600029576201504221100100025006KY-TYA8                  0001EFDHV20D65A                                       00025347CB00014400PC000000001533820000100020150502SEA.FPKLMMQ140843/EL1504005                                                                                                       
129576     O31E913914600029576201504221100100025006KY-TYA8                  0001                20150515                                                                                                                                                                                                              
129576     O31E113914600029576201504221100100025006KY-TYA8                  0002EFDHV23D65A                                       00025347CB00011520PC000000001533820000100020150502SEA.FPKLMMQ140843/EL1504005                                                                                                       
129576     O31E913914600029576201504221100100025006KY-TYA8                  0002                20150515                                                                                                                                                                                                              
129576     O31E113914600029576201504221100100025006KY-TYA8                  0003EFDHV25D65A                                       00025347CB00200640PC000000001533820000100020150502SEA.FPKLMMQ140843/EL1504005                                                                                                       
129576     O31E913914600029576201504221100100025006KY-TYA8                  0003                20150515                                                                                                                                                                                                              
129576     O31A113914600029576201504221100100025006KY-TYA4                       210002500600039140                                 FT    Ugi / Mr Joko                 N F/GDS - TRI(ASIA           )  20150422        1N10002957620150427SEA.FPKL                                                               O113
129576     O31A213914600029576201504221100100025006KY-TYA4                      FOB                               USD                                                                20150510                                                            00029576                   00039140  PM             20150427 
129576     O31A613914600029576201504221100100025006KY-TYA4                      T/T BY 10TH OF NEXT MONTH                         BY T/T REMITTANCE ON THE 10TH OF THE NEXT MONTH                                                                                                                                     
129576     O31B113914600029576201504221100100025006KY-TYA4                      PM                            MMQ140842/EL1504006           KY-TYA4                       C/NO.                                                                                                                                       
129576     O31E113914600029576201504221100100025006KY-TYA4                  0001EFU11E272V                                        00025347CB00010000PC000000000120510000100020150427SEA.FPKLMMQ140842/EL1504006                                                                                                       
129576     O31E913914600029576201504221100100025006KY-TYA4                  0001                20150510                                                                                                                                                                                                              
129576     O31E113914600029576201504221100100025006KY-TYA4                  0002EFU11E652V                                        00025347CB00010000PC000000000120510000100020150427SEA.FPKLMMQ140842/EL1504006                                                                                                       
129576     O31E913914600029576201504221100100025006KY-TYA4                  0002                20150510                                                                                                                                                                                                              
129576     O31E113914600029576201504221100100025006KY-TYA4                  0003EFU14E272V                                        00025347CB00006000PC000000001267120000100020150427SEA.FPKLMMQ140842/EL1504006                                                                                                       
129576     O31E913914600029576201504221100100025006KY-TYA4                  0003                20150510                                                                                                                                                                                                              
129576     O31E113914600029576201504221100100025006KY-TYA4                  0004EFU14E652V                                        00025347CB00035000PC000000001267120000100020150427SEA.FPKLMMQ140842/EL1504006                                                                                                       
129576     O31E913914600029576201504221100100025006KY-TYA4                  0004                20150510                                                                                                                                                                                                              
129576     O31E113914600029576201504221100100025006KY-TYA4                  0005EFU18E272V                                        00025347CB00025000PC000000001355920000100020150427SEA.FPKLMMQ140842/EL1504006                                                                                                       
129576     O31E913914600029576201504221100100025006KY-TYA4                  0005                20150510                                                                                                                                                                                                              
129576     O31E113914600029576201504221100100025006KY-TYA4                  0006EFU18E652V                                        00025347CB00450000PC000000001355920000100020150427SEA.FPKLMMQ140842/EL1504006                                                                                                       
129576     O31E913914600029576201504221100100025006KY-TYA4                  0006                20150510                                                                                                                                                                                                              
129576     O31E113914600029576201504221100100025006KY-TYA4                  0007EFU5E282V                                         00025347CB00005000PC000000001035320000100020150427SEA.FPKLMMQ140842/EL1504006                                                                                                       
129576     O31E913914600029576201504221100100025006KY-TYA4                  0007                20150510                                                                                                                                                                                                              
129576     O31E113914600029576201504221100100025006KY-TYA4                  0008EFU5E672V                                         00025347CB00004000PC000000001035320000100020150427SEA.FPKLMMQ140842/EL1504006                                                                                                       
129576     O31E913914600029576201504221100100025006KY-TYA4                  0008                20150510                                                                                                                                                                                                              
129576     O31E113914600029576201504221100100025006KY-TYA4                  0009EFU8E272V                                         00025347CB00006000PC000000001180320000100020150427SEA.FPKLMMQ140842/EL1504006                                                                                                       
129576     O31E913914600029576201504221100100025006KY-TYA4                  0009                20150510                                                                                                                                                                                                              
129576     O31E113914600029576201504221100100025006KY-TYA4                  0010EFU8E652V                                         00025347CB00004000PC000000001180320000100020150427SEA.FPKLMMQ140842/EL1504006                                                                                                       
129576     O31E913914600029576201504221100100025006KY-TYA4                  0010                20150510                                                                                                                                                                                                              
