129576     O31A113914600029576201504230900200025006LS-SGB5                       110002500620614702        31505609-PANALAT BOGOTA  FT                                  N F/GDS - TRI(LATIN AMERICA  )  20150401        1N10002957620150507SEA.FCTG                                                               O   
129576     O31A213914600029576201504230900200025006LS-SGB5                      FOB                               USD                                                                20150605                SCMM                                        00029576                   20614702  P!LAT(CARTAGENA         
129576     O31A613914600029576201504230900200025006LS-SGB5                      Line 1:Unit Price,Qty/UP,Line 2:Unit Price,Qty/UP Line 3:Unit Price,Qty/UP,Line 4:Unit Price,Qty/UP                                                                                                                                   
129576     O31E113914600029576201504230900200025006LS-SGB5                  0001EFDLV11D65L                                       00025347CB00004920PC000000001155420000100020150507SEA.FCTG31505609-PANALAT BOGOTA                                                                                                   
129576     O31E313914600029576201504230900200025006LS-SGB5                  0001                20150605                                                                                                                                                                                                              
129576     O31E113914600029576201504230900200025006LS-SGB5                  0002EFDLV15L27LC                                      00025347CB00001920PC000000001165320000100020150507SEA.FCTG31505609-PANALAT BOGOTA                                                                                                   
129576     O31E313914600029576201504230900200025006LS-SGB5                  0002                20150605                                                                                                                                                                                                              
129576     O31E113914600029576201504230900200025006LS-SGB5                  0003EFDLV23D65LC                                      00025347CB00001800PC000000001573720000100020150507SEA.FCTG31505609-PANALAT BOGOTA                                                                                                   
129576     O31E313914600029576201504230900200025006LS-SGB5                  0003                20150605                                                                                                                                                                                                              
129576     O31E113914600029576201504230900200025006LS-SGB5                  0004EFDLV25D65L                                       00025347CB00019440PC000000001673320000100020150507SEA.FCTG31505609-PANALAT BOGOTA                                                                                                   
129576     O31E313914600029576201504230900200025006LS-SGB5                  0004                20150605                                                                                                                                                                                                              
129576     O31A113914600029576201504230900200025006LS-SGCA                       110002500600039415        41505626                 FT                                  N F/GDS - TRI(LATIN AMERICA  )  20150401        1N10002957620150507SEA.FZLC                                                               O   
129576     O31A213914600029576201504230900200025006LS-SGCA                      FOB                               USD                                                                20150605                SCMM                                        00029576                   00039415  PLAT-COLON              
129576     O31A613914600029576201504230900200025006LS-SGCA                      Line 1:Unit Price,Qty/UP,Line 2:Unit Price,Qty/UP Line 3:Unit Price,Qty/UP,Line 4:Unit Price,Qty/UP Line 5:Unit Price,Qty/UP,Line 6:Unit Price,Qty/UP Line 7:Unit Price,Qty/UP                                                        
129576     O31E113914600029576201504230900200025006LS-SGCA                  0001EFDLV11D65L                                       00025347CB00011160PC000000001155420000100020150507SEA.FZLC41505626                                                                                                                  
129576     O31E313914600029576201504230900200025006LS-SGCA                  0001                20150605                                                                                                                                                                                                              
129576     O31E113914600029576201504230900200025006LS-SGCA                  0002EFDLV15D65L                                       00025347CB00004920PC000000001165320000100020150507SEA.FZLC41505626                                                                                                                  
129576     O31E313914600029576201504230900200025006LS-SGCA                  0002                20150605                                                                                                                                                                                                              
129576     O31E113914600029576201504230900200025006LS-SGCA                  0003EFDLV15L27L                                       00025347CB00006000PC000000001165320000100020150507SEA.FZLC41505626                                                                                                                  
129576     O31E313914600029576201504230900200025006LS-SGCA                  0003                20150605                                                                                                                                                                                                              
129576     O31E113914600029576201504230900200025006LS-SGCA                  0004EFDLV20D65L                                       00025347CB00007080PC000000001404420000100020150507SEA.FZLC41505626                                                                                                                  
129576     O31E313914600029576201504230900200025006LS-SGCA                  0004                20150605                                                                                                                                                                                                              
129576     O31E113914600029576201504230900200025006LS-SGCA                  0005EFDLV23L27L                                       00025347CB00004080PC000000001573720000100020150507SEA.FZLC41505626                                                                                                                  
129576     O31E313914600029576201504230900200025006LS-SGCA                  0005                20150605                                                                                                                                                                                                              
129576     O31E113914600029576201504230900200025006LS-SGCA                  0006EFDLV25D65L                                       00025347CB00013920PC000000001673320000100020150507SEA.FZLC41505626                                                                                                                  
129576     O31E313914600029576201504230900200025006LS-SGCA                  0006                20150605                                                                                                                                                                                                              
129576     O31E113914600029576201504230900200025006LS-SGCA                  0007EFDLV8L27L                                        00025347CB00012360PC000000001195220000100020150507SEA.FZLC41505626                                                                                                                  
129576     O31E313914600029576201504230900200025006LS-SGCA                  0007                20150605                                                                                                                                                                                                              
